{
  "_format": "hh-sol-artifact-1",
  "contractName": "RewardDistributor",
  "sourceName": "contracts/Distributor.sol",
  "abi": [
    {
      "inputs": [],
      "stateMutability": "nonpayable",
      "type": "constructor"
    },
    {
      "inputs": [
        {
          "internalType": "address[]",
          "name": "_holders",
          "type": "address[]"
        },
        {
          "internalType": "uint256[]",
          "name": "_balances",
          "type": "uint256[]"
        }
      ],
      "name": "distributeRewards",
      "outputs": [],
      "stateMutability": "payable",
      "type": "function"
    },
    {
      "inputs": [],
      "name": "owner",
      "outputs": [
        {
          "internalType": "address",
          "name": "",
          "type": "address"
        }
      ],
      "stateMutability": "view",
      "type": "function"
    },
    {
      "inputs": [],
      "name": "totalSupply",
      "outputs": [
        {
          "internalType": "uint256",
          "name": "",
          "type": "uint256"
        }
      ],
      "stateMutability": "view",
      "type": "function"
    },
    {
      "stateMutability": "payable",
      "type": "receive"
    }
  ],
  "bytecode": "0x6080806040523461002857600080546001600160a01b0319163317905561031f908161002e8239f35b600080fdfe608060408160405260049081361015610023575b505050361561002157600080fd5b005b600092833560e01c928363143ba4f3146100b257505050806318160ddd1461008b57638da5cb5b14610056578080610013565b3461008857806003193601126100885773ffffffffffffffffffffffffffffffffffffffff6020915416604051908152f35b80fd5b503461008857806003193601126100885760206040516b033b2e3c9fd0803ce80000008152f35b84935060403660031901126102085767ffffffffffffffff928135848111610289576100e1903690840161028d565b602495602435908111610285576100fb903690860161028d565b9586830361021e575094879697903415915b838110610118578880f35b61012381838a6102c3565b35803402903482041484171561020c57986b033b2e3c9fd0803ce8000000819b9a0480158015610177575b50505060001981146101655760010198979861010d565b888a601189634e487b7160e01b835252fd5b61018284888a6102c3565b359073ffffffffffffffffffffffffffffffffffffffff82168092036102085783928392839283906101ff575bf1156101bd57898b8061014e565b606487600f8b60208a519362461bcd60e51b85528401528201527f5472616e73666572206661696c656400000000000000000000000000000000006044820152fd5b506108fc6101af565b8380fd5b8a8a60118a634e487b7160e01b835252fd5b8060208762461bcd60e51b60849452820152602560248201527f4d69736d61746368206265747765656e20686f6c6465727320616e642062616c60448201527f616e6365730000000000000000000000000000000000000000000000000000006064820152fd5b8780fd5b8580fd5b9181601f840112156102be5782359167ffffffffffffffff83116102be576020808501948460051b0101116102be57565b600080fd5b91908110156102d35760051b0190565b634e487b7160e01b600052603260045260246000fdfea2646970667358221220df103de7af3b1bd88b6a724ca8320b0e17898caa9183b85bdfcb4faef7fbab9f64736f6c63430008180033",
  "linkReferences": {},
  "deployedLinkReferences": {}
}