{
  "_format": "hh-sol-artifact-1",
  "contractName": "Swap",
  "sourceName": "contracts/Swap.sol",
  "abi": [
    {
      "inputs": [
        {
          "internalType": "address",
          "name": "_positionManager",
          "type": "address"
        },
        {
          "internalType": "address",
          "name": "_weth",
          "type": "address"
        },
        {
          "internalType": "address",
          "name": "_uniswapFactory",
          "type": "address"
        },
        {
          "internalType": "address",
          "name": "_swapRouter",
          "type": "address"
        },
        {
          "internalType": "address",
          "name": "_quoterAddress",
          "type": "address"
        }
      ],
      "stateMutability": "nonpayable",
      "type": "constructor"
    },
    {
      "inputs": [],
      "name": "activeTokenCount",
      "outputs": [
        {
          "internalType": "uint256",
          "name": "",
          "type": "uint256"
        }
      ],
      "stateMutability": "view",
      "type": "function"
    },
    {
      "inputs": [],
      "name": "deadAddress",
      "outputs": [
        {
          "internalType": "address",
          "name": "",
          "type": "address"
        }
      ],
      "stateMutability": "view",
      "type": "function"
    },
    {
      "inputs": [
        {
          "internalType": "uint256",
          "name": "",
          "type": "uint256"
        }
      ],
      "name": "feeTiers",
      "outputs": [
        {
          "internalType": "uint24",
          "name": "",
          "type": "uint24"
        }
      ],
      "stateMutability": "view",
      "type": "function"
    },
    {
      "inputs": [
        {
          "internalType": "address",
          "name": "tokenIn",
          "type": "address"
        },
        {
          "internalType": "address",
          "name": "tokenOut",
          "type": "address"
        },
        {
          "internalType": "uint256",
          "name": "amountIn",
          "type": "uint256"
        }
      ],
      "name": "getEstimatedAmountOut",
      "outputs": [
        {
          "internalType": "uint256",
          "name": "amountOut",
          "type": "uint256"
        }
      ],
      "stateMutability": "nonpayable",
      "type": "function"
    },
    {
      "inputs": [
        {
          "internalType": "address",
          "name": "tokenIn",
          "type": "address"
        },
        {
          "internalType": "address",
          "name": "tokenOut",
          "type": "address"
        }
      ],
      "name": "getOptimalFee",
      "outputs": [
        {
          "internalType": "uint24",
          "name": "",
          "type": "uint24"
        }
      ],
      "stateMutability": "view",
      "type": "function"
    },
    {
      "inputs": [],
      "name": "owner",
      "outputs": [
        {
          "internalType": "address",
          "name": "",
          "type": "address"
        }
      ],
      "stateMutability": "view",
      "type": "function"
    },
    {
      "inputs": [],
      "name": "positionManager",
      "outputs": [
        {
          "internalType": "contract INonfungiblePositionManager",
          "name": "",
          "type": "address"
        }
      ],
      "stateMutability": "view",
      "type": "function"
    },
    {
      "inputs": [],
      "name": "quoter",
      "outputs": [
        {
          "internalType": "contract IQuoterV2",
          "name": "",
          "type": "address"
        }
      ],
      "stateMutability": "view",
      "type": "function"
    },
    {
      "inputs": [],
      "name": "swapRouter",
      "outputs": [
        {
          "internalType": "contract ISwapRouter",
          "name": "",
          "type": "address"
        }
      ],
      "stateMutability": "view",
      "type": "function"
    },
    {
      "inputs": [
        {
          "internalType": "uint256",
          "name": "amountIn",
          "type": "uint256"
        },
        {
          "internalType": "address",
          "name": "tokenAddress",
          "type": "address"
        }
      ],
      "name": "swapTokensForWETH",
      "outputs": [
        {
          "internalType": "uint256",
          "name": "",
          "type": "uint256"
        }
      ],
      "stateMutability": "nonpayable",
      "type": "function"
    },
    {
      "inputs": [
        {
          "internalType": "uint256",
          "name": "amountIn",
          "type": "uint256"
        },
        {
          "internalType": "address",
          "name": "tokenAddress",
          "type": "address"
        }
      ],
      "name": "swapWETHforTokens",
      "outputs": [
        {
          "internalType": "uint256",
          "name": "amountOut",
          "type": "uint256"
        }
      ],
      "stateMutability": "payable",
      "type": "function"
    },
    {
      "inputs": [],
      "name": "tokenCount",
      "outputs": [
        {
          "internalType": "uint256",
          "name": "",
          "type": "uint256"
        }
      ],
      "stateMutability": "view",
      "type": "function"
    },
    {
      "inputs": [],
      "name": "totalFees",
      "outputs": [
        {
          "internalType": "uint256",
          "name": "",
          "type": "uint256"
        }
      ],
      "stateMutability": "view",
      "type": "function"
    },
    {
      "inputs": [],
      "name": "uniswapFactory",
      "outputs": [
        {
          "internalType": "contract IUniswapV3Factory",
          "name": "",
          "type": "address"
        }
      ],
      "stateMutability": "view",
      "type": "function"
    },
    {
      "inputs": [],
      "name": "weth",
      "outputs": [
        {
          "internalType": "address",
          "name": "",
          "type": "address"
        }
      ],
      "stateMutability": "view",
      "type": "function"
    }
  ],
  "bytecode": "0x608034610179576001600160401b03601f610bc038819003918201601f1916840191908383118584101761017e578160a092869260409586528339810103126101795761004b83610194565b9060209161005b60208601610194565b94610067838201610194565b92610080608061007960608501610194565b9301610194565b95600092838055600198846001558460025560018060a01b03199261dead8460045416176004558451906060820190828210908211176101655785526101f48152610bb86020820152612710818601529496875b600390818a1015610106578c918b9162ffffff61ffff8b5116928d8102901b92831b921b1916179701980197956100d4565b8b91508890600a5560018060a01b039485809481809416896005541617600555168760065416176006551685600754161760075516836008541617600855168160035416176003553390600954161760095551610a1790816101a98239f35b634e487b7160e01b87526041600452602487fd5b600080fd5b634e487b7160e01b600052604160045260246000fd5b51906001600160a01b03821682036101795756fe60806040908082526004918236101561001757600080fd5b600091823560e01c90816313114a9d1461065957508063230ed44a1461061857806327c8f835146105f15780633205fae0146105b85780633fc8cef314610591578063791b98bc1461056a5780638b68e0381461054c5780638bdb2afa146105255780638da5cb5b146104fe5780639f181b5e146104e2578063c31c9c07146104bb578063c6bbd5a714610494578063cd863ef5146102fa578063e6ce06e2146102c25763ffc5baf9146100ca57600080fd5b346102be57806003193601126102be578235926100e56106bf565b906001600160a01b036100fd86826003541685610893565b92605f840293808504605f14901517156102ab5781169286826007541686519063095ea7b360e01b8252818061014f60209c8d948a8401602090939291936001600160a01b0360408201951681520152565b03818b8a5af180156102a1579261021a9694926064928b9795610274575b50836003541689519661017f886106d5565b8752878701526127108987015233606087015260808601520460a08401528660c084015260075416908686518096819582946304e45aaf60e01b8452830191909160c060e0820193816001600160a01b039182815116855282602082015116602086015262ffffff60408201511660408601528260608201511660608601526080810151608086015260a081015160a0860152015116910152565b03925af1928315610269578093610234575b505051908152f35b909192508382813d8311610262575b61024d8183610707565b8101031261025f57505190388061022c565b80fd5b503d610243565b8251903d90823e3d90fd5b61029390883d8a1161029a575b61028b8183610707565b8101906109c9565b503861016d565b503d610281565b87513d8a823e3d90fd5b602486601185634e487b7160e01b835252fd5b5080fd5b50346102be5760603660031901126102be576020906102f36102e26106a4565b6102ea6106bf565b60443591610893565b9051908152f35b50806003193601126102be578235926103116106bf565b906001600160a01b0385816003541682600754168651809263095ea7b360e01b8252818a8161035c60209e8f978c8401602090939291936001600160a01b0360408201951681520152565b03925af190811561048a57879161046d575b501561042b57918187938161021a9694600354169488519561038f876106d5565b865216858501526127108785015233606085015260808401528660a08401528660c084015260075416908686518096819582946304e45aaf60e01b8452830191909160c060e0820193816001600160a01b039182815116855282602082015116602086015262ffffff60408201511660408601528260608201511660608601526080810151608086015260a081015160a0860152015116910152565b6064838887519162461bcd60e51b8352820152600f60248201527f417070726f76616c206661696c656400000000000000000000000000000000006044820152fd5b6104849150883d8a1161029a5761028b8183610707565b3861036e565b86513d89823e3d90fd5b50346102be57816003193601126102be576020906001600160a01b03600854169051908152f35b50346102be57816003193601126102be576020906001600160a01b03600754169051908152f35b50346102be57816003193601126102be57602091549051908152f35b50346102be57816003193601126102be576020906001600160a01b03600954169051908152f35b50346102be57816003193601126102be576020906001600160a01b03600654169051908152f35b50346102be57816003193601126102be576020906001549051908152f35b50346102be57816003193601126102be576020906001600160a01b03600554169051908152f35b50346102be57816003193601126102be576020906001600160a01b03600354169051908152f35b50346102be57806003193601126102be5760209062ffffff6105e96105db6106a4565b6105e36106bf565b90610729565b915191168152f35b50903461025f578060031936011261025f57506001600160a01b0360209254169051908152f35b508234610655576020366003190112610655573591600383101561025f575062ffffff610646602093610675565b90549060031b1c169051908152f35b8280fd5b8390346102be57816003193601126102be576020906002548152f35b90600382101561068e576003600a808404810193060290565b634e487b7160e01b600052603260045260246000fd5b600435906001600160a01b03821682036106ba57565b600080fd5b602435906001600160a01b03821682036106ba57565b60e0810190811067ffffffffffffffff8211176106f157604052565b634e487b7160e01b600052604160045260246000fd5b90601f8019910116810190811067ffffffffffffffff8211176106f157604052565b6000906001600160a01b038060065416925b6003808210156108295761074e82610675565b919062ffffff9283915490831b1c166040908151907f1698ee820000000000000000000000000000000000000000000000000000000082528688166004830152868a1660248301526044820152602080826064818c5afa92831561081f5750908692916000926107e3575b5050166107ca57505060010161073b565b9450945090506107da9150610675565b9054911b1c1690565b9080929350813d8311610818575b6107fb8183610707565b810103126102be575190858216820361025f5750849038806107b9565b503d6107f1565b513d6000823e3d90fd5b608460405162461bcd60e51b815260206004820152603e60248201527f4e6f20706f6f6c20617661696c61626c6520666f722074686520746f6b656e2060448201527f70616972207769746820737065636966696564206665652074696572732e00006064820152fd5b909161089f8383610729565b90604090815160a0810181811067ffffffffffffffff8211176106f15783526001600160a01b039586809616825285602083019116815283820192835285606083019562ffffff809116875260808401906000978896878452848060085416968a519d8e997fc6a5026a000000000000000000000000000000000000000000000000000000008b52511660048a0152511660248801525160448701525116606485015251166084830152815a9360a492608095f19384156109be578294610968575b5050505090565b90919293506080813d6080116109b6575b8161098660809383610707565b810103126106555780519360208201519081160361065557015163ffffffff81160361025f575038808080610961565b3d9150610979565b5051903d90823e3d90fd5b908160209103126106ba575180151581036106ba579056fea2646970667358221220f0b04461fd79ac2a525b26677177964d30da2e9b1a532a7e0791183d94578feb64736f6c63430008180033",
  "linkReferences": {},
  "deployedLinkReferences": {}
}