{
  "_format": "hh-sol-artifact-1",
  "contractName": "FactoryHelper",
  "sourceName": "contracts/FactoryExtra.sol",
  "abi": [
    {
      "inputs": [
        {
          "internalType": "address",
          "name": "_factoryAddress",
          "type": "address"
        },
        {
          "internalType": "address",
          "name": "_positionManager",
          "type": "address"
        },
        {
          "internalType": "address",
          "name": "_weth",
          "type": "address"
        },
        {
          "internalType": "address",
          "name": "_uniswapFactory",
          "type": "address"
        },
        {
          "internalType": "address",
          "name": "_swapRouter",
          "type": "address"
        },
        {
          "internalType": "address",
          "name": "_lockerAddress",
          "type": "address"
        },
        {
          "internalType": "address",
          "name": "_teamWallet",
          "type": "address"
        },
        {
          "internalType": "address",
          "name": "_quoterAddress",
          "type": "address"
        }
      ],
      "stateMutability": "nonpayable",
      "type": "constructor"
    },
    {
      "anonymous": false,
      "inputs": [
        {
          "indexed": true,
          "internalType": "address",
          "name": "token",
          "type": "address"
        },
        {
          "indexed": false,
          "internalType": "uint256",
          "name": "tokenId",
          "type": "uint256"
        },
        {
          "indexed": false,
          "internalType": "string",
          "name": "eventType",
          "type": "string"
        },
        {
          "indexed": false,
          "internalType": "uint256",
          "name": "amount0",
          "type": "uint256"
        },
        {
          "indexed": false,
          "internalType": "uint256",
          "name": "amount1",
          "type": "uint256"
        }
      ],
      "name": "LiquidityEvent",
      "type": "event"
    },
    {
      "anonymous": false,
      "inputs": [
        {
          "indexed": false,
          "internalType": "uint256",
          "name": "amountOut",
          "type": "uint256"
        }
      ],
      "name": "TokensSwapped",
      "type": "event"
    },
    {
      "inputs": [
        {
          "internalType": "address",
          "name": "token0",
          "type": "address"
        },
        {
          "internalType": "address",
          "name": "token1",
          "type": "address"
        },
        {
          "internalType": "uint160",
          "name": "sqrtPriceX96",
          "type": "uint160"
        }
      ],
      "name": "createAndInitializePoolIfNecessary",
      "outputs": [
        {
          "internalType": "address",
          "name": "pool",
          "type": "address"
        }
      ],
      "stateMutability": "nonpayable",
      "type": "function"
    },
    {
      "inputs": [],
      "name": "deadAddress",
      "outputs": [
        {
          "internalType": "address",
          "name": "",
          "type": "address"
        }
      ],
      "stateMutability": "view",
      "type": "function"
    },
    {
      "inputs": [
        {
          "internalType": "address",
          "name": "tokenIn",
          "type": "address"
        },
        {
          "internalType": "address",
          "name": "tokenOut",
          "type": "address"
        },
        {
          "internalType": "uint256",
          "name": "amountIn",
          "type": "uint256"
        },
        {
          "internalType": "uint256",
          "name": "amountOutMinimum",
          "type": "uint256"
        },
        {
          "internalType": "address",
          "name": "recipient",
          "type": "address"
        }
      ],
      "name": "executeSwap",
      "outputs": [
        {
          "internalType": "uint256",
          "name": "amountOut",
          "type": "uint256"
        }
      ],
      "stateMutability": "payable",
      "type": "function"
    },
    {
      "inputs": [],
      "name": "factoryAddress",
      "outputs": [
        {
          "internalType": "address",
          "name": "",
          "type": "address"
        }
      ],
      "stateMutability": "view",
      "type": "function"
    },
    {
      "inputs": [],
      "name": "factoryHelper",
      "outputs": [
        {
          "internalType": "contract FactoryHelper",
          "name": "",
          "type": "address"
        }
      ],
      "stateMutability": "view",
      "type": "function"
    },
    {
      "inputs": [
        {
          "internalType": "address",
          "name": "tokenIn",
          "type": "address"
        },
        {
          "internalType": "address",
          "name": "tokenOut",
          "type": "address"
        },
        {
          "internalType": "uint256",
          "name": "amountIn",
          "type": "uint256"
        }
      ],
      "name": "getEstimatedAmountOut",
      "outputs": [
        {
          "internalType": "uint256",
          "name": "amountOut",
          "type": "uint256"
        }
      ],
      "stateMutability": "nonpayable",
      "type": "function"
    },
    {
      "inputs": [
        {
          "internalType": "address",
          "name": "poolAddress",
          "type": "address"
        },
        {
          "internalType": "uint32",
          "name": "twapInterval",
          "type": "uint32"
        }
      ],
      "name": "getTWAPPrice",
      "outputs": [
        {
          "internalType": "uint256",
          "name": "price",
          "type": "uint256"
        }
      ],
      "stateMutability": "view",
      "type": "function"
    },
    {
      "inputs": [],
      "name": "locker",
      "outputs": [
        {
          "internalType": "contract ILiquidityLocker",
          "name": "",
          "type": "address"
        }
      ],
      "stateMutability": "view",
      "type": "function"
    },
    {
      "inputs": [],
      "name": "lockerAddress",
      "outputs": [
        {
          "internalType": "address",
          "name": "",
          "type": "address"
        }
      ],
      "stateMutability": "view",
      "type": "function"
    },
    {
      "inputs": [],
      "name": "nftAddress",
      "outputs": [
        {
          "internalType": "address",
          "name": "",
          "type": "address"
        }
      ],
      "stateMutability": "view",
      "type": "function"
    },
    {
      "inputs": [],
      "name": "owner",
      "outputs": [
        {
          "internalType": "address",
          "name": "",
          "type": "address"
        }
      ],
      "stateMutability": "view",
      "type": "function"
    },
    {
      "inputs": [],
      "name": "positionManager",
      "outputs": [
        {
          "internalType": "contract INonfungiblePositionManager",
          "name": "",
          "type": "address"
        }
      ],
      "stateMutability": "view",
      "type": "function"
    },
    {
      "inputs": [],
      "name": "quoter",
      "outputs": [
        {
          "internalType": "contract IQuoterV2",
          "name": "",
          "type": "address"
        }
      ],
      "stateMutability": "view",
      "type": "function"
    },
    {
      "inputs": [
        {
          "internalType": "uint256",
          "name": "tokenId",
          "type": "uint256"
        },
        {
          "internalType": "uint128",
          "name": "liquidityToRemove",
          "type": "uint128"
        }
      ],
      "name": "removeLiquidity",
      "outputs": [
        {
          "internalType": "uint256",
          "name": "",
          "type": "uint256"
        },
        {
          "internalType": "uint256",
          "name": "",
          "type": "uint256"
        }
      ],
      "stateMutability": "nonpayable",
      "type": "function"
    },
    {
      "inputs": [
        {
          "internalType": "uint256",
          "name": "amountIn",
          "type": "uint256"
        },
        {
          "internalType": "address",
          "name": "tokenAddress",
          "type": "address"
        }
      ],
      "name": "swapETHforTokens",
      "outputs": [
        {
          "internalType": "uint256",
          "name": "amountOut",
          "type": "uint256"
        }
      ],
      "stateMutability": "payable",
      "type": "function"
    },
    {
      "inputs": [],
      "name": "swapRouter",
      "outputs": [
        {
          "internalType": "contract ISwapRouter",
          "name": "",
          "type": "address"
        }
      ],
      "stateMutability": "view",
      "type": "function"
    },
    {
      "inputs": [],
      "name": "teamWallet",
      "outputs": [
        {
          "internalType": "address",
          "name": "",
          "type": "address"
        }
      ],
      "stateMutability": "view",
      "type": "function"
    },
    {
      "inputs": [],
      "name": "uniswapFactory",
      "outputs": [
        {
          "internalType": "contract IUniswapV3Factory",
          "name": "",
          "type": "address"
        }
      ],
      "stateMutability": "view",
      "type": "function"
    },
    {
      "inputs": [],
      "name": "weth",
      "outputs": [
        {
          "internalType": "address",
          "name": "",
          "type": "address"
        }
      ],
      "stateMutability": "view",
      "type": "function"
    }
  ],
  "bytecode": "0x6080346200015e57601f6200157a38819003918201601f19168301916001600160401b038311848410176200016357808492610100946040528339810103126200015e576200004e8162000179565b906200005d6020820162000179565b916200006c6040830162000179565b6200007a6060840162000179565b620000886080850162000179565b916200009760a0860162000179565b94620000b460e0620000ac60c0840162000179565b920162000179565b9260018060a01b031997889361dead85600154161760015560018060a01b03809981809981988280809816988983600254161760025516906003541617600355168c60045416176004551692838b60075416176007558a600a541617600a55168860005416176000553388600854161760085587600b541617600b551685600c541617600c5516836005541617600555169060095416176009556040516113eb90816200018f8239f35b600080fd5b634e487b7160e01b600052604160045260246000fd5b51906001600160a01b03821682036200015e5756fe608080604052600436101561001357600080fd5b60003560e01c90816327c8f8351461112c575080633675f29b146111055780633fc8cef3146110de57806351246d6e14610ff75780635992704414610fd05780635bf8633a14610fa957806373d84e4214610e44578063791b98bc14610e1d5780638bdb2afa14610df65780638be32a41146105ea5780638da5cb5b146105c3578063911757ba146103e9578063966dae0e146103c2578063c31c9c071461039b578063c6bbd5a714610374578063d7b96d4e1461034d578063e6ce06e214610316578063fd53f53b146102ef5763fde16ed3146100f057600080fd5b604036600319011261028b57600435610107611166565b906001600160a01b0361011f828483600054166112a4565b605f810290808204605f14901517156102d9576000938285541691836004541692604051937f095ea7b30000000000000000000000000000000000000000000000000000000085526004850152856024850152836044816020998a945af19283156102975786936102a3575b50926064610249939482806000541694604051956101a88761117c565b8652168685015261271060408501523360608501528660808501520460a0830152600060c083015260045416906040519485809481936304e45aaf60e01b83526004830191909160c060e0820193816001600160a01b039182815116855282602082015116602086015262ffffff60408201511660408601528260608201511660608601526080810151608086015260a081015160a0860152015116910152565b03925af190811561029757600091610265575b50604051908152f35b90508181813d8311610290575b61027c81836111b4565b8101031261028b57513861025c565b600080fd5b503d610272565b6040513d6000823e3d90fd5b909281813d83116102d2575b6102b981836111b4565b8101031261028b57518015150361028b5784913861018b565b503d6102af565b634e487b7160e01b600052601160045260246000fd5b3461028b57600036600319011261028b5760206001600160a01b0360065416604051908152f35b3461028b57606036600319011261028b576020610345610334611150565b61033c611166565b604435916112a4565b604051908152f35b3461028b57600036600319011261028b5760206001600160a01b0360075416604051908152f35b3461028b57600036600319011261028b5760206001600160a01b0360055416604051908152f35b3461028b57600036600319011261028b5760206001600160a01b0360045416604051908152f35b3461028b57600036600319011261028b5760206001600160a01b0360095416604051908152f35b3461028b57604036600319011261028b57600435602435906fffffffffffffffffffffffffffffffff80831680930361028b578060406001600160a01b039460a48660025416600084519161043d83611198565b888352602083019485528583018281526060840183815260808501914283528851998a9889977f0c49ccbe000000000000000000000000000000000000000000000000000000008952516004890152511660248701525160448601525160648501525160848401525af18015610297576105a5575b508260025416916040516080810181811067ffffffffffffffff82111761058f5760409460849360009287528352602083019433865286840181815281606086019181835289519a8b998a987ffc6f7865000000000000000000000000000000000000000000000000000000008a525160048a01525116602488015251166044860152511660648401525af190811561029757604091600091600091610560575b5082519182526020820152f35b90506105829150823d8411610588575b61057a81836111b4565b81019061128e565b83610553565b503d610570565b634e487b7160e01b600052604160045260246000fd5b6105bd9060403d6040116105885761057a81836111b4565b506104b2565b3461028b57600036600319011261028b5760206001600160a01b0360085416604051908152f35b3461028b57604036600319011261028b57610603611150565b6024359063ffffffff8216820361028b576060518015610c8e5763ffffffff831660805260011015610c8e57600060a052604051907f883bdbfd000000000000000000000000000000000000000000000000000000008252816024810160206004830152606051809152604482019060809060005b818110610dd75750505091816001600160a01b03816000950392165afa90811561029757600091610ca4575b50805160011015610c8e57604081015190805115610c8e576020015160060b9060060b03667fffffffffffff1991667fffffffffffff8213838312176102d95763ffffffff1660030b9060060b81156108ae57600019928114828414166102d9570560020b906000821215610c88577f800000000000000000000000000000000000000000000000000000000000000082146102d95781600003915b620d89e88311610c2a576001831615610c015770ffffffffffffffffffffffffffffffffff6ffffcb933bd6fad37aa2d162d1a5940015b169260028116610bd5575b60048116610ba9575b60088116610b7d575b60108116610b51575b60208116610b25575b60408116610af9575b60808116610acd575b6101008116610aa1575b6102008116610a75575b6104008116610a49575b6108008116610a1d575b61100081166109f1575b61200081166109c5575b6140008116610999575b618000811661096d575b620100008116610941575b620200008116610916575b6204000081166108ec575b62080000166108c4575b6000126108a1575b5063ffffffff8160201c9116156000146108985760ff60005b1681018091116102d9576001600160a01b036108709116611202565b670de0b6b3a7640000908181029181830414901517156102d9576020906040519060c01c8152f35b60ff6001610854565b81156108ae57048161083b565b634e487b7160e01b600052601260045260246000fd5b916b048a170391f7dc42444e8fa2908181029181830414901517156102d95760801c91610833565b926d2216e584f5fa1ea926041bedfe98908181029181830414901517156102d95760801c92610829565b926e5d6af8dedb81196699c329225ee604908181029181830414901517156102d95760801c9261081e565b926f09aa508b5b7a84e1c677de54f3e99bc9908181029181830414901517156102d95760801c92610813565b926f31be135f97d08fd981231505542fcfa6908181029181830414901517156102d95760801c92610808565b926f70d869a156d2a1b890bb3df62baf32f7908181029181830414901517156102d95760801c926107fe565b926fa9f746462d870fdf8a65dc1f90e061e5908181029181830414901517156102d95760801c926107f4565b926fd097f3bdfd2022b8845ad8f792aa5825908181029181830414901517156102d95760801c926107ea565b926fe7159475a2c29b7443b29c7fa6e889d9908181029181830414901517156102d95760801c926107e0565b926ff3392b0822b70005940c7a398e4b70f3908181029181830414901517156102d95760801c926107d6565b926ff987a7253ac413176f2b074cf7815e54908181029181830414901517156102d95760801c926107cc565b926ffcbe86c7900a88aedcffc83b479aa3a4908181029181830414901517156102d95760801c926107c2565b926ffe5dee046a99a2a811c461f1969c3053908181029181830414901517156102d95760801c926107b8565b926fff2ea16466c96a3843ec78b326b52861908181029181830414901517156102d95760801c926107af565b926fff973b41fa98c081472e6896dfb254c0908181029181830414901517156102d95760801c926107a6565b926fffcb9843d60f6159c9db58835c926644908181029181830414901517156102d95760801c9261079d565b926fffe5caca7e10e4e61c3624eaa0941cd0908181029181830414901517156102d95760801c92610794565b926ffff2e50f5f656932ef12357cf3c7fdcc908181029181830414901517156102d95760801c9261078b565b926ffff97272373d413259a46990580e213a908181029181830414901517156102d95760801c92610782565b70ffffffffffffffffffffffffffffffffff700100000000000000000000000000000000610777565b60646040517f08c379a000000000000000000000000000000000000000000000000000000000815260206004820152600160248201527f54000000000000000000000000000000000000000000000000000000000000006044820152fd5b81610740565b634e487b7160e01b600052603260045260246000fd5b3d9150816000823e610cb682826111b4565b604081838101031261028b5780519167ffffffffffffffff831161028b57808201601f84840101121561028b578282015192610cf1846111d6565b93610cff60405195866111b4565b808552602085019183850160208360051b83880101011161028b5791602083860101925b60208360051b82880101018410610db75750505050602082015167ffffffffffffffff811161028b578201818301601f8201121561028b57805191602080610d6a856111d6565b610d7760405191826111b4565b858152019360051b8301019301831161028b57602001905b828210610d9f57505050826106a4565b60208091610dac846111ee565b815201910190610d8f565b8351918260060b830361028b576020818194829352019401939150610d23565b825163ffffffff16845286945060209384019390920191600101610678565b3461028b57600036600319011261028b5760206001600160a01b0360035416604051908152f35b3461028b57600036600319011261028b5760206001600160a01b0360025416604051908152f35b60a036600319011261028b57610e58611150565b610e60611166565b90608435916001600160a01b039283811680910361028b5760009284610f37928160405193610e8e8561117c565b1683526020968795168584015261271060408401526060830152604435608083015260643560a08301528460c083015260045416906040519485809481936304e45aaf60e01b83526004830191909160c060e0820193816001600160a01b039182815116855282602082015116602086015262ffffff60408201511660408601528260608201511660608601526080810151608086015260a081015160a0860152015116910152565b03925af190811561029757600091610f7c575b507fdb04c7a6d4758fd55d738ebc67e7f3010ac922be00771ef29521a4090d1eb13f82604051838152a1604051908152f35b90508181813d8311610fa2575b610f9381836111b4565b8101031261028b575182610f4a565b503d610f89565b3461028b57600036600319011261028b5760206001600160a01b03600a5416604051908152f35b3461028b57600036600319011261028b5760206001600160a01b03600c5416604051908152f35b3461028b57606036600319011261028b57611010611150565b611018611166565b6044356001600160a01b039283821680920361028b576084849160006020948460025416908560405198899788967f13ead562000000000000000000000000000000000000000000000000000000008852166004870152166024850152612710604485015260648401525af1908115610297576000916110a0575b5060209160405191168152f35b90506020813d6020116110d6575b816110bb602093836111b4565b8101031261028b575190808216820361028b57906020611093565b3d91506110ae565b3461028b57600036600319011261028b5760206001600160a01b0360005416604051908152f35b3461028b57600036600319011261028b5760206001600160a01b03600b5416604051908152f35b3461028b57600036600319011261028b576020906001600160a01b03600154168152f35b600435906001600160a01b038216820361028b57565b602435906001600160a01b038216820361028b57565b60e0810190811067ffffffffffffffff82111761058f57604052565b60a0810190811067ffffffffffffffff82111761058f57604052565b90601f8019910116810190811067ffffffffffffffff82111761058f57604052565b67ffffffffffffffff811161058f5760051b60200190565b51906001600160a01b038216820361028b57565b80156112885780806001146112815760021461127b576001908161013382101682600b8310161761127357906002815b80821161124a575050816000190481116102d9570290565b9092806000190481116102d95781841661126a575b800292811c90611232565b8092029161125f565b600291500a90565b50600490565b5050600190565b50600090565b919082604091031261028b576020825192015190565b60809060a462ffffff94604051906112bb82611198565b6001600160a01b0380941682528360208301961686526040820190815260608201906127108252848684016000998a94858352836005541694846040519c8d9b8c9a7fc6a5026a000000000000000000000000000000000000000000000000000000008c52511660048b01525116602489015251604488015251166064860152511660848401525af19182156113a957809261135657505090565b9091506080823d6080116113a1575b81611372608093836111b4565b8101031261139e57604082519261138b602082016111ee565b50015163ffffffff81160361139e575090565b80fd5b3d9150611365565b604051903d90823e3d90fdfea2646970667358221220c9b638b18bda006df9798c3e74e0cdf2315e00e87c5c12d5c69db601e3bc6d9364736f6c63430008180033",
  "linkReferences": {},
  "deployedLinkReferences": {}
}