{
  "_format": "hh-sol-artifact-1",
  "contractName": "MyFactory",
  "sourceName": "contracts/VortexFactory.sol",
  "abi": [
    {
      "inputs": [
        {
          "internalType": "address",
          "name": "_positionManager",
          "type": "address"
        },
        {
          "internalType": "address",
          "name": "_weth",
          "type": "address"
        },
        {
          "internalType": "address",
          "name": "_uniswapFactory",
          "type": "address"
        },
        {
          "internalType": "address",
          "name": "_swapRouter",
          "type": "address"
        },
        {
          "internalType": "address",
          "name": "_lockerAddress",
          "type": "address"
        },
        {
          "internalType": "address",
          "name": "_teamWallet",
          "type": "address"
        },
        {
          "internalType": "address",
          "name": "_quoterAddress",
          "type": "address"
        }
      ],
      "stateMutability": "nonpayable",
      "type": "constructor"
    },
    {
      "anonymous": false,
      "inputs": [
        {
          "indexed": false,
          "internalType": "uint256",
          "name": "tokenId",
          "type": "uint256"
        },
        {
          "indexed": false,
          "internalType": "uint256",
          "name": "amount0",
          "type": "uint256"
        },
        {
          "indexed": false,
          "internalType": "uint256",
          "name": "amount1",
          "type": "uint256"
        }
      ],
      "name": "FeesCollected",
      "type": "event"
    },
    {
      "anonymous": false,
      "inputs": [
        {
          "indexed": false,
          "internalType": "uint256",
          "name": "amountNeeded",
          "type": "uint256"
        }
      ],
      "name": "FundsRequested",
      "type": "event"
    },
    {
      "anonymous": false,
      "inputs": [
        {
          "indexed": false,
          "internalType": "uint256",
          "name": "amount",
          "type": "uint256"
        }
      ],
      "name": "FundsSent",
      "type": "event"
    },
    {
      "anonymous": false,
      "inputs": [
        {
          "indexed": false,
          "internalType": "uint256",
          "name": "tokenId",
          "type": "uint256"
        }
      ],
      "name": "LiquidityAdded",
      "type": "event"
    },
    {
      "anonymous": false,
      "inputs": [
        {
          "indexed": true,
          "internalType": "address",
          "name": "token",
          "type": "address"
        },
        {
          "indexed": true,
          "internalType": "address",
          "name": "pool",
          "type": "address"
        },
        {
          "indexed": false,
          "internalType": "uint256",
          "name": "tokenAmount",
          "type": "uint256"
        },
        {
          "indexed": false,
          "internalType": "uint256",
          "name": "wethAmount",
          "type": "uint256"
        },
        {
          "indexed": false,
          "internalType": "string",
          "name": "error",
          "type": "string"
        }
      ],
      "name": "LiquidityAdditionFailed",
      "type": "event"
    },
    {
      "anonymous": false,
      "inputs": [
        {
          "indexed": true,
          "internalType": "address",
          "name": "token",
          "type": "address"
        },
        {
          "indexed": false,
          "internalType": "uint256",
          "name": "tokenId",
          "type": "uint256"
        },
        {
          "indexed": false,
          "internalType": "uint256",
          "name": "amount0",
          "type": "uint256"
        },
        {
          "indexed": false,
          "internalType": "uint256",
          "name": "amount1",
          "type": "uint256"
        }
      ],
      "name": "LiquidityRemoved",
      "type": "event"
    },
    {
      "anonymous": false,
      "inputs": [
        {
          "indexed": true,
          "internalType": "address",
          "name": "token0",
          "type": "address"
        },
        {
          "indexed": true,
          "internalType": "address",
          "name": "poolAddress",
          "type": "address"
        }
      ],
      "name": "PoolCreated",
      "type": "event"
    },
    {
      "anonymous": false,
      "inputs": [
        {
          "indexed": true,
          "internalType": "address",
          "name": "poolAddress",
          "type": "address"
        },
        {
          "indexed": false,
          "internalType": "uint160",
          "name": "sqrtPriceX96",
          "type": "uint160"
        }
      ],
      "name": "PoolInitialized",
      "type": "event"
    },
    {
      "anonymous": false,
      "inputs": [
        {
          "indexed": false,
          "internalType": "uint256",
          "name": "tokenId",
          "type": "uint256"
        },
        {
          "indexed": false,
          "internalType": "bool",
          "name": "isTokenDead",
          "type": "bool"
        }
      ],
      "name": "ResetFeesDays",
      "type": "event"
    },
    {
      "anonymous": false,
      "inputs": [
        {
          "indexed": true,
          "internalType": "address",
          "name": "stakingAddress",
          "type": "address"
        },
        {
          "indexed": false,
          "internalType": "uint256",
          "name": "amount",
          "type": "uint256"
        }
      ],
      "name": "RewardsSent",
      "type": "event"
    },
    {
      "anonymous": false,
      "inputs": [
        {
          "indexed": true,
          "internalType": "address",
          "name": "token",
          "type": "address"
        },
        {
          "indexed": false,
          "internalType": "uint256",
          "name": "amountIn",
          "type": "uint256"
        },
        {
          "indexed": false,
          "internalType": "uint256",
          "name": "amountOut",
          "type": "uint256"
        }
      ],
      "name": "SwappedToWETH",
      "type": "event"
    },
    {
      "anonymous": false,
      "inputs": [
        {
          "indexed": true,
          "internalType": "address",
          "name": "teamWallet",
          "type": "address"
        },
        {
          "indexed": false,
          "internalType": "uint256",
          "name": "amount",
          "type": "uint256"
        }
      ],
      "name": "TeamFunded",
      "type": "event"
    },
    {
      "anonymous": false,
      "inputs": [
        {
          "indexed": true,
          "internalType": "address",
          "name": "tokenAddress",
          "type": "address"
        },
        {
          "indexed": true,
          "internalType": "address",
          "name": "poolAddress",
          "type": "address"
        }
      ],
      "name": "TokenApproved",
      "type": "event"
    },
    {
      "anonymous": false,
      "inputs": [
        {
          "indexed": true,
          "internalType": "address",
          "name": "tokenAddress",
          "type": "address"
        }
      ],
      "name": "TokenDeployed",
      "type": "event"
    },
    {
      "anonymous": false,
      "inputs": [
        {
          "indexed": false,
          "internalType": "uint256",
          "name": "amount",
          "type": "uint256"
        }
      ],
      "name": "TokensSwapped",
      "type": "event"
    },
    {
      "anonymous": false,
      "inputs": [
        {
          "indexed": true,
          "internalType": "address",
          "name": "treasuryAddress",
          "type": "address"
        },
        {
          "indexed": false,
          "internalType": "uint256",
          "name": "amount",
          "type": "uint256"
        }
      ],
      "name": "TreasuryFunded",
      "type": "event"
    },
    {
      "anonymous": false,
      "inputs": [
        {
          "indexed": false,
          "internalType": "uint256",
          "name": "rewardAmount",
          "type": "uint256"
        }
      ],
      "name": "VortexEvent",
      "type": "event"
    },
    {
      "anonymous": false,
      "inputs": [
        {
          "indexed": false,
          "internalType": "uint256",
          "name": "tokenId",
          "type": "uint256"
        },
        {
          "indexed": false,
          "internalType": "bool",
          "name": "isTokenDead",
          "type": "bool"
        }
      ],
      "name": "ZeroFeesDays",
      "type": "event"
    },
    {
      "stateMutability": "payable",
      "type": "fallback"
    },
    {
      "inputs": [],
      "name": "activeTokenCount",
      "outputs": [
        {
          "internalType": "uint256",
          "name": "",
          "type": "uint256"
        }
      ],
      "stateMutability": "view",
      "type": "function"
    },
    {
      "inputs": [
        {
          "internalType": "uint256",
          "name": "amountToBuy",
          "type": "uint256"
        },
        {
          "internalType": "bool",
          "name": "userProvidedLiquidity",
          "type": "bool"
        },
        {
          "internalType": "string",
          "name": "_name",
          "type": "string"
        },
        {
          "internalType": "string",
          "name": "_symbol",
          "type": "string"
        },
        {
          "internalType": "uint256",
          "name": "_supply",
          "type": "uint256"
        }
      ],
      "name": "addLiquidityLockSwap",
      "outputs": [
        {
          "internalType": "uint256",
          "name": "tokenId",
          "type": "uint256"
        }
      ],
      "stateMutability": "payable",
      "type": "function"
    },
    {
      "inputs": [
        {
          "internalType": "uint256",
          "name": "",
          "type": "uint256"
        }
      ],
      "name": "allTokens",
      "outputs": [
        {
          "internalType": "address",
          "name": "tokenAddress",
          "type": "address"
        },
        {
          "internalType": "address",
          "name": "poolAddress",
          "type": "address"
        },
        {
          "internalType": "address",
          "name": "tokenCreator",
          "type": "address"
        },
        {
          "internalType": "uint256",
          "name": "timeStamp",
          "type": "uint256"
        },
        {
          "internalType": "uint256",
          "name": "tokenId",
          "type": "uint256"
        },
        {
          "internalType": "bool",
          "name": "liquidityRemoved",
          "type": "bool"
        },
        {
          "internalType": "uint256",
          "name": "zerofeedays",
          "type": "uint256"
        },
        {
          "internalType": "bool",
          "name": "isInactive",
          "type": "bool"
        },
        {
          "internalType": "uint256",
          "name": "feeFromSwap",
          "type": "uint256"
        },
        {
          "internalType": "uint256",
          "name": "lockId",
          "type": "uint256"
        },
        {
          "internalType": "bool",
          "name": "isLocked",
          "type": "bool"
        },
        {
          "internalType": "uint256",
          "name": "unlockTime",
          "type": "uint256"
        },
        {
          "internalType": "bool",
          "name": "isDEAD",
          "type": "bool"
        },
        {
          "internalType": "bool",
          "name": "maxWalletEnabled",
          "type": "bool"
        },
        {
          "internalType": "bool",
          "name": "userLiquidity",
          "type": "bool"
        }
      ],
      "stateMutability": "view",
      "type": "function"
    },
    {
      "inputs": [
        {
          "internalType": "uint256",
          "name": "amount",
          "type": "uint256"
        }
      ],
      "name": "callAddRewards",
      "outputs": [],
      "stateMutability": "payable",
      "type": "function"
    },
    {
      "inputs": [
        {
          "internalType": "uint256",
          "name": "tokenId",
          "type": "uint256"
        },
        {
          "internalType": "address",
          "name": "tokenAddress",
          "type": "address"
        }
      ],
      "name": "collectFromLockerAndSwap",
      "outputs": [],
      "stateMutability": "nonpayable",
      "type": "function"
    },
    {
      "inputs": [],
      "name": "deadAddress",
      "outputs": [
        {
          "internalType": "address",
          "name": "",
          "type": "address"
        }
      ],
      "stateMutability": "view",
      "type": "function"
    },
    {
      "inputs": [
        {
          "internalType": "string",
          "name": "_name",
          "type": "string"
        },
        {
          "internalType": "string",
          "name": "_symbol",
          "type": "string"
        },
        {
          "internalType": "uint256",
          "name": "_supply",
          "type": "uint256"
        }
      ],
      "name": "deployToken",
      "outputs": [
        {
          "internalType": "address",
          "name": "",
          "type": "address"
        }
      ],
      "stateMutability": "nonpayable",
      "type": "function"
    },
    {
      "inputs": [],
      "name": "factoryHelper",
      "outputs": [
        {
          "internalType": "contract FactoryHelper",
          "name": "",
          "type": "address"
        }
      ],
      "stateMutability": "view",
      "type": "function"
    },
    {
      "inputs": [],
      "name": "getAllTokens",
      "outputs": [
        {
          "internalType": "address[]",
          "name": "addresses",
          "type": "address[]"
        },
        {
          "internalType": "address[]",
          "name": "tokenCreators",
          "type": "address[]"
        },
        {
          "internalType": "address[]",
          "name": "poolAddresses",
          "type": "address[]"
        },
        {
          "internalType": "uint256[]",
          "name": "tokenIds",
          "type": "uint256[]"
        },
        {
          "internalType": "uint256[]",
          "name": "timestamps",
          "type": "uint256[]"
        },
        {
          "internalType": "bool[]",
          "name": "liquidityRemovedStatus",
          "type": "bool[]"
        },
        {
          "internalType": "uint256[]",
          "name": "zerofeesdays",
          "type": "uint256[]"
        },
        {
          "internalType": "bool[]",
          "name": "inactive",
          "type": "bool[]"
        },
        {
          "internalType": "uint256[]",
          "name": "feefromswap",
          "type": "uint256[]"
        },
        {
          "internalType": "uint256[]",
          "name": "lockIds",
          "type": "uint256[]"
        },
        {
          "internalType": "bool[]",
          "name": "isTokenLocked",
          "type": "bool[]"
        },
        {
          "internalType": "uint256[]",
          "name": "unlockTimes",
          "type": "uint256[]"
        },
        {
          "internalType": "bool[]",
          "name": "isDead",
          "type": "bool[]"
        },
        {
          "internalType": "bool[]",
          "name": "maxWallet",
          "type": "bool[]"
        },
        {
          "internalType": "bool[]",
          "name": "isUserLiquidity",
          "type": "bool[]"
        }
      ],
      "stateMutability": "view",
      "type": "function"
    },
    {
      "inputs": [],
      "name": "getMetrics",
      "outputs": [
        {
          "internalType": "uint256",
          "name": "alltokens",
          "type": "uint256"
        },
        {
          "internalType": "uint256",
          "name": "allactivetokens",
          "type": "uint256"
        },
        {
          "internalType": "uint256",
          "name": "fees",
          "type": "uint256"
        }
      ],
      "stateMutability": "view",
      "type": "function"
    },
    {
      "inputs": [
        {
          "internalType": "address",
          "name": "tokenA",
          "type": "address"
        },
        {
          "internalType": "address",
          "name": "tokenB",
          "type": "address"
        },
        {
          "internalType": "uint24",
          "name": "fee",
          "type": "uint24"
        }
      ],
      "name": "get_Pool",
      "outputs": [
        {
          "internalType": "address",
          "name": "pool",
          "type": "address"
        }
      ],
      "stateMutability": "view",
      "type": "function"
    },
    {
      "inputs": [],
      "name": "lockTime1",
      "outputs": [
        {
          "internalType": "uint256",
          "name": "",
          "type": "uint256"
        }
      ],
      "stateMutability": "view",
      "type": "function"
    },
    {
      "inputs": [],
      "name": "lockTime2",
      "outputs": [
        {
          "internalType": "uint256",
          "name": "",
          "type": "uint256"
        }
      ],
      "stateMutability": "view",
      "type": "function"
    },
    {
      "inputs": [],
      "name": "locker",
      "outputs": [
        {
          "internalType": "contract ILiquidityLocker",
          "name": "",
          "type": "address"
        }
      ],
      "stateMutability": "view",
      "type": "function"
    },
    {
      "inputs": [],
      "name": "lockerAddress",
      "outputs": [
        {
          "internalType": "address",
          "name": "",
          "type": "address"
        }
      ],
      "stateMutability": "view",
      "type": "function"
    },
    {
      "inputs": [],
      "name": "maxZeroFeeDays",
      "outputs": [
        {
          "internalType": "uint256",
          "name": "",
          "type": "uint256"
        }
      ],
      "stateMutability": "view",
      "type": "function"
    },
    {
      "inputs": [
        {
          "internalType": "uint256",
          "name": "amount",
          "type": "uint256"
        }
      ],
      "name": "notifyFundsNeeded",
      "outputs": [],
      "stateMutability": "nonpayable",
      "type": "function"
    },
    {
      "inputs": [],
      "name": "owner",
      "outputs": [
        {
          "internalType": "address",
          "name": "",
          "type": "address"
        }
      ],
      "stateMutability": "view",
      "type": "function"
    },
    {
      "inputs": [],
      "name": "pendingFunds",
      "outputs": [
        {
          "internalType": "uint256",
          "name": "",
          "type": "uint256"
        }
      ],
      "stateMutability": "view",
      "type": "function"
    },
    {
      "inputs": [],
      "name": "positionManager",
      "outputs": [
        {
          "internalType": "contract INonfungiblePositionManager",
          "name": "",
          "type": "address"
        }
      ],
      "stateMutability": "view",
      "type": "function"
    },
    {
      "inputs": [
        {
          "internalType": "address",
          "name": "_stakingContract",
          "type": "address"
        },
        {
          "internalType": "uint256",
          "name": "amountRequested",
          "type": "uint256"
        }
      ],
      "name": "provideFundsIfNeeded",
      "outputs": [],
      "stateMutability": "nonpayable",
      "type": "function"
    },
    {
      "inputs": [],
      "name": "quoter",
      "outputs": [
        {
          "internalType": "contract IQuoterV2",
          "name": "",
          "type": "address"
        }
      ],
      "stateMutability": "view",
      "type": "function"
    },
    {
      "inputs": [
        {
          "internalType": "uint256",
          "name": "_tokenId",
          "type": "uint256"
        },
        {
          "internalType": "uint256",
          "name": "_lockID",
          "type": "uint256"
        }
      ],
      "name": "relock",
      "outputs": [
        {
          "internalType": "uint256",
          "name": "lockID",
          "type": "uint256"
        }
      ],
      "stateMutability": "nonpayable",
      "type": "function"
    },
    {
      "inputs": [
        {
          "internalType": "uint256",
          "name": "tokenId",
          "type": "uint256"
        },
        {
          "internalType": "uint256",
          "name": "lockId",
          "type": "uint256"
        }
      ],
      "name": "removeDeadLiquidity",
      "outputs": [],
      "stateMutability": "nonpayable",
      "type": "function"
    },
    {
      "inputs": [
        {
          "internalType": "uint256",
          "name": "tokenId",
          "type": "uint256"
        },
        {
          "internalType": "uint256",
          "name": "lockId",
          "type": "uint256"
        }
      ],
      "name": "removeInitialLiquidity",
      "outputs": [],
      "stateMutability": "nonpayable",
      "type": "function"
    },
    {
      "inputs": [
        {
          "internalType": "uint256",
          "name": "tokenId",
          "type": "uint256"
        },
        {
          "internalType": "uint256",
          "name": "lockId",
          "type": "uint256"
        },
        {
          "internalType": "uint128",
          "name": "percentAmount",
          "type": "uint128"
        }
      ],
      "name": "removeUserLiquidity",
      "outputs": [],
      "stateMutability": "nonpayable",
      "type": "function"
    },
    {
      "inputs": [
        {
          "internalType": "address payable",
          "name": "_stakingAddress",
          "type": "address"
        },
        {
          "internalType": "address",
          "name": "_treasuryAddress",
          "type": "address"
        },
        {
          "internalType": "address",
          "name": "_helperAddress",
          "type": "address"
        }
      ],
      "name": "setStakingAndTreasuryAddress",
      "outputs": [],
      "stateMutability": "nonpayable",
      "type": "function"
    },
    {
      "inputs": [],
      "name": "stakingAddress",
      "outputs": [
        {
          "internalType": "address payable",
          "name": "",
          "type": "address"
        }
      ],
      "stateMutability": "view",
      "type": "function"
    },
    {
      "inputs": [],
      "name": "swapRouter",
      "outputs": [
        {
          "internalType": "contract ISwapRouter",
          "name": "",
          "type": "address"
        }
      ],
      "stateMutability": "view",
      "type": "function"
    },
    {
      "inputs": [],
      "name": "tokenCount",
      "outputs": [
        {
          "internalType": "uint256",
          "name": "",
          "type": "uint256"
        }
      ],
      "stateMutability": "view",
      "type": "function"
    },
    {
      "inputs": [],
      "name": "totalFees",
      "outputs": [
        {
          "internalType": "uint256",
          "name": "",
          "type": "uint256"
        }
      ],
      "stateMutability": "view",
      "type": "function"
    },
    {
      "inputs": [
        {
          "internalType": "uint256",
          "name": "amount",
          "type": "uint256"
        }
      ],
      "name": "transferWETHToFactory",
      "outputs": [],
      "stateMutability": "nonpayable",
      "type": "function"
    },
    {
      "inputs": [],
      "name": "tryToSendFunds",
      "outputs": [],
      "stateMutability": "nonpayable",
      "type": "function"
    },
    {
      "inputs": [],
      "name": "uniswapFactory",
      "outputs": [
        {
          "internalType": "contract IUniswapV3Factory",
          "name": "",
          "type": "address"
        }
      ],
      "stateMutability": "view",
      "type": "function"
    },
    {
      "inputs": [],
      "name": "weth",
      "outputs": [
        {
          "internalType": "address",
          "name": "",
          "type": "address"
        }
      ],
      "stateMutability": "view",
      "type": "function"
    },
    {
      "stateMutability": "payable",
      "type": "receive"
    }
  ],
  "bytecode": "0x6080346200017457601f6200590d38819003918201601f19168301916001600160401b03831184841017620001795780849260e09460405283398101031262000174576200004d816200018f565b6200005b602083016200018f565b916200006a604082016200018f565b9062000079606082016200018f565b9062000088608082016200018f565b93620000a560c06200009d60a085016200018f565b93016200018f565b93600080556000600155600060025560018060a01b031996879261dead8460045416176004556509184e72a0006014556512309ce5400060155560056016556005601755600260185560018060a01b03978880978180968180961680996005541617600555168c6006541617600655168a600754161760075516928389600a541617600a5588600e541617600e55168660035416176003553386600b541617600b5585600d541617600d5516836010541617601055169060085416176008556040516157689081620001a58239f35b600080fd5b634e487b7160e01b600052604160045260246000fd5b51906001600160a01b0382168203620001745756fe6102808060405260043610156200001d575b5036156200001b57005b005b600090813560e01c90816313114a9d14620035655750806327c8f835146200353c5780632a5c792a14620030a95780633675f29b14620030805780633a93babb14620030075780633fc8cef31462002fde578063428c59b71462002331578063634282af146200223657806367125e1c14620022165780636e9551d714620021335780637606f78114620020fd578063791b98bc14620020d45780637c6bc9be14620020b45780638aa07e67146200201f5780638b68e0381462001fff5780638bdb2afa1462001fd65780638c3a65a21462001d5b5780638da5cb5b1462001d325780639f181b5e1462001d13578063ad1b9e321462001c40578063ae3b05d41462001a76578063b2a7880414620013d2578063b2fb30cb14620011f2578063be5ef1761462001056578063c31c9c07146200102d578063c6bbd5a71462001004578063d6a2120a1462000d5b578063d7b4be241462000d32578063d7b96d4e1462000d09578063db2561d41462000ce9578063db69bdd8146200079e578063f02e4e36146200077e578063fbcc3fcc146200048e578063fd53f53b14620004655763fe9655fc0362000011573462000462576020806003193601126200045e576004356001600160a01b03620001fa81600b54163314620038e2565b81156200041b578060035416916040516370a0823160e01b81523360048201528481602481875afa8015620004105782918791620003d4575b5010620003905760405163095ea7b360e01b81523060048201526024810182905285939092919085908490604490829088905af1918215620003855762000289620002c1938795879162000363575b5062003b33565b6003546040516323b872dd60e01b81523360048201523060248201526044810193909352919485939190921691839182906064820190565b03925af19081156200035857839162000324575b5015620002e0575080f35b6064906040519062461bcd60e51b82526004820152600f60248201527f5472616e73666572206661696c656400000000000000000000000000000000006044820152fd5b620003499150823d841162000350575b6200034081836200370d565b8101906200397a565b38620002d5565b503d62000334565b6040513d85823e3d90fd5b6200037e9150863d881162000350576200034081836200370d565b3862000282565b6040513d86823e3d90fd5b6064846040519062461bcd60e51b82526004820152601960248201527f496e73756666696369656e7420574554482062616c616e6365000000000000006044820152fd5b809250868092503d831162000408575b620003f081836200370d565b8101031262000403578190513862000233565b600080fd5b503d620003e4565b6040513d88823e3d90fd5b6064836040519062461bcd60e51b825280600483015260248201527f416d6f756e74206d7573742062652067726561746572207468616e207a65726f6044820152fd5b5080fd5b80fd5b5034620004625780600319360112620004625760206001600160a01b0360095416604051908152f35b50346200046257620004a036620036e1565b826001600160a01b0391620004bb83600b54163314620038e2565b82600d5416803b156200076f5760405163318a457160e21b8152600481019290925230602483015282908290604490829084905af18015620007735762000757575b50508060055416604051809163133f757160e31b82528460048301528160246101809384935afa80156200074c5785928692879262000700575b505062000545908562003fdc565b600354909385169190851682036200067757505060405163095ea7b360e01b81523060048201526024810183905260209390929091821684846044818a855af19283156200066c57620005a68694620005e6968a9162000363575062003b33565b60045416876040518096819582946323b872dd60e01b845230600485016040919493929460608201956001600160a01b0380921683521660208201520152565b03925af18015620003855762000649575b50505b8152601a60205260408120546001548015620006355760001901600155600c90620006259062003661565b5001805460ff1916600117905580f35b602483634e487b7160e01b81526011600452fd5b816200066392903d1062000350576200034081836200370d565b503880620005f7565b6040513d89823e3d90fd5b60405163095ea7b360e01b81523060048201526024810182905260209590945092509084846044818a855af19283156200066c57620005a68694620006c4968a9162000363575062003b33565b03925af180156200038557620006dd575b5050620005fa565b81620006f792903d1062000350576200034081836200370d565b503880620006d5565b6200054594506200072e935080919250903d1062000744575b6200072581836200370d565b81019062003a70565b5050505096505050509391509291903862000537565b503d62000719565b6040513d87823e3d90fd5b6200076290620036f8565b6200076f578238620004fd565b8280fd5b6040513d84823e3d90fd5b503462000462578060031936011262000462576020601854604051908152f35b50346200046257620007b036620036e1565b6001600160a01b0380600b54163314801562000cdf575b801562000cd1575b620007da906200392e565b8381600d5416803b156200045e5760405163318a457160e21b8152600481018590523060248201529082908290604490829084905af18015620007735762000cb5575b50506200082e601454928462003f93565b806005541690604051809263133f757160e31b82528560048301528160246101809384935afa9081156200041057620008ba948791889589918a9562000c7e575b5050600654604051630b4c774160e11b81526001600160a01b0380861660048301528816602482015262ffffff90921660448301526020978891839190881690829081906064820190565b03915afa90811562000c3257899162000c3d575b508685604481600954169360405194859384927f8be32a4100000000000000000000000000000000000000000000000000000000845216600483015261070860248301525afa90811562000c3257899162000bff575b50670de0b6b3a7640000908183028315928482041483171562000beb57906200094d9162003870565b80830292830414171562000bd55785926200098062000995926fffffffffffffffffffffffffffffffff91829162003b7f565b1690821681111562000bcd57505b8762003fdc565b6003549092851690851681810362000b2c57505050620009e8938360045416888560405180988196829563a9059cbb60e01b845260048401602090939291936001600160a01b0360408201951681520152565b0393165af19081156200074c5762000a6792849262000b0a575b505b62000a1481600d54168662003f31565b6017549080600a541690600554169187604051809681958294630fe9a9f560e31b84528b3092600486019293606092959460808501966001600160a01b0380941686526020860152604085015216910152565b03925af19081156200038557849162000ad6575b5062000ad090601a600b9362000a9460175442620038a6565b956000525260406000205490600962000aad8362003661565b500155600a62000abd8262003661565b5001805460ff1916600117905562003661565b50015580f35b90508181813d831162000b02575b62000af081836200370d565b81010312620004035751600b62000a7b565b503d62000ae4565b62000b2490833d851162000350576200034081836200370d565b503862000a02565b91939585919350161462000b49575b50509062000a679162000a04565b9062000b88939183600454168860405180978195829463a9059cbb60e01b845260048401602090939291936001600160a01b0360408201951681520152565b03925af19081156200074c5762000a6792849262000bab575b8192935062000b3b565b62000bc590833d851162000350576200034081836200370d565b503862000ba1565b90506200098e565b634e487b7160e01b600052601160045260246000fd5b60248b634e487b7160e01b81526011600452fd5b90508681813d831162000c2a575b62000c1981836200370d565b810103126200040357513862000924565b503d62000c0d565b6040513d8b823e3d90fd5b90508681813d831162000c76575b62000c5781836200370d565b8101031262000c725762000c6b9062003891565b38620008ce565b8880fd5b503d62000c4b565b92965092505062000c9e9250803d1062000744576200072581836200370d565b50505050965050509591909250919438806200086f565b62000cc090620036f8565b62000ccd5783386200081d565b8380fd5b50600c5481163314620007cf565b50303314620007c7565b503462000462578060031936011262000462576020601754604051908152f35b5034620004625780600319360112620004625760206001600160a01b03600a5416604051908152f35b5034620004625780600319360112620004625760206001600160a01b03600c5416604051908152f35b503462000462576060366003190112620004625760043560243590604435906fffffffffffffffffffffffffffffffff908183168093036200100057600291818652602094601a865262000db3604088205462003661565b506001600160a01b03948591015416330362000fbc578684600d5416803b156200045e5760405163318a457160e21b8152600481018490523060248201529082908290604490829084905af18015620007735762000fa0575b505062000e1a908362003f93565b82600554169160405194859363133f757160e31b85528260048601528460246101809687935afa801562000f9557889689958a9262000f5c575b505083160291821691820362000f48579062000e709162003fdc565b60405163a9059cbb60e01b80825233600483015260248201939093529490929190879087908790604490829085908a165af194851562000f3b5762000ee396889662000f19575b5060405180978196829583523360048401602090939291936001600160a01b0360408201951681520152565b0393165af18015620003585762000ef8578280f35b8162000f1292903d1062000350576200034081836200370d565b5038808280f35b62000f3390873d891162000350576200034081836200370d565b503862000eb7565b50604051903d90823e3d90fd5b602487634e487b7160e01b81526011600452fd5b85985062000f7e93965080919250903d1062000744576200072581836200370d565b505050509996505050509791509694903862000e54565b6040513d8a823e3d90fd5b62000fab90620036f8565b62000fb857863862000e0c565b8680fd5b6064866040519062461bcd60e51b82526004820152601f60248201527f43616c6c6572206973206e6f742074686520746f6b656e2063726561746f72006044820152fd5b8480fd5b5034620004625780600319360112620004625760206001600160a01b0360085416604051908152f35b5034620004625780600319360112620004625760206001600160a01b0360075416604051908152f35b50346200046257604036600319011262000462578062001075620036b3565b602435906001600160a01b039081600b541633148015620011e8575b8015620011da575b620010a4906200392e565b8160035416604051906370a0823160e01b82523060048301526020918281602481855afa9081156200066c578791620011a2575b50851115620010e5578580f35b60405163a9059cbb60e01b81526001600160a01b038416600482015260248101869052908290829060449082908a905af1801562000410576200117f575b50501690813b156200117b578291602483926040519485938492639b5ceb3560e01b845260048401525af18015620007735762001163575b808080808580f35b6200116e90620036f8565b620004625780386200115b565b5050fd5b816200119992903d1062000350576200034081836200370d565b50388062001123565b809750838092503d8311620011d2575b620011be81836200370d565b8101031262000403578487965190620010d8565b503d620011b2565b50600c548216331462001099565b5030331462001091565b503462000462576200120436620036e1565b6001600160a01b03929183600b541633148015620013c8575b8015620013ba575b62001230906200392e565b808352602093601a855260408420549281600d541690813b15620013b65760405163318a457160e21b815260048101919091523060248201529085908290604490829084905af180156200074c57869291869162001399575b50509182620012a1620012f394600d54168362003f31565b6017548682600d541692600554169360405196879586948593630fe9a9f560e31b85523092600486019293606092959460808501966001600160a01b0380941686526020860152604085015216910152565b03925af19283156200138d579262001358575b50816009620013158362003661565b500155600a620013258262003661565b5001600160ff19825416179055600b6200134d6200134660175442620038a6565b9262003661565b500155604051908152f35b9091508281813d831162001385575b6200137381836200370d565b81010312620004035751903862001306565b503d62001367565b604051903d90823e3d90fd5b620013a791929350620036f8565b62000ccd578490843862001289565b8580fd5b50600c548416331462001225565b503033146200121d565b503462000462576040366003190112620004625760043590620013f4620036ca565b916001600160a01b036200140e81600b54163314620038e2565b6011838155828452601a6020908152604080862054600d5482517f51f3b4bd000000000000000000000000000000000000000000000000000000008152600481018890523060248201529198949594919288918490604490829085908a165af1801562000f95578893899162001a3a575b5060408051898152602081018690529081018290527fa54e6c2fc0861aa9c991b26891d71059d517983b9e84b91020f42609c452eb9d90606090a1600354861683871610156200199657831592836200195257620014f89291620014e8620014ee928762003e4b565b620038a6565b90818855620038a6565b956008620015068a62003661565b500154831162001941576200151b9062003d26565b81800460011417156200192e5760086064620015378962003661565b5092049101555b7f455a40491d912862d7d0e0f06f4b988a4ecbfcb2e134b41b9600c81a782860ed81604051868152a1831595861562001587575b856200158186600f54620038a6565b600f5580f35b60148502968588046014148117156200191b576064879804846003541691823b1562000c725760405189817f2e1a7d4d00000000000000000000000000000000000000000000000000000000958682528560048301528160249e8f925af180156200191057908a939291620018f2575b5060508902908982046050141715620018e05791808080938960026200162560646200163c99049a62003661565b500154165af162001635620039ab565b50620039ef565b8360035416906040516370a0823160e01b815230600482015284818b81865afa90811562000c32579084918a91620018a9575b50106200184057813b156200183c578791898392604051948593849283528760048401525af180156200066c5790879162001824575b50508060031c93841585600f810204600f148117156200181257601986029286840460191482171562001800577f3ffffffffffffffffffffffffffffffffffffffffffffffffffffffffffffffe9060021c169586046002141715620017ef575082600c5416803b1562000fb857869060046040518094819363014d6aed60e41b83525af180156200041057908691620017d7575b508080808686601254165af162001750620039ab565b50156200178457508380808097506200177994620015819794601054165af162001635620039ab565b829138808062001572565b6084906027876040519262461bcd60e51b845260048401528201527f4661696c656420746f2073656e642045544820746f20747265617375727920636044820152661bdb9d1c9858dd60ca1b6064820152fd5b620017e290620036f8565b620010005784386200173a565b634e487b7160e01b87526004528686fd5b898984634e487b7160e01b8252600452fd5b888883634e487b7160e01b8252600452fd5b6200182f90620036f8565b620013b6578538620016a5565b8780fd5b60848460228b6040519262461bcd60e51b845260048401528201527f496e737566696369656e742062616c616e6365206f6e2074686520666163746f60448201527f72790000000000000000000000000000000000000000000000000000000000006064820152fd5b809250868092503d8311620018d8575b620018c581836200370d565b810103126200040357839051386200166f565b503d620018b9565b8a8389634e487b7160e01b8252600452fd5b620019019093919293620036f8565b62000c725790889138620015f7565b6040513d8c823e3d90fd5b60248786634e487b7160e01b8252600452fd5b60248685634e487b7160e01b8252600452fd5b6200194c9062003dd4565b6200151b565b5096925062001973915062001969878754620038a6565b90818755620038a6565b94156200198b57620019859062003dd4565b6200153e565b620019859062003d26565b928315928362001a1257620019b69291620014e8620014ee928762003e4b565b956008620019c48a62003661565b500154831162001a0157620019d99062003d26565b81800460011417156200192e5760086064620019f58962003661565b5092049101556200153e565b62001a0c9062003dd4565b620019d9565b50969250505062001a25858554620038a6565b80855594156200198b57620019859062003dd4565b905062001a6491935060403d60401162001a6e575b62001a5b81836200370d565b81019062003994565b929092386200147f565b503d62001a4f565b503462000462578060031936011262000462576001600160a01b0380600b54163314801562001c36575b801562001c28575b62001ab3906200392e565b81816003541691604051926370a0823160e01b84523060048501526020938481602481855afa9081156200038557849162001bf1575b50601b54809110158062001be7575b62001b01578380f35b8490604484600c541686604051958694859363a9059cbb60e01b8552600485015260248401525af18015620003585762001bc5575b50600c5416601b54813b156200076f578291602483926040519485938492639b5ceb3560e01b845260048401525af18015620007735762001bad575b50507f8ff98a7f9bedb57df86769d07998b067fba595272053e3690d3412aff560a82c90601b54604051908152a180601b5538818180808380f35b62001bb890620036f8565b6200045e57813862001b72565b62001bdf90843d861162000350576200034081836200370d565b503862001b36565b5080151562001af8565b809450858092503d831162001c20575b62001c0d81836200370d565b8101031262000403578492513862001ae9565b503d62001c01565b50600c548116331462001aa8565b5030331462001aa0565b50602036600319011262000462576004356001600160a01b039062001c6b82600b54163314620038e2565b341562001ccf578162001c8a8285946003541683600c54169062003cb9565b600c5416803b156200117b57829060046040518094819363014d6aed60e41b83525af18015620007735762001cbc5750f35b62001cc790620036f8565b620004625780f35b606460405162461bcd60e51b815260206004820152601160248201527f4e6f207265776172647320746f206164640000000000000000000000000000006044820152fd5b5034620004625780600319360112620004625760209054604051908152f35b5034620004625780600319360112620004625760206001600160a01b03600b5416604051908152f35b503462000462576020806003193601126200045e576004356001600160a01b039081600c5416803314801562001f6c579062001def83927fd5e85995d9bdcdafb72531ec59faef29167c16780583ca2068587fe896170c478762001dc48a9897601b54620038a6565b9586601b55604051908152a184600b5416331490811562001f61575b811562001f58575b506200392e565b8260035416916040516370a0823160e01b81523060048201528681602481875afa9081156200041057869162001f20575b508111158062001f16575b62001e34578480f35b6044869286604051958694859363a9059cbb60e01b8552600485015260248401525af18015620003585762001ef4575b50600c5416601b54813b156200076f578291602483926040519485938492639b5ceb3560e01b845260048401525af18015620007735762001edc575b50507f8ff98a7f9bedb57df86769d07998b067fba595272053e3690d3412aff560a82c90601b54604051908152a180601b553881818080808480f35b62001ee790620036f8565b6200045e57813862001ea0565b62001f0e90843d861162000350576200034081836200370d565b503862001e64565b5080151562001e2b565b809650878092503d831162001f50575b62001f3c81836200370d565b810103126200040357808795519062001e20565b503d62001f30565b90503862001de8565b333014915062001de0565b6084856040519062461bcd60e51b82526004820152602160248201527f4f6e6c79207374616b696e6720636f6e74726163742063616e206e6f7469667960448201527f2e000000000000000000000000000000000000000000000000000000000000006064820152fd5b5034620004625780600319360112620004625760206001600160a01b0360065416604051908152f35b503462000462578060031936011262000462576020600154604051908152f35b50346200046257606036600319011262000462576004356001600160a01b03908181168091036200076f5762002054620036ca565b916044359281841680940362000403576200207582600b54163314620038e2565b73ffffffffffffffffffffffffffffffffffffffff199283600c541617600c551681601254161760125581816013541617601355600954161760095580f35b503462000462578060031936011262000462576020601b54604051908152f35b5034620004625780600319360112620004625760206001600160a01b0360055416604051908152f35b5034620004625780600319360112620004625754600154600f5460408051938452602084019290925290820152606090f35b0390f35b503462000462576060366003190112620004625762002151620036b3565b906200215c620036ca565b6044359262ffffff841684036200076f57600654604051630b4c774160e11b81526001600160a01b039283166004820152928216602484015262ffffff94909416604483015290926020908490606490829085165afa9182156200138d578092620021cf575b6020838360405191168152f35b9091506020833d6020116200220d575b81620021ee602093836200370d565b810103126200046257506200220560209262003891565b9038620021c2565b3d9150620021df565b503462000462578060031936011262000462576020601654604051908152f35b50346200046257602036600319011262000462576004359060195482101562000462576101e0620022678362003661565b5060ff6001600160a01b03808354169281600182015416916002820154166003820154600483015485600585015416600685015487600787015416916008870154936009880154958a600a8a01541697600c600b8b01549a01549a60206040519e8f908152015260408d015260608c015260808b0152151560a08a015260c0890152151560e088015261010087015261012086015215156101408501526101608401528181161515610180840152818160081c1615156101a084015260101c1615156101c0820152f35b5060a03660031901126200046257602435908115158203620004625760443567ffffffffffffffff81116200045e576200237090369060040162003630565b9060643567ffffffffffffffff811162000ccd576200239490369060040162003630565b90601554341062002f7457620023ae9360843593620037b7565b601454604051936370a0823160e01b85523060048601526020856024816001600160a01b0387165afa9485156200038557849562002f3a575b50801562002e67575b60018115151462002d9c575b6001600160a01b036003541691826001600160a01b0385161060001462002d93578392955b670de0b6b3a764000080830290838204148315171562000f48576200244b82620024519262003870565b62003b7f565b93848060601b046c01000000000000000000000000148515171562000f485760206001600160a01b0360648a8a836009541684633b9aca006040519c8d9788967f51246d6e000000000000000000000000000000000000000000000000000000008852818c16600489015216602487015260601b041660448401525af19485156200066c57879562002d4f575b50620024f7826001600160a01b03600554168362003bdf565b6200250f836001600160a01b03600554168a62003bdf565b61012c4201421162000f4857604051978861016081011067ffffffffffffffff6101608b01111762002c2e576001600160a01b0380926101608b016040521689521660208801526127106040880152620d899f196060880152620d89a0608088015260a087015260c08601528360e0860152836101008601523061012086015261012c420161014086015260806101406101646001600160a01b03600554169787604051998a9485937f883164560000000000000000000000000000000000000000000000000000000085526001600160a01b0381511660048601526001600160a01b03602082015116602486015262ffffff6040820151166044860152606081015160020b60648601528781015160020b608486015260a081015160a486015260c081015160c486015260e081015160e48601526101008101516101048601526001600160a01b036101208201511661012486015201516101448401525af19485156200038557849562002d05575b506001600160a01b03600554166001600160a01b03600d5416813b15620013b65760405163095ea7b360e01b81526001600160a01b03919091166004820152602481018790529085908290604490829084905af180156200074c5790859162002ced575b5050600d54600554601654604051630fe9a9f560e31b81526001600160a01b03928316600482015260248101899052604481019190915230606482015291602091839160849183918a91165af19081156200074c57859162002cb5575b506200274f60165442620038a6565b9060405193846101e081011067ffffffffffffffff6101e08701111762002c2e576001600160a01b03906101e0860160405281871686521660208501523360408501524260608501528660808501528560a08501528560c08501528560e08501528561010085015261012084015260016101408401526101608301528361018083015260016101a083015215156101c08201526019546801000000000000000081101562002ca15780600162002809920160195562003661565b62002c8e57600c906001600160a01b0383511673ffffffffffffffffffffffffffffffffffffffff199081835416178255600182016001600160a01b036020860151168282541617905560028201906001600160a01b03604086015116908254161790556060830151600382015560808301516004820155620028a160a08401511515600583019060ff801983541691151516179055565b60c08301516006820155620028cb60e08401511515600783019060ff801983541691151516179055565b61010083015160088201556101208301516009820155620029026101408401511515600a83019060ff801983541691151516179055565b610160830151600b82015501906200292d6101808201511515839060ff801983541691151516179055565b6101a081015115159061ff0062ff00006101c08554930151151560101b169260081b169062ffff00191617179055601954806000198101116200063557838352601a602052600019016040832055620029878254620038d2565b825562002996600154620038d2565b600155828252601a6020526001600160a01b036001620029ba604085205462003661565b500154166001600160a01b0382163b156200076f57604051907f5edfd7ce00000000000000000000000000000000000000000000000000000000825260048201528281602481836001600160a01b0387165af18015620003585790839162002c76575b505060043562002a33575b602083604051908152f35b6004356003600435020460031460043515171562002c6257606460036004350204908280808062002a678660043562003862565b956001600160a01b036010541682821562002c58575bf115620007735762002a9c82826001600160a01b0360035416620042cb565b9081605f810204605f148215171562002c445762002ad3836001600160a01b03600354166001600160a01b03600754169062003cb9565b6001600160a01b0360035416916040518060e081011067ffffffffffffffff60e08301111762002c2e576001600160a01b03946064605f60e4948860c09760209960e08801604052875216888601526127106040860152336060860152836080860152020460a08301528684830152856007541660405196879586947f04e45aaf000000000000000000000000000000000000000000000000000000008652828151166004870152828982015116602487015262ffffff60408201511660448701528260608201511660648701526080810151608487015260a081015160a487015201511660c48401525af18015620007735762002bfd575b506004356004350460011460043515171562002be9578062002a28565b80634e487b7160e01b602492526011600452fd5b602090813d831162002c26575b62002c1681836200370d565b8101031262000403573862002bcc565b503d62002c0a565b634e487b7160e01b600052604160045260246000fd5b602484634e487b7160e01b81526011600452fd5b506108fc62002a7d565b602482634e487b7160e01b81526011600452fd5b62002c8190620036f8565b6200045e57813862002a1d565b602484634e487b7160e01b815280600452fd5b602484634e487b7160e01b81526041600452fd5b90506020813d60201162002ce4575b8162002cd3602093836200370d565b810103126200040357513862002740565b3d915062002cc4565b62002cf890620036f8565b62000ccd578338620026e3565b9094506080813d60801162002d46575b8162002d24608093836200370d565b8101031262000ccd5762002d3d602082519201620038b4565b5093386200267f565b3d915062002d15565b9094506020813d60201162002d8a575b8162002d6e602093836200370d565b8101031262000fb85762002d829062003891565b9338620024de565b3d915062002d5f565b94839562002421565b9050341562002e235762002db36004353462003862565b906001600160a01b0360035416803b1562001000578483916004604051809481937fd0e30db00000000000000000000000000000000000000000000000000000000083525af180156200074c5762002e0d575b50620023fc565b62002e1b90949194620036f8565b923862002e06565b606460405162461bcd60e51b815260206004820152601860248201527f4d7573742073656e642045544820746f20636f6e7665727400000000000000006044820152fd5b602460206001600160a01b0360035416604051928380926370a0823160e01b82523060048301525afa9081156200074c57908391869162002eff575b501015620023f057608460405162461bcd60e51b815260206004820152602760248201527f4e6f7420656e6f756768205745544820696e2074686520666163746f727920636044820152661bdb9d1c9858dd60ca1b6064820152fd5b9150506020813d60201162002f31575b8162002f1e602093836200370d565b8101031262001000578290513862002ea3565b3d915062002f0f565b9094506020813d60201162002f6b575b8162002f59602093836200370d565b8101031262000ccd57519338620023e7565b3d915062002f4a565b608460405162461bcd60e51b815260206004820152602c60248201527f496e73756666696369656e74204554482073656e742e2052657175697265643a60448201527f20302e30303031352045544800000000000000000000000000000000000000006064820152fd5b5034620004625780600319360112620004625760206001600160a01b0360035416604051908152f35b503462000462576060366003190112620004625767ffffffffffffffff6004358181116200076f576200303f90369060040162003630565b919092602435918211620004625760206200306f858562003064366004880162003630565b9160443593620037b7565b6001600160a01b0360405191168152f35b5034620004625780600319360112620004625760206001600160a01b03600d5416604051908152f35b5034620004625780600319360112620004625760195460c052620030cf60c05162003749565b608052620030df60c05162003749565b61024052620030f060c05162003749565b6101e0526200310160c05162003749565b610100526200311260c05162003749565b610140526200312360c05162003749565b610260526200313460c05162003749565b610180526200314560c05162003749565b6101a0526200315660c05162003749565b610200526200316760c05162003749565b610220526200317860c05162003749565b6101c0526200318960c05162003749565b610160526200319a60c05162003749565b61012052620031ab60c05162003749565b60e052620031bb60c05162003749565b60a0525b60c05181106200331d57604051806200212f6200330b620032f9620032e6620032d3620032c0620032ad6200329a62003288620032766200326462003252620032408d6200322d6200321b6101e0808452830160805162003583565b82810360208401526102405162003583565b9060408183039101526101e05162003583565b8d810360608f015261010051620035c2565b8c810360808e015261014051620035c2565b8b810360a08d015261026051620035f8565b8a810360c08c015261018051620035c2565b89810360e08b01526101a051620035f8565b8881036101008a015261020051620035c2565b87810361012089015261022051620035c2565b8681036101408801526101c051620035f8565b85810361016087015261016051620035c2565b84810361018086015261012051620035f8565b8381036101a085015260e051620035f8565b8281036101c084015260a051620035f8565b806200332b60019262003661565b506001600160a01b0380915416620033468360805162003781565b528083620033548462003661565b5001541662003367836102405162003781565b526002620033758362003661565b5001541662003388826101e05162003781565b526004620033968262003661565b500154620033a8826101005162003781565b526003620033b68262003661565b500154620033c8826101405162003781565b526005620033d68262003661565b5060ff918291015416620033ee836102605162003781565b90151590526006620034008362003661565b50015462003412836101805162003781565b52806007620034218462003661565b5001541662003434836101a05162003781565b9015159052620034448262003661565b506008809101546200345a846102005162003781565b526009620034688462003661565b5001546200347a846102205162003781565b5281600a620034898562003661565b500154166200349c846101c05162003781565b9015159052600b620034ae8462003661565b500154620034c0846101605162003781565b5281620034cd8462003661565b509181600c8094015416620034e6866101205162003781565b901515905282620034f78662003661565b500154901c166200350b8460e05162003781565b90151590526200351b8362003661565b50015460101c16620035308260a05162003781565b901515905201620031bf565b5034620004625780600319360112620004625760206001600160a01b0360045416604051908152f35b9050346200045e57816003193601126200045e576020906002548152f35b90815180825260208080930193019160005b828110620035a4575050505090565b83516001600160a01b03168552938101939281019260010162003595565b90815180825260208080930193019160005b828110620035e3575050505090565b835185529381019392810192600101620035d4565b90815180825260208080930193019160005b82811062003619575050505090565b83511515855293810193928101926001016200360a565b9181601f84011215620004035782359167ffffffffffffffff83116200040357602083818601950101116200040357565b6019548110156200369d57600d906019600052027f944998273e477b495144fb8794c914197f3ccb46be2900f4698fd0ef743c96950190600090565b634e487b7160e01b600052603260045260246000fd5b600435906001600160a01b03821682036200040357565b602435906001600160a01b03821682036200040357565b604090600319011262000403576004359060243590565b67ffffffffffffffff811162002c2e57604052565b90601f8019910116810190811067ffffffffffffffff82111762002c2e57604052565b67ffffffffffffffff811162002c2e5760051b60200190565b90620037558262003730565b6200376460405191826200370d565b828152809262003777601f199162003730565b0190602036910137565b80518210156200369d5760209160051b010190565b908060209392818452848401376000828201840152601f01601f1916010190565b929093919360405194611333928387019387851067ffffffffffffffff86111762002c2e5787966200380c94620037fd92620044008a3960808752608087019162003796565b91848303602086015262003796565b91604082015260603091015203906000f0801562003856576001600160a01b0316807f91d24864a084ab70b268a1f865e757ca12006cf298d763b6be697302ef86498c600080a290565b6040513d6000823e3d90fd5b9190820391821162000bd557565b81156200387b570490565b634e487b7160e01b600052601260045260246000fd5b51906001600160a01b03821682036200040357565b9190820180921162000bd557565b51906fffffffffffffffffffffffffffffffff821682036200040357565b600019811462000bd55760010190565b15620038ea57565b606460405162461bcd60e51b815260206004820152601760248201527f43616c6c6572206973206e6f7420746865206f776e65720000000000000000006044820152fd5b156200393657565b606460405162461bcd60e51b815260206004820152601860248201527f43616c6c6572206973206e6f7420617574686f72697a656400000000000000006044820152fd5b908160209103126200040357518015158103620004035790565b919082604091031262000403576020825192015190565b3d15620039ea573d9067ffffffffffffffff821162002c2e5760405191620039de601f8201601f1916602001846200370d565b82523d6000602084013e565b606090565b15620039f757565b608460405162461bcd60e51b815260206004820152602160248201527f4661696c656420746f2073656e642045544820746f207465616d2077616c6c6560448201527f74000000000000000000000000000000000000000000000000000000000000006064820152fd5b51908160020b82036200040357565b919082610180910312620004035781516bffffffffffffffffffffffff8116810362000403579162003aa56020820162003891565b9162003ab46040830162003891565b9162003ac36060820162003891565b91608082015162ffffff8116810362000403579162003ae560a0820162003a61565b9162003af460c0830162003a61565b9162003b0360e08201620038b4565b91610100820151916101208101519162003b3061016062003b286101408501620038b4565b9301620038b4565b90565b1562003b3b57565b606460405162461bcd60e51b815260206004820152600f60248201527f417070726f76616c206661696c656400000000000000000000000000000000006044820152fd5b906000600383111562003bd15750816001908060011c6001810180911162000bd55791905b84831062003bb2575050505b565b9091935062003bc784620014e8818462003870565b821c919062003ba4565b9162003bd957565b60019150565b60405163095ea7b360e01b602082019081526001600160a01b03939093166024820152604480820194909452928352600092839290839062003c236064826200370d565b51925af162003c31620039ab565b8162003c85575b501562003c4157565b606460405162461bcd60e51b815260206004820152600260248201527f53410000000000000000000000000000000000000000000000000000000000006044820152fd5b805180159250821562003c9c575b50503862003c38565b62003cb192506020809183010191016200397a565b388062003c93565b60405163095ea7b360e01b81526001600160a01b039283166004820152602481019390935260209183916044918391600091165af18015620038565762003bb09160009162003d09575062003b33565b6200037e915060203d60201162000350576200034081836200370d565b62003da260069180600052601a6020527f5b5116a6a7ed7078e6da121ce407eb49b9da5715f14154c54556529f996a4fb0604060002054918462003d6a8462003661565b500154601854111562003db4575b60ff600762003d878562003661565b5001546040805193845291161515602083015290a162003661565b500162003db08154620038d2565b9055565b600762003dc18462003661565b5001805460ff1916600117905562003d78565b600052601a6020527f6f3e068cb934f31cfea69b2f72e697abfe27982d58fe7fcabb327c96c89cd33a6040600020546000600662003e128362003661565b50015560ff600762003e34600662003e2a8562003661565b5001549362003661565b5001546040805193845291161515602083015290a1565b906001600160a01b0362003e6583826003541684620042cb565b605f810290808204605f149015171562000bd557602092600060a49262003e928786600754168562003cb9565b6064856009541691866003541698604051998a9889977f73d84e42000000000000000000000000000000000000000000000000000000008952166004880152602487015260448601520460648401523060848401525af1908115620038565760009162003efd575090565b90506020813d60201162003f28575b8162003f1b602093836200370d565b8101031262000403575190565b3d915062003f0c565b906001600160a01b03600e541691823b15620004035760405163095ea7b360e01b81526001600160a01b039290921660048301526024820152906000908290604490829084905af18015620038565762003f885750565b62003bb090620036f8565b62003fd7600092600b928452601a602052604084205490600962003fb78362003661565b500155600a62003fc78262003661565b5001805460ff1916905562003661565b500155565b91906000838152602090601a825260409182822054956001600160a01b0390846fffffffffffffffffffffffffffffffff60448460095416988784519a8b9485937f911757ba0000000000000000000000000000000000000000000000000000000085528860048601521660248401525af19788156200423157849685996200429a575b506200406e60059162003661565b5001805460ff191660011790558451908152602081018690526040810188905233907f1dc8bb69df2b8e91fbdcbfcf93d951b3f0000f085a95fe3f7946d6161439245d90606090a280600b54163314801562004290575b801562004282575b620040d8906200392e565b806003541684516370a0823160e01b81523060048201528381602481855afa9081156200427857859162004245575b50601b5480911015806200423b575b62004126575b5050505050509190565b8390604484600c5416878951958694859363a9059cbb60e01b8552600485015260248401525af1801562004231576200420f575b50600c5416601b54813b1562000ccd5783916024839287519485938492639b5ceb3560e01b845260048401525af180156200420557620041d1575b507f8ff98a7f9bedb57df86769d07998b067fba595272053e3690d3412aff560a82c9192601b549051908152a1601b553880808080806200411c565b91620041fe7f8ff98a7f9bedb57df86769d07998b067fba595272053e3690d3412aff560a82c93620036f8565b9162004195565b84513d85823e3d90fd5b6200422990833d851162000350576200034081836200370d565b50386200415a565b85513d86823e3d90fd5b5080151562004116565b90508381813d831162004270575b6200425f81836200370d565b810103126200100057513862004107565b503d62004253565b86513d87823e3d90fd5b50600c5481163314620040cd565b50303314620040c5565b60059199506200406e9750620042bf90873d891162001a6e5762001a5b81836200370d565b97909799915062004060565b90604080519360a0850185811067ffffffffffffffff82111762002c2e5782526001600160a01b039485809516815284602082019416845282810191825260608101936127108552856080830160009687958683528380600854169589519c8d987fc6a5026a000000000000000000000000000000000000000000000000000000008a5251166004890152511660248701525160448601525162ffffff16606485015251166084830152815a9360a492608095f1938415620043f457829462004396575b5050505090565b90919293506080813d608011620043eb575b81620043b7608093836200370d565b810103126200076f578051936020820151908116036200076f57015163ffffffff811603620004625750388080806200438f565b3d9150620043a8565b5051903d90823e3d90fdfe60406080815234620006a35762001333803803806200001e81620006a8565b9283398101608082820312620006a35781516001600160401b0390818111620006a357826200004f918501620006ce565b6020928385015190838211620006a3576200006c918601620006ce565b8585015160609095015190926001600160a01b039182811690819003620006a3578351828111620005a35760038054916001968784811c9416801562000698575b8a85101462000682578190601f948581116200062c575b508a90858311600114620005c557600092620005b9575b505060001982841b1c191690871b1781555b865191848311620005a35760049788548881811c9116801562000598575b8b8210146200058357908183869594931162000529575b508a918411600114620004be57600093620004b2575b505082871b92600019911b1c19161785555b60018060a01b03199061dead8260085416176008556005600a5560ff19600c5416600c55670de0b6b3a76400009788810298818a0414811517156200049d57674563918244f4000002888104600514891517156200049d576064900460055581600754161760075587519160608301908382109082111762000488578852308252858201916000835288810192308452600d546801000000000000000081101562000473578087620002009201600d5562000740565b9290926200045f5751825491516001600160a81b03199092169086161790151560a01b60ff60a01b1617815591519184018054909116918316919091179055600d5460001981019081116200044a5730600052600e855286600020553315620004335730600052600e84528560002054918060ff6200027f8562000740565b505460a01c16151514928362000422575b8362000413575b8362000402575b83620003f6575b83620003ec575b83620003ce575b50505062000317575b507fddf252ad1be2c89b69c2b068fc378daa952ba7f163c4a11628f55a4df523b3ef600091620002ef8460025462000776565b60025533835282815284832084815401905584519384523393a351610b9890816200079b8239f35b600254600a5490818102918183041490151715620003b9576064903360005260008452046200034b84866000205462000776565b1115620002bc5760849184519162461bcd60e51b8352820152603660248201527f4d79546f6b656e3a205472616e7366657220616d6f756e74206578636565647360448201527f20746865206d617820686f6c64696e67206c696d6974000000000000000000006064820152fd5b601182634e487b7160e01b6000525260246000fd5b620003dc9192935062000740565b50015416331415388080620002b3565b92508092620002ac565b333014159350620002a5565b92508160085416331415926200029e565b60075483161515935062000297565b925081600754163314159262000290565b855163ec442f0560e01b8152600081850152602490fd5b601184634e487b7160e01b6000525260246000fd5b600088634e487b7160e01b82525260246000fd5b604188634e487b7160e01b6000525260246000fd5b604186634e487b7160e01b6000525260246000fd5b601187634e487b7160e01b6000525260246000fd5b01519150388062000138565b9190889450601f198416928a6000528b6000209360005b8d828210620005125750508511620004f7575b50505050811b0185556200014a565b01519060f884600019921b161c1916905538808080620004e8565b8385015187558c98909601959384019301620004d5565b9091929350896000528a6000208380870160051c8201928d881062000579575b918b918897969594930160051c01915b8281106200056957505062000122565b600081558796508b910162000559565b9250819262000549565b60228a634e487b7160e01b6000525260246000fd5b90607f16906200010b565b634e487b7160e01b600052604160045260246000fd5b015190503880620000db565b60008581528c81208b9550929190601f198516908e5b828210620006145750508411620005fb575b505050811b018155620000ed565b015160001983861b60f8161c19169055388080620005ed565b8385015186558d979095019493840193018e620005db565b909150836000528a6000208580850160051c8201928d861062000678575b918b91869594930160051c01915b82811062000668575050620000c4565b600081558594508b910162000658565b925081926200064a565b634e487b7160e01b600052602260045260246000fd5b93607f1693620000ad565b600080fd5b6040519190601f01601f191682016001600160401b03811183821017620005a357604052565b919080601f84011215620006a35782516001600160401b038111620005a35760209062000704601f8201601f19168301620006a8565b92818452828287010111620006a35760005b8181106200072c57508260009394955001015290565b858101830151848201840152820162000716565b600d548110156200076057600d60005260206000209060011b0190600090565b634e487b7160e01b600052603260045260246000fd5b919082018092116200078457565b634e487b7160e01b600052601160045260246000fdfe608060408181526004918236101561001657600080fd5b600092833560e01c91826306647125146107d45750816306fdde03146106f8578163095ea7b31461065057816318160ddd1461063157816323b872dd1461052557816327c8f835146104fd578163313ce567146104e1578163333e6f06146104c25781635edfd7ce14610378578163634282af1461031a57816370a08231146102e457816395d89b41146101c357508063966dae0e1461019c578063a9059cbb1461016c578063aa4bde281461014e578063d045a3291461012b5763dd62ed3e146100e057600080fd5b34610127578060031936011261012757806020926100fc610839565b610104610854565b6001600160a01b0391821683526001865283832091168252845220549051908152f35b5080fd5b503461012757816003193601126101275760209060ff600c541690519015158152f35b5034610127578160031936011261012757602090600b549051908152f35b503461012757806003193601126101275760209061019561018b610839565b60243590336108e3565b5160018152f35b50346101275781600319360112610127576020906001600160a01b03600754169051908152f35b83833461012757816003193601126101275780519082845460018160011c90600183169283156102da575b60209384841081146102c7578388529081156102ab5750600114610256575b505050829003601f01601f191682019267ffffffffffffffff841183851017610243575082918261023f9252826107f0565b0390f35b80604186634e487b7160e01b6024945252fd5b8787529192508591837f8a35acfbc15ff81a39ae7d344fd709f28e8600b4aa8c65c6b64bfe7fe36bd19b5b838510610297575050505083010185808061020d565b805488860183015293019284908201610281565b60ff1916878501525050151560051b840101905085808061020d565b60248960228c634e487b7160e01b835252fd5b91607f16916101ee565b50503461012757602036600319011261012757806020926001600160a01b0361030b610839565b16815280845220549051908152f35b83915034610127576020366003190112610127573590600d548210156103755760606001846103488561086a565b509060ff8254926001600160a01b03948591015416928251948116855260a01c1615156020840152820152f35b80fd5b9050346104be5760203660031901126104be57610393610839565b916001600160a01b0391826007541633036104565750610406600191308652600e6020528520546103c38161086a565b50740100000000000000000000000000000000000000007fffffffffffffffffffffff00ffffffffffffffffffffffffffffffffffffffff82541617905561086a565b500191167fffffffffffffffffffffffff00000000000000000000000000000000000000008254161790556064610442600254600a54906108ba565b04600b55600160ff19600c541617600c5580f35b6020608492519162461bcd60e51b8352820152602d60248201527f43616c6c6572206973206e6f7420617574686f72697a656420746f20656e616260448201527f6c65206d61782077616c6c6574000000000000000000000000000000000000006064820152fd5b8280fd5b5050346101275781600319360112610127576020906005549051908152f35b5050346101275781600319360112610127576020905160128152f35b5050346101275781600319360112610127576020906001600160a01b03600854169051908152f35b9050823461037557606036600319011261037557610541610839565b610549610854565b91604435936001600160a01b038316808352600160205286832033845260205286832054916000198303610586575b6020886101958989896108e3565b8683106105ec5781156105d65733156105c05750825260016020908152868320338452815291869020908590039055829061019587610578565b60249084895191634a1406b160e11b8352820152fd5b6024908489519163e602df0560e01b8352820152fd5b87517ffb8f41b2000000000000000000000000000000000000000000000000000000008152339181019182526020820193909352604081018790528291506060010390fd5b5050346101275781600319360112610127576020906002549051908152f35b9050346104be57816003193601126104be5761066a610839565b6024359033156106e2576001600160a01b03169182156106cc57508083602095338152600187528181208582528752205582519081527f8c5be1e5ebec7d5bd14f71427d1e84f3dd0314c0f7b2291e5b200ac8c7c3b925843392a35160018152f35b60249085855191634a1406b160e11b8352820152fd5b6024838686519163e602df0560e01b8352820152fd5b8383346101275781600319360112610127578051908260035460018160011c90600183169283156107ca575b60209384841081146102c7578388529081156102ab575060011461077457505050829003601f01601f191682019267ffffffffffffffff841183851017610243575082918261023f9252826107f0565b600387529192508591837fc2575a0e9e593c00f959f8c92f12db2869c3395a3b0502d05e2516446f71f85b5b8385106107b6575050505083010185808061020d565b8054888601830152930192849082016107a0565b91607f1691610724565b849034610127578160031936011261012757602090600a548152f35b6020808252825181830181905290939260005b82811061082557505060409293506000838284010152601f8019910116010190565b818101860151848201604001528501610803565b600435906001600160a01b038216820361084f57565b600080fd5b602435906001600160a01b038216820361084f57565b600d548110156108a457600d60005260011b7fd7b6990105719101dabeb77144f2a3385c8033acd3af97e9423a695e81ad1eb50190600090565b634e487b7160e01b600052603260045260246000fd5b818102929181159184041417156108cd57565b634e487b7160e01b600052601160045260246000fd5b9291906001600160a01b03808516918215610b31578116928315610b0057600091308352602092600e84526040918282205490600160ff6109238461086a565b505460a01c161515149182610af1575b82610ae2575b82610ad3575b82610ac8575b82610abd575b82610aa1575b50506109f8575b84815280845281812054978389106109af57508083869798997fddf252ad1be2c89b69c2b068fc378daa952ba7f163c4a11628f55a4df523b3ef9785945282875203828220558781522082815401905551908152a3565b82517fe450d38c0000000000000000000000000000000000000000000000000000000081526001600160a01b039190911660048201526024810189905260448101849052606490fd5b6064610a09600254600a54906108ba565b0486825281855282822054848101809111610a8d5711156109585760848483519062461bcd60e51b82526004820152603660248201527f4d79546f6b656e3a205472616e7366657220616d6f756e74206578636565647360448201527f20746865206d617820686f6c64696e67206c696d6974000000000000000000006064820152fd5b602483634e487b7160e01b81526011600452fd5b6001919250610aaf9061086a565b500154168614153880610951565b87891415925061094b565b308914159250610945565b6008548216891415925061093f565b60075482168814159250610939565b60075482168914159250610933565b60246040517fec442f0500000000000000000000000000000000000000000000000000000000815260006004820152fd5b60246040517f96c6fd1e00000000000000000000000000000000000000000000000000000000815260006004820152fdfea2646970667358221220fc5d018e5adb9ef31ca26ed9631206f568d571bb892321fe6d31c947e48efe2464736f6c63430008180033a2646970667358221220c03dd8a99e34b1660bf9c43cfb8419f2c5b836e9235fb6424d493f3a796c537764736f6c63430008180033",
  "linkReferences": {},
  "deployedLinkReferences": {}
}