{
  "_format": "hh-sol-artifact-1",
  "contractName": "SimpleStaking",
  "sourceName": "contracts/Staking.sol",
  "abi": [
    {
      "inputs": [
        {
          "internalType": "address",
          "name": "_weth",
          "type": "address"
        },
        {
          "internalType": "address",
          "name": "factory",
          "type": "address"
        }
      ],
      "stateMutability": "nonpayable",
      "type": "constructor"
    },
    {
      "inputs": [],
      "name": "ReentrancyGuardReentrantCall",
      "type": "error"
    },
    {
      "anonymous": false,
      "inputs": [
        {
          "indexed": false,
          "internalType": "uint256",
          "name": "availableWETH",
          "type": "uint256"
        }
      ],
      "name": "DebugAvailableWETH",
      "type": "event"
    },
    {
      "anonymous": false,
      "inputs": [
        {
          "indexed": false,
          "internalType": "address",
          "name": "user",
          "type": "address"
        },
        {
          "indexed": false,
          "internalType": "uint256",
          "name": "amountToProcess",
          "type": "uint256"
        }
      ],
      "name": "DebugProcessAttempt",
      "type": "event"
    },
    {
      "anonymous": false,
      "inputs": [
        {
          "indexed": false,
          "internalType": "address",
          "name": "user",
          "type": "address"
        },
        {
          "indexed": false,
          "internalType": "uint256",
          "name": "amount",
          "type": "uint256"
        }
      ],
      "name": "FailedToProcessUnstake",
      "type": "event"
    },
    {
      "anonymous": false,
      "inputs": [
        {
          "indexed": false,
          "internalType": "uint256",
          "name": "amount",
          "type": "uint256"
        },
        {
          "indexed": false,
          "internalType": "uint256",
          "name": "timestamp",
          "type": "uint256"
        }
      ],
      "name": "FundsReceived",
      "type": "event"
    },
    {
      "anonymous": false,
      "inputs": [
        {
          "indexed": false,
          "internalType": "uint256",
          "name": "amount",
          "type": "uint256"
        }
      ],
      "name": "FundsRequested",
      "type": "event"
    },
    {
      "anonymous": false,
      "inputs": [
        {
          "indexed": false,
          "internalType": "uint256",
          "name": "amountNeeded",
          "type": "uint256"
        }
      ],
      "name": "NotifyFactoryForFunds",
      "type": "event"
    },
    {
      "anonymous": false,
      "inputs": [
        {
          "indexed": false,
          "internalType": "address",
          "name": "user",
          "type": "address"
        },
        {
          "indexed": false,
          "internalType": "uint256",
          "name": "requestedAmount",
          "type": "uint256"
        },
        {
          "indexed": false,
          "internalType": "string",
          "name": "error",
          "type": "string"
        }
      ],
      "name": "ProcessUnstakeError",
      "type": "event"
    },
    {
      "anonymous": false,
      "inputs": [
        {
          "indexed": true,
          "internalType": "address",
          "name": "user",
          "type": "address"
        },
        {
          "indexed": false,
          "internalType": "uint256",
          "name": "amount",
          "type": "uint256"
        }
      ],
      "name": "RewardClaimed",
      "type": "event"
    },
    {
      "anonymous": false,
      "inputs": [
        {
          "indexed": false,
          "internalType": "uint256",
          "name": "amount",
          "type": "uint256"
        }
      ],
      "name": "RewardsAdded",
      "type": "event"
    },
    {
      "anonymous": false,
      "inputs": [
        {
          "indexed": true,
          "internalType": "address",
          "name": "user",
          "type": "address"
        },
        {
          "indexed": false,
          "internalType": "uint256",
          "name": "amount",
          "type": "uint256"
        }
      ],
      "name": "Stake",
      "type": "event"
    },
    {
      "anonymous": false,
      "inputs": [
        {
          "indexed": false,
          "internalType": "uint256",
          "name": "newTotalRewards",
          "type": "uint256"
        }
      ],
      "name": "TotalRewardsUpdated",
      "type": "event"
    },
    {
      "anonymous": false,
      "inputs": [
        {
          "indexed": true,
          "internalType": "address",
          "name": "user",
          "type": "address"
        },
        {
          "indexed": false,
          "internalType": "uint256",
          "name": "amount",
          "type": "uint256"
        }
      ],
      "name": "Unstake",
      "type": "event"
    },
    {
      "anonymous": false,
      "inputs": [
        {
          "indexed": true,
          "internalType": "address",
          "name": "user",
          "type": "address"
        },
        {
          "indexed": false,
          "internalType": "uint256",
          "name": "amount",
          "type": "uint256"
        },
        {
          "indexed": false,
          "internalType": "uint256",
          "name": "pendingAmount",
          "type": "uint256"
        }
      ],
      "name": "UnstakeProcessed",
      "type": "event"
    },
    {
      "anonymous": false,
      "inputs": [
        {
          "indexed": true,
          "internalType": "address",
          "name": "user",
          "type": "address"
        },
        {
          "indexed": false,
          "internalType": "uint256",
          "name": "amount",
          "type": "uint256"
        },
        {
          "indexed": false,
          "internalType": "uint256",
          "name": "timestamp",
          "type": "uint256"
        }
      ],
      "name": "UnstakeQueued",
      "type": "event"
    },
    {
      "anonymous": false,
      "inputs": [
        {
          "indexed": false,
          "internalType": "uint256",
          "name": "index",
          "type": "uint256"
        },
        {
          "indexed": false,
          "internalType": "address",
          "name": "user",
          "type": "address"
        },
        {
          "indexed": false,
          "internalType": "uint256",
          "name": "amount",
          "type": "uint256"
        },
        {
          "indexed": false,
          "internalType": "uint256",
          "name": "pendingUnstakes",
          "type": "uint256"
        }
      ],
      "name": "UnstakeRequestDetails",
      "type": "event"
    },
    {
      "anonymous": false,
      "inputs": [
        {
          "indexed": true,
          "internalType": "address",
          "name": "user",
          "type": "address"
        },
        {
          "indexed": false,
          "internalType": "uint256",
          "name": "amount",
          "type": "uint256"
        },
        {
          "indexed": false,
          "internalType": "uint256",
          "name": "pendingAmount",
          "type": "uint256"
        }
      ],
      "name": "UnstakeRequested",
      "type": "event"
    },
    {
      "anonymous": false,
      "inputs": [
        {
          "indexed": false,
          "internalType": "address",
          "name": "user",
          "type": "address"
        },
        {
          "indexed": false,
          "internalType": "uint256",
          "name": "processedAmount",
          "type": "uint256"
        },
        {
          "indexed": false,
          "internalType": "uint256",
          "name": "remainingWETH",
          "type": "uint256"
        }
      ],
      "name": "WETHProcessed",
      "type": "event"
    },
    {
      "stateMutability": "payable",
      "type": "fallback"
    },
    {
      "inputs": [],
      "name": "MIN_UNSTAKE_AMOUNT",
      "outputs": [
        {
          "internalType": "uint256",
          "name": "",
          "type": "uint256"
        }
      ],
      "stateMutability": "view",
      "type": "function"
    },
    {
      "inputs": [],
      "name": "REWARD_INTERVAL",
      "outputs": [
        {
          "internalType": "uint256",
          "name": "",
          "type": "uint256"
        }
      ],
      "stateMutability": "view",
      "type": "function"
    },
    {
      "inputs": [],
      "name": "accRewardPerShare",
      "outputs": [
        {
          "internalType": "uint256",
          "name": "",
          "type": "uint256"
        }
      ],
      "stateMutability": "view",
      "type": "function"
    },
    {
      "inputs": [],
      "name": "addRewards",
      "outputs": [],
      "stateMutability": "payable",
      "type": "function"
    },
    {
      "inputs": [],
      "name": "claimRewards",
      "outputs": [],
      "stateMutability": "nonpayable",
      "type": "function"
    },
    {
      "inputs": [],
      "name": "factoryAddress",
      "outputs": [
        {
          "internalType": "address",
          "name": "",
          "type": "address"
        }
      ],
      "stateMutability": "view",
      "type": "function"
    },
    {
      "inputs": [
        {
          "internalType": "address",
          "name": "staker",
          "type": "address"
        }
      ],
      "name": "getStake",
      "outputs": [
        {
          "internalType": "uint256",
          "name": "",
          "type": "uint256"
        }
      ],
      "stateMutability": "view",
      "type": "function"
    },
    {
      "inputs": [],
      "name": "getTotalRewards",
      "outputs": [
        {
          "internalType": "uint256",
          "name": "",
          "type": "uint256"
        }
      ],
      "stateMutability": "view",
      "type": "function"
    },
    {
      "inputs": [],
      "name": "getTotalStaked",
      "outputs": [
        {
          "internalType": "uint256",
          "name": "",
          "type": "uint256"
        }
      ],
      "stateMutability": "view",
      "type": "function"
    },
    {
      "inputs": [],
      "name": "getTotalUnstakeQueueAmount",
      "outputs": [
        {
          "internalType": "uint256",
          "name": "totalAmount",
          "type": "uint256"
        }
      ],
      "stateMutability": "view",
      "type": "function"
    },
    {
      "inputs": [],
      "name": "getUnstakeQueueLength",
      "outputs": [
        {
          "internalType": "uint256",
          "name": "",
          "type": "uint256"
        }
      ],
      "stateMutability": "view",
      "type": "function"
    },
    {
      "inputs": [
        {
          "internalType": "uint256",
          "name": "index",
          "type": "uint256"
        }
      ],
      "name": "getUnstakeRequest",
      "outputs": [
        {
          "internalType": "address",
          "name": "user",
          "type": "address"
        },
        {
          "internalType": "uint256",
          "name": "amount",
          "type": "uint256"
        },
        {
          "internalType": "uint256",
          "name": "timestamp",
          "type": "uint256"
        }
      ],
      "stateMutability": "view",
      "type": "function"
    },
    {
      "inputs": [],
      "name": "handleReceivedWETH",
      "outputs": [],
      "stateMutability": "nonpayable",
      "type": "function"
    },
    {
      "inputs": [],
      "name": "lastRewardTime",
      "outputs": [
        {
          "internalType": "uint256",
          "name": "",
          "type": "uint256"
        }
      ],
      "stateMutability": "view",
      "type": "function"
    },
    {
      "inputs": [
        {
          "internalType": "uint256",
          "name": "amount",
          "type": "uint256"
        }
      ],
      "name": "notifyFundsReceived",
      "outputs": [],
      "stateMutability": "nonpayable",
      "type": "function"
    },
    {
      "inputs": [],
      "name": "owner",
      "outputs": [
        {
          "internalType": "address",
          "name": "",
          "type": "address"
        }
      ],
      "stateMutability": "view",
      "type": "function"
    },
    {
      "inputs": [
        {
          "internalType": "address",
          "name": "_user",
          "type": "address"
        }
      ],
      "name": "pendingReward",
      "outputs": [
        {
          "internalType": "uint256",
          "name": "",
          "type": "uint256"
        }
      ],
      "stateMutability": "view",
      "type": "function"
    },
    {
      "inputs": [
        {
          "internalType": "address",
          "name": "",
          "type": "address"
        }
      ],
      "name": "pendingUnstakes",
      "outputs": [
        {
          "internalType": "uint256",
          "name": "",
          "type": "uint256"
        }
      ],
      "stateMutability": "view",
      "type": "function"
    },
    {
      "inputs": [
        {
          "internalType": "uint256",
          "name": "amount",
          "type": "uint256"
        }
      ],
      "name": "requestUnstake",
      "outputs": [],
      "stateMutability": "nonpayable",
      "type": "function"
    },
    {
      "inputs": [
        {
          "internalType": "address",
          "name": "",
          "type": "address"
        }
      ],
      "name": "rewardDebt",
      "outputs": [
        {
          "internalType": "uint256",
          "name": "",
          "type": "uint256"
        }
      ],
      "stateMutability": "view",
      "type": "function"
    },
    {
      "inputs": [],
      "name": "rewardRate",
      "outputs": [
        {
          "internalType": "uint256",
          "name": "",
          "type": "uint256"
        }
      ],
      "stateMutability": "view",
      "type": "function"
    },
    {
      "inputs": [
        {
          "internalType": "address",
          "name": "_factoryAddress",
          "type": "address"
        }
      ],
      "name": "setFactoryAddress",
      "outputs": [],
      "stateMutability": "nonpayable",
      "type": "function"
    },
    {
      "inputs": [],
      "name": "stake",
      "outputs": [],
      "stateMutability": "payable",
      "type": "function"
    },
    {
      "inputs": [
        {
          "internalType": "address",
          "name": "",
          "type": "address"
        }
      ],
      "name": "stakes",
      "outputs": [
        {
          "internalType": "uint256",
          "name": "",
          "type": "uint256"
        }
      ],
      "stateMutability": "view",
      "type": "function"
    },
    {
      "inputs": [],
      "name": "totalFundsNeeded",
      "outputs": [
        {
          "internalType": "uint256",
          "name": "",
          "type": "uint256"
        }
      ],
      "stateMutability": "view",
      "type": "function"
    },
    {
      "inputs": [],
      "name": "totalRewards",
      "outputs": [
        {
          "internalType": "uint256",
          "name": "",
          "type": "uint256"
        }
      ],
      "stateMutability": "view",
      "type": "function"
    },
    {
      "inputs": [],
      "name": "totalStaked",
      "outputs": [
        {
          "internalType": "uint256",
          "name": "",
          "type": "uint256"
        }
      ],
      "stateMutability": "view",
      "type": "function"
    },
    {
      "inputs": [
        {
          "internalType": "uint256",
          "name": "",
          "type": "uint256"
        }
      ],
      "name": "unstakeQueue",
      "outputs": [
        {
          "internalType": "address",
          "name": "user",
          "type": "address"
        },
        {
          "internalType": "uint256",
          "name": "amount",
          "type": "uint256"
        },
        {
          "internalType": "uint256",
          "name": "timestamp",
          "type": "uint256"
        }
      ],
      "stateMutability": "view",
      "type": "function"
    },
    {
      "inputs": [],
      "name": "weth",
      "outputs": [
        {
          "internalType": "address",
          "name": "",
          "type": "address"
        }
      ],
      "stateMutability": "view",
      "type": "function"
    },
    {
      "stateMutability": "payable",
      "type": "receive"
    }
  ],
  "bytecode": "0x60803461009b57601f6119be38819003918201601f19168301916001600160401b038311848410176100a057808492604094855283398101031261009b57610052602061004b836100b6565b92016100b6565b90600160005560018060a01b0319913383600654161760065542600a5560018060a01b03809216836005541617600555169060045416176004556040516118f390816100cb8239f35b600080fd5b634e487b7160e01b600052604160045260246000fd5b51906001600160a01b038216820361009b5756fe608060408181526004918236101561001f575b505050361561001d57005b005b600090813560e01c9081630917e776146112b8575080630e15561a1461029457806314d6aed01461110e57806316934fc4146106255780632309572114610d28578063372500ab14610a975780633a4b66f1146106fc5780633bac9c99146106dd5780633fc8cef3146106b55780635873eb9b1461067c5780635dbdda691461065e5780637a766460146106255780637b0a47ee14610606578063817b1cd2146105e757806383c17c551461054e5780638da5cb5b146105265780639231cf7414610507578063939d6237146104e8578063966dae0e146104c25780639b5ceb3514610421578063afa58070146103f8578063b8e347df146103db578063bc6738cb146103b9578063c4ebe08814610391578063d6b6b23f14610354578063ddb59e13146102b3578063e627f2db14610294578063f3385ace146102715763f40f0f5203610012573461026e57602036600319011261026e578235906001600160a01b03821680920361026e57600954600a5480421180610263575b6101da575b6020856101d386828764e8d4a510006101c38985845260018952848420546113c1565b0492815260028652205490611371565b9051908152f35b6101e76101f09142611371565b600b54906113c1565b60085480821161025b575b5064e8d4a510009081810291818304149015171561024857602095509164e8d4a510006101c361023d87946102376101d39897600754906113a1565b90611394565b9350505091926101a0565b602483601188634e487b7160e01b835252fd5b9050386101fb565b50600754151561019b565b80fd5b509034610290578160031936011261029057602090600d549051908152f35b5080fd5b5090346102905781600319360112610290576020906008549051908152f35b5082903461026e57602036600319011261026e5750803590600c5482101561031157506102df906112d4565b508054600182015460029092015492516001600160a01b03909116815260208101919091526040810191909152606090f35b606490602084519162461bcd60e51b8352820152601360248201527f496e646578206f7574206f6620626f756e6473000000000000000000000000006044820152fd5b50913461038d57602036600319011261038d57356001600160a01b03811680910361038d57828291602094526003845220549051908152f35b8280fd5b503461026e578060031936011261026e576103aa6116f3565b6103b261140a565b6001815580f35b5090346102905781600319360112610290576020905166038d7ea4c680008152f35b5090346102905781600319360112610290576020906101d36113d4565b508234610290576020366003190112610290573590600c5482101561026e57506102df906112d4565b50913461038d57602036600319011261038d576001600160a01b03815416330361048057907f063d07ee72a7483b8e07ca09054bb686775c5c030f945dde3823a5257a0a93eb91815190358152426020820152a161047d61140a565b80f35b6020606492519162461bcd60e51b8352820152601760248201527f4f6e6c7920666163746f72792063616e206e6f746966790000000000000000006044820152fd5b503461026e578060031936011261026e57506001600160a01b0360209254169051908152f35b5090346102905781600319360112610290576020906009549051908152f35b509034610290578160031936011261029057602090600a549051908152f35b5090346102905781600319360112610290576020906001600160a01b03600654169051908152f35b5091903461038d57602036600319011261038d578135906001600160a01b038083168093036105e3576006541633036105a1575073ffffffffffffffffffffffffffffffffffffffff1982541617905580f35b5162461bcd60e51b8152602081840152601760248201527f43616c6c6572206973206e6f7420746865206f776e65720000000000000000006044820152606490fd5b8480fd5b5090346102905781600319360112610290576020906007549051908152f35b509034610290578160031936011261029057602090600b549051908152f35b50913461038d57602036600319011261038d57356001600160a01b03811680910361038d57828291602094526001845220549051908152f35b5090346102905781600319360112610290576020905162093a808152f35b50913461038d57602036600319011261038d57356001600160a01b03811680910361038d57828291602094526002845220549051908152f35b5090346102905781600319360112610290576020906001600160a01b03600554169051908152f35b509034610290578160031936011261029057602090600c549051908152f35b5091908260031936011261038d576107126116f3565b66038d7ea4c680003410610a5457610728611675565b6001600160a01b0391838360055416803b1561029057818391855192838092630d0e30db60e41b825234905af18015610a4a57610a36575b50506046340234810460461434151715610a235760649004926107838434611371565b50806005541681835416845180927fa9059cbb0000000000000000000000000000000000000000000000000000000082528189816107dd60209b8c978b8401602090939291936001600160a01b0360408201951681520152565b03925af1908115610a195786916109df575b501561099d57849033825260018552838220548061088a575b82867febedb8b3c678666e7f36970bc8f57abf6d8fa2e828c0da91ea5b75bf68ed101a8733845260018352808420610841348254611394565b905561084f34600754611394565b6007553384526001835264e8d4a5100061086f82862054600954906113c1565b04338552600284528185205551913483523392a26001815580f35b64e8d4a510006108a06108b292600954906113c1565b04338452600287528584205490611371565b9283159182156108c3575b50610808565b6005541690813b156109995784602485928389519586948593632e1a7d4d60e01b85528401525af1801561098f5790839161097b575b50839091610971575b8280929181923390f11561096757907febedb8b3c678666e7f36970bc8f57abf6d8fa2e828c0da91ea5b75bf68ed101a9181519081527f106f923f993c2149d49b4255ff723acafa1f2d94393f561d3eda32ae348f7241843392a290833880806108bd565b81513d85823e3d90fd5b6108fc9150610902565b61098490611325565b6102905781386108f9565b85513d85823e3d90fd5b8380fd5b5082606492519162461bcd60e51b8352820152601e60248201527f4661696c656420746f2073656e64205745544820746f20666163746f727900006044820152fd5b90508481813d8311610a12575b6109f6818361134f565b81010312610a0e57518015158103610a0e57386107ef565b8580fd5b503d6109ec565b84513d88823e3d90fd5b602485601184634e487b7160e01b835252fd5b610a3f90611325565b610999578338610760565b84513d84823e3d90fd5b906020606492519162461bcd60e51b8352820152601f60248201527f506c65617365207374616b65206174206c6561737420302e30303120455448006044820152fd5b5091903461038d578260031936011261038d57610ab26116f3565b610aba611675565b33835260209060018252808420548015610cc057610ae164e8d4a5100091600954906113c1565b049233855260028352610af78286205485611371565b938415610c7e57600854858110610c3c5785610b1291611371565b6008553386526002845282862055846001600160a01b0360055416803b15610290578180916024865180948193632e1a7d4d60e01b83528b898401525af18015610a4a57610c28575b5080808087335af13d15610c23573d67ffffffffffffffff8111610c1057835190610b8f601f8201601f191687018361134f565b815286853d92013e5b15610bcf5750907f106f923f993c2149d49b4255ff723acafa1f2d94393f561d3eda32ae348f724191519283523392a26001815580f35b82606492519162461bcd60e51b8352820152601260248201527f4661696c656420746f2073656e642045544800000000000000000000000000006044820152fd5b602487604185634e487b7160e01b835252fd5b610b98565b610c3190611325565b6105e3578438610b5b565b6064838686519162461bcd60e51b8352820152601a60248201527f4e6f7420656e6f756768207265776172647320696e20706f6f6c0000000000006044820152fd5b5082606492519162461bcd60e51b8352820152601360248201527f4e6f207265776172647320746f20636c61696d000000000000000000000000006044820152fd5b5060849350519162461bcd60e51b8352820152602560248201527f4e6f207374616b656420616d6f756e7420746f20636c61696d2072657761726460448201527f7320666f720000000000000000000000000000000000000000000000000000006064820152fd5b509034610290576020908160031936011261038d57833591610d486116f3565b66038d7ea4c6800083106110cc57610d5e611675565b3384526001815282828520541061108a576001600160a01b038060055416835183816024816370a0823160e01b95868252308d8301525afa90811561104f57879161105d575b50858110610dfc5750505082939450610dde7f57e41df54512c76148b5ba9b643d149752b0d35e493b969bd017d0a3fe5228cf933361172e565b33855260038152818520549082519485528401523392a26001815580f35b610e069086611371565b82885416803b156110595785517fbe5ef17600000000000000000000000000000000000000000000000000000000815230818b019081526020810193909352918891839182908490829060400103925af1801561104f5790879161103b575b50508282600554169160248651809481938252308c8301525afa908115610a19579085918791611005575b5010610ecb575082939450610ec67f57e41df54512c76148b5ba9b643d149752b0d35e493b969bd017d0a3fe5228cf933361172e565b610dde565b33855260038252828520610ee0858254611394565b90558251906060820182811067ffffffffffffffff821117610ff057845233825282820185815284830191428352600c5468010000000000000000811015610fdd57806001610f329201600c556112d4565b949094610fcb577f57e41df54512c76148b5ba9b643d149752b0d35e493b969bd017d0a3fe5228cf97989950906002939291511673ffffffffffffffffffffffffffffffffffffffff1985541617845551600184015551910155815184815242828201527ff24ceb8901eaecb633a833076ec1a09f317122e81bd3bc200d811e0c9bb08146833392a2610ec6610fc66113d4565b611830565b602489808c634e487b7160e01b825252fd5b60248960418c634e487b7160e01b835252fd5b604188634e487b7160e01b6000525260246000fd5b809250848092503d8311611034575b61101e818361134f565b8101031261102f5784905138610e90565b600080fd5b503d611014565b61104490611325565b610a0e578538610e65565b85513d89823e3d90fd5b8780fd5b90508381813d8311611083575b611074818361134f565b8101031261102f575138610da4565b503d61106a565b8490606492519162461bcd60e51b8352820152601b60248201527f496e73756666696369656e74207374616b65642062616c616e636500000000006044820152fd5b8490606492519162461bcd60e51b8352820152601660248201527f556e7374616b6520616d6f756e7420746f6f206c6f77000000000000000000006044820152fd5b50918260031936011261038d576001600160a01b038060065416331480156112af575b80156112a3575b1561126057341561121d57839061114d611675565b60055416803b1561029057835192838092630d0e30db60e41b825234905af18015611211576111db575b5060207ff8fad42e780bfa5459be3fe691e8ba1aec70342250112139c5771c3fd155f312916111cc62093a80806111b0600a5442611371565b0690806111bf34600854611394565b92836008550491046113c1565b600b5542600a5551348152a180f35b7ff8fad42e780bfa5459be3fe691e8ba1aec70342250112139c5771c3fd155f3129192611209602092611325565b929150611177565b505051903d90823e3d90fd5b506020606492519162461bcd60e51b8352820152601160248201527f4e6f207265776172647320746f206164640000000000000000000000000000006044820152fd5b506020606492519162461bcd60e51b8352820152601860248201527f43616c6c6572206973206e6f7420617574686f72697a656400000000000000006044820152fd5b50808254163314611138565b50303314611131565b9050346102905781600319360112610290576020906007548152f35b600c5481101561130f57600390600c600052027fdf6966c971051c3d54ec59162606531493a51404a002842f56009d7e5cf4a8c70190600090565b634e487b7160e01b600052603260045260246000fd5b67ffffffffffffffff811161133957604052565b634e487b7160e01b600052604160045260246000fd5b90601f8019910116810190811067ffffffffffffffff82111761133957604052565b9190820391821161137e57565b634e487b7160e01b600052601160045260246000fd5b9190820180921161137e57565b81156113ab570490565b634e487b7160e01b600052601260045260246000fd5b8181029291811591840414171561137e57565b600080600c545b8082106113e757505090565b9091611402600191826113f9866112d4565b50015490611394565b9201906113db565b6001600160a01b038060055416604051809381936370a0823160e01b83526004933085850152602095869160249889915afa9283156116695760009361163a575b507f264b03945932e4bc51e688f9f27dbb1f5faba7660d11abdbf7e7f41ed87928ba8584604051908152a160009283925b600c918254851080611631575b156115eb57611497856112d4565b50600180820180549193929091908184106115af576114c5939291886114be92541661172e565b5490611371565b9280546000199081810190811161159b576114df906112d4565b506114e9886112d4565b91909161158857808203611550575b50508154801561153c57019161150d836112d4565b919091611529578160006002928180955582015501555561147c565b8b60008b634e487b7160e01b8252526000fd5b8b60318b634e487b7160e01b600052526000fd5b8781541673ffffffffffffffffffffffffffffffffffffffff19835416178255848101548583015560028091015491015538806114f8565b8c60008c634e487b7160e01b8252526000fd5b8b60118b634e487b7160e01b600052526000fd5b508295506102379150916115c69394979892611371565b9460001981146115d757019261147c565b88601188634e487b7160e01b600052526000fd5b509650505050919050816115fd575050565b816116287fd5e85995d9bdcdafb72531ec59faef29167c16780583ca2068587fe896170c4793611830565b604051908152a1565b50801515611489565b9092508481813d8311611662575b611652818361134f565b8101031261102f5751913861144b565b503d611648565b6040513d6000823e3d90fd5b600a544211156116f15760075480156116ea576116976101e7600a5442611371565b6008548082116116e2575b64e8d4a510009283830293838504148315171561137e576116c96116d1916116d9956113a1565b600954611394565b600955611371565b60085542600a55565b9050806116a2565b5042600a55565b565b600260005414611704576002600055565b60046040517f3ee5aeb5000000000000000000000000000000000000000000000000000000008152fd5b90600554916000926001600160a01b0380911691823b156105e35784806040946024865180948193632e1a7d4d60e01b83528a60048401525af18015610a195761181d575b501692808385828215611814575b839283928392f115611809579160209183857f85082129d87b2fe11527cb1b3b7a520aeb5aa6913f88a3d8757fe40d1db02fdd9552600184528181206117c8848254611371565b90556117d683600754611371565b600755858152600184528164e8d4a510006117f782842054600954906113c1565b049187815260028652205551908152a2565b9051903d90823e3d90fd5b506108fc611781565b61182990959195611325565b9338611773565b7fac0a36a73050720c3fa0d6988cca2309ef4472b3b09fafa8e713f434ff33a05b6020604051838152a16001600160a01b036004541690813b1561102f576000916024839260405194859384927f8c3a65a200000000000000000000000000000000000000000000000000000000845260048401525af18015611669576118b45750565b6116f19061132556fea2646970667358221220cf9f411927824568d87a48a9292d42321dbe812fdaf141f72f0290d5e7e2651e64736f6c63430008180033",
  "linkReferences": {},
  "deployedLinkReferences": {}
}