{"contracts/Distributor.sol":{"RewardDistributor":{"abi":[{"inputs":[],"stateMutability":"nonpayable","type":"constructor"},{"inputs":[{"internalType":"address[]","name":"_holders","type":"address[]"},{"internalType":"uint256[]","name":"_balances","type":"uint256[]"}],"name":"distributeRewards","outputs":[],"stateMutability":"payable","type":"function"},{"inputs":[],"name":"owner","outputs":[{"internalType":"address","name":"","type":"address"}],"stateMutability":"view","type":"function"},{"inputs":[],"name":"totalSupply","outputs":[{"internalType":"uint256","name":"","type":"uint256"}],"stateMutability":"view","type":"function"},{"stateMutability":"payable","type":"receive"}],"evm":{"bytecode":{"linkReferences":{},"object":"6080806040523461002857600080546001600160a01b0319163317905561031f908161002e8239f35b600080fdfe608060408160405260049081361015610023575b505050361561002157600080fd5b005b600092833560e01c928363143ba4f3146100b257505050806318160ddd1461008b57638da5cb5b14610056578080610013565b3461008857806003193601126100885773ffffffffffffffffffffffffffffffffffffffff6020915416604051908152f35b80fd5b503461008857806003193601126100885760206040516b033b2e3c9fd0803ce80000008152f35b84935060403660031901126102085767ffffffffffffffff928135848111610289576100e1903690840161028d565b602495602435908111610285576100fb903690860161028d565b9586830361021e575094879697903415915b838110610118578880f35b61012381838a6102c3565b35803402903482041484171561020c57986b033b2e3c9fd0803ce8000000819b9a0480158015610177575b50505060001981146101655760010198979861010d565b888a601189634e487b7160e01b835252fd5b61018284888a6102c3565b359073ffffffffffffffffffffffffffffffffffffffff82168092036102085783928392839283906101ff575bf1156101bd57898b8061014e565b606487600f8b60208a519362461bcd60e51b85528401528201527f5472616e73666572206661696c656400000000000000000000000000000000006044820152fd5b506108fc6101af565b8380fd5b8a8a60118a634e487b7160e01b835252fd5b8060208762461bcd60e51b60849452820152602560248201527f4d69736d61746368206265747765656e20686f6c6465727320616e642062616c60448201527f616e6365730000000000000000000000000000000000000000000000000000006064820152fd5b8780fd5b8580fd5b9181601f840112156102be5782359167ffffffffffffffff83116102be576020808501948460051b0101116102be57565b600080fd5b91908110156102d35760051b0190565b634e487b7160e01b600052603260045260246000fdfea2646970667358221220df103de7af3b1bd88b6a724ca8320b0e17898caa9183b85bdfcb4faef7fbab9f64736f6c63430008180033","opcodes":"PUSH1 0x80 DUP1 PUSH1 0x40 MSTORE CALLVALUE PUSH2 0x28 JUMPI PUSH1 0x0 DUP1 SLOAD PUSH1 0x1 PUSH1 0x1 PUSH1 0xA0 SHL SUB NOT AND CALLER OR SWAP1 SSTORE PUSH2 0x31F SWAP1 DUP2 PUSH2 0x2E DUP3 CODECOPY RETURN JUMPDEST PUSH1 0x0 DUP1 REVERT INVALID PUSH1 0x80 PUSH1 0x40 DUP2 PUSH1 0x40 MSTORE PUSH1 0x4 SWAP1 DUP2 CALLDATASIZE LT ISZERO PUSH2 0x23 JUMPI JUMPDEST POP POP POP CALLDATASIZE ISZERO PUSH2 0x21 JUMPI PUSH1 0x0 DUP1 REVERT JUMPDEST STOP JUMPDEST PUSH1 0x0 SWAP3 DUP4 CALLDATALOAD PUSH1 0xE0 SHR SWAP3 DUP4 PUSH4 0x143BA4F3 EQ PUSH2 0xB2 JUMPI POP POP POP DUP1 PUSH4 0x18160DDD EQ PUSH2 0x8B JUMPI PUSH4 0x8DA5CB5B EQ PUSH2 0x56 JUMPI DUP1 DUP1 PUSH2 0x13 JUMP JUMPDEST CALLVALUE PUSH2 0x88 JUMPI DUP1 PUSH1 0x3 NOT CALLDATASIZE ADD SLT PUSH2 0x88 JUMPI PUSH20 0xFFFFFFFFFFFFFFFFFFFFFFFFFFFFFFFFFFFFFFFF PUSH1 0x20 SWAP2 SLOAD AND PUSH1 0x40 MLOAD SWAP1 DUP2 MSTORE RETURN JUMPDEST DUP1 REVERT JUMPDEST POP CALLVALUE PUSH2 0x88 JUMPI DUP1 PUSH1 0x3 NOT CALLDATASIZE ADD SLT PUSH2 0x88 JUMPI PUSH1 0x20 PUSH1 0x40 MLOAD PUSH12 0x33B2E3C9FD0803CE8000000 DUP2 MSTORE RETURN JUMPDEST DUP5 SWAP4 POP PUSH1 0x40 CALLDATASIZE PUSH1 0x3 NOT ADD SLT PUSH2 0x208 JUMPI PUSH8 0xFFFFFFFFFFFFFFFF SWAP3 DUP2 CALLDATALOAD DUP5 DUP2 GT PUSH2 0x289 JUMPI PUSH2 0xE1 SWAP1 CALLDATASIZE SWAP1 DUP5 ADD PUSH2 0x28D JUMP JUMPDEST PUSH1 0x24 SWAP6 PUSH1 0x24 CALLDATALOAD SWAP1 DUP2 GT PUSH2 0x285 JUMPI PUSH2 0xFB SWAP1 CALLDATASIZE SWAP1 DUP7 ADD PUSH2 0x28D JUMP JUMPDEST SWAP6 DUP7 DUP4 SUB PUSH2 0x21E JUMPI POP SWAP5 DUP8 SWAP7 SWAP8 SWAP1 CALLVALUE ISZERO SWAP2 JUMPDEST DUP4 DUP2 LT PUSH2 0x118 JUMPI DUP9 DUP1 RETURN JUMPDEST PUSH2 0x123 DUP2 DUP4 DUP11 PUSH2 0x2C3 JUMP JUMPDEST CALLDATALOAD DUP1 CALLVALUE MUL SWAP1 CALLVALUE DUP3 DIV EQ DUP5 OR ISZERO PUSH2 0x20C JUMPI SWAP9 PUSH12 0x33B2E3C9FD0803CE8000000 DUP2 SWAP12 SWAP11 DIV DUP1 ISZERO DUP1 ISZERO PUSH2 0x177 JUMPI JUMPDEST POP POP POP PUSH1 0x0 NOT DUP2 EQ PUSH2 0x165 JUMPI PUSH1 0x1 ADD SWAP9 SWAP8 SWAP9 PUSH2 0x10D JUMP JUMPDEST DUP9 DUP11 PUSH1 0x11 DUP10 PUSH4 0x4E487B71 PUSH1 0xE0 SHL DUP4 MSTORE MSTORE REVERT JUMPDEST PUSH2 0x182 DUP5 DUP9 DUP11 PUSH2 0x2C3 JUMP JUMPDEST CALLDATALOAD SWAP1 PUSH20 0xFFFFFFFFFFFFFFFFFFFFFFFFFFFFFFFFFFFFFFFF DUP3 AND DUP1 SWAP3 SUB PUSH2 0x208 JUMPI DUP4 SWAP3 DUP4 SWAP3 DUP4 SWAP3 DUP4 SWAP1 PUSH2 0x1FF JUMPI JUMPDEST CALL ISZERO PUSH2 0x1BD JUMPI DUP10 DUP12 DUP1 PUSH2 0x14E JUMP JUMPDEST PUSH1 0x64 DUP8 PUSH1 0xF DUP12 PUSH1 0x20 DUP11 MLOAD SWAP4 PUSH3 0x461BCD PUSH1 0xE5 SHL DUP6 MSTORE DUP5 ADD MSTORE DUP3 ADD MSTORE PUSH32 0x5472616E73666572206661696C65640000000000000000000000000000000000 PUSH1 0x44 DUP3 ADD MSTORE REVERT JUMPDEST POP PUSH2 0x8FC PUSH2 0x1AF JUMP JUMPDEST DUP4 DUP1 REVERT JUMPDEST DUP11 DUP11 PUSH1 0x11 DUP11 PUSH4 0x4E487B71 PUSH1 0xE0 SHL DUP4 MSTORE MSTORE REVERT JUMPDEST DUP1 PUSH1 0x20 DUP8 PUSH3 0x461BCD PUSH1 0xE5 SHL PUSH1 0x84 SWAP5 MSTORE DUP3 ADD MSTORE PUSH1 0x25 PUSH1 0x24 DUP3 ADD MSTORE PUSH32 0x4D69736D61746368206265747765656E20686F6C6465727320616E642062616C PUSH1 0x44 DUP3 ADD MSTORE PUSH32 0x616E636573000000000000000000000000000000000000000000000000000000 PUSH1 0x64 DUP3 ADD MSTORE REVERT JUMPDEST DUP8 DUP1 REVERT JUMPDEST DUP6 DUP1 REVERT JUMPDEST SWAP2 DUP2 PUSH1 0x1F DUP5 ADD SLT ISZERO PUSH2 0x2BE JUMPI DUP3 CALLDATALOAD SWAP2 PUSH8 0xFFFFFFFFFFFFFFFF DUP4 GT PUSH2 0x2BE JUMPI PUSH1 0x20 DUP1 DUP6 ADD SWAP5 DUP5 PUSH1 0x5 SHL ADD ADD GT PUSH2 0x2BE JUMPI JUMP JUMPDEST PUSH1 0x0 DUP1 REVERT JUMPDEST SWAP2 SWAP1 DUP2 LT ISZERO PUSH2 0x2D3 JUMPI PUSH1 0x5 SHL ADD SWAP1 JUMP JUMPDEST PUSH4 0x4E487B71 PUSH1 0xE0 SHL PUSH1 0x0 MSTORE PUSH1 0x32 PUSH1 0x4 MSTORE PUSH1 0x24 PUSH1 0x0 REVERT INVALID LOG2 PUSH5 0x6970667358 0x22 SLT KECCAK256 0xDF LT RETURNDATASIZE 0xE7 0xAF EXTCODESIZE SHL 0xD8 DUP12 PUSH11 0x724CA8320B0E17898CAA91 DUP4 0xB8 JUMPDEST 0xDF 0xCB 0x4F 0xAE 0xF7 0xFB 0xAB SWAP16 PUSH5 0x736F6C6343 STOP ADDMOD XOR STOP CALLER "},"methodIdentifiers":{"distributeRewards(address[],uint256[])":"143ba4f3","owner()":"8da5cb5b","totalSupply()":"18160ddd"}}}}}