{"contracts/FactoryExtra.sol":{"FactoryHelper":{"abi":[{"inputs":[{"internalType":"address","name":"_factoryAddress","type":"address"},{"internalType":"address","name":"_positionManager","type":"address"},{"internalType":"address","name":"_weth","type":"address"},{"internalType":"address","name":"_uniswapFactory","type":"address"},{"internalType":"address","name":"_swapRouter","type":"address"},{"internalType":"address","name":"_lockerAddress","type":"address"},{"internalType":"address","name":"_teamWallet","type":"address"},{"internalType":"address","name":"_quoterAddress","type":"address"}],"stateMutability":"nonpayable","type":"constructor"},{"anonymous":false,"inputs":[{"indexed":true,"internalType":"address","name":"token","type":"address"},{"indexed":false,"internalType":"uint256","name":"tokenId","type":"uint256"},{"indexed":false,"internalType":"string","name":"eventType","type":"string"},{"indexed":false,"internalType":"uint256","name":"amount0","type":"uint256"},{"indexed":false,"internalType":"uint256","name":"amount1","type":"uint256"}],"name":"LiquidityEvent","type":"event"},{"anonymous":false,"inputs":[{"indexed":false,"internalType":"uint256","name":"amountOut","type":"uint256"}],"name":"TokensSwapped","type":"event"},{"inputs":[{"internalType":"address","name":"token0","type":"address"},{"internalType":"address","name":"token1","type":"address"},{"internalType":"uint160","name":"sqrtPriceX96","type":"uint160"}],"name":"createAndInitializePoolIfNecessary","outputs":[{"internalType":"address","name":"pool","type":"address"}],"stateMutability":"nonpayable","type":"function"},{"inputs":[],"name":"deadAddress","outputs":[{"internalType":"address","name":"","type":"address"}],"stateMutability":"view","type":"function"},{"inputs":[{"internalType":"address","name":"tokenIn","type":"address"},{"internalType":"address","name":"tokenOut","type":"address"},{"internalType":"uint256","name":"amountIn","type":"uint256"},{"internalType":"uint256","name":"amountOutMinimum","type":"uint256"},{"internalType":"address","name":"recipient","type":"address"}],"name":"executeSwap","outputs":[{"internalType":"uint256","name":"amountOut","type":"uint256"}],"stateMutability":"nonpayable","type":"function"},{"inputs":[],"name":"factoryAddress","outputs":[{"internalType":"address","name":"","type":"address"}],"stateMutability":"view","type":"function"},{"inputs":[],"name":"factoryHelper","outputs":[{"internalType":"contract FactoryHelper","name":"","type":"address"}],"stateMutability":"view","type":"function"},{"inputs":[{"internalType":"address","name":"poolAddress","type":"address"},{"internalType":"uint32","name":"twapInterval","type":"uint32"}],"name":"getTWAPPrice","outputs":[{"internalType":"uint256","name":"price","type":"uint256"}],"stateMutability":"view","type":"function"},{"inputs":[],"name":"locker","outputs":[{"internalType":"contract ILiquidityLocker","name":"","type":"address"}],"stateMutability":"view","type":"function"},{"inputs":[],"name":"lockerAddress","outputs":[{"internalType":"address","name":"","type":"address"}],"stateMutability":"view","type":"function"},{"inputs":[],"name":"nftAddress","outputs":[{"internalType":"address","name":"","type":"address"}],"stateMutability":"view","type":"function"},{"inputs":[],"name":"owner","outputs":[{"internalType":"address","name":"","type":"address"}],"stateMutability":"view","type":"function"},{"inputs":[],"name":"positionManager","outputs":[{"internalType":"contract INonfungiblePositionManager","name":"","type":"address"}],"stateMutability":"view","type":"function"},{"inputs":[],"name":"quoter","outputs":[{"internalType":"contract IQuoterV2","name":"","type":"address"}],"stateMutability":"view","type":"function"},{"inputs":[{"internalType":"uint256","name":"tokenId","type":"uint256"},{"internalType":"uint128","name":"liquidityToRemove","type":"uint128"}],"name":"removeLiquidity","outputs":[{"internalType":"uint256","name":"","type":"uint256"},{"internalType":"uint256","name":"","type":"uint256"}],"stateMutability":"nonpayable","type":"function"},{"inputs":[],"name":"swapRouter","outputs":[{"internalType":"contract ISwapRouter","name":"","type":"address"}],"stateMutability":"view","type":"function"},{"inputs":[],"name":"teamWallet","outputs":[{"internalType":"address","name":"","type":"address"}],"stateMutability":"view","type":"function"},{"inputs":[],"name":"uniswapFactory","outputs":[{"internalType":"contract IUniswapV3Factory","name":"","type":"address"}],"stateMutability":"view","type":"function"},{"inputs":[],"name":"weth","outputs":[{"internalType":"address","name":"","type":"address"}],"stateMutability":"view","type":"function"}],"evm":{"bytecode":{"linkReferences":{},"object":"6080346200015e57601f6200121d38819003918201601f19168301916001600160401b038311848410176200016357808492610100946040528339810103126200015e576200004e8162000179565b906200005d6020820162000179565b916200006c6040830162000179565b6200007a6060840162000179565b620000886080850162000179565b916200009760a0860162000179565b94620000b460e0620000ac60c0840162000179565b920162000179565b9260018060a01b031997889361dead85600154161760015560018060a01b03809981809981988280809816988983600254161760025516906003541617600355168c60045416176004551692838b60075416176007558a600a541617600a55168860005416176000553388600854161760085587600b541617600b551685600c541617600c55168360055416176005551690600954161760095560405161108e90816200018f8239f35b600080fd5b634e487b7160e01b600052604160045260246000fd5b51906001600160a01b03821682036200015e5756fe608080604052600436101561001357600080fd5b60003560e01c90816327c8f83514610f2c575080633675f29b14610f055780633fc8cef314610ede57806351246d6e14610df75780635992704414610dd05780635bf8633a14610da957806373d84e4214610c37578063791b98bc14610c105780638bdb2afa14610be95780638be32a41146103bf5780638da5cb5b14610398578063911757ba146101a2578063966dae0e1461017b578063c31c9c0714610154578063c6bbd5a71461012d578063d7b96d4e146101065763fd53f53b146100da57600080fd5b346101015760003660031901126101015760206001600160a01b0360065416604051908152f35b600080fd5b346101015760003660031901126101015760206001600160a01b0360075416604051908152f35b346101015760003660031901126101015760206001600160a01b0360055416604051908152f35b346101015760003660031901126101015760206001600160a01b0360045416604051908152f35b346101015760003660031901126101015760206001600160a01b0360095416604051908152f35b34610101576040366003190112610101576004356024356fffffffffffffffffffffffffffffffff808216809203610101576001600160a01b03928360025416926040519060a082019067ffffffffffffffff9583831087841117610364578593600060a4926040958652878352602083019485528583018281526060840183815260808501914283528851998a9889977f0c49ccbe000000000000000000000000000000000000000000000000000000008952516004890152511660248701525160448601525160648501525160848401525af180156103585761037a575b506002546040519085169360808201908111828210176103645760409460849360009287528352602083019433865286840181815281606086019181835289519a8b998a987ffc6f7865000000000000000000000000000000000000000000000000000000008a525160048a01525116602488015251166044860152511660648401525af190811561035857604091600091600091610329575b5082519182526020820152f35b905061034b9150823d8411610351575b6103438183610f7c565b810190611042565b8361031c565b503d610339565b6040513d6000823e3d90fd5b634e487b7160e01b600052604160045260246000fd5b6103929060403d604011610351576103438183610f7c565b50610282565b346101015760003660031901126101015760206001600160a01b0360085416604051908152f35b34610101576040366003190112610101576103d8610f50565b6024359063ffffffff82168203610101576060518015610a795763ffffffff831660805260011015610a7957600060a052604051907f883bdbfd000000000000000000000000000000000000000000000000000000008252816024810160206004830152606051809152604482019060809060005b818110610bca5750505091816001600160a01b03816000950392165afa90811561035857600091610a8f575b50805160011015610a7957604081015190805115610a79576020015160060b9060060b03667fffffffffffff1991667fffffffffffff82138383121761066d5763ffffffff1660030b9060060b8115610699576000199281148284141661066d570560020b906000821215610a73577f8000000000000000000000000000000000000000000000000000000000000000821461066d5781600003915b620d89e88311610a155760018316156109ec5770ffffffffffffffffffffffffffffffffff6ffffcb933bd6fad37aa2d162d1a5940015b1692600281166109c0575b60048116610994575b60088116610968575b6010811661093c575b60208116610910575b604081166108e4575b608081166108b8575b610100811661088c575b6102008116610860575b6104008116610834575b6108008116610808575b61100081166107dc575b61200081166107b0575b6140008116610784575b6180008116610758575b62010000811661072c575b620200008116610701575b6204000081166106d7575b62080000166106af575b60001261068c575b5063ffffffff8160201c9116156000146106835760ff60005b16810180911161066d576001600160a01b036106459116610fb6565b670de0b6b3a76400009081810291818304149015171561066d576020906040519060c01c8152f35b634e487b7160e01b600052601160045260246000fd5b60ff6001610629565b8115610699570481610610565b634e487b7160e01b600052601260045260246000fd5b916b048a170391f7dc42444e8fa29081810291818304149015171561066d5760801c91610608565b926d2216e584f5fa1ea926041bedfe989081810291818304149015171561066d5760801c926105fe565b926e5d6af8dedb81196699c329225ee6049081810291818304149015171561066d5760801c926105f3565b926f09aa508b5b7a84e1c677de54f3e99bc99081810291818304149015171561066d5760801c926105e8565b926f31be135f97d08fd981231505542fcfa69081810291818304149015171561066d5760801c926105dd565b926f70d869a156d2a1b890bb3df62baf32f79081810291818304149015171561066d5760801c926105d3565b926fa9f746462d870fdf8a65dc1f90e061e59081810291818304149015171561066d5760801c926105c9565b926fd097f3bdfd2022b8845ad8f792aa58259081810291818304149015171561066d5760801c926105bf565b926fe7159475a2c29b7443b29c7fa6e889d99081810291818304149015171561066d5760801c926105b5565b926ff3392b0822b70005940c7a398e4b70f39081810291818304149015171561066d5760801c926105ab565b926ff987a7253ac413176f2b074cf7815e549081810291818304149015171561066d5760801c926105a1565b926ffcbe86c7900a88aedcffc83b479aa3a49081810291818304149015171561066d5760801c92610597565b926ffe5dee046a99a2a811c461f1969c30539081810291818304149015171561066d5760801c9261058d565b926fff2ea16466c96a3843ec78b326b528619081810291818304149015171561066d5760801c92610584565b926fff973b41fa98c081472e6896dfb254c09081810291818304149015171561066d5760801c9261057b565b926fffcb9843d60f6159c9db58835c9266449081810291818304149015171561066d5760801c92610572565b926fffe5caca7e10e4e61c3624eaa0941cd09081810291818304149015171561066d5760801c92610569565b926ffff2e50f5f656932ef12357cf3c7fdcc9081810291818304149015171561066d5760801c92610560565b926ffff97272373d413259a46990580e213a9081810291818304149015171561066d5760801c92610557565b70ffffffffffffffffffffffffffffffffff70010000000000000000000000000000000061054c565b60646040517f08c379a000000000000000000000000000000000000000000000000000000000815260206004820152600160248201527f54000000000000000000000000000000000000000000000000000000000000006044820152fd5b81610515565b634e487b7160e01b600052603260045260246000fd5b90503d806000833e610aa18183610f7c565b60408282810103126101015781519167ffffffffffffffff831161010157818101601f848301011215610101578281015192610adc84610f9e565b93610aea6040519586610f7c565b808552602085019184840160208360051b8387010101116101015791602083850101925b60208360051b82870101018410610baa5750505050602081015167ffffffffffffffff8111610101578101828201601f8201121561010157805192602080610b5586610f9e565b610b626040519182610f7c565b868152019460051b8301019201821161010157602001915b818310610b8a5750505082610479565b82516001600160a01b038116810361010157815260209283019201610b7a565b8351918260060b8303610101576020818194829352019401939150610b0e565b825163ffffffff1684528694506020938401939092019160010161044d565b346101015760003660031901126101015760206001600160a01b0360035416604051908152f35b346101015760003660031901126101015760206001600160a01b0360025416604051908152f35b346101015760a036600319011261010157610c50610f50565b610c58610f66565b906084356001600160a01b0392838216809203610101576040519060e0820182811067ffffffffffffffff82111761036457859485916040521682526020948593818585019316835260408401906127108252606085019081526080850160443581528360a0870192606435845260c088019460008652828060045416986040519c8d9b7f04e45aaf000000000000000000000000000000000000000000000000000000008d52511660048c0152511660248a01525162ffffff166044890152511660648701525160848601525160a4850152511660c4830152815a60e492600091f190811561035857600091610d7c575b507fdb04c7a6d4758fd55d738ebc67e7f3010ac922be00771ef29521a4090d1eb13f82604051838152a1604051908152f35b90508181813d8311610da2575b610d938183610f7c565b81010312610101575182610d4a565b503d610d89565b346101015760003660031901126101015760206001600160a01b03600a5416604051908152f35b346101015760003660031901126101015760206001600160a01b03600c5416604051908152f35b3461010157606036600319011261010157610e10610f50565b610e18610f66565b6044356001600160a01b0392838216809203610101576084849160006020948460025416908560405198899788967f13ead562000000000000000000000000000000000000000000000000000000008852166004870152166024850152612710604485015260648401525af190811561035857600091610ea0575b5060209160405191168152f35b90506020813d602011610ed6575b81610ebb60209383610f7c565b81010312610101575190808216820361010157906020610e93565b3d9150610eae565b346101015760003660031901126101015760206001600160a01b0360005416604051908152f35b346101015760003660031901126101015760206001600160a01b03600b5416604051908152f35b34610101576000366003190112610101576020906001600160a01b03600154168152f35b600435906001600160a01b038216820361010157565b602435906001600160a01b038216820361010157565b90601f8019910116810190811067ffffffffffffffff82111761036457604052565b67ffffffffffffffff81116103645760051b60200190565b801561103c5780806001146110355760021461102f576001908161013382101682600b8310161761102757906002815b808211610ffe5750508160001904811161066d570290565b90928060001904811161066d5781841661101e575b800292811c90610fe6565b80920291611013565b600291500a90565b50600490565b5050600190565b50600090565b919082604091031261010157602082519201519056fea2646970667358221220dc2aef82078bcd06fdf26789e58f4bbf7fe640ffc5c33875d3485002d6b19fc064736f6c63430008180033","opcodes":"PUSH1 0x80 CALLVALUE PUSH3 0x15E JUMPI PUSH1 0x1F PUSH3 0x121D CODESIZE DUP2 SWAP1 SUB SWAP2 DUP3 ADD PUSH1 0x1F NOT AND DUP4 ADD SWAP2 PUSH1 0x1 PUSH1 0x1 PUSH1 0x40 SHL SUB DUP4 GT DUP5 DUP5 LT OR PUSH3 0x163 JUMPI DUP1 DUP5 SWAP3 PUSH2 0x100 SWAP5 PUSH1 0x40 MSTORE DUP4 CODECOPY DUP2 ADD SUB SLT PUSH3 0x15E JUMPI PUSH3 0x4E DUP2 PUSH3 0x179 JUMP JUMPDEST SWAP1 PUSH3 0x5D PUSH1 0x20 DUP3 ADD PUSH3 0x179 JUMP JUMPDEST SWAP2 PUSH3 0x6C PUSH1 0x40 DUP4 ADD PUSH3 0x179 JUMP JUMPDEST PUSH3 0x7A PUSH1 0x60 DUP5 ADD PUSH3 0x179 JUMP JUMPDEST PUSH3 0x88 PUSH1 0x80 DUP6 ADD PUSH3 0x179 JUMP JUMPDEST SWAP2 PUSH3 0x97 PUSH1 0xA0 DUP7 ADD PUSH3 0x179 JUMP JUMPDEST SWAP5 PUSH3 0xB4 PUSH1 0xE0 PUSH3 0xAC PUSH1 0xC0 DUP5 ADD PUSH3 0x179 JUMP JUMPDEST SWAP3 ADD PUSH3 0x179 JUMP JUMPDEST SWAP3 PUSH1 0x1 DUP1 PUSH1 0xA0 SHL SUB NOT SWAP8 DUP9 SWAP4 PUSH2 0xDEAD DUP6 PUSH1 0x1 SLOAD AND OR PUSH1 0x1 SSTORE PUSH1 0x1 DUP1 PUSH1 0xA0 SHL SUB DUP1 SWAP10 DUP2 DUP1 SWAP10 DUP2 SWAP9 DUP3 DUP1 DUP1 SWAP9 AND SWAP9 DUP10 DUP4 PUSH1 0x2 SLOAD AND OR PUSH1 0x2 SSTORE AND SWAP1 PUSH1 0x3 SLOAD AND OR PUSH1 0x3 SSTORE AND DUP13 PUSH1 0x4 SLOAD AND OR PUSH1 0x4 SSTORE AND SWAP3 DUP4 DUP12 PUSH1 0x7 SLOAD AND OR PUSH1 0x7 SSTORE DUP11 PUSH1 0xA SLOAD AND OR PUSH1 0xA SSTORE AND DUP9 PUSH1 0x0 SLOAD AND OR PUSH1 0x0 SSTORE CALLER DUP9 PUSH1 0x8 SLOAD AND OR PUSH1 0x8 SSTORE DUP8 PUSH1 0xB SLOAD AND OR PUSH1 0xB SSTORE AND DUP6 PUSH1 0xC SLOAD AND OR PUSH1 0xC SSTORE AND DUP4 PUSH1 0x5 SLOAD AND OR PUSH1 0x5 SSTORE AND SWAP1 PUSH1 0x9 SLOAD AND OR PUSH1 0x9 SSTORE PUSH1 0x40 MLOAD PUSH2 0x108E SWAP1 DUP2 PUSH3 0x18F DUP3 CODECOPY RETURN JUMPDEST PUSH1 0x0 DUP1 REVERT JUMPDEST PUSH4 0x4E487B71 PUSH1 0xE0 SHL PUSH1 0x0 MSTORE PUSH1 0x41 PUSH1 0x4 MSTORE PUSH1 0x24 PUSH1 0x0 REVERT JUMPDEST MLOAD SWAP1 PUSH1 0x1 PUSH1 0x1 PUSH1 0xA0 SHL SUB DUP3 AND DUP3 SUB PUSH3 0x15E JUMPI JUMP INVALID PUSH1 0x80 DUP1 PUSH1 0x40 MSTORE PUSH1 0x4 CALLDATASIZE LT ISZERO PUSH2 0x13 JUMPI PUSH1 0x0 DUP1 REVERT JUMPDEST PUSH1 0x0 CALLDATALOAD PUSH1 0xE0 SHR SWAP1 DUP2 PUSH4 0x27C8F835 EQ PUSH2 0xF2C JUMPI POP DUP1 PUSH4 0x3675F29B EQ PUSH2 0xF05 JUMPI DUP1 PUSH4 0x3FC8CEF3 EQ PUSH2 0xEDE JUMPI DUP1 PUSH4 0x51246D6E EQ PUSH2 0xDF7 JUMPI DUP1 PUSH4 0x59927044 EQ PUSH2 0xDD0 JUMPI DUP1 PUSH4 0x5BF8633A EQ PUSH2 0xDA9 JUMPI DUP1 PUSH4 0x73D84E42 EQ PUSH2 0xC37 JUMPI DUP1 PUSH4 0x791B98BC EQ PUSH2 0xC10 JUMPI DUP1 PUSH4 0x8BDB2AFA EQ PUSH2 0xBE9 JUMPI DUP1 PUSH4 0x8BE32A41 EQ PUSH2 0x3BF JUMPI DUP1 PUSH4 0x8DA5CB5B EQ PUSH2 0x398 JUMPI DUP1 PUSH4 0x911757BA EQ PUSH2 0x1A2 JUMPI DUP1 PUSH4 0x966DAE0E EQ PUSH2 0x17B JUMPI DUP1 PUSH4 0xC31C9C07 EQ PUSH2 0x154 JUMPI DUP1 PUSH4 0xC6BBD5A7 EQ PUSH2 0x12D JUMPI DUP1 PUSH4 0xD7B96D4E EQ PUSH2 0x106 JUMPI PUSH4 0xFD53F53B EQ PUSH2 0xDA JUMPI PUSH1 0x0 DUP1 REVERT JUMPDEST CALLVALUE PUSH2 0x101 JUMPI PUSH1 0x0 CALLDATASIZE PUSH1 0x3 NOT ADD SLT PUSH2 0x101 JUMPI PUSH1 0x20 PUSH1 0x1 PUSH1 0x1 PUSH1 0xA0 SHL SUB PUSH1 0x6 SLOAD AND PUSH1 0x40 MLOAD SWAP1 DUP2 MSTORE RETURN JUMPDEST PUSH1 0x0 DUP1 REVERT JUMPDEST CALLVALUE PUSH2 0x101 JUMPI PUSH1 0x0 CALLDATASIZE PUSH1 0x3 NOT ADD SLT PUSH2 0x101 JUMPI PUSH1 0x20 PUSH1 0x1 PUSH1 0x1 PUSH1 0xA0 SHL SUB PUSH1 0x7 SLOAD AND PUSH1 0x40 MLOAD SWAP1 DUP2 MSTORE RETURN JUMPDEST CALLVALUE PUSH2 0x101 JUMPI PUSH1 0x0 CALLDATASIZE PUSH1 0x3 NOT ADD SLT PUSH2 0x101 JUMPI PUSH1 0x20 PUSH1 0x1 PUSH1 0x1 PUSH1 0xA0 SHL SUB PUSH1 0x5 SLOAD AND PUSH1 0x40 MLOAD SWAP1 DUP2 MSTORE RETURN JUMPDEST CALLVALUE PUSH2 0x101 JUMPI PUSH1 0x0 CALLDATASIZE PUSH1 0x3 NOT ADD SLT PUSH2 0x101 JUMPI PUSH1 0x20 PUSH1 0x1 PUSH1 0x1 PUSH1 0xA0 SHL SUB PUSH1 0x4 SLOAD AND PUSH1 0x40 MLOAD SWAP1 DUP2 MSTORE RETURN JUMPDEST CALLVALUE PUSH2 0x101 JUMPI PUSH1 0x0 CALLDATASIZE PUSH1 0x3 NOT ADD SLT PUSH2 0x101 JUMPI PUSH1 0x20 PUSH1 0x1 PUSH1 0x1 PUSH1 0xA0 SHL SUB PUSH1 0x9 SLOAD AND PUSH1 0x40 MLOAD SWAP1 DUP2 MSTORE RETURN JUMPDEST CALLVALUE PUSH2 0x101 JUMPI PUSH1 0x40 CALLDATASIZE PUSH1 0x3 NOT ADD SLT PUSH2 0x101 JUMPI PUSH1 0x4 CALLDATALOAD PUSH1 0x24 CALLDATALOAD PUSH16 0xFFFFFFFFFFFFFFFFFFFFFFFFFFFFFFFF DUP1 DUP3 AND DUP1 SWAP3 SUB PUSH2 0x101 JUMPI PUSH1 0x1 PUSH1 0x1 PUSH1 0xA0 SHL SUB SWAP3 DUP4 PUSH1 0x2 SLOAD AND SWAP3 PUSH1 0x40 MLOAD SWAP1 PUSH1 0xA0 DUP3 ADD SWAP1 PUSH8 0xFFFFFFFFFFFFFFFF SWAP6 DUP4 DUP4 LT DUP8 DUP5 GT OR PUSH2 0x364 JUMPI DUP6 SWAP4 PUSH1 0x0 PUSH1 0xA4 SWAP3 PUSH1 0x40 SWAP6 DUP7 MSTORE DUP8 DUP4 MSTORE PUSH1 0x20 DUP4 ADD SWAP5 DUP6 MSTORE DUP6 DUP4 ADD DUP3 DUP2 MSTORE PUSH1 0x60 DUP5 ADD DUP4 DUP2 MSTORE PUSH1 0x80 DUP6 ADD SWAP2 TIMESTAMP DUP4 MSTORE DUP9 MLOAD SWAP10 DUP11 SWAP9 DUP10 SWAP8 PUSH32 0xC49CCBE00000000000000000000000000000000000000000000000000000000 DUP10 MSTORE MLOAD PUSH1 0x4 DUP10 ADD MSTORE MLOAD AND PUSH1 0x24 DUP8 ADD MSTORE MLOAD PUSH1 0x44 DUP7 ADD MSTORE MLOAD PUSH1 0x64 DUP6 ADD MSTORE MLOAD PUSH1 0x84 DUP5 ADD MSTORE GAS CALL DUP1 ISZERO PUSH2 0x358 JUMPI PUSH2 0x37A JUMPI JUMPDEST POP PUSH1 0x2 SLOAD PUSH1 0x40 MLOAD SWAP1 DUP6 AND SWAP4 PUSH1 0x80 DUP3 ADD SWAP1 DUP2 GT DUP3 DUP3 LT OR PUSH2 0x364 JUMPI PUSH1 0x40 SWAP5 PUSH1 0x84 SWAP4 PUSH1 0x0 SWAP3 DUP8 MSTORE DUP4 MSTORE PUSH1 0x20 DUP4 ADD SWAP5 CALLER DUP7 MSTORE DUP7 DUP5 ADD DUP2 DUP2 MSTORE DUP2 PUSH1 0x60 DUP7 ADD SWAP2 DUP2 DUP4 MSTORE DUP10 MLOAD SWAP11 DUP12 SWAP10 DUP11 SWAP9 PUSH32 0xFC6F786500000000000000000000000000000000000000000000000000000000 DUP11 MSTORE MLOAD PUSH1 0x4 DUP11 ADD MSTORE MLOAD AND PUSH1 0x24 DUP9 ADD MSTORE MLOAD AND PUSH1 0x44 DUP7 ADD MSTORE MLOAD AND PUSH1 0x64 DUP5 ADD MSTORE GAS CALL SWAP1 DUP2 ISZERO PUSH2 0x358 JUMPI PUSH1 0x40 SWAP2 PUSH1 0x0 SWAP2 PUSH1 0x0 SWAP2 PUSH2 0x329 JUMPI JUMPDEST POP DUP3 MLOAD SWAP2 DUP3 MSTORE PUSH1 0x20 DUP3 ADD MSTORE RETURN JUMPDEST SWAP1 POP PUSH2 0x34B SWAP2 POP DUP3 RETURNDATASIZE DUP5 GT PUSH2 0x351 JUMPI JUMPDEST PUSH2 0x343 DUP2 DUP4 PUSH2 0xF7C JUMP JUMPDEST DUP2 ADD SWAP1 PUSH2 0x1042 JUMP JUMPDEST DUP4 PUSH2 0x31C JUMP JUMPDEST POP RETURNDATASIZE PUSH2 0x339 JUMP JUMPDEST PUSH1 0x40 MLOAD RETURNDATASIZE PUSH1 0x0 DUP3 RETURNDATACOPY RETURNDATASIZE SWAP1 REVERT JUMPDEST PUSH4 0x4E487B71 PUSH1 0xE0 SHL PUSH1 0x0 MSTORE PUSH1 0x41 PUSH1 0x4 MSTORE PUSH1 0x24 PUSH1 0x0 REVERT JUMPDEST PUSH2 0x392 SWAP1 PUSH1 0x40 RETURNDATASIZE PUSH1 0x40 GT PUSH2 0x351 JUMPI PUSH2 0x343 DUP2 DUP4 PUSH2 0xF7C JUMP JUMPDEST POP PUSH2 0x282 JUMP JUMPDEST CALLVALUE PUSH2 0x101 JUMPI PUSH1 0x0 CALLDATASIZE PUSH1 0x3 NOT ADD SLT PUSH2 0x101 JUMPI PUSH1 0x20 PUSH1 0x1 PUSH1 0x1 PUSH1 0xA0 SHL SUB PUSH1 0x8 SLOAD AND PUSH1 0x40 MLOAD SWAP1 DUP2 MSTORE RETURN JUMPDEST CALLVALUE PUSH2 0x101 JUMPI PUSH1 0x40 CALLDATASIZE PUSH1 0x3 NOT ADD SLT PUSH2 0x101 JUMPI PUSH2 0x3D8 PUSH2 0xF50 JUMP JUMPDEST PUSH1 0x24 CALLDATALOAD SWAP1 PUSH4 0xFFFFFFFF DUP3 AND DUP3 SUB PUSH2 0x101 JUMPI PUSH1 0x60 MLOAD DUP1 ISZERO PUSH2 0xA79 JUMPI PUSH4 0xFFFFFFFF DUP4 AND PUSH1 0x80 MSTORE PUSH1 0x1 LT ISZERO PUSH2 0xA79 JUMPI PUSH1 0x0 PUSH1 0xA0 MSTORE PUSH1 0x40 MLOAD SWAP1 PUSH32 0x883BDBFD00000000000000000000000000000000000000000000000000000000 DUP3 MSTORE DUP2 PUSH1 0x24 DUP2 ADD PUSH1 0x20 PUSH1 0x4 DUP4 ADD MSTORE PUSH1 0x60 MLOAD DUP1 SWAP2 MSTORE PUSH1 0x44 DUP3 ADD SWAP1 PUSH1 0x80 SWAP1 PUSH1 0x0 JUMPDEST DUP2 DUP2 LT PUSH2 0xBCA JUMPI POP POP POP SWAP2 DUP2 PUSH1 0x1 PUSH1 0x1 PUSH1 0xA0 SHL SUB DUP2 PUSH1 0x0 SWAP6 SUB SWAP3 AND GAS STATICCALL SWAP1 DUP2 ISZERO PUSH2 0x358 JUMPI PUSH1 0x0 SWAP2 PUSH2 0xA8F JUMPI JUMPDEST POP DUP1 MLOAD PUSH1 0x1 LT ISZERO PUSH2 0xA79 JUMPI PUSH1 0x40 DUP2 ADD MLOAD SWAP1 DUP1 MLOAD ISZERO PUSH2 0xA79 JUMPI PUSH1 0x20 ADD MLOAD PUSH1 0x6 SIGNEXTEND SWAP1 PUSH1 0x6 SIGNEXTEND SUB PUSH7 0x7FFFFFFFFFFFFF NOT SWAP2 PUSH7 0x7FFFFFFFFFFFFF DUP3 SGT DUP4 DUP4 SLT OR PUSH2 0x66D JUMPI PUSH4 0xFFFFFFFF AND PUSH1 0x3 SIGNEXTEND SWAP1 PUSH1 0x6 SIGNEXTEND DUP2 ISZERO PUSH2 0x699 JUMPI PUSH1 0x0 NOT SWAP3 DUP2 EQ DUP3 DUP5 EQ AND PUSH2 0x66D JUMPI SDIV PUSH1 0x2 SIGNEXTEND SWAP1 PUSH1 0x0 DUP3 SLT ISZERO PUSH2 0xA73 JUMPI PUSH32 0x8000000000000000000000000000000000000000000000000000000000000000 DUP3 EQ PUSH2 0x66D JUMPI DUP2 PUSH1 0x0 SUB SWAP2 JUMPDEST PUSH3 0xD89E8 DUP4 GT PUSH2 0xA15 JUMPI PUSH1 0x1 DUP4 AND ISZERO PUSH2 0x9EC JUMPI PUSH17 0xFFFFFFFFFFFFFFFFFFFFFFFFFFFFFFFFFF PUSH16 0xFFFCB933BD6FAD37AA2D162D1A594001 JUMPDEST AND SWAP3 PUSH1 0x2 DUP2 AND PUSH2 0x9C0 JUMPI JUMPDEST PUSH1 0x4 DUP2 AND PUSH2 0x994 JUMPI JUMPDEST PUSH1 0x8 DUP2 AND PUSH2 0x968 JUMPI JUMPDEST PUSH1 0x10 DUP2 AND PUSH2 0x93C JUMPI JUMPDEST PUSH1 0x20 DUP2 AND PUSH2 0x910 JUMPI JUMPDEST PUSH1 0x40 DUP2 AND PUSH2 0x8E4 JUMPI JUMPDEST PUSH1 0x80 DUP2 AND PUSH2 0x8B8 JUMPI JUMPDEST PUSH2 0x100 DUP2 AND PUSH2 0x88C JUMPI JUMPDEST PUSH2 0x200 DUP2 AND PUSH2 0x860 JUMPI JUMPDEST PUSH2 0x400 DUP2 AND PUSH2 0x834 JUMPI JUMPDEST PUSH2 0x800 DUP2 AND PUSH2 0x808 JUMPI JUMPDEST PUSH2 0x1000 DUP2 AND PUSH2 0x7DC JUMPI JUMPDEST PUSH2 0x2000 DUP2 AND PUSH2 0x7B0 JUMPI JUMPDEST PUSH2 0x4000 DUP2 AND PUSH2 0x784 JUMPI JUMPDEST PUSH2 0x8000 DUP2 AND PUSH2 0x758 JUMPI JUMPDEST PUSH3 0x10000 DUP2 AND PUSH2 0x72C JUMPI JUMPDEST PUSH3 0x20000 DUP2 AND PUSH2 0x701 JUMPI JUMPDEST PUSH3 0x40000 DUP2 AND PUSH2 0x6D7 JUMPI JUMPDEST PUSH3 0x80000 AND PUSH2 0x6AF JUMPI JUMPDEST PUSH1 0x0 SLT PUSH2 0x68C JUMPI JUMPDEST POP PUSH4 0xFFFFFFFF DUP2 PUSH1 0x20 SHR SWAP2 AND ISZERO PUSH1 0x0 EQ PUSH2 0x683 JUMPI PUSH1 0xFF PUSH1 0x0 JUMPDEST AND DUP2 ADD DUP1 SWAP2 GT PUSH2 0x66D JUMPI PUSH1 0x1 PUSH1 0x1 PUSH1 0xA0 SHL SUB PUSH2 0x645 SWAP2 AND PUSH2 0xFB6 JUMP JUMPDEST PUSH8 0xDE0B6B3A7640000 SWAP1 DUP2 DUP2 MUL SWAP2 DUP2 DUP4 DIV EQ SWAP1 ISZERO OR ISZERO PUSH2 0x66D JUMPI PUSH1 0x20 SWAP1 PUSH1 0x40 MLOAD SWAP1 PUSH1 0xC0 SHR DUP2 MSTORE RETURN JUMPDEST PUSH4 0x4E487B71 PUSH1 0xE0 SHL PUSH1 0x0 MSTORE PUSH1 0x11 PUSH1 0x4 MSTORE PUSH1 0x24 PUSH1 0x0 REVERT JUMPDEST PUSH1 0xFF PUSH1 0x1 PUSH2 0x629 JUMP JUMPDEST DUP2 ISZERO PUSH2 0x699 JUMPI DIV DUP2 PUSH2 0x610 JUMP JUMPDEST PUSH4 0x4E487B71 PUSH1 0xE0 SHL PUSH1 0x0 MSTORE PUSH1 0x12 PUSH1 0x4 MSTORE PUSH1 0x24 PUSH1 0x0 REVERT JUMPDEST SWAP2 PUSH12 0x48A170391F7DC42444E8FA2 SWAP1 DUP2 DUP2 MUL SWAP2 DUP2 DUP4 DIV EQ SWAP1 ISZERO OR ISZERO PUSH2 0x66D JUMPI PUSH1 0x80 SHR SWAP2 PUSH2 0x608 JUMP JUMPDEST SWAP3 PUSH14 0x2216E584F5FA1EA926041BEDFE98 SWAP1 DUP2 DUP2 MUL SWAP2 DUP2 DUP4 DIV EQ SWAP1 ISZERO OR ISZERO PUSH2 0x66D JUMPI PUSH1 0x80 SHR SWAP3 PUSH2 0x5FE JUMP JUMPDEST SWAP3 PUSH15 0x5D6AF8DEDB81196699C329225EE604 SWAP1 DUP2 DUP2 MUL SWAP2 DUP2 DUP4 DIV EQ SWAP1 ISZERO OR ISZERO PUSH2 0x66D JUMPI PUSH1 0x80 SHR SWAP3 PUSH2 0x5F3 JUMP JUMPDEST SWAP3 PUSH16 0x9AA508B5B7A84E1C677DE54F3E99BC9 SWAP1 DUP2 DUP2 MUL SWAP2 DUP2 DUP4 DIV EQ SWAP1 ISZERO OR ISZERO PUSH2 0x66D JUMPI PUSH1 0x80 SHR SWAP3 PUSH2 0x5E8 JUMP JUMPDEST SWAP3 PUSH16 0x31BE135F97D08FD981231505542FCFA6 SWAP1 DUP2 DUP2 MUL SWAP2 DUP2 DUP4 DIV EQ SWAP1 ISZERO OR ISZERO PUSH2 0x66D JUMPI PUSH1 0x80 SHR SWAP3 PUSH2 0x5DD JUMP JUMPDEST SWAP3 PUSH16 0x70D869A156D2A1B890BB3DF62BAF32F7 SWAP1 DUP2 DUP2 MUL SWAP2 DUP2 DUP4 DIV EQ SWAP1 ISZERO OR ISZERO PUSH2 0x66D JUMPI PUSH1 0x80 SHR SWAP3 PUSH2 0x5D3 JUMP JUMPDEST SWAP3 PUSH16 0xA9F746462D870FDF8A65DC1F90E061E5 SWAP1 DUP2 DUP2 MUL SWAP2 DUP2 DUP4 DIV EQ SWAP1 ISZERO OR ISZERO PUSH2 0x66D JUMPI PUSH1 0x80 SHR SWAP3 PUSH2 0x5C9 JUMP JUMPDEST SWAP3 PUSH16 0xD097F3BDFD2022B8845AD8F792AA5825 SWAP1 DUP2 DUP2 MUL SWAP2 DUP2 DUP4 DIV EQ SWAP1 ISZERO OR ISZERO PUSH2 0x66D JUMPI PUSH1 0x80 SHR SWAP3 PUSH2 0x5BF JUMP JUMPDEST SWAP3 PUSH16 0xE7159475A2C29B7443B29C7FA6E889D9 SWAP1 DUP2 DUP2 MUL SWAP2 DUP2 DUP4 DIV EQ SWAP1 ISZERO OR ISZERO PUSH2 0x66D JUMPI PUSH1 0x80 SHR SWAP3 PUSH2 0x5B5 JUMP JUMPDEST SWAP3 PUSH16 0xF3392B0822B70005940C7A398E4B70F3 SWAP1 DUP2 DUP2 MUL SWAP2 DUP2 DUP4 DIV EQ SWAP1 ISZERO OR ISZERO PUSH2 0x66D JUMPI PUSH1 0x80 SHR SWAP3 PUSH2 0x5AB JUMP JUMPDEST SWAP3 PUSH16 0xF987A7253AC413176F2B074CF7815E54 SWAP1 DUP2 DUP2 MUL SWAP2 DUP2 DUP4 DIV EQ SWAP1 ISZERO OR ISZERO PUSH2 0x66D JUMPI PUSH1 0x80 SHR SWAP3 PUSH2 0x5A1 JUMP JUMPDEST SWAP3 PUSH16 0xFCBE86C7900A88AEDCFFC83B479AA3A4 SWAP1 DUP2 DUP2 MUL SWAP2 DUP2 DUP4 DIV EQ SWAP1 ISZERO OR ISZERO PUSH2 0x66D JUMPI PUSH1 0x80 SHR SWAP3 PUSH2 0x597 JUMP JUMPDEST SWAP3 PUSH16 0xFE5DEE046A99A2A811C461F1969C3053 SWAP1 DUP2 DUP2 MUL SWAP2 DUP2 DUP4 DIV EQ SWAP1 ISZERO OR ISZERO PUSH2 0x66D JUMPI PUSH1 0x80 SHR SWAP3 PUSH2 0x58D JUMP JUMPDEST SWAP3 PUSH16 0xFF2EA16466C96A3843EC78B326B52861 SWAP1 DUP2 DUP2 MUL SWAP2 DUP2 DUP4 DIV EQ SWAP1 ISZERO OR ISZERO PUSH2 0x66D JUMPI PUSH1 0x80 SHR SWAP3 PUSH2 0x584 JUMP JUMPDEST SWAP3 PUSH16 0xFF973B41FA98C081472E6896DFB254C0 SWAP1 DUP2 DUP2 MUL SWAP2 DUP2 DUP4 DIV EQ SWAP1 ISZERO OR ISZERO PUSH2 0x66D JUMPI PUSH1 0x80 SHR SWAP3 PUSH2 0x57B JUMP JUMPDEST SWAP3 PUSH16 0xFFCB9843D60F6159C9DB58835C926644 SWAP1 DUP2 DUP2 MUL SWAP2 DUP2 DUP4 DIV EQ SWAP1 ISZERO OR ISZERO PUSH2 0x66D JUMPI PUSH1 0x80 SHR SWAP3 PUSH2 0x572 JUMP JUMPDEST SWAP3 PUSH16 0xFFE5CACA7E10E4E61C3624EAA0941CD0 SWAP1 DUP2 DUP2 MUL SWAP2 DUP2 DUP4 DIV EQ SWAP1 ISZERO OR ISZERO PUSH2 0x66D JUMPI PUSH1 0x80 SHR SWAP3 PUSH2 0x569 JUMP JUMPDEST SWAP3 PUSH16 0xFFF2E50F5F656932EF12357CF3C7FDCC SWAP1 DUP2 DUP2 MUL SWAP2 DUP2 DUP4 DIV EQ SWAP1 ISZERO OR ISZERO PUSH2 0x66D JUMPI PUSH1 0x80 SHR SWAP3 PUSH2 0x560 JUMP JUMPDEST SWAP3 PUSH16 0xFFF97272373D413259A46990580E213A SWAP1 DUP2 DUP2 MUL SWAP2 DUP2 DUP4 DIV EQ SWAP1 ISZERO OR ISZERO PUSH2 0x66D JUMPI PUSH1 0x80 SHR SWAP3 PUSH2 0x557 JUMP JUMPDEST PUSH17 0xFFFFFFFFFFFFFFFFFFFFFFFFFFFFFFFFFF PUSH17 0x100000000000000000000000000000000 PUSH2 0x54C JUMP JUMPDEST PUSH1 0x64 PUSH1 0x40 MLOAD PUSH32 0x8C379A000000000000000000000000000000000000000000000000000000000 DUP2 MSTORE PUSH1 0x20 PUSH1 0x4 DUP3 ADD MSTORE PUSH1 0x1 PUSH1 0x24 DUP3 ADD MSTORE PUSH32 0x5400000000000000000000000000000000000000000000000000000000000000 PUSH1 0x44 DUP3 ADD MSTORE REVERT JUMPDEST DUP2 PUSH2 0x515 JUMP JUMPDEST PUSH4 0x4E487B71 PUSH1 0xE0 SHL PUSH1 0x0 MSTORE PUSH1 0x32 PUSH1 0x4 MSTORE PUSH1 0x24 PUSH1 0x0 REVERT JUMPDEST SWAP1 POP RETURNDATASIZE DUP1 PUSH1 0x0 DUP4 RETURNDATACOPY PUSH2 0xAA1 DUP2 DUP4 PUSH2 0xF7C JUMP JUMPDEST PUSH1 0x40 DUP3 DUP3 DUP2 ADD SUB SLT PUSH2 0x101 JUMPI DUP2 MLOAD SWAP2 PUSH8 0xFFFFFFFFFFFFFFFF DUP4 GT PUSH2 0x101 JUMPI DUP2 DUP2 ADD PUSH1 0x1F DUP5 DUP4 ADD ADD SLT ISZERO PUSH2 0x101 JUMPI DUP3 DUP2 ADD MLOAD SWAP3 PUSH2 0xADC DUP5 PUSH2 0xF9E JUMP JUMPDEST SWAP4 PUSH2 0xAEA PUSH1 0x40 MLOAD SWAP6 DUP7 PUSH2 0xF7C JUMP JUMPDEST DUP1 DUP6 MSTORE PUSH1 0x20 DUP6 ADD SWAP2 DUP5 DUP5 ADD PUSH1 0x20 DUP4 PUSH1 0x5 SHL DUP4 DUP8 ADD ADD ADD GT PUSH2 0x101 JUMPI SWAP2 PUSH1 0x20 DUP4 DUP6 ADD ADD SWAP3 JUMPDEST PUSH1 0x20 DUP4 PUSH1 0x5 SHL DUP3 DUP8 ADD ADD ADD DUP5 LT PUSH2 0xBAA JUMPI POP POP POP POP PUSH1 0x20 DUP2 ADD MLOAD PUSH8 0xFFFFFFFFFFFFFFFF DUP2 GT PUSH2 0x101 JUMPI DUP2 ADD DUP3 DUP3 ADD PUSH1 0x1F DUP3 ADD SLT ISZERO PUSH2 0x101 JUMPI DUP1 MLOAD SWAP3 PUSH1 0x20 DUP1 PUSH2 0xB55 DUP7 PUSH2 0xF9E JUMP JUMPDEST PUSH2 0xB62 PUSH1 0x40 MLOAD SWAP2 DUP3 PUSH2 0xF7C JUMP JUMPDEST DUP7 DUP2 MSTORE ADD SWAP5 PUSH1 0x5 SHL DUP4 ADD ADD SWAP3 ADD DUP3 GT PUSH2 0x101 JUMPI PUSH1 0x20 ADD SWAP2 JUMPDEST DUP2 DUP4 LT PUSH2 0xB8A JUMPI POP POP POP DUP3 PUSH2 0x479 JUMP JUMPDEST DUP3 MLOAD PUSH1 0x1 PUSH1 0x1 PUSH1 0xA0 SHL SUB DUP2 AND DUP2 SUB PUSH2 0x101 JUMPI DUP2 MSTORE PUSH1 0x20 SWAP3 DUP4 ADD SWAP3 ADD PUSH2 0xB7A JUMP JUMPDEST DUP4 MLOAD SWAP2 DUP3 PUSH1 0x6 SIGNEXTEND DUP4 SUB PUSH2 0x101 JUMPI PUSH1 0x20 DUP2 DUP2 SWAP5 DUP3 SWAP4 MSTORE ADD SWAP5 ADD SWAP4 SWAP2 POP PUSH2 0xB0E JUMP JUMPDEST DUP3 MLOAD PUSH4 0xFFFFFFFF AND DUP5 MSTORE DUP7 SWAP5 POP PUSH1 0x20 SWAP4 DUP5 ADD SWAP4 SWAP1 SWAP3 ADD SWAP2 PUSH1 0x1 ADD PUSH2 0x44D JUMP JUMPDEST CALLVALUE PUSH2 0x101 JUMPI PUSH1 0x0 CALLDATASIZE PUSH1 0x3 NOT ADD SLT PUSH2 0x101 JUMPI PUSH1 0x20 PUSH1 0x1 PUSH1 0x1 PUSH1 0xA0 SHL SUB PUSH1 0x3 SLOAD AND PUSH1 0x40 MLOAD SWAP1 DUP2 MSTORE RETURN JUMPDEST CALLVALUE PUSH2 0x101 JUMPI PUSH1 0x0 CALLDATASIZE PUSH1 0x3 NOT ADD SLT PUSH2 0x101 JUMPI PUSH1 0x20 PUSH1 0x1 PUSH1 0x1 PUSH1 0xA0 SHL SUB PUSH1 0x2 SLOAD AND PUSH1 0x40 MLOAD SWAP1 DUP2 MSTORE RETURN JUMPDEST CALLVALUE PUSH2 0x101 JUMPI PUSH1 0xA0 CALLDATASIZE PUSH1 0x3 NOT ADD SLT PUSH2 0x101 JUMPI PUSH2 0xC50 PUSH2 0xF50 JUMP JUMPDEST PUSH2 0xC58 PUSH2 0xF66 JUMP JUMPDEST SWAP1 PUSH1 0x84 CALLDATALOAD PUSH1 0x1 PUSH1 0x1 PUSH1 0xA0 SHL SUB SWAP3 DUP4 DUP3 AND DUP1 SWAP3 SUB PUSH2 0x101 JUMPI PUSH1 0x40 MLOAD SWAP1 PUSH1 0xE0 DUP3 ADD DUP3 DUP2 LT PUSH8 0xFFFFFFFFFFFFFFFF DUP3 GT OR PUSH2 0x364 JUMPI DUP6 SWAP5 DUP6 SWAP2 PUSH1 0x40 MSTORE AND DUP3 MSTORE PUSH1 0x20 SWAP5 DUP6 SWAP4 DUP2 DUP6 DUP6 ADD SWAP4 AND DUP4 MSTORE PUSH1 0x40 DUP5 ADD SWAP1 PUSH2 0x2710 DUP3 MSTORE PUSH1 0x60 DUP6 ADD SWAP1 DUP2 MSTORE PUSH1 0x80 DUP6 ADD PUSH1 0x44 CALLDATALOAD DUP2 MSTORE DUP4 PUSH1 0xA0 DUP8 ADD SWAP3 PUSH1 0x64 CALLDATALOAD DUP5 MSTORE PUSH1 0xC0 DUP9 ADD SWAP5 PUSH1 0x0 DUP7 MSTORE DUP3 DUP1 PUSH1 0x4 SLOAD AND SWAP9 PUSH1 0x40 MLOAD SWAP13 DUP14 SWAP12 PUSH32 0x4E45AAF00000000000000000000000000000000000000000000000000000000 DUP14 MSTORE MLOAD AND PUSH1 0x4 DUP13 ADD MSTORE MLOAD AND PUSH1 0x24 DUP11 ADD MSTORE MLOAD PUSH3 0xFFFFFF AND PUSH1 0x44 DUP10 ADD MSTORE MLOAD AND PUSH1 0x64 DUP8 ADD MSTORE MLOAD PUSH1 0x84 DUP7 ADD MSTORE MLOAD PUSH1 0xA4 DUP6 ADD MSTORE MLOAD AND PUSH1 0xC4 DUP4 ADD MSTORE DUP2 GAS PUSH1 0xE4 SWAP3 PUSH1 0x0 SWAP2 CALL SWAP1 DUP2 ISZERO PUSH2 0x358 JUMPI PUSH1 0x0 SWAP2 PUSH2 0xD7C JUMPI JUMPDEST POP PUSH32 0xDB04C7A6D4758FD55D738EBC67E7F3010AC922BE00771EF29521A4090D1EB13F DUP3 PUSH1 0x40 MLOAD DUP4 DUP2 MSTORE LOG1 PUSH1 0x40 MLOAD SWAP1 DUP2 MSTORE RETURN JUMPDEST SWAP1 POP DUP2 DUP2 DUP2 RETURNDATASIZE DUP4 GT PUSH2 0xDA2 JUMPI JUMPDEST PUSH2 0xD93 DUP2 DUP4 PUSH2 0xF7C JUMP JUMPDEST DUP2 ADD SUB SLT PUSH2 0x101 JUMPI MLOAD DUP3 PUSH2 0xD4A JUMP JUMPDEST POP RETURNDATASIZE PUSH2 0xD89 JUMP JUMPDEST CALLVALUE PUSH2 0x101 JUMPI PUSH1 0x0 CALLDATASIZE PUSH1 0x3 NOT ADD SLT PUSH2 0x101 JUMPI PUSH1 0x20 PUSH1 0x1 PUSH1 0x1 PUSH1 0xA0 SHL SUB PUSH1 0xA SLOAD AND PUSH1 0x40 MLOAD SWAP1 DUP2 MSTORE RETURN JUMPDEST CALLVALUE PUSH2 0x101 JUMPI PUSH1 0x0 CALLDATASIZE PUSH1 0x3 NOT ADD SLT PUSH2 0x101 JUMPI PUSH1 0x20 PUSH1 0x1 PUSH1 0x1 PUSH1 0xA0 SHL SUB PUSH1 0xC SLOAD AND PUSH1 0x40 MLOAD SWAP1 DUP2 MSTORE RETURN JUMPDEST CALLVALUE PUSH2 0x101 JUMPI PUSH1 0x60 CALLDATASIZE PUSH1 0x3 NOT ADD SLT PUSH2 0x101 JUMPI PUSH2 0xE10 PUSH2 0xF50 JUMP JUMPDEST PUSH2 0xE18 PUSH2 0xF66 JUMP JUMPDEST PUSH1 0x44 CALLDATALOAD PUSH1 0x1 PUSH1 0x1 PUSH1 0xA0 SHL SUB SWAP3 DUP4 DUP3 AND DUP1 SWAP3 SUB PUSH2 0x101 JUMPI PUSH1 0x84 DUP5 SWAP2 PUSH1 0x0 PUSH1 0x20 SWAP5 DUP5 PUSH1 0x2 SLOAD AND SWAP1 DUP6 PUSH1 0x40 MLOAD SWAP9 DUP10 SWAP8 DUP9 SWAP7 PUSH32 0x13EAD56200000000000000000000000000000000000000000000000000000000 DUP9 MSTORE AND PUSH1 0x4 DUP8 ADD MSTORE AND PUSH1 0x24 DUP6 ADD MSTORE PUSH2 0x2710 PUSH1 0x44 DUP6 ADD MSTORE PUSH1 0x64 DUP5 ADD MSTORE GAS CALL SWAP1 DUP2 ISZERO PUSH2 0x358 JUMPI PUSH1 0x0 SWAP2 PUSH2 0xEA0 JUMPI JUMPDEST POP PUSH1 0x20 SWAP2 PUSH1 0x40 MLOAD SWAP2 AND DUP2 MSTORE RETURN JUMPDEST SWAP1 POP PUSH1 0x20 DUP2 RETURNDATASIZE PUSH1 0x20 GT PUSH2 0xED6 JUMPI JUMPDEST DUP2 PUSH2 0xEBB PUSH1 0x20 SWAP4 DUP4 PUSH2 0xF7C JUMP JUMPDEST DUP2 ADD SUB SLT PUSH2 0x101 JUMPI MLOAD SWAP1 DUP1 DUP3 AND DUP3 SUB PUSH2 0x101 JUMPI SWAP1 PUSH1 0x20 PUSH2 0xE93 JUMP JUMPDEST RETURNDATASIZE SWAP2 POP PUSH2 0xEAE JUMP JUMPDEST CALLVALUE PUSH2 0x101 JUMPI PUSH1 0x0 CALLDATASIZE PUSH1 0x3 NOT ADD SLT PUSH2 0x101 JUMPI PUSH1 0x20 PUSH1 0x1 PUSH1 0x1 PUSH1 0xA0 SHL SUB PUSH1 0x0 SLOAD AND PUSH1 0x40 MLOAD SWAP1 DUP2 MSTORE RETURN JUMPDEST CALLVALUE PUSH2 0x101 JUMPI PUSH1 0x0 CALLDATASIZE PUSH1 0x3 NOT ADD SLT PUSH2 0x101 JUMPI PUSH1 0x20 PUSH1 0x1 PUSH1 0x1 PUSH1 0xA0 SHL SUB PUSH1 0xB SLOAD AND PUSH1 0x40 MLOAD SWAP1 DUP2 MSTORE RETURN JUMPDEST CALLVALUE PUSH2 0x101 JUMPI PUSH1 0x0 CALLDATASIZE PUSH1 0x3 NOT ADD SLT PUSH2 0x101 JUMPI PUSH1 0x20 SWAP1 PUSH1 0x1 PUSH1 0x1 PUSH1 0xA0 SHL SUB PUSH1 0x1 SLOAD AND DUP2 MSTORE RETURN JUMPDEST PUSH1 0x4 CALLDATALOAD SWAP1 PUSH1 0x1 PUSH1 0x1 PUSH1 0xA0 SHL SUB DUP3 AND DUP3 SUB PUSH2 0x101 JUMPI JUMP JUMPDEST PUSH1 0x24 CALLDATALOAD SWAP1 PUSH1 0x1 PUSH1 0x1 PUSH1 0xA0 SHL SUB DUP3 AND DUP3 SUB PUSH2 0x101 JUMPI JUMP JUMPDEST SWAP1 PUSH1 0x1F DUP1 NOT SWAP2 ADD AND DUP2 ADD SWAP1 DUP2 LT PUSH8 0xFFFFFFFFFFFFFFFF DUP3 GT OR PUSH2 0x364 JUMPI PUSH1 0x40 MSTORE JUMP JUMPDEST PUSH8 0xFFFFFFFFFFFFFFFF DUP2 GT PUSH2 0x364 JUMPI PUSH1 0x5 SHL PUSH1 0x20 ADD SWAP1 JUMP JUMPDEST DUP1 ISZERO PUSH2 0x103C JUMPI DUP1 DUP1 PUSH1 0x1 EQ PUSH2 0x1035 JUMPI PUSH1 0x2 EQ PUSH2 0x102F JUMPI PUSH1 0x1 SWAP1 DUP2 PUSH2 0x133 DUP3 LT AND DUP3 PUSH1 0xB DUP4 LT AND OR PUSH2 0x1027 JUMPI SWAP1 PUSH1 0x2 DUP2 JUMPDEST DUP1 DUP3 GT PUSH2 0xFFE JUMPI POP POP DUP2 PUSH1 0x0 NOT DIV DUP2 GT PUSH2 0x66D JUMPI MUL SWAP1 JUMP JUMPDEST SWAP1 SWAP3 DUP1 PUSH1 0x0 NOT DIV DUP2 GT PUSH2 0x66D JUMPI DUP2 DUP5 AND PUSH2 0x101E JUMPI JUMPDEST DUP1 MUL SWAP3 DUP2 SHR SWAP1 PUSH2 0xFE6 JUMP JUMPDEST DUP1 SWAP3 MUL SWAP2 PUSH2 0x1013 JUMP JUMPDEST PUSH1 0x2 SWAP2 POP EXP SWAP1 JUMP JUMPDEST POP PUSH1 0x4 SWAP1 JUMP JUMPDEST POP POP PUSH1 0x1 SWAP1 JUMP JUMPDEST POP PUSH1 0x0 SWAP1 JUMP JUMPDEST SWAP2 SWAP1 DUP3 PUSH1 0x40 SWAP2 SUB SLT PUSH2 0x101 JUMPI PUSH1 0x20 DUP3 MLOAD SWAP3 ADD MLOAD SWAP1 JUMP INVALID LOG2 PUSH5 0x6970667358 0x22 SLT KECCAK256 0xDC 0x2A 0xEF DUP3 SMOD DUP12 0xCD MOD REVERT CALLCODE PUSH8 0x89E58F4BBF7FE640 SELFDESTRUCT 0xC5 0xC3 CODESIZE PUSH22 0xD3485002D6B19FC064736F6C63430008180033000000 "},"methodIdentifiers":{"createAndInitializePoolIfNecessary(address,address,uint160)":"51246d6e","deadAddress()":"27c8f835","executeSwap(address,address,uint256,uint256,address)":"73d84e42","factoryAddress()":"966dae0e","factoryHelper()":"fd53f53b","getTWAPPrice(address,uint32)":"8be32a41","locker()":"d7b96d4e","lockerAddress()":"3675f29b","nftAddress()":"5bf8633a","owner()":"8da5cb5b","positionManager()":"791b98bc","quoter()":"c6bbd5a7","removeLiquidity(uint256,uint128)":"911757ba","swapRouter()":"c31c9c07","teamWallet()":"59927044","uniswapFactory()":"8bdb2afa","weth()":"3fc8cef3"}}}}}