{"contracts/FlashCoin.sol":{"FlashCoin":{"abi":[{"inputs":[{"internalType":"string","name":"name","type":"string"},{"internalType":"string","name":"symbol","type":"string"}],"stateMutability":"nonpayable","type":"constructor"},{"inputs":[{"internalType":"address","name":"spender","type":"address"},{"internalType":"uint256","name":"allowance","type":"uint256"},{"internalType":"uint256","name":"needed","type":"uint256"}],"name":"ERC20InsufficientAllowance","type":"error"},{"inputs":[{"internalType":"address","name":"sender","type":"address"},{"internalType":"uint256","name":"balance","type":"uint256"},{"internalType":"uint256","name":"needed","type":"uint256"}],"name":"ERC20InsufficientBalance","type":"error"},{"inputs":[{"internalType":"address","name":"approver","type":"address"}],"name":"ERC20InvalidApprover","type":"error"},{"inputs":[{"internalType":"address","name":"receiver","type":"address"}],"name":"ERC20InvalidReceiver","type":"error"},{"inputs":[{"internalType":"address","name":"sender","type":"address"}],"name":"ERC20InvalidSender","type":"error"},{"inputs":[{"internalType":"address","name":"spender","type":"address"}],"name":"ERC20InvalidSpender","type":"error"},{"anonymous":false,"inputs":[{"indexed":true,"internalType":"address","name":"owner","type":"address"},{"indexed":true,"internalType":"address","name":"spender","type":"address"},{"indexed":false,"internalType":"uint256","name":"value","type":"uint256"}],"name":"Approval","type":"event"},{"anonymous":false,"inputs":[{"indexed":true,"internalType":"address","name":"recipient","type":"address"},{"indexed":false,"internalType":"uint256","name":"amount","type":"uint256"}],"name":"FlashCoinExpired","type":"event"},{"anonymous":false,"inputs":[{"indexed":true,"internalType":"address","name":"recipient","type":"address"},{"indexed":false,"internalType":"uint256","name":"amount","type":"uint256"},{"indexed":false,"internalType":"uint256","name":"expiryTime","type":"uint256"}],"name":"FlashCoinSent","type":"event"},{"anonymous":false,"inputs":[{"indexed":true,"internalType":"address","name":"from","type":"address"},{"indexed":true,"internalType":"address","name":"to","type":"address"},{"indexed":false,"internalType":"uint256","name":"value","type":"uint256"}],"name":"Transfer","type":"event"},{"inputs":[],"name":"EXPIRY_DURATION","outputs":[{"internalType":"uint256","name":"","type":"uint256"}],"stateMutability":"view","type":"function"},{"inputs":[{"internalType":"address","name":"owner","type":"address"},{"internalType":"address","name":"spender","type":"address"}],"name":"allowance","outputs":[{"internalType":"uint256","name":"","type":"uint256"}],"stateMutability":"view","type":"function"},{"inputs":[{"internalType":"address","name":"spender","type":"address"},{"internalType":"uint256","name":"value","type":"uint256"}],"name":"approve","outputs":[{"internalType":"bool","name":"","type":"bool"}],"stateMutability":"nonpayable","type":"function"},{"inputs":[{"internalType":"address","name":"account","type":"address"}],"name":"balanceOf","outputs":[{"internalType":"uint256","name":"","type":"uint256"}],"stateMutability":"view","type":"function"},{"inputs":[],"name":"decimals","outputs":[{"internalType":"uint8","name":"","type":"uint8"}],"stateMutability":"view","type":"function"},{"inputs":[{"internalType":"address","name":"account","type":"address"}],"name":"expireFlashCoins","outputs":[],"stateMutability":"nonpayable","type":"function"},{"inputs":[{"internalType":"address","name":"account","type":"address"}],"name":"flashBalanceOf","outputs":[{"internalType":"uint256","name":"","type":"uint256"}],"stateMutability":"view","type":"function"},{"inputs":[],"name":"name","outputs":[{"internalType":"string","name":"","type":"string"}],"stateMutability":"view","type":"function"},{"inputs":[],"name":"owner","outputs":[{"internalType":"address","name":"","type":"address"}],"stateMutability":"view","type":"function"},{"inputs":[{"internalType":"address","name":"recipient","type":"address"},{"internalType":"uint256","name":"amount","type":"uint256"}],"name":"sendFlashCoins","outputs":[],"stateMutability":"nonpayable","type":"function"},{"inputs":[],"name":"symbol","outputs":[{"internalType":"string","name":"","type":"string"}],"stateMutability":"view","type":"function"},{"inputs":[],"name":"totalSupply","outputs":[{"internalType":"uint256","name":"","type":"uint256"}],"stateMutability":"view","type":"function"},{"inputs":[{"internalType":"address","name":"to","type":"address"},{"internalType":"uint256","name":"value","type":"uint256"}],"name":"transfer","outputs":[{"internalType":"bool","name":"","type":"bool"}],"stateMutability":"nonpayable","type":"function"},{"inputs":[{"internalType":"address","name":"from","type":"address"},{"internalType":"address","name":"to","type":"address"},{"internalType":"uint256","name":"value","type":"uint256"}],"name":"transferFrom","outputs":[{"internalType":"bool","name":"","type":"bool"}],"stateMutability":"nonpayable","type":"function"}],"evm":{"bytecode":{"linkReferences":{},"object":"60406080815234620003b75762000e52803803806200001e81620003bc565b92833981018282820312620003b75781516001600160401b039290838111620003b757826200004f918301620003e2565b9060209283820151858111620003b7576200006b9201620003e2565b928151818111620002b7576003908154906001948583811c93168015620003ac575b8784101462000396578190601f9384811162000340575b508790848311600114620002d957600092620002cd575b505060001982851b1c191690851b1782555b8551928311620002b75760049586548581811c91168015620002ac575b8782101462000297578281116200024c575b5085918411600114620001e157938394918492600095620001d5575b50501b92600019911b1c19161782555b3315620001be5760025469d3c21bcecceda100000092838201809211620001a957506000917fddf252ad1be2c89b69c2b068fc378daa952ba7f163c4a11628f55a4df523b3ef9160025533835282815284832084815401905584519384523393a3600780546001600160a01b03191633179055516109fd9081620004558239f35b601190634e487b7160e01b6000525260246000fd5b506000602492519163ec442f0560e01b8352820152fd5b01519350388062000118565b9190601f198416928760005284876000209460005b898983831062000234575050501062000219575b50505050811b01825562000128565b01519060f884600019921b161c19169055388080806200020a565b868601518955909701969485019488935001620001f6565b87600052866000208380870160051c8201928988106200028d575b0160051c019086905b82811062000280575050620000fc565b6000815501869062000270565b9250819262000267565b602288634e487b7160e01b6000525260246000fd5b90607f1690620000ea565b634e487b7160e01b600052604160045260246000fd5b015190503880620000bb565b90879350601f1983169186600052896000209260005b8b82821062000329575050841162000310575b505050811b018255620000cd565b015160001983871b60f8161c1916905538808062000302565b8385015186558b97909501949384019301620002ef565b90915084600052876000208480850160051c8201928a86106200038c575b918991869594930160051c01915b8281106200037c575050620000a4565b600081558594508991016200036c565b925081926200035e565b634e487b7160e01b600052602260045260246000fd5b92607f16926200008d565b600080fd5b6040519190601f01601f191682016001600160401b03811183821017620002b757604052565b919080601f84011215620003b75782516001600160401b038111620002b75760209062000418601f8201601f19168301620003bc565b92818452828287010111620003b75760005b8181106200044057508260009394955001015290565b85810183015184820184015282016200042a56fe60806040908082526004918236101561001757600080fd5b600091823560e01c90816306fdde03146106ae57508063095ea7b31461060257806309c96be1146105dd57806318160ddd146105bf57806323b872dd146104b0578063313ce567146104955780633d3eeac91461047957806370a082311461044d5780637c4aa475146103b65780638da5cb5b1461038f57806395d89b411461026f578063a9059cbb1461023f578063dd62ed3e146101f75763e43d36cd146100bf57600080fd5b346101f357806003193601126101f3576100d76107d1565b90602435916001600160a01b0390836100f38360075416610858565b106101705716918284526005602052818420610110828254610835565b905561012c420180421161015d57907f4b7ec0de323085db9f10b32a9821d5c96a700b6d9220b4cfc68faf19ed39acef92918486526006602052808387205582519182526020820152a280f35b602485601188634e487b7160e01b835252fd5b60848660208551917f08c379a0000000000000000000000000000000000000000000000000000000008352820152602760248201527f4e6f7420656e6f75676820466c617368436f696e20696e206f776e657227732060448201527f6163636f756e74000000000000000000000000000000000000000000000000006064820152fd5b5080fd5b50346101f357806003193601126101f357806020926102146107d1565b61021c6107ec565b6001600160a01b0391821683526001865283832091168252845220549051908152f35b50346101f357806003193601126101f35760209061026861025e6107d1565b60243590336108a0565b5160018152f35b50346101f357816003193601126101f35780519082845460018160011c9060018316928315610385575b6020938484108114610372578388529081156103565750600114610301575b505050829003601f01601f191682019267ffffffffffffffff8411838510176102ee57508291826102ea925282610788565b0390f35b80604186634e487b7160e01b6024945252fd5b8787529192508591837f8a35acfbc15ff81a39ae7d344fd709f28e8600b4aa8c65c6b64bfe7fe36bd19b5b83851061034257505050508301013880806102b8565b80548886018301529301928490820161032c565b60ff1916878501525050151560051b84010190503880806102b8565b60248960228c634e487b7160e01b835252fd5b91607f1691610299565b50346101f357816003193601126101f3576020906001600160a01b03600754169051908152f35b5081903461044a57602080600319360112610446576001600160a01b036103db6107d1565b1690818452600681528284205442101580610436575b6103fa57505050f35b600591828252807ffdd54ceea52b5872a404d76c5906794ed11309292229833d4e677dd03ec10b4e83868820548751908152a284525281205580f35b50600581528284205415156103f1565b5050fd5b50fd5b50346101f35760203660031901126101f35760209061047261046d6107d1565b610858565b9051908152f35b50346101f357816003193601126101f3576020905161012c8152f35b50346101f357816003193601126101f3576020905160128152f35b509190346105bc5760603660031901126105bc576104cc6107d1565b6104d46107ec565b91604435936001600160a01b038316808352600160205286832033845260205286832054916000198303610511575b6020886102688989896108a0565b86831061057757811561056157331561054b5750825260016020908152868320338452815291869020908590039055829061026838610503565b60249084895191634a1406b160e11b8352820152fd5b6024908489519163e602df0560e01b8352820152fd5b87517ffb8f41b2000000000000000000000000000000000000000000000000000000008152339181019182526020820193909352604081018790528291506060010390fd5b80fd5b50346101f357816003193601126101f3576020906002549051908152f35b50346101f35760203660031901126101f3576020906104726105fd6107d1565b610802565b5082346106aa57816003193601126106aa5761061c6107d1565b602435903315610694576001600160a01b031691821561067e57508083602095338152600187528181208582528752205582519081527f8c5be1e5ebec7d5bd14f71427d1e84f3dd0314c0f7b2291e5b200ac8c7c3b925843392a35160018152f35b60249085855191634a1406b160e11b8352820152fd5b6024838686519163e602df0560e01b8352820152fd5b8280fd5b919050346106aa57826003193601126106aa578260035460018160011c906001831692831561077e575b602093848410811461037257838852908115610356575060011461072857505050829003601f01601f191682019267ffffffffffffffff8411838510176102ee57508291826102ea925282610788565b600387529192508591837fc2575a0e9e593c00f959f8c92f12db2869c3395a3b0502d05e2516446f71f85b5b83851061076a57505050508301013880806102b8565b805488860183015293019284908201610754565b91607f16916106d8565b6020808252825181830181905290939260005b8281106107bd57505060409293506000838284010152601f8019910116010190565b81810186015184820160400152850161079b565b600435906001600160a01b03821682036107e757565b600080fd5b602435906001600160a01b03821682036107e757565b6001600160a01b03166000526006602052604060002054421060001461083057600560205260406000205490565b600090565b9190820180921161084257565b634e487b7160e01b600052601160045260246000fd5b610897906001600160a01b036000911681528060205260408120549060066020526040812054421060001461089a576040906005602052205490610835565b90565b90610835565b916001600160a01b038084169283156109965716928315610965576000908382528160205260408220549083821061091a575091604082827fddf252ad1be2c89b69c2b068fc378daa952ba7f163c4a11628f55a4df523b3ef958760209652828652038282205586815220818154019055604051908152a3565b6040517fe450d38c0000000000000000000000000000000000000000000000000000000081526001600160a01b03919091166004820152602481019190915260448101839052606490fd5b60246040517fec442f0500000000000000000000000000000000000000000000000000000000815260006004820152fd5b60246040517f96c6fd1e00000000000000000000000000000000000000000000000000000000815260006004820152fdfea2646970667358221220e4f85f6b91377f9519e958b0a161e85a402f9d0ec3c2392f004857f1b83ac1af64736f6c63430008180033","opcodes":"PUSH1 0x40 PUSH1 0x80 DUP2 MSTORE CALLVALUE PUSH3 0x3B7 JUMPI PUSH3 0xE52 DUP1 CODESIZE SUB DUP1 PUSH3 0x1E DUP2 PUSH3 0x3BC JUMP JUMPDEST SWAP3 DUP4 CODECOPY DUP2 ADD DUP3 DUP3 DUP3 SUB SLT PUSH3 0x3B7 JUMPI DUP2 MLOAD PUSH1 0x1 PUSH1 0x1 PUSH1 0x40 SHL SUB SWAP3 SWAP1 DUP4 DUP2 GT PUSH3 0x3B7 JUMPI DUP3 PUSH3 0x4F SWAP2 DUP4 ADD PUSH3 0x3E2 JUMP JUMPDEST SWAP1 PUSH1 0x20 SWAP3 DUP4 DUP3 ADD MLOAD DUP6 DUP2 GT PUSH3 0x3B7 JUMPI PUSH3 0x6B SWAP3 ADD PUSH3 0x3E2 JUMP JUMPDEST SWAP3 DUP2 MLOAD DUP2 DUP2 GT PUSH3 0x2B7 JUMPI PUSH1 0x3 SWAP1 DUP2 SLOAD SWAP1 PUSH1 0x1 SWAP5 DUP6 DUP4 DUP2 SHR SWAP4 AND DUP1 ISZERO PUSH3 0x3AC JUMPI JUMPDEST DUP8 DUP5 LT EQ PUSH3 0x396 JUMPI DUP2 SWAP1 PUSH1 0x1F SWAP4 DUP5 DUP2 GT PUSH3 0x340 JUMPI JUMPDEST POP DUP8 SWAP1 DUP5 DUP4 GT PUSH1 0x1 EQ PUSH3 0x2D9 JUMPI PUSH1 0x0 SWAP3 PUSH3 0x2CD JUMPI JUMPDEST POP POP PUSH1 0x0 NOT DUP3 DUP6 SHL SHR NOT AND SWAP1 DUP6 SHL OR DUP3 SSTORE JUMPDEST DUP6 MLOAD SWAP3 DUP4 GT PUSH3 0x2B7 JUMPI PUSH1 0x4 SWAP6 DUP7 SLOAD DUP6 DUP2 DUP2 SHR SWAP2 AND DUP1 ISZERO PUSH3 0x2AC JUMPI JUMPDEST DUP8 DUP3 LT EQ PUSH3 0x297 JUMPI DUP3 DUP2 GT PUSH3 0x24C JUMPI JUMPDEST POP DUP6 SWAP2 DUP5 GT PUSH1 0x1 EQ PUSH3 0x1E1 JUMPI SWAP4 DUP4 SWAP5 SWAP2 DUP5 SWAP3 PUSH1 0x0 SWAP6 PUSH3 0x1D5 JUMPI JUMPDEST POP POP SHL SWAP3 PUSH1 0x0 NOT SWAP2 SHL SHR NOT AND OR DUP3 SSTORE JUMPDEST CALLER ISZERO PUSH3 0x1BE JUMPI PUSH1 0x2 SLOAD PUSH10 0xD3C21BCECCEDA1000000 SWAP3 DUP4 DUP3 ADD DUP1 SWAP3 GT PUSH3 0x1A9 JUMPI POP PUSH1 0x0 SWAP2 PUSH32 0xDDF252AD1BE2C89B69C2B068FC378DAA952BA7F163C4A11628F55A4DF523B3EF SWAP2 PUSH1 0x2 SSTORE CALLER DUP4 MSTORE DUP3 DUP2 MSTORE DUP5 DUP4 KECCAK256 DUP5 DUP2 SLOAD ADD SWAP1 SSTORE DUP5 MLOAD SWAP4 DUP5 MSTORE CALLER SWAP4 LOG3 PUSH1 0x7 DUP1 SLOAD PUSH1 0x1 PUSH1 0x1 PUSH1 0xA0 SHL SUB NOT AND CALLER OR SWAP1 SSTORE MLOAD PUSH2 0x9FD SWAP1 DUP2 PUSH3 0x455 DUP3 CODECOPY RETURN JUMPDEST PUSH1 0x11 SWAP1 PUSH4 0x4E487B71 PUSH1 0xE0 SHL PUSH1 0x0 MSTORE MSTORE PUSH1 0x24 PUSH1 0x0 REVERT JUMPDEST POP PUSH1 0x0 PUSH1 0x24 SWAP3 MLOAD SWAP2 PUSH4 0xEC442F05 PUSH1 0xE0 SHL DUP4 MSTORE DUP3 ADD MSTORE REVERT JUMPDEST ADD MLOAD SWAP4 POP CODESIZE DUP1 PUSH3 0x118 JUMP JUMPDEST SWAP2 SWAP1 PUSH1 0x1F NOT DUP5 AND SWAP3 DUP8 PUSH1 0x0 MSTORE DUP5 DUP8 PUSH1 0x0 KECCAK256 SWAP5 PUSH1 0x0 JUMPDEST DUP10 DUP10 DUP4 DUP4 LT PUSH3 0x234 JUMPI POP POP POP LT PUSH3 0x219 JUMPI JUMPDEST POP POP POP POP DUP2 SHL ADD DUP3 SSTORE PUSH3 0x128 JUMP JUMPDEST ADD MLOAD SWAP1 PUSH1 0xF8 DUP5 PUSH1 0x0 NOT SWAP3 SHL AND SHR NOT AND SWAP1 SSTORE CODESIZE DUP1 DUP1 DUP1 PUSH3 0x20A JUMP JUMPDEST DUP7 DUP7 ADD MLOAD DUP10 SSTORE SWAP1 SWAP8 ADD SWAP7 SWAP5 DUP6 ADD SWAP5 DUP9 SWAP4 POP ADD PUSH3 0x1F6 JUMP JUMPDEST DUP8 PUSH1 0x0 MSTORE DUP7 PUSH1 0x0 KECCAK256 DUP4 DUP1 DUP8 ADD PUSH1 0x5 SHR DUP3 ADD SWAP3 DUP10 DUP9 LT PUSH3 0x28D JUMPI JUMPDEST ADD PUSH1 0x5 SHR ADD SWAP1 DUP7 SWAP1 JUMPDEST DUP3 DUP2 LT PUSH3 0x280 JUMPI POP POP PUSH3 0xFC JUMP JUMPDEST PUSH1 0x0 DUP2 SSTORE ADD DUP7 SWAP1 PUSH3 0x270 JUMP JUMPDEST SWAP3 POP DUP2 SWAP3 PUSH3 0x267 JUMP JUMPDEST PUSH1 0x22 DUP9 PUSH4 0x4E487B71 PUSH1 0xE0 SHL PUSH1 0x0 MSTORE MSTORE PUSH1 0x24 PUSH1 0x0 REVERT JUMPDEST SWAP1 PUSH1 0x7F AND SWAP1 PUSH3 0xEA JUMP JUMPDEST PUSH4 0x4E487B71 PUSH1 0xE0 SHL PUSH1 0x0 MSTORE PUSH1 0x41 PUSH1 0x4 MSTORE PUSH1 0x24 PUSH1 0x0 REVERT JUMPDEST ADD MLOAD SWAP1 POP CODESIZE DUP1 PUSH3 0xBB JUMP JUMPDEST SWAP1 DUP8 SWAP4 POP PUSH1 0x1F NOT DUP4 AND SWAP2 DUP7 PUSH1 0x0 MSTORE DUP10 PUSH1 0x0 KECCAK256 SWAP3 PUSH1 0x0 JUMPDEST DUP12 DUP3 DUP3 LT PUSH3 0x329 JUMPI POP POP DUP5 GT PUSH3 0x310 JUMPI JUMPDEST POP POP POP DUP2 SHL ADD DUP3 SSTORE PUSH3 0xCD JUMP JUMPDEST ADD MLOAD PUSH1 0x0 NOT DUP4 DUP8 SHL PUSH1 0xF8 AND SHR NOT AND SWAP1 SSTORE CODESIZE DUP1 DUP1 PUSH3 0x302 JUMP JUMPDEST DUP4 DUP6 ADD MLOAD DUP7 SSTORE DUP12 SWAP8 SWAP1 SWAP6 ADD SWAP5 SWAP4 DUP5 ADD SWAP4 ADD PUSH3 0x2EF JUMP JUMPDEST SWAP1 SWAP2 POP DUP5 PUSH1 0x0 MSTORE DUP8 PUSH1 0x0 KECCAK256 DUP5 DUP1 DUP6 ADD PUSH1 0x5 SHR DUP3 ADD SWAP3 DUP11 DUP7 LT PUSH3 0x38C JUMPI JUMPDEST SWAP2 DUP10 SWAP2 DUP7 SWAP6 SWAP5 SWAP4 ADD PUSH1 0x5 SHR ADD SWAP2 JUMPDEST DUP3 DUP2 LT PUSH3 0x37C JUMPI POP POP PUSH3 0xA4 JUMP JUMPDEST PUSH1 0x0 DUP2 SSTORE DUP6 SWAP5 POP DUP10 SWAP2 ADD PUSH3 0x36C JUMP JUMPDEST SWAP3 POP DUP2 SWAP3 PUSH3 0x35E JUMP JUMPDEST PUSH4 0x4E487B71 PUSH1 0xE0 SHL PUSH1 0x0 MSTORE PUSH1 0x22 PUSH1 0x4 MSTORE PUSH1 0x24 PUSH1 0x0 REVERT JUMPDEST SWAP3 PUSH1 0x7F AND SWAP3 PUSH3 0x8D JUMP JUMPDEST PUSH1 0x0 DUP1 REVERT JUMPDEST PUSH1 0x40 MLOAD SWAP2 SWAP1 PUSH1 0x1F ADD PUSH1 0x1F NOT AND DUP3 ADD PUSH1 0x1 PUSH1 0x1 PUSH1 0x40 SHL SUB DUP2 GT DUP4 DUP3 LT OR PUSH3 0x2B7 JUMPI PUSH1 0x40 MSTORE JUMP JUMPDEST SWAP2 SWAP1 DUP1 PUSH1 0x1F DUP5 ADD SLT ISZERO PUSH3 0x3B7 JUMPI DUP3 MLOAD PUSH1 0x1 PUSH1 0x1 PUSH1 0x40 SHL SUB DUP2 GT PUSH3 0x2B7 JUMPI PUSH1 0x20 SWAP1 PUSH3 0x418 PUSH1 0x1F DUP3 ADD PUSH1 0x1F NOT AND DUP4 ADD PUSH3 0x3BC JUMP JUMPDEST SWAP3 DUP2 DUP5 MSTORE DUP3 DUP3 DUP8 ADD ADD GT PUSH3 0x3B7 JUMPI PUSH1 0x0 JUMPDEST DUP2 DUP2 LT PUSH3 0x440 JUMPI POP DUP3 PUSH1 0x0 SWAP4 SWAP5 SWAP6 POP ADD ADD MSTORE SWAP1 JUMP JUMPDEST DUP6 DUP2 ADD DUP4 ADD MLOAD DUP5 DUP3 ADD DUP5 ADD MSTORE DUP3 ADD PUSH3 0x42A JUMP INVALID PUSH1 0x80 PUSH1 0x40 SWAP1 DUP1 DUP3 MSTORE PUSH1 0x4 SWAP2 DUP3 CALLDATASIZE LT ISZERO PUSH2 0x17 JUMPI PUSH1 0x0 DUP1 REVERT JUMPDEST PUSH1 0x0 SWAP2 DUP3 CALLDATALOAD PUSH1 0xE0 SHR SWAP1 DUP2 PUSH4 0x6FDDE03 EQ PUSH2 0x6AE JUMPI POP DUP1 PUSH4 0x95EA7B3 EQ PUSH2 0x602 JUMPI DUP1 PUSH4 0x9C96BE1 EQ PUSH2 0x5DD JUMPI DUP1 PUSH4 0x18160DDD EQ PUSH2 0x5BF JUMPI DUP1 PUSH4 0x23B872DD EQ PUSH2 0x4B0 JUMPI DUP1 PUSH4 0x313CE567 EQ PUSH2 0x495 JUMPI DUP1 PUSH4 0x3D3EEAC9 EQ PUSH2 0x479 JUMPI DUP1 PUSH4 0x70A08231 EQ PUSH2 0x44D JUMPI DUP1 PUSH4 0x7C4AA475 EQ PUSH2 0x3B6 JUMPI DUP1 PUSH4 0x8DA5CB5B EQ PUSH2 0x38F JUMPI DUP1 PUSH4 0x95D89B41 EQ PUSH2 0x26F JUMPI DUP1 PUSH4 0xA9059CBB EQ PUSH2 0x23F JUMPI DUP1 PUSH4 0xDD62ED3E EQ PUSH2 0x1F7 JUMPI PUSH4 0xE43D36CD EQ PUSH2 0xBF JUMPI PUSH1 0x0 DUP1 REVERT JUMPDEST CALLVALUE PUSH2 0x1F3 JUMPI DUP1 PUSH1 0x3 NOT CALLDATASIZE ADD SLT PUSH2 0x1F3 JUMPI PUSH2 0xD7 PUSH2 0x7D1 JUMP JUMPDEST SWAP1 PUSH1 0x24 CALLDATALOAD SWAP2 PUSH1 0x1 PUSH1 0x1 PUSH1 0xA0 SHL SUB SWAP1 DUP4 PUSH2 0xF3 DUP4 PUSH1 0x7 SLOAD AND PUSH2 0x858 JUMP JUMPDEST LT PUSH2 0x170 JUMPI AND SWAP2 DUP3 DUP5 MSTORE PUSH1 0x5 PUSH1 0x20 MSTORE DUP2 DUP5 KECCAK256 PUSH2 0x110 DUP3 DUP3 SLOAD PUSH2 0x835 JUMP JUMPDEST SWAP1 SSTORE PUSH2 0x12C TIMESTAMP ADD DUP1 TIMESTAMP GT PUSH2 0x15D JUMPI SWAP1 PUSH32 0x4B7EC0DE323085DB9F10B32A9821D5C96A700B6D9220B4CFC68FAF19ED39ACEF SWAP3 SWAP2 DUP5 DUP7 MSTORE PUSH1 0x6 PUSH1 0x20 MSTORE DUP1 DUP4 DUP8 KECCAK256 SSTORE DUP3 MLOAD SWAP2 DUP3 MSTORE PUSH1 0x20 DUP3 ADD MSTORE LOG2 DUP1 RETURN JUMPDEST PUSH1 0x24 DUP6 PUSH1 0x11 DUP9 PUSH4 0x4E487B71 PUSH1 0xE0 SHL DUP4 MSTORE MSTORE REVERT JUMPDEST PUSH1 0x84 DUP7 PUSH1 0x20 DUP6 MLOAD SWAP2 PUSH32 0x8C379A000000000000000000000000000000000000000000000000000000000 DUP4 MSTORE DUP3 ADD MSTORE PUSH1 0x27 PUSH1 0x24 DUP3 ADD MSTORE PUSH32 0x4E6F7420656E6F75676820466C617368436F696E20696E206F776E6572277320 PUSH1 0x44 DUP3 ADD MSTORE PUSH32 0x6163636F756E7400000000000000000000000000000000000000000000000000 PUSH1 0x64 DUP3 ADD MSTORE REVERT JUMPDEST POP DUP1 REVERT JUMPDEST POP CALLVALUE PUSH2 0x1F3 JUMPI DUP1 PUSH1 0x3 NOT CALLDATASIZE ADD SLT PUSH2 0x1F3 JUMPI DUP1 PUSH1 0x20 SWAP3 PUSH2 0x214 PUSH2 0x7D1 JUMP JUMPDEST PUSH2 0x21C PUSH2 0x7EC JUMP JUMPDEST PUSH1 0x1 PUSH1 0x1 PUSH1 0xA0 SHL SUB SWAP2 DUP3 AND DUP4 MSTORE PUSH1 0x1 DUP7 MSTORE DUP4 DUP4 KECCAK256 SWAP2 AND DUP3 MSTORE DUP5 MSTORE KECCAK256 SLOAD SWAP1 MLOAD SWAP1 DUP2 MSTORE RETURN JUMPDEST POP CALLVALUE PUSH2 0x1F3 JUMPI DUP1 PUSH1 0x3 NOT CALLDATASIZE ADD SLT PUSH2 0x1F3 JUMPI PUSH1 0x20 SWAP1 PUSH2 0x268 PUSH2 0x25E PUSH2 0x7D1 JUMP JUMPDEST PUSH1 0x24 CALLDATALOAD SWAP1 CALLER PUSH2 0x8A0 JUMP JUMPDEST MLOAD PUSH1 0x1 DUP2 MSTORE RETURN JUMPDEST POP CALLVALUE PUSH2 0x1F3 JUMPI DUP2 PUSH1 0x3 NOT CALLDATASIZE ADD SLT PUSH2 0x1F3 JUMPI DUP1 MLOAD SWAP1 DUP3 DUP5 SLOAD PUSH1 0x1 DUP2 PUSH1 0x1 SHR SWAP1 PUSH1 0x1 DUP4 AND SWAP3 DUP4 ISZERO PUSH2 0x385 JUMPI JUMPDEST PUSH1 0x20 SWAP4 DUP5 DUP5 LT DUP2 EQ PUSH2 0x372 JUMPI DUP4 DUP9 MSTORE SWAP1 DUP2 ISZERO PUSH2 0x356 JUMPI POP PUSH1 0x1 EQ PUSH2 0x301 JUMPI JUMPDEST POP POP POP DUP3 SWAP1 SUB PUSH1 0x1F ADD PUSH1 0x1F NOT AND DUP3 ADD SWAP3 PUSH8 0xFFFFFFFFFFFFFFFF DUP5 GT DUP4 DUP6 LT OR PUSH2 0x2EE JUMPI POP DUP3 SWAP2 DUP3 PUSH2 0x2EA SWAP3 MSTORE DUP3 PUSH2 0x788 JUMP JUMPDEST SUB SWAP1 RETURN JUMPDEST DUP1 PUSH1 0x41 DUP7 PUSH4 0x4E487B71 PUSH1 0xE0 SHL PUSH1 0x24 SWAP5 MSTORE MSTORE REVERT JUMPDEST DUP8 DUP8 MSTORE SWAP2 SWAP3 POP DUP6 SWAP2 DUP4 PUSH32 0x8A35ACFBC15FF81A39AE7D344FD709F28E8600B4AA8C65C6B64BFE7FE36BD19B JUMPDEST DUP4 DUP6 LT PUSH2 0x342 JUMPI POP POP POP POP DUP4 ADD ADD CODESIZE DUP1 DUP1 PUSH2 0x2B8 JUMP JUMPDEST DUP1 SLOAD DUP9 DUP7 ADD DUP4 ADD MSTORE SWAP4 ADD SWAP3 DUP5 SWAP1 DUP3 ADD PUSH2 0x32C JUMP JUMPDEST PUSH1 0xFF NOT AND DUP8 DUP6 ADD MSTORE POP POP ISZERO ISZERO PUSH1 0x5 SHL DUP5 ADD ADD SWAP1 POP CODESIZE DUP1 DUP1 PUSH2 0x2B8 JUMP JUMPDEST PUSH1 0x24 DUP10 PUSH1 0x22 DUP13 PUSH4 0x4E487B71 PUSH1 0xE0 SHL DUP4 MSTORE MSTORE REVERT JUMPDEST SWAP2 PUSH1 0x7F AND SWAP2 PUSH2 0x299 JUMP JUMPDEST POP CALLVALUE PUSH2 0x1F3 JUMPI DUP2 PUSH1 0x3 NOT CALLDATASIZE ADD SLT PUSH2 0x1F3 JUMPI PUSH1 0x20 SWAP1 PUSH1 0x1 PUSH1 0x1 PUSH1 0xA0 SHL SUB PUSH1 0x7 SLOAD AND SWAP1 MLOAD SWAP1 DUP2 MSTORE RETURN JUMPDEST POP DUP2 SWAP1 CALLVALUE PUSH2 0x44A JUMPI PUSH1 0x20 DUP1 PUSH1 0x3 NOT CALLDATASIZE ADD SLT PUSH2 0x446 JUMPI PUSH1 0x1 PUSH1 0x1 PUSH1 0xA0 SHL SUB PUSH2 0x3DB PUSH2 0x7D1 JUMP JUMPDEST AND SWAP1 DUP2 DUP5 MSTORE PUSH1 0x6 DUP2 MSTORE DUP3 DUP5 KECCAK256 SLOAD TIMESTAMP LT ISZERO DUP1 PUSH2 0x436 JUMPI JUMPDEST PUSH2 0x3FA JUMPI POP POP POP RETURN JUMPDEST PUSH1 0x5 SWAP2 DUP3 DUP3 MSTORE DUP1 PUSH32 0xFDD54CEEA52B5872A404D76C5906794ED11309292229833D4E677DD03EC10B4E DUP4 DUP7 DUP9 KECCAK256 SLOAD DUP8 MLOAD SWAP1 DUP2 MSTORE LOG2 DUP5 MSTORE MSTORE DUP2 KECCAK256 SSTORE DUP1 RETURN JUMPDEST POP PUSH1 0x5 DUP2 MSTORE DUP3 DUP5 KECCAK256 SLOAD ISZERO ISZERO PUSH2 0x3F1 JUMP JUMPDEST POP POP REVERT JUMPDEST POP REVERT JUMPDEST POP CALLVALUE PUSH2 0x1F3 JUMPI PUSH1 0x20 CALLDATASIZE PUSH1 0x3 NOT ADD SLT PUSH2 0x1F3 JUMPI PUSH1 0x20 SWAP1 PUSH2 0x472 PUSH2 0x46D PUSH2 0x7D1 JUMP JUMPDEST PUSH2 0x858 JUMP JUMPDEST SWAP1 MLOAD SWAP1 DUP2 MSTORE RETURN JUMPDEST POP CALLVALUE PUSH2 0x1F3 JUMPI DUP2 PUSH1 0x3 NOT CALLDATASIZE ADD SLT PUSH2 0x1F3 JUMPI PUSH1 0x20 SWAP1 MLOAD PUSH2 0x12C DUP2 MSTORE RETURN JUMPDEST POP CALLVALUE PUSH2 0x1F3 JUMPI DUP2 PUSH1 0x3 NOT CALLDATASIZE ADD SLT PUSH2 0x1F3 JUMPI PUSH1 0x20 SWAP1 MLOAD PUSH1 0x12 DUP2 MSTORE RETURN JUMPDEST POP SWAP2 SWAP1 CALLVALUE PUSH2 0x5BC JUMPI PUSH1 0x60 CALLDATASIZE PUSH1 0x3 NOT ADD SLT PUSH2 0x5BC JUMPI PUSH2 0x4CC PUSH2 0x7D1 JUMP JUMPDEST PUSH2 0x4D4 PUSH2 0x7EC JUMP JUMPDEST SWAP2 PUSH1 0x44 CALLDATALOAD SWAP4 PUSH1 0x1 PUSH1 0x1 PUSH1 0xA0 SHL SUB DUP4 AND DUP1 DUP4 MSTORE PUSH1 0x1 PUSH1 0x20 MSTORE DUP7 DUP4 KECCAK256 CALLER DUP5 MSTORE PUSH1 0x20 MSTORE DUP7 DUP4 KECCAK256 SLOAD SWAP2 PUSH1 0x0 NOT DUP4 SUB PUSH2 0x511 JUMPI JUMPDEST PUSH1 0x20 DUP9 PUSH2 0x268 DUP10 DUP10 DUP10 PUSH2 0x8A0 JUMP JUMPDEST DUP7 DUP4 LT PUSH2 0x577 JUMPI DUP2 ISZERO PUSH2 0x561 JUMPI CALLER ISZERO PUSH2 0x54B JUMPI POP DUP3 MSTORE PUSH1 0x1 PUSH1 0x20 SWAP1 DUP2 MSTORE DUP7 DUP4 KECCAK256 CALLER DUP5 MSTORE DUP2 MSTORE SWAP2 DUP7 SWAP1 KECCAK256 SWAP1 DUP6 SWAP1 SUB SWAP1 SSTORE DUP3 SWAP1 PUSH2 0x268 CODESIZE PUSH2 0x503 JUMP JUMPDEST PUSH1 0x24 SWAP1 DUP5 DUP10 MLOAD SWAP2 PUSH4 0x4A1406B1 PUSH1 0xE1 SHL DUP4 MSTORE DUP3 ADD MSTORE REVERT JUMPDEST PUSH1 0x24 SWAP1 DUP5 DUP10 MLOAD SWAP2 PUSH4 0xE602DF05 PUSH1 0xE0 SHL DUP4 MSTORE DUP3 ADD MSTORE REVERT JUMPDEST DUP8 MLOAD PUSH32 0xFB8F41B200000000000000000000000000000000000000000000000000000000 DUP2 MSTORE CALLER SWAP2 DUP2 ADD SWAP2 DUP3 MSTORE PUSH1 0x20 DUP3 ADD SWAP4 SWAP1 SWAP4 MSTORE PUSH1 0x40 DUP2 ADD DUP8 SWAP1 MSTORE DUP3 SWAP2 POP PUSH1 0x60 ADD SUB SWAP1 REVERT JUMPDEST DUP1 REVERT JUMPDEST POP CALLVALUE PUSH2 0x1F3 JUMPI DUP2 PUSH1 0x3 NOT CALLDATASIZE ADD SLT PUSH2 0x1F3 JUMPI PUSH1 0x20 SWAP1 PUSH1 0x2 SLOAD SWAP1 MLOAD SWAP1 DUP2 MSTORE RETURN JUMPDEST POP CALLVALUE PUSH2 0x1F3 JUMPI PUSH1 0x20 CALLDATASIZE PUSH1 0x3 NOT ADD SLT PUSH2 0x1F3 JUMPI PUSH1 0x20 SWAP1 PUSH2 0x472 PUSH2 0x5FD PUSH2 0x7D1 JUMP JUMPDEST PUSH2 0x802 JUMP JUMPDEST POP DUP3 CALLVALUE PUSH2 0x6AA JUMPI DUP2 PUSH1 0x3 NOT CALLDATASIZE ADD SLT PUSH2 0x6AA JUMPI PUSH2 0x61C PUSH2 0x7D1 JUMP JUMPDEST PUSH1 0x24 CALLDATALOAD SWAP1 CALLER ISZERO PUSH2 0x694 JUMPI PUSH1 0x1 PUSH1 0x1 PUSH1 0xA0 SHL SUB AND SWAP2 DUP3 ISZERO PUSH2 0x67E JUMPI POP DUP1 DUP4 PUSH1 0x20 SWAP6 CALLER DUP2 MSTORE PUSH1 0x1 DUP8 MSTORE DUP2 DUP2 KECCAK256 DUP6 DUP3 MSTORE DUP8 MSTORE KECCAK256 SSTORE DUP3 MLOAD SWAP1 DUP2 MSTORE PUSH32 0x8C5BE1E5EBEC7D5BD14F71427D1E84F3DD0314C0F7B2291E5B200AC8C7C3B925 DUP5 CALLER SWAP3 LOG3 MLOAD PUSH1 0x1 DUP2 MSTORE RETURN JUMPDEST PUSH1 0x24 SWAP1 DUP6 DUP6 MLOAD SWAP2 PUSH4 0x4A1406B1 PUSH1 0xE1 SHL DUP4 MSTORE DUP3 ADD MSTORE REVERT JUMPDEST PUSH1 0x24 DUP4 DUP7 DUP7 MLOAD SWAP2 PUSH4 0xE602DF05 PUSH1 0xE0 SHL DUP4 MSTORE DUP3 ADD MSTORE REVERT JUMPDEST DUP3 DUP1 REVERT JUMPDEST SWAP2 SWAP1 POP CALLVALUE PUSH2 0x6AA JUMPI DUP3 PUSH1 0x3 NOT CALLDATASIZE ADD SLT PUSH2 0x6AA JUMPI DUP3 PUSH1 0x3 SLOAD PUSH1 0x1 DUP2 PUSH1 0x1 SHR SWAP1 PUSH1 0x1 DUP4 AND SWAP3 DUP4 ISZERO PUSH2 0x77E JUMPI JUMPDEST PUSH1 0x20 SWAP4 DUP5 DUP5 LT DUP2 EQ PUSH2 0x372 JUMPI DUP4 DUP9 MSTORE SWAP1 DUP2 ISZERO PUSH2 0x356 JUMPI POP PUSH1 0x1 EQ PUSH2 0x728 JUMPI POP POP POP DUP3 SWAP1 SUB PUSH1 0x1F ADD PUSH1 0x1F NOT AND DUP3 ADD SWAP3 PUSH8 0xFFFFFFFFFFFFFFFF DUP5 GT DUP4 DUP6 LT OR PUSH2 0x2EE JUMPI POP DUP3 SWAP2 DUP3 PUSH2 0x2EA SWAP3 MSTORE DUP3 PUSH2 0x788 JUMP JUMPDEST PUSH1 0x3 DUP8 MSTORE SWAP2 SWAP3 POP DUP6 SWAP2 DUP4 PUSH32 0xC2575A0E9E593C00F959F8C92F12DB2869C3395A3B0502D05E2516446F71F85B JUMPDEST DUP4 DUP6 LT PUSH2 0x76A JUMPI POP POP POP POP DUP4 ADD ADD CODESIZE DUP1 DUP1 PUSH2 0x2B8 JUMP JUMPDEST DUP1 SLOAD DUP9 DUP7 ADD DUP4 ADD MSTORE SWAP4 ADD SWAP3 DUP5 SWAP1 DUP3 ADD PUSH2 0x754 JUMP JUMPDEST SWAP2 PUSH1 0x7F AND SWAP2 PUSH2 0x6D8 JUMP JUMPDEST PUSH1 0x20 DUP1 DUP3 MSTORE DUP3 MLOAD DUP2 DUP4 ADD DUP2 SWAP1 MSTORE SWAP1 SWAP4 SWAP3 PUSH1 0x0 JUMPDEST DUP3 DUP2 LT PUSH2 0x7BD JUMPI POP POP PUSH1 0x40 SWAP3 SWAP4 POP PUSH1 0x0 DUP4 DUP3 DUP5 ADD ADD MSTORE PUSH1 0x1F DUP1 NOT SWAP2 ADD AND ADD ADD SWAP1 JUMP JUMPDEST DUP2 DUP2 ADD DUP7 ADD MLOAD DUP5 DUP3 ADD PUSH1 0x40 ADD MSTORE DUP6 ADD PUSH2 0x79B JUMP JUMPDEST PUSH1 0x4 CALLDATALOAD SWAP1 PUSH1 0x1 PUSH1 0x1 PUSH1 0xA0 SHL SUB DUP3 AND DUP3 SUB PUSH2 0x7E7 JUMPI JUMP JUMPDEST PUSH1 0x0 DUP1 REVERT JUMPDEST PUSH1 0x24 CALLDATALOAD SWAP1 PUSH1 0x1 PUSH1 0x1 PUSH1 0xA0 SHL SUB DUP3 AND DUP3 SUB PUSH2 0x7E7 JUMPI JUMP JUMPDEST PUSH1 0x1 PUSH1 0x1 PUSH1 0xA0 SHL SUB AND PUSH1 0x0 MSTORE PUSH1 0x6 PUSH1 0x20 MSTORE PUSH1 0x40 PUSH1 0x0 KECCAK256 SLOAD TIMESTAMP LT PUSH1 0x0 EQ PUSH2 0x830 JUMPI PUSH1 0x5 PUSH1 0x20 MSTORE PUSH1 0x40 PUSH1 0x0 KECCAK256 SLOAD SWAP1 JUMP JUMPDEST PUSH1 0x0 SWAP1 JUMP JUMPDEST SWAP2 SWAP1 DUP3 ADD DUP1 SWAP3 GT PUSH2 0x842 JUMPI JUMP JUMPDEST PUSH4 0x4E487B71 PUSH1 0xE0 SHL PUSH1 0x0 MSTORE PUSH1 0x11 PUSH1 0x4 MSTORE PUSH1 0x24 PUSH1 0x0 REVERT JUMPDEST PUSH2 0x897 SWAP1 PUSH1 0x1 PUSH1 0x1 PUSH1 0xA0 SHL SUB PUSH1 0x0 SWAP2 AND DUP2 MSTORE DUP1 PUSH1 0x20 MSTORE PUSH1 0x40 DUP2 KECCAK256 SLOAD SWAP1 PUSH1 0x6 PUSH1 0x20 MSTORE PUSH1 0x40 DUP2 KECCAK256 SLOAD TIMESTAMP LT PUSH1 0x0 EQ PUSH2 0x89A JUMPI PUSH1 0x40 SWAP1 PUSH1 0x5 PUSH1 0x20 MSTORE KECCAK256 SLOAD SWAP1 PUSH2 0x835 JUMP JUMPDEST SWAP1 JUMP JUMPDEST SWAP1 PUSH2 0x835 JUMP JUMPDEST SWAP2 PUSH1 0x1 PUSH1 0x1 PUSH1 0xA0 SHL SUB DUP1 DUP5 AND SWAP3 DUP4 ISZERO PUSH2 0x996 JUMPI AND SWAP3 DUP4 ISZERO PUSH2 0x965 JUMPI PUSH1 0x0 SWAP1 DUP4 DUP3 MSTORE DUP2 PUSH1 0x20 MSTORE PUSH1 0x40 DUP3 KECCAK256 SLOAD SWAP1 DUP4 DUP3 LT PUSH2 0x91A JUMPI POP SWAP2 PUSH1 0x40 DUP3 DUP3 PUSH32 0xDDF252AD1BE2C89B69C2B068FC378DAA952BA7F163C4A11628F55A4DF523B3EF SWAP6 DUP8 PUSH1 0x20 SWAP7 MSTORE DUP3 DUP7 MSTORE SUB DUP3 DUP3 KECCAK256 SSTORE DUP7 DUP2 MSTORE KECCAK256 DUP2 DUP2 SLOAD ADD SWAP1 SSTORE PUSH1 0x40 MLOAD SWAP1 DUP2 MSTORE LOG3 JUMP JUMPDEST PUSH1 0x40 MLOAD PUSH32 0xE450D38C00000000000000000000000000000000000000000000000000000000 DUP2 MSTORE PUSH1 0x1 PUSH1 0x1 PUSH1 0xA0 SHL SUB SWAP2 SWAP1 SWAP2 AND PUSH1 0x4 DUP3 ADD MSTORE PUSH1 0x24 DUP2 ADD SWAP2 SWAP1 SWAP2 MSTORE PUSH1 0x44 DUP2 ADD DUP4 SWAP1 MSTORE PUSH1 0x64 SWAP1 REVERT JUMPDEST PUSH1 0x24 PUSH1 0x40 MLOAD PUSH32 0xEC442F0500000000000000000000000000000000000000000000000000000000 DUP2 MSTORE PUSH1 0x0 PUSH1 0x4 DUP3 ADD MSTORE REVERT JUMPDEST PUSH1 0x24 PUSH1 0x40 MLOAD PUSH32 0x96C6FD1E00000000000000000000000000000000000000000000000000000000 DUP2 MSTORE PUSH1 0x0 PUSH1 0x4 DUP3 ADD MSTORE REVERT INVALID LOG2 PUSH5 0x6970667358 0x22 SLT KECCAK256 0xE4 0xF8 PUSH0 PUSH12 0x91377F9519E958B0A161E85A BLOCKHASH 0x2F SWAP14 0xE 0xC3 0xC2 CODECOPY 0x2F STOP BASEFEE JUMPI CALL 0xB8 GASPRICE 0xC1 0xAF PUSH5 0x736F6C6343 STOP ADDMOD XOR STOP CALLER "},"methodIdentifiers":{"EXPIRY_DURATION()":"3d3eeac9","allowance(address,address)":"dd62ed3e","approve(address,uint256)":"095ea7b3","balanceOf(address)":"70a08231","decimals()":"313ce567","expireFlashCoins(address)":"7c4aa475","flashBalanceOf(address)":"09c96be1","name()":"06fdde03","owner()":"8da5cb5b","sendFlashCoins(address,uint256)":"e43d36cd","symbol()":"95d89b41","totalSupply()":"18160ddd","transfer(address,uint256)":"a9059cbb","transferFrom(address,address,uint256)":"23b872dd"}}}}}