{"contracts/MyToken.sol":{"MyToken":{"abi":[{"inputs":[{"internalType":"string","name":"name","type":"string"},{"internalType":"string","name":"symbol","type":"string"},{"internalType":"uint256","name":"totalSupply","type":"uint256"},{"internalType":"address","name":"factory","type":"address"}],"stateMutability":"nonpayable","type":"constructor"},{"inputs":[{"internalType":"address","name":"spender","type":"address"},{"internalType":"uint256","name":"allowance","type":"uint256"},{"internalType":"uint256","name":"needed","type":"uint256"}],"name":"ERC20InsufficientAllowance","type":"error"},{"inputs":[{"internalType":"address","name":"sender","type":"address"},{"internalType":"uint256","name":"balance","type":"uint256"},{"internalType":"uint256","name":"needed","type":"uint256"}],"name":"ERC20InsufficientBalance","type":"error"},{"inputs":[{"internalType":"address","name":"approver","type":"address"}],"name":"ERC20InvalidApprover","type":"error"},{"inputs":[{"internalType":"address","name":"receiver","type":"address"}],"name":"ERC20InvalidReceiver","type":"error"},{"inputs":[{"internalType":"address","name":"sender","type":"address"}],"name":"ERC20InvalidSender","type":"error"},{"inputs":[{"internalType":"address","name":"spender","type":"address"}],"name":"ERC20InvalidSpender","type":"error"},{"anonymous":false,"inputs":[{"indexed":true,"internalType":"address","name":"owner","type":"address"},{"indexed":true,"internalType":"address","name":"spender","type":"address"},{"indexed":false,"internalType":"uint256","name":"value","type":"uint256"}],"name":"Approval","type":"event"},{"anonymous":false,"inputs":[{"indexed":true,"internalType":"address","name":"from","type":"address"},{"indexed":true,"internalType":"address","name":"to","type":"address"},{"indexed":false,"internalType":"uint256","name":"value","type":"uint256"}],"name":"Transfer","type":"event"},{"inputs":[],"name":"MAX_WALLET_PERCENTAGE","outputs":[{"internalType":"uint256","name":"","type":"uint256"}],"stateMutability":"view","type":"function"},{"inputs":[{"internalType":"uint256","name":"","type":"uint256"}],"name":"allTokens","outputs":[{"internalType":"address","name":"tokenAddress","type":"address"},{"internalType":"bool","name":"maxWalletEnabled","type":"bool"},{"internalType":"address","name":"poolAddress","type":"address"}],"stateMutability":"view","type":"function"},{"inputs":[{"internalType":"address","name":"owner","type":"address"},{"internalType":"address","name":"spender","type":"address"}],"name":"allowance","outputs":[{"internalType":"uint256","name":"","type":"uint256"}],"stateMutability":"view","type":"function"},{"inputs":[{"internalType":"address","name":"spender","type":"address"},{"internalType":"uint256","name":"value","type":"uint256"}],"name":"approve","outputs":[{"internalType":"bool","name":"","type":"bool"}],"stateMutability":"nonpayable","type":"function"},{"inputs":[{"internalType":"address","name":"account","type":"address"}],"name":"balanceOf","outputs":[{"internalType":"uint256","name":"","type":"uint256"}],"stateMutability":"view","type":"function"},{"inputs":[],"name":"decimals","outputs":[{"internalType":"uint8","name":"","type":"uint8"}],"stateMutability":"view","type":"function"},{"inputs":[{"internalType":"address","name":"poolAddress","type":"address"}],"name":"enableMaxWalletLimit","outputs":[],"stateMutability":"nonpayable","type":"function"},{"inputs":[],"name":"factoryAddress","outputs":[{"internalType":"address","name":"","type":"address"}],"stateMutability":"view","type":"function"},{"inputs":[],"name":"maxHolding","outputs":[{"internalType":"uint256","name":"","type":"uint256"}],"stateMutability":"view","type":"function"},{"inputs":[],"name":"maxWalletAmount","outputs":[{"internalType":"uint256","name":"","type":"uint256"}],"stateMutability":"view","type":"function"},{"inputs":[],"name":"maxWalletEnabled","outputs":[{"internalType":"bool","name":"","type":"bool"}],"stateMutability":"view","type":"function"},{"inputs":[],"name":"name","outputs":[{"internalType":"string","name":"","type":"string"}],"stateMutability":"view","type":"function"},{"inputs":[],"name":"symbol","outputs":[{"internalType":"string","name":"","type":"string"}],"stateMutability":"view","type":"function"},{"inputs":[],"name":"totalSupply","outputs":[{"internalType":"uint256","name":"","type":"uint256"}],"stateMutability":"view","type":"function"},{"inputs":[{"internalType":"address","name":"to","type":"address"},{"internalType":"uint256","name":"value","type":"uint256"}],"name":"transfer","outputs":[{"internalType":"bool","name":"","type":"bool"}],"stateMutability":"nonpayable","type":"function"},{"inputs":[{"internalType":"address","name":"from","type":"address"},{"internalType":"address","name":"to","type":"address"},{"internalType":"uint256","name":"value","type":"uint256"}],"name":"transferFrom","outputs":[{"internalType":"bool","name":"","type":"bool"}],"stateMutability":"nonpayable","type":"function"}],"evm":{"bytecode":{"linkReferences":{},"object":"604060808152346200066557620012a5803803806200001e816200066a565b9283398101608082820312620006655781516001600160401b03908181116200066557826200004f91850162000690565b602092838501519083821162000665576200006c91860162000690565b8585015160609095015190926001600160a01b03918281169081900362000665578351828111620005655760038054916001968784811c941680156200065a575b8a85101462000644578190601f94858111620005ee575b508a9085831160011462000587576000926200057b575b505060001982841b1c191690871b1781555b865191848311620005655760049788548881811c911680156200055a575b8b82101462000545579081838695949311620004eb575b508a918411600114620004805760009362000474575b505082871b92600019911b1c19161785555b60ff19600a5416600a55670de0b6b3a7640000968781029781890414811517156200045f57674563918244f4000002878104600514881517156200045f5760649004600555600780546001600160a01b0319908116909217905587519160608301908111838210176200044a578852308252858201916000835288810192308452600b546801000000000000000081101562000435578087620001f19201600b5562000702565b929092620004215751825491516001600160a81b03199092169086161790151560a01b60ff60a01b1617815591519184018054909116918316919091179055600b5460001981019081116200040c5730600052600c855286600020553315620003f55730600052600c84528560002054918060ff620002708562000702565b505460a01c161515149283620003e4575b83620003d8575b83620003ce575b83620003b0575b505050620002fa575b507fddf252ad1be2c89b69c2b068fc378daa952ba7f163c4a11628f55a4df523b3ef600091620002d28460025462000738565b60025533835282815284832084815401905584519384523393a351610b4890816200075d8239f35b6002546005810290808204600514901517156200039b576064903360005260008452046200032d84866000205462000738565b11156200029f5760849184519162461bcd60e51b8352820152603660248201527f4d79546f6b656e3a205472616e7366657220616d6f756e74206578636565647360448201527f20746865206d617820686f6c64696e67206c696d6974000000000000000000006064820152fd5b601182634e487b7160e01b6000525260246000fd5b620003be9192935062000702565b5001541633141538808062000296565b925080926200028f565b33301415935062000288565b925081600754163314159262000281565b855163ec442f0560e01b8152600081850152602490fd5b601184634e487b7160e01b6000525260246000fd5b600088634e487b7160e01b82525260246000fd5b604188634e487b7160e01b6000525260246000fd5b604186634e487b7160e01b6000525260246000fd5b601186634e487b7160e01b6000525260246000fd5b01519150388062000138565b9190889450601f198416928a6000528b6000209360005b8d828210620004d45750508511620004b9575b50505050811b0185556200014a565b01519060f884600019921b161c1916905538808080620004aa565b8385015187558c9890960195938401930162000497565b9091929350896000528a6000208380870160051c8201928d88106200053b575b918b918897969594930160051c01915b8281106200052b57505062000122565b600081558796508b91016200051b565b925081926200050b565b60228a634e487b7160e01b6000525260246000fd5b90607f16906200010b565b634e487b7160e01b600052604160045260246000fd5b015190503880620000db565b60008581528c81208b9550929190601f198516908e5b828210620005d65750508411620005bd575b505050811b018155620000ed565b015160001983861b60f8161c19169055388080620005af565b8385015186558d979095019493840193018e6200059d565b909150836000528a6000208580850160051c8201928d86106200063a575b918b91869594930160051c01915b8281106200062a575050620000c4565b600081558594508b91016200061a565b925081926200060c565b634e487b7160e01b600052602260045260246000fd5b93607f1693620000ad565b600080fd5b6040519190601f01601f191682016001600160401b038111838210176200056557604052565b919080601f84011215620006655782516001600160401b0381116200056557602090620006c6601f8201601f191683016200066a565b92818452828287010111620006655760005b818110620006ee57508260009394955001015290565b8581018301518482018401528201620006d8565b600b548110156200072257600b60005260206000209060011b0190600090565b634e487b7160e01b600052603260045260246000fd5b919082018092116200074657565b634e487b7160e01b600052601160045260246000fdfe608060408181526004918236101561001657600080fd5b600092833560e01c91826306647125146107bb5750816306fdde03146106df578163095ea7b31461063357816318160ddd1461061457816323b872dd14610508578163313ce567146104ec578163333e6f06146104cd5781635edfd7ce1461036d578163634282af1461030f57816370a08231146102d957816395d89b41146101b857508063966dae0e14610191578063a9059cbb14610161578063aa4bde2814610143578063d045a329146101205763dd62ed3e146100d557600080fd5b3461011c578060031936011261011c57806020926100f161081f565b6100f961083a565b6001600160a01b0391821683526001865283832091168252845220549051908152f35b5080fd5b503461011c578160031936011261011c5760209060ff600a541690519015158152f35b503461011c578160031936011261011c576020906009549051908152f35b503461011c578060031936011261011c5760209061018a61018061081f565b60243590336108a0565b5160018152f35b503461011c578160031936011261011c576020906001600160a01b03600754169051908152f35b83833461011c578160031936011261011c5780519082845460018160011c90600183169283156102cf575b60209384841081146102bc578388529081156102a0575060011461024b575b505050829003601f01601f191682019267ffffffffffffffff84118385101761023857508291826102349252826107d6565b0390f35b80604186634e487b7160e01b6024945252fd5b8787529192508591837f8a35acfbc15ff81a39ae7d344fd709f28e8600b4aa8c65c6b64bfe7fe36bd19b5b83851061028c5750505050830101858080610202565b805488860183015293019284908201610276565b60ff1916878501525050151560051b8401019050858080610202565b60248960228c634e487b7160e01b835252fd5b91607f16916101e3565b50503461011c57602036600319011261011c57806020926001600160a01b0361030061081f565b16815280845220549051908152f35b8391503461011c57602036600319011261011c573590600b5482101561036a57606060018461033d85610850565b509060ff8254926001600160a01b03948591015416928251948116855260a01c1615156020840152820152f35b80fd5b83833461011c57602036600319011261011c5761038861081f565b906001600160a01b039081600754163303610465576103fa600191308652600c6020528520546103b781610850565b50740100000000000000000000000000000000000000007fffffffffffffffffffffff00ffffffffffffffffffffffffffffffffffffffff825416179055610850565b500191167fffffffffffffffffffffffff00000000000000000000000000000000000000008254161790556002546005810290808204600514901517156104525760649004600955600160ff19600a541617600a5580f35b506011602492634e487b7160e01b835252fd5b5162461bcd60e51b8152602081860152602d60248201527f43616c6c6572206973206e6f7420617574686f72697a656420746f20656e616260448201527f6c65206d61782077616c6c6574000000000000000000000000000000000000006064820152608490fd5b50503461011c578160031936011261011c576020906005549051908152f35b50503461011c578160031936011261011c576020905160128152f35b9050823461036a57606036600319011261036a5761052461081f565b61052c61083a565b91604435936001600160a01b038316808352600160205286832033845260205286832054916000198303610569575b60208861018a8989896108a0565b8683106105cf5781156105b95733156105a35750825260016020908152868320338452815291869020908590039055829061018a8761055b565b60249084895191634a1406b160e11b8352820152fd5b6024908489519163e602df0560e01b8352820152fd5b87517ffb8f41b2000000000000000000000000000000000000000000000000000000008152339181019182526020820193909352604081018790528291506060010390fd5b50503461011c578160031936011261011c576020906002549051908152f35b9050346106db57816003193601126106db5761064d61081f565b6024359033156106c5576001600160a01b03169182156106af57508083602095338152600187528181208582528752205582519081527f8c5be1e5ebec7d5bd14f71427d1e84f3dd0314c0f7b2291e5b200ac8c7c3b925843392a35160018152f35b60249085855191634a1406b160e11b8352820152fd5b6024838686519163e602df0560e01b8352820152fd5b8280fd5b83833461011c578160031936011261011c578051908260035460018160011c90600183169283156107b1575b60209384841081146102bc578388529081156102a0575060011461075b57505050829003601f01601f191682019267ffffffffffffffff84118385101761023857508291826102349252826107d6565b600387529192508591837fc2575a0e9e593c00f959f8c92f12db2869c3395a3b0502d05e2516446f71f85b5b83851061079d5750505050830101858080610202565b805488860183015293019284908201610787565b91607f169161070b565b84903461011c578160031936011261011c5780600560209252f35b6020808252825181830181905290939260005b82811061080b57505060409293506000838284010152601f8019910116010190565b8181018601518482016040015285016107e9565b600435906001600160a01b038216820361083557565b600080fd5b602435906001600160a01b038216820361083557565b600b5481101561088a57600b60005260011b7f0175b7a638427703f0dbe7bb9bbf987a2551717b34e79f33b5b1008d1fa01db90190600090565b634e487b7160e01b600052603260045260246000fd5b9291906001600160a01b03808516918215610ae1578116928315610ab057600091308352602092600c84526040918282205490600160ff6108e084610850565b505460a01c161515149182610aa1575b82610a96575b82610a8b575b82610a6f575b50506109a9575b848152808452818120549783891061096057508083869798997fddf252ad1be2c89b69c2b068fc378daa952ba7f163c4a11628f55a4df523b3ef9785945282875203828220558781522082815401905551908152a3565b82517fe450d38c0000000000000000000000000000000000000000000000000000000081526001600160a01b039190911660048201526024810189905260448101849052606490fd5b600254600581029080820460051490151715610a5b578682528185528282205490848201809211610a47576064900410156109095760848483519062461bcd60e51b82526004820152603660248201527f4d79546f6b656e3a205472616e7366657220616d6f756e74206578636565647360448201527f20746865206d617820686f6c64696e67206c696d6974000000000000000000006064820152fd5b602483634e487b7160e01b81526011600452fd5b602482634e487b7160e01b81526011600452fd5b6001919250610a7d90610850565b500154168614153880610902565b8789141592506108fc565b3089141592506108f6565b600754821689141592506108f0565b60246040517fec442f0500000000000000000000000000000000000000000000000000000000815260006004820152fd5b60246040517f96c6fd1e00000000000000000000000000000000000000000000000000000000815260006004820152fdfea2646970667358221220823dd4fc011d317336007060e7e66104928503805e3315ec5c15aa56db1ac7b364736f6c63430008180033","opcodes":"PUSH1 0x40 PUSH1 0x80 DUP2 MSTORE CALLVALUE PUSH3 0x665 JUMPI PUSH3 0x12A5 DUP1 CODESIZE SUB DUP1 PUSH3 0x1E DUP2 PUSH3 0x66A JUMP JUMPDEST SWAP3 DUP4 CODECOPY DUP2 ADD PUSH1 0x80 DUP3 DUP3 SUB SLT PUSH3 0x665 JUMPI DUP2 MLOAD PUSH1 0x1 PUSH1 0x1 PUSH1 0x40 SHL SUB SWAP1 DUP2 DUP2 GT PUSH3 0x665 JUMPI DUP3 PUSH3 0x4F SWAP2 DUP6 ADD PUSH3 0x690 JUMP JUMPDEST PUSH1 0x20 SWAP3 DUP4 DUP6 ADD MLOAD SWAP1 DUP4 DUP3 GT PUSH3 0x665 JUMPI PUSH3 0x6C SWAP2 DUP7 ADD PUSH3 0x690 JUMP JUMPDEST DUP6 DUP6 ADD MLOAD PUSH1 0x60 SWAP1 SWAP6 ADD MLOAD SWAP1 SWAP3 PUSH1 0x1 PUSH1 0x1 PUSH1 0xA0 SHL SUB SWAP2 DUP3 DUP2 AND SWAP1 DUP2 SWAP1 SUB PUSH3 0x665 JUMPI DUP4 MLOAD DUP3 DUP2 GT PUSH3 0x565 JUMPI PUSH1 0x3 DUP1 SLOAD SWAP2 PUSH1 0x1 SWAP7 DUP8 DUP5 DUP2 SHR SWAP5 AND DUP1 ISZERO PUSH3 0x65A JUMPI JUMPDEST DUP11 DUP6 LT EQ PUSH3 0x644 JUMPI DUP2 SWAP1 PUSH1 0x1F SWAP5 DUP6 DUP2 GT PUSH3 0x5EE JUMPI JUMPDEST POP DUP11 SWAP1 DUP6 DUP4 GT PUSH1 0x1 EQ PUSH3 0x587 JUMPI PUSH1 0x0 SWAP3 PUSH3 0x57B JUMPI JUMPDEST POP POP PUSH1 0x0 NOT DUP3 DUP5 SHL SHR NOT AND SWAP1 DUP8 SHL OR DUP2 SSTORE JUMPDEST DUP7 MLOAD SWAP2 DUP5 DUP4 GT PUSH3 0x565 JUMPI PUSH1 0x4 SWAP8 DUP9 SLOAD DUP9 DUP2 DUP2 SHR SWAP2 AND DUP1 ISZERO PUSH3 0x55A JUMPI JUMPDEST DUP12 DUP3 LT EQ PUSH3 0x545 JUMPI SWAP1 DUP2 DUP4 DUP7 SWAP6 SWAP5 SWAP4 GT PUSH3 0x4EB JUMPI JUMPDEST POP DUP11 SWAP2 DUP5 GT PUSH1 0x1 EQ PUSH3 0x480 JUMPI PUSH1 0x0 SWAP4 PUSH3 0x474 JUMPI JUMPDEST POP POP DUP3 DUP8 SHL SWAP3 PUSH1 0x0 NOT SWAP2 SHL SHR NOT AND OR DUP6 SSTORE JUMPDEST PUSH1 0xFF NOT PUSH1 0xA SLOAD AND PUSH1 0xA SSTORE PUSH8 0xDE0B6B3A7640000 SWAP7 DUP8 DUP2 MUL SWAP8 DUP2 DUP10 DIV EQ DUP2 ISZERO OR ISZERO PUSH3 0x45F JUMPI PUSH8 0x4563918244F40000 MUL DUP8 DUP2 DIV PUSH1 0x5 EQ DUP9 ISZERO OR ISZERO PUSH3 0x45F JUMPI PUSH1 0x64 SWAP1 DIV PUSH1 0x5 SSTORE PUSH1 0x7 DUP1 SLOAD PUSH1 0x1 PUSH1 0x1 PUSH1 0xA0 SHL SUB NOT SWAP1 DUP2 AND SWAP1 SWAP3 OR SWAP1 SSTORE DUP8 MLOAD SWAP2 PUSH1 0x60 DUP4 ADD SWAP1 DUP2 GT DUP4 DUP3 LT OR PUSH3 0x44A JUMPI DUP9 MSTORE ADDRESS DUP3 MSTORE DUP6 DUP3 ADD SWAP2 PUSH1 0x0 DUP4 MSTORE DUP9 DUP2 ADD SWAP3 ADDRESS DUP5 MSTORE PUSH1 0xB SLOAD PUSH9 0x10000000000000000 DUP2 LT ISZERO PUSH3 0x435 JUMPI DUP1 DUP8 PUSH3 0x1F1 SWAP3 ADD PUSH1 0xB SSTORE PUSH3 0x702 JUMP JUMPDEST SWAP3 SWAP1 SWAP3 PUSH3 0x421 JUMPI MLOAD DUP3 SLOAD SWAP2 MLOAD PUSH1 0x1 PUSH1 0x1 PUSH1 0xA8 SHL SUB NOT SWAP1 SWAP3 AND SWAP1 DUP7 AND OR SWAP1 ISZERO ISZERO PUSH1 0xA0 SHL PUSH1 0xFF PUSH1 0xA0 SHL AND OR DUP2 SSTORE SWAP2 MLOAD SWAP2 DUP5 ADD DUP1 SLOAD SWAP1 SWAP2 AND SWAP2 DUP4 AND SWAP2 SWAP1 SWAP2 OR SWAP1 SSTORE PUSH1 0xB SLOAD PUSH1 0x0 NOT DUP2 ADD SWAP1 DUP2 GT PUSH3 0x40C JUMPI ADDRESS PUSH1 0x0 MSTORE PUSH1 0xC DUP6 MSTORE DUP7 PUSH1 0x0 KECCAK256 SSTORE CALLER ISZERO PUSH3 0x3F5 JUMPI ADDRESS PUSH1 0x0 MSTORE PUSH1 0xC DUP5 MSTORE DUP6 PUSH1 0x0 KECCAK256 SLOAD SWAP2 DUP1 PUSH1 0xFF PUSH3 0x270 DUP6 PUSH3 0x702 JUMP JUMPDEST POP SLOAD PUSH1 0xA0 SHR AND ISZERO ISZERO EQ SWAP3 DUP4 PUSH3 0x3E4 JUMPI JUMPDEST DUP4 PUSH3 0x3D8 JUMPI JUMPDEST DUP4 PUSH3 0x3CE JUMPI JUMPDEST DUP4 PUSH3 0x3B0 JUMPI JUMPDEST POP POP POP PUSH3 0x2FA JUMPI JUMPDEST POP PUSH32 0xDDF252AD1BE2C89B69C2B068FC378DAA952BA7F163C4A11628F55A4DF523B3EF PUSH1 0x0 SWAP2 PUSH3 0x2D2 DUP5 PUSH1 0x2 SLOAD PUSH3 0x738 JUMP JUMPDEST PUSH1 0x2 SSTORE CALLER DUP4 MSTORE DUP3 DUP2 MSTORE DUP5 DUP4 KECCAK256 DUP5 DUP2 SLOAD ADD SWAP1 SSTORE DUP5 MLOAD SWAP4 DUP5 MSTORE CALLER SWAP4 LOG3 MLOAD PUSH2 0xB48 SWAP1 DUP2 PUSH3 0x75D DUP3 CODECOPY RETURN JUMPDEST PUSH1 0x2 SLOAD PUSH1 0x5 DUP2 MUL SWAP1 DUP1 DUP3 DIV PUSH1 0x5 EQ SWAP1 ISZERO OR ISZERO PUSH3 0x39B JUMPI PUSH1 0x64 SWAP1 CALLER PUSH1 0x0 MSTORE PUSH1 0x0 DUP5 MSTORE DIV PUSH3 0x32D DUP5 DUP7 PUSH1 0x0 KECCAK256 SLOAD PUSH3 0x738 JUMP JUMPDEST GT ISZERO PUSH3 0x29F JUMPI PUSH1 0x84 SWAP2 DUP5 MLOAD SWAP2 PUSH3 0x461BCD PUSH1 0xE5 SHL DUP4 MSTORE DUP3 ADD MSTORE PUSH1 0x36 PUSH1 0x24 DUP3 ADD MSTORE PUSH32 0x4D79546F6B656E3A205472616E7366657220616D6F756E742065786365656473 PUSH1 0x44 DUP3 ADD MSTORE PUSH32 0x20746865206D617820686F6C64696E67206C696D697400000000000000000000 PUSH1 0x64 DUP3 ADD MSTORE REVERT JUMPDEST PUSH1 0x11 DUP3 PUSH4 0x4E487B71 PUSH1 0xE0 SHL PUSH1 0x0 MSTORE MSTORE PUSH1 0x24 PUSH1 0x0 REVERT JUMPDEST PUSH3 0x3BE SWAP2 SWAP3 SWAP4 POP PUSH3 0x702 JUMP JUMPDEST POP ADD SLOAD AND CALLER EQ ISZERO CODESIZE DUP1 DUP1 PUSH3 0x296 JUMP JUMPDEST SWAP3 POP DUP1 SWAP3 PUSH3 0x28F JUMP JUMPDEST CALLER ADDRESS EQ ISZERO SWAP4 POP PUSH3 0x288 JUMP JUMPDEST SWAP3 POP DUP2 PUSH1 0x7 SLOAD AND CALLER EQ ISZERO SWAP3 PUSH3 0x281 JUMP JUMPDEST DUP6 MLOAD PUSH4 0xEC442F05 PUSH1 0xE0 SHL DUP2 MSTORE PUSH1 0x0 DUP2 DUP6 ADD MSTORE PUSH1 0x24 SWAP1 REVERT JUMPDEST PUSH1 0x11 DUP5 PUSH4 0x4E487B71 PUSH1 0xE0 SHL PUSH1 0x0 MSTORE MSTORE PUSH1 0x24 PUSH1 0x0 REVERT JUMPDEST PUSH1 0x0 DUP9 PUSH4 0x4E487B71 PUSH1 0xE0 SHL DUP3 MSTORE MSTORE PUSH1 0x24 PUSH1 0x0 REVERT JUMPDEST PUSH1 0x41 DUP9 PUSH4 0x4E487B71 PUSH1 0xE0 SHL PUSH1 0x0 MSTORE MSTORE PUSH1 0x24 PUSH1 0x0 REVERT JUMPDEST PUSH1 0x41 DUP7 PUSH4 0x4E487B71 PUSH1 0xE0 SHL PUSH1 0x0 MSTORE MSTORE PUSH1 0x24 PUSH1 0x0 REVERT JUMPDEST PUSH1 0x11 DUP7 PUSH4 0x4E487B71 PUSH1 0xE0 SHL PUSH1 0x0 MSTORE MSTORE PUSH1 0x24 PUSH1 0x0 REVERT JUMPDEST ADD MLOAD SWAP2 POP CODESIZE DUP1 PUSH3 0x138 JUMP JUMPDEST SWAP2 SWAP1 DUP9 SWAP5 POP PUSH1 0x1F NOT DUP5 AND SWAP3 DUP11 PUSH1 0x0 MSTORE DUP12 PUSH1 0x0 KECCAK256 SWAP4 PUSH1 0x0 JUMPDEST DUP14 DUP3 DUP3 LT PUSH3 0x4D4 JUMPI POP POP DUP6 GT PUSH3 0x4B9 JUMPI JUMPDEST POP POP POP POP DUP2 SHL ADD DUP6 SSTORE PUSH3 0x14A JUMP JUMPDEST ADD MLOAD SWAP1 PUSH1 0xF8 DUP5 PUSH1 0x0 NOT SWAP3 SHL AND SHR NOT AND SWAP1 SSTORE CODESIZE DUP1 DUP1 DUP1 PUSH3 0x4AA JUMP JUMPDEST DUP4 DUP6 ADD MLOAD DUP8 SSTORE DUP13 SWAP9 SWAP1 SWAP7 ADD SWAP6 SWAP4 DUP5 ADD SWAP4 ADD PUSH3 0x497 JUMP JUMPDEST SWAP1 SWAP2 SWAP3 SWAP4 POP DUP10 PUSH1 0x0 MSTORE DUP11 PUSH1 0x0 KECCAK256 DUP4 DUP1 DUP8 ADD PUSH1 0x5 SHR DUP3 ADD SWAP3 DUP14 DUP9 LT PUSH3 0x53B JUMPI JUMPDEST SWAP2 DUP12 SWAP2 DUP9 SWAP8 SWAP7 SWAP6 SWAP5 SWAP4 ADD PUSH1 0x5 SHR ADD SWAP2 JUMPDEST DUP3 DUP2 LT PUSH3 0x52B JUMPI POP POP PUSH3 0x122 JUMP JUMPDEST PUSH1 0x0 DUP2 SSTORE DUP8 SWAP7 POP DUP12 SWAP2 ADD PUSH3 0x51B JUMP JUMPDEST SWAP3 POP DUP2 SWAP3 PUSH3 0x50B JUMP JUMPDEST PUSH1 0x22 DUP11 PUSH4 0x4E487B71 PUSH1 0xE0 SHL PUSH1 0x0 MSTORE MSTORE PUSH1 0x24 PUSH1 0x0 REVERT JUMPDEST SWAP1 PUSH1 0x7F AND SWAP1 PUSH3 0x10B JUMP JUMPDEST PUSH4 0x4E487B71 PUSH1 0xE0 SHL PUSH1 0x0 MSTORE PUSH1 0x41 PUSH1 0x4 MSTORE PUSH1 0x24 PUSH1 0x0 REVERT JUMPDEST ADD MLOAD SWAP1 POP CODESIZE DUP1 PUSH3 0xDB JUMP JUMPDEST PUSH1 0x0 DUP6 DUP2 MSTORE DUP13 DUP2 KECCAK256 DUP12 SWAP6 POP SWAP3 SWAP2 SWAP1 PUSH1 0x1F NOT DUP6 AND SWAP1 DUP15 JUMPDEST DUP3 DUP3 LT PUSH3 0x5D6 JUMPI POP POP DUP5 GT PUSH3 0x5BD JUMPI JUMPDEST POP POP POP DUP2 SHL ADD DUP2 SSTORE PUSH3 0xED JUMP JUMPDEST ADD MLOAD PUSH1 0x0 NOT DUP4 DUP7 SHL PUSH1 0xF8 AND SHR NOT AND SWAP1 SSTORE CODESIZE DUP1 DUP1 PUSH3 0x5AF JUMP JUMPDEST DUP4 DUP6 ADD MLOAD DUP7 SSTORE DUP14 SWAP8 SWAP1 SWAP6 ADD SWAP5 SWAP4 DUP5 ADD SWAP4 ADD DUP15 PUSH3 0x59D JUMP JUMPDEST SWAP1 SWAP2 POP DUP4 PUSH1 0x0 MSTORE DUP11 PUSH1 0x0 KECCAK256 DUP6 DUP1 DUP6 ADD PUSH1 0x5 SHR DUP3 ADD SWAP3 DUP14 DUP7 LT PUSH3 0x63A JUMPI JUMPDEST SWAP2 DUP12 SWAP2 DUP7 SWAP6 SWAP5 SWAP4 ADD PUSH1 0x5 SHR ADD SWAP2 JUMPDEST DUP3 DUP2 LT PUSH3 0x62A JUMPI POP POP PUSH3 0xC4 JUMP JUMPDEST PUSH1 0x0 DUP2 SSTORE DUP6 SWAP5 POP DUP12 SWAP2 ADD PUSH3 0x61A JUMP JUMPDEST SWAP3 POP DUP2 SWAP3 PUSH3 0x60C JUMP JUMPDEST PUSH4 0x4E487B71 PUSH1 0xE0 SHL PUSH1 0x0 MSTORE PUSH1 0x22 PUSH1 0x4 MSTORE PUSH1 0x24 PUSH1 0x0 REVERT JUMPDEST SWAP4 PUSH1 0x7F AND SWAP4 PUSH3 0xAD JUMP JUMPDEST PUSH1 0x0 DUP1 REVERT JUMPDEST PUSH1 0x40 MLOAD SWAP2 SWAP1 PUSH1 0x1F ADD PUSH1 0x1F NOT AND DUP3 ADD PUSH1 0x1 PUSH1 0x1 PUSH1 0x40 SHL SUB DUP2 GT DUP4 DUP3 LT OR PUSH3 0x565 JUMPI PUSH1 0x40 MSTORE JUMP JUMPDEST SWAP2 SWAP1 DUP1 PUSH1 0x1F DUP5 ADD SLT ISZERO PUSH3 0x665 JUMPI DUP3 MLOAD PUSH1 0x1 PUSH1 0x1 PUSH1 0x40 SHL SUB DUP2 GT PUSH3 0x565 JUMPI PUSH1 0x20 SWAP1 PUSH3 0x6C6 PUSH1 0x1F DUP3 ADD PUSH1 0x1F NOT AND DUP4 ADD PUSH3 0x66A JUMP JUMPDEST SWAP3 DUP2 DUP5 MSTORE DUP3 DUP3 DUP8 ADD ADD GT PUSH3 0x665 JUMPI PUSH1 0x0 JUMPDEST DUP2 DUP2 LT PUSH3 0x6EE JUMPI POP DUP3 PUSH1 0x0 SWAP4 SWAP5 SWAP6 POP ADD ADD MSTORE SWAP1 JUMP JUMPDEST DUP6 DUP2 ADD DUP4 ADD MLOAD DUP5 DUP3 ADD DUP5 ADD MSTORE DUP3 ADD PUSH3 0x6D8 JUMP JUMPDEST PUSH1 0xB SLOAD DUP2 LT ISZERO PUSH3 0x722 JUMPI PUSH1 0xB PUSH1 0x0 MSTORE PUSH1 0x20 PUSH1 0x0 KECCAK256 SWAP1 PUSH1 0x1 SHL ADD SWAP1 PUSH1 0x0 SWAP1 JUMP JUMPDEST PUSH4 0x4E487B71 PUSH1 0xE0 SHL PUSH1 0x0 MSTORE PUSH1 0x32 PUSH1 0x4 MSTORE PUSH1 0x24 PUSH1 0x0 REVERT JUMPDEST SWAP2 SWAP1 DUP3 ADD DUP1 SWAP3 GT PUSH3 0x746 JUMPI JUMP JUMPDEST PUSH4 0x4E487B71 PUSH1 0xE0 SHL PUSH1 0x0 MSTORE PUSH1 0x11 PUSH1 0x4 MSTORE PUSH1 0x24 PUSH1 0x0 REVERT INVALID PUSH1 0x80 PUSH1 0x40 DUP2 DUP2 MSTORE PUSH1 0x4 SWAP2 DUP3 CALLDATASIZE LT ISZERO PUSH2 0x16 JUMPI PUSH1 0x0 DUP1 REVERT JUMPDEST PUSH1 0x0 SWAP3 DUP4 CALLDATALOAD PUSH1 0xE0 SHR SWAP2 DUP3 PUSH4 0x6647125 EQ PUSH2 0x7BB JUMPI POP DUP2 PUSH4 0x6FDDE03 EQ PUSH2 0x6DF JUMPI DUP2 PUSH4 0x95EA7B3 EQ PUSH2 0x633 JUMPI DUP2 PUSH4 0x18160DDD EQ PUSH2 0x614 JUMPI DUP2 PUSH4 0x23B872DD EQ PUSH2 0x508 JUMPI DUP2 PUSH4 0x313CE567 EQ PUSH2 0x4EC JUMPI DUP2 PUSH4 0x333E6F06 EQ PUSH2 0x4CD JUMPI DUP2 PUSH4 0x5EDFD7CE EQ PUSH2 0x36D JUMPI DUP2 PUSH4 0x634282AF EQ PUSH2 0x30F JUMPI DUP2 PUSH4 0x70A08231 EQ PUSH2 0x2D9 JUMPI DUP2 PUSH4 0x95D89B41 EQ PUSH2 0x1B8 JUMPI POP DUP1 PUSH4 0x966DAE0E EQ PUSH2 0x191 JUMPI DUP1 PUSH4 0xA9059CBB EQ PUSH2 0x161 JUMPI DUP1 PUSH4 0xAA4BDE28 EQ PUSH2 0x143 JUMPI DUP1 PUSH4 0xD045A329 EQ PUSH2 0x120 JUMPI PUSH4 0xDD62ED3E EQ PUSH2 0xD5 JUMPI PUSH1 0x0 DUP1 REVERT JUMPDEST CALLVALUE PUSH2 0x11C JUMPI DUP1 PUSH1 0x3 NOT CALLDATASIZE ADD SLT PUSH2 0x11C JUMPI DUP1 PUSH1 0x20 SWAP3 PUSH2 0xF1 PUSH2 0x81F JUMP JUMPDEST PUSH2 0xF9 PUSH2 0x83A JUMP JUMPDEST PUSH1 0x1 PUSH1 0x1 PUSH1 0xA0 SHL SUB SWAP2 DUP3 AND DUP4 MSTORE PUSH1 0x1 DUP7 MSTORE DUP4 DUP4 KECCAK256 SWAP2 AND DUP3 MSTORE DUP5 MSTORE KECCAK256 SLOAD SWAP1 MLOAD SWAP1 DUP2 MSTORE RETURN JUMPDEST POP DUP1 REVERT JUMPDEST POP CALLVALUE PUSH2 0x11C JUMPI DUP2 PUSH1 0x3 NOT CALLDATASIZE ADD SLT PUSH2 0x11C JUMPI PUSH1 0x20 SWAP1 PUSH1 0xFF PUSH1 0xA SLOAD AND SWAP1 MLOAD SWAP1 ISZERO ISZERO DUP2 MSTORE RETURN JUMPDEST POP CALLVALUE PUSH2 0x11C JUMPI DUP2 PUSH1 0x3 NOT CALLDATASIZE ADD SLT PUSH2 0x11C JUMPI PUSH1 0x20 SWAP1 PUSH1 0x9 SLOAD SWAP1 MLOAD SWAP1 DUP2 MSTORE RETURN JUMPDEST POP CALLVALUE PUSH2 0x11C JUMPI DUP1 PUSH1 0x3 NOT CALLDATASIZE ADD SLT PUSH2 0x11C JUMPI PUSH1 0x20 SWAP1 PUSH2 0x18A PUSH2 0x180 PUSH2 0x81F JUMP JUMPDEST PUSH1 0x24 CALLDATALOAD SWAP1 CALLER PUSH2 0x8A0 JUMP JUMPDEST MLOAD PUSH1 0x1 DUP2 MSTORE RETURN JUMPDEST POP CALLVALUE PUSH2 0x11C JUMPI DUP2 PUSH1 0x3 NOT CALLDATASIZE ADD SLT PUSH2 0x11C JUMPI PUSH1 0x20 SWAP1 PUSH1 0x1 PUSH1 0x1 PUSH1 0xA0 SHL SUB PUSH1 0x7 SLOAD AND SWAP1 MLOAD SWAP1 DUP2 MSTORE RETURN JUMPDEST DUP4 DUP4 CALLVALUE PUSH2 0x11C JUMPI DUP2 PUSH1 0x3 NOT CALLDATASIZE ADD SLT PUSH2 0x11C JUMPI DUP1 MLOAD SWAP1 DUP3 DUP5 SLOAD PUSH1 0x1 DUP2 PUSH1 0x1 SHR SWAP1 PUSH1 0x1 DUP4 AND SWAP3 DUP4 ISZERO PUSH2 0x2CF JUMPI JUMPDEST PUSH1 0x20 SWAP4 DUP5 DUP5 LT DUP2 EQ PUSH2 0x2BC JUMPI DUP4 DUP9 MSTORE SWAP1 DUP2 ISZERO PUSH2 0x2A0 JUMPI POP PUSH1 0x1 EQ PUSH2 0x24B JUMPI JUMPDEST POP POP POP DUP3 SWAP1 SUB PUSH1 0x1F ADD PUSH1 0x1F NOT AND DUP3 ADD SWAP3 PUSH8 0xFFFFFFFFFFFFFFFF DUP5 GT DUP4 DUP6 LT OR PUSH2 0x238 JUMPI POP DUP3 SWAP2 DUP3 PUSH2 0x234 SWAP3 MSTORE DUP3 PUSH2 0x7D6 JUMP JUMPDEST SUB SWAP1 RETURN JUMPDEST DUP1 PUSH1 0x41 DUP7 PUSH4 0x4E487B71 PUSH1 0xE0 SHL PUSH1 0x24 SWAP5 MSTORE MSTORE REVERT JUMPDEST DUP8 DUP8 MSTORE SWAP2 SWAP3 POP DUP6 SWAP2 DUP4 PUSH32 0x8A35ACFBC15FF81A39AE7D344FD709F28E8600B4AA8C65C6B64BFE7FE36BD19B JUMPDEST DUP4 DUP6 LT PUSH2 0x28C JUMPI POP POP POP POP DUP4 ADD ADD DUP6 DUP1 DUP1 PUSH2 0x202 JUMP JUMPDEST DUP1 SLOAD DUP9 DUP7 ADD DUP4 ADD MSTORE SWAP4 ADD SWAP3 DUP5 SWAP1 DUP3 ADD PUSH2 0x276 JUMP JUMPDEST PUSH1 0xFF NOT AND DUP8 DUP6 ADD MSTORE POP POP ISZERO ISZERO PUSH1 0x5 SHL DUP5 ADD ADD SWAP1 POP DUP6 DUP1 DUP1 PUSH2 0x202 JUMP JUMPDEST PUSH1 0x24 DUP10 PUSH1 0x22 DUP13 PUSH4 0x4E487B71 PUSH1 0xE0 SHL DUP4 MSTORE MSTORE REVERT JUMPDEST SWAP2 PUSH1 0x7F AND SWAP2 PUSH2 0x1E3 JUMP JUMPDEST POP POP CALLVALUE PUSH2 0x11C JUMPI PUSH1 0x20 CALLDATASIZE PUSH1 0x3 NOT ADD SLT PUSH2 0x11C JUMPI DUP1 PUSH1 0x20 SWAP3 PUSH1 0x1 PUSH1 0x1 PUSH1 0xA0 SHL SUB PUSH2 0x300 PUSH2 0x81F JUMP JUMPDEST AND DUP2 MSTORE DUP1 DUP5 MSTORE KECCAK256 SLOAD SWAP1 MLOAD SWAP1 DUP2 MSTORE RETURN JUMPDEST DUP4 SWAP2 POP CALLVALUE PUSH2 0x11C JUMPI PUSH1 0x20 CALLDATASIZE PUSH1 0x3 NOT ADD SLT PUSH2 0x11C JUMPI CALLDATALOAD SWAP1 PUSH1 0xB SLOAD DUP3 LT ISZERO PUSH2 0x36A JUMPI PUSH1 0x60 PUSH1 0x1 DUP5 PUSH2 0x33D DUP6 PUSH2 0x850 JUMP JUMPDEST POP SWAP1 PUSH1 0xFF DUP3 SLOAD SWAP3 PUSH1 0x1 PUSH1 0x1 PUSH1 0xA0 SHL SUB SWAP5 DUP6 SWAP2 ADD SLOAD AND SWAP3 DUP3 MLOAD SWAP5 DUP2 AND DUP6 MSTORE PUSH1 0xA0 SHR AND ISZERO ISZERO PUSH1 0x20 DUP5 ADD MSTORE DUP3 ADD MSTORE RETURN JUMPDEST DUP1 REVERT JUMPDEST DUP4 DUP4 CALLVALUE PUSH2 0x11C JUMPI PUSH1 0x20 CALLDATASIZE PUSH1 0x3 NOT ADD SLT PUSH2 0x11C JUMPI PUSH2 0x388 PUSH2 0x81F JUMP JUMPDEST SWAP1 PUSH1 0x1 PUSH1 0x1 PUSH1 0xA0 SHL SUB SWAP1 DUP2 PUSH1 0x7 SLOAD AND CALLER SUB PUSH2 0x465 JUMPI PUSH2 0x3FA PUSH1 0x1 SWAP2 ADDRESS DUP7 MSTORE PUSH1 0xC PUSH1 0x20 MSTORE DUP6 KECCAK256 SLOAD PUSH2 0x3B7 DUP2 PUSH2 0x850 JUMP JUMPDEST POP PUSH21 0x10000000000000000000000000000000000000000 PUSH32 0xFFFFFFFFFFFFFFFFFFFFFF00FFFFFFFFFFFFFFFFFFFFFFFFFFFFFFFFFFFFFFFF DUP3 SLOAD AND OR SWAP1 SSTORE PUSH2 0x850 JUMP JUMPDEST POP ADD SWAP2 AND PUSH32 0xFFFFFFFFFFFFFFFFFFFFFFFF0000000000000000000000000000000000000000 DUP3 SLOAD AND OR SWAP1 SSTORE PUSH1 0x2 SLOAD PUSH1 0x5 DUP2 MUL SWAP1 DUP1 DUP3 DIV PUSH1 0x5 EQ SWAP1 ISZERO OR ISZERO PUSH2 0x452 JUMPI PUSH1 0x64 SWAP1 DIV PUSH1 0x9 SSTORE PUSH1 0x1 PUSH1 0xFF NOT PUSH1 0xA SLOAD AND OR PUSH1 0xA SSTORE DUP1 RETURN JUMPDEST POP PUSH1 0x11 PUSH1 0x24 SWAP3 PUSH4 0x4E487B71 PUSH1 0xE0 SHL DUP4 MSTORE MSTORE REVERT JUMPDEST MLOAD PUSH3 0x461BCD PUSH1 0xE5 SHL DUP2 MSTORE PUSH1 0x20 DUP2 DUP7 ADD MSTORE PUSH1 0x2D PUSH1 0x24 DUP3 ADD MSTORE PUSH32 0x43616C6C6572206973206E6F7420617574686F72697A656420746F20656E6162 PUSH1 0x44 DUP3 ADD MSTORE PUSH32 0x6C65206D61782077616C6C657400000000000000000000000000000000000000 PUSH1 0x64 DUP3 ADD MSTORE PUSH1 0x84 SWAP1 REVERT JUMPDEST POP POP CALLVALUE PUSH2 0x11C JUMPI DUP2 PUSH1 0x3 NOT CALLDATASIZE ADD SLT PUSH2 0x11C JUMPI PUSH1 0x20 SWAP1 PUSH1 0x5 SLOAD SWAP1 MLOAD SWAP1 DUP2 MSTORE RETURN JUMPDEST POP POP CALLVALUE PUSH2 0x11C JUMPI DUP2 PUSH1 0x3 NOT CALLDATASIZE ADD SLT PUSH2 0x11C JUMPI PUSH1 0x20 SWAP1 MLOAD PUSH1 0x12 DUP2 MSTORE RETURN JUMPDEST SWAP1 POP DUP3 CALLVALUE PUSH2 0x36A JUMPI PUSH1 0x60 CALLDATASIZE PUSH1 0x3 NOT ADD SLT PUSH2 0x36A JUMPI PUSH2 0x524 PUSH2 0x81F JUMP JUMPDEST PUSH2 0x52C PUSH2 0x83A JUMP JUMPDEST SWAP2 PUSH1 0x44 CALLDATALOAD SWAP4 PUSH1 0x1 PUSH1 0x1 PUSH1 0xA0 SHL SUB DUP4 AND DUP1 DUP4 MSTORE PUSH1 0x1 PUSH1 0x20 MSTORE DUP7 DUP4 KECCAK256 CALLER DUP5 MSTORE PUSH1 0x20 MSTORE DUP7 DUP4 KECCAK256 SLOAD SWAP2 PUSH1 0x0 NOT DUP4 SUB PUSH2 0x569 JUMPI JUMPDEST PUSH1 0x20 DUP9 PUSH2 0x18A DUP10 DUP10 DUP10 PUSH2 0x8A0 JUMP JUMPDEST DUP7 DUP4 LT PUSH2 0x5CF JUMPI DUP2 ISZERO PUSH2 0x5B9 JUMPI CALLER ISZERO PUSH2 0x5A3 JUMPI POP DUP3 MSTORE PUSH1 0x1 PUSH1 0x20 SWAP1 DUP2 MSTORE DUP7 DUP4 KECCAK256 CALLER DUP5 MSTORE DUP2 MSTORE SWAP2 DUP7 SWAP1 KECCAK256 SWAP1 DUP6 SWAP1 SUB SWAP1 SSTORE DUP3 SWAP1 PUSH2 0x18A DUP8 PUSH2 0x55B JUMP JUMPDEST PUSH1 0x24 SWAP1 DUP5 DUP10 MLOAD SWAP2 PUSH4 0x4A1406B1 PUSH1 0xE1 SHL DUP4 MSTORE DUP3 ADD MSTORE REVERT JUMPDEST PUSH1 0x24 SWAP1 DUP5 DUP10 MLOAD SWAP2 PUSH4 0xE602DF05 PUSH1 0xE0 SHL DUP4 MSTORE DUP3 ADD MSTORE REVERT JUMPDEST DUP8 MLOAD PUSH32 0xFB8F41B200000000000000000000000000000000000000000000000000000000 DUP2 MSTORE CALLER SWAP2 DUP2 ADD SWAP2 DUP3 MSTORE PUSH1 0x20 DUP3 ADD SWAP4 SWAP1 SWAP4 MSTORE PUSH1 0x40 DUP2 ADD DUP8 SWAP1 MSTORE DUP3 SWAP2 POP PUSH1 0x60 ADD SUB SWAP1 REVERT JUMPDEST POP POP CALLVALUE PUSH2 0x11C JUMPI DUP2 PUSH1 0x3 NOT CALLDATASIZE ADD SLT PUSH2 0x11C JUMPI PUSH1 0x20 SWAP1 PUSH1 0x2 SLOAD SWAP1 MLOAD SWAP1 DUP2 MSTORE RETURN JUMPDEST SWAP1 POP CALLVALUE PUSH2 0x6DB JUMPI DUP2 PUSH1 0x3 NOT CALLDATASIZE ADD SLT PUSH2 0x6DB JUMPI PUSH2 0x64D PUSH2 0x81F JUMP JUMPDEST PUSH1 0x24 CALLDATALOAD SWAP1 CALLER ISZERO PUSH2 0x6C5 JUMPI PUSH1 0x1 PUSH1 0x1 PUSH1 0xA0 SHL SUB AND SWAP2 DUP3 ISZERO PUSH2 0x6AF JUMPI POP DUP1 DUP4 PUSH1 0x20 SWAP6 CALLER DUP2 MSTORE PUSH1 0x1 DUP8 MSTORE DUP2 DUP2 KECCAK256 DUP6 DUP3 MSTORE DUP8 MSTORE KECCAK256 SSTORE DUP3 MLOAD SWAP1 DUP2 MSTORE PUSH32 0x8C5BE1E5EBEC7D5BD14F71427D1E84F3DD0314C0F7B2291E5B200AC8C7C3B925 DUP5 CALLER SWAP3 LOG3 MLOAD PUSH1 0x1 DUP2 MSTORE RETURN JUMPDEST PUSH1 0x24 SWAP1 DUP6 DUP6 MLOAD SWAP2 PUSH4 0x4A1406B1 PUSH1 0xE1 SHL DUP4 MSTORE DUP3 ADD MSTORE REVERT JUMPDEST PUSH1 0x24 DUP4 DUP7 DUP7 MLOAD SWAP2 PUSH4 0xE602DF05 PUSH1 0xE0 SHL DUP4 MSTORE DUP3 ADD MSTORE REVERT JUMPDEST DUP3 DUP1 REVERT JUMPDEST DUP4 DUP4 CALLVALUE PUSH2 0x11C JUMPI DUP2 PUSH1 0x3 NOT CALLDATASIZE ADD SLT PUSH2 0x11C JUMPI DUP1 MLOAD SWAP1 DUP3 PUSH1 0x3 SLOAD PUSH1 0x1 DUP2 PUSH1 0x1 SHR SWAP1 PUSH1 0x1 DUP4 AND SWAP3 DUP4 ISZERO PUSH2 0x7B1 JUMPI JUMPDEST PUSH1 0x20 SWAP4 DUP5 DUP5 LT DUP2 EQ PUSH2 0x2BC JUMPI DUP4 DUP9 MSTORE SWAP1 DUP2 ISZERO PUSH2 0x2A0 JUMPI POP PUSH1 0x1 EQ PUSH2 0x75B JUMPI POP POP POP DUP3 SWAP1 SUB PUSH1 0x1F ADD PUSH1 0x1F NOT AND DUP3 ADD SWAP3 PUSH8 0xFFFFFFFFFFFFFFFF DUP5 GT DUP4 DUP6 LT OR PUSH2 0x238 JUMPI POP DUP3 SWAP2 DUP3 PUSH2 0x234 SWAP3 MSTORE DUP3 PUSH2 0x7D6 JUMP JUMPDEST PUSH1 0x3 DUP8 MSTORE SWAP2 SWAP3 POP DUP6 SWAP2 DUP4 PUSH32 0xC2575A0E9E593C00F959F8C92F12DB2869C3395A3B0502D05E2516446F71F85B JUMPDEST DUP4 DUP6 LT PUSH2 0x79D JUMPI POP POP POP POP DUP4 ADD ADD DUP6 DUP1 DUP1 PUSH2 0x202 JUMP JUMPDEST DUP1 SLOAD DUP9 DUP7 ADD DUP4 ADD MSTORE SWAP4 ADD SWAP3 DUP5 SWAP1 DUP3 ADD PUSH2 0x787 JUMP JUMPDEST SWAP2 PUSH1 0x7F AND SWAP2 PUSH2 0x70B JUMP JUMPDEST DUP5 SWAP1 CALLVALUE PUSH2 0x11C JUMPI DUP2 PUSH1 0x3 NOT CALLDATASIZE ADD SLT PUSH2 0x11C JUMPI DUP1 PUSH1 0x5 PUSH1 0x20 SWAP3 MSTORE RETURN JUMPDEST PUSH1 0x20 DUP1 DUP3 MSTORE DUP3 MLOAD DUP2 DUP4 ADD DUP2 SWAP1 MSTORE SWAP1 SWAP4 SWAP3 PUSH1 0x0 JUMPDEST DUP3 DUP2 LT PUSH2 0x80B JUMPI POP POP PUSH1 0x40 SWAP3 SWAP4 POP PUSH1 0x0 DUP4 DUP3 DUP5 ADD ADD MSTORE PUSH1 0x1F DUP1 NOT SWAP2 ADD AND ADD ADD SWAP1 JUMP JUMPDEST DUP2 DUP2 ADD DUP7 ADD MLOAD DUP5 DUP3 ADD PUSH1 0x40 ADD MSTORE DUP6 ADD PUSH2 0x7E9 JUMP JUMPDEST PUSH1 0x4 CALLDATALOAD SWAP1 PUSH1 0x1 PUSH1 0x1 PUSH1 0xA0 SHL SUB DUP3 AND DUP3 SUB PUSH2 0x835 JUMPI JUMP JUMPDEST PUSH1 0x0 DUP1 REVERT JUMPDEST PUSH1 0x24 CALLDATALOAD SWAP1 PUSH1 0x1 PUSH1 0x1 PUSH1 0xA0 SHL SUB DUP3 AND DUP3 SUB PUSH2 0x835 JUMPI JUMP JUMPDEST PUSH1 0xB SLOAD DUP2 LT ISZERO PUSH2 0x88A JUMPI PUSH1 0xB PUSH1 0x0 MSTORE PUSH1 0x1 SHL PUSH32 0x175B7A638427703F0DBE7BB9BBF987A2551717B34E79F33B5B1008D1FA01DB9 ADD SWAP1 PUSH1 0x0 SWAP1 JUMP JUMPDEST PUSH4 0x4E487B71 PUSH1 0xE0 SHL PUSH1 0x0 MSTORE PUSH1 0x32 PUSH1 0x4 MSTORE PUSH1 0x24 PUSH1 0x0 REVERT JUMPDEST SWAP3 SWAP2 SWAP1 PUSH1 0x1 PUSH1 0x1 PUSH1 0xA0 SHL SUB DUP1 DUP6 AND SWAP2 DUP3 ISZERO PUSH2 0xAE1 JUMPI DUP2 AND SWAP3 DUP4 ISZERO PUSH2 0xAB0 JUMPI PUSH1 0x0 SWAP2 ADDRESS DUP4 MSTORE PUSH1 0x20 SWAP3 PUSH1 0xC DUP5 MSTORE PUSH1 0x40 SWAP2 DUP3 DUP3 KECCAK256 SLOAD SWAP1 PUSH1 0x1 PUSH1 0xFF PUSH2 0x8E0 DUP5 PUSH2 0x850 JUMP JUMPDEST POP SLOAD PUSH1 0xA0 SHR AND ISZERO ISZERO EQ SWAP2 DUP3 PUSH2 0xAA1 JUMPI JUMPDEST DUP3 PUSH2 0xA96 JUMPI JUMPDEST DUP3 PUSH2 0xA8B JUMPI JUMPDEST DUP3 PUSH2 0xA6F JUMPI JUMPDEST POP POP PUSH2 0x9A9 JUMPI JUMPDEST DUP5 DUP2 MSTORE DUP1 DUP5 MSTORE DUP2 DUP2 KECCAK256 SLOAD SWAP8 DUP4 DUP10 LT PUSH2 0x960 JUMPI POP DUP1 DUP4 DUP7 SWAP8 SWAP9 SWAP10 PUSH32 0xDDF252AD1BE2C89B69C2B068FC378DAA952BA7F163C4A11628F55A4DF523B3EF SWAP8 DUP6 SWAP5 MSTORE DUP3 DUP8 MSTORE SUB DUP3 DUP3 KECCAK256 SSTORE DUP8 DUP2 MSTORE KECCAK256 DUP3 DUP2 SLOAD ADD SWAP1 SSTORE MLOAD SWAP1 DUP2 MSTORE LOG3 JUMP JUMPDEST DUP3 MLOAD PUSH32 0xE450D38C00000000000000000000000000000000000000000000000000000000 DUP2 MSTORE PUSH1 0x1 PUSH1 0x1 PUSH1 0xA0 SHL SUB SWAP2 SWAP1 SWAP2 AND PUSH1 0x4 DUP3 ADD MSTORE PUSH1 0x24 DUP2 ADD DUP10 SWAP1 MSTORE PUSH1 0x44 DUP2 ADD DUP5 SWAP1 MSTORE PUSH1 0x64 SWAP1 REVERT JUMPDEST PUSH1 0x2 SLOAD PUSH1 0x5 DUP2 MUL SWAP1 DUP1 DUP3 DIV PUSH1 0x5 EQ SWAP1 ISZERO OR ISZERO PUSH2 0xA5B JUMPI DUP7 DUP3 MSTORE DUP2 DUP6 MSTORE DUP3 DUP3 KECCAK256 SLOAD SWAP1 DUP5 DUP3 ADD DUP1 SWAP3 GT PUSH2 0xA47 JUMPI PUSH1 0x64 SWAP1 DIV LT ISZERO PUSH2 0x909 JUMPI PUSH1 0x84 DUP5 DUP4 MLOAD SWAP1 PUSH3 0x461BCD PUSH1 0xE5 SHL DUP3 MSTORE PUSH1 0x4 DUP3 ADD MSTORE PUSH1 0x36 PUSH1 0x24 DUP3 ADD MSTORE PUSH32 0x4D79546F6B656E3A205472616E7366657220616D6F756E742065786365656473 PUSH1 0x44 DUP3 ADD MSTORE PUSH32 0x20746865206D617820686F6C64696E67206C696D697400000000000000000000 PUSH1 0x64 DUP3 ADD MSTORE REVERT JUMPDEST PUSH1 0x24 DUP4 PUSH4 0x4E487B71 PUSH1 0xE0 SHL DUP2 MSTORE PUSH1 0x11 PUSH1 0x4 MSTORE REVERT JUMPDEST PUSH1 0x24 DUP3 PUSH4 0x4E487B71 PUSH1 0xE0 SHL DUP2 MSTORE PUSH1 0x11 PUSH1 0x4 MSTORE REVERT JUMPDEST PUSH1 0x1 SWAP2 SWAP3 POP PUSH2 0xA7D SWAP1 PUSH2 0x850 JUMP JUMPDEST POP ADD SLOAD AND DUP7 EQ ISZERO CODESIZE DUP1 PUSH2 0x902 JUMP JUMPDEST DUP8 DUP10 EQ ISZERO SWAP3 POP PUSH2 0x8FC JUMP JUMPDEST ADDRESS DUP10 EQ ISZERO SWAP3 POP PUSH2 0x8F6 JUMP JUMPDEST PUSH1 0x7 SLOAD DUP3 AND DUP10 EQ ISZERO SWAP3 POP PUSH2 0x8F0 JUMP JUMPDEST PUSH1 0x24 PUSH1 0x40 MLOAD PUSH32 0xEC442F0500000000000000000000000000000000000000000000000000000000 DUP2 MSTORE PUSH1 0x0 PUSH1 0x4 DUP3 ADD MSTORE REVERT JUMPDEST PUSH1 0x24 PUSH1 0x40 MLOAD PUSH32 0x96C6FD1E00000000000000000000000000000000000000000000000000000000 DUP2 MSTORE PUSH1 0x0 PUSH1 0x4 DUP3 ADD MSTORE REVERT INVALID LOG2 PUSH5 0x6970667358 0x22 SLT KECCAK256 DUP3 RETURNDATASIZE 0xD4 0xFC ADD SAR BALANCE PUSH20 0x36007060E7E66104928503805E3315EC5C15AA56 0xDB BYTE 0xC7 0xB3 PUSH5 0x736F6C6343 STOP ADDMOD XOR STOP CALLER "},"methodIdentifiers":{"MAX_WALLET_PERCENTAGE()":"06647125","allTokens(uint256)":"634282af","allowance(address,address)":"dd62ed3e","approve(address,uint256)":"095ea7b3","balanceOf(address)":"70a08231","decimals()":"313ce567","enableMaxWalletLimit(address)":"5edfd7ce","factoryAddress()":"966dae0e","maxHolding()":"333e6f06","maxWalletAmount()":"aa4bde28","maxWalletEnabled()":"d045a329","name()":"06fdde03","symbol()":"95d89b41","totalSupply()":"18160ddd","transfer(address,uint256)":"a9059cbb","transferFrom(address,address,uint256)":"23b872dd"}}}}}