{"contracts/FactoryExtra.sol":{"FactoryHelper":{"abi":[{"inputs":[{"internalType":"address","name":"_positionManager","type":"address"},{"internalType":"address","name":"_weth","type":"address"},{"internalType":"address","name":"_uniswapFactory","type":"address"},{"internalType":"address","name":"_swapRouter","type":"address"},{"internalType":"address","name":"_lockerAddress","type":"address"},{"internalType":"address","name":"_teamWallet","type":"address"},{"internalType":"address","name":"_quoterAddress","type":"address"}],"stateMutability":"nonpayable","type":"constructor"},{"anonymous":false,"inputs":[{"indexed":true,"internalType":"address","name":"token","type":"address"},{"indexed":false,"internalType":"uint256","name":"tokenId","type":"uint256"},{"indexed":false,"internalType":"string","name":"eventType","type":"string"},{"indexed":false,"internalType":"uint256","name":"amount0","type":"uint256"},{"indexed":false,"internalType":"uint256","name":"amount1","type":"uint256"}],"name":"LiquidityEvent","type":"event"},{"anonymous":false,"inputs":[{"indexed":false,"internalType":"uint256","name":"amountOut","type":"uint256"}],"name":"TokensSwapped","type":"event"},{"inputs":[{"internalType":"address","name":"token0","type":"address"},{"internalType":"address","name":"token1","type":"address"},{"internalType":"uint256","name":"token0amount","type":"uint256"},{"internalType":"uint256","name":"token1amount","type":"uint256"}],"name":"addLiquidityHelper","outputs":[{"internalType":"address","name":"poolAddress","type":"address"},{"internalType":"uint256","name":"tokenId","type":"uint256"}],"stateMutability":"nonpayable","type":"function"},{"inputs":[],"name":"deadAddress","outputs":[{"internalType":"address","name":"","type":"address"}],"stateMutability":"view","type":"function"},{"inputs":[{"internalType":"address","name":"tokenIn","type":"address"},{"internalType":"address","name":"tokenOut","type":"address"},{"internalType":"uint256","name":"amountIn","type":"uint256"},{"internalType":"uint256","name":"amountOutMinimum","type":"uint256"},{"internalType":"address","name":"recipient","type":"address"}],"name":"executeSwap","outputs":[{"internalType":"uint256","name":"amountOut","type":"uint256"}],"stateMutability":"nonpayable","type":"function"},{"inputs":[],"name":"factoryHelper","outputs":[{"internalType":"contract FactoryHelper","name":"","type":"address"}],"stateMutability":"view","type":"function"},{"inputs":[{"internalType":"address","name":"poolAddress","type":"address"},{"internalType":"uint32","name":"twapInterval","type":"uint32"}],"name":"getTWAPPrice","outputs":[{"internalType":"uint256","name":"price","type":"uint256"}],"stateMutability":"view","type":"function"},{"inputs":[],"name":"locker","outputs":[{"internalType":"contract ILocker","name":"","type":"address"}],"stateMutability":"view","type":"function"},{"inputs":[],"name":"lockerAddress","outputs":[{"internalType":"address","name":"","type":"address"}],"stateMutability":"view","type":"function"},{"inputs":[],"name":"nftAddress","outputs":[{"internalType":"address","name":"","type":"address"}],"stateMutability":"view","type":"function"},{"inputs":[],"name":"owner","outputs":[{"internalType":"address","name":"","type":"address"}],"stateMutability":"view","type":"function"},{"inputs":[],"name":"positionManager","outputs":[{"internalType":"contract INonfungiblePositionManager","name":"","type":"address"}],"stateMutability":"view","type":"function"},{"inputs":[],"name":"quoter","outputs":[{"internalType":"contract IQuoterV2","name":"","type":"address"}],"stateMutability":"view","type":"function"},{"inputs":[{"internalType":"uint256","name":"tokenId","type":"uint256"},{"internalType":"uint128","name":"liquidityToRemove","type":"uint128"}],"name":"removeLiquidity","outputs":[{"internalType":"uint256","name":"","type":"uint256"},{"internalType":"uint256","name":"","type":"uint256"}],"stateMutability":"nonpayable","type":"function"},{"inputs":[],"name":"swapRouter","outputs":[{"internalType":"contract ISwapRouter","name":"","type":"address"}],"stateMutability":"view","type":"function"},{"inputs":[],"name":"teamWallet","outputs":[{"internalType":"address","name":"","type":"address"}],"stateMutability":"view","type":"function"},{"inputs":[],"name":"uniswapFactory","outputs":[{"internalType":"contract IUniswapV3Factory","name":"","type":"address"}],"stateMutability":"view","type":"function"},{"inputs":[],"name":"weth","outputs":[{"internalType":"address","name":"","type":"address"}],"stateMutability":"view","type":"function"}],"evm":{"bytecode":{"linkReferences":{},"object":"6080346200014357601f620015cc38819003918201601f19168301916001600160401b03831184841017620001485780849260e09460405283398101031262000143576200004d816200015e565b6200005b602083016200015e565b916200006a604082016200015e565b9062000079606082016200015e565b9062000088608082016200015e565b93620000a560c06200009d60a085016200015e565b93016200015e565b9360018060a01b031996879261dead84600154161760015560018060a01b03978880978180968180961680996002541617600255168c6003541617600355168a6004541617600455169283896007541617600755886009541617600955168660005416176000553386600854161760085585600a541617600a551683600b541617600b55169060055416176005556040516114589081620001748239f35b600080fd5b634e487b7160e01b600052604160045260246000fd5b51906001600160a01b0382168203620001435756fe608080604052600436101561001357600080fd5b60003560e01c90816327c8f8351461118e575080633675f29b146111675780633fc8cef31461114057806359927044146111195780635bf8633a146110f257806369f684ea14610d6557806373d84e4214610bf3578063791b98bc14610bcc5780638bdb2afa14610ba55780638be32a411461038d5780638da5cb5b14610366578063911757ba14610170578063c31c9c0714610149578063c6bbd5a714610122578063d7b96d4e146100fb5763fd53f53b146100cf57600080fd5b346100f65760003660031901126100f65760206001600160a01b0360065416604051908152f35b600080fd5b346100f65760003660031901126100f65760206001600160a01b0360075416604051908152f35b346100f65760003660031901126100f65760206001600160a01b0360055416604051908152f35b346100f65760003660031901126100f65760206001600160a01b0360045416604051908152f35b346100f65760403660031901126100f6576004356024356fffffffffffffffffffffffffffffffff8082168092036100f6576001600160a01b03928360025416926040519060a082019067ffffffffffffffff9583831087841117610332578593600060a4926040958652878352602083019485528583018281526060840183815260808501914283528851998a9889977f0c49ccbe000000000000000000000000000000000000000000000000000000008952516004890152511660248701525160448601525160648501525160848401525af1801561032657610348575b506002546040519085169360808201908111828210176103325760409460849360009287528352602083019433865286840181815281606086019181835289519a8b998a987ffc6f7865000000000000000000000000000000000000000000000000000000008a525160048a01525116602488015251166044860152511660648401525af1908115610326576040916000916000916102f7575b5082519182526020820152f35b90506103199150823d841161031f575b61031181836111f5565b8101906112bb565b836102ea565b503d610307565b6040513d6000823e3d90fd5b634e487b7160e01b600052604160045260246000fd5b6103609060403d60401161031f5761031181836111f5565b50610250565b346100f65760003660031901126100f65760206001600160a01b0360085416604051908152f35b346100f65760403660031901126100f6576103a66111b2565b6024359063ffffffff821682036100f6576060518015610a355763ffffffff831660805260011015610a3557600060a052604051907f883bdbfd000000000000000000000000000000000000000000000000000000008252816024810160206004830152606051809152604482019060809060005b818110610b865750505091816001600160a01b03816000950392165afa90811561032657600091610a4b575b50805160011015610a3557604081015190805115610a35576020015160060b9060060b03667fffffffffffff1991667fffffffffffff82138383121761063a5763ffffffff1660030b9060060b811561066f576000199281148284141661063a570560020b906000821215610a2f577f8000000000000000000000000000000000000000000000000000000000000000821461063a5781600003915b620d89e883116109eb5760018316156109c25770ffffffffffffffffffffffffffffffffff6ffffcb933bd6fad37aa2d162d1a5940015b169260028116610996575b6004811661096a575b6008811661093e575b60108116610912575b602081166108e6575b604081166108ba575b6080811661088e575b6101008116610862575b6102008116610836575b610400811661080a575b61080081166107de575b61100081166107b2575b6120008116610786575b614000811661075a575b618000811661072e575b620100008116610702575b6202000081166106d7575b6204000081166106ad575b6208000016610685575b600012610659575b506001600160a01b0361060c6106129263ffffffff8116156000146106505760ff60005b169060201c6111e8565b1661122f565b670de0b6b3a76400009081810291818304149015171561063a576020906040519060c01c8152f35b634e487b7160e01b600052601160045260246000fd5b60ff6001610602565b90801561066f5790046001600160a01b036105de565b634e487b7160e01b600052601260045260246000fd5b916b048a170391f7dc42444e8fa29081810291818304149015171561063a5760801c916105d6565b926d2216e584f5fa1ea926041bedfe989081810291818304149015171561063a5760801c926105cc565b926e5d6af8dedb81196699c329225ee6049081810291818304149015171561063a5760801c926105c1565b926f09aa508b5b7a84e1c677de54f3e99bc99081810291818304149015171561063a5760801c926105b6565b926f31be135f97d08fd981231505542fcfa69081810291818304149015171561063a5760801c926105ab565b926f70d869a156d2a1b890bb3df62baf32f79081810291818304149015171561063a5760801c926105a1565b926fa9f746462d870fdf8a65dc1f90e061e59081810291818304149015171561063a5760801c92610597565b926fd097f3bdfd2022b8845ad8f792aa58259081810291818304149015171561063a5760801c9261058d565b926fe7159475a2c29b7443b29c7fa6e889d99081810291818304149015171561063a5760801c92610583565b926ff3392b0822b70005940c7a398e4b70f39081810291818304149015171561063a5760801c92610579565b926ff987a7253ac413176f2b074cf7815e549081810291818304149015171561063a5760801c9261056f565b926ffcbe86c7900a88aedcffc83b479aa3a49081810291818304149015171561063a5760801c92610565565b926ffe5dee046a99a2a811c461f1969c30539081810291818304149015171561063a5760801c9261055b565b926fff2ea16466c96a3843ec78b326b528619081810291818304149015171561063a5760801c92610552565b926fff973b41fa98c081472e6896dfb254c09081810291818304149015171561063a5760801c92610549565b926fffcb9843d60f6159c9db58835c9266449081810291818304149015171561063a5760801c92610540565b926fffe5caca7e10e4e61c3624eaa0941cd09081810291818304149015171561063a5760801c92610537565b926ffff2e50f5f656932ef12357cf3c7fdcc9081810291818304149015171561063a5760801c9261052e565b926ffff97272373d413259a46990580e213a9081810291818304149015171561063a5760801c92610525565b70ffffffffffffffffffffffffffffffffff70010000000000000000000000000000000061051a565b606460405162461bcd60e51b815260206004820152600160248201527f54000000000000000000000000000000000000000000000000000000000000006044820152fd5b816104e3565b634e487b7160e01b600052603260045260246000fd5b90503d806000833e610a5d81836111f5565b60408282810103126100f65781519167ffffffffffffffff83116100f657818101601f8483010112156100f6578281015192610a9884611217565b93610aa660405195866111f5565b808552602085019184840160208360051b8387010101116100f65791602083850101925b60208360051b82870101018410610b665750505050602081015167ffffffffffffffff81116100f6578101828201601f820112156100f657805192602080610b1186611217565b610b1e60405191826111f5565b868152019460051b830101920182116100f657602001915b818310610b465750505082610447565b82516001600160a01b03811681036100f657815260209283019201610b36565b8351918260060b83036100f6576020818194829352019401939150610aca565b825163ffffffff1684528694506020938401939092019160010161041b565b346100f65760003660031901126100f65760206001600160a01b0360035416604051908152f35b346100f65760003660031901126100f65760206001600160a01b0360025416604051908152f35b346100f65760a03660031901126100f657610c0c6111b2565b610c146111c8565b906084356001600160a01b03928382168092036100f6576040519060e0820182811067ffffffffffffffff82111761033257859485916040521682526020948593818585019316835260408401906127108252606085019081526080850160443581528360a0870192606435845260c088019460008652828060045416986040519c8d9b7f04e45aaf000000000000000000000000000000000000000000000000000000008d52511660048c0152511660248a01525162ffffff166044890152511660648701525160848601525160a4850152511660c4830152815a60e492600091f190811561032657600091610d38575b507fdb04c7a6d4758fd55d738ebc67e7f3010ac922be00771ef29521a4090d1eb13f82604051838152a1604051908152f35b90508181813d8311610d5e575b610d4f81836111f5565b810103126100f6575182610d06565b503d610d45565b346100f65760803660031901126100f657610d7e6111b2565b610d866111c8565b604435606435670de0b6b3a764000080820290828204148215171561063a5782610daf916111de565b91600060038411156110e35750826001908060011c6001810180911161063a5791905b8583106110c3575050505b8260601b928084046c01000000000000000000000000149015171561063a576001600160a01b036002541692604051947f13ead5620000000000000000000000000000000000000000000000000000000086526001600160a01b0387169687600488015260208760848160006001600160a01b0387169a8b60248401526001600160a01b03633b9aca006127109a8b6044870152041660648401525af19687156103265760009761107d575b50610eb891610ea68587936001600160a01b0360025416906112d1565b6001600160a01b0360025416906112d1565b61012c42019384421161063a5760405196610160880188811067ffffffffffffffff82111761033257604052875260208701526040860152620d899f196060860152620d89a0608086015260a085015260c0840152600060e084015260006101008401523061012084015261014083015260806101406101646001600160a01b036002541694600060405196879485937f883164560000000000000000000000000000000000000000000000000000000085526001600160a01b0381511660048601526001600160a01b03602082015116602486015262ffffff6040820151166044860152606081015160020b60648601528781015160020b608486015260a081015160a486015260c081015160c486015260e081015160e48601526101008101516101048601526001600160a01b036101208201511661012486015201516101448401525af19182156103265760009261102b575b50604080516001600160a01b039290921682526020820192909252f35b9091506080813d608011611075575b81611047608093836111f5565b810103126100f657602081519101516fffffffffffffffffffffffffffffffff8116036100f657908261100e565b3d915061103a565b9096506020813d6020116110bb575b81611099602093836111f5565b810103126100f657516001600160a01b03811681036100f65795610eb8610e89565b3d915061108c565b909194506110da856110d581846111de565b6111e8565b821c9190610dd2565b9215610ddd5760019250610ddd565b346100f65760003660031901126100f65760206001600160a01b0360095416604051908152f35b346100f65760003660031901126100f65760206001600160a01b03600b5416604051908152f35b346100f65760003660031901126100f65760206001600160a01b0360005416604051908152f35b346100f65760003660031901126100f65760206001600160a01b03600a5416604051908152f35b346100f65760003660031901126100f6576020906001600160a01b03600154168152f35b600435906001600160a01b03821682036100f657565b602435906001600160a01b03821682036100f657565b811561066f570490565b9190820180921161063a57565b90601f8019910116810190811067ffffffffffffffff82111761033257604052565b67ffffffffffffffff81116103325760051b60200190565b80156112b55780806001146112ae576002146112a8576001908161013382101682600b831016176112a057906002815b8082116112775750508160001904811161063a570290565b90928060001904811161063a57818416611297575b800292811c9061125f565b8092029161128c565b600291500a90565b50600490565b5050600190565b50600090565b91908260409103126100f6576020825192015190565b6040517f095ea7b30000000000000000000000000000000000000000000000000000000060208083019182526001600160a01b039490941660248301526044808301959095529381529192601f199261132b6064826111f5565b600092839283809351925af1913d1561141a573d67ffffffffffffffff8111611406576113628560405193601f84011601836111f5565b81523d828583013e5b826113bf575b50501561137b5750565b6064906040519062461bcd60e51b82526004820152600260248201527f53410000000000000000000000000000000000000000000000000000000000006044820152fd5b80519250821591908483156113db575b50505090503880611371565b919381809450010312611402578201519081151582036113ff5750803880846113cf565b80fd5b5080fd5b602483634e487b7160e01b81526041600452fd5b50606061136b56fea26469706673582212207e6f177edb06613906175db338dda659ff3b626a7b840888ea2b531b5f8f086e64736f6c63430008180033","opcodes":"PUSH1 0x80 CALLVALUE PUSH3 0x143 JUMPI PUSH1 0x1F PUSH3 0x15CC CODESIZE DUP2 SWAP1 SUB SWAP2 DUP3 ADD PUSH1 0x1F NOT AND DUP4 ADD SWAP2 PUSH1 0x1 PUSH1 0x1 PUSH1 0x40 SHL SUB DUP4 GT DUP5 DUP5 LT OR PUSH3 0x148 JUMPI DUP1 DUP5 SWAP3 PUSH1 0xE0 SWAP5 PUSH1 0x40 MSTORE DUP4 CODECOPY DUP2 ADD SUB SLT PUSH3 0x143 JUMPI PUSH3 0x4D DUP2 PUSH3 0x15E JUMP JUMPDEST PUSH3 0x5B PUSH1 0x20 DUP4 ADD PUSH3 0x15E JUMP JUMPDEST SWAP2 PUSH3 0x6A PUSH1 0x40 DUP3 ADD PUSH3 0x15E JUMP JUMPDEST SWAP1 PUSH3 0x79 PUSH1 0x60 DUP3 ADD PUSH3 0x15E JUMP JUMPDEST SWAP1 PUSH3 0x88 PUSH1 0x80 DUP3 ADD PUSH3 0x15E JUMP JUMPDEST SWAP4 PUSH3 0xA5 PUSH1 0xC0 PUSH3 0x9D PUSH1 0xA0 DUP6 ADD PUSH3 0x15E JUMP JUMPDEST SWAP4 ADD PUSH3 0x15E JUMP JUMPDEST SWAP4 PUSH1 0x1 DUP1 PUSH1 0xA0 SHL SUB NOT SWAP7 DUP8 SWAP3 PUSH2 0xDEAD DUP5 PUSH1 0x1 SLOAD AND OR PUSH1 0x1 SSTORE PUSH1 0x1 DUP1 PUSH1 0xA0 SHL SUB SWAP8 DUP9 DUP1 SWAP8 DUP2 DUP1 SWAP7 DUP2 DUP1 SWAP7 AND DUP1 SWAP10 PUSH1 0x2 SLOAD AND OR PUSH1 0x2 SSTORE AND DUP13 PUSH1 0x3 SLOAD AND OR PUSH1 0x3 SSTORE AND DUP11 PUSH1 0x4 SLOAD AND OR PUSH1 0x4 SSTORE AND SWAP3 DUP4 DUP10 PUSH1 0x7 SLOAD AND OR PUSH1 0x7 SSTORE DUP9 PUSH1 0x9 SLOAD AND OR PUSH1 0x9 SSTORE AND DUP7 PUSH1 0x0 SLOAD AND OR PUSH1 0x0 SSTORE CALLER DUP7 PUSH1 0x8 SLOAD AND OR PUSH1 0x8 SSTORE DUP6 PUSH1 0xA SLOAD AND OR PUSH1 0xA SSTORE AND DUP4 PUSH1 0xB SLOAD AND OR PUSH1 0xB SSTORE AND SWAP1 PUSH1 0x5 SLOAD AND OR PUSH1 0x5 SSTORE PUSH1 0x40 MLOAD PUSH2 0x1458 SWAP1 DUP2 PUSH3 0x174 DUP3 CODECOPY RETURN JUMPDEST PUSH1 0x0 DUP1 REVERT JUMPDEST PUSH4 0x4E487B71 PUSH1 0xE0 SHL PUSH1 0x0 MSTORE PUSH1 0x41 PUSH1 0x4 MSTORE PUSH1 0x24 PUSH1 0x0 REVERT JUMPDEST MLOAD SWAP1 PUSH1 0x1 PUSH1 0x1 PUSH1 0xA0 SHL SUB DUP3 AND DUP3 SUB PUSH3 0x143 JUMPI JUMP INVALID PUSH1 0x80 DUP1 PUSH1 0x40 MSTORE PUSH1 0x4 CALLDATASIZE LT ISZERO PUSH2 0x13 JUMPI PUSH1 0x0 DUP1 REVERT JUMPDEST PUSH1 0x0 CALLDATALOAD PUSH1 0xE0 SHR SWAP1 DUP2 PUSH4 0x27C8F835 EQ PUSH2 0x118E JUMPI POP DUP1 PUSH4 0x3675F29B EQ PUSH2 0x1167 JUMPI DUP1 PUSH4 0x3FC8CEF3 EQ PUSH2 0x1140 JUMPI DUP1 PUSH4 0x59927044 EQ PUSH2 0x1119 JUMPI DUP1 PUSH4 0x5BF8633A EQ PUSH2 0x10F2 JUMPI DUP1 PUSH4 0x69F684EA EQ PUSH2 0xD65 JUMPI DUP1 PUSH4 0x73D84E42 EQ PUSH2 0xBF3 JUMPI DUP1 PUSH4 0x791B98BC EQ PUSH2 0xBCC JUMPI DUP1 PUSH4 0x8BDB2AFA EQ PUSH2 0xBA5 JUMPI DUP1 PUSH4 0x8BE32A41 EQ PUSH2 0x38D JUMPI DUP1 PUSH4 0x8DA5CB5B EQ PUSH2 0x366 JUMPI DUP1 PUSH4 0x911757BA EQ PUSH2 0x170 JUMPI DUP1 PUSH4 0xC31C9C07 EQ PUSH2 0x149 JUMPI DUP1 PUSH4 0xC6BBD5A7 EQ PUSH2 0x122 JUMPI DUP1 PUSH4 0xD7B96D4E EQ PUSH2 0xFB JUMPI PUSH4 0xFD53F53B EQ PUSH2 0xCF JUMPI PUSH1 0x0 DUP1 REVERT JUMPDEST CALLVALUE PUSH2 0xF6 JUMPI PUSH1 0x0 CALLDATASIZE PUSH1 0x3 NOT ADD SLT PUSH2 0xF6 JUMPI PUSH1 0x20 PUSH1 0x1 PUSH1 0x1 PUSH1 0xA0 SHL SUB PUSH1 0x6 SLOAD AND PUSH1 0x40 MLOAD SWAP1 DUP2 MSTORE RETURN JUMPDEST PUSH1 0x0 DUP1 REVERT JUMPDEST CALLVALUE PUSH2 0xF6 JUMPI PUSH1 0x0 CALLDATASIZE PUSH1 0x3 NOT ADD SLT PUSH2 0xF6 JUMPI PUSH1 0x20 PUSH1 0x1 PUSH1 0x1 PUSH1 0xA0 SHL SUB PUSH1 0x7 SLOAD AND PUSH1 0x40 MLOAD SWAP1 DUP2 MSTORE RETURN JUMPDEST CALLVALUE PUSH2 0xF6 JUMPI PUSH1 0x0 CALLDATASIZE PUSH1 0x3 NOT ADD SLT PUSH2 0xF6 JUMPI PUSH1 0x20 PUSH1 0x1 PUSH1 0x1 PUSH1 0xA0 SHL SUB PUSH1 0x5 SLOAD AND PUSH1 0x40 MLOAD SWAP1 DUP2 MSTORE RETURN JUMPDEST CALLVALUE PUSH2 0xF6 JUMPI PUSH1 0x0 CALLDATASIZE PUSH1 0x3 NOT ADD SLT PUSH2 0xF6 JUMPI PUSH1 0x20 PUSH1 0x1 PUSH1 0x1 PUSH1 0xA0 SHL SUB PUSH1 0x4 SLOAD AND PUSH1 0x40 MLOAD SWAP1 DUP2 MSTORE RETURN JUMPDEST CALLVALUE PUSH2 0xF6 JUMPI PUSH1 0x40 CALLDATASIZE PUSH1 0x3 NOT ADD SLT PUSH2 0xF6 JUMPI PUSH1 0x4 CALLDATALOAD PUSH1 0x24 CALLDATALOAD PUSH16 0xFFFFFFFFFFFFFFFFFFFFFFFFFFFFFFFF DUP1 DUP3 AND DUP1 SWAP3 SUB PUSH2 0xF6 JUMPI PUSH1 0x1 PUSH1 0x1 PUSH1 0xA0 SHL SUB SWAP3 DUP4 PUSH1 0x2 SLOAD AND SWAP3 PUSH1 0x40 MLOAD SWAP1 PUSH1 0xA0 DUP3 ADD SWAP1 PUSH8 0xFFFFFFFFFFFFFFFF SWAP6 DUP4 DUP4 LT DUP8 DUP5 GT OR PUSH2 0x332 JUMPI DUP6 SWAP4 PUSH1 0x0 PUSH1 0xA4 SWAP3 PUSH1 0x40 SWAP6 DUP7 MSTORE DUP8 DUP4 MSTORE PUSH1 0x20 DUP4 ADD SWAP5 DUP6 MSTORE DUP6 DUP4 ADD DUP3 DUP2 MSTORE PUSH1 0x60 DUP5 ADD DUP4 DUP2 MSTORE PUSH1 0x80 DUP6 ADD SWAP2 TIMESTAMP DUP4 MSTORE DUP9 MLOAD SWAP10 DUP11 SWAP9 DUP10 SWAP8 PUSH32 0xC49CCBE00000000000000000000000000000000000000000000000000000000 DUP10 MSTORE MLOAD PUSH1 0x4 DUP10 ADD MSTORE MLOAD AND PUSH1 0x24 DUP8 ADD MSTORE MLOAD PUSH1 0x44 DUP7 ADD MSTORE MLOAD PUSH1 0x64 DUP6 ADD MSTORE MLOAD PUSH1 0x84 DUP5 ADD MSTORE GAS CALL DUP1 ISZERO PUSH2 0x326 JUMPI PUSH2 0x348 JUMPI JUMPDEST POP PUSH1 0x2 SLOAD PUSH1 0x40 MLOAD SWAP1 DUP6 AND SWAP4 PUSH1 0x80 DUP3 ADD SWAP1 DUP2 GT DUP3 DUP3 LT OR PUSH2 0x332 JUMPI PUSH1 0x40 SWAP5 PUSH1 0x84 SWAP4 PUSH1 0x0 SWAP3 DUP8 MSTORE DUP4 MSTORE PUSH1 0x20 DUP4 ADD SWAP5 CALLER DUP7 MSTORE DUP7 DUP5 ADD DUP2 DUP2 MSTORE DUP2 PUSH1 0x60 DUP7 ADD SWAP2 DUP2 DUP4 MSTORE DUP10 MLOAD SWAP11 DUP12 SWAP10 DUP11 SWAP9 PUSH32 0xFC6F786500000000000000000000000000000000000000000000000000000000 DUP11 MSTORE MLOAD PUSH1 0x4 DUP11 ADD MSTORE MLOAD AND PUSH1 0x24 DUP9 ADD MSTORE MLOAD AND PUSH1 0x44 DUP7 ADD MSTORE MLOAD AND PUSH1 0x64 DUP5 ADD MSTORE GAS CALL SWAP1 DUP2 ISZERO PUSH2 0x326 JUMPI PUSH1 0x40 SWAP2 PUSH1 0x0 SWAP2 PUSH1 0x0 SWAP2 PUSH2 0x2F7 JUMPI JUMPDEST POP DUP3 MLOAD SWAP2 DUP3 MSTORE PUSH1 0x20 DUP3 ADD MSTORE RETURN JUMPDEST SWAP1 POP PUSH2 0x319 SWAP2 POP DUP3 RETURNDATASIZE DUP5 GT PUSH2 0x31F JUMPI JUMPDEST PUSH2 0x311 DUP2 DUP4 PUSH2 0x11F5 JUMP JUMPDEST DUP2 ADD SWAP1 PUSH2 0x12BB JUMP JUMPDEST DUP4 PUSH2 0x2EA JUMP JUMPDEST POP RETURNDATASIZE PUSH2 0x307 JUMP JUMPDEST PUSH1 0x40 MLOAD RETURNDATASIZE PUSH1 0x0 DUP3 RETURNDATACOPY RETURNDATASIZE SWAP1 REVERT JUMPDEST PUSH4 0x4E487B71 PUSH1 0xE0 SHL PUSH1 0x0 MSTORE PUSH1 0x41 PUSH1 0x4 MSTORE PUSH1 0x24 PUSH1 0x0 REVERT JUMPDEST PUSH2 0x360 SWAP1 PUSH1 0x40 RETURNDATASIZE PUSH1 0x40 GT PUSH2 0x31F JUMPI PUSH2 0x311 DUP2 DUP4 PUSH2 0x11F5 JUMP JUMPDEST POP PUSH2 0x250 JUMP JUMPDEST CALLVALUE PUSH2 0xF6 JUMPI PUSH1 0x0 CALLDATASIZE PUSH1 0x3 NOT ADD SLT PUSH2 0xF6 JUMPI PUSH1 0x20 PUSH1 0x1 PUSH1 0x1 PUSH1 0xA0 SHL SUB PUSH1 0x8 SLOAD AND PUSH1 0x40 MLOAD SWAP1 DUP2 MSTORE RETURN JUMPDEST CALLVALUE PUSH2 0xF6 JUMPI PUSH1 0x40 CALLDATASIZE PUSH1 0x3 NOT ADD SLT PUSH2 0xF6 JUMPI PUSH2 0x3A6 PUSH2 0x11B2 JUMP JUMPDEST PUSH1 0x24 CALLDATALOAD SWAP1 PUSH4 0xFFFFFFFF DUP3 AND DUP3 SUB PUSH2 0xF6 JUMPI PUSH1 0x60 MLOAD DUP1 ISZERO PUSH2 0xA35 JUMPI PUSH4 0xFFFFFFFF DUP4 AND PUSH1 0x80 MSTORE PUSH1 0x1 LT ISZERO PUSH2 0xA35 JUMPI PUSH1 0x0 PUSH1 0xA0 MSTORE PUSH1 0x40 MLOAD SWAP1 PUSH32 0x883BDBFD00000000000000000000000000000000000000000000000000000000 DUP3 MSTORE DUP2 PUSH1 0x24 DUP2 ADD PUSH1 0x20 PUSH1 0x4 DUP4 ADD MSTORE PUSH1 0x60 MLOAD DUP1 SWAP2 MSTORE PUSH1 0x44 DUP3 ADD SWAP1 PUSH1 0x80 SWAP1 PUSH1 0x0 JUMPDEST DUP2 DUP2 LT PUSH2 0xB86 JUMPI POP POP POP SWAP2 DUP2 PUSH1 0x1 PUSH1 0x1 PUSH1 0xA0 SHL SUB DUP2 PUSH1 0x0 SWAP6 SUB SWAP3 AND GAS STATICCALL SWAP1 DUP2 ISZERO PUSH2 0x326 JUMPI PUSH1 0x0 SWAP2 PUSH2 0xA4B JUMPI JUMPDEST POP DUP1 MLOAD PUSH1 0x1 LT ISZERO PUSH2 0xA35 JUMPI PUSH1 0x40 DUP2 ADD MLOAD SWAP1 DUP1 MLOAD ISZERO PUSH2 0xA35 JUMPI PUSH1 0x20 ADD MLOAD PUSH1 0x6 SIGNEXTEND SWAP1 PUSH1 0x6 SIGNEXTEND SUB PUSH7 0x7FFFFFFFFFFFFF NOT SWAP2 PUSH7 0x7FFFFFFFFFFFFF DUP3 SGT DUP4 DUP4 SLT OR PUSH2 0x63A JUMPI PUSH4 0xFFFFFFFF AND PUSH1 0x3 SIGNEXTEND SWAP1 PUSH1 0x6 SIGNEXTEND DUP2 ISZERO PUSH2 0x66F JUMPI PUSH1 0x0 NOT SWAP3 DUP2 EQ DUP3 DUP5 EQ AND PUSH2 0x63A JUMPI SDIV PUSH1 0x2 SIGNEXTEND SWAP1 PUSH1 0x0 DUP3 SLT ISZERO PUSH2 0xA2F JUMPI PUSH32 0x8000000000000000000000000000000000000000000000000000000000000000 DUP3 EQ PUSH2 0x63A JUMPI DUP2 PUSH1 0x0 SUB SWAP2 JUMPDEST PUSH3 0xD89E8 DUP4 GT PUSH2 0x9EB JUMPI PUSH1 0x1 DUP4 AND ISZERO PUSH2 0x9C2 JUMPI PUSH17 0xFFFFFFFFFFFFFFFFFFFFFFFFFFFFFFFFFF PUSH16 0xFFFCB933BD6FAD37AA2D162D1A594001 JUMPDEST AND SWAP3 PUSH1 0x2 DUP2 AND PUSH2 0x996 JUMPI JUMPDEST PUSH1 0x4 DUP2 AND PUSH2 0x96A JUMPI JUMPDEST PUSH1 0x8 DUP2 AND PUSH2 0x93E JUMPI JUMPDEST PUSH1 0x10 DUP2 AND PUSH2 0x912 JUMPI JUMPDEST PUSH1 0x20 DUP2 AND PUSH2 0x8E6 JUMPI JUMPDEST PUSH1 0x40 DUP2 AND PUSH2 0x8BA JUMPI JUMPDEST PUSH1 0x80 DUP2 AND PUSH2 0x88E JUMPI JUMPDEST PUSH2 0x100 DUP2 AND PUSH2 0x862 JUMPI JUMPDEST PUSH2 0x200 DUP2 AND PUSH2 0x836 JUMPI JUMPDEST PUSH2 0x400 DUP2 AND PUSH2 0x80A JUMPI JUMPDEST PUSH2 0x800 DUP2 AND PUSH2 0x7DE JUMPI JUMPDEST PUSH2 0x1000 DUP2 AND PUSH2 0x7B2 JUMPI JUMPDEST PUSH2 0x2000 DUP2 AND PUSH2 0x786 JUMPI JUMPDEST PUSH2 0x4000 DUP2 AND PUSH2 0x75A JUMPI JUMPDEST PUSH2 0x8000 DUP2 AND PUSH2 0x72E JUMPI JUMPDEST PUSH3 0x10000 DUP2 AND PUSH2 0x702 JUMPI JUMPDEST PUSH3 0x20000 DUP2 AND PUSH2 0x6D7 JUMPI JUMPDEST PUSH3 0x40000 DUP2 AND PUSH2 0x6AD JUMPI JUMPDEST PUSH3 0x80000 AND PUSH2 0x685 JUMPI JUMPDEST PUSH1 0x0 SLT PUSH2 0x659 JUMPI JUMPDEST POP PUSH1 0x1 PUSH1 0x1 PUSH1 0xA0 SHL SUB PUSH2 0x60C PUSH2 0x612 SWAP3 PUSH4 0xFFFFFFFF DUP2 AND ISZERO PUSH1 0x0 EQ PUSH2 0x650 JUMPI PUSH1 0xFF PUSH1 0x0 JUMPDEST AND SWAP1 PUSH1 0x20 SHR PUSH2 0x11E8 JUMP JUMPDEST AND PUSH2 0x122F JUMP JUMPDEST PUSH8 0xDE0B6B3A7640000 SWAP1 DUP2 DUP2 MUL SWAP2 DUP2 DUP4 DIV EQ SWAP1 ISZERO OR ISZERO PUSH2 0x63A JUMPI PUSH1 0x20 SWAP1 PUSH1 0x40 MLOAD SWAP1 PUSH1 0xC0 SHR DUP2 MSTORE RETURN JUMPDEST PUSH4 0x4E487B71 PUSH1 0xE0 SHL PUSH1 0x0 MSTORE PUSH1 0x11 PUSH1 0x4 MSTORE PUSH1 0x24 PUSH1 0x0 REVERT JUMPDEST PUSH1 0xFF PUSH1 0x1 PUSH2 0x602 JUMP JUMPDEST SWAP1 DUP1 ISZERO PUSH2 0x66F JUMPI SWAP1 DIV PUSH1 0x1 PUSH1 0x1 PUSH1 0xA0 SHL SUB PUSH2 0x5DE JUMP JUMPDEST PUSH4 0x4E487B71 PUSH1 0xE0 SHL PUSH1 0x0 MSTORE PUSH1 0x12 PUSH1 0x4 MSTORE PUSH1 0x24 PUSH1 0x0 REVERT JUMPDEST SWAP2 PUSH12 0x48A170391F7DC42444E8FA2 SWAP1 DUP2 DUP2 MUL SWAP2 DUP2 DUP4 DIV EQ SWAP1 ISZERO OR ISZERO PUSH2 0x63A JUMPI PUSH1 0x80 SHR SWAP2 PUSH2 0x5D6 JUMP JUMPDEST SWAP3 PUSH14 0x2216E584F5FA1EA926041BEDFE98 SWAP1 DUP2 DUP2 MUL SWAP2 DUP2 DUP4 DIV EQ SWAP1 ISZERO OR ISZERO PUSH2 0x63A JUMPI PUSH1 0x80 SHR SWAP3 PUSH2 0x5CC JUMP JUMPDEST SWAP3 PUSH15 0x5D6AF8DEDB81196699C329225EE604 SWAP1 DUP2 DUP2 MUL SWAP2 DUP2 DUP4 DIV EQ SWAP1 ISZERO OR ISZERO PUSH2 0x63A JUMPI PUSH1 0x80 SHR SWAP3 PUSH2 0x5C1 JUMP JUMPDEST SWAP3 PUSH16 0x9AA508B5B7A84E1C677DE54F3E99BC9 SWAP1 DUP2 DUP2 MUL SWAP2 DUP2 DUP4 DIV EQ SWAP1 ISZERO OR ISZERO PUSH2 0x63A JUMPI PUSH1 0x80 SHR SWAP3 PUSH2 0x5B6 JUMP JUMPDEST SWAP3 PUSH16 0x31BE135F97D08FD981231505542FCFA6 SWAP1 DUP2 DUP2 MUL SWAP2 DUP2 DUP4 DIV EQ SWAP1 ISZERO OR ISZERO PUSH2 0x63A JUMPI PUSH1 0x80 SHR SWAP3 PUSH2 0x5AB JUMP JUMPDEST SWAP3 PUSH16 0x70D869A156D2A1B890BB3DF62BAF32F7 SWAP1 DUP2 DUP2 MUL SWAP2 DUP2 DUP4 DIV EQ SWAP1 ISZERO OR ISZERO PUSH2 0x63A JUMPI PUSH1 0x80 SHR SWAP3 PUSH2 0x5A1 JUMP JUMPDEST SWAP3 PUSH16 0xA9F746462D870FDF8A65DC1F90E061E5 SWAP1 DUP2 DUP2 MUL SWAP2 DUP2 DUP4 DIV EQ SWAP1 ISZERO OR ISZERO PUSH2 0x63A JUMPI PUSH1 0x80 SHR SWAP3 PUSH2 0x597 JUMP JUMPDEST SWAP3 PUSH16 0xD097F3BDFD2022B8845AD8F792AA5825 SWAP1 DUP2 DUP2 MUL SWAP2 DUP2 DUP4 DIV EQ SWAP1 ISZERO OR ISZERO PUSH2 0x63A JUMPI PUSH1 0x80 SHR SWAP3 PUSH2 0x58D JUMP JUMPDEST SWAP3 PUSH16 0xE7159475A2C29B7443B29C7FA6E889D9 SWAP1 DUP2 DUP2 MUL SWAP2 DUP2 DUP4 DIV EQ SWAP1 ISZERO OR ISZERO PUSH2 0x63A JUMPI PUSH1 0x80 SHR SWAP3 PUSH2 0x583 JUMP JUMPDEST SWAP3 PUSH16 0xF3392B0822B70005940C7A398E4B70F3 SWAP1 DUP2 DUP2 MUL SWAP2 DUP2 DUP4 DIV EQ SWAP1 ISZERO OR ISZERO PUSH2 0x63A JUMPI PUSH1 0x80 SHR SWAP3 PUSH2 0x579 JUMP JUMPDEST SWAP3 PUSH16 0xF987A7253AC413176F2B074CF7815E54 SWAP1 DUP2 DUP2 MUL SWAP2 DUP2 DUP4 DIV EQ SWAP1 ISZERO OR ISZERO PUSH2 0x63A JUMPI PUSH1 0x80 SHR SWAP3 PUSH2 0x56F JUMP JUMPDEST SWAP3 PUSH16 0xFCBE86C7900A88AEDCFFC83B479AA3A4 SWAP1 DUP2 DUP2 MUL SWAP2 DUP2 DUP4 DIV EQ SWAP1 ISZERO OR ISZERO PUSH2 0x63A JUMPI PUSH1 0x80 SHR SWAP3 PUSH2 0x565 JUMP JUMPDEST SWAP3 PUSH16 0xFE5DEE046A99A2A811C461F1969C3053 SWAP1 DUP2 DUP2 MUL SWAP2 DUP2 DUP4 DIV EQ SWAP1 ISZERO OR ISZERO PUSH2 0x63A JUMPI PUSH1 0x80 SHR SWAP3 PUSH2 0x55B JUMP JUMPDEST SWAP3 PUSH16 0xFF2EA16466C96A3843EC78B326B52861 SWAP1 DUP2 DUP2 MUL SWAP2 DUP2 DUP4 DIV EQ SWAP1 ISZERO OR ISZERO PUSH2 0x63A JUMPI PUSH1 0x80 SHR SWAP3 PUSH2 0x552 JUMP JUMPDEST SWAP3 PUSH16 0xFF973B41FA98C081472E6896DFB254C0 SWAP1 DUP2 DUP2 MUL SWAP2 DUP2 DUP4 DIV EQ SWAP1 ISZERO OR ISZERO PUSH2 0x63A JUMPI PUSH1 0x80 SHR SWAP3 PUSH2 0x549 JUMP JUMPDEST SWAP3 PUSH16 0xFFCB9843D60F6159C9DB58835C926644 SWAP1 DUP2 DUP2 MUL SWAP2 DUP2 DUP4 DIV EQ SWAP1 ISZERO OR ISZERO PUSH2 0x63A JUMPI PUSH1 0x80 SHR SWAP3 PUSH2 0x540 JUMP JUMPDEST SWAP3 PUSH16 0xFFE5CACA7E10E4E61C3624EAA0941CD0 SWAP1 DUP2 DUP2 MUL SWAP2 DUP2 DUP4 DIV EQ SWAP1 ISZERO OR ISZERO PUSH2 0x63A JUMPI PUSH1 0x80 SHR SWAP3 PUSH2 0x537 JUMP JUMPDEST SWAP3 PUSH16 0xFFF2E50F5F656932EF12357CF3C7FDCC SWAP1 DUP2 DUP2 MUL SWAP2 DUP2 DUP4 DIV EQ SWAP1 ISZERO OR ISZERO PUSH2 0x63A JUMPI PUSH1 0x80 SHR SWAP3 PUSH2 0x52E JUMP JUMPDEST SWAP3 PUSH16 0xFFF97272373D413259A46990580E213A SWAP1 DUP2 DUP2 MUL SWAP2 DUP2 DUP4 DIV EQ SWAP1 ISZERO OR ISZERO PUSH2 0x63A JUMPI PUSH1 0x80 SHR SWAP3 PUSH2 0x525 JUMP JUMPDEST PUSH17 0xFFFFFFFFFFFFFFFFFFFFFFFFFFFFFFFFFF PUSH17 0x100000000000000000000000000000000 PUSH2 0x51A JUMP JUMPDEST PUSH1 0x64 PUSH1 0x40 MLOAD PUSH3 0x461BCD PUSH1 0xE5 SHL DUP2 MSTORE PUSH1 0x20 PUSH1 0x4 DUP3 ADD MSTORE PUSH1 0x1 PUSH1 0x24 DUP3 ADD MSTORE PUSH32 0x5400000000000000000000000000000000000000000000000000000000000000 PUSH1 0x44 DUP3 ADD MSTORE REVERT JUMPDEST DUP2 PUSH2 0x4E3 JUMP JUMPDEST PUSH4 0x4E487B71 PUSH1 0xE0 SHL PUSH1 0x0 MSTORE PUSH1 0x32 PUSH1 0x4 MSTORE PUSH1 0x24 PUSH1 0x0 REVERT JUMPDEST SWAP1 POP RETURNDATASIZE DUP1 PUSH1 0x0 DUP4 RETURNDATACOPY PUSH2 0xA5D DUP2 DUP4 PUSH2 0x11F5 JUMP JUMPDEST PUSH1 0x40 DUP3 DUP3 DUP2 ADD SUB SLT PUSH2 0xF6 JUMPI DUP2 MLOAD SWAP2 PUSH8 0xFFFFFFFFFFFFFFFF DUP4 GT PUSH2 0xF6 JUMPI DUP2 DUP2 ADD PUSH1 0x1F DUP5 DUP4 ADD ADD SLT ISZERO PUSH2 0xF6 JUMPI DUP3 DUP2 ADD MLOAD SWAP3 PUSH2 0xA98 DUP5 PUSH2 0x1217 JUMP JUMPDEST SWAP4 PUSH2 0xAA6 PUSH1 0x40 MLOAD SWAP6 DUP7 PUSH2 0x11F5 JUMP JUMPDEST DUP1 DUP6 MSTORE PUSH1 0x20 DUP6 ADD SWAP2 DUP5 DUP5 ADD PUSH1 0x20 DUP4 PUSH1 0x5 SHL DUP4 DUP8 ADD ADD ADD GT PUSH2 0xF6 JUMPI SWAP2 PUSH1 0x20 DUP4 DUP6 ADD ADD SWAP3 JUMPDEST PUSH1 0x20 DUP4 PUSH1 0x5 SHL DUP3 DUP8 ADD ADD ADD DUP5 LT PUSH2 0xB66 JUMPI POP POP POP POP PUSH1 0x20 DUP2 ADD MLOAD PUSH8 0xFFFFFFFFFFFFFFFF DUP2 GT PUSH2 0xF6 JUMPI DUP2 ADD DUP3 DUP3 ADD PUSH1 0x1F DUP3 ADD SLT ISZERO PUSH2 0xF6 JUMPI DUP1 MLOAD SWAP3 PUSH1 0x20 DUP1 PUSH2 0xB11 DUP7 PUSH2 0x1217 JUMP JUMPDEST PUSH2 0xB1E PUSH1 0x40 MLOAD SWAP2 DUP3 PUSH2 0x11F5 JUMP JUMPDEST DUP7 DUP2 MSTORE ADD SWAP5 PUSH1 0x5 SHL DUP4 ADD ADD SWAP3 ADD DUP3 GT PUSH2 0xF6 JUMPI PUSH1 0x20 ADD SWAP2 JUMPDEST DUP2 DUP4 LT PUSH2 0xB46 JUMPI POP POP POP DUP3 PUSH2 0x447 JUMP JUMPDEST DUP3 MLOAD PUSH1 0x1 PUSH1 0x1 PUSH1 0xA0 SHL SUB DUP2 AND DUP2 SUB PUSH2 0xF6 JUMPI DUP2 MSTORE PUSH1 0x20 SWAP3 DUP4 ADD SWAP3 ADD PUSH2 0xB36 JUMP JUMPDEST DUP4 MLOAD SWAP2 DUP3 PUSH1 0x6 SIGNEXTEND DUP4 SUB PUSH2 0xF6 JUMPI PUSH1 0x20 DUP2 DUP2 SWAP5 DUP3 SWAP4 MSTORE ADD SWAP5 ADD SWAP4 SWAP2 POP PUSH2 0xACA JUMP JUMPDEST DUP3 MLOAD PUSH4 0xFFFFFFFF AND DUP5 MSTORE DUP7 SWAP5 POP PUSH1 0x20 SWAP4 DUP5 ADD SWAP4 SWAP1 SWAP3 ADD SWAP2 PUSH1 0x1 ADD PUSH2 0x41B JUMP JUMPDEST CALLVALUE PUSH2 0xF6 JUMPI PUSH1 0x0 CALLDATASIZE PUSH1 0x3 NOT ADD SLT PUSH2 0xF6 JUMPI PUSH1 0x20 PUSH1 0x1 PUSH1 0x1 PUSH1 0xA0 SHL SUB PUSH1 0x3 SLOAD AND PUSH1 0x40 MLOAD SWAP1 DUP2 MSTORE RETURN JUMPDEST CALLVALUE PUSH2 0xF6 JUMPI PUSH1 0x0 CALLDATASIZE PUSH1 0x3 NOT ADD SLT PUSH2 0xF6 JUMPI PUSH1 0x20 PUSH1 0x1 PUSH1 0x1 PUSH1 0xA0 SHL SUB PUSH1 0x2 SLOAD AND PUSH1 0x40 MLOAD SWAP1 DUP2 MSTORE RETURN JUMPDEST CALLVALUE PUSH2 0xF6 JUMPI PUSH1 0xA0 CALLDATASIZE PUSH1 0x3 NOT ADD SLT PUSH2 0xF6 JUMPI PUSH2 0xC0C PUSH2 0x11B2 JUMP JUMPDEST PUSH2 0xC14 PUSH2 0x11C8 JUMP JUMPDEST SWAP1 PUSH1 0x84 CALLDATALOAD PUSH1 0x1 PUSH1 0x1 PUSH1 0xA0 SHL SUB SWAP3 DUP4 DUP3 AND DUP1 SWAP3 SUB PUSH2 0xF6 JUMPI PUSH1 0x40 MLOAD SWAP1 PUSH1 0xE0 DUP3 ADD DUP3 DUP2 LT PUSH8 0xFFFFFFFFFFFFFFFF DUP3 GT OR PUSH2 0x332 JUMPI DUP6 SWAP5 DUP6 SWAP2 PUSH1 0x40 MSTORE AND DUP3 MSTORE PUSH1 0x20 SWAP5 DUP6 SWAP4 DUP2 DUP6 DUP6 ADD SWAP4 AND DUP4 MSTORE PUSH1 0x40 DUP5 ADD SWAP1 PUSH2 0x2710 DUP3 MSTORE PUSH1 0x60 DUP6 ADD SWAP1 DUP2 MSTORE PUSH1 0x80 DUP6 ADD PUSH1 0x44 CALLDATALOAD DUP2 MSTORE DUP4 PUSH1 0xA0 DUP8 ADD SWAP3 PUSH1 0x64 CALLDATALOAD DUP5 MSTORE PUSH1 0xC0 DUP9 ADD SWAP5 PUSH1 0x0 DUP7 MSTORE DUP3 DUP1 PUSH1 0x4 SLOAD AND SWAP9 PUSH1 0x40 MLOAD SWAP13 DUP14 SWAP12 PUSH32 0x4E45AAF00000000000000000000000000000000000000000000000000000000 DUP14 MSTORE MLOAD AND PUSH1 0x4 DUP13 ADD MSTORE MLOAD AND PUSH1 0x24 DUP11 ADD MSTORE MLOAD PUSH3 0xFFFFFF AND PUSH1 0x44 DUP10 ADD MSTORE MLOAD AND PUSH1 0x64 DUP8 ADD MSTORE MLOAD PUSH1 0x84 DUP7 ADD MSTORE MLOAD PUSH1 0xA4 DUP6 ADD MSTORE MLOAD AND PUSH1 0xC4 DUP4 ADD MSTORE DUP2 GAS PUSH1 0xE4 SWAP3 PUSH1 0x0 SWAP2 CALL SWAP1 DUP2 ISZERO PUSH2 0x326 JUMPI PUSH1 0x0 SWAP2 PUSH2 0xD38 JUMPI JUMPDEST POP PUSH32 0xDB04C7A6D4758FD55D738EBC67E7F3010AC922BE00771EF29521A4090D1EB13F DUP3 PUSH1 0x40 MLOAD DUP4 DUP2 MSTORE LOG1 PUSH1 0x40 MLOAD SWAP1 DUP2 MSTORE RETURN JUMPDEST SWAP1 POP DUP2 DUP2 DUP2 RETURNDATASIZE DUP4 GT PUSH2 0xD5E JUMPI JUMPDEST PUSH2 0xD4F DUP2 DUP4 PUSH2 0x11F5 JUMP JUMPDEST DUP2 ADD SUB SLT PUSH2 0xF6 JUMPI MLOAD DUP3 PUSH2 0xD06 JUMP JUMPDEST POP RETURNDATASIZE PUSH2 0xD45 JUMP JUMPDEST CALLVALUE PUSH2 0xF6 JUMPI PUSH1 0x80 CALLDATASIZE PUSH1 0x3 NOT ADD SLT PUSH2 0xF6 JUMPI PUSH2 0xD7E PUSH2 0x11B2 JUMP JUMPDEST PUSH2 0xD86 PUSH2 0x11C8 JUMP JUMPDEST PUSH1 0x44 CALLDATALOAD PUSH1 0x64 CALLDATALOAD PUSH8 0xDE0B6B3A7640000 DUP1 DUP3 MUL SWAP1 DUP3 DUP3 DIV EQ DUP3 ISZERO OR ISZERO PUSH2 0x63A JUMPI DUP3 PUSH2 0xDAF SWAP2 PUSH2 0x11DE JUMP JUMPDEST SWAP2 PUSH1 0x0 PUSH1 0x3 DUP5 GT ISZERO PUSH2 0x10E3 JUMPI POP DUP3 PUSH1 0x1 SWAP1 DUP1 PUSH1 0x1 SHR PUSH1 0x1 DUP2 ADD DUP1 SWAP2 GT PUSH2 0x63A JUMPI SWAP2 SWAP1 JUMPDEST DUP6 DUP4 LT PUSH2 0x10C3 JUMPI POP POP POP JUMPDEST DUP3 PUSH1 0x60 SHL SWAP3 DUP1 DUP5 DIV PUSH13 0x1000000000000000000000000 EQ SWAP1 ISZERO OR ISZERO PUSH2 0x63A JUMPI PUSH1 0x1 PUSH1 0x1 PUSH1 0xA0 SHL SUB PUSH1 0x2 SLOAD AND SWAP3 PUSH1 0x40 MLOAD SWAP5 PUSH32 0x13EAD56200000000000000000000000000000000000000000000000000000000 DUP7 MSTORE PUSH1 0x1 PUSH1 0x1 PUSH1 0xA0 SHL SUB DUP8 AND SWAP7 DUP8 PUSH1 0x4 DUP9 ADD MSTORE PUSH1 0x20 DUP8 PUSH1 0x84 DUP2 PUSH1 0x0 PUSH1 0x1 PUSH1 0x1 PUSH1 0xA0 SHL SUB DUP8 AND SWAP11 DUP12 PUSH1 0x24 DUP5 ADD MSTORE PUSH1 0x1 PUSH1 0x1 PUSH1 0xA0 SHL SUB PUSH4 0x3B9ACA00 PUSH2 0x2710 SWAP11 DUP12 PUSH1 0x44 DUP8 ADD MSTORE DIV AND PUSH1 0x64 DUP5 ADD MSTORE GAS CALL SWAP7 DUP8 ISZERO PUSH2 0x326 JUMPI PUSH1 0x0 SWAP8 PUSH2 0x107D JUMPI JUMPDEST POP PUSH2 0xEB8 SWAP2 PUSH2 0xEA6 DUP6 DUP8 SWAP4 PUSH1 0x1 PUSH1 0x1 PUSH1 0xA0 SHL SUB PUSH1 0x2 SLOAD AND SWAP1 PUSH2 0x12D1 JUMP JUMPDEST PUSH1 0x1 PUSH1 0x1 PUSH1 0xA0 SHL SUB PUSH1 0x2 SLOAD AND SWAP1 PUSH2 0x12D1 JUMP JUMPDEST PUSH2 0x12C TIMESTAMP ADD SWAP4 DUP5 TIMESTAMP GT PUSH2 0x63A JUMPI PUSH1 0x40 MLOAD SWAP7 PUSH2 0x160 DUP9 ADD DUP9 DUP2 LT PUSH8 0xFFFFFFFFFFFFFFFF DUP3 GT OR PUSH2 0x332 JUMPI PUSH1 0x40 MSTORE DUP8 MSTORE PUSH1 0x20 DUP8 ADD MSTORE PUSH1 0x40 DUP7 ADD MSTORE PUSH3 0xD899F NOT PUSH1 0x60 DUP7 ADD MSTORE PUSH3 0xD89A0 PUSH1 0x80 DUP7 ADD MSTORE PUSH1 0xA0 DUP6 ADD MSTORE PUSH1 0xC0 DUP5 ADD MSTORE PUSH1 0x0 PUSH1 0xE0 DUP5 ADD MSTORE PUSH1 0x0 PUSH2 0x100 DUP5 ADD MSTORE ADDRESS PUSH2 0x120 DUP5 ADD MSTORE PUSH2 0x140 DUP4 ADD MSTORE PUSH1 0x80 PUSH2 0x140 PUSH2 0x164 PUSH1 0x1 PUSH1 0x1 PUSH1 0xA0 SHL SUB PUSH1 0x2 SLOAD AND SWAP5 PUSH1 0x0 PUSH1 0x40 MLOAD SWAP7 DUP8 SWAP5 DUP6 SWAP4 PUSH32 0x8831645600000000000000000000000000000000000000000000000000000000 DUP6 MSTORE PUSH1 0x1 PUSH1 0x1 PUSH1 0xA0 SHL SUB DUP2 MLOAD AND PUSH1 0x4 DUP7 ADD MSTORE PUSH1 0x1 PUSH1 0x1 PUSH1 0xA0 SHL SUB PUSH1 0x20 DUP3 ADD MLOAD AND PUSH1 0x24 DUP7 ADD MSTORE PUSH3 0xFFFFFF PUSH1 0x40 DUP3 ADD MLOAD AND PUSH1 0x44 DUP7 ADD MSTORE PUSH1 0x60 DUP2 ADD MLOAD PUSH1 0x2 SIGNEXTEND PUSH1 0x64 DUP7 ADD MSTORE DUP8 DUP2 ADD MLOAD PUSH1 0x2 SIGNEXTEND PUSH1 0x84 DUP7 ADD MSTORE PUSH1 0xA0 DUP2 ADD MLOAD PUSH1 0xA4 DUP7 ADD MSTORE PUSH1 0xC0 DUP2 ADD MLOAD PUSH1 0xC4 DUP7 ADD MSTORE PUSH1 0xE0 DUP2 ADD MLOAD PUSH1 0xE4 DUP7 ADD MSTORE PUSH2 0x100 DUP2 ADD MLOAD PUSH2 0x104 DUP7 ADD MSTORE PUSH1 0x1 PUSH1 0x1 PUSH1 0xA0 SHL SUB PUSH2 0x120 DUP3 ADD MLOAD AND PUSH2 0x124 DUP7 ADD MSTORE ADD MLOAD PUSH2 0x144 DUP5 ADD MSTORE GAS CALL SWAP2 DUP3 ISZERO PUSH2 0x326 JUMPI PUSH1 0x0 SWAP3 PUSH2 0x102B JUMPI JUMPDEST POP PUSH1 0x40 DUP1 MLOAD PUSH1 0x1 PUSH1 0x1 PUSH1 0xA0 SHL SUB SWAP3 SWAP1 SWAP3 AND DUP3 MSTORE PUSH1 0x20 DUP3 ADD SWAP3 SWAP1 SWAP3 MSTORE RETURN JUMPDEST SWAP1 SWAP2 POP PUSH1 0x80 DUP2 RETURNDATASIZE PUSH1 0x80 GT PUSH2 0x1075 JUMPI JUMPDEST DUP2 PUSH2 0x1047 PUSH1 0x80 SWAP4 DUP4 PUSH2 0x11F5 JUMP JUMPDEST DUP2 ADD SUB SLT PUSH2 0xF6 JUMPI PUSH1 0x20 DUP2 MLOAD SWAP2 ADD MLOAD PUSH16 0xFFFFFFFFFFFFFFFFFFFFFFFFFFFFFFFF DUP2 AND SUB PUSH2 0xF6 JUMPI SWAP1 DUP3 PUSH2 0x100E JUMP JUMPDEST RETURNDATASIZE SWAP2 POP PUSH2 0x103A JUMP JUMPDEST SWAP1 SWAP7 POP PUSH1 0x20 DUP2 RETURNDATASIZE PUSH1 0x20 GT PUSH2 0x10BB JUMPI JUMPDEST DUP2 PUSH2 0x1099 PUSH1 0x20 SWAP4 DUP4 PUSH2 0x11F5 JUMP JUMPDEST DUP2 ADD SUB SLT PUSH2 0xF6 JUMPI MLOAD PUSH1 0x1 PUSH1 0x1 PUSH1 0xA0 SHL SUB DUP2 AND DUP2 SUB PUSH2 0xF6 JUMPI SWAP6 PUSH2 0xEB8 PUSH2 0xE89 JUMP JUMPDEST RETURNDATASIZE SWAP2 POP PUSH2 0x108C JUMP JUMPDEST SWAP1 SWAP2 SWAP5 POP PUSH2 0x10DA DUP6 PUSH2 0x10D5 DUP2 DUP5 PUSH2 0x11DE JUMP JUMPDEST PUSH2 0x11E8 JUMP JUMPDEST DUP3 SHR SWAP2 SWAP1 PUSH2 0xDD2 JUMP JUMPDEST SWAP3 ISZERO PUSH2 0xDDD JUMPI PUSH1 0x1 SWAP3 POP PUSH2 0xDDD JUMP JUMPDEST CALLVALUE PUSH2 0xF6 JUMPI PUSH1 0x0 CALLDATASIZE PUSH1 0x3 NOT ADD SLT PUSH2 0xF6 JUMPI PUSH1 0x20 PUSH1 0x1 PUSH1 0x1 PUSH1 0xA0 SHL SUB PUSH1 0x9 SLOAD AND PUSH1 0x40 MLOAD SWAP1 DUP2 MSTORE RETURN JUMPDEST CALLVALUE PUSH2 0xF6 JUMPI PUSH1 0x0 CALLDATASIZE PUSH1 0x3 NOT ADD SLT PUSH2 0xF6 JUMPI PUSH1 0x20 PUSH1 0x1 PUSH1 0x1 PUSH1 0xA0 SHL SUB PUSH1 0xB SLOAD AND PUSH1 0x40 MLOAD SWAP1 DUP2 MSTORE RETURN JUMPDEST CALLVALUE PUSH2 0xF6 JUMPI PUSH1 0x0 CALLDATASIZE PUSH1 0x3 NOT ADD SLT PUSH2 0xF6 JUMPI PUSH1 0x20 PUSH1 0x1 PUSH1 0x1 PUSH1 0xA0 SHL SUB PUSH1 0x0 SLOAD AND PUSH1 0x40 MLOAD SWAP1 DUP2 MSTORE RETURN JUMPDEST CALLVALUE PUSH2 0xF6 JUMPI PUSH1 0x0 CALLDATASIZE PUSH1 0x3 NOT ADD SLT PUSH2 0xF6 JUMPI PUSH1 0x20 PUSH1 0x1 PUSH1 0x1 PUSH1 0xA0 SHL SUB PUSH1 0xA SLOAD AND PUSH1 0x40 MLOAD SWAP1 DUP2 MSTORE RETURN JUMPDEST CALLVALUE PUSH2 0xF6 JUMPI PUSH1 0x0 CALLDATASIZE PUSH1 0x3 NOT ADD SLT PUSH2 0xF6 JUMPI PUSH1 0x20 SWAP1 PUSH1 0x1 PUSH1 0x1 PUSH1 0xA0 SHL SUB PUSH1 0x1 SLOAD AND DUP2 MSTORE RETURN JUMPDEST PUSH1 0x4 CALLDATALOAD SWAP1 PUSH1 0x1 PUSH1 0x1 PUSH1 0xA0 SHL SUB DUP3 AND DUP3 SUB PUSH2 0xF6 JUMPI JUMP JUMPDEST PUSH1 0x24 CALLDATALOAD SWAP1 PUSH1 0x1 PUSH1 0x1 PUSH1 0xA0 SHL SUB DUP3 AND DUP3 SUB PUSH2 0xF6 JUMPI JUMP JUMPDEST DUP2 ISZERO PUSH2 0x66F JUMPI DIV SWAP1 JUMP JUMPDEST SWAP2 SWAP1 DUP3 ADD DUP1 SWAP3 GT PUSH2 0x63A JUMPI JUMP JUMPDEST SWAP1 PUSH1 0x1F DUP1 NOT SWAP2 ADD AND DUP2 ADD SWAP1 DUP2 LT PUSH8 0xFFFFFFFFFFFFFFFF DUP3 GT OR PUSH2 0x332 JUMPI PUSH1 0x40 MSTORE JUMP JUMPDEST PUSH8 0xFFFFFFFFFFFFFFFF DUP2 GT PUSH2 0x332 JUMPI PUSH1 0x5 SHL PUSH1 0x20 ADD SWAP1 JUMP JUMPDEST DUP1 ISZERO PUSH2 0x12B5 JUMPI DUP1 DUP1 PUSH1 0x1 EQ PUSH2 0x12AE JUMPI PUSH1 0x2 EQ PUSH2 0x12A8 JUMPI PUSH1 0x1 SWAP1 DUP2 PUSH2 0x133 DUP3 LT AND DUP3 PUSH1 0xB DUP4 LT AND OR PUSH2 0x12A0 JUMPI SWAP1 PUSH1 0x2 DUP2 JUMPDEST DUP1 DUP3 GT PUSH2 0x1277 JUMPI POP POP DUP2 PUSH1 0x0 NOT DIV DUP2 GT PUSH2 0x63A JUMPI MUL SWAP1 JUMP JUMPDEST SWAP1 SWAP3 DUP1 PUSH1 0x0 NOT DIV DUP2 GT PUSH2 0x63A JUMPI DUP2 DUP5 AND PUSH2 0x1297 JUMPI JUMPDEST DUP1 MUL SWAP3 DUP2 SHR SWAP1 PUSH2 0x125F JUMP JUMPDEST DUP1 SWAP3 MUL SWAP2 PUSH2 0x128C JUMP JUMPDEST PUSH1 0x2 SWAP2 POP EXP SWAP1 JUMP JUMPDEST POP PUSH1 0x4 SWAP1 JUMP JUMPDEST POP POP PUSH1 0x1 SWAP1 JUMP JUMPDEST POP PUSH1 0x0 SWAP1 JUMP JUMPDEST SWAP2 SWAP1 DUP3 PUSH1 0x40 SWAP2 SUB SLT PUSH2 0xF6 JUMPI PUSH1 0x20 DUP3 MLOAD SWAP3 ADD MLOAD SWAP1 JUMP JUMPDEST PUSH1 0x40 MLOAD PUSH32 0x95EA7B300000000000000000000000000000000000000000000000000000000 PUSH1 0x20 DUP1 DUP4 ADD SWAP2 DUP3 MSTORE PUSH1 0x1 PUSH1 0x1 PUSH1 0xA0 SHL SUB SWAP5 SWAP1 SWAP5 AND PUSH1 0x24 DUP4 ADD MSTORE PUSH1 0x44 DUP1 DUP4 ADD SWAP6 SWAP1 SWAP6 MSTORE SWAP4 DUP2 MSTORE SWAP2 SWAP3 PUSH1 0x1F NOT SWAP3 PUSH2 0x132B PUSH1 0x64 DUP3 PUSH2 0x11F5 JUMP JUMPDEST PUSH1 0x0 SWAP3 DUP4 SWAP3 DUP4 DUP1 SWAP4 MLOAD SWAP3 GAS CALL SWAP2 RETURNDATASIZE ISZERO PUSH2 0x141A JUMPI RETURNDATASIZE PUSH8 0xFFFFFFFFFFFFFFFF DUP2 GT PUSH2 0x1406 JUMPI PUSH2 0x1362 DUP6 PUSH1 0x40 MLOAD SWAP4 PUSH1 0x1F DUP5 ADD AND ADD DUP4 PUSH2 0x11F5 JUMP JUMPDEST DUP2 MSTORE RETURNDATASIZE DUP3 DUP6 DUP4 ADD RETURNDATACOPY JUMPDEST DUP3 PUSH2 0x13BF JUMPI JUMPDEST POP POP ISZERO PUSH2 0x137B JUMPI POP JUMP JUMPDEST PUSH1 0x64 SWAP1 PUSH1 0x40 MLOAD SWAP1 PUSH3 0x461BCD PUSH1 0xE5 SHL DUP3 MSTORE PUSH1 0x4 DUP3 ADD MSTORE PUSH1 0x2 PUSH1 0x24 DUP3 ADD MSTORE PUSH32 0x5341000000000000000000000000000000000000000000000000000000000000 PUSH1 0x44 DUP3 ADD MSTORE REVERT JUMPDEST DUP1 MLOAD SWAP3 POP DUP3 ISZERO SWAP2 SWAP1 DUP5 DUP4 ISZERO PUSH2 0x13DB JUMPI JUMPDEST POP POP POP SWAP1 POP CODESIZE DUP1 PUSH2 0x1371 JUMP JUMPDEST SWAP2 SWAP4 DUP2 DUP1 SWAP5 POP ADD SUB SLT PUSH2 0x1402 JUMPI DUP3 ADD MLOAD SWAP1 DUP2 ISZERO ISZERO DUP3 SUB PUSH2 0x13FF JUMPI POP DUP1 CODESIZE DUP1 DUP5 PUSH2 0x13CF JUMP JUMPDEST DUP1 REVERT JUMPDEST POP DUP1 REVERT JUMPDEST PUSH1 0x24 DUP4 PUSH4 0x4E487B71 PUSH1 0xE0 SHL DUP2 MSTORE PUSH1 0x41 PUSH1 0x4 MSTORE REVERT JUMPDEST POP PUSH1 0x60 PUSH2 0x136B JUMP INVALID LOG2 PUSH5 0x6970667358 0x22 SLT KECCAK256 PUSH31 0x6F177EDB06613906175DB338DDA659FF3B626A7B840888EA2B531B5F8F086E PUSH5 0x736F6C6343 STOP ADDMOD XOR STOP CALLER "},"methodIdentifiers":{"addLiquidityHelper(address,address,uint256,uint256)":"69f684ea","deadAddress()":"27c8f835","executeSwap(address,address,uint256,uint256,address)":"73d84e42","factoryHelper()":"fd53f53b","getTWAPPrice(address,uint32)":"8be32a41","locker()":"d7b96d4e","lockerAddress()":"3675f29b","nftAddress()":"5bf8633a","owner()":"8da5cb5b","positionManager()":"791b98bc","quoter()":"c6bbd5a7","removeLiquidity(uint256,uint128)":"911757ba","swapRouter()":"c31c9c07","teamWallet()":"59927044","uniswapFactory()":"8bdb2afa","weth()":"3fc8cef3"}}}}}