{"contracts/Staking.sol":{"SimpleStaking":{"abi":[{"inputs":[{"internalType":"address","name":"_weth","type":"address"},{"internalType":"address","name":"factory","type":"address"}],"stateMutability":"nonpayable","type":"constructor"},{"inputs":[],"name":"ReentrancyGuardReentrantCall","type":"error"},{"anonymous":false,"inputs":[{"indexed":false,"internalType":"uint256","name":"availableWETH","type":"uint256"}],"name":"DebugAvailableWETH","type":"event"},{"anonymous":false,"inputs":[{"indexed":false,"internalType":"address","name":"user","type":"address"},{"indexed":false,"internalType":"uint256","name":"amountToProcess","type":"uint256"}],"name":"DebugProcessAttempt","type":"event"},{"anonymous":false,"inputs":[{"indexed":false,"internalType":"address","name":"user","type":"address"},{"indexed":false,"internalType":"uint256","name":"amount","type":"uint256"}],"name":"FailedToProcessUnstake","type":"event"},{"anonymous":false,"inputs":[{"indexed":false,"internalType":"uint256","name":"amount","type":"uint256"},{"indexed":false,"internalType":"uint256","name":"timestamp","type":"uint256"}],"name":"FundsReceived","type":"event"},{"anonymous":false,"inputs":[{"indexed":false,"internalType":"uint256","name":"amount","type":"uint256"}],"name":"FundsRequested","type":"event"},{"anonymous":false,"inputs":[{"indexed":false,"internalType":"uint256","name":"amountNeeded","type":"uint256"}],"name":"NotifyFactoryForFunds","type":"event"},{"anonymous":false,"inputs":[{"indexed":false,"internalType":"address","name":"user","type":"address"},{"indexed":false,"internalType":"uint256","name":"requestedAmount","type":"uint256"},{"indexed":false,"internalType":"string","name":"error","type":"string"}],"name":"ProcessUnstakeError","type":"event"},{"anonymous":false,"inputs":[{"indexed":true,"internalType":"address","name":"user","type":"address"},{"indexed":false,"internalType":"uint256","name":"amount","type":"uint256"}],"name":"RewardClaimed","type":"event"},{"anonymous":false,"inputs":[{"indexed":false,"internalType":"uint256","name":"amount","type":"uint256"}],"name":"RewardsAdded","type":"event"},{"anonymous":false,"inputs":[{"indexed":true,"internalType":"address","name":"user","type":"address"},{"indexed":false,"internalType":"uint256","name":"amount","type":"uint256"}],"name":"Stake","type":"event"},{"anonymous":false,"inputs":[{"indexed":false,"internalType":"uint256","name":"newTotalRewards","type":"uint256"}],"name":"TotalRewardsUpdated","type":"event"},{"anonymous":false,"inputs":[{"indexed":true,"internalType":"address","name":"user","type":"address"},{"indexed":false,"internalType":"uint256","name":"amount","type":"uint256"}],"name":"Unstake","type":"event"},{"anonymous":false,"inputs":[{"indexed":true,"internalType":"address","name":"user","type":"address"},{"indexed":false,"internalType":"uint256","name":"amount","type":"uint256"},{"indexed":false,"internalType":"uint256","name":"pendingAmount","type":"uint256"}],"name":"UnstakeProcessed","type":"event"},{"anonymous":false,"inputs":[{"indexed":true,"internalType":"address","name":"user","type":"address"},{"indexed":false,"internalType":"uint256","name":"amount","type":"uint256"},{"indexed":false,"internalType":"uint256","name":"timestamp","type":"uint256"}],"name":"UnstakeQueued","type":"event"},{"anonymous":false,"inputs":[{"indexed":false,"internalType":"uint256","name":"index","type":"uint256"},{"indexed":false,"internalType":"address","name":"user","type":"address"},{"indexed":false,"internalType":"uint256","name":"amount","type":"uint256"},{"indexed":false,"internalType":"uint256","name":"pendingUnstakes","type":"uint256"}],"name":"UnstakeRequestDetails","type":"event"},{"anonymous":false,"inputs":[{"indexed":true,"internalType":"address","name":"user","type":"address"},{"indexed":false,"internalType":"uint256","name":"amount","type":"uint256"},{"indexed":false,"internalType":"uint256","name":"pendingAmount","type":"uint256"}],"name":"UnstakeRequested","type":"event"},{"anonymous":false,"inputs":[{"indexed":false,"internalType":"address","name":"user","type":"address"},{"indexed":false,"internalType":"uint256","name":"processedAmount","type":"uint256"},{"indexed":false,"internalType":"uint256","name":"remainingWETH","type":"uint256"}],"name":"WETHProcessed","type":"event"},{"stateMutability":"payable","type":"fallback"},{"inputs":[],"name":"REWARD_INTERVAL","outputs":[{"internalType":"uint256","name":"","type":"uint256"}],"stateMutability":"view","type":"function"},{"inputs":[],"name":"accRewardPerShare","outputs":[{"internalType":"uint256","name":"","type":"uint256"}],"stateMutability":"view","type":"function"},{"inputs":[],"name":"addRewards","outputs":[],"stateMutability":"payable","type":"function"},{"inputs":[],"name":"claimRewards","outputs":[],"stateMutability":"nonpayable","type":"function"},{"inputs":[],"name":"factoryAddress","outputs":[{"internalType":"address","name":"","type":"address"}],"stateMutability":"view","type":"function"},{"inputs":[{"internalType":"address","name":"staker","type":"address"}],"name":"getStake","outputs":[{"internalType":"uint256","name":"","type":"uint256"}],"stateMutability":"view","type":"function"},{"inputs":[],"name":"getTotalRewards","outputs":[{"internalType":"uint256","name":"","type":"uint256"}],"stateMutability":"view","type":"function"},{"inputs":[],"name":"getTotalStaked","outputs":[{"internalType":"uint256","name":"","type":"uint256"}],"stateMutability":"view","type":"function"},{"inputs":[],"name":"getTotalUnstakeQueueAmount","outputs":[{"internalType":"uint256","name":"totalAmount","type":"uint256"}],"stateMutability":"view","type":"function"},{"inputs":[],"name":"getUnstakeQueueLength","outputs":[{"internalType":"uint256","name":"","type":"uint256"}],"stateMutability":"view","type":"function"},{"inputs":[{"internalType":"uint256","name":"index","type":"uint256"}],"name":"getUnstakeRequest","outputs":[{"internalType":"address","name":"user","type":"address"},{"internalType":"uint256","name":"amount","type":"uint256"},{"internalType":"uint256","name":"timestamp","type":"uint256"}],"stateMutability":"view","type":"function"},{"inputs":[],"name":"handleReceivedWETH","outputs":[],"stateMutability":"nonpayable","type":"function"},{"inputs":[],"name":"lastRewardTime","outputs":[{"internalType":"uint256","name":"","type":"uint256"}],"stateMutability":"view","type":"function"},{"inputs":[{"internalType":"uint256","name":"amount","type":"uint256"}],"name":"notifyFundsReceived","outputs":[],"stateMutability":"nonpayable","type":"function"},{"inputs":[],"name":"owner","outputs":[{"internalType":"address","name":"","type":"address"}],"stateMutability":"view","type":"function"},{"inputs":[{"internalType":"address","name":"_user","type":"address"}],"name":"pendingReward","outputs":[{"internalType":"uint256","name":"","type":"uint256"}],"stateMutability":"view","type":"function"},{"inputs":[{"internalType":"address","name":"","type":"address"}],"name":"pendingUnstakes","outputs":[{"internalType":"uint256","name":"","type":"uint256"}],"stateMutability":"view","type":"function"},{"inputs":[{"internalType":"uint256","name":"amount","type":"uint256"}],"name":"requestUnstake","outputs":[],"stateMutability":"nonpayable","type":"function"},{"inputs":[{"internalType":"address","name":"","type":"address"}],"name":"rewardDebt","outputs":[{"internalType":"uint256","name":"","type":"uint256"}],"stateMutability":"view","type":"function"},{"inputs":[],"name":"rewardRate","outputs":[{"internalType":"uint256","name":"","type":"uint256"}],"stateMutability":"view","type":"function"},{"inputs":[{"internalType":"address","name":"_factoryAddress","type":"address"}],"name":"setFactoryAddress","outputs":[],"stateMutability":"nonpayable","type":"function"},{"inputs":[],"name":"stake","outputs":[],"stateMutability":"payable","type":"function"},{"inputs":[{"internalType":"address","name":"","type":"address"}],"name":"stakes","outputs":[{"internalType":"uint256","name":"","type":"uint256"}],"stateMutability":"view","type":"function"},{"inputs":[],"name":"totalFundsNeeded","outputs":[{"internalType":"uint256","name":"","type":"uint256"}],"stateMutability":"view","type":"function"},{"inputs":[],"name":"totalRewards","outputs":[{"internalType":"uint256","name":"","type":"uint256"}],"stateMutability":"view","type":"function"},{"inputs":[],"name":"totalStaked","outputs":[{"internalType":"uint256","name":"","type":"uint256"}],"stateMutability":"view","type":"function"},{"inputs":[{"internalType":"uint256","name":"","type":"uint256"}],"name":"unstakeQueue","outputs":[{"internalType":"address","name":"user","type":"address"},{"internalType":"uint256","name":"amount","type":"uint256"},{"internalType":"uint256","name":"timestamp","type":"uint256"}],"stateMutability":"view","type":"function"},{"inputs":[],"name":"weth","outputs":[{"internalType":"address","name":"","type":"address"}],"stateMutability":"view","type":"function"},{"stateMutability":"payable","type":"receive"}],"evm":{"bytecode":{"linkReferences":{},"object":"60803461009b57601f61193a38819003918201601f19168301916001600160401b038311848410176100a057808492604094855283398101031261009b57610052602061004b836100b6565b92016100b6565b90600160005560018060a01b0319913383600654161760065542600a5560018060a01b038092168360055416176005551690600454161760045560405161186f90816100cb8239f35b600080fd5b634e487b7160e01b600052604160045260246000fd5b51906001600160a01b038216820361009b5756fe608060408181526004918236101561001f575b505050361561001d57005b005b600090813560e01c9081630917e77614611234575080630e15561a1461028957806314d6aed01461107d57806316934fc4146105f85780632309572114610cef578063372500ab14610a5e5780633a4b66f1146106cf5780633bac9c99146106b05780633fc8cef3146106885780635873eb9b1461064f5780635dbdda69146106315780637a766460146105f85780637b0a47ee146105d9578063817b1cd2146105ba57806383c17c55146105215780638da5cb5b146104f95780639231cf74146104da578063939d6237146104bb578063966dae0e146104955780639b5ceb35146103f4578063afa58070146103cb578063b8e347df146103ae578063c4ebe08814610386578063d6b6b23f14610349578063ddb59e13146102a8578063e627f2db14610289578063f3385ace146102665763f40f0f52036100125734610263576020366003190112610263578235906001600160a01b03821680920361026357600954600a5480421180610258575b6101cf575b6020856101c886828764e8d4a510006101b889858452600189528484205461133d565b0492815260028652205490611330565b9051908152f35b6101dc6101e59142611330565b600b549061133d565b600854808211610250575b5064e8d4a510009081810291818304149015171561023d57602095509164e8d4a510006101b8610232879461022c6101c8989760075490611310565b906112ed565b935050509192610195565b602483601188634e487b7160e01b835252fd5b9050386101f0565b506007541515610190565b80fd5b509034610285578160031936011261028557602090600d549051908152f35b5080fd5b5090346102855781600319360112610285576020906008549051908152f35b508290346102635760203660031901126102635750803590600c5482101561030657506102d490611250565b508054600182015460029092015492516001600160a01b03909116815260208101919091526040810191909152606090f35b606490602084519162461bcd60e51b8352820152601360248201527f496e646578206f7574206f6620626f756e6473000000000000000000000000006044820152fd5b50913461038257602036600319011261038257356001600160a01b03811680910361038257828291602094526003845220549051908152f35b8280fd5b503461026357806003193601126102635761039f61166f565b6103a7611386565b6001815580f35b5090346102855781600319360112610285576020906101c8611350565b508234610285576020366003190112610285573590600c5482101561026357506102d490611250565b509134610382576020366003190112610382576001600160a01b03815416330361045357907f063d07ee72a7483b8e07ca09054bb686775c5c030f945dde3823a5257a0a93eb91815190358152426020820152a1610450611386565b80f35b6020606492519162461bcd60e51b8352820152601760248201527f4f6e6c7920666163746f72792063616e206e6f746966790000000000000000006044820152fd5b5034610263578060031936011261026357506001600160a01b0360209254169051908152f35b5090346102855781600319360112610285576020906009549051908152f35b509034610285578160031936011261028557602090600a549051908152f35b5090346102855781600319360112610285576020906001600160a01b03600654169051908152f35b50919034610382576020366003190112610382578135906001600160a01b038083168093036105b657600654163303610574575073ffffffffffffffffffffffffffffffffffffffff1982541617905580f35b5162461bcd60e51b8152602081840152601760248201527f43616c6c6572206973206e6f7420746865206f776e65720000000000000000006044820152606490fd5b8480fd5b5090346102855781600319360112610285576020906007549051908152f35b509034610285578160031936011261028557602090600b549051908152f35b50913461038257602036600319011261038257356001600160a01b03811680910361038257828291602094526001845220549051908152f35b5090346102855781600319360112610285576020905162093a808152f35b50913461038257602036600319011261038257356001600160a01b03811680910361038257828291602094526002845220549051908152f35b5090346102855781600319360112610285576020906001600160a01b03600554169051908152f35b509034610285578160031936011261028557602090600c549051908152f35b50919082600319360112610382576106e561166f565b3415610a1b576106f36115f1565b6001600160a01b0391838360055416803b1561028557818391855192838092630d0e30db60e41b825234905af18015610a11576109fd575b5050604634023481046046036109ea57606490049261074a8434611330565b50806005541681835416845180927fa9059cbb0000000000000000000000000000000000000000000000000000000082528189816107a460209b8c978b8401602090939291936001600160a01b0360408201951681520152565b03925af19081156109e05786916109a6575b5015610964578490338252600185528382205480610851575b82867febedb8b3c678666e7f36970bc8f57abf6d8fa2e828c0da91ea5b75bf68ed101a87338452600183528084206108083482546112ed565b9055610816346007546112ed565b6007553384526001835264e8d4a51000610836828620546009549061133d565b04338552600284528185205551913483523392a26001815580f35b64e8d4a51000610867610879926009549061133d565b04338452600287528584205490611330565b92831591821561088a575b506107cf565b6005541690813b156109605784602485928389519586948593632e1a7d4d60e01b85528401525af1801561095657908391610942575b50839091610938575b8280929181923390f11561092e57907febedb8b3c678666e7f36970bc8f57abf6d8fa2e828c0da91ea5b75bf68ed101a9181519081527f106f923f993c2149d49b4255ff723acafa1f2d94393f561d3eda32ae348f7241843392a29083388080610884565b81513d85823e3d90fd5b6108fc91506108c9565b61094b906112a1565b6102855781386108c0565b85513d85823e3d90fd5b8380fd5b5082606492519162461bcd60e51b8352820152601e60248201527f4661696c656420746f2073656e64205745544820746f20666163746f727900006044820152fd5b90508481813d83116109d9575b6109bd81836112cb565b810103126109d5575180151581036109d557386107b6565b8580fd5b503d6109b3565b84513d88823e3d90fd5b602485601184634e487b7160e01b835252fd5b610a06906112a1565b61096057833861072b565b84513d84823e3d90fd5b906020606492519162461bcd60e51b8352820152601260248201527f43616e6e6f74207374616b6520302045544800000000000000000000000000006044820152fd5b50919034610382578260031936011261038257610a7961166f565b610a816115f1565b33835260209060018252808420548015610c8757610aa864e8d4a51000916009549061133d565b049233855260028352610abe8286205485611330565b938415610c4557600854858110610c035785610ad991611330565b6008553386526002845282862055846001600160a01b0360055416803b15610285578180916024865180948193632e1a7d4d60e01b83528b898401525af18015610a1157610bef575b5080808087335af13d15610bea573d67ffffffffffffffff8111610bd757835190610b56601f8201601f19168701836112cb565b815286853d92013e5b15610b965750907f106f923f993c2149d49b4255ff723acafa1f2d94393f561d3eda32ae348f724191519283523392a26001815580f35b82606492519162461bcd60e51b8352820152601260248201527f4661696c656420746f2073656e642045544800000000000000000000000000006044820152fd5b602487604185634e487b7160e01b835252fd5b610b5f565b610bf8906112a1565b6105b6578438610b22565b6064838686519162461bcd60e51b8352820152601a60248201527f4e6f7420656e6f756768207265776172647320696e20706f6f6c0000000000006044820152fd5b5082606492519162461bcd60e51b8352820152601360248201527f4e6f207265776172647320746f20636c61696d000000000000000000000000006044820152fd5b5060849350519162461bcd60e51b8352820152602560248201527f4e6f207374616b656420616d6f756e7420746f20636c61696d2072657761726460448201527f7320666f720000000000000000000000000000000000000000000000000000006064820152fd5b509034610285576020908160031936011261038257833591610d0f61166f565b3384526001815282828520541061103b576001600160a01b038060055416835183816024816370a0823160e01b95868252308d8301525afa90811561100057879161100e575b50858110610dad5750505082939450610d8f7f57e41df54512c76148b5ba9b643d149752b0d35e493b969bd017d0a3fe5228cf93336116aa565b33855260038152818520549082519485528401523392a26001815580f35b610db79086611330565b82885416803b1561100a5785517fbe5ef17600000000000000000000000000000000000000000000000000000000815230818b019081526020810193909352918891839182908490829060400103925af1801561100057908791610fec575b50508282600554169160248651809481938252308c8301525afa9081156109e0579085918791610fb6575b5010610e7c575082939450610e777f57e41df54512c76148b5ba9b643d149752b0d35e493b969bd017d0a3fe5228cf93336116aa565b610d8f565b33855260038252828520610e918582546112ed565b90558251906060820182811067ffffffffffffffff821117610fa157845233825282820185815284830191428352600c5468010000000000000000811015610f8e57806001610ee39201600c55611250565b949094610f7c577f57e41df54512c76148b5ba9b643d149752b0d35e493b969bd017d0a3fe5228cf97989950906002939291511673ffffffffffffffffffffffffffffffffffffffff1985541617845551600184015551910155815184815242828201527ff24ceb8901eaecb633a833076ec1a09f317122e81bd3bc200d811e0c9bb08146833392a2610e77610f77611350565b6117ac565b602489808c634e487b7160e01b825252fd5b60248960418c634e487b7160e01b835252fd5b604188634e487b7160e01b6000525260246000fd5b809250848092503d8311610fe5575b610fcf81836112cb565b81010312610fe05784905138610e41565b600080fd5b503d610fc5565b610ff5906112a1565b6109d5578538610e16565b85513d89823e3d90fd5b8780fd5b90508381813d8311611034575b61102581836112cb565b81010312610fe0575138610d55565b503d61101b565b8490606492519162461bcd60e51b8352820152601b60248201527f496e73756666696369656e74207374616b65642062616c616e636500000000006044820152fd5b509182600319360112610382576001600160a01b0380600654163314801561122b575b801561121f575b156111dc57341561119957839060055416803b1561028557835192838092630d0e30db60e41b825234905af1801561118d57611157575b5060207ff8fad42e780bfa5459be3fe691e8ba1aec70342250112139c5771c3fd155f3129161110b6115f1565b62093a8061111b346008546112ed565b806008557f8629690313970e9e42939fc905246bd1ff3a69dae5efc961f8b40a91a838dffe848451838152a104600b5542600a5551348152a180f35b7ff8fad42e780bfa5459be3fe691e8ba1aec70342250112139c5771c3fd155f31291926111856020926112a1565b9291506110de565b505051903d90823e3d90fd5b506020606492519162461bcd60e51b8352820152601160248201527f4e6f207265776172647320746f206164640000000000000000000000000000006044820152fd5b506020606492519162461bcd60e51b8352820152601860248201527f43616c6c6572206973206e6f7420617574686f72697a656400000000000000006044820152fd5b508082541633146110a7565b503033146110a0565b9050346102855781600319360112610285576020906007548152f35b600c5481101561128b57600390600c600052027fdf6966c971051c3d54ec59162606531493a51404a002842f56009d7e5cf4a8c70190600090565b634e487b7160e01b600052603260045260246000fd5b67ffffffffffffffff81116112b557604052565b634e487b7160e01b600052604160045260246000fd5b90601f8019910116810190811067ffffffffffffffff8211176112b557604052565b919082018092116112fa57565b634e487b7160e01b600052601160045260246000fd5b811561131a570490565b634e487b7160e01b600052601260045260246000fd5b919082039182116112fa57565b818102929181159184041417156112fa57565b600080600c545b80821061136357505090565b909161137e6001918261137586611250565b500154906112ed565b920190611357565b6001600160a01b038060055416604051809381936370a0823160e01b83526004933085850152602095869160249889915afa9283156115e5576000936115b6575b507f264b03945932e4bc51e688f9f27dbb1f5faba7660d11abdbf7e7f41ed87928ba8584604051908152a160009283925b600c9182548510806115ad575b156115675761141385611250565b506001808201805491939290919081841061152b576114419392918861143a9254166116aa565b5490611330565b928054600019908181019081116115175761145b90611250565b5061146588611250565b919091611504578082036114cc575b5050815480156114b857019161148983611250565b9190916114a557816000600292818095558201550155556113f8565b8b60008b634e487b7160e01b8252526000fd5b8b60318b634e487b7160e01b600052526000fd5b8781541673ffffffffffffffffffffffffffffffffffffffff1983541617825584810154858301556002809101549101553880611474565b8c60008c634e487b7160e01b8252526000fd5b8b60118b634e487b7160e01b600052526000fd5b5082955061022c9150916115429394979892611330565b9460001981146115535701926113f8565b88601188634e487b7160e01b600052526000fd5b50965050505091905081611579575050565b816115a47fd5e85995d9bdcdafb72531ec59faef29167c16780583ca2068587fe896170c47936117ac565b604051908152a1565b50801515611405565b9092508481813d83116115de575b6115ce81836112cb565b81010312610fe0575191386113c7565b503d6115c4565b6040513d6000823e3d90fd5b600a5442111561166d576007548015611666576116136101dc600a5442611330565b60085480821161165e575b64e8d4a51000928383029383850414831517156112fa5761164561164d9161165595611310565b6009546112ed565b600955611330565b60085542600a55565b90508061161e565b5042600a55565b565b600260005414611680576002600055565b60046040517f3ee5aeb5000000000000000000000000000000000000000000000000000000008152fd5b90600554916000926001600160a01b0380911691823b156105b65784806040946024865180948193632e1a7d4d60e01b83528a60048401525af180156109e057611799575b501692808385828215611790575b839283928392f115611785579160209183857f85082129d87b2fe11527cb1b3b7a520aeb5aa6913f88a3d8757fe40d1db02fdd955260018452818120611744848254611330565b905561175283600754611330565b600755858152600184528164e8d4a51000611773828420546009549061133d565b049187815260028652205551908152a2565b9051903d90823e3d90fd5b506108fc6116fd565b6117a5909591956112a1565b93386116ef565b7fac0a36a73050720c3fa0d6988cca2309ef4472b3b09fafa8e713f434ff33a05b6020604051838152a16001600160a01b036004541690813b15610fe0576000916024839260405194859384927f8c3a65a200000000000000000000000000000000000000000000000000000000845260048401525af180156115e5576118305750565b61166d906112a156fea2646970667358221220020d17630d849830ebcffd77ab8d7002129860b670a9f3dbc7fe28abc9454eca64736f6c63430008180033","opcodes":"PUSH1 0x80 CALLVALUE PUSH2 0x9B JUMPI PUSH1 0x1F PUSH2 0x193A CODESIZE DUP2 SWAP1 SUB SWAP2 DUP3 ADD PUSH1 0x1F NOT AND DUP4 ADD SWAP2 PUSH1 0x1 PUSH1 0x1 PUSH1 0x40 SHL SUB DUP4 GT DUP5 DUP5 LT OR PUSH2 0xA0 JUMPI DUP1 DUP5 SWAP3 PUSH1 0x40 SWAP5 DUP6 MSTORE DUP4 CODECOPY DUP2 ADD SUB SLT PUSH2 0x9B JUMPI PUSH2 0x52 PUSH1 0x20 PUSH2 0x4B DUP4 PUSH2 0xB6 JUMP JUMPDEST SWAP3 ADD PUSH2 0xB6 JUMP JUMPDEST SWAP1 PUSH1 0x1 PUSH1 0x0 SSTORE PUSH1 0x1 DUP1 PUSH1 0xA0 SHL SUB NOT SWAP2 CALLER DUP4 PUSH1 0x6 SLOAD AND OR PUSH1 0x6 SSTORE TIMESTAMP PUSH1 0xA SSTORE PUSH1 0x1 DUP1 PUSH1 0xA0 SHL SUB DUP1 SWAP3 AND DUP4 PUSH1 0x5 SLOAD AND OR PUSH1 0x5 SSTORE AND SWAP1 PUSH1 0x4 SLOAD AND OR PUSH1 0x4 SSTORE PUSH1 0x40 MLOAD PUSH2 0x186F SWAP1 DUP2 PUSH2 0xCB DUP3 CODECOPY RETURN JUMPDEST PUSH1 0x0 DUP1 REVERT JUMPDEST PUSH4 0x4E487B71 PUSH1 0xE0 SHL PUSH1 0x0 MSTORE PUSH1 0x41 PUSH1 0x4 MSTORE PUSH1 0x24 PUSH1 0x0 REVERT JUMPDEST MLOAD SWAP1 PUSH1 0x1 PUSH1 0x1 PUSH1 0xA0 SHL SUB DUP3 AND DUP3 SUB PUSH2 0x9B JUMPI JUMP INVALID PUSH1 0x80 PUSH1 0x40 DUP2 DUP2 MSTORE PUSH1 0x4 SWAP2 DUP3 CALLDATASIZE LT ISZERO PUSH2 0x1F JUMPI JUMPDEST POP POP POP CALLDATASIZE ISZERO PUSH2 0x1D JUMPI STOP JUMPDEST STOP JUMPDEST PUSH1 0x0 SWAP1 DUP2 CALLDATALOAD PUSH1 0xE0 SHR SWAP1 DUP2 PUSH4 0x917E776 EQ PUSH2 0x1234 JUMPI POP DUP1 PUSH4 0xE15561A EQ PUSH2 0x289 JUMPI DUP1 PUSH4 0x14D6AED0 EQ PUSH2 0x107D JUMPI DUP1 PUSH4 0x16934FC4 EQ PUSH2 0x5F8 JUMPI DUP1 PUSH4 0x23095721 EQ PUSH2 0xCEF JUMPI DUP1 PUSH4 0x372500AB EQ PUSH2 0xA5E JUMPI DUP1 PUSH4 0x3A4B66F1 EQ PUSH2 0x6CF JUMPI DUP1 PUSH4 0x3BAC9C99 EQ PUSH2 0x6B0 JUMPI DUP1 PUSH4 0x3FC8CEF3 EQ PUSH2 0x688 JUMPI DUP1 PUSH4 0x5873EB9B EQ PUSH2 0x64F JUMPI DUP1 PUSH4 0x5DBDDA69 EQ PUSH2 0x631 JUMPI DUP1 PUSH4 0x7A766460 EQ PUSH2 0x5F8 JUMPI DUP1 PUSH4 0x7B0A47EE EQ PUSH2 0x5D9 JUMPI DUP1 PUSH4 0x817B1CD2 EQ PUSH2 0x5BA JUMPI DUP1 PUSH4 0x83C17C55 EQ PUSH2 0x521 JUMPI DUP1 PUSH4 0x8DA5CB5B EQ PUSH2 0x4F9 JUMPI DUP1 PUSH4 0x9231CF74 EQ PUSH2 0x4DA JUMPI DUP1 PUSH4 0x939D6237 EQ PUSH2 0x4BB JUMPI DUP1 PUSH4 0x966DAE0E EQ PUSH2 0x495 JUMPI DUP1 PUSH4 0x9B5CEB35 EQ PUSH2 0x3F4 JUMPI DUP1 PUSH4 0xAFA58070 EQ PUSH2 0x3CB JUMPI DUP1 PUSH4 0xB8E347DF EQ PUSH2 0x3AE JUMPI DUP1 PUSH4 0xC4EBE088 EQ PUSH2 0x386 JUMPI DUP1 PUSH4 0xD6B6B23F EQ PUSH2 0x349 JUMPI DUP1 PUSH4 0xDDB59E13 EQ PUSH2 0x2A8 JUMPI DUP1 PUSH4 0xE627F2DB EQ PUSH2 0x289 JUMPI DUP1 PUSH4 0xF3385ACE EQ PUSH2 0x266 JUMPI PUSH4 0xF40F0F52 SUB PUSH2 0x12 JUMPI CALLVALUE PUSH2 0x263 JUMPI PUSH1 0x20 CALLDATASIZE PUSH1 0x3 NOT ADD SLT PUSH2 0x263 JUMPI DUP3 CALLDATALOAD SWAP1 PUSH1 0x1 PUSH1 0x1 PUSH1 0xA0 SHL SUB DUP3 AND DUP1 SWAP3 SUB PUSH2 0x263 JUMPI PUSH1 0x9 SLOAD PUSH1 0xA SLOAD DUP1 TIMESTAMP GT DUP1 PUSH2 0x258 JUMPI JUMPDEST PUSH2 0x1CF JUMPI JUMPDEST PUSH1 0x20 DUP6 PUSH2 0x1C8 DUP7 DUP3 DUP8 PUSH5 0xE8D4A51000 PUSH2 0x1B8 DUP10 DUP6 DUP5 MSTORE PUSH1 0x1 DUP10 MSTORE DUP5 DUP5 KECCAK256 SLOAD PUSH2 0x133D JUMP JUMPDEST DIV SWAP3 DUP2 MSTORE PUSH1 0x2 DUP7 MSTORE KECCAK256 SLOAD SWAP1 PUSH2 0x1330 JUMP JUMPDEST SWAP1 MLOAD SWAP1 DUP2 MSTORE RETURN JUMPDEST PUSH2 0x1DC PUSH2 0x1E5 SWAP2 TIMESTAMP PUSH2 0x1330 JUMP JUMPDEST PUSH1 0xB SLOAD SWAP1 PUSH2 0x133D JUMP JUMPDEST PUSH1 0x8 SLOAD DUP1 DUP3 GT PUSH2 0x250 JUMPI JUMPDEST POP PUSH5 0xE8D4A51000 SWAP1 DUP2 DUP2 MUL SWAP2 DUP2 DUP4 DIV EQ SWAP1 ISZERO OR ISZERO PUSH2 0x23D JUMPI PUSH1 0x20 SWAP6 POP SWAP2 PUSH5 0xE8D4A51000 PUSH2 0x1B8 PUSH2 0x232 DUP8 SWAP5 PUSH2 0x22C PUSH2 0x1C8 SWAP9 SWAP8 PUSH1 0x7 SLOAD SWAP1 PUSH2 0x1310 JUMP JUMPDEST SWAP1 PUSH2 0x12ED JUMP JUMPDEST SWAP4 POP POP POP SWAP2 SWAP3 PUSH2 0x195 JUMP JUMPDEST PUSH1 0x24 DUP4 PUSH1 0x11 DUP9 PUSH4 0x4E487B71 PUSH1 0xE0 SHL DUP4 MSTORE MSTORE REVERT JUMPDEST SWAP1 POP CODESIZE PUSH2 0x1F0 JUMP JUMPDEST POP PUSH1 0x7 SLOAD ISZERO ISZERO PUSH2 0x190 JUMP JUMPDEST DUP1 REVERT JUMPDEST POP SWAP1 CALLVALUE PUSH2 0x285 JUMPI DUP2 PUSH1 0x3 NOT CALLDATASIZE ADD SLT PUSH2 0x285 JUMPI PUSH1 0x20 SWAP1 PUSH1 0xD SLOAD SWAP1 MLOAD SWAP1 DUP2 MSTORE RETURN JUMPDEST POP DUP1 REVERT JUMPDEST POP SWAP1 CALLVALUE PUSH2 0x285 JUMPI DUP2 PUSH1 0x3 NOT CALLDATASIZE ADD SLT PUSH2 0x285 JUMPI PUSH1 0x20 SWAP1 PUSH1 0x8 SLOAD SWAP1 MLOAD SWAP1 DUP2 MSTORE RETURN JUMPDEST POP DUP3 SWAP1 CALLVALUE PUSH2 0x263 JUMPI PUSH1 0x20 CALLDATASIZE PUSH1 0x3 NOT ADD SLT PUSH2 0x263 JUMPI POP DUP1 CALLDATALOAD SWAP1 PUSH1 0xC SLOAD DUP3 LT ISZERO PUSH2 0x306 JUMPI POP PUSH2 0x2D4 SWAP1 PUSH2 0x1250 JUMP JUMPDEST POP DUP1 SLOAD PUSH1 0x1 DUP3 ADD SLOAD PUSH1 0x2 SWAP1 SWAP3 ADD SLOAD SWAP3 MLOAD PUSH1 0x1 PUSH1 0x1 PUSH1 0xA0 SHL SUB SWAP1 SWAP2 AND DUP2 MSTORE PUSH1 0x20 DUP2 ADD SWAP2 SWAP1 SWAP2 MSTORE PUSH1 0x40 DUP2 ADD SWAP2 SWAP1 SWAP2 MSTORE PUSH1 0x60 SWAP1 RETURN JUMPDEST PUSH1 0x64 SWAP1 PUSH1 0x20 DUP5 MLOAD SWAP2 PUSH3 0x461BCD PUSH1 0xE5 SHL DUP4 MSTORE DUP3 ADD MSTORE PUSH1 0x13 PUSH1 0x24 DUP3 ADD MSTORE PUSH32 0x496E646578206F7574206F6620626F756E647300000000000000000000000000 PUSH1 0x44 DUP3 ADD MSTORE REVERT JUMPDEST POP SWAP2 CALLVALUE PUSH2 0x382 JUMPI PUSH1 0x20 CALLDATASIZE PUSH1 0x3 NOT ADD SLT PUSH2 0x382 JUMPI CALLDATALOAD PUSH1 0x1 PUSH1 0x1 PUSH1 0xA0 SHL SUB DUP2 AND DUP1 SWAP2 SUB PUSH2 0x382 JUMPI DUP3 DUP3 SWAP2 PUSH1 0x20 SWAP5 MSTORE PUSH1 0x3 DUP5 MSTORE KECCAK256 SLOAD SWAP1 MLOAD SWAP1 DUP2 MSTORE RETURN JUMPDEST DUP3 DUP1 REVERT JUMPDEST POP CALLVALUE PUSH2 0x263 JUMPI DUP1 PUSH1 0x3 NOT CALLDATASIZE ADD SLT PUSH2 0x263 JUMPI PUSH2 0x39F PUSH2 0x166F JUMP JUMPDEST PUSH2 0x3A7 PUSH2 0x1386 JUMP JUMPDEST PUSH1 0x1 DUP2 SSTORE DUP1 RETURN JUMPDEST POP SWAP1 CALLVALUE PUSH2 0x285 JUMPI DUP2 PUSH1 0x3 NOT CALLDATASIZE ADD SLT PUSH2 0x285 JUMPI PUSH1 0x20 SWAP1 PUSH2 0x1C8 PUSH2 0x1350 JUMP JUMPDEST POP DUP3 CALLVALUE PUSH2 0x285 JUMPI PUSH1 0x20 CALLDATASIZE PUSH1 0x3 NOT ADD SLT PUSH2 0x285 JUMPI CALLDATALOAD SWAP1 PUSH1 0xC SLOAD DUP3 LT ISZERO PUSH2 0x263 JUMPI POP PUSH2 0x2D4 SWAP1 PUSH2 0x1250 JUMP JUMPDEST POP SWAP2 CALLVALUE PUSH2 0x382 JUMPI PUSH1 0x20 CALLDATASIZE PUSH1 0x3 NOT ADD SLT PUSH2 0x382 JUMPI PUSH1 0x1 PUSH1 0x1 PUSH1 0xA0 SHL SUB DUP2 SLOAD AND CALLER SUB PUSH2 0x453 JUMPI SWAP1 PUSH32 0x63D07EE72A7483B8E07CA09054BB686775C5C030F945DDE3823A5257A0A93EB SWAP2 DUP2 MLOAD SWAP1 CALLDATALOAD DUP2 MSTORE TIMESTAMP PUSH1 0x20 DUP3 ADD MSTORE LOG1 PUSH2 0x450 PUSH2 0x1386 JUMP JUMPDEST DUP1 RETURN JUMPDEST PUSH1 0x20 PUSH1 0x64 SWAP3 MLOAD SWAP2 PUSH3 0x461BCD PUSH1 0xE5 SHL DUP4 MSTORE DUP3 ADD MSTORE PUSH1 0x17 PUSH1 0x24 DUP3 ADD MSTORE PUSH32 0x4F6E6C7920666163746F72792063616E206E6F74696679000000000000000000 PUSH1 0x44 DUP3 ADD MSTORE REVERT JUMPDEST POP CALLVALUE PUSH2 0x263 JUMPI DUP1 PUSH1 0x3 NOT CALLDATASIZE ADD SLT PUSH2 0x263 JUMPI POP PUSH1 0x1 PUSH1 0x1 PUSH1 0xA0 SHL SUB PUSH1 0x20 SWAP3 SLOAD AND SWAP1 MLOAD SWAP1 DUP2 MSTORE RETURN JUMPDEST POP SWAP1 CALLVALUE PUSH2 0x285 JUMPI DUP2 PUSH1 0x3 NOT CALLDATASIZE ADD SLT PUSH2 0x285 JUMPI PUSH1 0x20 SWAP1 PUSH1 0x9 SLOAD SWAP1 MLOAD SWAP1 DUP2 MSTORE RETURN JUMPDEST POP SWAP1 CALLVALUE PUSH2 0x285 JUMPI DUP2 PUSH1 0x3 NOT CALLDATASIZE ADD SLT PUSH2 0x285 JUMPI PUSH1 0x20 SWAP1 PUSH1 0xA SLOAD SWAP1 MLOAD SWAP1 DUP2 MSTORE RETURN JUMPDEST POP SWAP1 CALLVALUE PUSH2 0x285 JUMPI DUP2 PUSH1 0x3 NOT CALLDATASIZE ADD SLT PUSH2 0x285 JUMPI PUSH1 0x20 SWAP1 PUSH1 0x1 PUSH1 0x1 PUSH1 0xA0 SHL SUB PUSH1 0x6 SLOAD AND SWAP1 MLOAD SWAP1 DUP2 MSTORE RETURN JUMPDEST POP SWAP2 SWAP1 CALLVALUE PUSH2 0x382 JUMPI PUSH1 0x20 CALLDATASIZE PUSH1 0x3 NOT ADD SLT PUSH2 0x382 JUMPI DUP2 CALLDATALOAD SWAP1 PUSH1 0x1 PUSH1 0x1 PUSH1 0xA0 SHL SUB DUP1 DUP4 AND DUP1 SWAP4 SUB PUSH2 0x5B6 JUMPI PUSH1 0x6 SLOAD AND CALLER SUB PUSH2 0x574 JUMPI POP PUSH20 0xFFFFFFFFFFFFFFFFFFFFFFFFFFFFFFFFFFFFFFFF NOT DUP3 SLOAD AND OR SWAP1 SSTORE DUP1 RETURN JUMPDEST MLOAD PUSH3 0x461BCD PUSH1 0xE5 SHL DUP2 MSTORE PUSH1 0x20 DUP2 DUP5 ADD MSTORE PUSH1 0x17 PUSH1 0x24 DUP3 ADD MSTORE PUSH32 0x43616C6C6572206973206E6F7420746865206F776E6572000000000000000000 PUSH1 0x44 DUP3 ADD MSTORE PUSH1 0x64 SWAP1 REVERT JUMPDEST DUP5 DUP1 REVERT JUMPDEST POP SWAP1 CALLVALUE PUSH2 0x285 JUMPI DUP2 PUSH1 0x3 NOT CALLDATASIZE ADD SLT PUSH2 0x285 JUMPI PUSH1 0x20 SWAP1 PUSH1 0x7 SLOAD SWAP1 MLOAD SWAP1 DUP2 MSTORE RETURN JUMPDEST POP SWAP1 CALLVALUE PUSH2 0x285 JUMPI DUP2 PUSH1 0x3 NOT CALLDATASIZE ADD SLT PUSH2 0x285 JUMPI PUSH1 0x20 SWAP1 PUSH1 0xB SLOAD SWAP1 MLOAD SWAP1 DUP2 MSTORE RETURN JUMPDEST POP SWAP2 CALLVALUE PUSH2 0x382 JUMPI PUSH1 0x20 CALLDATASIZE PUSH1 0x3 NOT ADD SLT PUSH2 0x382 JUMPI CALLDATALOAD PUSH1 0x1 PUSH1 0x1 PUSH1 0xA0 SHL SUB DUP2 AND DUP1 SWAP2 SUB PUSH2 0x382 JUMPI DUP3 DUP3 SWAP2 PUSH1 0x20 SWAP5 MSTORE PUSH1 0x1 DUP5 MSTORE KECCAK256 SLOAD SWAP1 MLOAD SWAP1 DUP2 MSTORE RETURN JUMPDEST POP SWAP1 CALLVALUE PUSH2 0x285 JUMPI DUP2 PUSH1 0x3 NOT CALLDATASIZE ADD SLT PUSH2 0x285 JUMPI PUSH1 0x20 SWAP1 MLOAD PUSH3 0x93A80 DUP2 MSTORE RETURN JUMPDEST POP SWAP2 CALLVALUE PUSH2 0x382 JUMPI PUSH1 0x20 CALLDATASIZE PUSH1 0x3 NOT ADD SLT PUSH2 0x382 JUMPI CALLDATALOAD PUSH1 0x1 PUSH1 0x1 PUSH1 0xA0 SHL SUB DUP2 AND DUP1 SWAP2 SUB PUSH2 0x382 JUMPI DUP3 DUP3 SWAP2 PUSH1 0x20 SWAP5 MSTORE PUSH1 0x2 DUP5 MSTORE KECCAK256 SLOAD SWAP1 MLOAD SWAP1 DUP2 MSTORE RETURN JUMPDEST POP SWAP1 CALLVALUE PUSH2 0x285 JUMPI DUP2 PUSH1 0x3 NOT CALLDATASIZE ADD SLT PUSH2 0x285 JUMPI PUSH1 0x20 SWAP1 PUSH1 0x1 PUSH1 0x1 PUSH1 0xA0 SHL SUB PUSH1 0x5 SLOAD AND SWAP1 MLOAD SWAP1 DUP2 MSTORE RETURN JUMPDEST POP SWAP1 CALLVALUE PUSH2 0x285 JUMPI DUP2 PUSH1 0x3 NOT CALLDATASIZE ADD SLT PUSH2 0x285 JUMPI PUSH1 0x20 SWAP1 PUSH1 0xC SLOAD SWAP1 MLOAD SWAP1 DUP2 MSTORE RETURN JUMPDEST POP SWAP2 SWAP1 DUP3 PUSH1 0x3 NOT CALLDATASIZE ADD SLT PUSH2 0x382 JUMPI PUSH2 0x6E5 PUSH2 0x166F JUMP JUMPDEST CALLVALUE ISZERO PUSH2 0xA1B JUMPI PUSH2 0x6F3 PUSH2 0x15F1 JUMP JUMPDEST PUSH1 0x1 PUSH1 0x1 PUSH1 0xA0 SHL SUB SWAP2 DUP4 DUP4 PUSH1 0x5 SLOAD AND DUP1 EXTCODESIZE ISZERO PUSH2 0x285 JUMPI DUP2 DUP4 SWAP2 DUP6 MLOAD SWAP3 DUP4 DUP1 SWAP3 PUSH4 0xD0E30DB PUSH1 0xE4 SHL DUP3 MSTORE CALLVALUE SWAP1 GAS CALL DUP1 ISZERO PUSH2 0xA11 JUMPI PUSH2 0x9FD JUMPI JUMPDEST POP POP PUSH1 0x46 CALLVALUE MUL CALLVALUE DUP2 DIV PUSH1 0x46 SUB PUSH2 0x9EA JUMPI PUSH1 0x64 SWAP1 DIV SWAP3 PUSH2 0x74A DUP5 CALLVALUE PUSH2 0x1330 JUMP JUMPDEST POP DUP1 PUSH1 0x5 SLOAD AND DUP2 DUP4 SLOAD AND DUP5 MLOAD DUP1 SWAP3 PUSH32 0xA9059CBB00000000000000000000000000000000000000000000000000000000 DUP3 MSTORE DUP2 DUP10 DUP2 PUSH2 0x7A4 PUSH1 0x20 SWAP12 DUP13 SWAP8 DUP12 DUP5 ADD PUSH1 0x20 SWAP1 SWAP4 SWAP3 SWAP2 SWAP4 PUSH1 0x1 PUSH1 0x1 PUSH1 0xA0 SHL SUB PUSH1 0x40 DUP3 ADD SWAP6 AND DUP2 MSTORE ADD MSTORE JUMP JUMPDEST SUB SWAP3 GAS CALL SWAP1 DUP2 ISZERO PUSH2 0x9E0 JUMPI DUP7 SWAP2 PUSH2 0x9A6 JUMPI JUMPDEST POP ISZERO PUSH2 0x964 JUMPI DUP5 SWAP1 CALLER DUP3 MSTORE PUSH1 0x1 DUP6 MSTORE DUP4 DUP3 KECCAK256 SLOAD DUP1 PUSH2 0x851 JUMPI JUMPDEST DUP3 DUP7 PUSH32 0xEBEDB8B3C678666E7F36970BC8F57ABF6D8FA2E828C0DA91EA5B75BF68ED101A DUP8 CALLER DUP5 MSTORE PUSH1 0x1 DUP4 MSTORE DUP1 DUP5 KECCAK256 PUSH2 0x808 CALLVALUE DUP3 SLOAD PUSH2 0x12ED JUMP JUMPDEST SWAP1 SSTORE PUSH2 0x816 CALLVALUE PUSH1 0x7 SLOAD PUSH2 0x12ED JUMP JUMPDEST PUSH1 0x7 SSTORE CALLER DUP5 MSTORE PUSH1 0x1 DUP4 MSTORE PUSH5 0xE8D4A51000 PUSH2 0x836 DUP3 DUP7 KECCAK256 SLOAD PUSH1 0x9 SLOAD SWAP1 PUSH2 0x133D JUMP JUMPDEST DIV CALLER DUP6 MSTORE PUSH1 0x2 DUP5 MSTORE DUP2 DUP6 KECCAK256 SSTORE MLOAD SWAP2 CALLVALUE DUP4 MSTORE CALLER SWAP3 LOG2 PUSH1 0x1 DUP2 SSTORE DUP1 RETURN JUMPDEST PUSH5 0xE8D4A51000 PUSH2 0x867 PUSH2 0x879 SWAP3 PUSH1 0x9 SLOAD SWAP1 PUSH2 0x133D JUMP JUMPDEST DIV CALLER DUP5 MSTORE PUSH1 0x2 DUP8 MSTORE DUP6 DUP5 KECCAK256 SLOAD SWAP1 PUSH2 0x1330 JUMP JUMPDEST SWAP3 DUP4 ISZERO SWAP2 DUP3 ISZERO PUSH2 0x88A JUMPI JUMPDEST POP PUSH2 0x7CF JUMP JUMPDEST PUSH1 0x5 SLOAD AND SWAP1 DUP2 EXTCODESIZE ISZERO PUSH2 0x960 JUMPI DUP5 PUSH1 0x24 DUP6 SWAP3 DUP4 DUP10 MLOAD SWAP6 DUP7 SWAP5 DUP6 SWAP4 PUSH4 0x2E1A7D4D PUSH1 0xE0 SHL DUP6 MSTORE DUP5 ADD MSTORE GAS CALL DUP1 ISZERO PUSH2 0x956 JUMPI SWAP1 DUP4 SWAP2 PUSH2 0x942 JUMPI JUMPDEST POP DUP4 SWAP1 SWAP2 PUSH2 0x938 JUMPI JUMPDEST DUP3 DUP1 SWAP3 SWAP2 DUP2 SWAP3 CALLER SWAP1 CALL ISZERO PUSH2 0x92E JUMPI SWAP1 PUSH32 0xEBEDB8B3C678666E7F36970BC8F57ABF6D8FA2E828C0DA91EA5B75BF68ED101A SWAP2 DUP2 MLOAD SWAP1 DUP2 MSTORE PUSH32 0x106F923F993C2149D49B4255FF723ACAFA1F2D94393F561D3EDA32AE348F7241 DUP5 CALLER SWAP3 LOG2 SWAP1 DUP4 CODESIZE DUP1 DUP1 PUSH2 0x884 JUMP JUMPDEST DUP2 MLOAD RETURNDATASIZE DUP6 DUP3 RETURNDATACOPY RETURNDATASIZE SWAP1 REVERT JUMPDEST PUSH2 0x8FC SWAP2 POP PUSH2 0x8C9 JUMP JUMPDEST PUSH2 0x94B SWAP1 PUSH2 0x12A1 JUMP JUMPDEST PUSH2 0x285 JUMPI DUP2 CODESIZE PUSH2 0x8C0 JUMP JUMPDEST DUP6 MLOAD RETURNDATASIZE DUP6 DUP3 RETURNDATACOPY RETURNDATASIZE SWAP1 REVERT JUMPDEST DUP4 DUP1 REVERT JUMPDEST POP DUP3 PUSH1 0x64 SWAP3 MLOAD SWAP2 PUSH3 0x461BCD PUSH1 0xE5 SHL DUP4 MSTORE DUP3 ADD MSTORE PUSH1 0x1E PUSH1 0x24 DUP3 ADD MSTORE PUSH32 0x4661696C656420746F2073656E64205745544820746F20666163746F72790000 PUSH1 0x44 DUP3 ADD MSTORE REVERT JUMPDEST SWAP1 POP DUP5 DUP2 DUP2 RETURNDATASIZE DUP4 GT PUSH2 0x9D9 JUMPI JUMPDEST PUSH2 0x9BD DUP2 DUP4 PUSH2 0x12CB JUMP JUMPDEST DUP2 ADD SUB SLT PUSH2 0x9D5 JUMPI MLOAD DUP1 ISZERO ISZERO DUP2 SUB PUSH2 0x9D5 JUMPI CODESIZE PUSH2 0x7B6 JUMP JUMPDEST DUP6 DUP1 REVERT JUMPDEST POP RETURNDATASIZE PUSH2 0x9B3 JUMP JUMPDEST DUP5 MLOAD RETURNDATASIZE DUP9 DUP3 RETURNDATACOPY RETURNDATASIZE SWAP1 REVERT JUMPDEST PUSH1 0x24 DUP6 PUSH1 0x11 DUP5 PUSH4 0x4E487B71 PUSH1 0xE0 SHL DUP4 MSTORE MSTORE REVERT JUMPDEST PUSH2 0xA06 SWAP1 PUSH2 0x12A1 JUMP JUMPDEST PUSH2 0x960 JUMPI DUP4 CODESIZE PUSH2 0x72B JUMP JUMPDEST DUP5 MLOAD RETURNDATASIZE DUP5 DUP3 RETURNDATACOPY RETURNDATASIZE SWAP1 REVERT JUMPDEST SWAP1 PUSH1 0x20 PUSH1 0x64 SWAP3 MLOAD SWAP2 PUSH3 0x461BCD PUSH1 0xE5 SHL DUP4 MSTORE DUP3 ADD MSTORE PUSH1 0x12 PUSH1 0x24 DUP3 ADD MSTORE PUSH32 0x43616E6E6F74207374616B652030204554480000000000000000000000000000 PUSH1 0x44 DUP3 ADD MSTORE REVERT JUMPDEST POP SWAP2 SWAP1 CALLVALUE PUSH2 0x382 JUMPI DUP3 PUSH1 0x3 NOT CALLDATASIZE ADD SLT PUSH2 0x382 JUMPI PUSH2 0xA79 PUSH2 0x166F JUMP JUMPDEST PUSH2 0xA81 PUSH2 0x15F1 JUMP JUMPDEST CALLER DUP4 MSTORE PUSH1 0x20 SWAP1 PUSH1 0x1 DUP3 MSTORE DUP1 DUP5 KECCAK256 SLOAD DUP1 ISZERO PUSH2 0xC87 JUMPI PUSH2 0xAA8 PUSH5 0xE8D4A51000 SWAP2 PUSH1 0x9 SLOAD SWAP1 PUSH2 0x133D JUMP JUMPDEST DIV SWAP3 CALLER DUP6 MSTORE PUSH1 0x2 DUP4 MSTORE PUSH2 0xABE DUP3 DUP7 KECCAK256 SLOAD DUP6 PUSH2 0x1330 JUMP JUMPDEST SWAP4 DUP5 ISZERO PUSH2 0xC45 JUMPI PUSH1 0x8 SLOAD DUP6 DUP2 LT PUSH2 0xC03 JUMPI DUP6 PUSH2 0xAD9 SWAP2 PUSH2 0x1330 JUMP JUMPDEST PUSH1 0x8 SSTORE CALLER DUP7 MSTORE PUSH1 0x2 DUP5 MSTORE DUP3 DUP7 KECCAK256 SSTORE DUP5 PUSH1 0x1 PUSH1 0x1 PUSH1 0xA0 SHL SUB PUSH1 0x5 SLOAD AND DUP1 EXTCODESIZE ISZERO PUSH2 0x285 JUMPI DUP2 DUP1 SWAP2 PUSH1 0x24 DUP7 MLOAD DUP1 SWAP5 DUP2 SWAP4 PUSH4 0x2E1A7D4D PUSH1 0xE0 SHL DUP4 MSTORE DUP12 DUP10 DUP5 ADD MSTORE GAS CALL DUP1 ISZERO PUSH2 0xA11 JUMPI PUSH2 0xBEF JUMPI JUMPDEST POP DUP1 DUP1 DUP1 DUP8 CALLER GAS CALL RETURNDATASIZE ISZERO PUSH2 0xBEA JUMPI RETURNDATASIZE PUSH8 0xFFFFFFFFFFFFFFFF DUP2 GT PUSH2 0xBD7 JUMPI DUP4 MLOAD SWAP1 PUSH2 0xB56 PUSH1 0x1F DUP3 ADD PUSH1 0x1F NOT AND DUP8 ADD DUP4 PUSH2 0x12CB JUMP JUMPDEST DUP2 MSTORE DUP7 DUP6 RETURNDATASIZE SWAP3 ADD RETURNDATACOPY JUMPDEST ISZERO PUSH2 0xB96 JUMPI POP SWAP1 PUSH32 0x106F923F993C2149D49B4255FF723ACAFA1F2D94393F561D3EDA32AE348F7241 SWAP2 MLOAD SWAP3 DUP4 MSTORE CALLER SWAP3 LOG2 PUSH1 0x1 DUP2 SSTORE DUP1 RETURN JUMPDEST DUP3 PUSH1 0x64 SWAP3 MLOAD SWAP2 PUSH3 0x461BCD PUSH1 0xE5 SHL DUP4 MSTORE DUP3 ADD MSTORE PUSH1 0x12 PUSH1 0x24 DUP3 ADD MSTORE PUSH32 0x4661696C656420746F2073656E64204554480000000000000000000000000000 PUSH1 0x44 DUP3 ADD MSTORE REVERT JUMPDEST PUSH1 0x24 DUP8 PUSH1 0x41 DUP6 PUSH4 0x4E487B71 PUSH1 0xE0 SHL DUP4 MSTORE MSTORE REVERT JUMPDEST PUSH2 0xB5F JUMP JUMPDEST PUSH2 0xBF8 SWAP1 PUSH2 0x12A1 JUMP JUMPDEST PUSH2 0x5B6 JUMPI DUP5 CODESIZE PUSH2 0xB22 JUMP JUMPDEST PUSH1 0x64 DUP4 DUP7 DUP7 MLOAD SWAP2 PUSH3 0x461BCD PUSH1 0xE5 SHL DUP4 MSTORE DUP3 ADD MSTORE PUSH1 0x1A PUSH1 0x24 DUP3 ADD MSTORE PUSH32 0x4E6F7420656E6F756768207265776172647320696E20706F6F6C000000000000 PUSH1 0x44 DUP3 ADD MSTORE REVERT JUMPDEST POP DUP3 PUSH1 0x64 SWAP3 MLOAD SWAP2 PUSH3 0x461BCD PUSH1 0xE5 SHL DUP4 MSTORE DUP3 ADD MSTORE PUSH1 0x13 PUSH1 0x24 DUP3 ADD MSTORE PUSH32 0x4E6F207265776172647320746F20636C61696D00000000000000000000000000 PUSH1 0x44 DUP3 ADD MSTORE REVERT JUMPDEST POP PUSH1 0x84 SWAP4 POP MLOAD SWAP2 PUSH3 0x461BCD PUSH1 0xE5 SHL DUP4 MSTORE DUP3 ADD MSTORE PUSH1 0x25 PUSH1 0x24 DUP3 ADD MSTORE PUSH32 0x4E6F207374616B656420616D6F756E7420746F20636C61696D20726577617264 PUSH1 0x44 DUP3 ADD MSTORE PUSH32 0x7320666F72000000000000000000000000000000000000000000000000000000 PUSH1 0x64 DUP3 ADD MSTORE REVERT JUMPDEST POP SWAP1 CALLVALUE PUSH2 0x285 JUMPI PUSH1 0x20 SWAP1 DUP2 PUSH1 0x3 NOT CALLDATASIZE ADD SLT PUSH2 0x382 JUMPI DUP4 CALLDATALOAD SWAP2 PUSH2 0xD0F PUSH2 0x166F JUMP JUMPDEST CALLER DUP5 MSTORE PUSH1 0x1 DUP2 MSTORE DUP3 DUP3 DUP6 KECCAK256 SLOAD LT PUSH2 0x103B JUMPI PUSH1 0x1 PUSH1 0x1 PUSH1 0xA0 SHL SUB DUP1 PUSH1 0x5 SLOAD AND DUP4 MLOAD DUP4 DUP2 PUSH1 0x24 DUP2 PUSH4 0x70A08231 PUSH1 0xE0 SHL SWAP6 DUP7 DUP3 MSTORE ADDRESS DUP14 DUP4 ADD MSTORE GAS STATICCALL SWAP1 DUP2 ISZERO PUSH2 0x1000 JUMPI DUP8 SWAP2 PUSH2 0x100E JUMPI JUMPDEST POP DUP6 DUP2 LT PUSH2 0xDAD JUMPI POP POP POP DUP3 SWAP4 SWAP5 POP PUSH2 0xD8F PUSH32 0x57E41DF54512C76148B5BA9B643D149752B0D35E493B969BD017D0A3FE5228CF SWAP4 CALLER PUSH2 0x16AA JUMP JUMPDEST CALLER DUP6 MSTORE PUSH1 0x3 DUP2 MSTORE DUP2 DUP6 KECCAK256 SLOAD SWAP1 DUP3 MLOAD SWAP5 DUP6 MSTORE DUP5 ADD MSTORE CALLER SWAP3 LOG2 PUSH1 0x1 DUP2 SSTORE DUP1 RETURN JUMPDEST PUSH2 0xDB7 SWAP1 DUP7 PUSH2 0x1330 JUMP JUMPDEST DUP3 DUP9 SLOAD AND DUP1 EXTCODESIZE ISZERO PUSH2 0x100A JUMPI DUP6 MLOAD PUSH32 0xBE5EF17600000000000000000000000000000000000000000000000000000000 DUP2 MSTORE ADDRESS DUP2 DUP12 ADD SWAP1 DUP2 MSTORE PUSH1 0x20 DUP2 ADD SWAP4 SWAP1 SWAP4 MSTORE SWAP2 DUP9 SWAP2 DUP4 SWAP2 DUP3 SWAP1 DUP5 SWAP1 DUP3 SWAP1 PUSH1 0x40 ADD SUB SWAP3 GAS CALL DUP1 ISZERO PUSH2 0x1000 JUMPI SWAP1 DUP8 SWAP2 PUSH2 0xFEC JUMPI JUMPDEST POP POP DUP3 DUP3 PUSH1 0x5 SLOAD AND SWAP2 PUSH1 0x24 DUP7 MLOAD DUP1 SWAP5 DUP2 SWAP4 DUP3 MSTORE ADDRESS DUP13 DUP4 ADD MSTORE GAS STATICCALL SWAP1 DUP2 ISZERO PUSH2 0x9E0 JUMPI SWAP1 DUP6 SWAP2 DUP8 SWAP2 PUSH2 0xFB6 JUMPI JUMPDEST POP LT PUSH2 0xE7C JUMPI POP DUP3 SWAP4 SWAP5 POP PUSH2 0xE77 PUSH32 0x57E41DF54512C76148B5BA9B643D149752B0D35E493B969BD017D0A3FE5228CF SWAP4 CALLER PUSH2 0x16AA JUMP JUMPDEST PUSH2 0xD8F JUMP JUMPDEST CALLER DUP6 MSTORE PUSH1 0x3 DUP3 MSTORE DUP3 DUP6 KECCAK256 PUSH2 0xE91 DUP6 DUP3 SLOAD PUSH2 0x12ED JUMP JUMPDEST SWAP1 SSTORE DUP3 MLOAD SWAP1 PUSH1 0x60 DUP3 ADD DUP3 DUP2 LT PUSH8 0xFFFFFFFFFFFFFFFF DUP3 GT OR PUSH2 0xFA1 JUMPI DUP5 MSTORE CALLER DUP3 MSTORE DUP3 DUP3 ADD DUP6 DUP2 MSTORE DUP5 DUP4 ADD SWAP2 TIMESTAMP DUP4 MSTORE PUSH1 0xC SLOAD PUSH9 0x10000000000000000 DUP2 LT ISZERO PUSH2 0xF8E JUMPI DUP1 PUSH1 0x1 PUSH2 0xEE3 SWAP3 ADD PUSH1 0xC SSTORE PUSH2 0x1250 JUMP JUMPDEST SWAP5 SWAP1 SWAP5 PUSH2 0xF7C JUMPI PUSH32 0x57E41DF54512C76148B5BA9B643D149752B0D35E493B969BD017D0A3FE5228CF SWAP8 SWAP9 SWAP10 POP SWAP1 PUSH1 0x2 SWAP4 SWAP3 SWAP2 MLOAD AND PUSH20 0xFFFFFFFFFFFFFFFFFFFFFFFFFFFFFFFFFFFFFFFF NOT DUP6 SLOAD AND OR DUP5 SSTORE MLOAD PUSH1 0x1 DUP5 ADD SSTORE MLOAD SWAP2 ADD SSTORE DUP2 MLOAD DUP5 DUP2 MSTORE TIMESTAMP DUP3 DUP3 ADD MSTORE PUSH32 0xF24CEB8901EAECB633A833076EC1A09F317122E81BD3BC200D811E0C9BB08146 DUP4 CALLER SWAP3 LOG2 PUSH2 0xE77 PUSH2 0xF77 PUSH2 0x1350 JUMP JUMPDEST PUSH2 0x17AC JUMP JUMPDEST PUSH1 0x24 DUP10 DUP1 DUP13 PUSH4 0x4E487B71 PUSH1 0xE0 SHL DUP3 MSTORE MSTORE REVERT JUMPDEST PUSH1 0x24 DUP10 PUSH1 0x41 DUP13 PUSH4 0x4E487B71 PUSH1 0xE0 SHL DUP4 MSTORE MSTORE REVERT JUMPDEST PUSH1 0x41 DUP9 PUSH4 0x4E487B71 PUSH1 0xE0 SHL PUSH1 0x0 MSTORE MSTORE PUSH1 0x24 PUSH1 0x0 REVERT JUMPDEST DUP1 SWAP3 POP DUP5 DUP1 SWAP3 POP RETURNDATASIZE DUP4 GT PUSH2 0xFE5 JUMPI JUMPDEST PUSH2 0xFCF DUP2 DUP4 PUSH2 0x12CB JUMP JUMPDEST DUP2 ADD SUB SLT PUSH2 0xFE0 JUMPI DUP5 SWAP1 MLOAD CODESIZE PUSH2 0xE41 JUMP JUMPDEST PUSH1 0x0 DUP1 REVERT JUMPDEST POP RETURNDATASIZE PUSH2 0xFC5 JUMP JUMPDEST PUSH2 0xFF5 SWAP1 PUSH2 0x12A1 JUMP JUMPDEST PUSH2 0x9D5 JUMPI DUP6 CODESIZE PUSH2 0xE16 JUMP JUMPDEST DUP6 MLOAD RETURNDATASIZE DUP10 DUP3 RETURNDATACOPY RETURNDATASIZE SWAP1 REVERT JUMPDEST DUP8 DUP1 REVERT JUMPDEST SWAP1 POP DUP4 DUP2 DUP2 RETURNDATASIZE DUP4 GT PUSH2 0x1034 JUMPI JUMPDEST PUSH2 0x1025 DUP2 DUP4 PUSH2 0x12CB JUMP JUMPDEST DUP2 ADD SUB SLT PUSH2 0xFE0 JUMPI MLOAD CODESIZE PUSH2 0xD55 JUMP JUMPDEST POP RETURNDATASIZE PUSH2 0x101B JUMP JUMPDEST DUP5 SWAP1 PUSH1 0x64 SWAP3 MLOAD SWAP2 PUSH3 0x461BCD PUSH1 0xE5 SHL DUP4 MSTORE DUP3 ADD MSTORE PUSH1 0x1B PUSH1 0x24 DUP3 ADD MSTORE PUSH32 0x496E73756666696369656E74207374616B65642062616C616E63650000000000 PUSH1 0x44 DUP3 ADD MSTORE REVERT JUMPDEST POP SWAP2 DUP3 PUSH1 0x3 NOT CALLDATASIZE ADD SLT PUSH2 0x382 JUMPI PUSH1 0x1 PUSH1 0x1 PUSH1 0xA0 SHL SUB DUP1 PUSH1 0x6 SLOAD AND CALLER EQ DUP1 ISZERO PUSH2 0x122B JUMPI JUMPDEST DUP1 ISZERO PUSH2 0x121F JUMPI JUMPDEST ISZERO PUSH2 0x11DC JUMPI CALLVALUE ISZERO PUSH2 0x1199 JUMPI DUP4 SWAP1 PUSH1 0x5 SLOAD AND DUP1 EXTCODESIZE ISZERO PUSH2 0x285 JUMPI DUP4 MLOAD SWAP3 DUP4 DUP1 SWAP3 PUSH4 0xD0E30DB PUSH1 0xE4 SHL DUP3 MSTORE CALLVALUE SWAP1 GAS CALL DUP1 ISZERO PUSH2 0x118D JUMPI PUSH2 0x1157 JUMPI JUMPDEST POP PUSH1 0x20 PUSH32 0xF8FAD42E780BFA5459BE3FE691E8BA1AEC70342250112139C5771C3FD155F312 SWAP2 PUSH2 0x110B PUSH2 0x15F1 JUMP JUMPDEST PUSH3 0x93A80 PUSH2 0x111B CALLVALUE PUSH1 0x8 SLOAD PUSH2 0x12ED JUMP JUMPDEST DUP1 PUSH1 0x8 SSTORE PUSH32 0x8629690313970E9E42939FC905246BD1FF3A69DAE5EFC961F8B40A91A838DFFE DUP5 DUP5 MLOAD DUP4 DUP2 MSTORE LOG1 DIV PUSH1 0xB SSTORE TIMESTAMP PUSH1 0xA SSTORE MLOAD CALLVALUE DUP2 MSTORE LOG1 DUP1 RETURN JUMPDEST PUSH32 0xF8FAD42E780BFA5459BE3FE691E8BA1AEC70342250112139C5771C3FD155F312 SWAP2 SWAP3 PUSH2 0x1185 PUSH1 0x20 SWAP3 PUSH2 0x12A1 JUMP JUMPDEST SWAP3 SWAP2 POP PUSH2 0x10DE JUMP JUMPDEST POP POP MLOAD SWAP1 RETURNDATASIZE SWAP1 DUP3 RETURNDATACOPY RETURNDATASIZE SWAP1 REVERT JUMPDEST POP PUSH1 0x20 PUSH1 0x64 SWAP3 MLOAD SWAP2 PUSH3 0x461BCD PUSH1 0xE5 SHL DUP4 MSTORE DUP3 ADD MSTORE PUSH1 0x11 PUSH1 0x24 DUP3 ADD MSTORE PUSH32 0x4E6F207265776172647320746F20616464000000000000000000000000000000 PUSH1 0x44 DUP3 ADD MSTORE REVERT JUMPDEST POP PUSH1 0x20 PUSH1 0x64 SWAP3 MLOAD SWAP2 PUSH3 0x461BCD PUSH1 0xE5 SHL DUP4 MSTORE DUP3 ADD MSTORE PUSH1 0x18 PUSH1 0x24 DUP3 ADD MSTORE PUSH32 0x43616C6C6572206973206E6F7420617574686F72697A65640000000000000000 PUSH1 0x44 DUP3 ADD MSTORE REVERT JUMPDEST POP DUP1 DUP3 SLOAD AND CALLER EQ PUSH2 0x10A7 JUMP JUMPDEST POP ADDRESS CALLER EQ PUSH2 0x10A0 JUMP JUMPDEST SWAP1 POP CALLVALUE PUSH2 0x285 JUMPI DUP2 PUSH1 0x3 NOT CALLDATASIZE ADD SLT PUSH2 0x285 JUMPI PUSH1 0x20 SWAP1 PUSH1 0x7 SLOAD DUP2 MSTORE RETURN JUMPDEST PUSH1 0xC SLOAD DUP2 LT ISZERO PUSH2 0x128B JUMPI PUSH1 0x3 SWAP1 PUSH1 0xC PUSH1 0x0 MSTORE MUL PUSH32 0xDF6966C971051C3D54EC59162606531493A51404A002842F56009D7E5CF4A8C7 ADD SWAP1 PUSH1 0x0 SWAP1 JUMP JUMPDEST PUSH4 0x4E487B71 PUSH1 0xE0 SHL PUSH1 0x0 MSTORE PUSH1 0x32 PUSH1 0x4 MSTORE PUSH1 0x24 PUSH1 0x0 REVERT JUMPDEST PUSH8 0xFFFFFFFFFFFFFFFF DUP2 GT PUSH2 0x12B5 JUMPI PUSH1 0x40 MSTORE JUMP JUMPDEST PUSH4 0x4E487B71 PUSH1 0xE0 SHL PUSH1 0x0 MSTORE PUSH1 0x41 PUSH1 0x4 MSTORE PUSH1 0x24 PUSH1 0x0 REVERT JUMPDEST SWAP1 PUSH1 0x1F DUP1 NOT SWAP2 ADD AND DUP2 ADD SWAP1 DUP2 LT PUSH8 0xFFFFFFFFFFFFFFFF DUP3 GT OR PUSH2 0x12B5 JUMPI PUSH1 0x40 MSTORE JUMP JUMPDEST SWAP2 SWAP1 DUP3 ADD DUP1 SWAP3 GT PUSH2 0x12FA JUMPI JUMP JUMPDEST PUSH4 0x4E487B71 PUSH1 0xE0 SHL PUSH1 0x0 MSTORE PUSH1 0x11 PUSH1 0x4 MSTORE PUSH1 0x24 PUSH1 0x0 REVERT JUMPDEST DUP2 ISZERO PUSH2 0x131A JUMPI DIV SWAP1 JUMP JUMPDEST PUSH4 0x4E487B71 PUSH1 0xE0 SHL PUSH1 0x0 MSTORE PUSH1 0x12 PUSH1 0x4 MSTORE PUSH1 0x24 PUSH1 0x0 REVERT JUMPDEST SWAP2 SWAP1 DUP3 SUB SWAP2 DUP3 GT PUSH2 0x12FA JUMPI JUMP JUMPDEST DUP2 DUP2 MUL SWAP3 SWAP2 DUP2 ISZERO SWAP2 DUP5 DIV EQ OR ISZERO PUSH2 0x12FA JUMPI JUMP JUMPDEST PUSH1 0x0 DUP1 PUSH1 0xC SLOAD JUMPDEST DUP1 DUP3 LT PUSH2 0x1363 JUMPI POP POP SWAP1 JUMP JUMPDEST SWAP1 SWAP2 PUSH2 0x137E PUSH1 0x1 SWAP2 DUP3 PUSH2 0x1375 DUP7 PUSH2 0x1250 JUMP JUMPDEST POP ADD SLOAD SWAP1 PUSH2 0x12ED JUMP JUMPDEST SWAP3 ADD SWAP1 PUSH2 0x1357 JUMP JUMPDEST PUSH1 0x1 PUSH1 0x1 PUSH1 0xA0 SHL SUB DUP1 PUSH1 0x5 SLOAD AND PUSH1 0x40 MLOAD DUP1 SWAP4 DUP2 SWAP4 PUSH4 0x70A08231 PUSH1 0xE0 SHL DUP4 MSTORE PUSH1 0x4 SWAP4 ADDRESS DUP6 DUP6 ADD MSTORE PUSH1 0x20 SWAP6 DUP7 SWAP2 PUSH1 0x24 SWAP9 DUP10 SWAP2 GAS STATICCALL SWAP3 DUP4 ISZERO PUSH2 0x15E5 JUMPI PUSH1 0x0 SWAP4 PUSH2 0x15B6 JUMPI JUMPDEST POP PUSH32 0x264B03945932E4BC51E688F9F27DBB1F5FABA7660D11ABDBF7E7F41ED87928BA DUP6 DUP5 PUSH1 0x40 MLOAD SWAP1 DUP2 MSTORE LOG1 PUSH1 0x0 SWAP3 DUP4 SWAP3 JUMPDEST PUSH1 0xC SWAP2 DUP3 SLOAD DUP6 LT DUP1 PUSH2 0x15AD JUMPI JUMPDEST ISZERO PUSH2 0x1567 JUMPI PUSH2 0x1413 DUP6 PUSH2 0x1250 JUMP JUMPDEST POP PUSH1 0x1 DUP1 DUP3 ADD DUP1 SLOAD SWAP2 SWAP4 SWAP3 SWAP1 SWAP2 SWAP1 DUP2 DUP5 LT PUSH2 0x152B JUMPI PUSH2 0x1441 SWAP4 SWAP3 SWAP2 DUP9 PUSH2 0x143A SWAP3 SLOAD AND PUSH2 0x16AA JUMP JUMPDEST SLOAD SWAP1 PUSH2 0x1330 JUMP JUMPDEST SWAP3 DUP1 SLOAD PUSH1 0x0 NOT SWAP1 DUP2 DUP2 ADD SWAP1 DUP2 GT PUSH2 0x1517 JUMPI PUSH2 0x145B SWAP1 PUSH2 0x1250 JUMP JUMPDEST POP PUSH2 0x1465 DUP9 PUSH2 0x1250 JUMP JUMPDEST SWAP2 SWAP1 SWAP2 PUSH2 0x1504 JUMPI DUP1 DUP3 SUB PUSH2 0x14CC JUMPI JUMPDEST POP POP DUP2 SLOAD DUP1 ISZERO PUSH2 0x14B8 JUMPI ADD SWAP2 PUSH2 0x1489 DUP4 PUSH2 0x1250 JUMP JUMPDEST SWAP2 SWAP1 SWAP2 PUSH2 0x14A5 JUMPI DUP2 PUSH1 0x0 PUSH1 0x2 SWAP3 DUP2 DUP1 SWAP6 SSTORE DUP3 ADD SSTORE ADD SSTORE SSTORE PUSH2 0x13F8 JUMP JUMPDEST DUP12 PUSH1 0x0 DUP12 PUSH4 0x4E487B71 PUSH1 0xE0 SHL DUP3 MSTORE MSTORE PUSH1 0x0 REVERT JUMPDEST DUP12 PUSH1 0x31 DUP12 PUSH4 0x4E487B71 PUSH1 0xE0 SHL PUSH1 0x0 MSTORE MSTORE PUSH1 0x0 REVERT JUMPDEST DUP8 DUP2 SLOAD AND PUSH20 0xFFFFFFFFFFFFFFFFFFFFFFFFFFFFFFFFFFFFFFFF NOT DUP4 SLOAD AND OR DUP3 SSTORE DUP5 DUP2 ADD SLOAD DUP6 DUP4 ADD SSTORE PUSH1 0x2 DUP1 SWAP2 ADD SLOAD SWAP2 ADD SSTORE CODESIZE DUP1 PUSH2 0x1474 JUMP JUMPDEST DUP13 PUSH1 0x0 DUP13 PUSH4 0x4E487B71 PUSH1 0xE0 SHL DUP3 MSTORE MSTORE PUSH1 0x0 REVERT JUMPDEST DUP12 PUSH1 0x11 DUP12 PUSH4 0x4E487B71 PUSH1 0xE0 SHL PUSH1 0x0 MSTORE MSTORE PUSH1 0x0 REVERT JUMPDEST POP DUP3 SWAP6 POP PUSH2 0x22C SWAP2 POP SWAP2 PUSH2 0x1542 SWAP4 SWAP5 SWAP8 SWAP9 SWAP3 PUSH2 0x1330 JUMP JUMPDEST SWAP5 PUSH1 0x0 NOT DUP2 EQ PUSH2 0x1553 JUMPI ADD SWAP3 PUSH2 0x13F8 JUMP JUMPDEST DUP9 PUSH1 0x11 DUP9 PUSH4 0x4E487B71 PUSH1 0xE0 SHL PUSH1 0x0 MSTORE MSTORE PUSH1 0x0 REVERT JUMPDEST POP SWAP7 POP POP POP POP SWAP2 SWAP1 POP DUP2 PUSH2 0x1579 JUMPI POP POP JUMP JUMPDEST DUP2 PUSH2 0x15A4 PUSH32 0xD5E85995D9BDCDAFB72531EC59FAEF29167C16780583CA2068587FE896170C47 SWAP4 PUSH2 0x17AC JUMP JUMPDEST PUSH1 0x40 MLOAD SWAP1 DUP2 MSTORE LOG1 JUMP JUMPDEST POP DUP1 ISZERO ISZERO PUSH2 0x1405 JUMP JUMPDEST SWAP1 SWAP3 POP DUP5 DUP2 DUP2 RETURNDATASIZE DUP4 GT PUSH2 0x15DE JUMPI JUMPDEST PUSH2 0x15CE DUP2 DUP4 PUSH2 0x12CB JUMP JUMPDEST DUP2 ADD SUB SLT PUSH2 0xFE0 JUMPI MLOAD SWAP2 CODESIZE PUSH2 0x13C7 JUMP JUMPDEST POP RETURNDATASIZE PUSH2 0x15C4 JUMP JUMPDEST PUSH1 0x40 MLOAD RETURNDATASIZE PUSH1 0x0 DUP3 RETURNDATACOPY RETURNDATASIZE SWAP1 REVERT JUMPDEST PUSH1 0xA SLOAD TIMESTAMP GT ISZERO PUSH2 0x166D JUMPI PUSH1 0x7 SLOAD DUP1 ISZERO PUSH2 0x1666 JUMPI PUSH2 0x1613 PUSH2 0x1DC PUSH1 0xA SLOAD TIMESTAMP PUSH2 0x1330 JUMP JUMPDEST PUSH1 0x8 SLOAD DUP1 DUP3 GT PUSH2 0x165E JUMPI JUMPDEST PUSH5 0xE8D4A51000 SWAP3 DUP4 DUP4 MUL SWAP4 DUP4 DUP6 DIV EQ DUP4 ISZERO OR ISZERO PUSH2 0x12FA JUMPI PUSH2 0x1645 PUSH2 0x164D SWAP2 PUSH2 0x1655 SWAP6 PUSH2 0x1310 JUMP JUMPDEST PUSH1 0x9 SLOAD PUSH2 0x12ED JUMP JUMPDEST PUSH1 0x9 SSTORE PUSH2 0x1330 JUMP JUMPDEST PUSH1 0x8 SSTORE TIMESTAMP PUSH1 0xA SSTORE JUMP JUMPDEST SWAP1 POP DUP1 PUSH2 0x161E JUMP JUMPDEST POP TIMESTAMP PUSH1 0xA SSTORE JUMP JUMPDEST JUMP JUMPDEST PUSH1 0x2 PUSH1 0x0 SLOAD EQ PUSH2 0x1680 JUMPI PUSH1 0x2 PUSH1 0x0 SSTORE JUMP JUMPDEST PUSH1 0x4 PUSH1 0x40 MLOAD PUSH32 0x3EE5AEB500000000000000000000000000000000000000000000000000000000 DUP2 MSTORE REVERT JUMPDEST SWAP1 PUSH1 0x5 SLOAD SWAP2 PUSH1 0x0 SWAP3 PUSH1 0x1 PUSH1 0x1 PUSH1 0xA0 SHL SUB DUP1 SWAP2 AND SWAP2 DUP3 EXTCODESIZE ISZERO PUSH2 0x5B6 JUMPI DUP5 DUP1 PUSH1 0x40 SWAP5 PUSH1 0x24 DUP7 MLOAD DUP1 SWAP5 DUP2 SWAP4 PUSH4 0x2E1A7D4D PUSH1 0xE0 SHL DUP4 MSTORE DUP11 PUSH1 0x4 DUP5 ADD MSTORE GAS CALL DUP1 ISZERO PUSH2 0x9E0 JUMPI PUSH2 0x1799 JUMPI JUMPDEST POP AND SWAP3 DUP1 DUP4 DUP6 DUP3 DUP3 ISZERO PUSH2 0x1790 JUMPI JUMPDEST DUP4 SWAP3 DUP4 SWAP3 DUP4 SWAP3 CALL ISZERO PUSH2 0x1785 JUMPI SWAP2 PUSH1 0x20 SWAP2 DUP4 DUP6 PUSH32 0x85082129D87B2FE11527CB1B3B7A520AEB5AA6913F88A3D8757FE40D1DB02FDD SWAP6 MSTORE PUSH1 0x1 DUP5 MSTORE DUP2 DUP2 KECCAK256 PUSH2 0x1744 DUP5 DUP3 SLOAD PUSH2 0x1330 JUMP JUMPDEST SWAP1 SSTORE PUSH2 0x1752 DUP4 PUSH1 0x7 SLOAD PUSH2 0x1330 JUMP JUMPDEST PUSH1 0x7 SSTORE DUP6 DUP2 MSTORE PUSH1 0x1 DUP5 MSTORE DUP2 PUSH5 0xE8D4A51000 PUSH2 0x1773 DUP3 DUP5 KECCAK256 SLOAD PUSH1 0x9 SLOAD SWAP1 PUSH2 0x133D JUMP JUMPDEST DIV SWAP2 DUP8 DUP2 MSTORE PUSH1 0x2 DUP7 MSTORE KECCAK256 SSTORE MLOAD SWAP1 DUP2 MSTORE LOG2 JUMP JUMPDEST SWAP1 MLOAD SWAP1 RETURNDATASIZE SWAP1 DUP3 RETURNDATACOPY RETURNDATASIZE SWAP1 REVERT JUMPDEST POP PUSH2 0x8FC PUSH2 0x16FD JUMP JUMPDEST PUSH2 0x17A5 SWAP1 SWAP6 SWAP2 SWAP6 PUSH2 0x12A1 JUMP JUMPDEST SWAP4 CODESIZE PUSH2 0x16EF JUMP JUMPDEST PUSH32 0xAC0A36A73050720C3FA0D6988CCA2309EF4472B3B09FAFA8E713F434FF33A05B PUSH1 0x20 PUSH1 0x40 MLOAD DUP4 DUP2 MSTORE LOG1 PUSH1 0x1 PUSH1 0x1 PUSH1 0xA0 SHL SUB PUSH1 0x4 SLOAD AND SWAP1 DUP2 EXTCODESIZE ISZERO PUSH2 0xFE0 JUMPI PUSH1 0x0 SWAP2 PUSH1 0x24 DUP4 SWAP3 PUSH1 0x40 MLOAD SWAP5 DUP6 SWAP4 DUP5 SWAP3 PUSH32 0x8C3A65A200000000000000000000000000000000000000000000000000000000 DUP5 MSTORE PUSH1 0x4 DUP5 ADD MSTORE GAS CALL DUP1 ISZERO PUSH2 0x15E5 JUMPI PUSH2 0x1830 JUMPI POP JUMP JUMPDEST PUSH2 0x166D SWAP1 PUSH2 0x12A1 JUMP INVALID LOG2 PUSH5 0x6970667358 0x22 SLT KECCAK256 MUL 0xD OR PUSH4 0xD849830 0xEB 0xCF REVERT PUSH24 0xAB8D7002129860B670A9F3DBC7FE28ABC9454ECA64736F6C PUSH4 0x43000818 STOP CALLER "},"methodIdentifiers":{"REWARD_INTERVAL()":"5dbdda69","accRewardPerShare()":"939d6237","addRewards()":"14d6aed0","claimRewards()":"372500ab","factoryAddress()":"966dae0e","getStake(address)":"7a766460","getTotalRewards()":"e627f2db","getTotalStaked()":"0917e776","getTotalUnstakeQueueAmount()":"b8e347df","getUnstakeQueueLength()":"3bac9c99","getUnstakeRequest(uint256)":"ddb59e13","handleReceivedWETH()":"c4ebe088","lastRewardTime()":"9231cf74","notifyFundsReceived(uint256)":"9b5ceb35","owner()":"8da5cb5b","pendingReward(address)":"f40f0f52","pendingUnstakes(address)":"d6b6b23f","requestUnstake(uint256)":"23095721","rewardDebt(address)":"5873eb9b","rewardRate()":"7b0a47ee","setFactoryAddress(address)":"83c17c55","stake()":"3a4b66f1","stakes(address)":"16934fc4","totalFundsNeeded()":"f3385ace","totalRewards()":"0e15561a","totalStaked()":"817b1cd2","unstakeQueue(uint256)":"afa58070","weth()":"3fc8cef3"}}}}}