{"contracts/Locker.sol":{"LiquidityLocker":{"abi":[{"inputs":[{"internalType":"address","name":"_positionManager","type":"address"}],"stateMutability":"nonpayable","type":"constructor"},{"anonymous":false,"inputs":[{"indexed":false,"internalType":"uint256","name":"","type":"uint256"},{"indexed":false,"internalType":"uint256","name":"","type":"uint256"},{"indexed":false,"internalType":"uint256","name":"","type":"uint256"}],"name":"FeesCollected","type":"event"},{"anonymous":false,"inputs":[{"indexed":true,"internalType":"uint256","name":"lockId","type":"uint256"},{"indexed":true,"internalType":"address","name":"tokenAddress","type":"address"},{"indexed":false,"internalType":"uint256","name":"tokenId","type":"uint256"},{"indexed":false,"internalType":"uint256","name":"unlockTime","type":"uint256"}],"name":"LiquidityLocked","type":"event"},{"anonymous":false,"inputs":[{"indexed":true,"internalType":"uint256","name":"lockId","type":"uint256"},{"indexed":true,"internalType":"address","name":"tokenAddress","type":"address"},{"indexed":false,"internalType":"uint256","name":"tokenId","type":"uint256"}],"name":"LiquidityUnlocked","type":"event"},{"inputs":[{"internalType":"address","name":"factory","type":"address"},{"internalType":"uint256","name":"tokenId","type":"uint256"}],"name":"approveFactory","outputs":[],"stateMutability":"nonpayable","type":"function"},{"inputs":[{"internalType":"uint256","name":"tokenId","type":"uint256"},{"internalType":"address","name":"factory","type":"address"}],"name":"collectFees","outputs":[{"internalType":"uint256","name":"amount0","type":"uint256"},{"internalType":"uint256","name":"amount1","type":"uint256"}],"stateMutability":"nonpayable","type":"function"},{"inputs":[],"name":"factoryAddress","outputs":[{"internalType":"address","name":"","type":"address"}],"stateMutability":"view","type":"function"},{"inputs":[{"internalType":"address","name":"_nftAddress","type":"address"},{"internalType":"uint256","name":"_tokenId","type":"uint256"},{"internalType":"uint256","name":"_duration","type":"uint256"},{"internalType":"address","name":"factory","type":"address"}],"name":"lockLiquidity","outputs":[{"internalType":"uint256","name":"lockId","type":"uint256"}],"stateMutability":"nonpayable","type":"function"},{"inputs":[{"internalType":"uint256","name":"","type":"uint256"}],"name":"locks","outputs":[{"internalType":"uint256","name":"tokenId","type":"uint256"},{"internalType":"bool","name":"isLocked","type":"bool"},{"internalType":"uint256","name":"lockID","type":"uint256"},{"internalType":"uint256","name":"unlockTime","type":"uint256"}],"stateMutability":"view","type":"function"},{"inputs":[],"name":"nextLockId","outputs":[{"internalType":"uint256","name":"","type":"uint256"}],"stateMutability":"view","type":"function"},{"inputs":[{"internalType":"address","name":"","type":"address"},{"internalType":"address","name":"","type":"address"},{"internalType":"uint256","name":"","type":"uint256"},{"internalType":"bytes","name":"","type":"bytes"}],"name":"onERC721Received","outputs":[{"internalType":"bytes4","name":"","type":"bytes4"}],"stateMutability":"nonpayable","type":"function"},{"inputs":[],"name":"owner","outputs":[{"internalType":"address","name":"","type":"address"}],"stateMutability":"view","type":"function"},{"inputs":[],"name":"positionManager","outputs":[{"internalType":"contract INonfungiblePositionManager","name":"","type":"address"}],"stateMutability":"view","type":"function"},{"inputs":[{"internalType":"address","name":"_factoryAddress","type":"address"}],"name":"setFactoryAddress","outputs":[],"stateMutability":"nonpayable","type":"function"},{"inputs":[{"internalType":"address","name":"newOwner","type":"address"}],"name":"transferOwnership","outputs":[],"stateMutability":"nonpayable","type":"function"},{"inputs":[{"internalType":"uint256","name":"_lockId","type":"uint256"},{"internalType":"address","name":"factory","type":"address"}],"name":"unlockLiquidity","outputs":[],"stateMutability":"nonpayable","type":"function"}],"evm":{"bytecode":{"linkReferences":{},"object":"60803461008957601f610ad338819003918201601f19168301916001600160401b0383118484101761008e5780849260209460405283398101031261008957516001600160a01b0381169081900361008957600060025560018060a01b031933816000541617600055818160035416176003556004541617600455604051610a2e90816100a58239f35b600080fd5b634e487b7160e01b600052604160045260246000fdfe6080604081815260048036101561001557600080fd5b600092833560e01c908163150b7a02146108075750806351f3b4bd1461067e5780636518a0b31461065f578063791b98bc146106375780637f4d4fa81461045457806383c17c55146104015780638da5cb5b146103db578063966dae0e146103af57838163a1167b0d1461030557508063c62915c414610198578063f2fde38b146100fa5763f4dadc61146100a957600080fd5b346100f65760203660031901126100f65760809282913581526001602052209081549160ff6001820154169160036002830154920154928151948552151560208501528301526060820152f35b8280fd5b50346100f65760203660031901126100f6576101146108c9565b908354916001600160a01b039061012e82851633146109ad565b1692831561015557505073ffffffffffffffffffffffffffffffffffffffff191617815580f35b906020606492519162461bcd60e51b8352820152601160248201527f496e76616c6964206e6577206f776e65720000000000000000000000000000006044820152fd5b50346100f657816003193601126100f6578035906101b46108e4565b6001600160a01b039182865416331480156102f8575b6101d390610962565b8386526001602052848620600381015442106102b5578690549284835416803b156100f65787516323b872dd60e01b8152308582019081526001600160a01b03909316602084015260408301869052918391839182908490829060600103925af180156102ab5761028f575b509260209291857fdc06eb63ca5d784b588e010a2d11101d6c14f6112ccba7611aadbe0c680c3fb4955260018452876003888220828155826001820155826002820155015554169451908152a380f35b61029b9093929361092c565b6102a75790853861023f565b8580fd5b87513d84823e3d90fd5b606482602088519162461bcd60e51b8352820152601960248201527f4c6971756964697479206973207374696c6c206c6f636b6564000000000000006044820152fd5b50600554831633146101ca565b929050346103ab57806003193601126103ab576103206108c9565b6001600160a01b036103368186541633146109ad565b80845416803b156102a757859283604492865197889586947f095ea7b3000000000000000000000000000000000000000000000000000000008652169084015260243560248401525af19081156103a2575061038f5750f35b6103989061092c565b61039f5780f35b80fd5b513d84823e3d90fd5b5050fd5b5050346103d757816003193601126103d7576020906001600160a01b03600554169051908152f35b5080fd5b5050346103d757816003193601126103d7576001600160a01b0360209254169051908152f35b833461039f57602036600319011261039f5761041b6108c9565b6001600160a01b03906104328284541633146109ad565b1673ffffffffffffffffffffffffffffffffffffffff19600554161760055580f35b509190346103d75760803660031901126103d7576104706108c9565b602435606435916001600160a01b039081841684036102a757818654163314801561062a575b61049f90610962565b169182156105e757823b156105e35783516323b872dd60e01b81526001600160a01b0390911686820190815230602082015260408101839052859082908190606001038183875af180156105d9576105c6575b5060443542018042116105b3576002549460001986146105a0576020965085927f35caa98fef2de84d0d86a8fe9a3965c7604490475581199f5519e0581bac3c0a92869260018601600255600384519161054b836108fa565b8483528b830160018152868401908982528760608601938785528b81528f600190522094518555600185019051151560ff8019835416911617905551600284015551910155825191825288820152a351908152f35b80601188634e487b7160e01b6024945252fd5b602485601188634e487b7160e01b835252fd5b6105d29094919461092c565b92386104f2565b84513d87823e3d90fd5b8480fd5b606486602086519162461bcd60e51b8352820152601360248201527f496e76616c6964204e46542061646472657373000000000000000000000000006044820152fd5b5060055482163314610496565b5050346103d757816003193601126103d7576020906001600160a01b03600354169051908152f35b5050346103d757816003193601126103d7576020906002549051908152f35b508290346103d757826003193601126103d75780358361069c6108e4565b9260846001600160a01b0380875416331480156107fa575b6106bd90610962565b868451916106ca836108fa565b8683528060208401981688528583016fffffffffffffffffffffffffffffffff908181528160608601918183528460035416948a519c8d9a8b997ffc6f7865000000000000000000000000000000000000000000000000000000008b5251908a01525116602488015251166044860152511660648401525af19182156107f057838093610795575b505060607fa54e6c2fc0861aa9c991b26891d71059d517983b9e84b91020f42609c452eb9d9185519081528460208201528386820152a182519182526020820152f35b91925092508383813d83116107e9575b6107af8183610940565b8101031261039f57507fa54e6c2fc0861aa9c991b26891d71059d517983b9e84b91020f42609c452eb9d6060602084519401519291610752565b503d6107a5565b84513d85823e3d90fd5b50600554811633146106b4565b838584346103d75760803660031901126103d7576108236108c9565b5061082c6108e4565b5060643567ffffffffffffffff918282116108c557366023830112156108c557818101359283116108b2575061086c601f8301601f191660200186610940565b81855236602483830101116100f6579060209481602487940184830137010152517f150b7a02000000000000000000000000000000000000000000000000000000008152f35b836041602492634e487b7160e01b835252fd5b8380fd5b600435906001600160a01b03821682036108df57565b600080fd5b602435906001600160a01b03821682036108df57565b6080810190811067ffffffffffffffff82111761091657604052565b634e487b7160e01b600052604160045260246000fd5b67ffffffffffffffff811161091657604052565b90601f8019910116810190811067ffffffffffffffff82111761091657604052565b1561096957565b606460405162461bcd60e51b815260206004820152601860248201527f43616c6c6572206973206e6f7420617574686f72697a656400000000000000006044820152fd5b156109b457565b606460405162461bcd60e51b815260206004820152601760248201527f43616c6c6572206973206e6f7420746865206f776e65720000000000000000006044820152fdfea264697066735822122063da94d3ce9f8f649e86d00442df7ad9e53486b02a42603fc0b29a83d4b638a164736f6c63430008180033","opcodes":"PUSH1 0x80 CALLVALUE PUSH2 0x89 JUMPI PUSH1 0x1F PUSH2 0xAD3 CODESIZE DUP2 SWAP1 SUB SWAP2 DUP3 ADD PUSH1 0x1F NOT AND DUP4 ADD SWAP2 PUSH1 0x1 PUSH1 0x1 PUSH1 0x40 SHL SUB DUP4 GT DUP5 DUP5 LT OR PUSH2 0x8E JUMPI DUP1 DUP5 SWAP3 PUSH1 0x20 SWAP5 PUSH1 0x40 MSTORE DUP4 CODECOPY DUP2 ADD SUB SLT PUSH2 0x89 JUMPI MLOAD PUSH1 0x1 PUSH1 0x1 PUSH1 0xA0 SHL SUB DUP2 AND SWAP1 DUP2 SWAP1 SUB PUSH2 0x89 JUMPI PUSH1 0x0 PUSH1 0x2 SSTORE PUSH1 0x1 DUP1 PUSH1 0xA0 SHL SUB NOT CALLER DUP2 PUSH1 0x0 SLOAD AND OR PUSH1 0x0 SSTORE DUP2 DUP2 PUSH1 0x3 SLOAD AND OR PUSH1 0x3 SSTORE PUSH1 0x4 SLOAD AND OR PUSH1 0x4 SSTORE PUSH1 0x40 MLOAD PUSH2 0xA2E SWAP1 DUP2 PUSH2 0xA5 DUP3 CODECOPY RETURN JUMPDEST PUSH1 0x0 DUP1 REVERT JUMPDEST PUSH4 0x4E487B71 PUSH1 0xE0 SHL PUSH1 0x0 MSTORE PUSH1 0x41 PUSH1 0x4 MSTORE PUSH1 0x24 PUSH1 0x0 REVERT INVALID PUSH1 0x80 PUSH1 0x40 DUP2 DUP2 MSTORE PUSH1 0x4 DUP1 CALLDATASIZE LT ISZERO PUSH2 0x15 JUMPI PUSH1 0x0 DUP1 REVERT JUMPDEST PUSH1 0x0 SWAP3 DUP4 CALLDATALOAD PUSH1 0xE0 SHR SWAP1 DUP2 PUSH4 0x150B7A02 EQ PUSH2 0x807 JUMPI POP DUP1 PUSH4 0x51F3B4BD EQ PUSH2 0x67E JUMPI DUP1 PUSH4 0x6518A0B3 EQ PUSH2 0x65F JUMPI DUP1 PUSH4 0x791B98BC EQ PUSH2 0x637 JUMPI DUP1 PUSH4 0x7F4D4FA8 EQ PUSH2 0x454 JUMPI DUP1 PUSH4 0x83C17C55 EQ PUSH2 0x401 JUMPI DUP1 PUSH4 0x8DA5CB5B EQ PUSH2 0x3DB JUMPI DUP1 PUSH4 0x966DAE0E EQ PUSH2 0x3AF JUMPI DUP4 DUP2 PUSH4 0xA1167B0D EQ PUSH2 0x305 JUMPI POP DUP1 PUSH4 0xC62915C4 EQ PUSH2 0x198 JUMPI DUP1 PUSH4 0xF2FDE38B EQ PUSH2 0xFA JUMPI PUSH4 0xF4DADC61 EQ PUSH2 0xA9 JUMPI PUSH1 0x0 DUP1 REVERT JUMPDEST CALLVALUE PUSH2 0xF6 JUMPI PUSH1 0x20 CALLDATASIZE PUSH1 0x3 NOT ADD SLT PUSH2 0xF6 JUMPI PUSH1 0x80 SWAP3 DUP3 SWAP2 CALLDATALOAD DUP2 MSTORE PUSH1 0x1 PUSH1 0x20 MSTORE KECCAK256 SWAP1 DUP2 SLOAD SWAP2 PUSH1 0xFF PUSH1 0x1 DUP3 ADD SLOAD AND SWAP2 PUSH1 0x3 PUSH1 0x2 DUP4 ADD SLOAD SWAP3 ADD SLOAD SWAP3 DUP2 MLOAD SWAP5 DUP6 MSTORE ISZERO ISZERO PUSH1 0x20 DUP6 ADD MSTORE DUP4 ADD MSTORE PUSH1 0x60 DUP3 ADD MSTORE RETURN JUMPDEST DUP3 DUP1 REVERT JUMPDEST POP CALLVALUE PUSH2 0xF6 JUMPI PUSH1 0x20 CALLDATASIZE PUSH1 0x3 NOT ADD SLT PUSH2 0xF6 JUMPI PUSH2 0x114 PUSH2 0x8C9 JUMP JUMPDEST SWAP1 DUP4 SLOAD SWAP2 PUSH1 0x1 PUSH1 0x1 PUSH1 0xA0 SHL SUB SWAP1 PUSH2 0x12E DUP3 DUP6 AND CALLER EQ PUSH2 0x9AD JUMP JUMPDEST AND SWAP3 DUP4 ISZERO PUSH2 0x155 JUMPI POP POP PUSH20 0xFFFFFFFFFFFFFFFFFFFFFFFFFFFFFFFFFFFFFFFF NOT AND OR DUP2 SSTORE DUP1 RETURN JUMPDEST SWAP1 PUSH1 0x20 PUSH1 0x64 SWAP3 MLOAD SWAP2 PUSH3 0x461BCD PUSH1 0xE5 SHL DUP4 MSTORE DUP3 ADD MSTORE PUSH1 0x11 PUSH1 0x24 DUP3 ADD MSTORE PUSH32 0x496E76616C6964206E6577206F776E6572000000000000000000000000000000 PUSH1 0x44 DUP3 ADD MSTORE REVERT JUMPDEST POP CALLVALUE PUSH2 0xF6 JUMPI DUP2 PUSH1 0x3 NOT CALLDATASIZE ADD SLT PUSH2 0xF6 JUMPI DUP1 CALLDATALOAD SWAP1 PUSH2 0x1B4 PUSH2 0x8E4 JUMP JUMPDEST PUSH1 0x1 PUSH1 0x1 PUSH1 0xA0 SHL SUB SWAP2 DUP3 DUP7 SLOAD AND CALLER EQ DUP1 ISZERO PUSH2 0x2F8 JUMPI JUMPDEST PUSH2 0x1D3 SWAP1 PUSH2 0x962 JUMP JUMPDEST DUP4 DUP7 MSTORE PUSH1 0x1 PUSH1 0x20 MSTORE DUP5 DUP7 KECCAK256 PUSH1 0x3 DUP2 ADD SLOAD TIMESTAMP LT PUSH2 0x2B5 JUMPI DUP7 SWAP1 SLOAD SWAP3 DUP5 DUP4 SLOAD AND DUP1 EXTCODESIZE ISZERO PUSH2 0xF6 JUMPI DUP8 MLOAD PUSH4 0x23B872DD PUSH1 0xE0 SHL DUP2 MSTORE ADDRESS DUP6 DUP3 ADD SWAP1 DUP2 MSTORE PUSH1 0x1 PUSH1 0x1 PUSH1 0xA0 SHL SUB SWAP1 SWAP4 AND PUSH1 0x20 DUP5 ADD MSTORE PUSH1 0x40 DUP4 ADD DUP7 SWAP1 MSTORE SWAP2 DUP4 SWAP2 DUP4 SWAP2 DUP3 SWAP1 DUP5 SWAP1 DUP3 SWAP1 PUSH1 0x60 ADD SUB SWAP3 GAS CALL DUP1 ISZERO PUSH2 0x2AB JUMPI PUSH2 0x28F JUMPI JUMPDEST POP SWAP3 PUSH1 0x20 SWAP3 SWAP2 DUP6 PUSH32 0xDC06EB63CA5D784B588E010A2D11101D6C14F6112CCBA7611AADBE0C680C3FB4 SWAP6 MSTORE PUSH1 0x1 DUP5 MSTORE DUP8 PUSH1 0x3 DUP9 DUP3 KECCAK256 DUP3 DUP2 SSTORE DUP3 PUSH1 0x1 DUP3 ADD SSTORE DUP3 PUSH1 0x2 DUP3 ADD SSTORE ADD SSTORE SLOAD AND SWAP5 MLOAD SWAP1 DUP2 MSTORE LOG3 DUP1 RETURN JUMPDEST PUSH2 0x29B SWAP1 SWAP4 SWAP3 SWAP4 PUSH2 0x92C JUMP JUMPDEST PUSH2 0x2A7 JUMPI SWAP1 DUP6 CODESIZE PUSH2 0x23F JUMP JUMPDEST DUP6 DUP1 REVERT JUMPDEST DUP8 MLOAD RETURNDATASIZE DUP5 DUP3 RETURNDATACOPY RETURNDATASIZE SWAP1 REVERT JUMPDEST PUSH1 0x64 DUP3 PUSH1 0x20 DUP9 MLOAD SWAP2 PUSH3 0x461BCD PUSH1 0xE5 SHL DUP4 MSTORE DUP3 ADD MSTORE PUSH1 0x19 PUSH1 0x24 DUP3 ADD MSTORE PUSH32 0x4C6971756964697479206973207374696C6C206C6F636B656400000000000000 PUSH1 0x44 DUP3 ADD MSTORE REVERT JUMPDEST POP PUSH1 0x5 SLOAD DUP4 AND CALLER EQ PUSH2 0x1CA JUMP JUMPDEST SWAP3 SWAP1 POP CALLVALUE PUSH2 0x3AB JUMPI DUP1 PUSH1 0x3 NOT CALLDATASIZE ADD SLT PUSH2 0x3AB JUMPI PUSH2 0x320 PUSH2 0x8C9 JUMP JUMPDEST PUSH1 0x1 PUSH1 0x1 PUSH1 0xA0 SHL SUB PUSH2 0x336 DUP2 DUP7 SLOAD AND CALLER EQ PUSH2 0x9AD JUMP JUMPDEST DUP1 DUP5 SLOAD AND DUP1 EXTCODESIZE ISZERO PUSH2 0x2A7 JUMPI DUP6 SWAP3 DUP4 PUSH1 0x44 SWAP3 DUP7 MLOAD SWAP8 DUP9 SWAP6 DUP7 SWAP5 PUSH32 0x95EA7B300000000000000000000000000000000000000000000000000000000 DUP7 MSTORE AND SWAP1 DUP5 ADD MSTORE PUSH1 0x24 CALLDATALOAD PUSH1 0x24 DUP5 ADD MSTORE GAS CALL SWAP1 DUP2 ISZERO PUSH2 0x3A2 JUMPI POP PUSH2 0x38F JUMPI POP RETURN JUMPDEST PUSH2 0x398 SWAP1 PUSH2 0x92C JUMP JUMPDEST PUSH2 0x39F JUMPI DUP1 RETURN JUMPDEST DUP1 REVERT JUMPDEST MLOAD RETURNDATASIZE DUP5 DUP3 RETURNDATACOPY RETURNDATASIZE SWAP1 REVERT JUMPDEST POP POP REVERT JUMPDEST POP POP CALLVALUE PUSH2 0x3D7 JUMPI DUP2 PUSH1 0x3 NOT CALLDATASIZE ADD SLT PUSH2 0x3D7 JUMPI PUSH1 0x20 SWAP1 PUSH1 0x1 PUSH1 0x1 PUSH1 0xA0 SHL SUB PUSH1 0x5 SLOAD AND SWAP1 MLOAD SWAP1 DUP2 MSTORE RETURN JUMPDEST POP DUP1 REVERT JUMPDEST POP POP CALLVALUE PUSH2 0x3D7 JUMPI DUP2 PUSH1 0x3 NOT CALLDATASIZE ADD SLT PUSH2 0x3D7 JUMPI PUSH1 0x1 PUSH1 0x1 PUSH1 0xA0 SHL SUB PUSH1 0x20 SWAP3 SLOAD AND SWAP1 MLOAD SWAP1 DUP2 MSTORE RETURN JUMPDEST DUP4 CALLVALUE PUSH2 0x39F JUMPI PUSH1 0x20 CALLDATASIZE PUSH1 0x3 NOT ADD SLT PUSH2 0x39F JUMPI PUSH2 0x41B PUSH2 0x8C9 JUMP JUMPDEST PUSH1 0x1 PUSH1 0x1 PUSH1 0xA0 SHL SUB SWAP1 PUSH2 0x432 DUP3 DUP5 SLOAD AND CALLER EQ PUSH2 0x9AD JUMP JUMPDEST AND PUSH20 0xFFFFFFFFFFFFFFFFFFFFFFFFFFFFFFFFFFFFFFFF NOT PUSH1 0x5 SLOAD AND OR PUSH1 0x5 SSTORE DUP1 RETURN JUMPDEST POP SWAP2 SWAP1 CALLVALUE PUSH2 0x3D7 JUMPI PUSH1 0x80 CALLDATASIZE PUSH1 0x3 NOT ADD SLT PUSH2 0x3D7 JUMPI PUSH2 0x470 PUSH2 0x8C9 JUMP JUMPDEST PUSH1 0x24 CALLDATALOAD PUSH1 0x64 CALLDATALOAD SWAP2 PUSH1 0x1 PUSH1 0x1 PUSH1 0xA0 SHL SUB SWAP1 DUP2 DUP5 AND DUP5 SUB PUSH2 0x2A7 JUMPI DUP2 DUP7 SLOAD AND CALLER EQ DUP1 ISZERO PUSH2 0x62A JUMPI JUMPDEST PUSH2 0x49F SWAP1 PUSH2 0x962 JUMP JUMPDEST AND SWAP2 DUP3 ISZERO PUSH2 0x5E7 JUMPI DUP3 EXTCODESIZE ISZERO PUSH2 0x5E3 JUMPI DUP4 MLOAD PUSH4 0x23B872DD PUSH1 0xE0 SHL DUP2 MSTORE PUSH1 0x1 PUSH1 0x1 PUSH1 0xA0 SHL SUB SWAP1 SWAP2 AND DUP7 DUP3 ADD SWAP1 DUP2 MSTORE ADDRESS PUSH1 0x20 DUP3 ADD MSTORE PUSH1 0x40 DUP2 ADD DUP4 SWAP1 MSTORE DUP6 SWAP1 DUP3 SWAP1 DUP2 SWAP1 PUSH1 0x60 ADD SUB DUP2 DUP4 DUP8 GAS CALL DUP1 ISZERO PUSH2 0x5D9 JUMPI PUSH2 0x5C6 JUMPI JUMPDEST POP PUSH1 0x44 CALLDATALOAD TIMESTAMP ADD DUP1 TIMESTAMP GT PUSH2 0x5B3 JUMPI PUSH1 0x2 SLOAD SWAP5 PUSH1 0x0 NOT DUP7 EQ PUSH2 0x5A0 JUMPI PUSH1 0x20 SWAP7 POP DUP6 SWAP3 PUSH32 0x35CAA98FEF2DE84D0D86A8FE9A3965C7604490475581199F5519E0581BAC3C0A SWAP3 DUP7 SWAP3 PUSH1 0x1 DUP7 ADD PUSH1 0x2 SSTORE PUSH1 0x3 DUP5 MLOAD SWAP2 PUSH2 0x54B DUP4 PUSH2 0x8FA JUMP JUMPDEST DUP5 DUP4 MSTORE DUP12 DUP4 ADD PUSH1 0x1 DUP2 MSTORE DUP7 DUP5 ADD SWAP1 DUP10 DUP3 MSTORE DUP8 PUSH1 0x60 DUP7 ADD SWAP4 DUP8 DUP6 MSTORE DUP12 DUP2 MSTORE DUP16 PUSH1 0x1 SWAP1 MSTORE KECCAK256 SWAP5 MLOAD DUP6 SSTORE PUSH1 0x1 DUP6 ADD SWAP1 MLOAD ISZERO ISZERO PUSH1 0xFF DUP1 NOT DUP4 SLOAD AND SWAP2 AND OR SWAP1 SSTORE MLOAD PUSH1 0x2 DUP5 ADD SSTORE MLOAD SWAP2 ADD SSTORE DUP3 MLOAD SWAP2 DUP3 MSTORE DUP9 DUP3 ADD MSTORE LOG3 MLOAD SWAP1 DUP2 MSTORE RETURN JUMPDEST DUP1 PUSH1 0x11 DUP9 PUSH4 0x4E487B71 PUSH1 0xE0 SHL PUSH1 0x24 SWAP5 MSTORE MSTORE REVERT JUMPDEST PUSH1 0x24 DUP6 PUSH1 0x11 DUP9 PUSH4 0x4E487B71 PUSH1 0xE0 SHL DUP4 MSTORE MSTORE REVERT JUMPDEST PUSH2 0x5D2 SWAP1 SWAP5 SWAP2 SWAP5 PUSH2 0x92C JUMP JUMPDEST SWAP3 CODESIZE PUSH2 0x4F2 JUMP JUMPDEST DUP5 MLOAD RETURNDATASIZE DUP8 DUP3 RETURNDATACOPY RETURNDATASIZE SWAP1 REVERT JUMPDEST DUP5 DUP1 REVERT JUMPDEST PUSH1 0x64 DUP7 PUSH1 0x20 DUP7 MLOAD SWAP2 PUSH3 0x461BCD PUSH1 0xE5 SHL DUP4 MSTORE DUP3 ADD MSTORE PUSH1 0x13 PUSH1 0x24 DUP3 ADD MSTORE PUSH32 0x496E76616C6964204E4654206164647265737300000000000000000000000000 PUSH1 0x44 DUP3 ADD MSTORE REVERT JUMPDEST POP PUSH1 0x5 SLOAD DUP3 AND CALLER EQ PUSH2 0x496 JUMP JUMPDEST POP POP CALLVALUE PUSH2 0x3D7 JUMPI DUP2 PUSH1 0x3 NOT CALLDATASIZE ADD SLT PUSH2 0x3D7 JUMPI PUSH1 0x20 SWAP1 PUSH1 0x1 PUSH1 0x1 PUSH1 0xA0 SHL SUB PUSH1 0x3 SLOAD AND SWAP1 MLOAD SWAP1 DUP2 MSTORE RETURN JUMPDEST POP POP CALLVALUE PUSH2 0x3D7 JUMPI DUP2 PUSH1 0x3 NOT CALLDATASIZE ADD SLT PUSH2 0x3D7 JUMPI PUSH1 0x20 SWAP1 PUSH1 0x2 SLOAD SWAP1 MLOAD SWAP1 DUP2 MSTORE RETURN JUMPDEST POP DUP3 SWAP1 CALLVALUE PUSH2 0x3D7 JUMPI DUP3 PUSH1 0x3 NOT CALLDATASIZE ADD SLT PUSH2 0x3D7 JUMPI DUP1 CALLDATALOAD DUP4 PUSH2 0x69C PUSH2 0x8E4 JUMP JUMPDEST SWAP3 PUSH1 0x84 PUSH1 0x1 PUSH1 0x1 PUSH1 0xA0 SHL SUB DUP1 DUP8 SLOAD AND CALLER EQ DUP1 ISZERO PUSH2 0x7FA JUMPI JUMPDEST PUSH2 0x6BD SWAP1 PUSH2 0x962 JUMP JUMPDEST DUP7 DUP5 MLOAD SWAP2 PUSH2 0x6CA DUP4 PUSH2 0x8FA JUMP JUMPDEST DUP7 DUP4 MSTORE DUP1 PUSH1 0x20 DUP5 ADD SWAP9 AND DUP9 MSTORE DUP6 DUP4 ADD PUSH16 0xFFFFFFFFFFFFFFFFFFFFFFFFFFFFFFFF SWAP1 DUP2 DUP2 MSTORE DUP2 PUSH1 0x60 DUP7 ADD SWAP2 DUP2 DUP4 MSTORE DUP5 PUSH1 0x3 SLOAD AND SWAP5 DUP11 MLOAD SWAP13 DUP14 SWAP11 DUP12 SWAP10 PUSH32 0xFC6F786500000000000000000000000000000000000000000000000000000000 DUP12 MSTORE MLOAD SWAP1 DUP11 ADD MSTORE MLOAD AND PUSH1 0x24 DUP9 ADD MSTORE MLOAD AND PUSH1 0x44 DUP7 ADD MSTORE MLOAD AND PUSH1 0x64 DUP5 ADD MSTORE GAS CALL SWAP2 DUP3 ISZERO PUSH2 0x7F0 JUMPI DUP4 DUP1 SWAP4 PUSH2 0x795 JUMPI JUMPDEST POP POP PUSH1 0x60 PUSH32 0xA54E6C2FC0861AA9C991B26891D71059D517983B9E84B91020F42609C452EB9D SWAP2 DUP6 MLOAD SWAP1 DUP2 MSTORE DUP5 PUSH1 0x20 DUP3 ADD MSTORE DUP4 DUP7 DUP3 ADD MSTORE LOG1 DUP3 MLOAD SWAP2 DUP3 MSTORE PUSH1 0x20 DUP3 ADD MSTORE RETURN JUMPDEST SWAP2 SWAP3 POP SWAP3 POP DUP4 DUP4 DUP2 RETURNDATASIZE DUP4 GT PUSH2 0x7E9 JUMPI JUMPDEST PUSH2 0x7AF DUP2 DUP4 PUSH2 0x940 JUMP JUMPDEST DUP2 ADD SUB SLT PUSH2 0x39F JUMPI POP PUSH32 0xA54E6C2FC0861AA9C991B26891D71059D517983B9E84B91020F42609C452EB9D PUSH1 0x60 PUSH1 0x20 DUP5 MLOAD SWAP5 ADD MLOAD SWAP3 SWAP2 PUSH2 0x752 JUMP JUMPDEST POP RETURNDATASIZE PUSH2 0x7A5 JUMP JUMPDEST DUP5 MLOAD RETURNDATASIZE DUP6 DUP3 RETURNDATACOPY RETURNDATASIZE SWAP1 REVERT JUMPDEST POP PUSH1 0x5 SLOAD DUP2 AND CALLER EQ PUSH2 0x6B4 JUMP JUMPDEST DUP4 DUP6 DUP5 CALLVALUE PUSH2 0x3D7 JUMPI PUSH1 0x80 CALLDATASIZE PUSH1 0x3 NOT ADD SLT PUSH2 0x3D7 JUMPI PUSH2 0x823 PUSH2 0x8C9 JUMP JUMPDEST POP PUSH2 0x82C PUSH2 0x8E4 JUMP JUMPDEST POP PUSH1 0x64 CALLDATALOAD PUSH8 0xFFFFFFFFFFFFFFFF SWAP2 DUP3 DUP3 GT PUSH2 0x8C5 JUMPI CALLDATASIZE PUSH1 0x23 DUP4 ADD SLT ISZERO PUSH2 0x8C5 JUMPI DUP2 DUP2 ADD CALLDATALOAD SWAP3 DUP4 GT PUSH2 0x8B2 JUMPI POP PUSH2 0x86C PUSH1 0x1F DUP4 ADD PUSH1 0x1F NOT AND PUSH1 0x20 ADD DUP7 PUSH2 0x940 JUMP JUMPDEST DUP2 DUP6 MSTORE CALLDATASIZE PUSH1 0x24 DUP4 DUP4 ADD ADD GT PUSH2 0xF6 JUMPI SWAP1 PUSH1 0x20 SWAP5 DUP2 PUSH1 0x24 DUP8 SWAP5 ADD DUP5 DUP4 ADD CALLDATACOPY ADD ADD MSTORE MLOAD PUSH32 0x150B7A0200000000000000000000000000000000000000000000000000000000 DUP2 MSTORE RETURN JUMPDEST DUP4 PUSH1 0x41 PUSH1 0x24 SWAP3 PUSH4 0x4E487B71 PUSH1 0xE0 SHL DUP4 MSTORE MSTORE REVERT JUMPDEST DUP4 DUP1 REVERT JUMPDEST PUSH1 0x4 CALLDATALOAD SWAP1 PUSH1 0x1 PUSH1 0x1 PUSH1 0xA0 SHL SUB DUP3 AND DUP3 SUB PUSH2 0x8DF JUMPI JUMP JUMPDEST PUSH1 0x0 DUP1 REVERT JUMPDEST PUSH1 0x24 CALLDATALOAD SWAP1 PUSH1 0x1 PUSH1 0x1 PUSH1 0xA0 SHL SUB DUP3 AND DUP3 SUB PUSH2 0x8DF JUMPI JUMP JUMPDEST PUSH1 0x80 DUP2 ADD SWAP1 DUP2 LT PUSH8 0xFFFFFFFFFFFFFFFF DUP3 GT OR PUSH2 0x916 JUMPI PUSH1 0x40 MSTORE JUMP JUMPDEST PUSH4 0x4E487B71 PUSH1 0xE0 SHL PUSH1 0x0 MSTORE PUSH1 0x41 PUSH1 0x4 MSTORE PUSH1 0x24 PUSH1 0x0 REVERT JUMPDEST PUSH8 0xFFFFFFFFFFFFFFFF DUP2 GT PUSH2 0x916 JUMPI PUSH1 0x40 MSTORE JUMP JUMPDEST SWAP1 PUSH1 0x1F DUP1 NOT SWAP2 ADD AND DUP2 ADD SWAP1 DUP2 LT PUSH8 0xFFFFFFFFFFFFFFFF DUP3 GT OR PUSH2 0x916 JUMPI PUSH1 0x40 MSTORE JUMP JUMPDEST ISZERO PUSH2 0x969 JUMPI JUMP JUMPDEST PUSH1 0x64 PUSH1 0x40 MLOAD PUSH3 0x461BCD PUSH1 0xE5 SHL DUP2 MSTORE PUSH1 0x20 PUSH1 0x4 DUP3 ADD MSTORE PUSH1 0x18 PUSH1 0x24 DUP3 ADD MSTORE PUSH32 0x43616C6C6572206973206E6F7420617574686F72697A65640000000000000000 PUSH1 0x44 DUP3 ADD MSTORE REVERT JUMPDEST ISZERO PUSH2 0x9B4 JUMPI JUMP JUMPDEST PUSH1 0x64 PUSH1 0x40 MLOAD PUSH3 0x461BCD PUSH1 0xE5 SHL DUP2 MSTORE PUSH1 0x20 PUSH1 0x4 DUP3 ADD MSTORE PUSH1 0x17 PUSH1 0x24 DUP3 ADD MSTORE PUSH32 0x43616C6C6572206973206E6F7420746865206F776E6572000000000000000000 PUSH1 0x44 DUP3 ADD MSTORE REVERT INVALID LOG2 PUSH5 0x6970667358 0x22 SLT KECCAK256 PUSH4 0xDA94D3CE SWAP16 DUP16 PUSH5 0x9E86D00442 0xDF PUSH27 0xD9E53486B02A42603FC0B29A83D4B638A164736F6C634300081800 CALLER "},"methodIdentifiers":{"approveFactory(address,uint256)":"a1167b0d","collectFees(uint256,address)":"51f3b4bd","factoryAddress()":"966dae0e","lockLiquidity(address,uint256,uint256,address)":"7f4d4fa8","locks(uint256)":"f4dadc61","nextLockId()":"6518a0b3","onERC721Received(address,address,uint256,bytes)":"150b7a02","owner()":"8da5cb5b","positionManager()":"791b98bc","setFactoryAddress(address)":"83c17c55","transferOwnership(address)":"f2fde38b","unlockLiquidity(uint256,address)":"c62915c4"}}}}}