{"contracts/VortexFactory.sol":{"MyFactory":{"abi":[{"inputs":[{"internalType":"address","name":"_positionManager","type":"address"},{"internalType":"address","name":"_weth","type":"address"},{"internalType":"address","name":"_uniswapFactory","type":"address"},{"internalType":"address","name":"_swapRouter","type":"address"},{"internalType":"address","name":"_lockerAddress","type":"address"},{"internalType":"address","name":"_teamWallet","type":"address"},{"internalType":"address","name":"_quoterAddress","type":"address"},{"internalType":"address","name":"_factoryHelper","type":"address"}],"stateMutability":"nonpayable","type":"constructor"},{"anonymous":false,"inputs":[{"indexed":false,"internalType":"uint256","name":"tokenId","type":"uint256"},{"indexed":false,"internalType":"uint256","name":"amount0","type":"uint256"},{"indexed":false,"internalType":"uint256","name":"amount1","type":"uint256"}],"name":"FeesCollected","type":"event"},{"anonymous":false,"inputs":[{"indexed":false,"internalType":"uint256","name":"amountNeeded","type":"uint256"}],"name":"FundsRequested","type":"event"},{"anonymous":false,"inputs":[{"indexed":false,"internalType":"uint256","name":"amount","type":"uint256"}],"name":"FundsSent","type":"event"},{"anonymous":false,"inputs":[{"indexed":false,"internalType":"uint256","name":"tokenId","type":"uint256"}],"name":"LiquidityAdded","type":"event"},{"anonymous":false,"inputs":[{"indexed":true,"internalType":"address","name":"token","type":"address"},{"indexed":true,"internalType":"address","name":"pool","type":"address"},{"indexed":false,"internalType":"uint256","name":"tokenAmount","type":"uint256"},{"indexed":false,"internalType":"uint256","name":"wethAmount","type":"uint256"},{"indexed":false,"internalType":"string","name":"error","type":"string"}],"name":"LiquidityAdditionFailed","type":"event"},{"anonymous":false,"inputs":[{"indexed":true,"internalType":"address","name":"token","type":"address"},{"indexed":false,"internalType":"uint256","name":"tokenId","type":"uint256"},{"indexed":false,"internalType":"uint256","name":"amount0","type":"uint256"},{"indexed":false,"internalType":"uint256","name":"amount1","type":"uint256"}],"name":"LiquidityRemoved","type":"event"},{"anonymous":false,"inputs":[{"indexed":true,"internalType":"address","name":"token0","type":"address"},{"indexed":true,"internalType":"address","name":"poolAddress","type":"address"}],"name":"PoolCreated","type":"event"},{"anonymous":false,"inputs":[{"indexed":true,"internalType":"address","name":"poolAddress","type":"address"},{"indexed":false,"internalType":"uint160","name":"sqrtPriceX96","type":"uint160"}],"name":"PoolInitialized","type":"event"},{"anonymous":false,"inputs":[{"indexed":false,"internalType":"uint256","name":"tokenId","type":"uint256"},{"indexed":false,"internalType":"bool","name":"isTokenDead","type":"bool"}],"name":"ResetFeesDays","type":"event"},{"anonymous":false,"inputs":[{"indexed":true,"internalType":"address","name":"stakingAddress","type":"address"},{"indexed":false,"internalType":"uint256","name":"amount","type":"uint256"}],"name":"RewardsSent","type":"event"},{"anonymous":false,"inputs":[{"indexed":true,"internalType":"address","name":"token","type":"address"},{"indexed":false,"internalType":"uint256","name":"amountIn","type":"uint256"},{"indexed":false,"internalType":"uint256","name":"amountOut","type":"uint256"}],"name":"SwappedToWETH","type":"event"},{"anonymous":false,"inputs":[{"indexed":true,"internalType":"address","name":"teamWallet","type":"address"},{"indexed":false,"internalType":"uint256","name":"amount","type":"uint256"}],"name":"TeamFunded","type":"event"},{"anonymous":false,"inputs":[{"indexed":true,"internalType":"address","name":"tokenAddress","type":"address"},{"indexed":true,"internalType":"address","name":"poolAddress","type":"address"}],"name":"TokenApproved","type":"event"},{"anonymous":false,"inputs":[{"indexed":true,"internalType":"address","name":"tokenAddress","type":"address"}],"name":"TokenDeployed","type":"event"},{"anonymous":false,"inputs":[{"indexed":false,"internalType":"uint256","name":"amount","type":"uint256"}],"name":"TokensSwapped","type":"event"},{"anonymous":false,"inputs":[{"indexed":true,"internalType":"address","name":"treasuryAddress","type":"address"},{"indexed":false,"internalType":"uint256","name":"amount","type":"uint256"}],"name":"TreasuryFunded","type":"event"},{"anonymous":false,"inputs":[{"indexed":false,"internalType":"uint256","name":"rewardAmount","type":"uint256"}],"name":"VortexEvent","type":"event"},{"anonymous":false,"inputs":[{"indexed":false,"internalType":"uint256","name":"tokenId","type":"uint256"},{"indexed":false,"internalType":"bool","name":"isTokenDead","type":"bool"}],"name":"ZeroFeesDays","type":"event"},{"stateMutability":"payable","type":"fallback"},{"inputs":[],"name":"activeTokenCount","outputs":[{"internalType":"uint256","name":"","type":"uint256"}],"stateMutability":"view","type":"function"},{"inputs":[{"internalType":"address","name":"tokenAddress","type":"address"},{"internalType":"uint256","name":"amountToBuy","type":"uint256"},{"internalType":"bool","name":"userProvidedLiquidity","type":"bool"}],"name":"addLiquidityLockSwap","outputs":[{"internalType":"uint256","name":"tokenId","type":"uint256"}],"stateMutability":"payable","type":"function"},{"inputs":[{"internalType":"uint256","name":"","type":"uint256"}],"name":"allTokens","outputs":[{"internalType":"address","name":"tokenAddress","type":"address"},{"internalType":"address","name":"poolAddress","type":"address"},{"internalType":"address","name":"tokenCreator","type":"address"},{"internalType":"uint256","name":"timeStamp","type":"uint256"},{"internalType":"uint256","name":"tokenId","type":"uint256"},{"internalType":"bool","name":"liquidityRemoved","type":"bool"},{"internalType":"uint256","name":"zerofeedays","type":"uint256"},{"internalType":"bool","name":"isInactive","type":"bool"},{"internalType":"uint256","name":"feeFromSwap","type":"uint256"},{"internalType":"uint256","name":"lockId","type":"uint256"},{"internalType":"bool","name":"isLocked","type":"bool"},{"internalType":"uint256","name":"unlockTime","type":"uint256"},{"internalType":"bool","name":"isDEAD","type":"bool"},{"internalType":"bool","name":"maxWalletEnabled","type":"bool"},{"internalType":"bool","name":"userLiquidity","type":"bool"}],"stateMutability":"view","type":"function"},{"inputs":[{"internalType":"uint256","name":"amount","type":"uint256"}],"name":"callAddRewards","outputs":[],"stateMutability":"payable","type":"function"},{"inputs":[{"internalType":"uint256","name":"tokenId","type":"uint256"},{"internalType":"address","name":"tokenAddress","type":"address"}],"name":"collectFromLockerAndSwap","outputs":[],"stateMutability":"nonpayable","type":"function"},{"inputs":[],"name":"deadAddress","outputs":[{"internalType":"address","name":"","type":"address"}],"stateMutability":"view","type":"function"},{"inputs":[{"internalType":"string","name":"_name","type":"string"},{"internalType":"string","name":"_symbol","type":"string"},{"internalType":"uint256","name":"_supply","type":"uint256"}],"name":"deployToken","outputs":[{"internalType":"address","name":"","type":"address"}],"stateMutability":"nonpayable","type":"function"},{"inputs":[],"name":"factoryHelper","outputs":[{"internalType":"contract FactoryHelper","name":"","type":"address"}],"stateMutability":"view","type":"function"},{"inputs":[],"name":"getAllTokens","outputs":[{"internalType":"address[]","name":"addresses","type":"address[]"},{"internalType":"address[]","name":"tokenCreators","type":"address[]"},{"internalType":"address[]","name":"poolAddresses","type":"address[]"},{"internalType":"uint256[]","name":"tokenIds","type":"uint256[]"},{"internalType":"uint256[]","name":"timestamps","type":"uint256[]"},{"internalType":"bool[]","name":"liquidityRemovedStatus","type":"bool[]"},{"internalType":"uint256[]","name":"zerofeesdays","type":"uint256[]"},{"internalType":"bool[]","name":"inactive","type":"bool[]"},{"internalType":"uint256[]","name":"feefromswap","type":"uint256[]"},{"internalType":"uint256[]","name":"lockIds","type":"uint256[]"},{"internalType":"bool[]","name":"isTokenLocked","type":"bool[]"},{"internalType":"uint256[]","name":"unlockTimes","type":"uint256[]"},{"internalType":"bool[]","name":"isDead","type":"bool[]"},{"internalType":"bool[]","name":"maxWallet","type":"bool[]"},{"internalType":"bool[]","name":"isUserLiquidity","type":"bool[]"}],"stateMutability":"view","type":"function"},{"inputs":[{"internalType":"address","name":"tokenIn","type":"address"},{"internalType":"address","name":"tokenOut","type":"address"},{"internalType":"uint256","name":"amountIn","type":"uint256"}],"name":"getEstimatedAmountOut","outputs":[{"internalType":"uint256","name":"amountOut","type":"uint256"}],"stateMutability":"nonpayable","type":"function"},{"inputs":[],"name":"getMetrics","outputs":[{"internalType":"uint256","name":"alltokens","type":"uint256"},{"internalType":"uint256","name":"allactivetokens","type":"uint256"},{"internalType":"uint256","name":"fees","type":"uint256"}],"stateMutability":"view","type":"function"},{"inputs":[{"internalType":"address","name":"tokenA","type":"address"},{"internalType":"address","name":"tokenB","type":"address"},{"internalType":"uint24","name":"fee","type":"uint24"}],"name":"get_Pool","outputs":[{"internalType":"address","name":"pool","type":"address"}],"stateMutability":"view","type":"function"},{"inputs":[],"name":"lockTime1","outputs":[{"internalType":"uint256","name":"","type":"uint256"}],"stateMutability":"view","type":"function"},{"inputs":[],"name":"lockTime2","outputs":[{"internalType":"uint256","name":"","type":"uint256"}],"stateMutability":"view","type":"function"},{"inputs":[],"name":"locker","outputs":[{"internalType":"contract ILocker","name":"","type":"address"}],"stateMutability":"view","type":"function"},{"inputs":[],"name":"lockerAddress","outputs":[{"internalType":"address","name":"","type":"address"}],"stateMutability":"view","type":"function"},{"inputs":[],"name":"maxZeroFeeDays","outputs":[{"internalType":"uint256","name":"","type":"uint256"}],"stateMutability":"view","type":"function"},{"inputs":[{"internalType":"uint256","name":"amount","type":"uint256"}],"name":"notifyFundsNeeded","outputs":[],"stateMutability":"nonpayable","type":"function"},{"inputs":[],"name":"owner","outputs":[{"internalType":"address","name":"","type":"address"}],"stateMutability":"view","type":"function"},{"inputs":[],"name":"pendingFunds","outputs":[{"internalType":"uint256","name":"","type":"uint256"}],"stateMutability":"view","type":"function"},{"inputs":[],"name":"positionManager","outputs":[{"internalType":"contract INonfungiblePositionManager","name":"","type":"address"}],"stateMutability":"view","type":"function"},{"inputs":[{"internalType":"address","name":"_stakingContract","type":"address"},{"internalType":"uint256","name":"amountRequested","type":"uint256"}],"name":"provideFundsIfNeeded","outputs":[],"stateMutability":"nonpayable","type":"function"},{"inputs":[],"name":"quoter","outputs":[{"internalType":"contract IQuoterV2","name":"","type":"address"}],"stateMutability":"view","type":"function"},{"inputs":[{"internalType":"uint256","name":"_tokenId","type":"uint256"},{"internalType":"uint256","name":"_lockID","type":"uint256"}],"name":"relock","outputs":[{"internalType":"uint256","name":"lockID","type":"uint256"}],"stateMutability":"nonpayable","type":"function"},{"inputs":[{"internalType":"uint256","name":"tokenId","type":"uint256"},{"internalType":"uint256","name":"lockId","type":"uint256"}],"name":"removeDeadLiquidity","outputs":[],"stateMutability":"nonpayable","type":"function"},{"inputs":[{"internalType":"uint256","name":"tokenId","type":"uint256"},{"internalType":"uint256","name":"lockId","type":"uint256"}],"name":"removeInitialLiquidity","outputs":[],"stateMutability":"nonpayable","type":"function"},{"inputs":[{"internalType":"uint256","name":"tokenId","type":"uint256"},{"internalType":"uint256","name":"lockId","type":"uint256"},{"internalType":"uint128","name":"percentAmount","type":"uint128"}],"name":"removeUserLiquidity","outputs":[],"stateMutability":"nonpayable","type":"function"},{"inputs":[{"internalType":"address payable","name":"_stakingAddress","type":"address"},{"internalType":"address","name":"_treasuryAddress","type":"address"}],"name":"setStakingAndTreasuryAddress","outputs":[],"stateMutability":"nonpayable","type":"function"},{"inputs":[],"name":"stakingAddress","outputs":[{"internalType":"address payable","name":"","type":"address"}],"stateMutability":"view","type":"function"},{"inputs":[{"internalType":"uint256","name":"amountIn","type":"uint256"},{"internalType":"address","name":"tokenAddress","type":"address"}],"name":"swapETHforTokens","outputs":[{"internalType":"uint256","name":"","type":"uint256"}],"stateMutability":"payable","type":"function"},{"inputs":[],"name":"swapRouter","outputs":[{"internalType":"contract ISwapRouter","name":"","type":"address"}],"stateMutability":"view","type":"function"},{"inputs":[],"name":"tokenCount","outputs":[{"internalType":"uint256","name":"","type":"uint256"}],"stateMutability":"view","type":"function"},{"inputs":[],"name":"totalFees","outputs":[{"internalType":"uint256","name":"","type":"uint256"}],"stateMutability":"view","type":"function"},{"inputs":[{"internalType":"uint256","name":"amount","type":"uint256"}],"name":"transferWETHToFactory","outputs":[],"stateMutability":"nonpayable","type":"function"},{"inputs":[],"name":"tryToSendFunds","outputs":[],"stateMutability":"nonpayable","type":"function"},{"inputs":[],"name":"uniswapFactory","outputs":[{"internalType":"contract IUniswapV3Factory","name":"","type":"address"}],"stateMutability":"view","type":"function"},{"inputs":[],"name":"weth","outputs":[{"internalType":"address","name":"","type":"address"}],"stateMutability":"view","type":"function"},{"stateMutability":"payable","type":"receive"}],"evm":{"bytecode":{"linkReferences":{},"object":"6080346200019057601f6200573138819003918201601f19168301916001600160401b0383118484101762000195578084926101009460405283398101031262000190576200004e81620001ab565b906200005d60208201620001ab565b906200006c60408201620001ab565b906200007b60608201620001ab565b906200008a60808201620001ab565b936200009960a08301620001ab565b620000b560e0620000ad60c08601620001ab565b9401620001ab565b94600080556000600155600060025560018060a01b031997889361dead8560045416176004556509184e72a0006013556512309ce5400060145560056015556005601655600260175560018060a01b03809981809981988280809816988983600554161760055516906006541617600655168c60075416176007551692838b600a541617600a558a600e541617600e55168860035416176003553388600b541617600b5587600d541617600d551685601054161760105516836008541617600855169060095416176009556040516155709081620001c18239f35b600080fd5b634e487b7160e01b600052604160045260246000fd5b51906001600160a01b0382168203620001905756fe6102808060405260043610156200001d575b5036156200001b57005b005b600090813560e01c90816313114a9d14620034745750806327c8f835146200344b5780632a5c792a1462002fb85780633675f29b1462002f8f5780633a93babb1462002e875780633fc8cef31462002e5e578063634282af1462002d5e57806367125e1c1462002d3e5780636e9551d71462002c5b5780637606f7811462002c25578063791b98bc1462002bfc5780637c6bc9be1462002bdc5780638a7eb91a1462002b6a5780638b68e0381462002b4a5780638bdb2afa1462002b215780638c3a65a2146200288b5780638da5cb5b14620028625780639f181b5e1462002843578063ad1b9e3214620026d4578063ae3b05d4146200250a578063b2a788041462001e6c578063b2fb30cb1462001c07578063be5ef1761462001a6b578063c31c9c071462001a42578063c6bbd5a71462001a19578063d48908cd1462001161578063d6a2120a1462000ec5578063d7b4be241462000e9c578063d7b96d4e1462000e73578063db2561d41462000e53578063db69bdd8146200081d578063e6ce06e214620007e5578063f02e4e3614620007c5578063fbcc3fcc14620004d5578063fd53f53b14620004ac578063fde16ed3146200047d5763fe9655fc036200001157346200047a5760208060031936011262000476576004356001600160a01b036200021281600b54163314620036db565b811562000433578060035416916040516370a0823160e01b81523360048201528481602481875afa8015620004285782918791620003ec575b5010620003a85760405163095ea7b360e01b81523060048201526024810182905285939092919085908490604490829088905af19182156200039d57620002a1620002d993879587916200037b575b5062003acb565b6003546040516323b872dd60e01b81523360048201523060248201526044810193909352919485939190921691839182906064820190565b03925af1908115620003705783916200033c575b5015620002f8575080f35b6064906040519062461bcd60e51b82526004820152600f60248201527f5472616e73666572206661696c656400000000000000000000000000000000006044820152fd5b620003619150823d841162000368575b6200035881836200361c565b81019062003781565b38620002ed565b503d6200034c565b6040513d85823e3d90fd5b620003969150863d881162000368576200035881836200361c565b386200029a565b6040513d86823e3d90fd5b6064846040519062461bcd60e51b82526004820152601960248201527f496e73756666696369656e7420574554482062616c616e6365000000000000006044820152fd5b809250868092503d831162000420575b6200040881836200361c565b810103126200041b57819051386200024b565b600080fd5b503d620003fc565b6040513d88823e3d90fd5b6064836040519062461bcd60e51b825280600483015260248201527f416d6f756e74206d7573742062652067726561746572207468616e207a65726f6044820152fd5b5080fd5b80fd5b5060403660031901126200047a576020620004a46200049b620035d9565b60043562003b17565b604051908152f35b50346200047a57806003193601126200047a5760206001600160a01b0360095416604051908152f35b50346200047a57620004e736620035f0565b826001600160a01b03916200050283600b54163314620036db565b82600d5416803b15620007b65760405163318a457160e21b8152600481019290925230602483015282908290604490829084905af18015620007ba576200079e575b50508060055416604051809163133f757160e31b82528460048301528160246101809384935afa8015620007935785928692879262000747575b50506200058c908562003f18565b60035490938516919085168203620006be57505060405163095ea7b360e01b81523060048201526024810183905260209390929091821684846044818a855af1928315620006b357620005ed86946200062d968a916200037b575062003acb565b60045416876040518096819582946323b872dd60e01b845230600485016040919493929460608201956001600160a01b0380921683521660208201520152565b03925af180156200039d5762000690575b50505b81526019602052604081205460015480156200067c5760001901600155600c906200066c9062003570565b5001805460ff1916600117905580f35b602483634e487b7160e01b81526011600452fd5b81620006aa92903d1062000368576200035881836200361c565b5038806200063e565b6040513d89823e3d90fd5b60405163095ea7b360e01b81523060048201526024810182905260209590945092509084846044818a855af1928315620006b357620005ed86946200070b968a916200037b575062003acb565b03925af180156200039d5762000724575b505062000641565b816200073e92903d1062000368576200035881836200361c565b5038806200071c565b6200058c945062000775935080919250903d106200078b575b6200076c81836200361c565b810190620038d4565b505050509650505050939150929190386200057e565b503d62000760565b6040513d87823e3d90fd5b620007a99062003607565b620007b657823862000544565b8280fd5b6040513d84823e3d90fd5b50346200047a57806003193601126200047a576020601754604051908152f35b50346200047a5760603660031901126200047a576020620004a462000809620035c2565b62000813620035d9565b6044359162003997565b50346200047a576200082f36620035f0565b6001600160a01b0380600b54163314801562000e49575b801562000e3b575b620008599062003735565b8381600d5416803b15620004765760405163318a457160e21b8152600481018590523060248201529082908290604490829084905af18015620007ba5762000e23575b5050620008ad601354928462003ecf565b8060055416604051809163133f757160e31b82528560048301528160246101809485935afa8015620004285762000937948793889389918a9462000ded575b5050600654604051630b4c774160e11b81526001600160a01b0380881660048301528616602482015262ffffff90921660448301526020978891839190891690829081906064820190565b03915afa90811562000da157899162000dac575b508686604481600954169360405194859384927f8be32a4100000000000000000000000000000000000000000000000000000000845216600483015261070860248301525afa90811562000da157899162000d6e575b50670de0b6b3a7640000908183028315928482041483171562000d2c5790620009ca91620037b2565b80830292830414171562000d58578588600383111562000d40575050806001908060011c6001810180911162000d2c57918895949392915b83831062000cfd575050509062000a3c915b6fffffffffffffffffffffffffffffffff90811690821681111562000cf557505b8762003f18565b91908580600354169516948681871460001462000c68576004805460405163a9059cbb60e01b815292166001600160a01b03169082015260248101949094525091935083915081888682604481010393165af18015620007935762000c46575b505b80600d541681600b54163314801562000c3c575b801562000c2e575b62000ac59062003735565b8482600e5416803b15620004765760405163095ea7b360e01b81526001600160a01b039390931660048401526024830186905281908390604490829084905af191821562000c2157849262000c02575b5050601654600a54600554604051630fe9a9f560e31b81529085166001600160a01b0316600482015260248101879052604481019290925230606483015290928391168187816084810103925af19081156200039d57849162000bce575b5062000bc8906019600b9362000b8c6016544262003727565b956000525260406000205490600962000ba58362003570565b500155600a62000bb58262003570565b5001805460ff1916600117905562003570565b50015580f35b90508181813d831162000bfa575b62000be881836200361c565b810103126200041b5751600b62000b73565b503d62000bdc565b62000c0f91925062003607565b62000c1d5781843862000b15565b8380fd5b50604051903d90823e3d90fd5b50600c548216331462000aba565b5030331462000ab2565b62000c6090833d851162000368576200035881836200361c565b503862000a9c565b91935091161462000c7d575b50505062000a9e565b62000cba9284600454168860405180968195829463a9059cbb60e01b845260048401602090939291936001600160a01b0360408201951681520152565b03925af18015620007935762000cd3575b828162000c74565b62000ced90833d851162000368576200035881836200361c565b503862000ccb565b905062000a35565b91809495965062000d1d9193509362000d178184620037b2565b62003727565b821c9091889594939262000a02565b60248b634e487b7160e01b81526011600452fd5b62000a3c92949391941562000a145750600162000a14565b634e487b7160e01b600052601160045260246000fd5b90508681813d831162000d99575b62000d8881836200361c565b810103126200041b575138620009a1565b503d62000d7c565b6040513d8b823e3d90fd5b90508681813d831162000de5575b62000dc681836200361c565b8101031262000de15762000dda90620036c6565b386200094b565b8880fd5b503d62000dba565b92955092505062000e0d9250803d106200078b576200076c81836200361c565b50505050955050509350939093923880620008ec565b62000e2e9062003607565b62000c1d5783386200089c565b50600c54811633146200084e565b5030331462000846565b50346200047a57806003193601126200047a576020601654604051908152f35b50346200047a57806003193601126200047a5760206001600160a01b03600a5416604051908152f35b50346200047a57806003193601126200047a5760206001600160a01b03600c5416604051908152f35b50346200047a5760603660031901126200047a5760043560243590604435906fffffffffffffffffffffffffffffffff908183168093036200115d576002918186526020946019865262000f1d604088205462003570565b506001600160a01b03948591015416330362001119578684600d5416803b15620004765760405163318a457160e21b8152600481018490523060248201529082908290604490829084905af18015620007ba57620010fd575b505062000f84908362003ecf565b82600554169160405194859363133f757160e31b85528260048601528460246101809687935afa8015620010f257889689958a92620010b9575b5050831602918216918203620010a5579062000fda9162003f18565b60405163a9059cbb60e01b80825233600483015260248201939093529490929190879087908790604490829085908a165af194851562000c21576200104d96889662001083575b5060405180978196829583523360048401602090939291936001600160a01b0360408201951681520152565b0393165af18015620003705762001062578280f35b816200107c92903d1062000368576200035881836200361c565b5038808280f35b6200109d90873d891162000368576200035881836200361c565b503862001021565b602487634e487b7160e01b81526011600452fd5b859850620010db93965080919250903d106200078b576200076c81836200361c565b505050509996505050509791509694903862000fbe565b6040513d8a823e3d90fd5b620011089062003607565b6200111557863862000f76565b8680fd5b6064866040519062461bcd60e51b82526004820152601f60248201527f43616c6c6572206973206e6f742074686520746f6b656e2063726561746f72006044820152fd5b8480fd5b5060603660031901126200047a5762001179620035c2565b906044359182159283150362000476576014543410620019af57601354604051906370a0823160e01b8083523060048401526020836024816001600160a01b0388165afa92831562000793578690869462001973575b50620018a1575b506001851514620017d2575b836001600160a01b036003541691826001600160a01b03861610600014620017b8576040926001600160a01b0392608492879296905b856009541691868851998a9889977f69f684ea000000000000000000000000000000000000000000000000000000008952166004880152166024860152604485015260648401525af19384156200037057839184956200176e575b506001600160a01b03600554166001600160a01b03600d5416813b156200176a5760405163095ea7b360e01b81526001600160a01b03919091166004820152602481018790529085908290604490829084905af18015620007935790859162001752575b5050601554600d54600554604051630fe9a9f560e31b81526001600160a01b039182166004820152602481018990526044810193909352306064840152602091839160849183918a91165af1908115620007935785916200171a575b50620013426015544262003727565b9060405193846101e081011067ffffffffffffffff6101e08701111762001704576001600160a01b03906101e0860160405281871686521660208501523360408501524260608501528660808501528560a08501528560c08501528560e08501528561010085015261012084015260016101408401526101608301528361018083015260016101a0830152156101c082015260185468010000000000000000811015620016f057806001620013fb920160185562003570565b620016dd57600c906001600160a01b0383511673ffffffffffffffffffffffffffffffffffffffff199081835416178255600182016001600160a01b036020860151168282541617905560028201906001600160a01b036040860151169082541617905560608301516003820155608083015160048201556200149360a08401511515600583019060ff801983541691151516179055565b60c08301516006820155620014bd60e08401511515600783019060ff801983541691151516179055565b61010083015160088201556101208301516009820155620014f46101408401511515600a83019060ff801983541691151516179055565b610160830151600b82015501906200151f6101808201511515839060ff801983541691151516179055565b6101a081015115159061ff0062ff00006101c08554930151151560101b169260081b169062ffff0019161717905560185460001981019081116200067c578383526019602052604083205562001576825462003897565b82556200158560015462003897565b60015582825260196020526001600160a01b036001620015a9604085205462003570565b500154166001600160a01b0382163b15620007b657604051907f5edfd7ce00000000000000000000000000000000000000000000000000000000825260048201528281602481836001600160a01b0387165af180156200037057908391620016c5575b50506024351590811562001626575b602084604051908152f35b6003602435026024358104600314831715620016b1576064900483808080620016528560243562003889565b946001600160a01b0360105416828215620016a7575bf1156200037057906200167b9162003b17565b5060016024358004141715620016935780806200161b565b80634e487b7160e01b602492526011600452fd5b506108fc62001668565b602484634e487b7160e01b81526011600452fd5b620016d09062003607565b620004765781386200160c565b602484634e487b7160e01b815280600452fd5b602484634e487b7160e01b81526041600452fd5b634e487b7160e01b600052604160045260246000fd5b90506020813d60201162001749575b8162001738602093836200361c565b810103126200041b57513862001333565b3d915062001729565b6200175d9062003607565b62000c1d578338620012d7565b8580fd5b915093506040813d604011620017af575b816200178e604093836200361c565b81010312620007b6576020620017a482620036c6565b910151933862001273565b3d91506200177f565b926084906001600160a01b03926040949187969062001218565b5034156200185d57620017e86024353462003889565b6001600160a01b0360035416803b156200115d578482916004604051809481937fd0e30db00000000000000000000000000000000000000000000000000000000083525af18015620007935790859162001845575b5050620011e2565b620018509062003607565b62000c1d5783386200183d565b606460405162461bcd60e51b815260206004820152601860248201527f4d7573742073656e642045544820746f20636f6e7665727400000000000000006044820152fd5b60206001600160a01b03600354169160246040518094819382523060048301525afa9081156200079357908291869162001938575b5010620018e45738620011d6565b608460405162461bcd60e51b815260206004820152602760248201527f4e6f7420656e6f756768205745544820696e2074686520666163746f727920636044820152661bdb9d1c9858dd60ca1b6064820152fd5b9150506020813d6020116200196a575b8162001957602093836200361c565b810103126200041b5781905138620018d6565b3d915062001948565b9350506020833d602011620019a6575b8162001992602093836200361c565b810103126200041b578592519238620011cf565b3d915062001983565b608460405162461bcd60e51b815260206004820152602c60248201527f496e73756666696369656e74204554482073656e742e2052657175697265643a60448201527f20302e30303031352045544800000000000000000000000000000000000000006064820152fd5b50346200047a57806003193601126200047a5760206001600160a01b0360085416604051908152f35b50346200047a57806003193601126200047a5760206001600160a01b0360075416604051908152f35b50346200047a5760403660031901126200047a578062001a8a620035c2565b602435906001600160a01b039081600b54163314801562001bfd575b801562001bef575b62001ab99062003735565b8160035416604051906370a0823160e01b82523060048301526020918281602481855afa908115620006b357879162001bb7575b5085111562001afa578580f35b60405163a9059cbb60e01b81526001600160a01b038416600482015260248101869052908290829060449082908a905af18015620004285762001b94575b50501690813b1562001b90578291602483926040519485938492639b5ceb3560e01b845260048401525af18015620007ba5762001b78575b808080808580f35b62001b839062003607565b6200047a57803862001b70565b5050fd5b8162001bae92903d1062000368576200035881836200361c565b50388062001b38565b809750838092503d831162001be7575b62001bd381836200361c565b810103126200041b57848796519062001aed565b503d62001bc7565b50600c548216331462001aae565b5030331462001aa6565b50346200047a5762001c1936620035f0565b6001600160a01b03929183600b54163314801562001e62575b801562001e54575b62001c459062003735565b8083526020936019855260408420549281600d541690813b156200176a5760405163318a457160e21b815260048101919091523060248201529085908290604490829084905af18015620007935790859162001e3c575b505080600d541681600b54163314801562001e32575b801562001e24575b62001cc59062003735565b81600e541690813b156200176a5760405163095ea7b360e01b81526001600160a01b03919091166004820152602481018490529085908290604490829084905af180156200079357869291869162001e07575b5050601654600d54600554604051630fe9a9f560e31b81529084166001600160a01b03166004820152602481019590955260448501919091523060648501528391168186816084810103925af192831562001dfb579262001dc6575b5081600962001d838362003570565b500155600a62001d938262003570565b5001600160ff19825416179055600b62001dbb62001db46016544262003727565b9262003570565b500155604051908152f35b9091508281813d831162001df3575b62001de181836200361c565b810103126200041b5751903862001d74565b503d62001dd5565b604051903d90823e3d90fd5b62001e159192935062003607565b62000c1d578490843862001d18565b50600c548216331462001cba565b5030331462001cb2565b62001e479062003607565b62000c1d57833862001c9c565b50600c548416331462001c3a565b5030331462001c32565b50346200047a5760403660031901126200047a576004359062001e8e620035d9565b916001600160a01b0362001ea881600b54163314620036db565b601183815582845260196020908152604080862054600d5482517f51f3b4bd000000000000000000000000000000000000000000000000000000008152600481018890523060248201529198949594919288918490604490829085908a165af18015620010f25788938991620024ce575b5060408051898152602081018690529081018290527fa54e6c2fc0861aa9c991b26891d71059d517983b9e84b91020f42609c452eb9d90606090a1600354861683871610156200242a5783159283620023e65762001f8c929162000d1762001f82928762003dad565b9081885562003727565b95600862001f9a8a62003570565b5001548311620023d55762001faf9062003c88565b8180046001141715620023c2576008606462001fcb8962003570565b5092049101555b7f455a40491d912862d7d0e0f06f4b988a4ecbfcb2e134b41b9600c81a782860ed81604051868152a183159586156200201b575b856200201586600f5462003727565b600f5580f35b6014850296858804601414811715620023af576064879804846003541691823b1562000de15760405189817f2e1a7d4d00000000000000000000000000000000000000000000000000000000958682528560048301528160249e8f925af18015620023a457908a93929162002386575b506050890290898204605014171562002374579180808093896002620020b96064620020d099049a62003570565b500154165af1620020c9620037d3565b5062003817565b8360035416906040516370a0823160e01b815230600482015284818b81865afa90811562000da1579084918a916200233d575b5010620022d457813b15620022d0578791898392604051948593849283528760048401525af18015620006b357908791620022b8575b50508060031c93841585600f810204600f14811715620022a657601986029286840460191482171562002294577f3ffffffffffffffffffffffffffffffffffffffffffffffffffffffffffffffe9060021c16958604600214171562002283575082600c5416803b156200111557869060046040518094819363014d6aed60e41b83525af1801562000428579086916200226b575b508080808686601254165af1620021e4620037d3565b50156200221857508380808097506200220d94620020159794601054165af1620020c9620037d3565b829138808062002006565b6084906027876040519262461bcd60e51b845260048401528201527f4661696c656420746f2073656e642045544820746f20747265617375727920636044820152661bdb9d1c9858dd60ca1b6064820152fd5b620022769062003607565b6200115d578438620021ce565b634e487b7160e01b87526004528686fd5b898984634e487b7160e01b8252600452fd5b888883634e487b7160e01b8252600452fd5b620022c39062003607565b6200176a57853862002139565b8780fd5b60848460228b6040519262461bcd60e51b845260048401528201527f496e737566696369656e742062616c616e6365206f6e2074686520666163746f60448201527f72790000000000000000000000000000000000000000000000000000000000006064820152fd5b809250868092503d83116200236c575b6200235981836200361c565b810103126200041b578390513862002103565b503d6200234d565b8a8389634e487b7160e01b8252600452fd5b62002395909391929362003607565b62000de157908891386200208b565b6040513d8c823e3d90fd5b60248786634e487b7160e01b8252600452fd5b60248685634e487b7160e01b8252600452fd5b620023e09062003d36565b62001faf565b50969250620024079150620023fd87875462003727565b9081875562003727565b94156200241f57620024199062003d36565b62001fd2565b620024199062003c88565b9283159283620024a6576200244a929162000d1762001f82928762003dad565b956008620024588a62003570565b500154831162002495576200246d9062003c88565b8180046001141715620023c25760086064620024898962003570565b50920491015562001fd2565b620024a09062003d36565b6200246d565b509692505050620024b985855462003727565b80855594156200241f57620024199062003d36565b9050620024f891935060403d60401162002502575b620024ef81836200361c565b8101906200379b565b9290923862001f19565b503d620024e3565b50346200047a57806003193601126200047a576001600160a01b0380600b541633148015620026ca575b8015620026bc575b620025479062003735565b81816003541691604051926370a0823160e01b84523060048501526020938481602481855afa9081156200039d57849162002685575b50601a5480911015806200267b575b62002595578380f35b8490604484600c541686604051958694859363a9059cbb60e01b8552600485015260248401525af18015620003705762002659575b50600c5416601a54813b15620007b6578291602483926040519485938492639b5ceb3560e01b845260048401525af18015620007ba5762002641575b50507f8ff98a7f9bedb57df86769d07998b067fba595272053e3690d3412aff560a82c90601a54604051908152a180601a5538818180808380f35b6200264c9062003607565b6200047657813862002606565b6200267390843d861162000368576200035881836200361c565b5038620025ca565b508015156200258c565b809450858092503d8311620026b4575b620026a181836200361c565b810103126200041b57849251386200257d565b503d62002695565b50600c54811633146200253c565b5030331462002534565b5060203660031901126200047a576004356001600160a01b039081600b54163314916200270183620036db565b3415620027ff576200276b602083869584600354169085600c5416908015620027f5575b8015620027eb575b620027389062003735565b8760405180968195829463095ea7b360e01b845260048401602090939291936001600160a01b0360408201951681520152565b03925af180156200039d5762002789918591620027ce575062003acb565b600c5416803b1562001b9057829060046040518094819363014d6aed60e41b83525af18015620007ba57620027bb5750f35b620027c69062003607565b6200047a5780f35b62000396915060203d60201162000368576200035881836200361c565b503381146200272d565b5030331462002725565b606460405162461bcd60e51b815260206004820152601160248201527f4e6f207265776172647320746f206164640000000000000000000000000000006044820152fd5b50346200047a57806003193601126200047a5760209054604051908152f35b50346200047a57806003193601126200047a5760206001600160a01b03600b5416604051908152f35b50346200047a5760208060031936011262000476576004356001600160a01b039081600c5416803314801562002ab757906200291f83927fd5e85995d9bdcdafb72531ec59faef29167c16780583ca2068587fe896170c4787620028f48a9897601a5462003727565b9586601a55604051908152a184600b5416331490811562002aac575b811562002aa3575b5062003735565b8260035416916040516370a0823160e01b81523060048201528681602481875afa801562000428578291879162002a6c575b5010158062002a62575b62002964578480f35b6044869286604051958694859363a9059cbb60e01b8552600485015260248401525af18015620003705762002a40575b50600c5416601a5490803b15620007b657602483926040519485938492639b5ceb3560e01b845260048401525af18015620003705762002a0a575b507f8ff98a7f9bedb57df86769d07998b067fba595272053e3690d3412aff560a82c90601a54604051908152a180601a553881818080808480f35b9162002a387f8ff98a7f9bedb57df86769d07998b067fba595272053e3690d3412aff560a82c929362003607565b9190620029cf565b62002a5a90843d861162000368576200035881836200361c565b503862002994565b508015156200295b565b809250888092503d831162002a9b575b62002a8881836200361c565b810103126200176a578190513862002951565b503d62002a7c565b90503862002918565b333014915062002910565b6084856040519062461bcd60e51b82526004820152602160248201527f4f6e6c79207374616b696e6720636f6e74726163742063616e206e6f7469667960448201527f2e000000000000000000000000000000000000000000000000000000000000006064820152fd5b50346200047a57806003193601126200047a5760206001600160a01b0360065416604051908152f35b50346200047a57806003193601126200047a576020600154604051908152f35b50346200047a5760403660031901126200047a576004356001600160a01b03808216809203620007b65762002b9e620035d9565b62002baf82600b54163314620036db565b73ffffffffffffffffffffffffffffffffffffffff199283600c541617600c551690601254161760125580f35b50346200047a57806003193601126200047a576020601a54604051908152f35b50346200047a57806003193601126200047a5760206001600160a01b0360055416604051908152f35b50346200047a57806003193601126200047a5754600154600f5460408051938452602084019290925290820152606090f35b0390f35b50346200047a5760603660031901126200047a5762002c79620035c2565b9062002c84620035d9565b6044359262ffffff84168403620007b657600654604051630b4c774160e11b81526001600160a01b039283166004820152928216602484015262ffffff94909416604483015290926020908490606490829085165afa91821562001dfb57809262002cf7575b6020838360405191168152f35b9091506020833d60201162002d35575b8162002d16602093836200361c565b810103126200047a575062002d2d602092620036c6565b903862002cea565b3d915062002d07565b50346200047a57806003193601126200047a576020601554604051908152f35b50346200047a5760203660031901126200047a57600435906018548210156200047a576101e062002d8f8362003570565b506001600160a01b0390818154169180600183015416906002830154169160038101549260048201549360ff9485600585015416600685015487600787015416916008870154936009880154958a600a8a01541697600c600b8b01549a01549a60206040519e8f908152015260408d015260608c015260808b0152151560a08a015260c0890152151560e088015261010087015261012086015215156101408501526101608401528181161515610180840152818160081c1615156101a084015260101c1615156101c0820152f35b50346200047a57806003193601126200047a5760206001600160a01b0360035416604051908152f35b50346200047a5760603660031901126200047a5767ffffffffffffffff600435818111620007b65762002ebf9036906004016200353f565b91906024358281116200115d5762002edc9036906004016200353f565b909160405194611333808701958787109087111762002f7b578695949262002f28949262002f1992620042088939608087526080870191620036a5565b918483036020860152620036a5565b906044356040820152606030910152039082f0801562000c2157906001600160a01b0360209216807f91d24864a084ab70b268a1f865e757ca12006cf298d763b6be697302ef86498c6040519380a28152f35b602488634e487b7160e01b81526041600452fd5b50346200047a57806003193601126200047a5760206001600160a01b03600d5416604051908152f35b50346200047a57806003193601126200047a5760185460c05262002fde60c05162003658565b60805262002fee60c05162003658565b6102405262002fff60c05162003658565b6101e0526200301060c05162003658565b610100526200302160c05162003658565b610140526200303260c05162003658565b610260526200304360c05162003658565b610180526200305460c05162003658565b6101a0526200306560c05162003658565b610200526200307660c05162003658565b610220526200308760c05162003658565b6101c0526200309860c05162003658565b61016052620030a960c05162003658565b61012052620030ba60c05162003658565b60e052620030ca60c05162003658565b60a0525b60c05181106200322c576040518062002c576200321a62003208620031f5620031e2620031cf620031bc620031a9620031976200318562003173620031616200314f8d6200313c6200312a6101e0808452830160805162003492565b82810360208401526102405162003492565b9060408183039101526101e05162003492565b8d810360608f015261010051620034d1565b8c810360808e015261014051620034d1565b8b810360a08d01526102605162003507565b8a810360c08c015261018051620034d1565b89810360e08b01526101a05162003507565b8881036101008a015261020051620034d1565b87810361012089015261022051620034d1565b8681036101408801526101c05162003507565b85810361016087015261016051620034d1565b8481036101808601526101205162003507565b8381036101a085015260e05162003507565b8281036101c084015260a05162003507565b806200323a60019262003570565b506001600160a01b0380915416620032558360805162003690565b528083620032638462003570565b5001541662003276836102405162003690565b526002620032848362003570565b5001541662003297826101e05162003690565b526004620032a58262003570565b500154620032b7826101005162003690565b526003620032c58262003570565b500154620032d7826101405162003690565b526005620032e58262003570565b5060ff918291015416620032fd836102605162003690565b901515905260066200330f8362003570565b50015462003321836101805162003690565b52806007620033308462003570565b5001541662003343836101a05162003690565b9015159052620033538262003570565b5060088091015462003369846102005162003690565b526009620033778462003570565b50015462003389846102205162003690565b5281600a620033988562003570565b50015416620033ab846101c05162003690565b9015159052600b620033bd8462003570565b500154620033cf846101605162003690565b5281620033dc8462003570565b509181600c8094015416620033f5866101205162003690565b901515905282620034068662003570565b500154901c166200341a8460e05162003690565b90151590526200342a8362003570565b50015460101c166200343f8260a05162003690565b901515905201620030ce565b50346200047a57806003193601126200047a5760206001600160a01b0360045416604051908152f35b90503462000476578160031936011262000476576020906002548152f35b90815180825260208080930193019160005b828110620034b3575050505090565b83516001600160a01b031685529381019392810192600101620034a4565b90815180825260208080930193019160005b828110620034f2575050505090565b835185529381019392810192600101620034e3565b90815180825260208080930193019160005b82811062003528575050505090565b835115158552938101939281019260010162003519565b9181601f840112156200041b5782359167ffffffffffffffff83116200041b57602083818601950101116200041b57565b601854811015620035ac57600d906018600052027fb13d2d76d1f4b7be834882e410b3e3a8afaf69f83600ae24db354391d2378d2e0190600090565b634e487b7160e01b600052603260045260246000fd5b600435906001600160a01b03821682036200041b57565b602435906001600160a01b03821682036200041b57565b60409060031901126200041b576004359060243590565b67ffffffffffffffff81116200170457604052565b90601f8019910116810190811067ffffffffffffffff8211176200170457604052565b67ffffffffffffffff8111620017045760051b60200190565b9062003664826200363f565b6200367360405191826200361c565b828152809262003686601f19916200363f565b0190602036910137565b8051821015620035ac5760209160051b010190565b908060209392818452848401376000828201840152601f01601f1916010190565b51906001600160a01b03821682036200041b57565b15620036e357565b606460405162461bcd60e51b815260206004820152601760248201527f43616c6c6572206973206e6f7420746865206f776e65720000000000000000006044820152fd5b9190820180921162000d5857565b156200373d57565b606460405162461bcd60e51b815260206004820152601860248201527f43616c6c6572206973206e6f7420617574686f72697a656400000000000000006044820152fd5b908160209103126200041b575180151581036200041b5790565b91908260409103126200041b576020825192015190565b8115620037bd570490565b634e487b7160e01b600052601260045260246000fd5b3d1562003812573d9067ffffffffffffffff821162001704576040519162003806601f8201601f1916602001846200361c565b82523d6000602084013e565b606090565b156200381f57565b608460405162461bcd60e51b815260206004820152602160248201527f4661696c656420746f2073656e642045544820746f207465616d2077616c6c6560448201527f74000000000000000000000000000000000000000000000000000000000000006064820152fd5b9190820391821162000d5857565b600019811462000d585760010190565b51908160020b82036200041b57565b51906fffffffffffffffffffffffffffffffff821682036200041b57565b9190826101809103126200041b5781516bffffffffffffffffffffffff811681036200041b57916200390960208201620036c6565b916200391860408301620036c6565b916200392760608201620036c6565b91608082015162ffffff811681036200041b57916200394960a08201620038a7565b916200395860c08301620038a7565b916200396760e08201620038b6565b916101008201519161012081015191620039946101606200398c6101408501620038b6565b9301620038b6565b90565b90604080519360a0850185811067ffffffffffffffff821117620017045782526001600160a01b039485809516815284602082019416845282810191825260608101936127108552856080830160009687958683528380600854169589519c8d987fc6a5026a000000000000000000000000000000000000000000000000000000008a5251166004890152511660248701525160448601525162ffffff16606485015251166084830152815a9360a492608095f193841562003ac057829462003a62575b5050505090565b90919293506080813d60801162003ab7575b8162003a83608093836200361c565b81010312620007b657805193602082015190811603620007b657015163ffffffff8116036200047a57503880808062003a5b565b3d915062003a74565b5051903d90823e3d90fd5b1562003ad357565b606460405162461bcd60e51b815260206004820152600f60248201527f417070726f76616c206661696c656400000000000000000000000000000000006044820152fd5b906001600160a01b0362003b318383836003541662003997565b91605f830292808404605f149015171562000d585781600354169184816007541682600b54163314801562003c7e575b801562003c70575b62003b749062003735565b60405163095ea7b360e01b81526001600160a01b0390911660048201526024810196909652602095868180604481010381600080995af19081156200079357879493929162003bcb9187916200037b575062003acb565b6009546003546040516339ec272160e11b81526001600160a01b039185168216600482015294166024850152604484019190915260649586900495830195909552336084830152909384911681848160a481015b03925af192831562000c2157819362003c39575b50505090565b9091809350813d831162003c68575b62003c5481836200361c565b810103126200047a57505138808062003c33565b503d62003c48565b50600c548316331462003b69565b5030331462003b61565b62003d046006918060005260196020527f5b5116a6a7ed7078e6da121ce407eb49b9da5715f14154c54556529f996a4fb0604060002054918462003ccc8462003570565b500154601754111562003d16575b60ff600762003ce98562003570565b5001546040805193845291161515602083015290a162003570565b500162003d12815462003897565b9055565b600762003d238462003570565b5001805460ff1916600117905562003cda565b60005260196020527f6f3e068cb934f31cfea69b2f72e697abfe27982d58fe7fcabb327c96c89cd33a6040600020546000600662003d748362003570565b50015560ff600762003d96600662003d8c8562003570565b5001549362003570565b5001546040805193845291161515602083015290a1565b906001600160a01b039162003dc88184600354168462003997565b91605f830292808404605f149015171562000d585783600754169380600b54163314801562003ec5575b801562003eb7575b62003e059062003735565b60405163095ea7b360e01b81526001600160a01b0395909516600486015260248501839052602094600093908681604481888888165af19081156200079357879493929162003e5c9187916200037b575062003acb565b6009546003546040516339ec272160e11b81526001600160a01b0395861660048201529084169094166024850152604484019190915260649586900495830195909552306084830152909384911681848160a4810162003c1f565b50600c548116331462003dfa565b5030331462003df2565b62003f13600092600b9284526019602052604084205490600962003ef38362003570565b500155600a62003f038262003570565b5001805460ff1916905562003570565b500155565b919060008381526020906019825260409182822054956001600160a01b0390846fffffffffffffffffffffffffffffffff60448460095416988784519a8b9485937f911757ba0000000000000000000000000000000000000000000000000000000085528860048601521660248401525af19788156200416d5784968599620041d6575b5062003faa60059162003570565b5001805460ff191660011790558451908152602081018690526040810188905233907f1dc8bb69df2b8e91fbdcbfcf93d951b3f0000f085a95fe3f7946d6161439245d90606090a280600b541633148015620041cc575b8015620041be575b620040149062003735565b806003541684516370a0823160e01b81523060048201528381602481855afa908115620041b457859162004181575b50601a54809110158062004177575b62004062575b5050505050509190565b8390604484600c5416878951958694859363a9059cbb60e01b8552600485015260248401525af180156200416d576200414b575b50600c5416601a54813b1562000c1d5783916024839287519485938492639b5ceb3560e01b845260048401525af1801562004141576200410d575b507f8ff98a7f9bedb57df86769d07998b067fba595272053e3690d3412aff560a82c9192601a549051908152a1601a5538808080808062004058565b916200413a7f8ff98a7f9bedb57df86769d07998b067fba595272053e3690d3412aff560a82c9362003607565b91620040d1565b84513d85823e3d90fd5b6200416590833d851162000368576200035881836200361c565b503862004096565b85513d86823e3d90fd5b5080151562004052565b90508381813d8311620041ac575b6200419b81836200361c565b810103126200115d57513862004043565b503d6200418f565b86513d87823e3d90fd5b50600c548116331462004009565b5030331462004001565b600591995062003faa9750620041fb90873d89116200250257620024ef81836200361c565b97909799915062003f9c56fe60406080815234620006a35762001333803803806200001e81620006a8565b9283398101608082820312620006a35781516001600160401b0390818111620006a357826200004f918501620006ce565b6020928385015190838211620006a3576200006c918601620006ce565b8585015160609095015190926001600160a01b039182811690819003620006a3578351828111620005a35760038054916001968784811c9416801562000698575b8a85101462000682578190601f948581116200062c575b508a90858311600114620005c557600092620005b9575b505060001982841b1c191690871b1781555b865191848311620005a35760049788548881811c9116801562000598575b8b8210146200058357908183869594931162000529575b508a918411600114620004be57600093620004b2575b505082871b92600019911b1c19161785555b60018060a01b03199061dead8260085416176008556005600a5560ff19600c5416600c55670de0b6b3a76400009788810298818a0414811517156200049d57674563918244f4000002888104600514891517156200049d576064900460055581600754161760075587519160608301908382109082111762000488578852308252858201916000835288810192308452600d546801000000000000000081101562000473578087620002009201600d5562000740565b9290926200045f5751825491516001600160a81b03199092169086161790151560a01b60ff60a01b1617815591519184018054909116918316919091179055600d5460001981019081116200044a5730600052600e855286600020553315620004335730600052600e84528560002054918060ff6200027f8562000740565b505460a01c16151514928362000422575b8362000413575b8362000402575b83620003f6575b83620003ec575b83620003ce575b50505062000317575b507fddf252ad1be2c89b69c2b068fc378daa952ba7f163c4a11628f55a4df523b3ef600091620002ef8460025462000776565b60025533835282815284832084815401905584519384523393a351610b9890816200079b8239f35b600254600a5490818102918183041490151715620003b9576064903360005260008452046200034b84866000205462000776565b1115620002bc5760849184519162461bcd60e51b8352820152603660248201527f4d79546f6b656e3a205472616e7366657220616d6f756e74206578636565647360448201527f20746865206d617820686f6c64696e67206c696d6974000000000000000000006064820152fd5b601182634e487b7160e01b6000525260246000fd5b620003dc9192935062000740565b50015416331415388080620002b3565b92508092620002ac565b333014159350620002a5565b92508160085416331415926200029e565b60075483161515935062000297565b925081600754163314159262000290565b855163ec442f0560e01b8152600081850152602490fd5b601184634e487b7160e01b6000525260246000fd5b600088634e487b7160e01b82525260246000fd5b604188634e487b7160e01b6000525260246000fd5b604186634e487b7160e01b6000525260246000fd5b601187634e487b7160e01b6000525260246000fd5b01519150388062000138565b9190889450601f198416928a6000528b6000209360005b8d828210620005125750508511620004f7575b50505050811b0185556200014a565b01519060f884600019921b161c1916905538808080620004e8565b8385015187558c98909601959384019301620004d5565b9091929350896000528a6000208380870160051c8201928d881062000579575b918b918897969594930160051c01915b8281106200056957505062000122565b600081558796508b910162000559565b9250819262000549565b60228a634e487b7160e01b6000525260246000fd5b90607f16906200010b565b634e487b7160e01b600052604160045260246000fd5b015190503880620000db565b60008581528c81208b9550929190601f198516908e5b828210620006145750508411620005fb575b505050811b018155620000ed565b015160001983861b60f8161c19169055388080620005ed565b8385015186558d979095019493840193018e620005db565b909150836000528a6000208580850160051c8201928d861062000678575b918b91869594930160051c01915b82811062000668575050620000c4565b600081558594508b910162000658565b925081926200064a565b634e487b7160e01b600052602260045260246000fd5b93607f1693620000ad565b600080fd5b6040519190601f01601f191682016001600160401b03811183821017620005a357604052565b919080601f84011215620006a35782516001600160401b038111620005a35760209062000704601f8201601f19168301620006a8565b92818452828287010111620006a35760005b8181106200072c57508260009394955001015290565b858101830151848201840152820162000716565b600d548110156200076057600d60005260206000209060011b0190600090565b634e487b7160e01b600052603260045260246000fd5b919082018092116200078457565b634e487b7160e01b600052601160045260246000fdfe608060408181526004918236101561001657600080fd5b600092833560e01c91826306647125146107d45750816306fdde03146106f8578163095ea7b31461065057816318160ddd1461063157816323b872dd1461052557816327c8f835146104fd578163313ce567146104e1578163333e6f06146104c25781635edfd7ce14610378578163634282af1461031a57816370a08231146102e457816395d89b41146101c357508063966dae0e1461019c578063a9059cbb1461016c578063aa4bde281461014e578063d045a3291461012b5763dd62ed3e146100e057600080fd5b34610127578060031936011261012757806020926100fc610839565b610104610854565b6001600160a01b0391821683526001865283832091168252845220549051908152f35b5080fd5b503461012757816003193601126101275760209060ff600c541690519015158152f35b5034610127578160031936011261012757602090600b549051908152f35b503461012757806003193601126101275760209061019561018b610839565b60243590336108e3565b5160018152f35b50346101275781600319360112610127576020906001600160a01b03600754169051908152f35b83833461012757816003193601126101275780519082845460018160011c90600183169283156102da575b60209384841081146102c7578388529081156102ab5750600114610256575b505050829003601f01601f191682019267ffffffffffffffff841183851017610243575082918261023f9252826107f0565b0390f35b80604186634e487b7160e01b6024945252fd5b8787529192508591837f8a35acfbc15ff81a39ae7d344fd709f28e8600b4aa8c65c6b64bfe7fe36bd19b5b838510610297575050505083010185808061020d565b805488860183015293019284908201610281565b60ff1916878501525050151560051b840101905085808061020d565b60248960228c634e487b7160e01b835252fd5b91607f16916101ee565b50503461012757602036600319011261012757806020926001600160a01b0361030b610839565b16815280845220549051908152f35b83915034610127576020366003190112610127573590600d548210156103755760606001846103488561086a565b509060ff8254926001600160a01b03948591015416928251948116855260a01c1615156020840152820152f35b80fd5b9050346104be5760203660031901126104be57610393610839565b916001600160a01b0391826007541633036104565750610406600191308652600e6020528520546103c38161086a565b50740100000000000000000000000000000000000000007fffffffffffffffffffffff00ffffffffffffffffffffffffffffffffffffffff82541617905561086a565b500191167fffffffffffffffffffffffff00000000000000000000000000000000000000008254161790556064610442600254600a54906108ba565b04600b55600160ff19600c541617600c5580f35b6020608492519162461bcd60e51b8352820152602d60248201527f43616c6c6572206973206e6f7420617574686f72697a656420746f20656e616260448201527f6c65206d61782077616c6c6574000000000000000000000000000000000000006064820152fd5b8280fd5b5050346101275781600319360112610127576020906005549051908152f35b5050346101275781600319360112610127576020905160128152f35b5050346101275781600319360112610127576020906001600160a01b03600854169051908152f35b9050823461037557606036600319011261037557610541610839565b610549610854565b91604435936001600160a01b038316808352600160205286832033845260205286832054916000198303610586575b6020886101958989896108e3565b8683106105ec5781156105d65733156105c05750825260016020908152868320338452815291869020908590039055829061019587610578565b60249084895191634a1406b160e11b8352820152fd5b6024908489519163e602df0560e01b8352820152fd5b87517ffb8f41b2000000000000000000000000000000000000000000000000000000008152339181019182526020820193909352604081018790528291506060010390fd5b5050346101275781600319360112610127576020906002549051908152f35b9050346104be57816003193601126104be5761066a610839565b6024359033156106e2576001600160a01b03169182156106cc57508083602095338152600187528181208582528752205582519081527f8c5be1e5ebec7d5bd14f71427d1e84f3dd0314c0f7b2291e5b200ac8c7c3b925843392a35160018152f35b60249085855191634a1406b160e11b8352820152fd5b6024838686519163e602df0560e01b8352820152fd5b8383346101275781600319360112610127578051908260035460018160011c90600183169283156107ca575b60209384841081146102c7578388529081156102ab575060011461077457505050829003601f01601f191682019267ffffffffffffffff841183851017610243575082918261023f9252826107f0565b600387529192508591837fc2575a0e9e593c00f959f8c92f12db2869c3395a3b0502d05e2516446f71f85b5b8385106107b6575050505083010185808061020d565b8054888601830152930192849082016107a0565b91607f1691610724565b849034610127578160031936011261012757602090600a548152f35b6020808252825181830181905290939260005b82811061082557505060409293506000838284010152601f8019910116010190565b818101860151848201604001528501610803565b600435906001600160a01b038216820361084f57565b600080fd5b602435906001600160a01b038216820361084f57565b600d548110156108a457600d60005260011b7fd7b6990105719101dabeb77144f2a3385c8033acd3af97e9423a695e81ad1eb50190600090565b634e487b7160e01b600052603260045260246000fd5b818102929181159184041417156108cd57565b634e487b7160e01b600052601160045260246000fd5b9291906001600160a01b03808516918215610b31578116928315610b0057600091308352602092600e84526040918282205490600160ff6109238461086a565b505460a01c161515149182610af1575b82610ae2575b82610ad3575b82610ac8575b82610abd575b82610aa1575b50506109f8575b84815280845281812054978389106109af57508083869798997fddf252ad1be2c89b69c2b068fc378daa952ba7f163c4a11628f55a4df523b3ef9785945282875203828220558781522082815401905551908152a3565b82517fe450d38c0000000000000000000000000000000000000000000000000000000081526001600160a01b039190911660048201526024810189905260448101849052606490fd5b6064610a09600254600a54906108ba565b0486825281855282822054848101809111610a8d5711156109585760848483519062461bcd60e51b82526004820152603660248201527f4d79546f6b656e3a205472616e7366657220616d6f756e74206578636565647360448201527f20746865206d617820686f6c64696e67206c696d6974000000000000000000006064820152fd5b602483634e487b7160e01b81526011600452fd5b6001919250610aaf9061086a565b500154168614153880610951565b87891415925061094b565b308914159250610945565b6008548216891415925061093f565b60075482168814159250610939565b60075482168914159250610933565b60246040517fec442f0500000000000000000000000000000000000000000000000000000000815260006004820152fd5b60246040517f96c6fd1e00000000000000000000000000000000000000000000000000000000815260006004820152fdfea2646970667358221220512d9ac0f327413979faba83d22d0a11edf3502b12c12a96d0f5dcdd6a77316164736f6c63430008180033a2646970667358221220ff57dc12a3c9b4d70b314cd7172a020d4c25c68fd09ae76f844331e379b08dba64736f6c63430008180033","opcodes":"PUSH1 0x80 CALLVALUE PUSH3 0x190 JUMPI PUSH1 0x1F PUSH3 0x5731 CODESIZE DUP2 SWAP1 SUB SWAP2 DUP3 ADD PUSH1 0x1F NOT AND DUP4 ADD SWAP2 PUSH1 0x1 PUSH1 0x1 PUSH1 0x40 SHL SUB DUP4 GT DUP5 DUP5 LT OR PUSH3 0x195 JUMPI DUP1 DUP5 SWAP3 PUSH2 0x100 SWAP5 PUSH1 0x40 MSTORE DUP4 CODECOPY DUP2 ADD SUB SLT PUSH3 0x190 JUMPI PUSH3 0x4E DUP2 PUSH3 0x1AB JUMP JUMPDEST SWAP1 PUSH3 0x5D PUSH1 0x20 DUP3 ADD PUSH3 0x1AB JUMP JUMPDEST SWAP1 PUSH3 0x6C PUSH1 0x40 DUP3 ADD PUSH3 0x1AB JUMP JUMPDEST SWAP1 PUSH3 0x7B PUSH1 0x60 DUP3 ADD PUSH3 0x1AB JUMP JUMPDEST SWAP1 PUSH3 0x8A PUSH1 0x80 DUP3 ADD PUSH3 0x1AB JUMP JUMPDEST SWAP4 PUSH3 0x99 PUSH1 0xA0 DUP4 ADD PUSH3 0x1AB JUMP JUMPDEST PUSH3 0xB5 PUSH1 0xE0 PUSH3 0xAD PUSH1 0xC0 DUP7 ADD PUSH3 0x1AB JUMP JUMPDEST SWAP5 ADD PUSH3 0x1AB JUMP JUMPDEST SWAP5 PUSH1 0x0 DUP1 SSTORE PUSH1 0x0 PUSH1 0x1 SSTORE PUSH1 0x0 PUSH1 0x2 SSTORE PUSH1 0x1 DUP1 PUSH1 0xA0 SHL SUB NOT SWAP8 DUP9 SWAP4 PUSH2 0xDEAD DUP6 PUSH1 0x4 SLOAD AND OR PUSH1 0x4 SSTORE PUSH6 0x9184E72A000 PUSH1 0x13 SSTORE PUSH6 0x12309CE54000 PUSH1 0x14 SSTORE PUSH1 0x5 PUSH1 0x15 SSTORE PUSH1 0x5 PUSH1 0x16 SSTORE PUSH1 0x2 PUSH1 0x17 SSTORE PUSH1 0x1 DUP1 PUSH1 0xA0 SHL SUB DUP1 SWAP10 DUP2 DUP1 SWAP10 DUP2 SWAP9 DUP3 DUP1 DUP1 SWAP9 AND SWAP9 DUP10 DUP4 PUSH1 0x5 SLOAD AND OR PUSH1 0x5 SSTORE AND SWAP1 PUSH1 0x6 SLOAD AND OR PUSH1 0x6 SSTORE AND DUP13 PUSH1 0x7 SLOAD AND OR PUSH1 0x7 SSTORE AND SWAP3 DUP4 DUP12 PUSH1 0xA SLOAD AND OR PUSH1 0xA SSTORE DUP11 PUSH1 0xE SLOAD AND OR PUSH1 0xE SSTORE AND DUP9 PUSH1 0x3 SLOAD AND OR PUSH1 0x3 SSTORE CALLER DUP9 PUSH1 0xB SLOAD AND OR PUSH1 0xB SSTORE DUP8 PUSH1 0xD SLOAD AND OR PUSH1 0xD SSTORE AND DUP6 PUSH1 0x10 SLOAD AND OR PUSH1 0x10 SSTORE AND DUP4 PUSH1 0x8 SLOAD AND OR PUSH1 0x8 SSTORE AND SWAP1 PUSH1 0x9 SLOAD AND OR PUSH1 0x9 SSTORE PUSH1 0x40 MLOAD PUSH2 0x5570 SWAP1 DUP2 PUSH3 0x1C1 DUP3 CODECOPY RETURN JUMPDEST PUSH1 0x0 DUP1 REVERT JUMPDEST PUSH4 0x4E487B71 PUSH1 0xE0 SHL PUSH1 0x0 MSTORE PUSH1 0x41 PUSH1 0x4 MSTORE PUSH1 0x24 PUSH1 0x0 REVERT JUMPDEST MLOAD SWAP1 PUSH1 0x1 PUSH1 0x1 PUSH1 0xA0 SHL SUB DUP3 AND DUP3 SUB PUSH3 0x190 JUMPI JUMP INVALID PUSH2 0x280 DUP1 PUSH1 0x40 MSTORE PUSH1 0x4 CALLDATASIZE LT ISZERO PUSH3 0x1D JUMPI JUMPDEST POP CALLDATASIZE ISZERO PUSH3 0x1B JUMPI STOP JUMPDEST STOP JUMPDEST PUSH1 0x0 SWAP1 DUP2 CALLDATALOAD PUSH1 0xE0 SHR SWAP1 DUP2 PUSH4 0x13114A9D EQ PUSH3 0x3474 JUMPI POP DUP1 PUSH4 0x27C8F835 EQ PUSH3 0x344B JUMPI DUP1 PUSH4 0x2A5C792A EQ PUSH3 0x2FB8 JUMPI DUP1 PUSH4 0x3675F29B EQ PUSH3 0x2F8F JUMPI DUP1 PUSH4 0x3A93BABB EQ PUSH3 0x2E87 JUMPI DUP1 PUSH4 0x3FC8CEF3 EQ PUSH3 0x2E5E JUMPI DUP1 PUSH4 0x634282AF EQ PUSH3 0x2D5E JUMPI DUP1 PUSH4 0x67125E1C EQ PUSH3 0x2D3E JUMPI DUP1 PUSH4 0x6E9551D7 EQ PUSH3 0x2C5B JUMPI DUP1 PUSH4 0x7606F781 EQ PUSH3 0x2C25 JUMPI DUP1 PUSH4 0x791B98BC EQ PUSH3 0x2BFC JUMPI DUP1 PUSH4 0x7C6BC9BE EQ PUSH3 0x2BDC JUMPI DUP1 PUSH4 0x8A7EB91A EQ PUSH3 0x2B6A JUMPI DUP1 PUSH4 0x8B68E038 EQ PUSH3 0x2B4A JUMPI DUP1 PUSH4 0x8BDB2AFA EQ PUSH3 0x2B21 JUMPI DUP1 PUSH4 0x8C3A65A2 EQ PUSH3 0x288B JUMPI DUP1 PUSH4 0x8DA5CB5B EQ PUSH3 0x2862 JUMPI DUP1 PUSH4 0x9F181B5E EQ PUSH3 0x2843 JUMPI DUP1 PUSH4 0xAD1B9E32 EQ PUSH3 0x26D4 JUMPI DUP1 PUSH4 0xAE3B05D4 EQ PUSH3 0x250A JUMPI DUP1 PUSH4 0xB2A78804 EQ PUSH3 0x1E6C JUMPI DUP1 PUSH4 0xB2FB30CB EQ PUSH3 0x1C07 JUMPI DUP1 PUSH4 0xBE5EF176 EQ PUSH3 0x1A6B JUMPI DUP1 PUSH4 0xC31C9C07 EQ PUSH3 0x1A42 JUMPI DUP1 PUSH4 0xC6BBD5A7 EQ PUSH3 0x1A19 JUMPI DUP1 PUSH4 0xD48908CD EQ PUSH3 0x1161 JUMPI DUP1 PUSH4 0xD6A2120A EQ PUSH3 0xEC5 JUMPI DUP1 PUSH4 0xD7B4BE24 EQ PUSH3 0xE9C JUMPI DUP1 PUSH4 0xD7B96D4E EQ PUSH3 0xE73 JUMPI DUP1 PUSH4 0xDB2561D4 EQ PUSH3 0xE53 JUMPI DUP1 PUSH4 0xDB69BDD8 EQ PUSH3 0x81D JUMPI DUP1 PUSH4 0xE6CE06E2 EQ PUSH3 0x7E5 JUMPI DUP1 PUSH4 0xF02E4E36 EQ PUSH3 0x7C5 JUMPI DUP1 PUSH4 0xFBCC3FCC EQ PUSH3 0x4D5 JUMPI DUP1 PUSH4 0xFD53F53B EQ PUSH3 0x4AC JUMPI DUP1 PUSH4 0xFDE16ED3 EQ PUSH3 0x47D JUMPI PUSH4 0xFE9655FC SUB PUSH3 0x11 JUMPI CALLVALUE PUSH3 0x47A JUMPI PUSH1 0x20 DUP1 PUSH1 0x3 NOT CALLDATASIZE ADD SLT PUSH3 0x476 JUMPI PUSH1 0x4 CALLDATALOAD PUSH1 0x1 PUSH1 0x1 PUSH1 0xA0 SHL SUB PUSH3 0x212 DUP2 PUSH1 0xB SLOAD AND CALLER EQ PUSH3 0x36DB JUMP JUMPDEST DUP2 ISZERO PUSH3 0x433 JUMPI DUP1 PUSH1 0x3 SLOAD AND SWAP2 PUSH1 0x40 MLOAD PUSH4 0x70A08231 PUSH1 0xE0 SHL DUP2 MSTORE CALLER PUSH1 0x4 DUP3 ADD MSTORE DUP5 DUP2 PUSH1 0x24 DUP2 DUP8 GAS STATICCALL DUP1 ISZERO PUSH3 0x428 JUMPI DUP3 SWAP2 DUP8 SWAP2 PUSH3 0x3EC JUMPI JUMPDEST POP LT PUSH3 0x3A8 JUMPI PUSH1 0x40 MLOAD PUSH4 0x95EA7B3 PUSH1 0xE0 SHL DUP2 MSTORE ADDRESS PUSH1 0x4 DUP3 ADD MSTORE PUSH1 0x24 DUP2 ADD DUP3 SWAP1 MSTORE DUP6 SWAP4 SWAP1 SWAP3 SWAP2 SWAP1 DUP6 SWAP1 DUP5 SWAP1 PUSH1 0x44 SWAP1 DUP3 SWAP1 DUP9 SWAP1 GAS CALL SWAP2 DUP3 ISZERO PUSH3 0x39D JUMPI PUSH3 0x2A1 PUSH3 0x2D9 SWAP4 DUP8 SWAP6 DUP8 SWAP2 PUSH3 0x37B JUMPI JUMPDEST POP PUSH3 0x3ACB JUMP JUMPDEST PUSH1 0x3 SLOAD PUSH1 0x40 MLOAD PUSH4 0x23B872DD PUSH1 0xE0 SHL DUP2 MSTORE CALLER PUSH1 0x4 DUP3 ADD MSTORE ADDRESS PUSH1 0x24 DUP3 ADD MSTORE PUSH1 0x44 DUP2 ADD SWAP4 SWAP1 SWAP4 MSTORE SWAP2 SWAP5 DUP6 SWAP4 SWAP2 SWAP1 SWAP3 AND SWAP2 DUP4 SWAP2 DUP3 SWAP1 PUSH1 0x64 DUP3 ADD SWAP1 JUMP JUMPDEST SUB SWAP3 GAS CALL SWAP1 DUP2 ISZERO PUSH3 0x370 JUMPI DUP4 SWAP2 PUSH3 0x33C JUMPI JUMPDEST POP ISZERO PUSH3 0x2F8 JUMPI POP DUP1 RETURN JUMPDEST PUSH1 0x64 SWAP1 PUSH1 0x40 MLOAD SWAP1 PUSH3 0x461BCD PUSH1 0xE5 SHL DUP3 MSTORE PUSH1 0x4 DUP3 ADD MSTORE PUSH1 0xF PUSH1 0x24 DUP3 ADD MSTORE PUSH32 0x5472616E73666572206661696C65640000000000000000000000000000000000 PUSH1 0x44 DUP3 ADD MSTORE REVERT JUMPDEST PUSH3 0x361 SWAP2 POP DUP3 RETURNDATASIZE DUP5 GT PUSH3 0x368 JUMPI JUMPDEST PUSH3 0x358 DUP2 DUP4 PUSH3 0x361C JUMP JUMPDEST DUP2 ADD SWAP1 PUSH3 0x3781 JUMP JUMPDEST CODESIZE PUSH3 0x2ED JUMP JUMPDEST POP RETURNDATASIZE PUSH3 0x34C JUMP JUMPDEST PUSH1 0x40 MLOAD RETURNDATASIZE DUP6 DUP3 RETURNDATACOPY RETURNDATASIZE SWAP1 REVERT JUMPDEST PUSH3 0x396 SWAP2 POP DUP7 RETURNDATASIZE DUP9 GT PUSH3 0x368 JUMPI PUSH3 0x358 DUP2 DUP4 PUSH3 0x361C JUMP JUMPDEST CODESIZE PUSH3 0x29A JUMP JUMPDEST PUSH1 0x40 MLOAD RETURNDATASIZE DUP7 DUP3 RETURNDATACOPY RETURNDATASIZE SWAP1 REVERT JUMPDEST PUSH1 0x64 DUP5 PUSH1 0x40 MLOAD SWAP1 PUSH3 0x461BCD PUSH1 0xE5 SHL DUP3 MSTORE PUSH1 0x4 DUP3 ADD MSTORE PUSH1 0x19 PUSH1 0x24 DUP3 ADD MSTORE PUSH32 0x496E73756666696369656E7420574554482062616C616E636500000000000000 PUSH1 0x44 DUP3 ADD MSTORE REVERT JUMPDEST DUP1 SWAP3 POP DUP7 DUP1 SWAP3 POP RETURNDATASIZE DUP4 GT PUSH3 0x420 JUMPI JUMPDEST PUSH3 0x408 DUP2 DUP4 PUSH3 0x361C JUMP JUMPDEST DUP2 ADD SUB SLT PUSH3 0x41B JUMPI DUP2 SWAP1 MLOAD CODESIZE PUSH3 0x24B JUMP JUMPDEST PUSH1 0x0 DUP1 REVERT JUMPDEST POP RETURNDATASIZE PUSH3 0x3FC JUMP JUMPDEST PUSH1 0x40 MLOAD RETURNDATASIZE DUP9 DUP3 RETURNDATACOPY RETURNDATASIZE SWAP1 REVERT JUMPDEST PUSH1 0x64 DUP4 PUSH1 0x40 MLOAD SWAP1 PUSH3 0x461BCD PUSH1 0xE5 SHL DUP3 MSTORE DUP1 PUSH1 0x4 DUP4 ADD MSTORE PUSH1 0x24 DUP3 ADD MSTORE PUSH32 0x416D6F756E74206D7573742062652067726561746572207468616E207A65726F PUSH1 0x44 DUP3 ADD MSTORE REVERT JUMPDEST POP DUP1 REVERT JUMPDEST DUP1 REVERT JUMPDEST POP PUSH1 0x40 CALLDATASIZE PUSH1 0x3 NOT ADD SLT PUSH3 0x47A JUMPI PUSH1 0x20 PUSH3 0x4A4 PUSH3 0x49B PUSH3 0x35D9 JUMP JUMPDEST PUSH1 0x4 CALLDATALOAD PUSH3 0x3B17 JUMP JUMPDEST PUSH1 0x40 MLOAD SWAP1 DUP2 MSTORE RETURN JUMPDEST POP CALLVALUE PUSH3 0x47A JUMPI DUP1 PUSH1 0x3 NOT CALLDATASIZE ADD SLT PUSH3 0x47A JUMPI PUSH1 0x20 PUSH1 0x1 PUSH1 0x1 PUSH1 0xA0 SHL SUB PUSH1 0x9 SLOAD AND PUSH1 0x40 MLOAD SWAP1 DUP2 MSTORE RETURN JUMPDEST POP CALLVALUE PUSH3 0x47A JUMPI PUSH3 0x4E7 CALLDATASIZE PUSH3 0x35F0 JUMP JUMPDEST DUP3 PUSH1 0x1 PUSH1 0x1 PUSH1 0xA0 SHL SUB SWAP2 PUSH3 0x502 DUP4 PUSH1 0xB SLOAD AND CALLER EQ PUSH3 0x36DB JUMP JUMPDEST DUP3 PUSH1 0xD SLOAD AND DUP1 EXTCODESIZE ISZERO PUSH3 0x7B6 JUMPI PUSH1 0x40 MLOAD PUSH4 0x318A4571 PUSH1 0xE2 SHL DUP2 MSTORE PUSH1 0x4 DUP2 ADD SWAP3 SWAP1 SWAP3 MSTORE ADDRESS PUSH1 0x24 DUP4 ADD MSTORE DUP3 SWAP1 DUP3 SWAP1 PUSH1 0x44 SWAP1 DUP3 SWAP1 DUP5 SWAP1 GAS CALL DUP1 ISZERO PUSH3 0x7BA JUMPI PUSH3 0x79E JUMPI JUMPDEST POP POP DUP1 PUSH1 0x5 SLOAD AND PUSH1 0x40 MLOAD DUP1 SWAP2 PUSH4 0x133F7571 PUSH1 0xE3 SHL DUP3 MSTORE DUP5 PUSH1 0x4 DUP4 ADD MSTORE DUP2 PUSH1 0x24 PUSH2 0x180 SWAP4 DUP5 SWAP4 GAS STATICCALL DUP1 ISZERO PUSH3 0x793 JUMPI DUP6 SWAP3 DUP7 SWAP3 DUP8 SWAP3 PUSH3 0x747 JUMPI JUMPDEST POP POP PUSH3 0x58C SWAP1 DUP6 PUSH3 0x3F18 JUMP JUMPDEST PUSH1 0x3 SLOAD SWAP1 SWAP4 DUP6 AND SWAP2 SWAP1 DUP6 AND DUP3 SUB PUSH3 0x6BE JUMPI POP POP PUSH1 0x40 MLOAD PUSH4 0x95EA7B3 PUSH1 0xE0 SHL DUP2 MSTORE ADDRESS PUSH1 0x4 DUP3 ADD MSTORE PUSH1 0x24 DUP2 ADD DUP4 SWAP1 MSTORE PUSH1 0x20 SWAP4 SWAP1 SWAP3 SWAP1 SWAP2 DUP3 AND DUP5 DUP5 PUSH1 0x44 DUP2 DUP11 DUP6 GAS CALL SWAP3 DUP4 ISZERO PUSH3 0x6B3 JUMPI PUSH3 0x5ED DUP7 SWAP5 PUSH3 0x62D SWAP7 DUP11 SWAP2 PUSH3 0x37B JUMPI POP PUSH3 0x3ACB JUMP JUMPDEST PUSH1 0x4 SLOAD AND DUP8 PUSH1 0x40 MLOAD DUP1 SWAP7 DUP2 SWAP6 DUP3 SWAP5 PUSH4 0x23B872DD PUSH1 0xE0 SHL DUP5 MSTORE ADDRESS PUSH1 0x4 DUP6 ADD PUSH1 0x40 SWAP2 SWAP5 SWAP4 SWAP3 SWAP5 PUSH1 0x60 DUP3 ADD SWAP6 PUSH1 0x1 PUSH1 0x1 PUSH1 0xA0 SHL SUB DUP1 SWAP3 AND DUP4 MSTORE AND PUSH1 0x20 DUP3 ADD MSTORE ADD MSTORE JUMP JUMPDEST SUB SWAP3 GAS CALL DUP1 ISZERO PUSH3 0x39D JUMPI PUSH3 0x690 JUMPI JUMPDEST POP POP JUMPDEST DUP2 MSTORE PUSH1 0x19 PUSH1 0x20 MSTORE PUSH1 0x40 DUP2 KECCAK256 SLOAD PUSH1 0x1 SLOAD DUP1 ISZERO PUSH3 0x67C JUMPI PUSH1 0x0 NOT ADD PUSH1 0x1 SSTORE PUSH1 0xC SWAP1 PUSH3 0x66C SWAP1 PUSH3 0x3570 JUMP JUMPDEST POP ADD DUP1 SLOAD PUSH1 0xFF NOT AND PUSH1 0x1 OR SWAP1 SSTORE DUP1 RETURN JUMPDEST PUSH1 0x24 DUP4 PUSH4 0x4E487B71 PUSH1 0xE0 SHL DUP2 MSTORE PUSH1 0x11 PUSH1 0x4 MSTORE REVERT JUMPDEST DUP2 PUSH3 0x6AA SWAP3 SWAP1 RETURNDATASIZE LT PUSH3 0x368 JUMPI PUSH3 0x358 DUP2 DUP4 PUSH3 0x361C JUMP JUMPDEST POP CODESIZE DUP1 PUSH3 0x63E JUMP JUMPDEST PUSH1 0x40 MLOAD RETURNDATASIZE DUP10 DUP3 RETURNDATACOPY RETURNDATASIZE SWAP1 REVERT JUMPDEST PUSH1 0x40 MLOAD PUSH4 0x95EA7B3 PUSH1 0xE0 SHL DUP2 MSTORE ADDRESS PUSH1 0x4 DUP3 ADD MSTORE PUSH1 0x24 DUP2 ADD DUP3 SWAP1 MSTORE PUSH1 0x20 SWAP6 SWAP1 SWAP5 POP SWAP3 POP SWAP1 DUP5 DUP5 PUSH1 0x44 DUP2 DUP11 DUP6 GAS CALL SWAP3 DUP4 ISZERO PUSH3 0x6B3 JUMPI PUSH3 0x5ED DUP7 SWAP5 PUSH3 0x70B SWAP7 DUP11 SWAP2 PUSH3 0x37B JUMPI POP PUSH3 0x3ACB JUMP JUMPDEST SUB SWAP3 GAS CALL DUP1 ISZERO PUSH3 0x39D JUMPI PUSH3 0x724 JUMPI JUMPDEST POP POP PUSH3 0x641 JUMP JUMPDEST DUP2 PUSH3 0x73E SWAP3 SWAP1 RETURNDATASIZE LT PUSH3 0x368 JUMPI PUSH3 0x358 DUP2 DUP4 PUSH3 0x361C JUMP JUMPDEST POP CODESIZE DUP1 PUSH3 0x71C JUMP JUMPDEST PUSH3 0x58C SWAP5 POP PUSH3 0x775 SWAP4 POP DUP1 SWAP2 SWAP3 POP SWAP1 RETURNDATASIZE LT PUSH3 0x78B JUMPI JUMPDEST PUSH3 0x76C DUP2 DUP4 PUSH3 0x361C JUMP JUMPDEST DUP2 ADD SWAP1 PUSH3 0x38D4 JUMP JUMPDEST POP POP POP POP SWAP7 POP POP POP POP SWAP4 SWAP2 POP SWAP3 SWAP2 SWAP1 CODESIZE PUSH3 0x57E JUMP JUMPDEST POP RETURNDATASIZE PUSH3 0x760 JUMP JUMPDEST PUSH1 0x40 MLOAD RETURNDATASIZE DUP8 DUP3 RETURNDATACOPY RETURNDATASIZE SWAP1 REVERT JUMPDEST PUSH3 0x7A9 SWAP1 PUSH3 0x3607 JUMP JUMPDEST PUSH3 0x7B6 JUMPI DUP3 CODESIZE PUSH3 0x544 JUMP JUMPDEST DUP3 DUP1 REVERT JUMPDEST PUSH1 0x40 MLOAD RETURNDATASIZE DUP5 DUP3 RETURNDATACOPY RETURNDATASIZE SWAP1 REVERT JUMPDEST POP CALLVALUE PUSH3 0x47A JUMPI DUP1 PUSH1 0x3 NOT CALLDATASIZE ADD SLT PUSH3 0x47A JUMPI PUSH1 0x20 PUSH1 0x17 SLOAD PUSH1 0x40 MLOAD SWAP1 DUP2 MSTORE RETURN JUMPDEST POP CALLVALUE PUSH3 0x47A JUMPI PUSH1 0x60 CALLDATASIZE PUSH1 0x3 NOT ADD SLT PUSH3 0x47A JUMPI PUSH1 0x20 PUSH3 0x4A4 PUSH3 0x809 PUSH3 0x35C2 JUMP JUMPDEST PUSH3 0x813 PUSH3 0x35D9 JUMP JUMPDEST PUSH1 0x44 CALLDATALOAD SWAP2 PUSH3 0x3997 JUMP JUMPDEST POP CALLVALUE PUSH3 0x47A JUMPI PUSH3 0x82F CALLDATASIZE PUSH3 0x35F0 JUMP JUMPDEST PUSH1 0x1 PUSH1 0x1 PUSH1 0xA0 SHL SUB DUP1 PUSH1 0xB SLOAD AND CALLER EQ DUP1 ISZERO PUSH3 0xE49 JUMPI JUMPDEST DUP1 ISZERO PUSH3 0xE3B JUMPI JUMPDEST PUSH3 0x859 SWAP1 PUSH3 0x3735 JUMP JUMPDEST DUP4 DUP2 PUSH1 0xD SLOAD AND DUP1 EXTCODESIZE ISZERO PUSH3 0x476 JUMPI PUSH1 0x40 MLOAD PUSH4 0x318A4571 PUSH1 0xE2 SHL DUP2 MSTORE PUSH1 0x4 DUP2 ADD DUP6 SWAP1 MSTORE ADDRESS PUSH1 0x24 DUP3 ADD MSTORE SWAP1 DUP3 SWAP1 DUP3 SWAP1 PUSH1 0x44 SWAP1 DUP3 SWAP1 DUP5 SWAP1 GAS CALL DUP1 ISZERO PUSH3 0x7BA JUMPI PUSH3 0xE23 JUMPI JUMPDEST POP POP PUSH3 0x8AD PUSH1 0x13 SLOAD SWAP3 DUP5 PUSH3 0x3ECF JUMP JUMPDEST DUP1 PUSH1 0x5 SLOAD AND PUSH1 0x40 MLOAD DUP1 SWAP2 PUSH4 0x133F7571 PUSH1 0xE3 SHL DUP3 MSTORE DUP6 PUSH1 0x4 DUP4 ADD MSTORE DUP2 PUSH1 0x24 PUSH2 0x180 SWAP5 DUP6 SWAP4 GAS STATICCALL DUP1 ISZERO PUSH3 0x428 JUMPI PUSH3 0x937 SWAP5 DUP8 SWAP4 DUP9 SWAP4 DUP10 SWAP2 DUP11 SWAP5 PUSH3 0xDED JUMPI JUMPDEST POP POP PUSH1 0x6 SLOAD PUSH1 0x40 MLOAD PUSH4 0xB4C7741 PUSH1 0xE1 SHL DUP2 MSTORE PUSH1 0x1 PUSH1 0x1 PUSH1 0xA0 SHL SUB DUP1 DUP9 AND PUSH1 0x4 DUP4 ADD MSTORE DUP7 AND PUSH1 0x24 DUP3 ADD MSTORE PUSH3 0xFFFFFF SWAP1 SWAP3 AND PUSH1 0x44 DUP4 ADD MSTORE PUSH1 0x20 SWAP8 DUP9 SWAP2 DUP4 SWAP2 SWAP1 DUP10 AND SWAP1 DUP3 SWAP1 DUP2 SWAP1 PUSH1 0x64 DUP3 ADD SWAP1 JUMP JUMPDEST SUB SWAP2 GAS STATICCALL SWAP1 DUP2 ISZERO PUSH3 0xDA1 JUMPI DUP10 SWAP2 PUSH3 0xDAC JUMPI JUMPDEST POP DUP7 DUP7 PUSH1 0x44 DUP2 PUSH1 0x9 SLOAD AND SWAP4 PUSH1 0x40 MLOAD SWAP5 DUP6 SWAP4 DUP5 SWAP3 PUSH32 0x8BE32A4100000000000000000000000000000000000000000000000000000000 DUP5 MSTORE AND PUSH1 0x4 DUP4 ADD MSTORE PUSH2 0x708 PUSH1 0x24 DUP4 ADD MSTORE GAS STATICCALL SWAP1 DUP2 ISZERO PUSH3 0xDA1 JUMPI DUP10 SWAP2 PUSH3 0xD6E JUMPI JUMPDEST POP PUSH8 0xDE0B6B3A7640000 SWAP1 DUP2 DUP4 MUL DUP4 ISZERO SWAP3 DUP5 DUP3 DIV EQ DUP4 OR ISZERO PUSH3 0xD2C JUMPI SWAP1 PUSH3 0x9CA SWAP2 PUSH3 0x37B2 JUMP JUMPDEST DUP1 DUP4 MUL SWAP3 DUP4 DIV EQ OR ISZERO PUSH3 0xD58 JUMPI DUP6 DUP9 PUSH1 0x3 DUP4 GT ISZERO PUSH3 0xD40 JUMPI POP POP DUP1 PUSH1 0x1 SWAP1 DUP1 PUSH1 0x1 SHR PUSH1 0x1 DUP2 ADD DUP1 SWAP2 GT PUSH3 0xD2C JUMPI SWAP2 DUP9 SWAP6 SWAP5 SWAP4 SWAP3 SWAP2 JUMPDEST DUP4 DUP4 LT PUSH3 0xCFD JUMPI POP POP POP SWAP1 PUSH3 0xA3C SWAP2 JUMPDEST PUSH16 0xFFFFFFFFFFFFFFFFFFFFFFFFFFFFFFFF SWAP1 DUP2 AND SWAP1 DUP3 AND DUP2 GT ISZERO PUSH3 0xCF5 JUMPI POP JUMPDEST DUP8 PUSH3 0x3F18 JUMP JUMPDEST SWAP2 SWAP1 DUP6 DUP1 PUSH1 0x3 SLOAD AND SWAP6 AND SWAP5 DUP7 DUP2 DUP8 EQ PUSH1 0x0 EQ PUSH3 0xC68 JUMPI PUSH1 0x4 DUP1 SLOAD PUSH1 0x40 MLOAD PUSH4 0xA9059CBB PUSH1 0xE0 SHL DUP2 MSTORE SWAP3 AND PUSH1 0x1 PUSH1 0x1 PUSH1 0xA0 SHL SUB AND SWAP1 DUP3 ADD MSTORE PUSH1 0x24 DUP2 ADD SWAP5 SWAP1 SWAP5 MSTORE POP SWAP2 SWAP4 POP DUP4 SWAP2 POP DUP2 DUP9 DUP7 DUP3 PUSH1 0x44 DUP2 ADD SUB SWAP4 AND GAS CALL DUP1 ISZERO PUSH3 0x793 JUMPI PUSH3 0xC46 JUMPI JUMPDEST POP JUMPDEST DUP1 PUSH1 0xD SLOAD AND DUP2 PUSH1 0xB SLOAD AND CALLER EQ DUP1 ISZERO PUSH3 0xC3C JUMPI JUMPDEST DUP1 ISZERO PUSH3 0xC2E JUMPI JUMPDEST PUSH3 0xAC5 SWAP1 PUSH3 0x3735 JUMP JUMPDEST DUP5 DUP3 PUSH1 0xE SLOAD AND DUP1 EXTCODESIZE ISZERO PUSH3 0x476 JUMPI PUSH1 0x40 MLOAD PUSH4 0x95EA7B3 PUSH1 0xE0 SHL DUP2 MSTORE PUSH1 0x1 PUSH1 0x1 PUSH1 0xA0 SHL SUB SWAP4 SWAP1 SWAP4 AND PUSH1 0x4 DUP5 ADD MSTORE PUSH1 0x24 DUP4 ADD DUP7 SWAP1 MSTORE DUP2 SWAP1 DUP4 SWAP1 PUSH1 0x44 SWAP1 DUP3 SWAP1 DUP5 SWAP1 GAS CALL SWAP2 DUP3 ISZERO PUSH3 0xC21 JUMPI DUP5 SWAP3 PUSH3 0xC02 JUMPI JUMPDEST POP POP PUSH1 0x16 SLOAD PUSH1 0xA SLOAD PUSH1 0x5 SLOAD PUSH1 0x40 MLOAD PUSH4 0xFE9A9F5 PUSH1 0xE3 SHL DUP2 MSTORE SWAP1 DUP6 AND PUSH1 0x1 PUSH1 0x1 PUSH1 0xA0 SHL SUB AND PUSH1 0x4 DUP3 ADD MSTORE PUSH1 0x24 DUP2 ADD DUP8 SWAP1 MSTORE PUSH1 0x44 DUP2 ADD SWAP3 SWAP1 SWAP3 MSTORE ADDRESS PUSH1 0x64 DUP4 ADD MSTORE SWAP1 SWAP3 DUP4 SWAP2 AND DUP2 DUP8 DUP2 PUSH1 0x84 DUP2 ADD SUB SWAP3 GAS CALL SWAP1 DUP2 ISZERO PUSH3 0x39D JUMPI DUP5 SWAP2 PUSH3 0xBCE JUMPI JUMPDEST POP PUSH3 0xBC8 SWAP1 PUSH1 0x19 PUSH1 0xB SWAP4 PUSH3 0xB8C PUSH1 0x16 SLOAD TIMESTAMP PUSH3 0x3727 JUMP JUMPDEST SWAP6 PUSH1 0x0 MSTORE MSTORE PUSH1 0x40 PUSH1 0x0 KECCAK256 SLOAD SWAP1 PUSH1 0x9 PUSH3 0xBA5 DUP4 PUSH3 0x3570 JUMP JUMPDEST POP ADD SSTORE PUSH1 0xA PUSH3 0xBB5 DUP3 PUSH3 0x3570 JUMP JUMPDEST POP ADD DUP1 SLOAD PUSH1 0xFF NOT AND PUSH1 0x1 OR SWAP1 SSTORE PUSH3 0x3570 JUMP JUMPDEST POP ADD SSTORE DUP1 RETURN JUMPDEST SWAP1 POP DUP2 DUP2 DUP2 RETURNDATASIZE DUP4 GT PUSH3 0xBFA JUMPI JUMPDEST PUSH3 0xBE8 DUP2 DUP4 PUSH3 0x361C JUMP JUMPDEST DUP2 ADD SUB SLT PUSH3 0x41B JUMPI MLOAD PUSH1 0xB PUSH3 0xB73 JUMP JUMPDEST POP RETURNDATASIZE PUSH3 0xBDC JUMP JUMPDEST PUSH3 0xC0F SWAP2 SWAP3 POP PUSH3 0x3607 JUMP JUMPDEST PUSH3 0xC1D JUMPI DUP2 DUP5 CODESIZE PUSH3 0xB15 JUMP JUMPDEST DUP4 DUP1 REVERT JUMPDEST POP PUSH1 0x40 MLOAD SWAP1 RETURNDATASIZE SWAP1 DUP3 RETURNDATACOPY RETURNDATASIZE SWAP1 REVERT JUMPDEST POP PUSH1 0xC SLOAD DUP3 AND CALLER EQ PUSH3 0xABA JUMP JUMPDEST POP ADDRESS CALLER EQ PUSH3 0xAB2 JUMP JUMPDEST PUSH3 0xC60 SWAP1 DUP4 RETURNDATASIZE DUP6 GT PUSH3 0x368 JUMPI PUSH3 0x358 DUP2 DUP4 PUSH3 0x361C JUMP JUMPDEST POP CODESIZE PUSH3 0xA9C JUMP JUMPDEST SWAP2 SWAP4 POP SWAP2 AND EQ PUSH3 0xC7D JUMPI JUMPDEST POP POP POP PUSH3 0xA9E JUMP JUMPDEST PUSH3 0xCBA SWAP3 DUP5 PUSH1 0x4 SLOAD AND DUP9 PUSH1 0x40 MLOAD DUP1 SWAP7 DUP2 SWAP6 DUP3 SWAP5 PUSH4 0xA9059CBB PUSH1 0xE0 SHL DUP5 MSTORE PUSH1 0x4 DUP5 ADD PUSH1 0x20 SWAP1 SWAP4 SWAP3 SWAP2 SWAP4 PUSH1 0x1 PUSH1 0x1 PUSH1 0xA0 SHL SUB PUSH1 0x40 DUP3 ADD SWAP6 AND DUP2 MSTORE ADD MSTORE JUMP JUMPDEST SUB SWAP3 GAS CALL DUP1 ISZERO PUSH3 0x793 JUMPI PUSH3 0xCD3 JUMPI JUMPDEST DUP3 DUP2 PUSH3 0xC74 JUMP JUMPDEST PUSH3 0xCED SWAP1 DUP4 RETURNDATASIZE DUP6 GT PUSH3 0x368 JUMPI PUSH3 0x358 DUP2 DUP4 PUSH3 0x361C JUMP JUMPDEST POP CODESIZE PUSH3 0xCCB JUMP JUMPDEST SWAP1 POP PUSH3 0xA35 JUMP JUMPDEST SWAP2 DUP1 SWAP5 SWAP6 SWAP7 POP PUSH3 0xD1D SWAP2 SWAP4 POP SWAP4 PUSH3 0xD17 DUP2 DUP5 PUSH3 0x37B2 JUMP JUMPDEST PUSH3 0x3727 JUMP JUMPDEST DUP3 SHR SWAP1 SWAP2 DUP9 SWAP6 SWAP5 SWAP4 SWAP3 PUSH3 0xA02 JUMP JUMPDEST PUSH1 0x24 DUP12 PUSH4 0x4E487B71 PUSH1 0xE0 SHL DUP2 MSTORE PUSH1 0x11 PUSH1 0x4 MSTORE REVERT JUMPDEST PUSH3 0xA3C SWAP3 SWAP5 SWAP4 SWAP2 SWAP5 ISZERO PUSH3 0xA14 JUMPI POP PUSH1 0x1 PUSH3 0xA14 JUMP JUMPDEST PUSH4 0x4E487B71 PUSH1 0xE0 SHL PUSH1 0x0 MSTORE PUSH1 0x11 PUSH1 0x4 MSTORE PUSH1 0x24 PUSH1 0x0 REVERT JUMPDEST SWAP1 POP DUP7 DUP2 DUP2 RETURNDATASIZE DUP4 GT PUSH3 0xD99 JUMPI JUMPDEST PUSH3 0xD88 DUP2 DUP4 PUSH3 0x361C JUMP JUMPDEST DUP2 ADD SUB SLT PUSH3 0x41B JUMPI MLOAD CODESIZE PUSH3 0x9A1 JUMP JUMPDEST POP RETURNDATASIZE PUSH3 0xD7C JUMP JUMPDEST PUSH1 0x40 MLOAD RETURNDATASIZE DUP12 DUP3 RETURNDATACOPY RETURNDATASIZE SWAP1 REVERT JUMPDEST SWAP1 POP DUP7 DUP2 DUP2 RETURNDATASIZE DUP4 GT PUSH3 0xDE5 JUMPI JUMPDEST PUSH3 0xDC6 DUP2 DUP4 PUSH3 0x361C JUMP JUMPDEST DUP2 ADD SUB SLT PUSH3 0xDE1 JUMPI PUSH3 0xDDA SWAP1 PUSH3 0x36C6 JUMP JUMPDEST CODESIZE PUSH3 0x94B JUMP JUMPDEST DUP9 DUP1 REVERT JUMPDEST POP RETURNDATASIZE PUSH3 0xDBA JUMP JUMPDEST SWAP3 SWAP6 POP SWAP3 POP POP PUSH3 0xE0D SWAP3 POP DUP1 RETURNDATASIZE LT PUSH3 0x78B JUMPI PUSH3 0x76C DUP2 DUP4 PUSH3 0x361C JUMP JUMPDEST POP POP POP POP SWAP6 POP POP POP SWAP4 POP SWAP4 SWAP1 SWAP4 SWAP3 CODESIZE DUP1 PUSH3 0x8EC JUMP JUMPDEST PUSH3 0xE2E SWAP1 PUSH3 0x3607 JUMP JUMPDEST PUSH3 0xC1D JUMPI DUP4 CODESIZE PUSH3 0x89C JUMP JUMPDEST POP PUSH1 0xC SLOAD DUP2 AND CALLER EQ PUSH3 0x84E JUMP JUMPDEST POP ADDRESS CALLER EQ PUSH3 0x846 JUMP JUMPDEST POP CALLVALUE PUSH3 0x47A JUMPI DUP1 PUSH1 0x3 NOT CALLDATASIZE ADD SLT PUSH3 0x47A JUMPI PUSH1 0x20 PUSH1 0x16 SLOAD PUSH1 0x40 MLOAD SWAP1 DUP2 MSTORE RETURN JUMPDEST POP CALLVALUE PUSH3 0x47A JUMPI DUP1 PUSH1 0x3 NOT CALLDATASIZE ADD SLT PUSH3 0x47A JUMPI PUSH1 0x20 PUSH1 0x1 PUSH1 0x1 PUSH1 0xA0 SHL SUB PUSH1 0xA SLOAD AND PUSH1 0x40 MLOAD SWAP1 DUP2 MSTORE RETURN JUMPDEST POP CALLVALUE PUSH3 0x47A JUMPI DUP1 PUSH1 0x3 NOT CALLDATASIZE ADD SLT PUSH3 0x47A JUMPI PUSH1 0x20 PUSH1 0x1 PUSH1 0x1 PUSH1 0xA0 SHL SUB PUSH1 0xC SLOAD AND PUSH1 0x40 MLOAD SWAP1 DUP2 MSTORE RETURN JUMPDEST POP CALLVALUE PUSH3 0x47A JUMPI PUSH1 0x60 CALLDATASIZE PUSH1 0x3 NOT ADD SLT PUSH3 0x47A JUMPI PUSH1 0x4 CALLDATALOAD PUSH1 0x24 CALLDATALOAD SWAP1 PUSH1 0x44 CALLDATALOAD SWAP1 PUSH16 0xFFFFFFFFFFFFFFFFFFFFFFFFFFFFFFFF SWAP1 DUP2 DUP4 AND DUP1 SWAP4 SUB PUSH3 0x115D JUMPI PUSH1 0x2 SWAP2 DUP2 DUP7 MSTORE PUSH1 0x20 SWAP5 PUSH1 0x19 DUP7 MSTORE PUSH3 0xF1D PUSH1 0x40 DUP9 KECCAK256 SLOAD PUSH3 0x3570 JUMP JUMPDEST POP PUSH1 0x1 PUSH1 0x1 PUSH1 0xA0 SHL SUB SWAP5 DUP6 SWAP2 ADD SLOAD AND CALLER SUB PUSH3 0x1119 JUMPI DUP7 DUP5 PUSH1 0xD SLOAD AND DUP1 EXTCODESIZE ISZERO PUSH3 0x476 JUMPI PUSH1 0x40 MLOAD PUSH4 0x318A4571 PUSH1 0xE2 SHL DUP2 MSTORE PUSH1 0x4 DUP2 ADD DUP5 SWAP1 MSTORE ADDRESS PUSH1 0x24 DUP3 ADD MSTORE SWAP1 DUP3 SWAP1 DUP3 SWAP1 PUSH1 0x44 SWAP1 DUP3 SWAP1 DUP5 SWAP1 GAS CALL DUP1 ISZERO PUSH3 0x7BA JUMPI PUSH3 0x10FD JUMPI JUMPDEST POP POP PUSH3 0xF84 SWAP1 DUP4 PUSH3 0x3ECF JUMP JUMPDEST DUP3 PUSH1 0x5 SLOAD AND SWAP2 PUSH1 0x40 MLOAD SWAP5 DUP6 SWAP4 PUSH4 0x133F7571 PUSH1 0xE3 SHL DUP6 MSTORE DUP3 PUSH1 0x4 DUP7 ADD MSTORE DUP5 PUSH1 0x24 PUSH2 0x180 SWAP7 DUP8 SWAP4 GAS STATICCALL DUP1 ISZERO PUSH3 0x10F2 JUMPI DUP9 SWAP7 DUP10 SWAP6 DUP11 SWAP3 PUSH3 0x10B9 JUMPI JUMPDEST POP POP DUP4 AND MUL SWAP2 DUP3 AND SWAP2 DUP3 SUB PUSH3 0x10A5 JUMPI SWAP1 PUSH3 0xFDA SWAP2 PUSH3 0x3F18 JUMP JUMPDEST PUSH1 0x40 MLOAD PUSH4 0xA9059CBB PUSH1 0xE0 SHL DUP1 DUP3 MSTORE CALLER PUSH1 0x4 DUP4 ADD MSTORE PUSH1 0x24 DUP3 ADD SWAP4 SWAP1 SWAP4 MSTORE SWAP5 SWAP1 SWAP3 SWAP2 SWAP1 DUP8 SWAP1 DUP8 SWAP1 DUP8 SWAP1 PUSH1 0x44 SWAP1 DUP3 SWAP1 DUP6 SWAP1 DUP11 AND GAS CALL SWAP5 DUP6 ISZERO PUSH3 0xC21 JUMPI PUSH3 0x104D SWAP7 DUP9 SWAP7 PUSH3 0x1083 JUMPI JUMPDEST POP PUSH1 0x40 MLOAD DUP1 SWAP8 DUP2 SWAP7 DUP3 SWAP6 DUP4 MSTORE CALLER PUSH1 0x4 DUP5 ADD PUSH1 0x20 SWAP1 SWAP4 SWAP3 SWAP2 SWAP4 PUSH1 0x1 PUSH1 0x1 PUSH1 0xA0 SHL SUB PUSH1 0x40 DUP3 ADD SWAP6 AND DUP2 MSTORE ADD MSTORE JUMP JUMPDEST SUB SWAP4 AND GAS CALL DUP1 ISZERO PUSH3 0x370 JUMPI PUSH3 0x1062 JUMPI DUP3 DUP1 RETURN JUMPDEST DUP2 PUSH3 0x107C SWAP3 SWAP1 RETURNDATASIZE LT PUSH3 0x368 JUMPI PUSH3 0x358 DUP2 DUP4 PUSH3 0x361C JUMP JUMPDEST POP CODESIZE DUP1 DUP3 DUP1 RETURN JUMPDEST PUSH3 0x109D SWAP1 DUP8 RETURNDATASIZE DUP10 GT PUSH3 0x368 JUMPI PUSH3 0x358 DUP2 DUP4 PUSH3 0x361C JUMP JUMPDEST POP CODESIZE PUSH3 0x1021 JUMP JUMPDEST PUSH1 0x24 DUP8 PUSH4 0x4E487B71 PUSH1 0xE0 SHL DUP2 MSTORE PUSH1 0x11 PUSH1 0x4 MSTORE REVERT JUMPDEST DUP6 SWAP9 POP PUSH3 0x10DB SWAP4 SWAP7 POP DUP1 SWAP2 SWAP3 POP SWAP1 RETURNDATASIZE LT PUSH3 0x78B JUMPI PUSH3 0x76C DUP2 DUP4 PUSH3 0x361C JUMP JUMPDEST POP POP POP POP SWAP10 SWAP7 POP POP POP POP SWAP8 SWAP2 POP SWAP7 SWAP5 SWAP1 CODESIZE PUSH3 0xFBE JUMP JUMPDEST PUSH1 0x40 MLOAD RETURNDATASIZE DUP11 DUP3 RETURNDATACOPY RETURNDATASIZE SWAP1 REVERT JUMPDEST PUSH3 0x1108 SWAP1 PUSH3 0x3607 JUMP JUMPDEST PUSH3 0x1115 JUMPI DUP7 CODESIZE PUSH3 0xF76 JUMP JUMPDEST DUP7 DUP1 REVERT JUMPDEST PUSH1 0x64 DUP7 PUSH1 0x40 MLOAD SWAP1 PUSH3 0x461BCD PUSH1 0xE5 SHL DUP3 MSTORE PUSH1 0x4 DUP3 ADD MSTORE PUSH1 0x1F PUSH1 0x24 DUP3 ADD MSTORE PUSH32 0x43616C6C6572206973206E6F742074686520746F6B656E2063726561746F7200 PUSH1 0x44 DUP3 ADD MSTORE REVERT JUMPDEST DUP5 DUP1 REVERT JUMPDEST POP PUSH1 0x60 CALLDATASIZE PUSH1 0x3 NOT ADD SLT PUSH3 0x47A JUMPI PUSH3 0x1179 PUSH3 0x35C2 JUMP JUMPDEST SWAP1 PUSH1 0x44 CALLDATALOAD SWAP2 DUP3 ISZERO SWAP3 DUP4 ISZERO SUB PUSH3 0x476 JUMPI PUSH1 0x14 SLOAD CALLVALUE LT PUSH3 0x19AF JUMPI PUSH1 0x13 SLOAD PUSH1 0x40 MLOAD SWAP1 PUSH4 0x70A08231 PUSH1 0xE0 SHL DUP1 DUP4 MSTORE ADDRESS PUSH1 0x4 DUP5 ADD MSTORE PUSH1 0x20 DUP4 PUSH1 0x24 DUP2 PUSH1 0x1 PUSH1 0x1 PUSH1 0xA0 SHL SUB DUP9 AND GAS STATICCALL SWAP3 DUP4 ISZERO PUSH3 0x793 JUMPI DUP7 SWAP1 DUP7 SWAP5 PUSH3 0x1973 JUMPI JUMPDEST POP PUSH3 0x18A1 JUMPI JUMPDEST POP PUSH1 0x1 DUP6 ISZERO EQ PUSH3 0x17D2 JUMPI JUMPDEST DUP4 PUSH1 0x1 PUSH1 0x1 PUSH1 0xA0 SHL SUB PUSH1 0x3 SLOAD AND SWAP2 DUP3 PUSH1 0x1 PUSH1 0x1 PUSH1 0xA0 SHL SUB DUP7 AND LT PUSH1 0x0 EQ PUSH3 0x17B8 JUMPI PUSH1 0x40 SWAP3 PUSH1 0x1 PUSH1 0x1 PUSH1 0xA0 SHL SUB SWAP3 PUSH1 0x84 SWAP3 DUP8 SWAP3 SWAP7 SWAP1 JUMPDEST DUP6 PUSH1 0x9 SLOAD AND SWAP2 DUP7 DUP9 MLOAD SWAP10 DUP11 SWAP9 DUP10 SWAP8 PUSH32 0x69F684EA00000000000000000000000000000000000000000000000000000000 DUP10 MSTORE AND PUSH1 0x4 DUP9 ADD MSTORE AND PUSH1 0x24 DUP7 ADD MSTORE PUSH1 0x44 DUP6 ADD MSTORE PUSH1 0x64 DUP5 ADD MSTORE GAS CALL SWAP4 DUP5 ISZERO PUSH3 0x370 JUMPI DUP4 SWAP2 DUP5 SWAP6 PUSH3 0x176E JUMPI JUMPDEST POP PUSH1 0x1 PUSH1 0x1 PUSH1 0xA0 SHL SUB PUSH1 0x5 SLOAD AND PUSH1 0x1 PUSH1 0x1 PUSH1 0xA0 SHL SUB PUSH1 0xD SLOAD AND DUP2 EXTCODESIZE ISZERO PUSH3 0x176A JUMPI PUSH1 0x40 MLOAD PUSH4 0x95EA7B3 PUSH1 0xE0 SHL DUP2 MSTORE PUSH1 0x1 PUSH1 0x1 PUSH1 0xA0 SHL SUB SWAP2 SWAP1 SWAP2 AND PUSH1 0x4 DUP3 ADD MSTORE PUSH1 0x24 DUP2 ADD DUP8 SWAP1 MSTORE SWAP1 DUP6 SWAP1 DUP3 SWAP1 PUSH1 0x44 SWAP1 DUP3 SWAP1 DUP5 SWAP1 GAS CALL DUP1 ISZERO PUSH3 0x793 JUMPI SWAP1 DUP6 SWAP2 PUSH3 0x1752 JUMPI JUMPDEST POP POP PUSH1 0x15 SLOAD PUSH1 0xD SLOAD PUSH1 0x5 SLOAD PUSH1 0x40 MLOAD PUSH4 0xFE9A9F5 PUSH1 0xE3 SHL DUP2 MSTORE PUSH1 0x1 PUSH1 0x1 PUSH1 0xA0 SHL SUB SWAP2 DUP3 AND PUSH1 0x4 DUP3 ADD MSTORE PUSH1 0x24 DUP2 ADD DUP10 SWAP1 MSTORE PUSH1 0x44 DUP2 ADD SWAP4 SWAP1 SWAP4 MSTORE ADDRESS PUSH1 0x64 DUP5 ADD MSTORE PUSH1 0x20 SWAP2 DUP4 SWAP2 PUSH1 0x84 SWAP2 DUP4 SWAP2 DUP11 SWAP2 AND GAS CALL SWAP1 DUP2 ISZERO PUSH3 0x793 JUMPI DUP6 SWAP2 PUSH3 0x171A JUMPI JUMPDEST POP PUSH3 0x1342 PUSH1 0x15 SLOAD TIMESTAMP PUSH3 0x3727 JUMP JUMPDEST SWAP1 PUSH1 0x40 MLOAD SWAP4 DUP5 PUSH2 0x1E0 DUP2 ADD LT PUSH8 0xFFFFFFFFFFFFFFFF PUSH2 0x1E0 DUP8 ADD GT OR PUSH3 0x1704 JUMPI PUSH1 0x1 PUSH1 0x1 PUSH1 0xA0 SHL SUB SWAP1 PUSH2 0x1E0 DUP7 ADD PUSH1 0x40 MSTORE DUP2 DUP8 AND DUP7 MSTORE AND PUSH1 0x20 DUP6 ADD MSTORE CALLER PUSH1 0x40 DUP6 ADD MSTORE TIMESTAMP PUSH1 0x60 DUP6 ADD MSTORE DUP7 PUSH1 0x80 DUP6 ADD MSTORE DUP6 PUSH1 0xA0 DUP6 ADD MSTORE DUP6 PUSH1 0xC0 DUP6 ADD MSTORE DUP6 PUSH1 0xE0 DUP6 ADD MSTORE DUP6 PUSH2 0x100 DUP6 ADD MSTORE PUSH2 0x120 DUP5 ADD MSTORE PUSH1 0x1 PUSH2 0x140 DUP5 ADD MSTORE PUSH2 0x160 DUP4 ADD MSTORE DUP4 PUSH2 0x180 DUP4 ADD MSTORE PUSH1 0x1 PUSH2 0x1A0 DUP4 ADD MSTORE ISZERO PUSH2 0x1C0 DUP3 ADD MSTORE PUSH1 0x18 SLOAD PUSH9 0x10000000000000000 DUP2 LT ISZERO PUSH3 0x16F0 JUMPI DUP1 PUSH1 0x1 PUSH3 0x13FB SWAP3 ADD PUSH1 0x18 SSTORE PUSH3 0x3570 JUMP JUMPDEST PUSH3 0x16DD JUMPI PUSH1 0xC SWAP1 PUSH1 0x1 PUSH1 0x1 PUSH1 0xA0 SHL SUB DUP4 MLOAD AND PUSH20 0xFFFFFFFFFFFFFFFFFFFFFFFFFFFFFFFFFFFFFFFF NOT SWAP1 DUP2 DUP4 SLOAD AND OR DUP3 SSTORE PUSH1 0x1 DUP3 ADD PUSH1 0x1 PUSH1 0x1 PUSH1 0xA0 SHL SUB PUSH1 0x20 DUP7 ADD MLOAD AND DUP3 DUP3 SLOAD AND OR SWAP1 SSTORE PUSH1 0x2 DUP3 ADD SWAP1 PUSH1 0x1 PUSH1 0x1 PUSH1 0xA0 SHL SUB PUSH1 0x40 DUP7 ADD MLOAD AND SWAP1 DUP3 SLOAD AND OR SWAP1 SSTORE PUSH1 0x60 DUP4 ADD MLOAD PUSH1 0x3 DUP3 ADD SSTORE PUSH1 0x80 DUP4 ADD MLOAD PUSH1 0x4 DUP3 ADD SSTORE PUSH3 0x1493 PUSH1 0xA0 DUP5 ADD MLOAD ISZERO ISZERO PUSH1 0x5 DUP4 ADD SWAP1 PUSH1 0xFF DUP1 NOT DUP4 SLOAD AND SWAP2 ISZERO ISZERO AND OR SWAP1 SSTORE JUMP JUMPDEST PUSH1 0xC0 DUP4 ADD MLOAD PUSH1 0x6 DUP3 ADD SSTORE PUSH3 0x14BD PUSH1 0xE0 DUP5 ADD MLOAD ISZERO ISZERO PUSH1 0x7 DUP4 ADD SWAP1 PUSH1 0xFF DUP1 NOT DUP4 SLOAD AND SWAP2 ISZERO ISZERO AND OR SWAP1 SSTORE JUMP JUMPDEST PUSH2 0x100 DUP4 ADD MLOAD PUSH1 0x8 DUP3 ADD SSTORE PUSH2 0x120 DUP4 ADD MLOAD PUSH1 0x9 DUP3 ADD SSTORE PUSH3 0x14F4 PUSH2 0x140 DUP5 ADD MLOAD ISZERO ISZERO PUSH1 0xA DUP4 ADD SWAP1 PUSH1 0xFF DUP1 NOT DUP4 SLOAD AND SWAP2 ISZERO ISZERO AND OR SWAP1 SSTORE JUMP JUMPDEST PUSH2 0x160 DUP4 ADD MLOAD PUSH1 0xB DUP3 ADD SSTORE ADD SWAP1 PUSH3 0x151F PUSH2 0x180 DUP3 ADD MLOAD ISZERO ISZERO DUP4 SWAP1 PUSH1 0xFF DUP1 NOT DUP4 SLOAD AND SWAP2 ISZERO ISZERO AND OR SWAP1 SSTORE JUMP JUMPDEST PUSH2 0x1A0 DUP2 ADD MLOAD ISZERO ISZERO SWAP1 PUSH2 0xFF00 PUSH3 0xFF0000 PUSH2 0x1C0 DUP6 SLOAD SWAP4 ADD MLOAD ISZERO ISZERO PUSH1 0x10 SHL AND SWAP3 PUSH1 0x8 SHL AND SWAP1 PUSH3 0xFFFF00 NOT AND OR OR SWAP1 SSTORE PUSH1 0x18 SLOAD PUSH1 0x0 NOT DUP2 ADD SWAP1 DUP2 GT PUSH3 0x67C JUMPI DUP4 DUP4 MSTORE PUSH1 0x19 PUSH1 0x20 MSTORE PUSH1 0x40 DUP4 KECCAK256 SSTORE PUSH3 0x1576 DUP3 SLOAD PUSH3 0x3897 JUMP JUMPDEST DUP3 SSTORE PUSH3 0x1585 PUSH1 0x1 SLOAD PUSH3 0x3897 JUMP JUMPDEST PUSH1 0x1 SSTORE DUP3 DUP3 MSTORE PUSH1 0x19 PUSH1 0x20 MSTORE PUSH1 0x1 PUSH1 0x1 PUSH1 0xA0 SHL SUB PUSH1 0x1 PUSH3 0x15A9 PUSH1 0x40 DUP6 KECCAK256 SLOAD PUSH3 0x3570 JUMP JUMPDEST POP ADD SLOAD AND PUSH1 0x1 PUSH1 0x1 PUSH1 0xA0 SHL SUB DUP3 AND EXTCODESIZE ISZERO PUSH3 0x7B6 JUMPI PUSH1 0x40 MLOAD SWAP1 PUSH32 0x5EDFD7CE00000000000000000000000000000000000000000000000000000000 DUP3 MSTORE PUSH1 0x4 DUP3 ADD MSTORE DUP3 DUP2 PUSH1 0x24 DUP2 DUP4 PUSH1 0x1 PUSH1 0x1 PUSH1 0xA0 SHL SUB DUP8 AND GAS CALL DUP1 ISZERO PUSH3 0x370 JUMPI SWAP1 DUP4 SWAP2 PUSH3 0x16C5 JUMPI JUMPDEST POP POP PUSH1 0x24 CALLDATALOAD ISZERO SWAP1 DUP2 ISZERO PUSH3 0x1626 JUMPI JUMPDEST PUSH1 0x20 DUP5 PUSH1 0x40 MLOAD SWAP1 DUP2 MSTORE RETURN JUMPDEST PUSH1 0x3 PUSH1 0x24 CALLDATALOAD MUL PUSH1 0x24 CALLDATALOAD DUP2 DIV PUSH1 0x3 EQ DUP4 OR ISZERO PUSH3 0x16B1 JUMPI PUSH1 0x64 SWAP1 DIV DUP4 DUP1 DUP1 DUP1 PUSH3 0x1652 DUP6 PUSH1 0x24 CALLDATALOAD PUSH3 0x3889 JUMP JUMPDEST SWAP5 PUSH1 0x1 PUSH1 0x1 PUSH1 0xA0 SHL SUB PUSH1 0x10 SLOAD AND DUP3 DUP3 ISZERO PUSH3 0x16A7 JUMPI JUMPDEST CALL ISZERO PUSH3 0x370 JUMPI SWAP1 PUSH3 0x167B SWAP2 PUSH3 0x3B17 JUMP JUMPDEST POP PUSH1 0x1 PUSH1 0x24 CALLDATALOAD DUP1 DIV EQ OR ISZERO PUSH3 0x1693 JUMPI DUP1 DUP1 PUSH3 0x161B JUMP JUMPDEST DUP1 PUSH4 0x4E487B71 PUSH1 0xE0 SHL PUSH1 0x24 SWAP3 MSTORE PUSH1 0x11 PUSH1 0x4 MSTORE REVERT JUMPDEST POP PUSH2 0x8FC PUSH3 0x1668 JUMP JUMPDEST PUSH1 0x24 DUP5 PUSH4 0x4E487B71 PUSH1 0xE0 SHL DUP2 MSTORE PUSH1 0x11 PUSH1 0x4 MSTORE REVERT JUMPDEST PUSH3 0x16D0 SWAP1 PUSH3 0x3607 JUMP JUMPDEST PUSH3 0x476 JUMPI DUP2 CODESIZE PUSH3 0x160C JUMP JUMPDEST PUSH1 0x24 DUP5 PUSH4 0x4E487B71 PUSH1 0xE0 SHL DUP2 MSTORE DUP1 PUSH1 0x4 MSTORE REVERT JUMPDEST PUSH1 0x24 DUP5 PUSH4 0x4E487B71 PUSH1 0xE0 SHL DUP2 MSTORE PUSH1 0x41 PUSH1 0x4 MSTORE REVERT JUMPDEST PUSH4 0x4E487B71 PUSH1 0xE0 SHL PUSH1 0x0 MSTORE PUSH1 0x41 PUSH1 0x4 MSTORE PUSH1 0x24 PUSH1 0x0 REVERT JUMPDEST SWAP1 POP PUSH1 0x20 DUP2 RETURNDATASIZE PUSH1 0x20 GT PUSH3 0x1749 JUMPI JUMPDEST DUP2 PUSH3 0x1738 PUSH1 0x20 SWAP4 DUP4 PUSH3 0x361C JUMP JUMPDEST DUP2 ADD SUB SLT PUSH3 0x41B JUMPI MLOAD CODESIZE PUSH3 0x1333 JUMP JUMPDEST RETURNDATASIZE SWAP2 POP PUSH3 0x1729 JUMP JUMPDEST PUSH3 0x175D SWAP1 PUSH3 0x3607 JUMP JUMPDEST PUSH3 0xC1D JUMPI DUP4 CODESIZE PUSH3 0x12D7 JUMP JUMPDEST DUP6 DUP1 REVERT JUMPDEST SWAP2 POP SWAP4 POP PUSH1 0x40 DUP2 RETURNDATASIZE PUSH1 0x40 GT PUSH3 0x17AF JUMPI JUMPDEST DUP2 PUSH3 0x178E PUSH1 0x40 SWAP4 DUP4 PUSH3 0x361C JUMP JUMPDEST DUP2 ADD SUB SLT PUSH3 0x7B6 JUMPI PUSH1 0x20 PUSH3 0x17A4 DUP3 PUSH3 0x36C6 JUMP JUMPDEST SWAP2 ADD MLOAD SWAP4 CODESIZE PUSH3 0x1273 JUMP JUMPDEST RETURNDATASIZE SWAP2 POP PUSH3 0x177F JUMP JUMPDEST SWAP3 PUSH1 0x84 SWAP1 PUSH1 0x1 PUSH1 0x1 PUSH1 0xA0 SHL SUB SWAP3 PUSH1 0x40 SWAP5 SWAP2 DUP8 SWAP7 SWAP1 PUSH3 0x1218 JUMP JUMPDEST POP CALLVALUE ISZERO PUSH3 0x185D JUMPI PUSH3 0x17E8 PUSH1 0x24 CALLDATALOAD CALLVALUE PUSH3 0x3889 JUMP JUMPDEST PUSH1 0x1 PUSH1 0x1 PUSH1 0xA0 SHL SUB PUSH1 0x3 SLOAD AND DUP1 EXTCODESIZE ISZERO PUSH3 0x115D JUMPI DUP5 DUP3 SWAP2 PUSH1 0x4 PUSH1 0x40 MLOAD DUP1 SWAP5 DUP2 SWAP4 PUSH32 0xD0E30DB000000000000000000000000000000000000000000000000000000000 DUP4 MSTORE GAS CALL DUP1 ISZERO PUSH3 0x793 JUMPI SWAP1 DUP6 SWAP2 PUSH3 0x1845 JUMPI JUMPDEST POP POP PUSH3 0x11E2 JUMP JUMPDEST PUSH3 0x1850 SWAP1 PUSH3 0x3607 JUMP JUMPDEST PUSH3 0xC1D JUMPI DUP4 CODESIZE PUSH3 0x183D JUMP JUMPDEST PUSH1 0x64 PUSH1 0x40 MLOAD PUSH3 0x461BCD PUSH1 0xE5 SHL DUP2 MSTORE PUSH1 0x20 PUSH1 0x4 DUP3 ADD MSTORE PUSH1 0x18 PUSH1 0x24 DUP3 ADD MSTORE PUSH32 0x4D7573742073656E642045544820746F20636F6E766572740000000000000000 PUSH1 0x44 DUP3 ADD MSTORE REVERT JUMPDEST PUSH1 0x20 PUSH1 0x1 PUSH1 0x1 PUSH1 0xA0 SHL SUB PUSH1 0x3 SLOAD AND SWAP2 PUSH1 0x24 PUSH1 0x40 MLOAD DUP1 SWAP5 DUP2 SWAP4 DUP3 MSTORE ADDRESS PUSH1 0x4 DUP4 ADD MSTORE GAS STATICCALL SWAP1 DUP2 ISZERO PUSH3 0x793 JUMPI SWAP1 DUP3 SWAP2 DUP7 SWAP2 PUSH3 0x1938 JUMPI JUMPDEST POP LT PUSH3 0x18E4 JUMPI CODESIZE PUSH3 0x11D6 JUMP JUMPDEST PUSH1 0x84 PUSH1 0x40 MLOAD PUSH3 0x461BCD PUSH1 0xE5 SHL DUP2 MSTORE PUSH1 0x20 PUSH1 0x4 DUP3 ADD MSTORE PUSH1 0x27 PUSH1 0x24 DUP3 ADD MSTORE PUSH32 0x4E6F7420656E6F756768205745544820696E2074686520666163746F72792063 PUSH1 0x44 DUP3 ADD MSTORE PUSH7 0x1BDB9D1C9858DD PUSH1 0xCA SHL PUSH1 0x64 DUP3 ADD MSTORE REVERT JUMPDEST SWAP2 POP POP PUSH1 0x20 DUP2 RETURNDATASIZE PUSH1 0x20 GT PUSH3 0x196A JUMPI JUMPDEST DUP2 PUSH3 0x1957 PUSH1 0x20 SWAP4 DUP4 PUSH3 0x361C JUMP JUMPDEST DUP2 ADD SUB SLT PUSH3 0x41B JUMPI DUP2 SWAP1 MLOAD CODESIZE PUSH3 0x18D6 JUMP JUMPDEST RETURNDATASIZE SWAP2 POP PUSH3 0x1948 JUMP JUMPDEST SWAP4 POP POP PUSH1 0x20 DUP4 RETURNDATASIZE PUSH1 0x20 GT PUSH3 0x19A6 JUMPI JUMPDEST DUP2 PUSH3 0x1992 PUSH1 0x20 SWAP4 DUP4 PUSH3 0x361C JUMP JUMPDEST DUP2 ADD SUB SLT PUSH3 0x41B JUMPI DUP6 SWAP3 MLOAD SWAP3 CODESIZE PUSH3 0x11CF JUMP JUMPDEST RETURNDATASIZE SWAP2 POP PUSH3 0x1983 JUMP JUMPDEST PUSH1 0x84 PUSH1 0x40 MLOAD PUSH3 0x461BCD PUSH1 0xE5 SHL DUP2 MSTORE PUSH1 0x20 PUSH1 0x4 DUP3 ADD MSTORE PUSH1 0x2C PUSH1 0x24 DUP3 ADD MSTORE PUSH32 0x496E73756666696369656E74204554482073656E742E2052657175697265643A PUSH1 0x44 DUP3 ADD MSTORE PUSH32 0x20302E3030303135204554480000000000000000000000000000000000000000 PUSH1 0x64 DUP3 ADD MSTORE REVERT JUMPDEST POP CALLVALUE PUSH3 0x47A JUMPI DUP1 PUSH1 0x3 NOT CALLDATASIZE ADD SLT PUSH3 0x47A JUMPI PUSH1 0x20 PUSH1 0x1 PUSH1 0x1 PUSH1 0xA0 SHL SUB PUSH1 0x8 SLOAD AND PUSH1 0x40 MLOAD SWAP1 DUP2 MSTORE RETURN JUMPDEST POP CALLVALUE PUSH3 0x47A JUMPI DUP1 PUSH1 0x3 NOT CALLDATASIZE ADD SLT PUSH3 0x47A JUMPI PUSH1 0x20 PUSH1 0x1 PUSH1 0x1 PUSH1 0xA0 SHL SUB PUSH1 0x7 SLOAD AND PUSH1 0x40 MLOAD SWAP1 DUP2 MSTORE RETURN JUMPDEST POP CALLVALUE PUSH3 0x47A JUMPI PUSH1 0x40 CALLDATASIZE PUSH1 0x3 NOT ADD SLT PUSH3 0x47A JUMPI DUP1 PUSH3 0x1A8A PUSH3 0x35C2 JUMP JUMPDEST PUSH1 0x24 CALLDATALOAD SWAP1 PUSH1 0x1 PUSH1 0x1 PUSH1 0xA0 SHL SUB SWAP1 DUP2 PUSH1 0xB SLOAD AND CALLER EQ DUP1 ISZERO PUSH3 0x1BFD JUMPI JUMPDEST DUP1 ISZERO PUSH3 0x1BEF JUMPI JUMPDEST PUSH3 0x1AB9 SWAP1 PUSH3 0x3735 JUMP JUMPDEST DUP2 PUSH1 0x3 SLOAD AND PUSH1 0x40 MLOAD SWAP1 PUSH4 0x70A08231 PUSH1 0xE0 SHL DUP3 MSTORE ADDRESS PUSH1 0x4 DUP4 ADD MSTORE PUSH1 0x20 SWAP2 DUP3 DUP2 PUSH1 0x24 DUP2 DUP6 GAS STATICCALL SWAP1 DUP2 ISZERO PUSH3 0x6B3 JUMPI DUP8 SWAP2 PUSH3 0x1BB7 JUMPI JUMPDEST POP DUP6 GT ISZERO PUSH3 0x1AFA JUMPI DUP6 DUP1 RETURN JUMPDEST PUSH1 0x40 MLOAD PUSH4 0xA9059CBB PUSH1 0xE0 SHL DUP2 MSTORE PUSH1 0x1 PUSH1 0x1 PUSH1 0xA0 SHL SUB DUP5 AND PUSH1 0x4 DUP3 ADD MSTORE PUSH1 0x24 DUP2 ADD DUP7 SWAP1 MSTORE SWAP1 DUP3 SWAP1 DUP3 SWAP1 PUSH1 0x44 SWAP1 DUP3 SWAP1 DUP11 SWAP1 GAS CALL DUP1 ISZERO PUSH3 0x428 JUMPI PUSH3 0x1B94 JUMPI JUMPDEST POP POP AND SWAP1 DUP2 EXTCODESIZE ISZERO PUSH3 0x1B90 JUMPI DUP3 SWAP2 PUSH1 0x24 DUP4 SWAP3 PUSH1 0x40 MLOAD SWAP5 DUP6 SWAP4 DUP5 SWAP3 PUSH4 0x9B5CEB35 PUSH1 0xE0 SHL DUP5 MSTORE PUSH1 0x4 DUP5 ADD MSTORE GAS CALL DUP1 ISZERO PUSH3 0x7BA JUMPI PUSH3 0x1B78 JUMPI JUMPDEST DUP1 DUP1 DUP1 DUP1 DUP6 DUP1 RETURN JUMPDEST PUSH3 0x1B83 SWAP1 PUSH3 0x3607 JUMP JUMPDEST PUSH3 0x47A JUMPI DUP1 CODESIZE PUSH3 0x1B70 JUMP JUMPDEST POP POP REVERT JUMPDEST DUP2 PUSH3 0x1BAE SWAP3 SWAP1 RETURNDATASIZE LT PUSH3 0x368 JUMPI PUSH3 0x358 DUP2 DUP4 PUSH3 0x361C JUMP JUMPDEST POP CODESIZE DUP1 PUSH3 0x1B38 JUMP JUMPDEST DUP1 SWAP8 POP DUP4 DUP1 SWAP3 POP RETURNDATASIZE DUP4 GT PUSH3 0x1BE7 JUMPI JUMPDEST PUSH3 0x1BD3 DUP2 DUP4 PUSH3 0x361C JUMP JUMPDEST DUP2 ADD SUB SLT PUSH3 0x41B JUMPI DUP5 DUP8 SWAP7 MLOAD SWAP1 PUSH3 0x1AED JUMP JUMPDEST POP RETURNDATASIZE PUSH3 0x1BC7 JUMP JUMPDEST POP PUSH1 0xC SLOAD DUP3 AND CALLER EQ PUSH3 0x1AAE JUMP JUMPDEST POP ADDRESS CALLER EQ PUSH3 0x1AA6 JUMP JUMPDEST POP CALLVALUE PUSH3 0x47A JUMPI PUSH3 0x1C19 CALLDATASIZE PUSH3 0x35F0 JUMP JUMPDEST PUSH1 0x1 PUSH1 0x1 PUSH1 0xA0 SHL SUB SWAP3 SWAP2 DUP4 PUSH1 0xB SLOAD AND CALLER EQ DUP1 ISZERO PUSH3 0x1E62 JUMPI JUMPDEST DUP1 ISZERO PUSH3 0x1E54 JUMPI JUMPDEST PUSH3 0x1C45 SWAP1 PUSH3 0x3735 JUMP JUMPDEST DUP1 DUP4 MSTORE PUSH1 0x20 SWAP4 PUSH1 0x19 DUP6 MSTORE PUSH1 0x40 DUP5 KECCAK256 SLOAD SWAP3 DUP2 PUSH1 0xD SLOAD AND SWAP1 DUP2 EXTCODESIZE ISZERO PUSH3 0x176A JUMPI PUSH1 0x40 MLOAD PUSH4 0x318A4571 PUSH1 0xE2 SHL DUP2 MSTORE PUSH1 0x4 DUP2 ADD SWAP2 SWAP1 SWAP2 MSTORE ADDRESS PUSH1 0x24 DUP3 ADD MSTORE SWAP1 DUP6 SWAP1 DUP3 SWAP1 PUSH1 0x44 SWAP1 DUP3 SWAP1 DUP5 SWAP1 GAS CALL DUP1 ISZERO PUSH3 0x793 JUMPI SWAP1 DUP6 SWAP2 PUSH3 0x1E3C JUMPI JUMPDEST POP POP DUP1 PUSH1 0xD SLOAD AND DUP2 PUSH1 0xB SLOAD AND CALLER EQ DUP1 ISZERO PUSH3 0x1E32 JUMPI JUMPDEST DUP1 ISZERO PUSH3 0x1E24 JUMPI JUMPDEST PUSH3 0x1CC5 SWAP1 PUSH3 0x3735 JUMP JUMPDEST DUP2 PUSH1 0xE SLOAD AND SWAP1 DUP2 EXTCODESIZE ISZERO PUSH3 0x176A JUMPI PUSH1 0x40 MLOAD PUSH4 0x95EA7B3 PUSH1 0xE0 SHL DUP2 MSTORE PUSH1 0x1 PUSH1 0x1 PUSH1 0xA0 SHL SUB SWAP2 SWAP1 SWAP2 AND PUSH1 0x4 DUP3 ADD MSTORE PUSH1 0x24 DUP2 ADD DUP5 SWAP1 MSTORE SWAP1 DUP6 SWAP1 DUP3 SWAP1 PUSH1 0x44 SWAP1 DUP3 SWAP1 DUP5 SWAP1 GAS CALL DUP1 ISZERO PUSH3 0x793 JUMPI DUP7 SWAP3 SWAP2 DUP7 SWAP2 PUSH3 0x1E07 JUMPI JUMPDEST POP POP PUSH1 0x16 SLOAD PUSH1 0xD SLOAD PUSH1 0x5 SLOAD PUSH1 0x40 MLOAD PUSH4 0xFE9A9F5 PUSH1 0xE3 SHL DUP2 MSTORE SWAP1 DUP5 AND PUSH1 0x1 PUSH1 0x1 PUSH1 0xA0 SHL SUB AND PUSH1 0x4 DUP3 ADD MSTORE PUSH1 0x24 DUP2 ADD SWAP6 SWAP1 SWAP6 MSTORE PUSH1 0x44 DUP6 ADD SWAP2 SWAP1 SWAP2 MSTORE ADDRESS PUSH1 0x64 DUP6 ADD MSTORE DUP4 SWAP2 AND DUP2 DUP7 DUP2 PUSH1 0x84 DUP2 ADD SUB SWAP3 GAS CALL SWAP3 DUP4 ISZERO PUSH3 0x1DFB JUMPI SWAP3 PUSH3 0x1DC6 JUMPI JUMPDEST POP DUP2 PUSH1 0x9 PUSH3 0x1D83 DUP4 PUSH3 0x3570 JUMP JUMPDEST POP ADD SSTORE PUSH1 0xA PUSH3 0x1D93 DUP3 PUSH3 0x3570 JUMP JUMPDEST POP ADD PUSH1 0x1 PUSH1 0xFF NOT DUP3 SLOAD AND OR SWAP1 SSTORE PUSH1 0xB PUSH3 0x1DBB PUSH3 0x1DB4 PUSH1 0x16 SLOAD TIMESTAMP PUSH3 0x3727 JUMP JUMPDEST SWAP3 PUSH3 0x3570 JUMP JUMPDEST POP ADD SSTORE PUSH1 0x40 MLOAD SWAP1 DUP2 MSTORE RETURN JUMPDEST SWAP1 SWAP2 POP DUP3 DUP2 DUP2 RETURNDATASIZE DUP4 GT PUSH3 0x1DF3 JUMPI JUMPDEST PUSH3 0x1DE1 DUP2 DUP4 PUSH3 0x361C JUMP JUMPDEST DUP2 ADD SUB SLT PUSH3 0x41B JUMPI MLOAD SWAP1 CODESIZE PUSH3 0x1D74 JUMP JUMPDEST POP RETURNDATASIZE PUSH3 0x1DD5 JUMP JUMPDEST PUSH1 0x40 MLOAD SWAP1 RETURNDATASIZE SWAP1 DUP3 RETURNDATACOPY RETURNDATASIZE SWAP1 REVERT JUMPDEST PUSH3 0x1E15 SWAP2 SWAP3 SWAP4 POP PUSH3 0x3607 JUMP JUMPDEST PUSH3 0xC1D JUMPI DUP5 SWAP1 DUP5 CODESIZE PUSH3 0x1D18 JUMP JUMPDEST POP PUSH1 0xC SLOAD DUP3 AND CALLER EQ PUSH3 0x1CBA JUMP JUMPDEST POP ADDRESS CALLER EQ PUSH3 0x1CB2 JUMP JUMPDEST PUSH3 0x1E47 SWAP1 PUSH3 0x3607 JUMP JUMPDEST PUSH3 0xC1D JUMPI DUP4 CODESIZE PUSH3 0x1C9C JUMP JUMPDEST POP PUSH1 0xC SLOAD DUP5 AND CALLER EQ PUSH3 0x1C3A JUMP JUMPDEST POP ADDRESS CALLER EQ PUSH3 0x1C32 JUMP JUMPDEST POP CALLVALUE PUSH3 0x47A JUMPI PUSH1 0x40 CALLDATASIZE PUSH1 0x3 NOT ADD SLT PUSH3 0x47A JUMPI PUSH1 0x4 CALLDATALOAD SWAP1 PUSH3 0x1E8E PUSH3 0x35D9 JUMP JUMPDEST SWAP2 PUSH1 0x1 PUSH1 0x1 PUSH1 0xA0 SHL SUB PUSH3 0x1EA8 DUP2 PUSH1 0xB SLOAD AND CALLER EQ PUSH3 0x36DB JUMP JUMPDEST PUSH1 0x11 DUP4 DUP2 SSTORE DUP3 DUP5 MSTORE PUSH1 0x19 PUSH1 0x20 SWAP1 DUP2 MSTORE PUSH1 0x40 DUP1 DUP7 KECCAK256 SLOAD PUSH1 0xD SLOAD DUP3 MLOAD PUSH32 0x51F3B4BD00000000000000000000000000000000000000000000000000000000 DUP2 MSTORE PUSH1 0x4 DUP2 ADD DUP9 SWAP1 MSTORE ADDRESS PUSH1 0x24 DUP3 ADD MSTORE SWAP2 SWAP9 SWAP5 SWAP6 SWAP5 SWAP2 SWAP3 DUP9 SWAP2 DUP5 SWAP1 PUSH1 0x44 SWAP1 DUP3 SWAP1 DUP6 SWAP1 DUP11 AND GAS CALL DUP1 ISZERO PUSH3 0x10F2 JUMPI DUP9 SWAP4 DUP10 SWAP2 PUSH3 0x24CE JUMPI JUMPDEST POP PUSH1 0x40 DUP1 MLOAD DUP10 DUP2 MSTORE PUSH1 0x20 DUP2 ADD DUP7 SWAP1 MSTORE SWAP1 DUP2 ADD DUP3 SWAP1 MSTORE PUSH32 0xA54E6C2FC0861AA9C991B26891D71059D517983B9E84B91020F42609C452EB9D SWAP1 PUSH1 0x60 SWAP1 LOG1 PUSH1 0x3 SLOAD DUP7 AND DUP4 DUP8 AND LT ISZERO PUSH3 0x242A JUMPI DUP4 ISZERO SWAP3 DUP4 PUSH3 0x23E6 JUMPI PUSH3 0x1F8C SWAP3 SWAP2 PUSH3 0xD17 PUSH3 0x1F82 SWAP3 DUP8 PUSH3 0x3DAD JUMP JUMPDEST SWAP1 DUP2 DUP9 SSTORE PUSH3 0x3727 JUMP JUMPDEST SWAP6 PUSH1 0x8 PUSH3 0x1F9A DUP11 PUSH3 0x3570 JUMP JUMPDEST POP ADD SLOAD DUP4 GT PUSH3 0x23D5 JUMPI PUSH3 0x1FAF SWAP1 PUSH3 0x3C88 JUMP JUMPDEST DUP2 DUP1 DIV PUSH1 0x1 EQ OR ISZERO PUSH3 0x23C2 JUMPI PUSH1 0x8 PUSH1 0x64 PUSH3 0x1FCB DUP10 PUSH3 0x3570 JUMP JUMPDEST POP SWAP3 DIV SWAP2 ADD SSTORE JUMPDEST PUSH32 0x455A40491D912862D7D0E0F06F4B988A4ECBFCB2E134B41B9600C81A782860ED DUP2 PUSH1 0x40 MLOAD DUP7 DUP2 MSTORE LOG1 DUP4 ISZERO SWAP6 DUP7 ISZERO PUSH3 0x201B JUMPI JUMPDEST DUP6 PUSH3 0x2015 DUP7 PUSH1 0xF SLOAD PUSH3 0x3727 JUMP JUMPDEST PUSH1 0xF SSTORE DUP1 RETURN JUMPDEST PUSH1 0x14 DUP6 MUL SWAP7 DUP6 DUP9 DIV PUSH1 0x14 EQ DUP2 OR ISZERO PUSH3 0x23AF JUMPI PUSH1 0x64 DUP8 SWAP9 DIV DUP5 PUSH1 0x3 SLOAD AND SWAP2 DUP3 EXTCODESIZE ISZERO PUSH3 0xDE1 JUMPI PUSH1 0x40 MLOAD DUP10 DUP2 PUSH32 0x2E1A7D4D00000000000000000000000000000000000000000000000000000000 SWAP6 DUP7 DUP3 MSTORE DUP6 PUSH1 0x4 DUP4 ADD MSTORE DUP2 PUSH1 0x24 SWAP15 DUP16 SWAP3 GAS CALL DUP1 ISZERO PUSH3 0x23A4 JUMPI SWAP1 DUP11 SWAP4 SWAP3 SWAP2 PUSH3 0x2386 JUMPI JUMPDEST POP PUSH1 0x50 DUP10 MUL SWAP1 DUP10 DUP3 DIV PUSH1 0x50 EQ OR ISZERO PUSH3 0x2374 JUMPI SWAP2 DUP1 DUP1 DUP1 SWAP4 DUP10 PUSH1 0x2 PUSH3 0x20B9 PUSH1 0x64 PUSH3 0x20D0 SWAP10 DIV SWAP11 PUSH3 0x3570 JUMP JUMPDEST POP ADD SLOAD AND GAS CALL PUSH3 0x20C9 PUSH3 0x37D3 JUMP JUMPDEST POP PUSH3 0x3817 JUMP JUMPDEST DUP4 PUSH1 0x3 SLOAD AND SWAP1 PUSH1 0x40 MLOAD PUSH4 0x70A08231 PUSH1 0xE0 SHL DUP2 MSTORE ADDRESS PUSH1 0x4 DUP3 ADD MSTORE DUP5 DUP2 DUP12 DUP2 DUP7 GAS STATICCALL SWAP1 DUP2 ISZERO PUSH3 0xDA1 JUMPI SWAP1 DUP5 SWAP2 DUP11 SWAP2 PUSH3 0x233D JUMPI JUMPDEST POP LT PUSH3 0x22D4 JUMPI DUP2 EXTCODESIZE ISZERO PUSH3 0x22D0 JUMPI DUP8 SWAP2 DUP10 DUP4 SWAP3 PUSH1 0x40 MLOAD SWAP5 DUP6 SWAP4 DUP5 SWAP3 DUP4 MSTORE DUP8 PUSH1 0x4 DUP5 ADD MSTORE GAS CALL DUP1 ISZERO PUSH3 0x6B3 JUMPI SWAP1 DUP8 SWAP2 PUSH3 0x22B8 JUMPI JUMPDEST POP POP DUP1 PUSH1 0x3 SHR SWAP4 DUP5 ISZERO DUP6 PUSH1 0xF DUP2 MUL DIV PUSH1 0xF EQ DUP2 OR ISZERO PUSH3 0x22A6 JUMPI PUSH1 0x19 DUP7 MUL SWAP3 DUP7 DUP5 DIV PUSH1 0x19 EQ DUP3 OR ISZERO PUSH3 0x2294 JUMPI PUSH32 0x3FFFFFFFFFFFFFFFFFFFFFFFFFFFFFFFFFFFFFFFFFFFFFFFFFFFFFFFFFFFFFFE SWAP1 PUSH1 0x2 SHR AND SWAP6 DUP7 DIV PUSH1 0x2 EQ OR ISZERO PUSH3 0x2283 JUMPI POP DUP3 PUSH1 0xC SLOAD AND DUP1 EXTCODESIZE ISZERO PUSH3 0x1115 JUMPI DUP7 SWAP1 PUSH1 0x4 PUSH1 0x40 MLOAD DUP1 SWAP5 DUP2 SWAP4 PUSH4 0x14D6AED PUSH1 0xE4 SHL DUP4 MSTORE GAS CALL DUP1 ISZERO PUSH3 0x428 JUMPI SWAP1 DUP7 SWAP2 PUSH3 0x226B JUMPI JUMPDEST POP DUP1 DUP1 DUP1 DUP7 DUP7 PUSH1 0x12 SLOAD AND GAS CALL PUSH3 0x21E4 PUSH3 0x37D3 JUMP JUMPDEST POP ISZERO PUSH3 0x2218 JUMPI POP DUP4 DUP1 DUP1 DUP1 SWAP8 POP PUSH3 0x220D SWAP5 PUSH3 0x2015 SWAP8 SWAP5 PUSH1 0x10 SLOAD AND GAS CALL PUSH3 0x20C9 PUSH3 0x37D3 JUMP JUMPDEST DUP3 SWAP2 CODESIZE DUP1 DUP1 PUSH3 0x2006 JUMP JUMPDEST PUSH1 0x84 SWAP1 PUSH1 0x27 DUP8 PUSH1 0x40 MLOAD SWAP3 PUSH3 0x461BCD PUSH1 0xE5 SHL DUP5 MSTORE PUSH1 0x4 DUP5 ADD MSTORE DUP3 ADD MSTORE PUSH32 0x4661696C656420746F2073656E642045544820746F2074726561737572792063 PUSH1 0x44 DUP3 ADD MSTORE PUSH7 0x1BDB9D1C9858DD PUSH1 0xCA SHL PUSH1 0x64 DUP3 ADD MSTORE REVERT JUMPDEST PUSH3 0x2276 SWAP1 PUSH3 0x3607 JUMP JUMPDEST PUSH3 0x115D JUMPI DUP5 CODESIZE PUSH3 0x21CE JUMP JUMPDEST PUSH4 0x4E487B71 PUSH1 0xE0 SHL DUP8 MSTORE PUSH1 0x4 MSTORE DUP7 DUP7 REVERT JUMPDEST DUP10 DUP10 DUP5 PUSH4 0x4E487B71 PUSH1 0xE0 SHL DUP3 MSTORE PUSH1 0x4 MSTORE REVERT JUMPDEST DUP9 DUP9 DUP4 PUSH4 0x4E487B71 PUSH1 0xE0 SHL DUP3 MSTORE PUSH1 0x4 MSTORE REVERT JUMPDEST PUSH3 0x22C3 SWAP1 PUSH3 0x3607 JUMP JUMPDEST PUSH3 0x176A JUMPI DUP6 CODESIZE PUSH3 0x2139 JUMP JUMPDEST DUP8 DUP1 REVERT JUMPDEST PUSH1 0x84 DUP5 PUSH1 0x22 DUP12 PUSH1 0x40 MLOAD SWAP3 PUSH3 0x461BCD PUSH1 0xE5 SHL DUP5 MSTORE PUSH1 0x4 DUP5 ADD MSTORE DUP3 ADD MSTORE PUSH32 0x496E737566696369656E742062616C616E6365206F6E2074686520666163746F PUSH1 0x44 DUP3 ADD MSTORE PUSH32 0x7279000000000000000000000000000000000000000000000000000000000000 PUSH1 0x64 DUP3 ADD MSTORE REVERT JUMPDEST DUP1 SWAP3 POP DUP7 DUP1 SWAP3 POP RETURNDATASIZE DUP4 GT PUSH3 0x236C JUMPI JUMPDEST PUSH3 0x2359 DUP2 DUP4 PUSH3 0x361C JUMP JUMPDEST DUP2 ADD SUB SLT PUSH3 0x41B JUMPI DUP4 SWAP1 MLOAD CODESIZE PUSH3 0x2103 JUMP JUMPDEST POP RETURNDATASIZE PUSH3 0x234D JUMP JUMPDEST DUP11 DUP4 DUP10 PUSH4 0x4E487B71 PUSH1 0xE0 SHL DUP3 MSTORE PUSH1 0x4 MSTORE REVERT JUMPDEST PUSH3 0x2395 SWAP1 SWAP4 SWAP2 SWAP3 SWAP4 PUSH3 0x3607 JUMP JUMPDEST PUSH3 0xDE1 JUMPI SWAP1 DUP9 SWAP2 CODESIZE PUSH3 0x208B JUMP JUMPDEST PUSH1 0x40 MLOAD RETURNDATASIZE DUP13 DUP3 RETURNDATACOPY RETURNDATASIZE SWAP1 REVERT JUMPDEST PUSH1 0x24 DUP8 DUP7 PUSH4 0x4E487B71 PUSH1 0xE0 SHL DUP3 MSTORE PUSH1 0x4 MSTORE REVERT JUMPDEST PUSH1 0x24 DUP7 DUP6 PUSH4 0x4E487B71 PUSH1 0xE0 SHL DUP3 MSTORE PUSH1 0x4 MSTORE REVERT JUMPDEST PUSH3 0x23E0 SWAP1 PUSH3 0x3D36 JUMP JUMPDEST PUSH3 0x1FAF JUMP JUMPDEST POP SWAP7 SWAP3 POP PUSH3 0x2407 SWAP2 POP PUSH3 0x23FD DUP8 DUP8 SLOAD PUSH3 0x3727 JUMP JUMPDEST SWAP1 DUP2 DUP8 SSTORE PUSH3 0x3727 JUMP JUMPDEST SWAP5 ISZERO PUSH3 0x241F JUMPI PUSH3 0x2419 SWAP1 PUSH3 0x3D36 JUMP JUMPDEST PUSH3 0x1FD2 JUMP JUMPDEST PUSH3 0x2419 SWAP1 PUSH3 0x3C88 JUMP JUMPDEST SWAP3 DUP4 ISZERO SWAP3 DUP4 PUSH3 0x24A6 JUMPI PUSH3 0x244A SWAP3 SWAP2 PUSH3 0xD17 PUSH3 0x1F82 SWAP3 DUP8 PUSH3 0x3DAD JUMP JUMPDEST SWAP6 PUSH1 0x8 PUSH3 0x2458 DUP11 PUSH3 0x3570 JUMP JUMPDEST POP ADD SLOAD DUP4 GT PUSH3 0x2495 JUMPI PUSH3 0x246D SWAP1 PUSH3 0x3C88 JUMP JUMPDEST DUP2 DUP1 DIV PUSH1 0x1 EQ OR ISZERO PUSH3 0x23C2 JUMPI PUSH1 0x8 PUSH1 0x64 PUSH3 0x2489 DUP10 PUSH3 0x3570 JUMP JUMPDEST POP SWAP3 DIV SWAP2 ADD SSTORE PUSH3 0x1FD2 JUMP JUMPDEST PUSH3 0x24A0 SWAP1 PUSH3 0x3D36 JUMP JUMPDEST PUSH3 0x246D JUMP JUMPDEST POP SWAP7 SWAP3 POP POP POP PUSH3 0x24B9 DUP6 DUP6 SLOAD PUSH3 0x3727 JUMP JUMPDEST DUP1 DUP6 SSTORE SWAP5 ISZERO PUSH3 0x241F JUMPI PUSH3 0x2419 SWAP1 PUSH3 0x3D36 JUMP JUMPDEST SWAP1 POP PUSH3 0x24F8 SWAP2 SWAP4 POP PUSH1 0x40 RETURNDATASIZE PUSH1 0x40 GT PUSH3 0x2502 JUMPI JUMPDEST PUSH3 0x24EF DUP2 DUP4 PUSH3 0x361C JUMP JUMPDEST DUP2 ADD SWAP1 PUSH3 0x379B JUMP JUMPDEST SWAP3 SWAP1 SWAP3 CODESIZE PUSH3 0x1F19 JUMP JUMPDEST POP RETURNDATASIZE PUSH3 0x24E3 JUMP JUMPDEST POP CALLVALUE PUSH3 0x47A JUMPI DUP1 PUSH1 0x3 NOT CALLDATASIZE ADD SLT PUSH3 0x47A JUMPI PUSH1 0x1 PUSH1 0x1 PUSH1 0xA0 SHL SUB DUP1 PUSH1 0xB SLOAD AND CALLER EQ DUP1 ISZERO PUSH3 0x26CA JUMPI JUMPDEST DUP1 ISZERO PUSH3 0x26BC JUMPI JUMPDEST PUSH3 0x2547 SWAP1 PUSH3 0x3735 JUMP JUMPDEST DUP2 DUP2 PUSH1 0x3 SLOAD AND SWAP2 PUSH1 0x40 MLOAD SWAP3 PUSH4 0x70A08231 PUSH1 0xE0 SHL DUP5 MSTORE ADDRESS PUSH1 0x4 DUP6 ADD MSTORE PUSH1 0x20 SWAP4 DUP5 DUP2 PUSH1 0x24 DUP2 DUP6 GAS STATICCALL SWAP1 DUP2 ISZERO PUSH3 0x39D JUMPI DUP5 SWAP2 PUSH3 0x2685 JUMPI JUMPDEST POP PUSH1 0x1A SLOAD DUP1 SWAP2 LT ISZERO DUP1 PUSH3 0x267B JUMPI JUMPDEST PUSH3 0x2595 JUMPI DUP4 DUP1 RETURN JUMPDEST DUP5 SWAP1 PUSH1 0x44 DUP5 PUSH1 0xC SLOAD AND DUP7 PUSH1 0x40 MLOAD SWAP6 DUP7 SWAP5 DUP6 SWAP4 PUSH4 0xA9059CBB PUSH1 0xE0 SHL DUP6 MSTORE PUSH1 0x4 DUP6 ADD MSTORE PUSH1 0x24 DUP5 ADD MSTORE GAS CALL DUP1 ISZERO PUSH3 0x370 JUMPI PUSH3 0x2659 JUMPI JUMPDEST POP PUSH1 0xC SLOAD AND PUSH1 0x1A SLOAD DUP2 EXTCODESIZE ISZERO PUSH3 0x7B6 JUMPI DUP3 SWAP2 PUSH1 0x24 DUP4 SWAP3 PUSH1 0x40 MLOAD SWAP5 DUP6 SWAP4 DUP5 SWAP3 PUSH4 0x9B5CEB35 PUSH1 0xE0 SHL DUP5 MSTORE PUSH1 0x4 DUP5 ADD MSTORE GAS CALL DUP1 ISZERO PUSH3 0x7BA JUMPI PUSH3 0x2641 JUMPI JUMPDEST POP POP PUSH32 0x8FF98A7F9BEDB57DF86769D07998B067FBA595272053E3690D3412AFF560A82C SWAP1 PUSH1 0x1A SLOAD PUSH1 0x40 MLOAD SWAP1 DUP2 MSTORE LOG1 DUP1 PUSH1 0x1A SSTORE CODESIZE DUP2 DUP2 DUP1 DUP1 DUP4 DUP1 RETURN JUMPDEST PUSH3 0x264C SWAP1 PUSH3 0x3607 JUMP JUMPDEST PUSH3 0x476 JUMPI DUP2 CODESIZE PUSH3 0x2606 JUMP JUMPDEST PUSH3 0x2673 SWAP1 DUP5 RETURNDATASIZE DUP7 GT PUSH3 0x368 JUMPI PUSH3 0x358 DUP2 DUP4 PUSH3 0x361C JUMP JUMPDEST POP CODESIZE PUSH3 0x25CA JUMP JUMPDEST POP DUP1 ISZERO ISZERO PUSH3 0x258C JUMP JUMPDEST DUP1 SWAP5 POP DUP6 DUP1 SWAP3 POP RETURNDATASIZE DUP4 GT PUSH3 0x26B4 JUMPI JUMPDEST PUSH3 0x26A1 DUP2 DUP4 PUSH3 0x361C JUMP JUMPDEST DUP2 ADD SUB SLT PUSH3 0x41B JUMPI DUP5 SWAP3 MLOAD CODESIZE PUSH3 0x257D JUMP JUMPDEST POP RETURNDATASIZE PUSH3 0x2695 JUMP JUMPDEST POP PUSH1 0xC SLOAD DUP2 AND CALLER EQ PUSH3 0x253C JUMP JUMPDEST POP ADDRESS CALLER EQ PUSH3 0x2534 JUMP JUMPDEST POP PUSH1 0x20 CALLDATASIZE PUSH1 0x3 NOT ADD SLT PUSH3 0x47A JUMPI PUSH1 0x4 CALLDATALOAD PUSH1 0x1 PUSH1 0x1 PUSH1 0xA0 SHL SUB SWAP1 DUP2 PUSH1 0xB SLOAD AND CALLER EQ SWAP2 PUSH3 0x2701 DUP4 PUSH3 0x36DB JUMP JUMPDEST CALLVALUE ISZERO PUSH3 0x27FF JUMPI PUSH3 0x276B PUSH1 0x20 DUP4 DUP7 SWAP6 DUP5 PUSH1 0x3 SLOAD AND SWAP1 DUP6 PUSH1 0xC SLOAD AND SWAP1 DUP1 ISZERO PUSH3 0x27F5 JUMPI JUMPDEST DUP1 ISZERO PUSH3 0x27EB JUMPI JUMPDEST PUSH3 0x2738 SWAP1 PUSH3 0x3735 JUMP JUMPDEST DUP8 PUSH1 0x40 MLOAD DUP1 SWAP7 DUP2 SWAP6 DUP3 SWAP5 PUSH4 0x95EA7B3 PUSH1 0xE0 SHL DUP5 MSTORE PUSH1 0x4 DUP5 ADD PUSH1 0x20 SWAP1 SWAP4 SWAP3 SWAP2 SWAP4 PUSH1 0x1 PUSH1 0x1 PUSH1 0xA0 SHL SUB PUSH1 0x40 DUP3 ADD SWAP6 AND DUP2 MSTORE ADD MSTORE JUMP JUMPDEST SUB SWAP3 GAS CALL DUP1 ISZERO PUSH3 0x39D JUMPI PUSH3 0x2789 SWAP2 DUP6 SWAP2 PUSH3 0x27CE JUMPI POP PUSH3 0x3ACB JUMP JUMPDEST PUSH1 0xC SLOAD AND DUP1 EXTCODESIZE ISZERO PUSH3 0x1B90 JUMPI DUP3 SWAP1 PUSH1 0x4 PUSH1 0x40 MLOAD DUP1 SWAP5 DUP2 SWAP4 PUSH4 0x14D6AED PUSH1 0xE4 SHL DUP4 MSTORE GAS CALL DUP1 ISZERO PUSH3 0x7BA JUMPI PUSH3 0x27BB JUMPI POP RETURN JUMPDEST PUSH3 0x27C6 SWAP1 PUSH3 0x3607 JUMP JUMPDEST PUSH3 0x47A JUMPI DUP1 RETURN JUMPDEST PUSH3 0x396 SWAP2 POP PUSH1 0x20 RETURNDATASIZE PUSH1 0x20 GT PUSH3 0x368 JUMPI PUSH3 0x358 DUP2 DUP4 PUSH3 0x361C JUMP JUMPDEST POP CALLER DUP2 EQ PUSH3 0x272D JUMP JUMPDEST POP ADDRESS CALLER EQ PUSH3 0x2725 JUMP JUMPDEST PUSH1 0x64 PUSH1 0x40 MLOAD PUSH3 0x461BCD PUSH1 0xE5 SHL DUP2 MSTORE PUSH1 0x20 PUSH1 0x4 DUP3 ADD MSTORE PUSH1 0x11 PUSH1 0x24 DUP3 ADD MSTORE PUSH32 0x4E6F207265776172647320746F20616464000000000000000000000000000000 PUSH1 0x44 DUP3 ADD MSTORE REVERT JUMPDEST POP CALLVALUE PUSH3 0x47A JUMPI DUP1 PUSH1 0x3 NOT CALLDATASIZE ADD SLT PUSH3 0x47A JUMPI PUSH1 0x20 SWAP1 SLOAD PUSH1 0x40 MLOAD SWAP1 DUP2 MSTORE RETURN JUMPDEST POP CALLVALUE PUSH3 0x47A JUMPI DUP1 PUSH1 0x3 NOT CALLDATASIZE ADD SLT PUSH3 0x47A JUMPI PUSH1 0x20 PUSH1 0x1 PUSH1 0x1 PUSH1 0xA0 SHL SUB PUSH1 0xB SLOAD AND PUSH1 0x40 MLOAD SWAP1 DUP2 MSTORE RETURN JUMPDEST POP CALLVALUE PUSH3 0x47A JUMPI PUSH1 0x20 DUP1 PUSH1 0x3 NOT CALLDATASIZE ADD SLT PUSH3 0x476 JUMPI PUSH1 0x4 CALLDATALOAD PUSH1 0x1 PUSH1 0x1 PUSH1 0xA0 SHL SUB SWAP1 DUP2 PUSH1 0xC SLOAD AND DUP1 CALLER EQ DUP1 ISZERO PUSH3 0x2AB7 JUMPI SWAP1 PUSH3 0x291F DUP4 SWAP3 PUSH32 0xD5E85995D9BDCDAFB72531EC59FAEF29167C16780583CA2068587FE896170C47 DUP8 PUSH3 0x28F4 DUP11 SWAP9 SWAP8 PUSH1 0x1A SLOAD PUSH3 0x3727 JUMP JUMPDEST SWAP6 DUP7 PUSH1 0x1A SSTORE PUSH1 0x40 MLOAD SWAP1 DUP2 MSTORE LOG1 DUP5 PUSH1 0xB SLOAD AND CALLER EQ SWAP1 DUP2 ISZERO PUSH3 0x2AAC JUMPI JUMPDEST DUP2 ISZERO PUSH3 0x2AA3 JUMPI JUMPDEST POP PUSH3 0x3735 JUMP JUMPDEST DUP3 PUSH1 0x3 SLOAD AND SWAP2 PUSH1 0x40 MLOAD PUSH4 0x70A08231 PUSH1 0xE0 SHL DUP2 MSTORE ADDRESS PUSH1 0x4 DUP3 ADD MSTORE DUP7 DUP2 PUSH1 0x24 DUP2 DUP8 GAS STATICCALL DUP1 ISZERO PUSH3 0x428 JUMPI DUP3 SWAP2 DUP8 SWAP2 PUSH3 0x2A6C JUMPI JUMPDEST POP LT ISZERO DUP1 PUSH3 0x2A62 JUMPI JUMPDEST PUSH3 0x2964 JUMPI DUP5 DUP1 RETURN JUMPDEST PUSH1 0x44 DUP7 SWAP3 DUP7 PUSH1 0x40 MLOAD SWAP6 DUP7 SWAP5 DUP6 SWAP4 PUSH4 0xA9059CBB PUSH1 0xE0 SHL DUP6 MSTORE PUSH1 0x4 DUP6 ADD MSTORE PUSH1 0x24 DUP5 ADD MSTORE GAS CALL DUP1 ISZERO PUSH3 0x370 JUMPI PUSH3 0x2A40 JUMPI JUMPDEST POP PUSH1 0xC SLOAD AND PUSH1 0x1A SLOAD SWAP1 DUP1 EXTCODESIZE ISZERO PUSH3 0x7B6 JUMPI PUSH1 0x24 DUP4 SWAP3 PUSH1 0x40 MLOAD SWAP5 DUP6 SWAP4 DUP5 SWAP3 PUSH4 0x9B5CEB35 PUSH1 0xE0 SHL DUP5 MSTORE PUSH1 0x4 DUP5 ADD MSTORE GAS CALL DUP1 ISZERO PUSH3 0x370 JUMPI PUSH3 0x2A0A JUMPI JUMPDEST POP PUSH32 0x8FF98A7F9BEDB57DF86769D07998B067FBA595272053E3690D3412AFF560A82C SWAP1 PUSH1 0x1A SLOAD PUSH1 0x40 MLOAD SWAP1 DUP2 MSTORE LOG1 DUP1 PUSH1 0x1A SSTORE CODESIZE DUP2 DUP2 DUP1 DUP1 DUP1 DUP5 DUP1 RETURN JUMPDEST SWAP2 PUSH3 0x2A38 PUSH32 0x8FF98A7F9BEDB57DF86769D07998B067FBA595272053E3690D3412AFF560A82C SWAP3 SWAP4 PUSH3 0x3607 JUMP JUMPDEST SWAP2 SWAP1 PUSH3 0x29CF JUMP JUMPDEST PUSH3 0x2A5A SWAP1 DUP5 RETURNDATASIZE DUP7 GT PUSH3 0x368 JUMPI PUSH3 0x358 DUP2 DUP4 PUSH3 0x361C JUMP JUMPDEST POP CODESIZE PUSH3 0x2994 JUMP JUMPDEST POP DUP1 ISZERO ISZERO PUSH3 0x295B JUMP JUMPDEST DUP1 SWAP3 POP DUP9 DUP1 SWAP3 POP RETURNDATASIZE DUP4 GT PUSH3 0x2A9B JUMPI JUMPDEST PUSH3 0x2A88 DUP2 DUP4 PUSH3 0x361C JUMP JUMPDEST DUP2 ADD SUB SLT PUSH3 0x176A JUMPI DUP2 SWAP1 MLOAD CODESIZE PUSH3 0x2951 JUMP JUMPDEST POP RETURNDATASIZE PUSH3 0x2A7C JUMP JUMPDEST SWAP1 POP CODESIZE PUSH3 0x2918 JUMP JUMPDEST CALLER ADDRESS EQ SWAP2 POP PUSH3 0x2910 JUMP JUMPDEST PUSH1 0x84 DUP6 PUSH1 0x40 MLOAD SWAP1 PUSH3 0x461BCD PUSH1 0xE5 SHL DUP3 MSTORE PUSH1 0x4 DUP3 ADD MSTORE PUSH1 0x21 PUSH1 0x24 DUP3 ADD MSTORE PUSH32 0x4F6E6C79207374616B696E6720636F6E74726163742063616E206E6F74696679 PUSH1 0x44 DUP3 ADD MSTORE PUSH32 0x2E00000000000000000000000000000000000000000000000000000000000000 PUSH1 0x64 DUP3 ADD MSTORE REVERT JUMPDEST POP CALLVALUE PUSH3 0x47A JUMPI DUP1 PUSH1 0x3 NOT CALLDATASIZE ADD SLT PUSH3 0x47A JUMPI PUSH1 0x20 PUSH1 0x1 PUSH1 0x1 PUSH1 0xA0 SHL SUB PUSH1 0x6 SLOAD AND PUSH1 0x40 MLOAD SWAP1 DUP2 MSTORE RETURN JUMPDEST POP CALLVALUE PUSH3 0x47A JUMPI DUP1 PUSH1 0x3 NOT CALLDATASIZE ADD SLT PUSH3 0x47A JUMPI PUSH1 0x20 PUSH1 0x1 SLOAD PUSH1 0x40 MLOAD SWAP1 DUP2 MSTORE RETURN JUMPDEST POP CALLVALUE PUSH3 0x47A JUMPI PUSH1 0x40 CALLDATASIZE PUSH1 0x3 NOT ADD SLT PUSH3 0x47A JUMPI PUSH1 0x4 CALLDATALOAD PUSH1 0x1 PUSH1 0x1 PUSH1 0xA0 SHL SUB DUP1 DUP3 AND DUP1 SWAP3 SUB PUSH3 0x7B6 JUMPI PUSH3 0x2B9E PUSH3 0x35D9 JUMP JUMPDEST PUSH3 0x2BAF DUP3 PUSH1 0xB SLOAD AND CALLER EQ PUSH3 0x36DB JUMP JUMPDEST PUSH20 0xFFFFFFFFFFFFFFFFFFFFFFFFFFFFFFFFFFFFFFFF NOT SWAP3 DUP4 PUSH1 0xC SLOAD AND OR PUSH1 0xC SSTORE AND SWAP1 PUSH1 0x12 SLOAD AND OR PUSH1 0x12 SSTORE DUP1 RETURN JUMPDEST POP CALLVALUE PUSH3 0x47A JUMPI DUP1 PUSH1 0x3 NOT CALLDATASIZE ADD SLT PUSH3 0x47A JUMPI PUSH1 0x20 PUSH1 0x1A SLOAD PUSH1 0x40 MLOAD SWAP1 DUP2 MSTORE RETURN JUMPDEST POP CALLVALUE PUSH3 0x47A JUMPI DUP1 PUSH1 0x3 NOT CALLDATASIZE ADD SLT PUSH3 0x47A JUMPI PUSH1 0x20 PUSH1 0x1 PUSH1 0x1 PUSH1 0xA0 SHL SUB PUSH1 0x5 SLOAD AND PUSH1 0x40 MLOAD SWAP1 DUP2 MSTORE RETURN JUMPDEST POP CALLVALUE PUSH3 0x47A JUMPI DUP1 PUSH1 0x3 NOT CALLDATASIZE ADD SLT PUSH3 0x47A JUMPI SLOAD PUSH1 0x1 SLOAD PUSH1 0xF SLOAD PUSH1 0x40 DUP1 MLOAD SWAP4 DUP5 MSTORE PUSH1 0x20 DUP5 ADD SWAP3 SWAP1 SWAP3 MSTORE SWAP1 DUP3 ADD MSTORE PUSH1 0x60 SWAP1 RETURN JUMPDEST SUB SWAP1 RETURN JUMPDEST POP CALLVALUE PUSH3 0x47A JUMPI PUSH1 0x60 CALLDATASIZE PUSH1 0x3 NOT ADD SLT PUSH3 0x47A JUMPI PUSH3 0x2C79 PUSH3 0x35C2 JUMP JUMPDEST SWAP1 PUSH3 0x2C84 PUSH3 0x35D9 JUMP JUMPDEST PUSH1 0x44 CALLDATALOAD SWAP3 PUSH3 0xFFFFFF DUP5 AND DUP5 SUB PUSH3 0x7B6 JUMPI PUSH1 0x6 SLOAD PUSH1 0x40 MLOAD PUSH4 0xB4C7741 PUSH1 0xE1 SHL DUP2 MSTORE PUSH1 0x1 PUSH1 0x1 PUSH1 0xA0 SHL SUB SWAP3 DUP4 AND PUSH1 0x4 DUP3 ADD MSTORE SWAP3 DUP3 AND PUSH1 0x24 DUP5 ADD MSTORE PUSH3 0xFFFFFF SWAP5 SWAP1 SWAP5 AND PUSH1 0x44 DUP4 ADD MSTORE SWAP1 SWAP3 PUSH1 0x20 SWAP1 DUP5 SWAP1 PUSH1 0x64 SWAP1 DUP3 SWAP1 DUP6 AND GAS STATICCALL SWAP2 DUP3 ISZERO PUSH3 0x1DFB JUMPI DUP1 SWAP3 PUSH3 0x2CF7 JUMPI JUMPDEST PUSH1 0x20 DUP4 DUP4 PUSH1 0x40 MLOAD SWAP2 AND DUP2 MSTORE RETURN JUMPDEST SWAP1 SWAP2 POP PUSH1 0x20 DUP4 RETURNDATASIZE PUSH1 0x20 GT PUSH3 0x2D35 JUMPI JUMPDEST DUP2 PUSH3 0x2D16 PUSH1 0x20 SWAP4 DUP4 PUSH3 0x361C JUMP JUMPDEST DUP2 ADD SUB SLT PUSH3 0x47A JUMPI POP PUSH3 0x2D2D PUSH1 0x20 SWAP3 PUSH3 0x36C6 JUMP JUMPDEST SWAP1 CODESIZE PUSH3 0x2CEA JUMP JUMPDEST RETURNDATASIZE SWAP2 POP PUSH3 0x2D07 JUMP JUMPDEST POP CALLVALUE PUSH3 0x47A JUMPI DUP1 PUSH1 0x3 NOT CALLDATASIZE ADD SLT PUSH3 0x47A JUMPI PUSH1 0x20 PUSH1 0x15 SLOAD PUSH1 0x40 MLOAD SWAP1 DUP2 MSTORE RETURN JUMPDEST POP CALLVALUE PUSH3 0x47A JUMPI PUSH1 0x20 CALLDATASIZE PUSH1 0x3 NOT ADD SLT PUSH3 0x47A JUMPI PUSH1 0x4 CALLDATALOAD SWAP1 PUSH1 0x18 SLOAD DUP3 LT ISZERO PUSH3 0x47A JUMPI PUSH2 0x1E0 PUSH3 0x2D8F DUP4 PUSH3 0x3570 JUMP JUMPDEST POP PUSH1 0x1 PUSH1 0x1 PUSH1 0xA0 SHL SUB SWAP1 DUP2 DUP2 SLOAD AND SWAP2 DUP1 PUSH1 0x1 DUP4 ADD SLOAD AND SWAP1 PUSH1 0x2 DUP4 ADD SLOAD AND SWAP2 PUSH1 0x3 DUP2 ADD SLOAD SWAP3 PUSH1 0x4 DUP3 ADD SLOAD SWAP4 PUSH1 0xFF SWAP5 DUP6 PUSH1 0x5 DUP6 ADD SLOAD AND PUSH1 0x6 DUP6 ADD SLOAD DUP8 PUSH1 0x7 DUP8 ADD SLOAD AND SWAP2 PUSH1 0x8 DUP8 ADD SLOAD SWAP4 PUSH1 0x9 DUP9 ADD SLOAD SWAP6 DUP11 PUSH1 0xA DUP11 ADD SLOAD AND SWAP8 PUSH1 0xC PUSH1 0xB DUP12 ADD SLOAD SWAP11 ADD SLOAD SWAP11 PUSH1 0x20 PUSH1 0x40 MLOAD SWAP15 DUP16 SWAP1 DUP2 MSTORE ADD MSTORE PUSH1 0x40 DUP14 ADD MSTORE PUSH1 0x60 DUP13 ADD MSTORE PUSH1 0x80 DUP12 ADD MSTORE ISZERO ISZERO PUSH1 0xA0 DUP11 ADD MSTORE PUSH1 0xC0 DUP10 ADD MSTORE ISZERO ISZERO PUSH1 0xE0 DUP9 ADD MSTORE PUSH2 0x100 DUP8 ADD MSTORE PUSH2 0x120 DUP7 ADD MSTORE ISZERO ISZERO PUSH2 0x140 DUP6 ADD MSTORE PUSH2 0x160 DUP5 ADD MSTORE DUP2 DUP2 AND ISZERO ISZERO PUSH2 0x180 DUP5 ADD MSTORE DUP2 DUP2 PUSH1 0x8 SHR AND ISZERO ISZERO PUSH2 0x1A0 DUP5 ADD MSTORE PUSH1 0x10 SHR AND ISZERO ISZERO PUSH2 0x1C0 DUP3 ADD MSTORE RETURN JUMPDEST POP CALLVALUE PUSH3 0x47A JUMPI DUP1 PUSH1 0x3 NOT CALLDATASIZE ADD SLT PUSH3 0x47A JUMPI PUSH1 0x20 PUSH1 0x1 PUSH1 0x1 PUSH1 0xA0 SHL SUB PUSH1 0x3 SLOAD AND PUSH1 0x40 MLOAD SWAP1 DUP2 MSTORE RETURN JUMPDEST POP CALLVALUE PUSH3 0x47A JUMPI PUSH1 0x60 CALLDATASIZE PUSH1 0x3 NOT ADD SLT PUSH3 0x47A JUMPI PUSH8 0xFFFFFFFFFFFFFFFF PUSH1 0x4 CALLDATALOAD DUP2 DUP2 GT PUSH3 0x7B6 JUMPI PUSH3 0x2EBF SWAP1 CALLDATASIZE SWAP1 PUSH1 0x4 ADD PUSH3 0x353F JUMP JUMPDEST SWAP2 SWAP1 PUSH1 0x24 CALLDATALOAD DUP3 DUP2 GT PUSH3 0x115D JUMPI PUSH3 0x2EDC SWAP1 CALLDATASIZE SWAP1 PUSH1 0x4 ADD PUSH3 0x353F JUMP JUMPDEST SWAP1 SWAP2 PUSH1 0x40 MLOAD SWAP5 PUSH2 0x1333 DUP1 DUP8 ADD SWAP6 DUP8 DUP8 LT SWAP1 DUP8 GT OR PUSH3 0x2F7B JUMPI DUP7 SWAP6 SWAP5 SWAP3 PUSH3 0x2F28 SWAP5 SWAP3 PUSH3 0x2F19 SWAP3 PUSH3 0x4208 DUP10 CODECOPY PUSH1 0x80 DUP8 MSTORE PUSH1 0x80 DUP8 ADD SWAP2 PUSH3 0x36A5 JUMP JUMPDEST SWAP2 DUP5 DUP4 SUB PUSH1 0x20 DUP7 ADD MSTORE PUSH3 0x36A5 JUMP JUMPDEST SWAP1 PUSH1 0x44 CALLDATALOAD PUSH1 0x40 DUP3 ADD MSTORE PUSH1 0x60 ADDRESS SWAP2 ADD MSTORE SUB SWAP1 DUP3 CREATE DUP1 ISZERO PUSH3 0xC21 JUMPI SWAP1 PUSH1 0x1 PUSH1 0x1 PUSH1 0xA0 SHL SUB PUSH1 0x20 SWAP3 AND DUP1 PUSH32 0x91D24864A084AB70B268A1F865E757CA12006CF298D763B6BE697302EF86498C PUSH1 0x40 MLOAD SWAP4 DUP1 LOG2 DUP2 MSTORE RETURN JUMPDEST PUSH1 0x24 DUP9 PUSH4 0x4E487B71 PUSH1 0xE0 SHL DUP2 MSTORE PUSH1 0x41 PUSH1 0x4 MSTORE REVERT JUMPDEST POP CALLVALUE PUSH3 0x47A JUMPI DUP1 PUSH1 0x3 NOT CALLDATASIZE ADD SLT PUSH3 0x47A JUMPI PUSH1 0x20 PUSH1 0x1 PUSH1 0x1 PUSH1 0xA0 SHL SUB PUSH1 0xD SLOAD AND PUSH1 0x40 MLOAD SWAP1 DUP2 MSTORE RETURN JUMPDEST POP CALLVALUE PUSH3 0x47A JUMPI DUP1 PUSH1 0x3 NOT CALLDATASIZE ADD SLT PUSH3 0x47A JUMPI PUSH1 0x18 SLOAD PUSH1 0xC0 MSTORE PUSH3 0x2FDE PUSH1 0xC0 MLOAD PUSH3 0x3658 JUMP JUMPDEST PUSH1 0x80 MSTORE PUSH3 0x2FEE PUSH1 0xC0 MLOAD PUSH3 0x3658 JUMP JUMPDEST PUSH2 0x240 MSTORE PUSH3 0x2FFF PUSH1 0xC0 MLOAD PUSH3 0x3658 JUMP JUMPDEST PUSH2 0x1E0 MSTORE PUSH3 0x3010 PUSH1 0xC0 MLOAD PUSH3 0x3658 JUMP JUMPDEST PUSH2 0x100 MSTORE PUSH3 0x3021 PUSH1 0xC0 MLOAD PUSH3 0x3658 JUMP JUMPDEST PUSH2 0x140 MSTORE PUSH3 0x3032 PUSH1 0xC0 MLOAD PUSH3 0x3658 JUMP JUMPDEST PUSH2 0x260 MSTORE PUSH3 0x3043 PUSH1 0xC0 MLOAD PUSH3 0x3658 JUMP JUMPDEST PUSH2 0x180 MSTORE PUSH3 0x3054 PUSH1 0xC0 MLOAD PUSH3 0x3658 JUMP JUMPDEST PUSH2 0x1A0 MSTORE PUSH3 0x3065 PUSH1 0xC0 MLOAD PUSH3 0x3658 JUMP JUMPDEST PUSH2 0x200 MSTORE PUSH3 0x3076 PUSH1 0xC0 MLOAD PUSH3 0x3658 JUMP JUMPDEST PUSH2 0x220 MSTORE PUSH3 0x3087 PUSH1 0xC0 MLOAD PUSH3 0x3658 JUMP JUMPDEST PUSH2 0x1C0 MSTORE PUSH3 0x3098 PUSH1 0xC0 MLOAD PUSH3 0x3658 JUMP JUMPDEST PUSH2 0x160 MSTORE PUSH3 0x30A9 PUSH1 0xC0 MLOAD PUSH3 0x3658 JUMP JUMPDEST PUSH2 0x120 MSTORE PUSH3 0x30BA PUSH1 0xC0 MLOAD PUSH3 0x3658 JUMP JUMPDEST PUSH1 0xE0 MSTORE PUSH3 0x30CA PUSH1 0xC0 MLOAD PUSH3 0x3658 JUMP JUMPDEST PUSH1 0xA0 MSTORE JUMPDEST PUSH1 0xC0 MLOAD DUP2 LT PUSH3 0x322C JUMPI PUSH1 0x40 MLOAD DUP1 PUSH3 0x2C57 PUSH3 0x321A PUSH3 0x3208 PUSH3 0x31F5 PUSH3 0x31E2 PUSH3 0x31CF PUSH3 0x31BC PUSH3 0x31A9 PUSH3 0x3197 PUSH3 0x3185 PUSH3 0x3173 PUSH3 0x3161 PUSH3 0x314F DUP14 PUSH3 0x313C PUSH3 0x312A PUSH2 0x1E0 DUP1 DUP5 MSTORE DUP4 ADD PUSH1 0x80 MLOAD PUSH3 0x3492 JUMP JUMPDEST DUP3 DUP2 SUB PUSH1 0x20 DUP5 ADD MSTORE PUSH2 0x240 MLOAD PUSH3 0x3492 JUMP JUMPDEST SWAP1 PUSH1 0x40 DUP2 DUP4 SUB SWAP2 ADD MSTORE PUSH2 0x1E0 MLOAD PUSH3 0x3492 JUMP JUMPDEST DUP14 DUP2 SUB PUSH1 0x60 DUP16 ADD MSTORE PUSH2 0x100 MLOAD PUSH3 0x34D1 JUMP JUMPDEST DUP13 DUP2 SUB PUSH1 0x80 DUP15 ADD MSTORE PUSH2 0x140 MLOAD PUSH3 0x34D1 JUMP JUMPDEST DUP12 DUP2 SUB PUSH1 0xA0 DUP14 ADD MSTORE PUSH2 0x260 MLOAD PUSH3 0x3507 JUMP JUMPDEST DUP11 DUP2 SUB PUSH1 0xC0 DUP13 ADD MSTORE PUSH2 0x180 MLOAD PUSH3 0x34D1 JUMP JUMPDEST DUP10 DUP2 SUB PUSH1 0xE0 DUP12 ADD MSTORE PUSH2 0x1A0 MLOAD PUSH3 0x3507 JUMP JUMPDEST DUP9 DUP2 SUB PUSH2 0x100 DUP11 ADD MSTORE PUSH2 0x200 MLOAD PUSH3 0x34D1 JUMP JUMPDEST DUP8 DUP2 SUB PUSH2 0x120 DUP10 ADD MSTORE PUSH2 0x220 MLOAD PUSH3 0x34D1 JUMP JUMPDEST DUP7 DUP2 SUB PUSH2 0x140 DUP9 ADD MSTORE PUSH2 0x1C0 MLOAD PUSH3 0x3507 JUMP JUMPDEST DUP6 DUP2 SUB PUSH2 0x160 DUP8 ADD MSTORE PUSH2 0x160 MLOAD PUSH3 0x34D1 JUMP JUMPDEST DUP5 DUP2 SUB PUSH2 0x180 DUP7 ADD MSTORE PUSH2 0x120 MLOAD PUSH3 0x3507 JUMP JUMPDEST DUP4 DUP2 SUB PUSH2 0x1A0 DUP6 ADD MSTORE PUSH1 0xE0 MLOAD PUSH3 0x3507 JUMP JUMPDEST DUP3 DUP2 SUB PUSH2 0x1C0 DUP5 ADD MSTORE PUSH1 0xA0 MLOAD PUSH3 0x3507 JUMP JUMPDEST DUP1 PUSH3 0x323A PUSH1 0x1 SWAP3 PUSH3 0x3570 JUMP JUMPDEST POP PUSH1 0x1 PUSH1 0x1 PUSH1 0xA0 SHL SUB DUP1 SWAP2 SLOAD AND PUSH3 0x3255 DUP4 PUSH1 0x80 MLOAD PUSH3 0x3690 JUMP JUMPDEST MSTORE DUP1 DUP4 PUSH3 0x3263 DUP5 PUSH3 0x3570 JUMP JUMPDEST POP ADD SLOAD AND PUSH3 0x3276 DUP4 PUSH2 0x240 MLOAD PUSH3 0x3690 JUMP JUMPDEST MSTORE PUSH1 0x2 PUSH3 0x3284 DUP4 PUSH3 0x3570 JUMP JUMPDEST POP ADD SLOAD AND PUSH3 0x3297 DUP3 PUSH2 0x1E0 MLOAD PUSH3 0x3690 JUMP JUMPDEST MSTORE PUSH1 0x4 PUSH3 0x32A5 DUP3 PUSH3 0x3570 JUMP JUMPDEST POP ADD SLOAD PUSH3 0x32B7 DUP3 PUSH2 0x100 MLOAD PUSH3 0x3690 JUMP JUMPDEST MSTORE PUSH1 0x3 PUSH3 0x32C5 DUP3 PUSH3 0x3570 JUMP JUMPDEST POP ADD SLOAD PUSH3 0x32D7 DUP3 PUSH2 0x140 MLOAD PUSH3 0x3690 JUMP JUMPDEST MSTORE PUSH1 0x5 PUSH3 0x32E5 DUP3 PUSH3 0x3570 JUMP JUMPDEST POP PUSH1 0xFF SWAP2 DUP3 SWAP2 ADD SLOAD AND PUSH3 0x32FD DUP4 PUSH2 0x260 MLOAD PUSH3 0x3690 JUMP JUMPDEST SWAP1 ISZERO ISZERO SWAP1 MSTORE PUSH1 0x6 PUSH3 0x330F DUP4 PUSH3 0x3570 JUMP JUMPDEST POP ADD SLOAD PUSH3 0x3321 DUP4 PUSH2 0x180 MLOAD PUSH3 0x3690 JUMP JUMPDEST MSTORE DUP1 PUSH1 0x7 PUSH3 0x3330 DUP5 PUSH3 0x3570 JUMP JUMPDEST POP ADD SLOAD AND PUSH3 0x3343 DUP4 PUSH2 0x1A0 MLOAD PUSH3 0x3690 JUMP JUMPDEST SWAP1 ISZERO ISZERO SWAP1 MSTORE PUSH3 0x3353 DUP3 PUSH3 0x3570 JUMP JUMPDEST POP PUSH1 0x8 DUP1 SWAP2 ADD SLOAD PUSH3 0x3369 DUP5 PUSH2 0x200 MLOAD PUSH3 0x3690 JUMP JUMPDEST MSTORE PUSH1 0x9 PUSH3 0x3377 DUP5 PUSH3 0x3570 JUMP JUMPDEST POP ADD SLOAD PUSH3 0x3389 DUP5 PUSH2 0x220 MLOAD PUSH3 0x3690 JUMP JUMPDEST MSTORE DUP2 PUSH1 0xA PUSH3 0x3398 DUP6 PUSH3 0x3570 JUMP JUMPDEST POP ADD SLOAD AND PUSH3 0x33AB DUP5 PUSH2 0x1C0 MLOAD PUSH3 0x3690 JUMP JUMPDEST SWAP1 ISZERO ISZERO SWAP1 MSTORE PUSH1 0xB PUSH3 0x33BD DUP5 PUSH3 0x3570 JUMP JUMPDEST POP ADD SLOAD PUSH3 0x33CF DUP5 PUSH2 0x160 MLOAD PUSH3 0x3690 JUMP JUMPDEST MSTORE DUP2 PUSH3 0x33DC DUP5 PUSH3 0x3570 JUMP JUMPDEST POP SWAP2 DUP2 PUSH1 0xC DUP1 SWAP5 ADD SLOAD AND PUSH3 0x33F5 DUP7 PUSH2 0x120 MLOAD PUSH3 0x3690 JUMP JUMPDEST SWAP1 ISZERO ISZERO SWAP1 MSTORE DUP3 PUSH3 0x3406 DUP7 PUSH3 0x3570 JUMP JUMPDEST POP ADD SLOAD SWAP1 SHR AND PUSH3 0x341A DUP5 PUSH1 0xE0 MLOAD PUSH3 0x3690 JUMP JUMPDEST SWAP1 ISZERO ISZERO SWAP1 MSTORE PUSH3 0x342A DUP4 PUSH3 0x3570 JUMP JUMPDEST POP ADD SLOAD PUSH1 0x10 SHR AND PUSH3 0x343F DUP3 PUSH1 0xA0 MLOAD PUSH3 0x3690 JUMP JUMPDEST SWAP1 ISZERO ISZERO SWAP1 MSTORE ADD PUSH3 0x30CE JUMP JUMPDEST POP CALLVALUE PUSH3 0x47A JUMPI DUP1 PUSH1 0x3 NOT CALLDATASIZE ADD SLT PUSH3 0x47A JUMPI PUSH1 0x20 PUSH1 0x1 PUSH1 0x1 PUSH1 0xA0 SHL SUB PUSH1 0x4 SLOAD AND PUSH1 0x40 MLOAD SWAP1 DUP2 MSTORE RETURN JUMPDEST SWAP1 POP CALLVALUE PUSH3 0x476 JUMPI DUP2 PUSH1 0x3 NOT CALLDATASIZE ADD SLT PUSH3 0x476 JUMPI PUSH1 0x20 SWAP1 PUSH1 0x2 SLOAD DUP2 MSTORE RETURN JUMPDEST SWAP1 DUP2 MLOAD DUP1 DUP3 MSTORE PUSH1 0x20 DUP1 DUP1 SWAP4 ADD SWAP4 ADD SWAP2 PUSH1 0x0 JUMPDEST DUP3 DUP2 LT PUSH3 0x34B3 JUMPI POP POP POP POP SWAP1 JUMP JUMPDEST DUP4 MLOAD PUSH1 0x1 PUSH1 0x1 PUSH1 0xA0 SHL SUB AND DUP6 MSTORE SWAP4 DUP2 ADD SWAP4 SWAP3 DUP2 ADD SWAP3 PUSH1 0x1 ADD PUSH3 0x34A4 JUMP JUMPDEST SWAP1 DUP2 MLOAD DUP1 DUP3 MSTORE PUSH1 0x20 DUP1 DUP1 SWAP4 ADD SWAP4 ADD SWAP2 PUSH1 0x0 JUMPDEST DUP3 DUP2 LT PUSH3 0x34F2 JUMPI POP POP POP POP SWAP1 JUMP JUMPDEST DUP4 MLOAD DUP6 MSTORE SWAP4 DUP2 ADD SWAP4 SWAP3 DUP2 ADD SWAP3 PUSH1 0x1 ADD PUSH3 0x34E3 JUMP JUMPDEST SWAP1 DUP2 MLOAD DUP1 DUP3 MSTORE PUSH1 0x20 DUP1 DUP1 SWAP4 ADD SWAP4 ADD SWAP2 PUSH1 0x0 JUMPDEST DUP3 DUP2 LT PUSH3 0x3528 JUMPI POP POP POP POP SWAP1 JUMP JUMPDEST DUP4 MLOAD ISZERO ISZERO DUP6 MSTORE SWAP4 DUP2 ADD SWAP4 SWAP3 DUP2 ADD SWAP3 PUSH1 0x1 ADD PUSH3 0x3519 JUMP JUMPDEST SWAP2 DUP2 PUSH1 0x1F DUP5 ADD SLT ISZERO PUSH3 0x41B JUMPI DUP3 CALLDATALOAD SWAP2 PUSH8 0xFFFFFFFFFFFFFFFF DUP4 GT PUSH3 0x41B JUMPI PUSH1 0x20 DUP4 DUP2 DUP7 ADD SWAP6 ADD ADD GT PUSH3 0x41B JUMPI JUMP JUMPDEST PUSH1 0x18 SLOAD DUP2 LT ISZERO PUSH3 0x35AC JUMPI PUSH1 0xD SWAP1 PUSH1 0x18 PUSH1 0x0 MSTORE MUL PUSH32 0xB13D2D76D1F4B7BE834882E410B3E3A8AFAF69F83600AE24DB354391D2378D2E ADD SWAP1 PUSH1 0x0 SWAP1 JUMP JUMPDEST PUSH4 0x4E487B71 PUSH1 0xE0 SHL PUSH1 0x0 MSTORE PUSH1 0x32 PUSH1 0x4 MSTORE PUSH1 0x24 PUSH1 0x0 REVERT JUMPDEST PUSH1 0x4 CALLDATALOAD SWAP1 PUSH1 0x1 PUSH1 0x1 PUSH1 0xA0 SHL SUB DUP3 AND DUP3 SUB PUSH3 0x41B JUMPI JUMP JUMPDEST PUSH1 0x24 CALLDATALOAD SWAP1 PUSH1 0x1 PUSH1 0x1 PUSH1 0xA0 SHL SUB DUP3 AND DUP3 SUB PUSH3 0x41B JUMPI JUMP JUMPDEST PUSH1 0x40 SWAP1 PUSH1 0x3 NOT ADD SLT PUSH3 0x41B JUMPI PUSH1 0x4 CALLDATALOAD SWAP1 PUSH1 0x24 CALLDATALOAD SWAP1 JUMP JUMPDEST PUSH8 0xFFFFFFFFFFFFFFFF DUP2 GT PUSH3 0x1704 JUMPI PUSH1 0x40 MSTORE JUMP JUMPDEST SWAP1 PUSH1 0x1F DUP1 NOT SWAP2 ADD AND DUP2 ADD SWAP1 DUP2 LT PUSH8 0xFFFFFFFFFFFFFFFF DUP3 GT OR PUSH3 0x1704 JUMPI PUSH1 0x40 MSTORE JUMP JUMPDEST PUSH8 0xFFFFFFFFFFFFFFFF DUP2 GT PUSH3 0x1704 JUMPI PUSH1 0x5 SHL PUSH1 0x20 ADD SWAP1 JUMP JUMPDEST SWAP1 PUSH3 0x3664 DUP3 PUSH3 0x363F JUMP JUMPDEST PUSH3 0x3673 PUSH1 0x40 MLOAD SWAP2 DUP3 PUSH3 0x361C JUMP JUMPDEST DUP3 DUP2 MSTORE DUP1 SWAP3 PUSH3 0x3686 PUSH1 0x1F NOT SWAP2 PUSH3 0x363F JUMP JUMPDEST ADD SWAP1 PUSH1 0x20 CALLDATASIZE SWAP2 ADD CALLDATACOPY JUMP JUMPDEST DUP1 MLOAD DUP3 LT ISZERO PUSH3 0x35AC JUMPI PUSH1 0x20 SWAP2 PUSH1 0x5 SHL ADD ADD SWAP1 JUMP JUMPDEST SWAP1 DUP1 PUSH1 0x20 SWAP4 SWAP3 DUP2 DUP5 MSTORE DUP5 DUP5 ADD CALLDATACOPY PUSH1 0x0 DUP3 DUP3 ADD DUP5 ADD MSTORE PUSH1 0x1F ADD PUSH1 0x1F NOT AND ADD ADD SWAP1 JUMP JUMPDEST MLOAD SWAP1 PUSH1 0x1 PUSH1 0x1 PUSH1 0xA0 SHL SUB DUP3 AND DUP3 SUB PUSH3 0x41B JUMPI JUMP JUMPDEST ISZERO PUSH3 0x36E3 JUMPI JUMP JUMPDEST PUSH1 0x64 PUSH1 0x40 MLOAD PUSH3 0x461BCD PUSH1 0xE5 SHL DUP2 MSTORE PUSH1 0x20 PUSH1 0x4 DUP3 ADD MSTORE PUSH1 0x17 PUSH1 0x24 DUP3 ADD MSTORE PUSH32 0x43616C6C6572206973206E6F7420746865206F776E6572000000000000000000 PUSH1 0x44 DUP3 ADD MSTORE REVERT JUMPDEST SWAP2 SWAP1 DUP3 ADD DUP1 SWAP3 GT PUSH3 0xD58 JUMPI JUMP JUMPDEST ISZERO PUSH3 0x373D JUMPI JUMP JUMPDEST PUSH1 0x64 PUSH1 0x40 MLOAD PUSH3 0x461BCD PUSH1 0xE5 SHL DUP2 MSTORE PUSH1 0x20 PUSH1 0x4 DUP3 ADD MSTORE PUSH1 0x18 PUSH1 0x24 DUP3 ADD MSTORE PUSH32 0x43616C6C6572206973206E6F7420617574686F72697A65640000000000000000 PUSH1 0x44 DUP3 ADD MSTORE REVERT JUMPDEST SWAP1 DUP2 PUSH1 0x20 SWAP2 SUB SLT PUSH3 0x41B JUMPI MLOAD DUP1 ISZERO ISZERO DUP2 SUB PUSH3 0x41B JUMPI SWAP1 JUMP JUMPDEST SWAP2 SWAP1 DUP3 PUSH1 0x40 SWAP2 SUB SLT PUSH3 0x41B JUMPI PUSH1 0x20 DUP3 MLOAD SWAP3 ADD MLOAD SWAP1 JUMP JUMPDEST DUP2 ISZERO PUSH3 0x37BD JUMPI DIV SWAP1 JUMP JUMPDEST PUSH4 0x4E487B71 PUSH1 0xE0 SHL PUSH1 0x0 MSTORE PUSH1 0x12 PUSH1 0x4 MSTORE PUSH1 0x24 PUSH1 0x0 REVERT JUMPDEST RETURNDATASIZE ISZERO PUSH3 0x3812 JUMPI RETURNDATASIZE SWAP1 PUSH8 0xFFFFFFFFFFFFFFFF DUP3 GT PUSH3 0x1704 JUMPI PUSH1 0x40 MLOAD SWAP2 PUSH3 0x3806 PUSH1 0x1F DUP3 ADD PUSH1 0x1F NOT AND PUSH1 0x20 ADD DUP5 PUSH3 0x361C JUMP JUMPDEST DUP3 MSTORE RETURNDATASIZE PUSH1 0x0 PUSH1 0x20 DUP5 ADD RETURNDATACOPY JUMP JUMPDEST PUSH1 0x60 SWAP1 JUMP JUMPDEST ISZERO PUSH3 0x381F JUMPI JUMP JUMPDEST PUSH1 0x84 PUSH1 0x40 MLOAD PUSH3 0x461BCD PUSH1 0xE5 SHL DUP2 MSTORE PUSH1 0x20 PUSH1 0x4 DUP3 ADD MSTORE PUSH1 0x21 PUSH1 0x24 DUP3 ADD MSTORE PUSH32 0x4661696C656420746F2073656E642045544820746F207465616D2077616C6C65 PUSH1 0x44 DUP3 ADD MSTORE PUSH32 0x7400000000000000000000000000000000000000000000000000000000000000 PUSH1 0x64 DUP3 ADD MSTORE REVERT JUMPDEST SWAP2 SWAP1 DUP3 SUB SWAP2 DUP3 GT PUSH3 0xD58 JUMPI JUMP JUMPDEST PUSH1 0x0 NOT DUP2 EQ PUSH3 0xD58 JUMPI PUSH1 0x1 ADD SWAP1 JUMP JUMPDEST MLOAD SWAP1 DUP2 PUSH1 0x2 SIGNEXTEND DUP3 SUB PUSH3 0x41B JUMPI JUMP JUMPDEST MLOAD SWAP1 PUSH16 0xFFFFFFFFFFFFFFFFFFFFFFFFFFFFFFFF DUP3 AND DUP3 SUB PUSH3 0x41B JUMPI JUMP JUMPDEST SWAP2 SWAP1 DUP3 PUSH2 0x180 SWAP2 SUB SLT PUSH3 0x41B JUMPI DUP2 MLOAD PUSH12 0xFFFFFFFFFFFFFFFFFFFFFFFF DUP2 AND DUP2 SUB PUSH3 0x41B JUMPI SWAP2 PUSH3 0x3909 PUSH1 0x20 DUP3 ADD PUSH3 0x36C6 JUMP JUMPDEST SWAP2 PUSH3 0x3918 PUSH1 0x40 DUP4 ADD PUSH3 0x36C6 JUMP JUMPDEST SWAP2 PUSH3 0x3927 PUSH1 0x60 DUP3 ADD PUSH3 0x36C6 JUMP JUMPDEST SWAP2 PUSH1 0x80 DUP3 ADD MLOAD PUSH3 0xFFFFFF DUP2 AND DUP2 SUB PUSH3 0x41B JUMPI SWAP2 PUSH3 0x3949 PUSH1 0xA0 DUP3 ADD PUSH3 0x38A7 JUMP JUMPDEST SWAP2 PUSH3 0x3958 PUSH1 0xC0 DUP4 ADD PUSH3 0x38A7 JUMP JUMPDEST SWAP2 PUSH3 0x3967 PUSH1 0xE0 DUP3 ADD PUSH3 0x38B6 JUMP JUMPDEST SWAP2 PUSH2 0x100 DUP3 ADD MLOAD SWAP2 PUSH2 0x120 DUP2 ADD MLOAD SWAP2 PUSH3 0x3994 PUSH2 0x160 PUSH3 0x398C PUSH2 0x140 DUP6 ADD PUSH3 0x38B6 JUMP JUMPDEST SWAP4 ADD PUSH3 0x38B6 JUMP JUMPDEST SWAP1 JUMP JUMPDEST SWAP1 PUSH1 0x40 DUP1 MLOAD SWAP4 PUSH1 0xA0 DUP6 ADD DUP6 DUP2 LT PUSH8 0xFFFFFFFFFFFFFFFF DUP3 GT OR PUSH3 0x1704 JUMPI DUP3 MSTORE PUSH1 0x1 PUSH1 0x1 PUSH1 0xA0 SHL SUB SWAP5 DUP6 DUP1 SWAP6 AND DUP2 MSTORE DUP5 PUSH1 0x20 DUP3 ADD SWAP5 AND DUP5 MSTORE DUP3 DUP2 ADD SWAP2 DUP3 MSTORE PUSH1 0x60 DUP2 ADD SWAP4 PUSH2 0x2710 DUP6 MSTORE DUP6 PUSH1 0x80 DUP4 ADD PUSH1 0x0 SWAP7 DUP8 SWAP6 DUP7 DUP4 MSTORE DUP4 DUP1 PUSH1 0x8 SLOAD AND SWAP6 DUP10 MLOAD SWAP13 DUP14 SWAP9 PUSH32 0xC6A5026A00000000000000000000000000000000000000000000000000000000 DUP11 MSTORE MLOAD AND PUSH1 0x4 DUP10 ADD MSTORE MLOAD AND PUSH1 0x24 DUP8 ADD MSTORE MLOAD PUSH1 0x44 DUP7 ADD MSTORE MLOAD PUSH3 0xFFFFFF AND PUSH1 0x64 DUP6 ADD MSTORE MLOAD AND PUSH1 0x84 DUP4 ADD MSTORE DUP2 GAS SWAP4 PUSH1 0xA4 SWAP3 PUSH1 0x80 SWAP6 CALL SWAP4 DUP5 ISZERO PUSH3 0x3AC0 JUMPI DUP3 SWAP5 PUSH3 0x3A62 JUMPI JUMPDEST POP POP POP POP SWAP1 JUMP JUMPDEST SWAP1 SWAP2 SWAP3 SWAP4 POP PUSH1 0x80 DUP2 RETURNDATASIZE PUSH1 0x80 GT PUSH3 0x3AB7 JUMPI JUMPDEST DUP2 PUSH3 0x3A83 PUSH1 0x80 SWAP4 DUP4 PUSH3 0x361C JUMP JUMPDEST DUP2 ADD SUB SLT PUSH3 0x7B6 JUMPI DUP1 MLOAD SWAP4 PUSH1 0x20 DUP3 ADD MLOAD SWAP1 DUP2 AND SUB PUSH3 0x7B6 JUMPI ADD MLOAD PUSH4 0xFFFFFFFF DUP2 AND SUB PUSH3 0x47A JUMPI POP CODESIZE DUP1 DUP1 DUP1 PUSH3 0x3A5B JUMP JUMPDEST RETURNDATASIZE SWAP2 POP PUSH3 0x3A74 JUMP JUMPDEST POP MLOAD SWAP1 RETURNDATASIZE SWAP1 DUP3 RETURNDATACOPY RETURNDATASIZE SWAP1 REVERT JUMPDEST ISZERO PUSH3 0x3AD3 JUMPI JUMP JUMPDEST PUSH1 0x64 PUSH1 0x40 MLOAD PUSH3 0x461BCD PUSH1 0xE5 SHL DUP2 MSTORE PUSH1 0x20 PUSH1 0x4 DUP3 ADD MSTORE PUSH1 0xF PUSH1 0x24 DUP3 ADD MSTORE PUSH32 0x417070726F76616C206661696C65640000000000000000000000000000000000 PUSH1 0x44 DUP3 ADD MSTORE REVERT JUMPDEST SWAP1 PUSH1 0x1 PUSH1 0x1 PUSH1 0xA0 SHL SUB PUSH3 0x3B31 DUP4 DUP4 DUP4 PUSH1 0x3 SLOAD AND PUSH3 0x3997 JUMP JUMPDEST SWAP2 PUSH1 0x5F DUP4 MUL SWAP3 DUP1 DUP5 DIV PUSH1 0x5F EQ SWAP1 ISZERO OR ISZERO PUSH3 0xD58 JUMPI DUP2 PUSH1 0x3 SLOAD AND SWAP2 DUP5 DUP2 PUSH1 0x7 SLOAD AND DUP3 PUSH1 0xB SLOAD AND CALLER EQ DUP1 ISZERO PUSH3 0x3C7E JUMPI JUMPDEST DUP1 ISZERO PUSH3 0x3C70 JUMPI JUMPDEST PUSH3 0x3B74 SWAP1 PUSH3 0x3735 JUMP JUMPDEST PUSH1 0x40 MLOAD PUSH4 0x95EA7B3 PUSH1 0xE0 SHL DUP2 MSTORE PUSH1 0x1 PUSH1 0x1 PUSH1 0xA0 SHL SUB SWAP1 SWAP2 AND PUSH1 0x4 DUP3 ADD MSTORE PUSH1 0x24 DUP2 ADD SWAP7 SWAP1 SWAP7 MSTORE PUSH1 0x20 SWAP6 DUP7 DUP2 DUP1 PUSH1 0x44 DUP2 ADD SUB DUP2 PUSH1 0x0 DUP1 SWAP10 GAS CALL SWAP1 DUP2 ISZERO PUSH3 0x793 JUMPI DUP8 SWAP5 SWAP4 SWAP3 SWAP2 PUSH3 0x3BCB SWAP2 DUP8 SWAP2 PUSH3 0x37B JUMPI POP PUSH3 0x3ACB JUMP JUMPDEST PUSH1 0x9 SLOAD PUSH1 0x3 SLOAD PUSH1 0x40 MLOAD PUSH4 0x39EC2721 PUSH1 0xE1 SHL DUP2 MSTORE PUSH1 0x1 PUSH1 0x1 PUSH1 0xA0 SHL SUB SWAP2 DUP6 AND DUP3 AND PUSH1 0x4 DUP3 ADD MSTORE SWAP5 AND PUSH1 0x24 DUP6 ADD MSTORE PUSH1 0x44 DUP5 ADD SWAP2 SWAP1 SWAP2 MSTORE PUSH1 0x64 SWAP6 DUP7 SWAP1 DIV SWAP6 DUP4 ADD SWAP6 SWAP1 SWAP6 MSTORE CALLER PUSH1 0x84 DUP4 ADD MSTORE SWAP1 SWAP4 DUP5 SWAP2 AND DUP2 DUP5 DUP2 PUSH1 0xA4 DUP2 ADD JUMPDEST SUB SWAP3 GAS CALL SWAP3 DUP4 ISZERO PUSH3 0xC21 JUMPI DUP2 SWAP4 PUSH3 0x3C39 JUMPI JUMPDEST POP POP POP SWAP1 JUMP JUMPDEST SWAP1 SWAP2 DUP1 SWAP4 POP DUP2 RETURNDATASIZE DUP4 GT PUSH3 0x3C68 JUMPI JUMPDEST PUSH3 0x3C54 DUP2 DUP4 PUSH3 0x361C JUMP JUMPDEST DUP2 ADD SUB SLT PUSH3 0x47A JUMPI POP MLOAD CODESIZE DUP1 DUP1 PUSH3 0x3C33 JUMP JUMPDEST POP RETURNDATASIZE PUSH3 0x3C48 JUMP JUMPDEST POP PUSH1 0xC SLOAD DUP4 AND CALLER EQ PUSH3 0x3B69 JUMP JUMPDEST POP ADDRESS CALLER EQ PUSH3 0x3B61 JUMP JUMPDEST PUSH3 0x3D04 PUSH1 0x6 SWAP2 DUP1 PUSH1 0x0 MSTORE PUSH1 0x19 PUSH1 0x20 MSTORE PUSH32 0x5B5116A6A7ED7078E6DA121CE407EB49B9DA5715F14154C54556529F996A4FB0 PUSH1 0x40 PUSH1 0x0 KECCAK256 SLOAD SWAP2 DUP5 PUSH3 0x3CCC DUP5 PUSH3 0x3570 JUMP JUMPDEST POP ADD SLOAD PUSH1 0x17 SLOAD GT ISZERO PUSH3 0x3D16 JUMPI JUMPDEST PUSH1 0xFF PUSH1 0x7 PUSH3 0x3CE9 DUP6 PUSH3 0x3570 JUMP JUMPDEST POP ADD SLOAD PUSH1 0x40 DUP1 MLOAD SWAP4 DUP5 MSTORE SWAP2 AND ISZERO ISZERO PUSH1 0x20 DUP4 ADD MSTORE SWAP1 LOG1 PUSH3 0x3570 JUMP JUMPDEST POP ADD PUSH3 0x3D12 DUP2 SLOAD PUSH3 0x3897 JUMP JUMPDEST SWAP1 SSTORE JUMP JUMPDEST PUSH1 0x7 PUSH3 0x3D23 DUP5 PUSH3 0x3570 JUMP JUMPDEST POP ADD DUP1 SLOAD PUSH1 0xFF NOT AND PUSH1 0x1 OR SWAP1 SSTORE PUSH3 0x3CDA JUMP JUMPDEST PUSH1 0x0 MSTORE PUSH1 0x19 PUSH1 0x20 MSTORE PUSH32 0x6F3E068CB934F31CFEA69B2F72E697ABFE27982D58FE7FCABB327C96C89CD33A PUSH1 0x40 PUSH1 0x0 KECCAK256 SLOAD PUSH1 0x0 PUSH1 0x6 PUSH3 0x3D74 DUP4 PUSH3 0x3570 JUMP JUMPDEST POP ADD SSTORE PUSH1 0xFF PUSH1 0x7 PUSH3 0x3D96 PUSH1 0x6 PUSH3 0x3D8C DUP6 PUSH3 0x3570 JUMP JUMPDEST POP ADD SLOAD SWAP4 PUSH3 0x3570 JUMP JUMPDEST POP ADD SLOAD PUSH1 0x40 DUP1 MLOAD SWAP4 DUP5 MSTORE SWAP2 AND ISZERO ISZERO PUSH1 0x20 DUP4 ADD MSTORE SWAP1 LOG1 JUMP JUMPDEST SWAP1 PUSH1 0x1 PUSH1 0x1 PUSH1 0xA0 SHL SUB SWAP2 PUSH3 0x3DC8 DUP2 DUP5 PUSH1 0x3 SLOAD AND DUP5 PUSH3 0x3997 JUMP JUMPDEST SWAP2 PUSH1 0x5F DUP4 MUL SWAP3 DUP1 DUP5 DIV PUSH1 0x5F EQ SWAP1 ISZERO OR ISZERO PUSH3 0xD58 JUMPI DUP4 PUSH1 0x7 SLOAD AND SWAP4 DUP1 PUSH1 0xB SLOAD AND CALLER EQ DUP1 ISZERO PUSH3 0x3EC5 JUMPI JUMPDEST DUP1 ISZERO PUSH3 0x3EB7 JUMPI JUMPDEST PUSH3 0x3E05 SWAP1 PUSH3 0x3735 JUMP JUMPDEST PUSH1 0x40 MLOAD PUSH4 0x95EA7B3 PUSH1 0xE0 SHL DUP2 MSTORE PUSH1 0x1 PUSH1 0x1 PUSH1 0xA0 SHL SUB SWAP6 SWAP1 SWAP6 AND PUSH1 0x4 DUP7 ADD MSTORE PUSH1 0x24 DUP6 ADD DUP4 SWAP1 MSTORE PUSH1 0x20 SWAP5 PUSH1 0x0 SWAP4 SWAP1 DUP7 DUP2 PUSH1 0x44 DUP2 DUP9 DUP9 DUP9 AND GAS CALL SWAP1 DUP2 ISZERO PUSH3 0x793 JUMPI DUP8 SWAP5 SWAP4 SWAP3 SWAP2 PUSH3 0x3E5C SWAP2 DUP8 SWAP2 PUSH3 0x37B JUMPI POP PUSH3 0x3ACB JUMP JUMPDEST PUSH1 0x9 SLOAD PUSH1 0x3 SLOAD PUSH1 0x40 MLOAD PUSH4 0x39EC2721 PUSH1 0xE1 SHL DUP2 MSTORE PUSH1 0x1 PUSH1 0x1 PUSH1 0xA0 SHL SUB SWAP6 DUP7 AND PUSH1 0x4 DUP3 ADD MSTORE SWAP1 DUP5 AND SWAP1 SWAP5 AND PUSH1 0x24 DUP6 ADD MSTORE PUSH1 0x44 DUP5 ADD SWAP2 SWAP1 SWAP2 MSTORE PUSH1 0x64 SWAP6 DUP7 SWAP1 DIV SWAP6 DUP4 ADD SWAP6 SWAP1 SWAP6 MSTORE ADDRESS PUSH1 0x84 DUP4 ADD MSTORE SWAP1 SWAP4 DUP5 SWAP2 AND DUP2 DUP5 DUP2 PUSH1 0xA4 DUP2 ADD PUSH3 0x3C1F JUMP JUMPDEST POP PUSH1 0xC SLOAD DUP2 AND CALLER EQ PUSH3 0x3DFA JUMP JUMPDEST POP ADDRESS CALLER EQ PUSH3 0x3DF2 JUMP JUMPDEST PUSH3 0x3F13 PUSH1 0x0 SWAP3 PUSH1 0xB SWAP3 DUP5 MSTORE PUSH1 0x19 PUSH1 0x20 MSTORE PUSH1 0x40 DUP5 KECCAK256 SLOAD SWAP1 PUSH1 0x9 PUSH3 0x3EF3 DUP4 PUSH3 0x3570 JUMP JUMPDEST POP ADD SSTORE PUSH1 0xA PUSH3 0x3F03 DUP3 PUSH3 0x3570 JUMP JUMPDEST POP ADD DUP1 SLOAD PUSH1 0xFF NOT AND SWAP1 SSTORE PUSH3 0x3570 JUMP JUMPDEST POP ADD SSTORE JUMP JUMPDEST SWAP2 SWAP1 PUSH1 0x0 DUP4 DUP2 MSTORE PUSH1 0x20 SWAP1 PUSH1 0x19 DUP3 MSTORE PUSH1 0x40 SWAP2 DUP3 DUP3 KECCAK256 SLOAD SWAP6 PUSH1 0x1 PUSH1 0x1 PUSH1 0xA0 SHL SUB SWAP1 DUP5 PUSH16 0xFFFFFFFFFFFFFFFFFFFFFFFFFFFFFFFF PUSH1 0x44 DUP5 PUSH1 0x9 SLOAD AND SWAP9 DUP8 DUP5 MLOAD SWAP11 DUP12 SWAP5 DUP6 SWAP4 PUSH32 0x911757BA00000000000000000000000000000000000000000000000000000000 DUP6 MSTORE DUP9 PUSH1 0x4 DUP7 ADD MSTORE AND PUSH1 0x24 DUP5 ADD MSTORE GAS CALL SWAP8 DUP9 ISZERO PUSH3 0x416D JUMPI DUP5 SWAP7 DUP6 SWAP10 PUSH3 0x41D6 JUMPI JUMPDEST POP PUSH3 0x3FAA PUSH1 0x5 SWAP2 PUSH3 0x3570 JUMP JUMPDEST POP ADD DUP1 SLOAD PUSH1 0xFF NOT AND PUSH1 0x1 OR SWAP1 SSTORE DUP5 MLOAD SWAP1 DUP2 MSTORE PUSH1 0x20 DUP2 ADD DUP7 SWAP1 MSTORE PUSH1 0x40 DUP2 ADD DUP9 SWAP1 MSTORE CALLER SWAP1 PUSH32 0x1DC8BB69DF2B8E91FBDCBFCF93D951B3F0000F085A95FE3F7946D6161439245D SWAP1 PUSH1 0x60 SWAP1 LOG2 DUP1 PUSH1 0xB SLOAD AND CALLER EQ DUP1 ISZERO PUSH3 0x41CC JUMPI JUMPDEST DUP1 ISZERO PUSH3 0x41BE JUMPI JUMPDEST PUSH3 0x4014 SWAP1 PUSH3 0x3735 JUMP JUMPDEST DUP1 PUSH1 0x3 SLOAD AND DUP5 MLOAD PUSH4 0x70A08231 PUSH1 0xE0 SHL DUP2 MSTORE ADDRESS PUSH1 0x4 DUP3 ADD MSTORE DUP4 DUP2 PUSH1 0x24 DUP2 DUP6 GAS STATICCALL SWAP1 DUP2 ISZERO PUSH3 0x41B4 JUMPI DUP6 SWAP2 PUSH3 0x4181 JUMPI JUMPDEST POP PUSH1 0x1A SLOAD DUP1 SWAP2 LT ISZERO DUP1 PUSH3 0x4177 JUMPI JUMPDEST PUSH3 0x4062 JUMPI JUMPDEST POP POP POP POP POP POP SWAP2 SWAP1 JUMP JUMPDEST DUP4 SWAP1 PUSH1 0x44 DUP5 PUSH1 0xC SLOAD AND DUP8 DUP10 MLOAD SWAP6 DUP7 SWAP5 DUP6 SWAP4 PUSH4 0xA9059CBB PUSH1 0xE0 SHL DUP6 MSTORE PUSH1 0x4 DUP6 ADD MSTORE PUSH1 0x24 DUP5 ADD MSTORE GAS CALL DUP1 ISZERO PUSH3 0x416D JUMPI PUSH3 0x414B JUMPI JUMPDEST POP PUSH1 0xC SLOAD AND PUSH1 0x1A SLOAD DUP2 EXTCODESIZE ISZERO PUSH3 0xC1D JUMPI DUP4 SWAP2 PUSH1 0x24 DUP4 SWAP3 DUP8 MLOAD SWAP5 DUP6 SWAP4 DUP5 SWAP3 PUSH4 0x9B5CEB35 PUSH1 0xE0 SHL DUP5 MSTORE PUSH1 0x4 DUP5 ADD MSTORE GAS CALL DUP1 ISZERO PUSH3 0x4141 JUMPI PUSH3 0x410D JUMPI JUMPDEST POP PUSH32 0x8FF98A7F9BEDB57DF86769D07998B067FBA595272053E3690D3412AFF560A82C SWAP2 SWAP3 PUSH1 0x1A SLOAD SWAP1 MLOAD SWAP1 DUP2 MSTORE LOG1 PUSH1 0x1A SSTORE CODESIZE DUP1 DUP1 DUP1 DUP1 DUP1 PUSH3 0x4058 JUMP JUMPDEST SWAP2 PUSH3 0x413A PUSH32 0x8FF98A7F9BEDB57DF86769D07998B067FBA595272053E3690D3412AFF560A82C SWAP4 PUSH3 0x3607 JUMP JUMPDEST SWAP2 PUSH3 0x40D1 JUMP JUMPDEST DUP5 MLOAD RETURNDATASIZE DUP6 DUP3 RETURNDATACOPY RETURNDATASIZE SWAP1 REVERT JUMPDEST PUSH3 0x4165 SWAP1 DUP4 RETURNDATASIZE DUP6 GT PUSH3 0x368 JUMPI PUSH3 0x358 DUP2 DUP4 PUSH3 0x361C JUMP JUMPDEST POP CODESIZE PUSH3 0x4096 JUMP JUMPDEST DUP6 MLOAD RETURNDATASIZE DUP7 DUP3 RETURNDATACOPY RETURNDATASIZE SWAP1 REVERT JUMPDEST POP DUP1 ISZERO ISZERO PUSH3 0x4052 JUMP JUMPDEST SWAP1 POP DUP4 DUP2 DUP2 RETURNDATASIZE DUP4 GT PUSH3 0x41AC JUMPI JUMPDEST PUSH3 0x419B DUP2 DUP4 PUSH3 0x361C JUMP JUMPDEST DUP2 ADD SUB SLT PUSH3 0x115D JUMPI MLOAD CODESIZE PUSH3 0x4043 JUMP JUMPDEST POP RETURNDATASIZE PUSH3 0x418F JUMP JUMPDEST DUP7 MLOAD RETURNDATASIZE DUP8 DUP3 RETURNDATACOPY RETURNDATASIZE SWAP1 REVERT JUMPDEST POP PUSH1 0xC SLOAD DUP2 AND CALLER EQ PUSH3 0x4009 JUMP JUMPDEST POP ADDRESS CALLER EQ PUSH3 0x4001 JUMP JUMPDEST PUSH1 0x5 SWAP2 SWAP10 POP PUSH3 0x3FAA SWAP8 POP PUSH3 0x41FB SWAP1 DUP8 RETURNDATASIZE DUP10 GT PUSH3 0x2502 JUMPI PUSH3 0x24EF DUP2 DUP4 PUSH3 0x361C JUMP JUMPDEST SWAP8 SWAP1 SWAP8 SWAP10 SWAP2 POP PUSH3 0x3F9C JUMP INVALID PUSH1 0x40 PUSH1 0x80 DUP2 MSTORE CALLVALUE PUSH3 0x6A3 JUMPI PUSH3 0x1333 DUP1 CODESIZE SUB DUP1 PUSH3 0x1E DUP2 PUSH3 0x6A8 JUMP JUMPDEST SWAP3 DUP4 CODECOPY DUP2 ADD PUSH1 0x80 DUP3 DUP3 SUB SLT PUSH3 0x6A3 JUMPI DUP2 MLOAD PUSH1 0x1 PUSH1 0x1 PUSH1 0x40 SHL SUB SWAP1 DUP2 DUP2 GT PUSH3 0x6A3 JUMPI DUP3 PUSH3 0x4F SWAP2 DUP6 ADD PUSH3 0x6CE JUMP JUMPDEST PUSH1 0x20 SWAP3 DUP4 DUP6 ADD MLOAD SWAP1 DUP4 DUP3 GT PUSH3 0x6A3 JUMPI PUSH3 0x6C SWAP2 DUP7 ADD PUSH3 0x6CE JUMP JUMPDEST DUP6 DUP6 ADD MLOAD PUSH1 0x60 SWAP1 SWAP6 ADD MLOAD SWAP1 SWAP3 PUSH1 0x1 PUSH1 0x1 PUSH1 0xA0 SHL SUB SWAP2 DUP3 DUP2 AND SWAP1 DUP2 SWAP1 SUB PUSH3 0x6A3 JUMPI DUP4 MLOAD DUP3 DUP2 GT PUSH3 0x5A3 JUMPI PUSH1 0x3 DUP1 SLOAD SWAP2 PUSH1 0x1 SWAP7 DUP8 DUP5 DUP2 SHR SWAP5 AND DUP1 ISZERO PUSH3 0x698 JUMPI JUMPDEST DUP11 DUP6 LT EQ PUSH3 0x682 JUMPI DUP2 SWAP1 PUSH1 0x1F SWAP5 DUP6 DUP2 GT PUSH3 0x62C JUMPI JUMPDEST POP DUP11 SWAP1 DUP6 DUP4 GT PUSH1 0x1 EQ PUSH3 0x5C5 JUMPI PUSH1 0x0 SWAP3 PUSH3 0x5B9 JUMPI JUMPDEST POP POP PUSH1 0x0 NOT DUP3 DUP5 SHL SHR NOT AND SWAP1 DUP8 SHL OR DUP2 SSTORE JUMPDEST DUP7 MLOAD SWAP2 DUP5 DUP4 GT PUSH3 0x5A3 JUMPI PUSH1 0x4 SWAP8 DUP9 SLOAD DUP9 DUP2 DUP2 SHR SWAP2 AND DUP1 ISZERO PUSH3 0x598 JUMPI JUMPDEST DUP12 DUP3 LT EQ PUSH3 0x583 JUMPI SWAP1 DUP2 DUP4 DUP7 SWAP6 SWAP5 SWAP4 GT PUSH3 0x529 JUMPI JUMPDEST POP DUP11 SWAP2 DUP5 GT PUSH1 0x1 EQ PUSH3 0x4BE JUMPI PUSH1 0x0 SWAP4 PUSH3 0x4B2 JUMPI JUMPDEST POP POP DUP3 DUP8 SHL SWAP3 PUSH1 0x0 NOT SWAP2 SHL SHR NOT AND OR DUP6 SSTORE JUMPDEST PUSH1 0x1 DUP1 PUSH1 0xA0 SHL SUB NOT SWAP1 PUSH2 0xDEAD DUP3 PUSH1 0x8 SLOAD AND OR PUSH1 0x8 SSTORE PUSH1 0x5 PUSH1 0xA SSTORE PUSH1 0xFF NOT PUSH1 0xC SLOAD AND PUSH1 0xC SSTORE PUSH8 0xDE0B6B3A7640000 SWAP8 DUP9 DUP2 MUL SWAP9 DUP2 DUP11 DIV EQ DUP2 ISZERO OR ISZERO PUSH3 0x49D JUMPI PUSH8 0x4563918244F40000 MUL DUP9 DUP2 DIV PUSH1 0x5 EQ DUP10 ISZERO OR ISZERO PUSH3 0x49D JUMPI PUSH1 0x64 SWAP1 DIV PUSH1 0x5 SSTORE DUP2 PUSH1 0x7 SLOAD AND OR PUSH1 0x7 SSTORE DUP8 MLOAD SWAP2 PUSH1 0x60 DUP4 ADD SWAP1 DUP4 DUP3 LT SWAP1 DUP3 GT OR PUSH3 0x488 JUMPI DUP9 MSTORE ADDRESS DUP3 MSTORE DUP6 DUP3 ADD SWAP2 PUSH1 0x0 DUP4 MSTORE DUP9 DUP2 ADD SWAP3 ADDRESS DUP5 MSTORE PUSH1 0xD SLOAD PUSH9 0x10000000000000000 DUP2 LT ISZERO PUSH3 0x473 JUMPI DUP1 DUP8 PUSH3 0x200 SWAP3 ADD PUSH1 0xD SSTORE PUSH3 0x740 JUMP JUMPDEST SWAP3 SWAP1 SWAP3 PUSH3 0x45F JUMPI MLOAD DUP3 SLOAD SWAP2 MLOAD PUSH1 0x1 PUSH1 0x1 PUSH1 0xA8 SHL SUB NOT SWAP1 SWAP3 AND SWAP1 DUP7 AND OR SWAP1 ISZERO ISZERO PUSH1 0xA0 SHL PUSH1 0xFF PUSH1 0xA0 SHL AND OR DUP2 SSTORE SWAP2 MLOAD SWAP2 DUP5 ADD DUP1 SLOAD SWAP1 SWAP2 AND SWAP2 DUP4 AND SWAP2 SWAP1 SWAP2 OR SWAP1 SSTORE PUSH1 0xD SLOAD PUSH1 0x0 NOT DUP2 ADD SWAP1 DUP2 GT PUSH3 0x44A JUMPI ADDRESS PUSH1 0x0 MSTORE PUSH1 0xE DUP6 MSTORE DUP7 PUSH1 0x0 KECCAK256 SSTORE CALLER ISZERO PUSH3 0x433 JUMPI ADDRESS PUSH1 0x0 MSTORE PUSH1 0xE DUP5 MSTORE DUP6 PUSH1 0x0 KECCAK256 SLOAD SWAP2 DUP1 PUSH1 0xFF PUSH3 0x27F DUP6 PUSH3 0x740 JUMP JUMPDEST POP SLOAD PUSH1 0xA0 SHR AND ISZERO ISZERO EQ SWAP3 DUP4 PUSH3 0x422 JUMPI JUMPDEST DUP4 PUSH3 0x413 JUMPI JUMPDEST DUP4 PUSH3 0x402 JUMPI JUMPDEST DUP4 PUSH3 0x3F6 JUMPI JUMPDEST DUP4 PUSH3 0x3EC JUMPI JUMPDEST DUP4 PUSH3 0x3CE JUMPI JUMPDEST POP POP POP PUSH3 0x317 JUMPI JUMPDEST POP PUSH32 0xDDF252AD1BE2C89B69C2B068FC378DAA952BA7F163C4A11628F55A4DF523B3EF PUSH1 0x0 SWAP2 PUSH3 0x2EF DUP5 PUSH1 0x2 SLOAD PUSH3 0x776 JUMP JUMPDEST PUSH1 0x2 SSTORE CALLER DUP4 MSTORE DUP3 DUP2 MSTORE DUP5 DUP4 KECCAK256 DUP5 DUP2 SLOAD ADD SWAP1 SSTORE DUP5 MLOAD SWAP4 DUP5 MSTORE CALLER SWAP4 LOG3 MLOAD PUSH2 0xB98 SWAP1 DUP2 PUSH3 0x79B DUP3 CODECOPY RETURN JUMPDEST PUSH1 0x2 SLOAD PUSH1 0xA SLOAD SWAP1 DUP2 DUP2 MUL SWAP2 DUP2 DUP4 DIV EQ SWAP1 ISZERO OR ISZERO PUSH3 0x3B9 JUMPI PUSH1 0x64 SWAP1 CALLER PUSH1 0x0 MSTORE PUSH1 0x0 DUP5 MSTORE DIV PUSH3 0x34B DUP5 DUP7 PUSH1 0x0 KECCAK256 SLOAD PUSH3 0x776 JUMP JUMPDEST GT ISZERO PUSH3 0x2BC JUMPI PUSH1 0x84 SWAP2 DUP5 MLOAD SWAP2 PUSH3 0x461BCD PUSH1 0xE5 SHL DUP4 MSTORE DUP3 ADD MSTORE PUSH1 0x36 PUSH1 0x24 DUP3 ADD MSTORE PUSH32 0x4D79546F6B656E3A205472616E7366657220616D6F756E742065786365656473 PUSH1 0x44 DUP3 ADD MSTORE PUSH32 0x20746865206D617820686F6C64696E67206C696D697400000000000000000000 PUSH1 0x64 DUP3 ADD MSTORE REVERT JUMPDEST PUSH1 0x11 DUP3 PUSH4 0x4E487B71 PUSH1 0xE0 SHL PUSH1 0x0 MSTORE MSTORE PUSH1 0x24 PUSH1 0x0 REVERT JUMPDEST PUSH3 0x3DC SWAP2 SWAP3 SWAP4 POP PUSH3 0x740 JUMP JUMPDEST POP ADD SLOAD AND CALLER EQ ISZERO CODESIZE DUP1 DUP1 PUSH3 0x2B3 JUMP JUMPDEST SWAP3 POP DUP1 SWAP3 PUSH3 0x2AC JUMP JUMPDEST CALLER ADDRESS EQ ISZERO SWAP4 POP PUSH3 0x2A5 JUMP JUMPDEST SWAP3 POP DUP2 PUSH1 0x8 SLOAD AND CALLER EQ ISZERO SWAP3 PUSH3 0x29E JUMP JUMPDEST PUSH1 0x7 SLOAD DUP4 AND ISZERO ISZERO SWAP4 POP PUSH3 0x297 JUMP JUMPDEST SWAP3 POP DUP2 PUSH1 0x7 SLOAD AND CALLER EQ ISZERO SWAP3 PUSH3 0x290 JUMP JUMPDEST DUP6 MLOAD PUSH4 0xEC442F05 PUSH1 0xE0 SHL DUP2 MSTORE PUSH1 0x0 DUP2 DUP6 ADD MSTORE PUSH1 0x24 SWAP1 REVERT JUMPDEST PUSH1 0x11 DUP5 PUSH4 0x4E487B71 PUSH1 0xE0 SHL PUSH1 0x0 MSTORE MSTORE PUSH1 0x24 PUSH1 0x0 REVERT JUMPDEST PUSH1 0x0 DUP9 PUSH4 0x4E487B71 PUSH1 0xE0 SHL DUP3 MSTORE MSTORE PUSH1 0x24 PUSH1 0x0 REVERT JUMPDEST PUSH1 0x41 DUP9 PUSH4 0x4E487B71 PUSH1 0xE0 SHL PUSH1 0x0 MSTORE MSTORE PUSH1 0x24 PUSH1 0x0 REVERT JUMPDEST PUSH1 0x41 DUP7 PUSH4 0x4E487B71 PUSH1 0xE0 SHL PUSH1 0x0 MSTORE MSTORE PUSH1 0x24 PUSH1 0x0 REVERT JUMPDEST PUSH1 0x11 DUP8 PUSH4 0x4E487B71 PUSH1 0xE0 SHL PUSH1 0x0 MSTORE MSTORE PUSH1 0x24 PUSH1 0x0 REVERT JUMPDEST ADD MLOAD SWAP2 POP CODESIZE DUP1 PUSH3 0x138 JUMP JUMPDEST SWAP2 SWAP1 DUP9 SWAP5 POP PUSH1 0x1F NOT DUP5 AND SWAP3 DUP11 PUSH1 0x0 MSTORE DUP12 PUSH1 0x0 KECCAK256 SWAP4 PUSH1 0x0 JUMPDEST DUP14 DUP3 DUP3 LT PUSH3 0x512 JUMPI POP POP DUP6 GT PUSH3 0x4F7 JUMPI JUMPDEST POP POP POP POP DUP2 SHL ADD DUP6 SSTORE PUSH3 0x14A JUMP JUMPDEST ADD MLOAD SWAP1 PUSH1 0xF8 DUP5 PUSH1 0x0 NOT SWAP3 SHL AND SHR NOT AND SWAP1 SSTORE CODESIZE DUP1 DUP1 DUP1 PUSH3 0x4E8 JUMP JUMPDEST DUP4 DUP6 ADD MLOAD DUP8 SSTORE DUP13 SWAP9 SWAP1 SWAP7 ADD SWAP6 SWAP4 DUP5 ADD SWAP4 ADD PUSH3 0x4D5 JUMP JUMPDEST SWAP1 SWAP2 SWAP3 SWAP4 POP DUP10 PUSH1 0x0 MSTORE DUP11 PUSH1 0x0 KECCAK256 DUP4 DUP1 DUP8 ADD PUSH1 0x5 SHR DUP3 ADD SWAP3 DUP14 DUP9 LT PUSH3 0x579 JUMPI JUMPDEST SWAP2 DUP12 SWAP2 DUP9 SWAP8 SWAP7 SWAP6 SWAP5 SWAP4 ADD PUSH1 0x5 SHR ADD SWAP2 JUMPDEST DUP3 DUP2 LT PUSH3 0x569 JUMPI POP POP PUSH3 0x122 JUMP JUMPDEST PUSH1 0x0 DUP2 SSTORE DUP8 SWAP7 POP DUP12 SWAP2 ADD PUSH3 0x559 JUMP JUMPDEST SWAP3 POP DUP2 SWAP3 PUSH3 0x549 JUMP JUMPDEST PUSH1 0x22 DUP11 PUSH4 0x4E487B71 PUSH1 0xE0 SHL PUSH1 0x0 MSTORE MSTORE PUSH1 0x24 PUSH1 0x0 REVERT JUMPDEST SWAP1 PUSH1 0x7F AND SWAP1 PUSH3 0x10B JUMP JUMPDEST PUSH4 0x4E487B71 PUSH1 0xE0 SHL PUSH1 0x0 MSTORE PUSH1 0x41 PUSH1 0x4 MSTORE PUSH1 0x24 PUSH1 0x0 REVERT JUMPDEST ADD MLOAD SWAP1 POP CODESIZE DUP1 PUSH3 0xDB JUMP JUMPDEST PUSH1 0x0 DUP6 DUP2 MSTORE DUP13 DUP2 KECCAK256 DUP12 SWAP6 POP SWAP3 SWAP2 SWAP1 PUSH1 0x1F NOT DUP6 AND SWAP1 DUP15 JUMPDEST DUP3 DUP3 LT PUSH3 0x614 JUMPI POP POP DUP5 GT PUSH3 0x5FB JUMPI JUMPDEST POP POP POP DUP2 SHL ADD DUP2 SSTORE PUSH3 0xED JUMP JUMPDEST ADD MLOAD PUSH1 0x0 NOT DUP4 DUP7 SHL PUSH1 0xF8 AND SHR NOT AND SWAP1 SSTORE CODESIZE DUP1 DUP1 PUSH3 0x5ED JUMP JUMPDEST DUP4 DUP6 ADD MLOAD DUP7 SSTORE DUP14 SWAP8 SWAP1 SWAP6 ADD SWAP5 SWAP4 DUP5 ADD SWAP4 ADD DUP15 PUSH3 0x5DB JUMP JUMPDEST SWAP1 SWAP2 POP DUP4 PUSH1 0x0 MSTORE DUP11 PUSH1 0x0 KECCAK256 DUP6 DUP1 DUP6 ADD PUSH1 0x5 SHR DUP3 ADD SWAP3 DUP14 DUP7 LT PUSH3 0x678 JUMPI JUMPDEST SWAP2 DUP12 SWAP2 DUP7 SWAP6 SWAP5 SWAP4 ADD PUSH1 0x5 SHR ADD SWAP2 JUMPDEST DUP3 DUP2 LT PUSH3 0x668 JUMPI POP POP PUSH3 0xC4 JUMP JUMPDEST PUSH1 0x0 DUP2 SSTORE DUP6 SWAP5 POP DUP12 SWAP2 ADD PUSH3 0x658 JUMP JUMPDEST SWAP3 POP DUP2 SWAP3 PUSH3 0x64A JUMP JUMPDEST PUSH4 0x4E487B71 PUSH1 0xE0 SHL PUSH1 0x0 MSTORE PUSH1 0x22 PUSH1 0x4 MSTORE PUSH1 0x24 PUSH1 0x0 REVERT JUMPDEST SWAP4 PUSH1 0x7F AND SWAP4 PUSH3 0xAD JUMP JUMPDEST PUSH1 0x0 DUP1 REVERT JUMPDEST PUSH1 0x40 MLOAD SWAP2 SWAP1 PUSH1 0x1F ADD PUSH1 0x1F NOT AND DUP3 ADD PUSH1 0x1 PUSH1 0x1 PUSH1 0x40 SHL SUB DUP2 GT DUP4 DUP3 LT OR PUSH3 0x5A3 JUMPI PUSH1 0x40 MSTORE JUMP JUMPDEST SWAP2 SWAP1 DUP1 PUSH1 0x1F DUP5 ADD SLT ISZERO PUSH3 0x6A3 JUMPI DUP3 MLOAD PUSH1 0x1 PUSH1 0x1 PUSH1 0x40 SHL SUB DUP2 GT PUSH3 0x5A3 JUMPI PUSH1 0x20 SWAP1 PUSH3 0x704 PUSH1 0x1F DUP3 ADD PUSH1 0x1F NOT AND DUP4 ADD PUSH3 0x6A8 JUMP JUMPDEST SWAP3 DUP2 DUP5 MSTORE DUP3 DUP3 DUP8 ADD ADD GT PUSH3 0x6A3 JUMPI PUSH1 0x0 JUMPDEST DUP2 DUP2 LT PUSH3 0x72C JUMPI POP DUP3 PUSH1 0x0 SWAP4 SWAP5 SWAP6 POP ADD ADD MSTORE SWAP1 JUMP JUMPDEST DUP6 DUP2 ADD DUP4 ADD MLOAD DUP5 DUP3 ADD DUP5 ADD MSTORE DUP3 ADD PUSH3 0x716 JUMP JUMPDEST PUSH1 0xD SLOAD DUP2 LT ISZERO PUSH3 0x760 JUMPI PUSH1 0xD PUSH1 0x0 MSTORE PUSH1 0x20 PUSH1 0x0 KECCAK256 SWAP1 PUSH1 0x1 SHL ADD SWAP1 PUSH1 0x0 SWAP1 JUMP JUMPDEST PUSH4 0x4E487B71 PUSH1 0xE0 SHL PUSH1 0x0 MSTORE PUSH1 0x32 PUSH1 0x4 MSTORE PUSH1 0x24 PUSH1 0x0 REVERT JUMPDEST SWAP2 SWAP1 DUP3 ADD DUP1 SWAP3 GT PUSH3 0x784 JUMPI JUMP JUMPDEST PUSH4 0x4E487B71 PUSH1 0xE0 SHL PUSH1 0x0 MSTORE PUSH1 0x11 PUSH1 0x4 MSTORE PUSH1 0x24 PUSH1 0x0 REVERT INVALID PUSH1 0x80 PUSH1 0x40 DUP2 DUP2 MSTORE PUSH1 0x4 SWAP2 DUP3 CALLDATASIZE LT ISZERO PUSH2 0x16 JUMPI PUSH1 0x0 DUP1 REVERT JUMPDEST PUSH1 0x0 SWAP3 DUP4 CALLDATALOAD PUSH1 0xE0 SHR SWAP2 DUP3 PUSH4 0x6647125 EQ PUSH2 0x7D4 JUMPI POP DUP2 PUSH4 0x6FDDE03 EQ PUSH2 0x6F8 JUMPI DUP2 PUSH4 0x95EA7B3 EQ PUSH2 0x650 JUMPI DUP2 PUSH4 0x18160DDD EQ PUSH2 0x631 JUMPI DUP2 PUSH4 0x23B872DD EQ PUSH2 0x525 JUMPI DUP2 PUSH4 0x27C8F835 EQ PUSH2 0x4FD JUMPI DUP2 PUSH4 0x313CE567 EQ PUSH2 0x4E1 JUMPI DUP2 PUSH4 0x333E6F06 EQ PUSH2 0x4C2 JUMPI DUP2 PUSH4 0x5EDFD7CE EQ PUSH2 0x378 JUMPI DUP2 PUSH4 0x634282AF EQ PUSH2 0x31A JUMPI DUP2 PUSH4 0x70A08231 EQ PUSH2 0x2E4 JUMPI DUP2 PUSH4 0x95D89B41 EQ PUSH2 0x1C3 JUMPI POP DUP1 PUSH4 0x966DAE0E EQ PUSH2 0x19C JUMPI DUP1 PUSH4 0xA9059CBB EQ PUSH2 0x16C JUMPI DUP1 PUSH4 0xAA4BDE28 EQ PUSH2 0x14E JUMPI DUP1 PUSH4 0xD045A329 EQ PUSH2 0x12B JUMPI PUSH4 0xDD62ED3E EQ PUSH2 0xE0 JUMPI PUSH1 0x0 DUP1 REVERT JUMPDEST CALLVALUE PUSH2 0x127 JUMPI DUP1 PUSH1 0x3 NOT CALLDATASIZE ADD SLT PUSH2 0x127 JUMPI DUP1 PUSH1 0x20 SWAP3 PUSH2 0xFC PUSH2 0x839 JUMP JUMPDEST PUSH2 0x104 PUSH2 0x854 JUMP JUMPDEST PUSH1 0x1 PUSH1 0x1 PUSH1 0xA0 SHL SUB SWAP2 DUP3 AND DUP4 MSTORE PUSH1 0x1 DUP7 MSTORE DUP4 DUP4 KECCAK256 SWAP2 AND DUP3 MSTORE DUP5 MSTORE KECCAK256 SLOAD SWAP1 MLOAD SWAP1 DUP2 MSTORE RETURN JUMPDEST POP DUP1 REVERT JUMPDEST POP CALLVALUE PUSH2 0x127 JUMPI DUP2 PUSH1 0x3 NOT CALLDATASIZE ADD SLT PUSH2 0x127 JUMPI PUSH1 0x20 SWAP1 PUSH1 0xFF PUSH1 0xC SLOAD AND SWAP1 MLOAD SWAP1 ISZERO ISZERO DUP2 MSTORE RETURN JUMPDEST POP CALLVALUE PUSH2 0x127 JUMPI DUP2 PUSH1 0x3 NOT CALLDATASIZE ADD SLT PUSH2 0x127 JUMPI PUSH1 0x20 SWAP1 PUSH1 0xB SLOAD SWAP1 MLOAD SWAP1 DUP2 MSTORE RETURN JUMPDEST POP CALLVALUE PUSH2 0x127 JUMPI DUP1 PUSH1 0x3 NOT CALLDATASIZE ADD SLT PUSH2 0x127 JUMPI PUSH1 0x20 SWAP1 PUSH2 0x195 PUSH2 0x18B PUSH2 0x839 JUMP JUMPDEST PUSH1 0x24 CALLDATALOAD SWAP1 CALLER PUSH2 0x8E3 JUMP JUMPDEST MLOAD PUSH1 0x1 DUP2 MSTORE RETURN JUMPDEST POP CALLVALUE PUSH2 0x127 JUMPI DUP2 PUSH1 0x3 NOT CALLDATASIZE ADD SLT PUSH2 0x127 JUMPI PUSH1 0x20 SWAP1 PUSH1 0x1 PUSH1 0x1 PUSH1 0xA0 SHL SUB PUSH1 0x7 SLOAD AND SWAP1 MLOAD SWAP1 DUP2 MSTORE RETURN JUMPDEST DUP4 DUP4 CALLVALUE PUSH2 0x127 JUMPI DUP2 PUSH1 0x3 NOT CALLDATASIZE ADD SLT PUSH2 0x127 JUMPI DUP1 MLOAD SWAP1 DUP3 DUP5 SLOAD PUSH1 0x1 DUP2 PUSH1 0x1 SHR SWAP1 PUSH1 0x1 DUP4 AND SWAP3 DUP4 ISZERO PUSH2 0x2DA JUMPI JUMPDEST PUSH1 0x20 SWAP4 DUP5 DUP5 LT DUP2 EQ PUSH2 0x2C7 JUMPI DUP4 DUP9 MSTORE SWAP1 DUP2 ISZERO PUSH2 0x2AB JUMPI POP PUSH1 0x1 EQ PUSH2 0x256 JUMPI JUMPDEST POP POP POP DUP3 SWAP1 SUB PUSH1 0x1F ADD PUSH1 0x1F NOT AND DUP3 ADD SWAP3 PUSH8 0xFFFFFFFFFFFFFFFF DUP5 GT DUP4 DUP6 LT OR PUSH2 0x243 JUMPI POP DUP3 SWAP2 DUP3 PUSH2 0x23F SWAP3 MSTORE DUP3 PUSH2 0x7F0 JUMP JUMPDEST SUB SWAP1 RETURN JUMPDEST DUP1 PUSH1 0x41 DUP7 PUSH4 0x4E487B71 PUSH1 0xE0 SHL PUSH1 0x24 SWAP5 MSTORE MSTORE REVERT JUMPDEST DUP8 DUP8 MSTORE SWAP2 SWAP3 POP DUP6 SWAP2 DUP4 PUSH32 0x8A35ACFBC15FF81A39AE7D344FD709F28E8600B4AA8C65C6B64BFE7FE36BD19B JUMPDEST DUP4 DUP6 LT PUSH2 0x297 JUMPI POP POP POP POP DUP4 ADD ADD DUP6 DUP1 DUP1 PUSH2 0x20D JUMP JUMPDEST DUP1 SLOAD DUP9 DUP7 ADD DUP4 ADD MSTORE SWAP4 ADD SWAP3 DUP5 SWAP1 DUP3 ADD PUSH2 0x281 JUMP JUMPDEST PUSH1 0xFF NOT AND DUP8 DUP6 ADD MSTORE POP POP ISZERO ISZERO PUSH1 0x5 SHL DUP5 ADD ADD SWAP1 POP DUP6 DUP1 DUP1 PUSH2 0x20D JUMP JUMPDEST PUSH1 0x24 DUP10 PUSH1 0x22 DUP13 PUSH4 0x4E487B71 PUSH1 0xE0 SHL DUP4 MSTORE MSTORE REVERT JUMPDEST SWAP2 PUSH1 0x7F AND SWAP2 PUSH2 0x1EE JUMP JUMPDEST POP POP CALLVALUE PUSH2 0x127 JUMPI PUSH1 0x20 CALLDATASIZE PUSH1 0x3 NOT ADD SLT PUSH2 0x127 JUMPI DUP1 PUSH1 0x20 SWAP3 PUSH1 0x1 PUSH1 0x1 PUSH1 0xA0 SHL SUB PUSH2 0x30B PUSH2 0x839 JUMP JUMPDEST AND DUP2 MSTORE DUP1 DUP5 MSTORE KECCAK256 SLOAD SWAP1 MLOAD SWAP1 DUP2 MSTORE RETURN JUMPDEST DUP4 SWAP2 POP CALLVALUE PUSH2 0x127 JUMPI PUSH1 0x20 CALLDATASIZE PUSH1 0x3 NOT ADD SLT PUSH2 0x127 JUMPI CALLDATALOAD SWAP1 PUSH1 0xD SLOAD DUP3 LT ISZERO PUSH2 0x375 JUMPI PUSH1 0x60 PUSH1 0x1 DUP5 PUSH2 0x348 DUP6 PUSH2 0x86A JUMP JUMPDEST POP SWAP1 PUSH1 0xFF DUP3 SLOAD SWAP3 PUSH1 0x1 PUSH1 0x1 PUSH1 0xA0 SHL SUB SWAP5 DUP6 SWAP2 ADD SLOAD AND SWAP3 DUP3 MLOAD SWAP5 DUP2 AND DUP6 MSTORE PUSH1 0xA0 SHR AND ISZERO ISZERO PUSH1 0x20 DUP5 ADD MSTORE DUP3 ADD MSTORE RETURN JUMPDEST DUP1 REVERT JUMPDEST SWAP1 POP CALLVALUE PUSH2 0x4BE JUMPI PUSH1 0x20 CALLDATASIZE PUSH1 0x3 NOT ADD SLT PUSH2 0x4BE JUMPI PUSH2 0x393 PUSH2 0x839 JUMP JUMPDEST SWAP2 PUSH1 0x1 PUSH1 0x1 PUSH1 0xA0 SHL SUB SWAP2 DUP3 PUSH1 0x7 SLOAD AND CALLER SUB PUSH2 0x456 JUMPI POP PUSH2 0x406 PUSH1 0x1 SWAP2 ADDRESS DUP7 MSTORE PUSH1 0xE PUSH1 0x20 MSTORE DUP6 KECCAK256 SLOAD PUSH2 0x3C3 DUP2 PUSH2 0x86A JUMP JUMPDEST POP PUSH21 0x10000000000000000000000000000000000000000 PUSH32 0xFFFFFFFFFFFFFFFFFFFFFF00FFFFFFFFFFFFFFFFFFFFFFFFFFFFFFFFFFFFFFFF DUP3 SLOAD AND OR SWAP1 SSTORE PUSH2 0x86A JUMP JUMPDEST POP ADD SWAP2 AND PUSH32 0xFFFFFFFFFFFFFFFFFFFFFFFF0000000000000000000000000000000000000000 DUP3 SLOAD AND OR SWAP1 SSTORE PUSH1 0x64 PUSH2 0x442 PUSH1 0x2 SLOAD PUSH1 0xA SLOAD SWAP1 PUSH2 0x8BA JUMP JUMPDEST DIV PUSH1 0xB SSTORE PUSH1 0x1 PUSH1 0xFF NOT PUSH1 0xC SLOAD AND OR PUSH1 0xC SSTORE DUP1 RETURN JUMPDEST PUSH1 0x20 PUSH1 0x84 SWAP3 MLOAD SWAP2 PUSH3 0x461BCD PUSH1 0xE5 SHL DUP4 MSTORE DUP3 ADD MSTORE PUSH1 0x2D PUSH1 0x24 DUP3 ADD MSTORE PUSH32 0x43616C6C6572206973206E6F7420617574686F72697A656420746F20656E6162 PUSH1 0x44 DUP3 ADD MSTORE PUSH32 0x6C65206D61782077616C6C657400000000000000000000000000000000000000 PUSH1 0x64 DUP3 ADD MSTORE REVERT JUMPDEST DUP3 DUP1 REVERT JUMPDEST POP POP CALLVALUE PUSH2 0x127 JUMPI DUP2 PUSH1 0x3 NOT CALLDATASIZE ADD SLT PUSH2 0x127 JUMPI PUSH1 0x20 SWAP1 PUSH1 0x5 SLOAD SWAP1 MLOAD SWAP1 DUP2 MSTORE RETURN JUMPDEST POP POP CALLVALUE PUSH2 0x127 JUMPI DUP2 PUSH1 0x3 NOT CALLDATASIZE ADD SLT PUSH2 0x127 JUMPI PUSH1 0x20 SWAP1 MLOAD PUSH1 0x12 DUP2 MSTORE RETURN JUMPDEST POP POP CALLVALUE PUSH2 0x127 JUMPI DUP2 PUSH1 0x3 NOT CALLDATASIZE ADD SLT PUSH2 0x127 JUMPI PUSH1 0x20 SWAP1 PUSH1 0x1 PUSH1 0x1 PUSH1 0xA0 SHL SUB PUSH1 0x8 SLOAD AND SWAP1 MLOAD SWAP1 DUP2 MSTORE RETURN JUMPDEST SWAP1 POP DUP3 CALLVALUE PUSH2 0x375 JUMPI PUSH1 0x60 CALLDATASIZE PUSH1 0x3 NOT ADD SLT PUSH2 0x375 JUMPI PUSH2 0x541 PUSH2 0x839 JUMP JUMPDEST PUSH2 0x549 PUSH2 0x854 JUMP JUMPDEST SWAP2 PUSH1 0x44 CALLDATALOAD SWAP4 PUSH1 0x1 PUSH1 0x1 PUSH1 0xA0 SHL SUB DUP4 AND DUP1 DUP4 MSTORE PUSH1 0x1 PUSH1 0x20 MSTORE DUP7 DUP4 KECCAK256 CALLER DUP5 MSTORE PUSH1 0x20 MSTORE DUP7 DUP4 KECCAK256 SLOAD SWAP2 PUSH1 0x0 NOT DUP4 SUB PUSH2 0x586 JUMPI JUMPDEST PUSH1 0x20 DUP9 PUSH2 0x195 DUP10 DUP10 DUP10 PUSH2 0x8E3 JUMP JUMPDEST DUP7 DUP4 LT PUSH2 0x5EC JUMPI DUP2 ISZERO PUSH2 0x5D6 JUMPI CALLER ISZERO PUSH2 0x5C0 JUMPI POP DUP3 MSTORE PUSH1 0x1 PUSH1 0x20 SWAP1 DUP2 MSTORE DUP7 DUP4 KECCAK256 CALLER DUP5 MSTORE DUP2 MSTORE SWAP2 DUP7 SWAP1 KECCAK256 SWAP1 DUP6 SWAP1 SUB SWAP1 SSTORE DUP3 SWAP1 PUSH2 0x195 DUP8 PUSH2 0x578 JUMP JUMPDEST PUSH1 0x24 SWAP1 DUP5 DUP10 MLOAD SWAP2 PUSH4 0x4A1406B1 PUSH1 0xE1 SHL DUP4 MSTORE DUP3 ADD MSTORE REVERT JUMPDEST PUSH1 0x24 SWAP1 DUP5 DUP10 MLOAD SWAP2 PUSH4 0xE602DF05 PUSH1 0xE0 SHL DUP4 MSTORE DUP3 ADD MSTORE REVERT JUMPDEST DUP8 MLOAD PUSH32 0xFB8F41B200000000000000000000000000000000000000000000000000000000 DUP2 MSTORE CALLER SWAP2 DUP2 ADD SWAP2 DUP3 MSTORE PUSH1 0x20 DUP3 ADD SWAP4 SWAP1 SWAP4 MSTORE PUSH1 0x40 DUP2 ADD DUP8 SWAP1 MSTORE DUP3 SWAP2 POP PUSH1 0x60 ADD SUB SWAP1 REVERT JUMPDEST POP POP CALLVALUE PUSH2 0x127 JUMPI DUP2 PUSH1 0x3 NOT CALLDATASIZE ADD SLT PUSH2 0x127 JUMPI PUSH1 0x20 SWAP1 PUSH1 0x2 SLOAD SWAP1 MLOAD SWAP1 DUP2 MSTORE RETURN JUMPDEST SWAP1 POP CALLVALUE PUSH2 0x4BE JUMPI DUP2 PUSH1 0x3 NOT CALLDATASIZE ADD SLT PUSH2 0x4BE JUMPI PUSH2 0x66A PUSH2 0x839 JUMP JUMPDEST PUSH1 0x24 CALLDATALOAD SWAP1 CALLER ISZERO PUSH2 0x6E2 JUMPI PUSH1 0x1 PUSH1 0x1 PUSH1 0xA0 SHL SUB AND SWAP2 DUP3 ISZERO PUSH2 0x6CC JUMPI POP DUP1 DUP4 PUSH1 0x20 SWAP6 CALLER DUP2 MSTORE PUSH1 0x1 DUP8 MSTORE DUP2 DUP2 KECCAK256 DUP6 DUP3 MSTORE DUP8 MSTORE KECCAK256 SSTORE DUP3 MLOAD SWAP1 DUP2 MSTORE PUSH32 0x8C5BE1E5EBEC7D5BD14F71427D1E84F3DD0314C0F7B2291E5B200AC8C7C3B925 DUP5 CALLER SWAP3 LOG3 MLOAD PUSH1 0x1 DUP2 MSTORE RETURN JUMPDEST PUSH1 0x24 SWAP1 DUP6 DUP6 MLOAD SWAP2 PUSH4 0x4A1406B1 PUSH1 0xE1 SHL DUP4 MSTORE DUP3 ADD MSTORE REVERT JUMPDEST PUSH1 0x24 DUP4 DUP7 DUP7 MLOAD SWAP2 PUSH4 0xE602DF05 PUSH1 0xE0 SHL DUP4 MSTORE DUP3 ADD MSTORE REVERT JUMPDEST DUP4 DUP4 CALLVALUE PUSH2 0x127 JUMPI DUP2 PUSH1 0x3 NOT CALLDATASIZE ADD SLT PUSH2 0x127 JUMPI DUP1 MLOAD SWAP1 DUP3 PUSH1 0x3 SLOAD PUSH1 0x1 DUP2 PUSH1 0x1 SHR SWAP1 PUSH1 0x1 DUP4 AND SWAP3 DUP4 ISZERO PUSH2 0x7CA JUMPI JUMPDEST PUSH1 0x20 SWAP4 DUP5 DUP5 LT DUP2 EQ PUSH2 0x2C7 JUMPI DUP4 DUP9 MSTORE SWAP1 DUP2 ISZERO PUSH2 0x2AB JUMPI POP PUSH1 0x1 EQ PUSH2 0x774 JUMPI POP POP POP DUP3 SWAP1 SUB PUSH1 0x1F ADD PUSH1 0x1F NOT AND DUP3 ADD SWAP3 PUSH8 0xFFFFFFFFFFFFFFFF DUP5 GT DUP4 DUP6 LT OR PUSH2 0x243 JUMPI POP DUP3 SWAP2 DUP3 PUSH2 0x23F SWAP3 MSTORE DUP3 PUSH2 0x7F0 JUMP JUMPDEST PUSH1 0x3 DUP8 MSTORE SWAP2 SWAP3 POP DUP6 SWAP2 DUP4 PUSH32 0xC2575A0E9E593C00F959F8C92F12DB2869C3395A3B0502D05E2516446F71F85B JUMPDEST DUP4 DUP6 LT PUSH2 0x7B6 JUMPI POP POP POP POP DUP4 ADD ADD DUP6 DUP1 DUP1 PUSH2 0x20D JUMP JUMPDEST DUP1 SLOAD DUP9 DUP7 ADD DUP4 ADD MSTORE SWAP4 ADD SWAP3 DUP5 SWAP1 DUP3 ADD PUSH2 0x7A0 JUMP JUMPDEST SWAP2 PUSH1 0x7F AND SWAP2 PUSH2 0x724 JUMP JUMPDEST DUP5 SWAP1 CALLVALUE PUSH2 0x127 JUMPI DUP2 PUSH1 0x3 NOT CALLDATASIZE ADD SLT PUSH2 0x127 JUMPI PUSH1 0x20 SWAP1 PUSH1 0xA SLOAD DUP2 MSTORE RETURN JUMPDEST PUSH1 0x20 DUP1 DUP3 MSTORE DUP3 MLOAD DUP2 DUP4 ADD DUP2 SWAP1 MSTORE SWAP1 SWAP4 SWAP3 PUSH1 0x0 JUMPDEST DUP3 DUP2 LT PUSH2 0x825 JUMPI POP POP PUSH1 0x40 SWAP3 SWAP4 POP PUSH1 0x0 DUP4 DUP3 DUP5 ADD ADD MSTORE PUSH1 0x1F DUP1 NOT SWAP2 ADD AND ADD ADD SWAP1 JUMP JUMPDEST DUP2 DUP2 ADD DUP7 ADD MLOAD DUP5 DUP3 ADD PUSH1 0x40 ADD MSTORE DUP6 ADD PUSH2 0x803 JUMP JUMPDEST PUSH1 0x4 CALLDATALOAD SWAP1 PUSH1 0x1 PUSH1 0x1 PUSH1 0xA0 SHL SUB DUP3 AND DUP3 SUB PUSH2 0x84F JUMPI JUMP JUMPDEST PUSH1 0x0 DUP1 REVERT JUMPDEST PUSH1 0x24 CALLDATALOAD SWAP1 PUSH1 0x1 PUSH1 0x1 PUSH1 0xA0 SHL SUB DUP3 AND DUP3 SUB PUSH2 0x84F JUMPI JUMP JUMPDEST PUSH1 0xD SLOAD DUP2 LT ISZERO PUSH2 0x8A4 JUMPI PUSH1 0xD PUSH1 0x0 MSTORE PUSH1 0x1 SHL PUSH32 0xD7B6990105719101DABEB77144F2A3385C8033ACD3AF97E9423A695E81AD1EB5 ADD SWAP1 PUSH1 0x0 SWAP1 JUMP JUMPDEST PUSH4 0x4E487B71 PUSH1 0xE0 SHL PUSH1 0x0 MSTORE PUSH1 0x32 PUSH1 0x4 MSTORE PUSH1 0x24 PUSH1 0x0 REVERT JUMPDEST DUP2 DUP2 MUL SWAP3 SWAP2 DUP2 ISZERO SWAP2 DUP5 DIV EQ OR ISZERO PUSH2 0x8CD JUMPI JUMP JUMPDEST PUSH4 0x4E487B71 PUSH1 0xE0 SHL PUSH1 0x0 MSTORE PUSH1 0x11 PUSH1 0x4 MSTORE PUSH1 0x24 PUSH1 0x0 REVERT JUMPDEST SWAP3 SWAP2 SWAP1 PUSH1 0x1 PUSH1 0x1 PUSH1 0xA0 SHL SUB DUP1 DUP6 AND SWAP2 DUP3 ISZERO PUSH2 0xB31 JUMPI DUP2 AND SWAP3 DUP4 ISZERO PUSH2 0xB00 JUMPI PUSH1 0x0 SWAP2 ADDRESS DUP4 MSTORE PUSH1 0x20 SWAP3 PUSH1 0xE DUP5 MSTORE PUSH1 0x40 SWAP2 DUP3 DUP3 KECCAK256 SLOAD SWAP1 PUSH1 0x1 PUSH1 0xFF PUSH2 0x923 DUP5 PUSH2 0x86A JUMP JUMPDEST POP SLOAD PUSH1 0xA0 SHR AND ISZERO ISZERO EQ SWAP2 DUP3 PUSH2 0xAF1 JUMPI JUMPDEST DUP3 PUSH2 0xAE2 JUMPI JUMPDEST DUP3 PUSH2 0xAD3 JUMPI JUMPDEST DUP3 PUSH2 0xAC8 JUMPI JUMPDEST DUP3 PUSH2 0xABD JUMPI JUMPDEST DUP3 PUSH2 0xAA1 JUMPI JUMPDEST POP POP PUSH2 0x9F8 JUMPI JUMPDEST DUP5 DUP2 MSTORE DUP1 DUP5 MSTORE DUP2 DUP2 KECCAK256 SLOAD SWAP8 DUP4 DUP10 LT PUSH2 0x9AF JUMPI POP DUP1 DUP4 DUP7 SWAP8 SWAP9 SWAP10 PUSH32 0xDDF252AD1BE2C89B69C2B068FC378DAA952BA7F163C4A11628F55A4DF523B3EF SWAP8 DUP6 SWAP5 MSTORE DUP3 DUP8 MSTORE SUB DUP3 DUP3 KECCAK256 SSTORE DUP8 DUP2 MSTORE KECCAK256 DUP3 DUP2 SLOAD ADD SWAP1 SSTORE MLOAD SWAP1 DUP2 MSTORE LOG3 JUMP JUMPDEST DUP3 MLOAD PUSH32 0xE450D38C00000000000000000000000000000000000000000000000000000000 DUP2 MSTORE PUSH1 0x1 PUSH1 0x1 PUSH1 0xA0 SHL SUB SWAP2 SWAP1 SWAP2 AND PUSH1 0x4 DUP3 ADD MSTORE PUSH1 0x24 DUP2 ADD DUP10 SWAP1 MSTORE PUSH1 0x44 DUP2 ADD DUP5 SWAP1 MSTORE PUSH1 0x64 SWAP1 REVERT JUMPDEST PUSH1 0x64 PUSH2 0xA09 PUSH1 0x2 SLOAD PUSH1 0xA SLOAD SWAP1 PUSH2 0x8BA JUMP JUMPDEST DIV DUP7 DUP3 MSTORE DUP2 DUP6 MSTORE DUP3 DUP3 KECCAK256 SLOAD DUP5 DUP2 ADD DUP1 SWAP2 GT PUSH2 0xA8D JUMPI GT ISZERO PUSH2 0x958 JUMPI PUSH1 0x84 DUP5 DUP4 MLOAD SWAP1 PUSH3 0x461BCD PUSH1 0xE5 SHL DUP3 MSTORE PUSH1 0x4 DUP3 ADD MSTORE PUSH1 0x36 PUSH1 0x24 DUP3 ADD MSTORE PUSH32 0x4D79546F6B656E3A205472616E7366657220616D6F756E742065786365656473 PUSH1 0x44 DUP3 ADD MSTORE PUSH32 0x20746865206D617820686F6C64696E67206C696D697400000000000000000000 PUSH1 0x64 DUP3 ADD MSTORE REVERT JUMPDEST PUSH1 0x24 DUP4 PUSH4 0x4E487B71 PUSH1 0xE0 SHL DUP2 MSTORE PUSH1 0x11 PUSH1 0x4 MSTORE REVERT JUMPDEST PUSH1 0x1 SWAP2 SWAP3 POP PUSH2 0xAAF SWAP1 PUSH2 0x86A JUMP JUMPDEST POP ADD SLOAD AND DUP7 EQ ISZERO CODESIZE DUP1 PUSH2 0x951 JUMP JUMPDEST DUP8 DUP10 EQ ISZERO SWAP3 POP PUSH2 0x94B JUMP JUMPDEST ADDRESS DUP10 EQ ISZERO SWAP3 POP PUSH2 0x945 JUMP JUMPDEST PUSH1 0x8 SLOAD DUP3 AND DUP10 EQ ISZERO SWAP3 POP PUSH2 0x93F JUMP JUMPDEST PUSH1 0x7 SLOAD DUP3 AND DUP9 EQ ISZERO SWAP3 POP PUSH2 0x939 JUMP JUMPDEST PUSH1 0x7 SLOAD DUP3 AND DUP10 EQ ISZERO SWAP3 POP PUSH2 0x933 JUMP JUMPDEST PUSH1 0x24 PUSH1 0x40 MLOAD PUSH32 0xEC442F0500000000000000000000000000000000000000000000000000000000 DUP2 MSTORE PUSH1 0x0 PUSH1 0x4 DUP3 ADD MSTORE REVERT JUMPDEST PUSH1 0x24 PUSH1 0x40 MLOAD PUSH32 0x96C6FD1E00000000000000000000000000000000000000000000000000000000 DUP2 MSTORE PUSH1 0x0 PUSH1 0x4 DUP3 ADD MSTORE REVERT INVALID LOG2 PUSH5 0x6970667358 0x22 SLT KECCAK256 MLOAD 0x2D SWAP11 0xC0 RETURN 0x27 COINBASE CODECOPY PUSH26 0xFABA83D22D0A11EDF3502B12C12A96D0F5DCDD6A77316164736F PUSH13 0x63430008180033A26469706673 PC 0x22 SLT KECCAK256 SELFDESTRUCT JUMPI 0xDC SLT LOG3 0xC9 0xB4 0xD7 SIGNEXTEND BALANCE 0x4C 0xD7 OR 0x2A MUL 0xD 0x4C 0x25 0xC6 DUP16 0xD0 SWAP11 0xE7 PUSH16 0x844331E379B08DBA64736F6C63430008 XOR STOP CALLER "},"methodIdentifiers":{"activeTokenCount()":"8b68e038","addLiquidityLockSwap(address,uint256,bool)":"d48908cd","allTokens(uint256)":"634282af","callAddRewards(uint256)":"ad1b9e32","collectFromLockerAndSwap(uint256,address)":"b2a78804","deadAddress()":"27c8f835","deployToken(string,string,uint256)":"3a93babb","factoryHelper()":"fd53f53b","getAllTokens()":"2a5c792a","getEstimatedAmountOut(address,address,uint256)":"e6ce06e2","getMetrics()":"7606f781","get_Pool(address,address,uint24)":"6e9551d7","lockTime1()":"67125e1c","lockTime2()":"db2561d4","locker()":"d7b96d4e","lockerAddress()":"3675f29b","maxZeroFeeDays()":"f02e4e36","notifyFundsNeeded(uint256)":"8c3a65a2","owner()":"8da5cb5b","pendingFunds()":"7c6bc9be","positionManager()":"791b98bc","provideFundsIfNeeded(address,uint256)":"be5ef176","quoter()":"c6bbd5a7","relock(uint256,uint256)":"b2fb30cb","removeDeadLiquidity(uint256,uint256)":"fbcc3fcc","removeInitialLiquidity(uint256,uint256)":"db69bdd8","removeUserLiquidity(uint256,uint256,uint128)":"d6a2120a","setStakingAndTreasuryAddress(address,address)":"8a7eb91a","stakingAddress()":"d7b4be24","swapETHforTokens(uint256,address)":"fde16ed3","swapRouter()":"c31c9c07","tokenCount()":"9f181b5e","totalFees()":"13114a9d","transferWETHToFactory(uint256)":"fe9655fc","tryToSendFunds()":"ae3b05d4","uniswapFactory()":"8bdb2afa","weth()":"3fc8cef3"}}}}}