{"contracts/FactoryExtra.sol":{"FactoryHelper":{"abi":[{"inputs":[{"internalType":"address","name":"_factoryAddress","type":"address"},{"internalType":"address","name":"_positionManager","type":"address"},{"internalType":"address","name":"_weth","type":"address"},{"internalType":"address","name":"_uniswapFactory","type":"address"},{"internalType":"address","name":"_swapRouter","type":"address"},{"internalType":"address","name":"_lockerAddress","type":"address"},{"internalType":"address","name":"_teamWallet","type":"address"},{"internalType":"address","name":"_quoterAddress","type":"address"}],"stateMutability":"nonpayable","type":"constructor"},{"anonymous":false,"inputs":[{"indexed":true,"internalType":"address","name":"token","type":"address"},{"indexed":false,"internalType":"uint256","name":"tokenId","type":"uint256"},{"indexed":false,"internalType":"string","name":"eventType","type":"string"},{"indexed":false,"internalType":"uint256","name":"amount0","type":"uint256"},{"indexed":false,"internalType":"uint256","name":"amount1","type":"uint256"}],"name":"LiquidityEvent","type":"event"},{"anonymous":false,"inputs":[{"indexed":false,"internalType":"uint256","name":"amountOut","type":"uint256"}],"name":"TokensSwapped","type":"event"},{"inputs":[{"internalType":"address","name":"token0","type":"address"},{"internalType":"address","name":"token1","type":"address"},{"internalType":"uint160","name":"sqrtPriceX96","type":"uint160"}],"name":"createAndInitializePoolIfNecessary","outputs":[{"internalType":"address","name":"pool","type":"address"}],"stateMutability":"nonpayable","type":"function"},{"inputs":[],"name":"deadAddress","outputs":[{"internalType":"address","name":"","type":"address"}],"stateMutability":"view","type":"function"},{"inputs":[{"internalType":"address","name":"tokenIn","type":"address"},{"internalType":"address","name":"tokenOut","type":"address"},{"internalType":"uint256","name":"amountIn","type":"uint256"},{"internalType":"uint256","name":"amountOutMinimum","type":"uint256"},{"internalType":"address","name":"recipient","type":"address"}],"name":"executeSwap","outputs":[{"internalType":"uint256","name":"amountOut","type":"uint256"}],"stateMutability":"payable","type":"function"},{"inputs":[],"name":"factoryAddress","outputs":[{"internalType":"address","name":"","type":"address"}],"stateMutability":"view","type":"function"},{"inputs":[],"name":"factoryHelper","outputs":[{"internalType":"contract FactoryHelper","name":"","type":"address"}],"stateMutability":"view","type":"function"},{"inputs":[{"internalType":"address","name":"tokenIn","type":"address"},{"internalType":"address","name":"tokenOut","type":"address"},{"internalType":"uint256","name":"amountIn","type":"uint256"}],"name":"getEstimatedAmountOut","outputs":[{"internalType":"uint256","name":"amountOut","type":"uint256"}],"stateMutability":"nonpayable","type":"function"},{"inputs":[{"internalType":"address","name":"poolAddress","type":"address"},{"internalType":"uint32","name":"twapInterval","type":"uint32"}],"name":"getTWAPPrice","outputs":[{"internalType":"uint256","name":"price","type":"uint256"}],"stateMutability":"view","type":"function"},{"inputs":[],"name":"locker","outputs":[{"internalType":"contract ILiquidityLocker","name":"","type":"address"}],"stateMutability":"view","type":"function"},{"inputs":[],"name":"lockerAddress","outputs":[{"internalType":"address","name":"","type":"address"}],"stateMutability":"view","type":"function"},{"inputs":[],"name":"nftAddress","outputs":[{"internalType":"address","name":"","type":"address"}],"stateMutability":"view","type":"function"},{"inputs":[],"name":"owner","outputs":[{"internalType":"address","name":"","type":"address"}],"stateMutability":"view","type":"function"},{"inputs":[],"name":"positionManager","outputs":[{"internalType":"contract INonfungiblePositionManager","name":"","type":"address"}],"stateMutability":"view","type":"function"},{"inputs":[],"name":"quoter","outputs":[{"internalType":"contract IQuoterV2","name":"","type":"address"}],"stateMutability":"view","type":"function"},{"inputs":[{"internalType":"uint256","name":"tokenId","type":"uint256"},{"internalType":"uint128","name":"liquidityToRemove","type":"uint128"}],"name":"removeLiquidity","outputs":[{"internalType":"uint256","name":"","type":"uint256"},{"internalType":"uint256","name":"","type":"uint256"}],"stateMutability":"nonpayable","type":"function"},{"inputs":[{"internalType":"uint256","name":"amountIn","type":"uint256"},{"internalType":"address","name":"tokenAddress","type":"address"}],"name":"swapETHforTokens","outputs":[{"internalType":"uint256","name":"amountOut","type":"uint256"}],"stateMutability":"payable","type":"function"},{"inputs":[],"name":"swapRouter","outputs":[{"internalType":"contract ISwapRouter","name":"","type":"address"}],"stateMutability":"view","type":"function"},{"inputs":[],"name":"teamWallet","outputs":[{"internalType":"address","name":"","type":"address"}],"stateMutability":"view","type":"function"},{"inputs":[],"name":"uniswapFactory","outputs":[{"internalType":"contract IUniswapV3Factory","name":"","type":"address"}],"stateMutability":"view","type":"function"},{"inputs":[],"name":"weth","outputs":[{"internalType":"address","name":"","type":"address"}],"stateMutability":"view","type":"function"}],"evm":{"bytecode":{"linkReferences":{},"object":"6080346200015e57601f6200157a38819003918201601f19168301916001600160401b038311848410176200016357808492610100946040528339810103126200015e576200004e8162000179565b906200005d6020820162000179565b916200006c6040830162000179565b6200007a6060840162000179565b620000886080850162000179565b916200009760a0860162000179565b94620000b460e0620000ac60c0840162000179565b920162000179565b9260018060a01b031997889361dead85600154161760015560018060a01b03809981809981988280809816988983600254161760025516906003541617600355168c60045416176004551692838b60075416176007558a600a541617600a55168860005416176000553388600854161760085587600b541617600b551685600c541617600c5516836005541617600555169060095416176009556040516113eb90816200018f8239f35b600080fd5b634e487b7160e01b600052604160045260246000fd5b51906001600160a01b03821682036200015e5756fe608080604052600436101561001357600080fd5b60003560e01c90816327c8f8351461112c575080633675f29b146111055780633fc8cef3146110de57806351246d6e14610ff75780635992704414610fd05780635bf8633a14610fa957806373d84e4214610e44578063791b98bc14610e1d5780638bdb2afa14610df65780638be32a41146105ea5780638da5cb5b146105c3578063911757ba146103e9578063966dae0e146103c2578063c31c9c071461039b578063c6bbd5a714610374578063d7b96d4e1461034d578063e6ce06e214610316578063fd53f53b146102ef5763fde16ed3146100f057600080fd5b604036600319011261028b57600435610107611166565b906001600160a01b0361011f828483600054166112a4565b605f810290808204605f14901517156102d9576000938285541691836004541692604051937f095ea7b30000000000000000000000000000000000000000000000000000000085526004850152856024850152836044816020998a945af19283156102975786936102a3575b50926064610249939482806000541694604051956101a88761117c565b8652168685015261271060408501523360608501528660808501520460a0830152600060c083015260045416906040519485809481936304e45aaf60e01b83526004830191909160c060e0820193816001600160a01b039182815116855282602082015116602086015262ffffff60408201511660408601528260608201511660608601526080810151608086015260a081015160a0860152015116910152565b03925af190811561029757600091610265575b50604051908152f35b90508181813d8311610290575b61027c81836111b4565b8101031261028b57513861025c565b600080fd5b503d610272565b6040513d6000823e3d90fd5b909281813d83116102d2575b6102b981836111b4565b8101031261028b57518015150361028b5784913861018b565b503d6102af565b634e487b7160e01b600052601160045260246000fd5b3461028b57600036600319011261028b5760206001600160a01b0360065416604051908152f35b3461028b57606036600319011261028b576020610345610334611150565b61033c611166565b604435916112a4565b604051908152f35b3461028b57600036600319011261028b5760206001600160a01b0360075416604051908152f35b3461028b57600036600319011261028b5760206001600160a01b0360055416604051908152f35b3461028b57600036600319011261028b5760206001600160a01b0360045416604051908152f35b3461028b57600036600319011261028b5760206001600160a01b0360095416604051908152f35b3461028b57604036600319011261028b57600435602435906fffffffffffffffffffffffffffffffff80831680930361028b578060406001600160a01b039460a48660025416600084519161043d83611198565b888352602083019485528583018281526060840183815260808501914283528851998a9889977f0c49ccbe000000000000000000000000000000000000000000000000000000008952516004890152511660248701525160448601525160648501525160848401525af18015610297576105a5575b508260025416916040516080810181811067ffffffffffffffff82111761058f5760409460849360009287528352602083019433865286840181815281606086019181835289519a8b998a987ffc6f7865000000000000000000000000000000000000000000000000000000008a525160048a01525116602488015251166044860152511660648401525af190811561029757604091600091600091610560575b5082519182526020820152f35b90506105829150823d8411610588575b61057a81836111b4565b81019061128e565b83610553565b503d610570565b634e487b7160e01b600052604160045260246000fd5b6105bd9060403d6040116105885761057a81836111b4565b506104b2565b3461028b57600036600319011261028b5760206001600160a01b0360085416604051908152f35b3461028b57604036600319011261028b57610603611150565b6024359063ffffffff8216820361028b576060518015610c8e5763ffffffff831660805260011015610c8e57600060a052604051907f883bdbfd000000000000000000000000000000000000000000000000000000008252816024810160206004830152606051809152604482019060809060005b818110610dd75750505091816001600160a01b03816000950392165afa90811561029757600091610ca4575b50805160011015610c8e57604081015190805115610c8e576020015160060b9060060b03667fffffffffffff1991667fffffffffffff8213838312176102d95763ffffffff1660030b9060060b81156108ae57600019928114828414166102d9570560020b906000821215610c88577f800000000000000000000000000000000000000000000000000000000000000082146102d95781600003915b620d89e88311610c2a576001831615610c015770ffffffffffffffffffffffffffffffffff6ffffcb933bd6fad37aa2d162d1a5940015b169260028116610bd5575b60048116610ba9575b60088116610b7d575b60108116610b51575b60208116610b25575b60408116610af9575b60808116610acd575b6101008116610aa1575b6102008116610a75575b6104008116610a49575b6108008116610a1d575b61100081166109f1575b61200081166109c5575b6140008116610999575b618000811661096d575b620100008116610941575b620200008116610916575b6204000081166108ec575b62080000166108c4575b6000126108a1575b5063ffffffff8160201c9116156000146108985760ff60005b1681018091116102d9576001600160a01b036108709116611202565b670de0b6b3a7640000908181029181830414901517156102d9576020906040519060c01c8152f35b60ff6001610854565b81156108ae57048161083b565b634e487b7160e01b600052601260045260246000fd5b916b048a170391f7dc42444e8fa2908181029181830414901517156102d95760801c91610833565b926d2216e584f5fa1ea926041bedfe98908181029181830414901517156102d95760801c92610829565b926e5d6af8dedb81196699c329225ee604908181029181830414901517156102d95760801c9261081e565b926f09aa508b5b7a84e1c677de54f3e99bc9908181029181830414901517156102d95760801c92610813565b926f31be135f97d08fd981231505542fcfa6908181029181830414901517156102d95760801c92610808565b926f70d869a156d2a1b890bb3df62baf32f7908181029181830414901517156102d95760801c926107fe565b926fa9f746462d870fdf8a65dc1f90e061e5908181029181830414901517156102d95760801c926107f4565b926fd097f3bdfd2022b8845ad8f792aa5825908181029181830414901517156102d95760801c926107ea565b926fe7159475a2c29b7443b29c7fa6e889d9908181029181830414901517156102d95760801c926107e0565b926ff3392b0822b70005940c7a398e4b70f3908181029181830414901517156102d95760801c926107d6565b926ff987a7253ac413176f2b074cf7815e54908181029181830414901517156102d95760801c926107cc565b926ffcbe86c7900a88aedcffc83b479aa3a4908181029181830414901517156102d95760801c926107c2565b926ffe5dee046a99a2a811c461f1969c3053908181029181830414901517156102d95760801c926107b8565b926fff2ea16466c96a3843ec78b326b52861908181029181830414901517156102d95760801c926107af565b926fff973b41fa98c081472e6896dfb254c0908181029181830414901517156102d95760801c926107a6565b926fffcb9843d60f6159c9db58835c926644908181029181830414901517156102d95760801c9261079d565b926fffe5caca7e10e4e61c3624eaa0941cd0908181029181830414901517156102d95760801c92610794565b926ffff2e50f5f656932ef12357cf3c7fdcc908181029181830414901517156102d95760801c9261078b565b926ffff97272373d413259a46990580e213a908181029181830414901517156102d95760801c92610782565b70ffffffffffffffffffffffffffffffffff700100000000000000000000000000000000610777565b60646040517f08c379a000000000000000000000000000000000000000000000000000000000815260206004820152600160248201527f54000000000000000000000000000000000000000000000000000000000000006044820152fd5b81610740565b634e487b7160e01b600052603260045260246000fd5b3d9150816000823e610cb682826111b4565b604081838101031261028b5780519167ffffffffffffffff831161028b57808201601f84840101121561028b578282015192610cf1846111d6565b93610cff60405195866111b4565b808552602085019183850160208360051b83880101011161028b5791602083860101925b60208360051b82880101018410610db75750505050602082015167ffffffffffffffff811161028b578201818301601f8201121561028b57805191602080610d6a856111d6565b610d7760405191826111b4565b858152019360051b8301019301831161028b57602001905b828210610d9f57505050826106a4565b60208091610dac846111ee565b815201910190610d8f565b8351918260060b830361028b576020818194829352019401939150610d23565b825163ffffffff16845286945060209384019390920191600101610678565b3461028b57600036600319011261028b5760206001600160a01b0360035416604051908152f35b3461028b57600036600319011261028b5760206001600160a01b0360025416604051908152f35b60a036600319011261028b57610e58611150565b610e60611166565b90608435916001600160a01b039283811680910361028b5760009284610f37928160405193610e8e8561117c565b1683526020968795168584015261271060408401526060830152604435608083015260643560a08301528460c083015260045416906040519485809481936304e45aaf60e01b83526004830191909160c060e0820193816001600160a01b039182815116855282602082015116602086015262ffffff60408201511660408601528260608201511660608601526080810151608086015260a081015160a0860152015116910152565b03925af190811561029757600091610f7c575b507fdb04c7a6d4758fd55d738ebc67e7f3010ac922be00771ef29521a4090d1eb13f82604051838152a1604051908152f35b90508181813d8311610fa2575b610f9381836111b4565b8101031261028b575182610f4a565b503d610f89565b3461028b57600036600319011261028b5760206001600160a01b03600a5416604051908152f35b3461028b57600036600319011261028b5760206001600160a01b03600c5416604051908152f35b3461028b57606036600319011261028b57611010611150565b611018611166565b6044356001600160a01b039283821680920361028b576084849160006020948460025416908560405198899788967f13ead562000000000000000000000000000000000000000000000000000000008852166004870152166024850152612710604485015260648401525af1908115610297576000916110a0575b5060209160405191168152f35b90506020813d6020116110d6575b816110bb602093836111b4565b8101031261028b575190808216820361028b57906020611093565b3d91506110ae565b3461028b57600036600319011261028b5760206001600160a01b0360005416604051908152f35b3461028b57600036600319011261028b5760206001600160a01b03600b5416604051908152f35b3461028b57600036600319011261028b576020906001600160a01b03600154168152f35b600435906001600160a01b038216820361028b57565b602435906001600160a01b038216820361028b57565b60e0810190811067ffffffffffffffff82111761058f57604052565b60a0810190811067ffffffffffffffff82111761058f57604052565b90601f8019910116810190811067ffffffffffffffff82111761058f57604052565b67ffffffffffffffff811161058f5760051b60200190565b51906001600160a01b038216820361028b57565b80156112885780806001146112815760021461127b576001908161013382101682600b8310161761127357906002815b80821161124a575050816000190481116102d9570290565b9092806000190481116102d95781841661126a575b800292811c90611232565b8092029161125f565b600291500a90565b50600490565b5050600190565b50600090565b919082604091031261028b576020825192015190565b60809060a462ffffff94604051906112bb82611198565b6001600160a01b0380941682528360208301961686526040820190815260608201906127108252848684016000998a94858352836005541694846040519c8d9b8c9a7fc6a5026a000000000000000000000000000000000000000000000000000000008c52511660048b01525116602489015251604488015251166064860152511660848401525af19182156113a957809261135657505090565b9091506080823d6080116113a1575b81611372608093836111b4565b8101031261139e57604082519261138b602082016111ee565b50015163ffffffff81160361139e575090565b80fd5b3d9150611365565b604051903d90823e3d90fdfea2646970667358221220bbdb7d28397fccd6a3c5b20fe070b28ded3daac85cdf7d88ebdd7dbeeae984e464736f6c63430008180033","opcodes":"PUSH1 0x80 CALLVALUE PUSH3 0x15E JUMPI PUSH1 0x1F PUSH3 0x157A CODESIZE DUP2 SWAP1 SUB SWAP2 DUP3 ADD PUSH1 0x1F NOT AND DUP4 ADD SWAP2 PUSH1 0x1 PUSH1 0x1 PUSH1 0x40 SHL SUB DUP4 GT DUP5 DUP5 LT OR PUSH3 0x163 JUMPI DUP1 DUP5 SWAP3 PUSH2 0x100 SWAP5 PUSH1 0x40 MSTORE DUP4 CODECOPY DUP2 ADD SUB SLT PUSH3 0x15E JUMPI PUSH3 0x4E DUP2 PUSH3 0x179 JUMP JUMPDEST SWAP1 PUSH3 0x5D PUSH1 0x20 DUP3 ADD PUSH3 0x179 JUMP JUMPDEST SWAP2 PUSH3 0x6C PUSH1 0x40 DUP4 ADD PUSH3 0x179 JUMP JUMPDEST PUSH3 0x7A PUSH1 0x60 DUP5 ADD PUSH3 0x179 JUMP JUMPDEST PUSH3 0x88 PUSH1 0x80 DUP6 ADD PUSH3 0x179 JUMP JUMPDEST SWAP2 PUSH3 0x97 PUSH1 0xA0 DUP7 ADD PUSH3 0x179 JUMP JUMPDEST SWAP5 PUSH3 0xB4 PUSH1 0xE0 PUSH3 0xAC PUSH1 0xC0 DUP5 ADD PUSH3 0x179 JUMP JUMPDEST SWAP3 ADD PUSH3 0x179 JUMP JUMPDEST SWAP3 PUSH1 0x1 DUP1 PUSH1 0xA0 SHL SUB NOT SWAP8 DUP9 SWAP4 PUSH2 0xDEAD DUP6 PUSH1 0x1 SLOAD AND OR PUSH1 0x1 SSTORE PUSH1 0x1 DUP1 PUSH1 0xA0 SHL SUB DUP1 SWAP10 DUP2 DUP1 SWAP10 DUP2 SWAP9 DUP3 DUP1 DUP1 SWAP9 AND SWAP9 DUP10 DUP4 PUSH1 0x2 SLOAD AND OR PUSH1 0x2 SSTORE AND SWAP1 PUSH1 0x3 SLOAD AND OR PUSH1 0x3 SSTORE AND DUP13 PUSH1 0x4 SLOAD AND OR PUSH1 0x4 SSTORE AND SWAP3 DUP4 DUP12 PUSH1 0x7 SLOAD AND OR PUSH1 0x7 SSTORE DUP11 PUSH1 0xA SLOAD AND OR PUSH1 0xA SSTORE AND DUP9 PUSH1 0x0 SLOAD AND OR PUSH1 0x0 SSTORE CALLER DUP9 PUSH1 0x8 SLOAD AND OR PUSH1 0x8 SSTORE DUP8 PUSH1 0xB SLOAD AND OR PUSH1 0xB SSTORE AND DUP6 PUSH1 0xC SLOAD AND OR PUSH1 0xC SSTORE AND DUP4 PUSH1 0x5 SLOAD AND OR PUSH1 0x5 SSTORE AND SWAP1 PUSH1 0x9 SLOAD AND OR PUSH1 0x9 SSTORE PUSH1 0x40 MLOAD PUSH2 0x13EB SWAP1 DUP2 PUSH3 0x18F DUP3 CODECOPY RETURN JUMPDEST PUSH1 0x0 DUP1 REVERT JUMPDEST PUSH4 0x4E487B71 PUSH1 0xE0 SHL PUSH1 0x0 MSTORE PUSH1 0x41 PUSH1 0x4 MSTORE PUSH1 0x24 PUSH1 0x0 REVERT JUMPDEST MLOAD SWAP1 PUSH1 0x1 PUSH1 0x1 PUSH1 0xA0 SHL SUB DUP3 AND DUP3 SUB PUSH3 0x15E JUMPI JUMP INVALID PUSH1 0x80 DUP1 PUSH1 0x40 MSTORE PUSH1 0x4 CALLDATASIZE LT ISZERO PUSH2 0x13 JUMPI PUSH1 0x0 DUP1 REVERT JUMPDEST PUSH1 0x0 CALLDATALOAD PUSH1 0xE0 SHR SWAP1 DUP2 PUSH4 0x27C8F835 EQ PUSH2 0x112C JUMPI POP DUP1 PUSH4 0x3675F29B EQ PUSH2 0x1105 JUMPI DUP1 PUSH4 0x3FC8CEF3 EQ PUSH2 0x10DE JUMPI DUP1 PUSH4 0x51246D6E EQ PUSH2 0xFF7 JUMPI DUP1 PUSH4 0x59927044 EQ PUSH2 0xFD0 JUMPI DUP1 PUSH4 0x5BF8633A EQ PUSH2 0xFA9 JUMPI DUP1 PUSH4 0x73D84E42 EQ PUSH2 0xE44 JUMPI DUP1 PUSH4 0x791B98BC EQ PUSH2 0xE1D JUMPI DUP1 PUSH4 0x8BDB2AFA EQ PUSH2 0xDF6 JUMPI DUP1 PUSH4 0x8BE32A41 EQ PUSH2 0x5EA JUMPI DUP1 PUSH4 0x8DA5CB5B EQ PUSH2 0x5C3 JUMPI DUP1 PUSH4 0x911757BA EQ PUSH2 0x3E9 JUMPI DUP1 PUSH4 0x966DAE0E EQ PUSH2 0x3C2 JUMPI DUP1 PUSH4 0xC31C9C07 EQ PUSH2 0x39B JUMPI DUP1 PUSH4 0xC6BBD5A7 EQ PUSH2 0x374 JUMPI DUP1 PUSH4 0xD7B96D4E EQ PUSH2 0x34D JUMPI DUP1 PUSH4 0xE6CE06E2 EQ PUSH2 0x316 JUMPI DUP1 PUSH4 0xFD53F53B EQ PUSH2 0x2EF JUMPI PUSH4 0xFDE16ED3 EQ PUSH2 0xF0 JUMPI PUSH1 0x0 DUP1 REVERT JUMPDEST PUSH1 0x40 CALLDATASIZE PUSH1 0x3 NOT ADD SLT PUSH2 0x28B JUMPI PUSH1 0x4 CALLDATALOAD PUSH2 0x107 PUSH2 0x1166 JUMP JUMPDEST SWAP1 PUSH1 0x1 PUSH1 0x1 PUSH1 0xA0 SHL SUB PUSH2 0x11F DUP3 DUP5 DUP4 PUSH1 0x0 SLOAD AND PUSH2 0x12A4 JUMP JUMPDEST PUSH1 0x5F DUP2 MUL SWAP1 DUP1 DUP3 DIV PUSH1 0x5F EQ SWAP1 ISZERO OR ISZERO PUSH2 0x2D9 JUMPI PUSH1 0x0 SWAP4 DUP3 DUP6 SLOAD AND SWAP2 DUP4 PUSH1 0x4 SLOAD AND SWAP3 PUSH1 0x40 MLOAD SWAP4 PUSH32 0x95EA7B300000000000000000000000000000000000000000000000000000000 DUP6 MSTORE PUSH1 0x4 DUP6 ADD MSTORE DUP6 PUSH1 0x24 DUP6 ADD MSTORE DUP4 PUSH1 0x44 DUP2 PUSH1 0x20 SWAP10 DUP11 SWAP5 GAS CALL SWAP3 DUP4 ISZERO PUSH2 0x297 JUMPI DUP7 SWAP4 PUSH2 0x2A3 JUMPI JUMPDEST POP SWAP3 PUSH1 0x64 PUSH2 0x249 SWAP4 SWAP5 DUP3 DUP1 PUSH1 0x0 SLOAD AND SWAP5 PUSH1 0x40 MLOAD SWAP6 PUSH2 0x1A8 DUP8 PUSH2 0x117C JUMP JUMPDEST DUP7 MSTORE AND DUP7 DUP6 ADD MSTORE PUSH2 0x2710 PUSH1 0x40 DUP6 ADD MSTORE CALLER PUSH1 0x60 DUP6 ADD MSTORE DUP7 PUSH1 0x80 DUP6 ADD MSTORE DIV PUSH1 0xA0 DUP4 ADD MSTORE PUSH1 0x0 PUSH1 0xC0 DUP4 ADD MSTORE PUSH1 0x4 SLOAD AND SWAP1 PUSH1 0x40 MLOAD SWAP5 DUP6 DUP1 SWAP5 DUP2 SWAP4 PUSH4 0x4E45AAF PUSH1 0xE0 SHL DUP4 MSTORE PUSH1 0x4 DUP4 ADD SWAP2 SWAP1 SWAP2 PUSH1 0xC0 PUSH1 0xE0 DUP3 ADD SWAP4 DUP2 PUSH1 0x1 PUSH1 0x1 PUSH1 0xA0 SHL SUB SWAP2 DUP3 DUP2 MLOAD AND DUP6 MSTORE DUP3 PUSH1 0x20 DUP3 ADD MLOAD AND PUSH1 0x20 DUP7 ADD MSTORE PUSH3 0xFFFFFF PUSH1 0x40 DUP3 ADD MLOAD AND PUSH1 0x40 DUP7 ADD MSTORE DUP3 PUSH1 0x60 DUP3 ADD MLOAD AND PUSH1 0x60 DUP7 ADD MSTORE PUSH1 0x80 DUP2 ADD MLOAD PUSH1 0x80 DUP7 ADD MSTORE PUSH1 0xA0 DUP2 ADD MLOAD PUSH1 0xA0 DUP7 ADD MSTORE ADD MLOAD AND SWAP2 ADD MSTORE JUMP JUMPDEST SUB SWAP3 GAS CALL SWAP1 DUP2 ISZERO PUSH2 0x297 JUMPI PUSH1 0x0 SWAP2 PUSH2 0x265 JUMPI JUMPDEST POP PUSH1 0x40 MLOAD SWAP1 DUP2 MSTORE RETURN JUMPDEST SWAP1 POP DUP2 DUP2 DUP2 RETURNDATASIZE DUP4 GT PUSH2 0x290 JUMPI JUMPDEST PUSH2 0x27C DUP2 DUP4 PUSH2 0x11B4 JUMP JUMPDEST DUP2 ADD SUB SLT PUSH2 0x28B JUMPI MLOAD CODESIZE PUSH2 0x25C JUMP JUMPDEST PUSH1 0x0 DUP1 REVERT JUMPDEST POP RETURNDATASIZE PUSH2 0x272 JUMP JUMPDEST PUSH1 0x40 MLOAD RETURNDATASIZE PUSH1 0x0 DUP3 RETURNDATACOPY RETURNDATASIZE SWAP1 REVERT JUMPDEST SWAP1 SWAP3 DUP2 DUP2 RETURNDATASIZE DUP4 GT PUSH2 0x2D2 JUMPI JUMPDEST PUSH2 0x2B9 DUP2 DUP4 PUSH2 0x11B4 JUMP JUMPDEST DUP2 ADD SUB SLT PUSH2 0x28B JUMPI MLOAD DUP1 ISZERO ISZERO SUB PUSH2 0x28B JUMPI DUP5 SWAP2 CODESIZE PUSH2 0x18B JUMP JUMPDEST POP RETURNDATASIZE PUSH2 0x2AF JUMP JUMPDEST PUSH4 0x4E487B71 PUSH1 0xE0 SHL PUSH1 0x0 MSTORE PUSH1 0x11 PUSH1 0x4 MSTORE PUSH1 0x24 PUSH1 0x0 REVERT JUMPDEST CALLVALUE PUSH2 0x28B JUMPI PUSH1 0x0 CALLDATASIZE PUSH1 0x3 NOT ADD SLT PUSH2 0x28B JUMPI PUSH1 0x20 PUSH1 0x1 PUSH1 0x1 PUSH1 0xA0 SHL SUB PUSH1 0x6 SLOAD AND PUSH1 0x40 MLOAD SWAP1 DUP2 MSTORE RETURN JUMPDEST CALLVALUE PUSH2 0x28B JUMPI PUSH1 0x60 CALLDATASIZE PUSH1 0x3 NOT ADD SLT PUSH2 0x28B JUMPI PUSH1 0x20 PUSH2 0x345 PUSH2 0x334 PUSH2 0x1150 JUMP JUMPDEST PUSH2 0x33C PUSH2 0x1166 JUMP JUMPDEST PUSH1 0x44 CALLDATALOAD SWAP2 PUSH2 0x12A4 JUMP JUMPDEST PUSH1 0x40 MLOAD SWAP1 DUP2 MSTORE RETURN JUMPDEST CALLVALUE PUSH2 0x28B JUMPI PUSH1 0x0 CALLDATASIZE PUSH1 0x3 NOT ADD SLT PUSH2 0x28B JUMPI PUSH1 0x20 PUSH1 0x1 PUSH1 0x1 PUSH1 0xA0 SHL SUB PUSH1 0x7 SLOAD AND PUSH1 0x40 MLOAD SWAP1 DUP2 MSTORE RETURN JUMPDEST CALLVALUE PUSH2 0x28B JUMPI PUSH1 0x0 CALLDATASIZE PUSH1 0x3 NOT ADD SLT PUSH2 0x28B JUMPI PUSH1 0x20 PUSH1 0x1 PUSH1 0x1 PUSH1 0xA0 SHL SUB PUSH1 0x5 SLOAD AND PUSH1 0x40 MLOAD SWAP1 DUP2 MSTORE RETURN JUMPDEST CALLVALUE PUSH2 0x28B JUMPI PUSH1 0x0 CALLDATASIZE PUSH1 0x3 NOT ADD SLT PUSH2 0x28B JUMPI PUSH1 0x20 PUSH1 0x1 PUSH1 0x1 PUSH1 0xA0 SHL SUB PUSH1 0x4 SLOAD AND PUSH1 0x40 MLOAD SWAP1 DUP2 MSTORE RETURN JUMPDEST CALLVALUE PUSH2 0x28B JUMPI PUSH1 0x0 CALLDATASIZE PUSH1 0x3 NOT ADD SLT PUSH2 0x28B JUMPI PUSH1 0x20 PUSH1 0x1 PUSH1 0x1 PUSH1 0xA0 SHL SUB PUSH1 0x9 SLOAD AND PUSH1 0x40 MLOAD SWAP1 DUP2 MSTORE RETURN JUMPDEST CALLVALUE PUSH2 0x28B JUMPI PUSH1 0x40 CALLDATASIZE PUSH1 0x3 NOT ADD SLT PUSH2 0x28B JUMPI PUSH1 0x4 CALLDATALOAD PUSH1 0x24 CALLDATALOAD SWAP1 PUSH16 0xFFFFFFFFFFFFFFFFFFFFFFFFFFFFFFFF DUP1 DUP4 AND DUP1 SWAP4 SUB PUSH2 0x28B JUMPI DUP1 PUSH1 0x40 PUSH1 0x1 PUSH1 0x1 PUSH1 0xA0 SHL SUB SWAP5 PUSH1 0xA4 DUP7 PUSH1 0x2 SLOAD AND PUSH1 0x0 DUP5 MLOAD SWAP2 PUSH2 0x43D DUP4 PUSH2 0x1198 JUMP JUMPDEST DUP9 DUP4 MSTORE PUSH1 0x20 DUP4 ADD SWAP5 DUP6 MSTORE DUP6 DUP4 ADD DUP3 DUP2 MSTORE PUSH1 0x60 DUP5 ADD DUP4 DUP2 MSTORE PUSH1 0x80 DUP6 ADD SWAP2 TIMESTAMP DUP4 MSTORE DUP9 MLOAD SWAP10 DUP11 SWAP9 DUP10 SWAP8 PUSH32 0xC49CCBE00000000000000000000000000000000000000000000000000000000 DUP10 MSTORE MLOAD PUSH1 0x4 DUP10 ADD MSTORE MLOAD AND PUSH1 0x24 DUP8 ADD MSTORE MLOAD PUSH1 0x44 DUP7 ADD MSTORE MLOAD PUSH1 0x64 DUP6 ADD MSTORE MLOAD PUSH1 0x84 DUP5 ADD MSTORE GAS CALL DUP1 ISZERO PUSH2 0x297 JUMPI PUSH2 0x5A5 JUMPI JUMPDEST POP DUP3 PUSH1 0x2 SLOAD AND SWAP2 PUSH1 0x40 MLOAD PUSH1 0x80 DUP2 ADD DUP2 DUP2 LT PUSH8 0xFFFFFFFFFFFFFFFF DUP3 GT OR PUSH2 0x58F JUMPI PUSH1 0x40 SWAP5 PUSH1 0x84 SWAP4 PUSH1 0x0 SWAP3 DUP8 MSTORE DUP4 MSTORE PUSH1 0x20 DUP4 ADD SWAP5 CALLER DUP7 MSTORE DUP7 DUP5 ADD DUP2 DUP2 MSTORE DUP2 PUSH1 0x60 DUP7 ADD SWAP2 DUP2 DUP4 MSTORE DUP10 MLOAD SWAP11 DUP12 SWAP10 DUP11 SWAP9 PUSH32 0xFC6F786500000000000000000000000000000000000000000000000000000000 DUP11 MSTORE MLOAD PUSH1 0x4 DUP11 ADD MSTORE MLOAD AND PUSH1 0x24 DUP9 ADD MSTORE MLOAD AND PUSH1 0x44 DUP7 ADD MSTORE MLOAD AND PUSH1 0x64 DUP5 ADD MSTORE GAS CALL SWAP1 DUP2 ISZERO PUSH2 0x297 JUMPI PUSH1 0x40 SWAP2 PUSH1 0x0 SWAP2 PUSH1 0x0 SWAP2 PUSH2 0x560 JUMPI JUMPDEST POP DUP3 MLOAD SWAP2 DUP3 MSTORE PUSH1 0x20 DUP3 ADD MSTORE RETURN JUMPDEST SWAP1 POP PUSH2 0x582 SWAP2 POP DUP3 RETURNDATASIZE DUP5 GT PUSH2 0x588 JUMPI JUMPDEST PUSH2 0x57A DUP2 DUP4 PUSH2 0x11B4 JUMP JUMPDEST DUP2 ADD SWAP1 PUSH2 0x128E JUMP JUMPDEST DUP4 PUSH2 0x553 JUMP JUMPDEST POP RETURNDATASIZE PUSH2 0x570 JUMP JUMPDEST PUSH4 0x4E487B71 PUSH1 0xE0 SHL PUSH1 0x0 MSTORE PUSH1 0x41 PUSH1 0x4 MSTORE PUSH1 0x24 PUSH1 0x0 REVERT JUMPDEST PUSH2 0x5BD SWAP1 PUSH1 0x40 RETURNDATASIZE PUSH1 0x40 GT PUSH2 0x588 JUMPI PUSH2 0x57A DUP2 DUP4 PUSH2 0x11B4 JUMP JUMPDEST POP PUSH2 0x4B2 JUMP JUMPDEST CALLVALUE PUSH2 0x28B JUMPI PUSH1 0x0 CALLDATASIZE PUSH1 0x3 NOT ADD SLT PUSH2 0x28B JUMPI PUSH1 0x20 PUSH1 0x1 PUSH1 0x1 PUSH1 0xA0 SHL SUB PUSH1 0x8 SLOAD AND PUSH1 0x40 MLOAD SWAP1 DUP2 MSTORE RETURN JUMPDEST CALLVALUE PUSH2 0x28B JUMPI PUSH1 0x40 CALLDATASIZE PUSH1 0x3 NOT ADD SLT PUSH2 0x28B JUMPI PUSH2 0x603 PUSH2 0x1150 JUMP JUMPDEST PUSH1 0x24 CALLDATALOAD SWAP1 PUSH4 0xFFFFFFFF DUP3 AND DUP3 SUB PUSH2 0x28B JUMPI PUSH1 0x60 MLOAD DUP1 ISZERO PUSH2 0xC8E JUMPI PUSH4 0xFFFFFFFF DUP4 AND PUSH1 0x80 MSTORE PUSH1 0x1 LT ISZERO PUSH2 0xC8E JUMPI PUSH1 0x0 PUSH1 0xA0 MSTORE PUSH1 0x40 MLOAD SWAP1 PUSH32 0x883BDBFD00000000000000000000000000000000000000000000000000000000 DUP3 MSTORE DUP2 PUSH1 0x24 DUP2 ADD PUSH1 0x20 PUSH1 0x4 DUP4 ADD MSTORE PUSH1 0x60 MLOAD DUP1 SWAP2 MSTORE PUSH1 0x44 DUP3 ADD SWAP1 PUSH1 0x80 SWAP1 PUSH1 0x0 JUMPDEST DUP2 DUP2 LT PUSH2 0xDD7 JUMPI POP POP POP SWAP2 DUP2 PUSH1 0x1 PUSH1 0x1 PUSH1 0xA0 SHL SUB DUP2 PUSH1 0x0 SWAP6 SUB SWAP3 AND GAS STATICCALL SWAP1 DUP2 ISZERO PUSH2 0x297 JUMPI PUSH1 0x0 SWAP2 PUSH2 0xCA4 JUMPI JUMPDEST POP DUP1 MLOAD PUSH1 0x1 LT ISZERO PUSH2 0xC8E JUMPI PUSH1 0x40 DUP2 ADD MLOAD SWAP1 DUP1 MLOAD ISZERO PUSH2 0xC8E JUMPI PUSH1 0x20 ADD MLOAD PUSH1 0x6 SIGNEXTEND SWAP1 PUSH1 0x6 SIGNEXTEND SUB PUSH7 0x7FFFFFFFFFFFFF NOT SWAP2 PUSH7 0x7FFFFFFFFFFFFF DUP3 SGT DUP4 DUP4 SLT OR PUSH2 0x2D9 JUMPI PUSH4 0xFFFFFFFF AND PUSH1 0x3 SIGNEXTEND SWAP1 PUSH1 0x6 SIGNEXTEND DUP2 ISZERO PUSH2 0x8AE JUMPI PUSH1 0x0 NOT SWAP3 DUP2 EQ DUP3 DUP5 EQ AND PUSH2 0x2D9 JUMPI SDIV PUSH1 0x2 SIGNEXTEND SWAP1 PUSH1 0x0 DUP3 SLT ISZERO PUSH2 0xC88 JUMPI PUSH32 0x8000000000000000000000000000000000000000000000000000000000000000 DUP3 EQ PUSH2 0x2D9 JUMPI DUP2 PUSH1 0x0 SUB SWAP2 JUMPDEST PUSH3 0xD89E8 DUP4 GT PUSH2 0xC2A JUMPI PUSH1 0x1 DUP4 AND ISZERO PUSH2 0xC01 JUMPI PUSH17 0xFFFFFFFFFFFFFFFFFFFFFFFFFFFFFFFFFF PUSH16 0xFFFCB933BD6FAD37AA2D162D1A594001 JUMPDEST AND SWAP3 PUSH1 0x2 DUP2 AND PUSH2 0xBD5 JUMPI JUMPDEST PUSH1 0x4 DUP2 AND PUSH2 0xBA9 JUMPI JUMPDEST PUSH1 0x8 DUP2 AND PUSH2 0xB7D JUMPI JUMPDEST PUSH1 0x10 DUP2 AND PUSH2 0xB51 JUMPI JUMPDEST PUSH1 0x20 DUP2 AND PUSH2 0xB25 JUMPI JUMPDEST PUSH1 0x40 DUP2 AND PUSH2 0xAF9 JUMPI JUMPDEST PUSH1 0x80 DUP2 AND PUSH2 0xACD JUMPI JUMPDEST PUSH2 0x100 DUP2 AND PUSH2 0xAA1 JUMPI JUMPDEST PUSH2 0x200 DUP2 AND PUSH2 0xA75 JUMPI JUMPDEST PUSH2 0x400 DUP2 AND PUSH2 0xA49 JUMPI JUMPDEST PUSH2 0x800 DUP2 AND PUSH2 0xA1D JUMPI JUMPDEST PUSH2 0x1000 DUP2 AND PUSH2 0x9F1 JUMPI JUMPDEST PUSH2 0x2000 DUP2 AND PUSH2 0x9C5 JUMPI JUMPDEST PUSH2 0x4000 DUP2 AND PUSH2 0x999 JUMPI JUMPDEST PUSH2 0x8000 DUP2 AND PUSH2 0x96D JUMPI JUMPDEST PUSH3 0x10000 DUP2 AND PUSH2 0x941 JUMPI JUMPDEST PUSH3 0x20000 DUP2 AND PUSH2 0x916 JUMPI JUMPDEST PUSH3 0x40000 DUP2 AND PUSH2 0x8EC JUMPI JUMPDEST PUSH3 0x80000 AND PUSH2 0x8C4 JUMPI JUMPDEST PUSH1 0x0 SLT PUSH2 0x8A1 JUMPI JUMPDEST POP PUSH4 0xFFFFFFFF DUP2 PUSH1 0x20 SHR SWAP2 AND ISZERO PUSH1 0x0 EQ PUSH2 0x898 JUMPI PUSH1 0xFF PUSH1 0x0 JUMPDEST AND DUP2 ADD DUP1 SWAP2 GT PUSH2 0x2D9 JUMPI PUSH1 0x1 PUSH1 0x1 PUSH1 0xA0 SHL SUB PUSH2 0x870 SWAP2 AND PUSH2 0x1202 JUMP JUMPDEST PUSH8 0xDE0B6B3A7640000 SWAP1 DUP2 DUP2 MUL SWAP2 DUP2 DUP4 DIV EQ SWAP1 ISZERO OR ISZERO PUSH2 0x2D9 JUMPI PUSH1 0x20 SWAP1 PUSH1 0x40 MLOAD SWAP1 PUSH1 0xC0 SHR DUP2 MSTORE RETURN JUMPDEST PUSH1 0xFF PUSH1 0x1 PUSH2 0x854 JUMP JUMPDEST DUP2 ISZERO PUSH2 0x8AE JUMPI DIV DUP2 PUSH2 0x83B JUMP JUMPDEST PUSH4 0x4E487B71 PUSH1 0xE0 SHL PUSH1 0x0 MSTORE PUSH1 0x12 PUSH1 0x4 MSTORE PUSH1 0x24 PUSH1 0x0 REVERT JUMPDEST SWAP2 PUSH12 0x48A170391F7DC42444E8FA2 SWAP1 DUP2 DUP2 MUL SWAP2 DUP2 DUP4 DIV EQ SWAP1 ISZERO OR ISZERO PUSH2 0x2D9 JUMPI PUSH1 0x80 SHR SWAP2 PUSH2 0x833 JUMP JUMPDEST SWAP3 PUSH14 0x2216E584F5FA1EA926041BEDFE98 SWAP1 DUP2 DUP2 MUL SWAP2 DUP2 DUP4 DIV EQ SWAP1 ISZERO OR ISZERO PUSH2 0x2D9 JUMPI PUSH1 0x80 SHR SWAP3 PUSH2 0x829 JUMP JUMPDEST SWAP3 PUSH15 0x5D6AF8DEDB81196699C329225EE604 SWAP1 DUP2 DUP2 MUL SWAP2 DUP2 DUP4 DIV EQ SWAP1 ISZERO OR ISZERO PUSH2 0x2D9 JUMPI PUSH1 0x80 SHR SWAP3 PUSH2 0x81E JUMP JUMPDEST SWAP3 PUSH16 0x9AA508B5B7A84E1C677DE54F3E99BC9 SWAP1 DUP2 DUP2 MUL SWAP2 DUP2 DUP4 DIV EQ SWAP1 ISZERO OR ISZERO PUSH2 0x2D9 JUMPI PUSH1 0x80 SHR SWAP3 PUSH2 0x813 JUMP JUMPDEST SWAP3 PUSH16 0x31BE135F97D08FD981231505542FCFA6 SWAP1 DUP2 DUP2 MUL SWAP2 DUP2 DUP4 DIV EQ SWAP1 ISZERO OR ISZERO PUSH2 0x2D9 JUMPI PUSH1 0x80 SHR SWAP3 PUSH2 0x808 JUMP JUMPDEST SWAP3 PUSH16 0x70D869A156D2A1B890BB3DF62BAF32F7 SWAP1 DUP2 DUP2 MUL SWAP2 DUP2 DUP4 DIV EQ SWAP1 ISZERO OR ISZERO PUSH2 0x2D9 JUMPI PUSH1 0x80 SHR SWAP3 PUSH2 0x7FE JUMP JUMPDEST SWAP3 PUSH16 0xA9F746462D870FDF8A65DC1F90E061E5 SWAP1 DUP2 DUP2 MUL SWAP2 DUP2 DUP4 DIV EQ SWAP1 ISZERO OR ISZERO PUSH2 0x2D9 JUMPI PUSH1 0x80 SHR SWAP3 PUSH2 0x7F4 JUMP JUMPDEST SWAP3 PUSH16 0xD097F3BDFD2022B8845AD8F792AA5825 SWAP1 DUP2 DUP2 MUL SWAP2 DUP2 DUP4 DIV EQ SWAP1 ISZERO OR ISZERO PUSH2 0x2D9 JUMPI PUSH1 0x80 SHR SWAP3 PUSH2 0x7EA JUMP JUMPDEST SWAP3 PUSH16 0xE7159475A2C29B7443B29C7FA6E889D9 SWAP1 DUP2 DUP2 MUL SWAP2 DUP2 DUP4 DIV EQ SWAP1 ISZERO OR ISZERO PUSH2 0x2D9 JUMPI PUSH1 0x80 SHR SWAP3 PUSH2 0x7E0 JUMP JUMPDEST SWAP3 PUSH16 0xF3392B0822B70005940C7A398E4B70F3 SWAP1 DUP2 DUP2 MUL SWAP2 DUP2 DUP4 DIV EQ SWAP1 ISZERO OR ISZERO PUSH2 0x2D9 JUMPI PUSH1 0x80 SHR SWAP3 PUSH2 0x7D6 JUMP JUMPDEST SWAP3 PUSH16 0xF987A7253AC413176F2B074CF7815E54 SWAP1 DUP2 DUP2 MUL SWAP2 DUP2 DUP4 DIV EQ SWAP1 ISZERO OR ISZERO PUSH2 0x2D9 JUMPI PUSH1 0x80 SHR SWAP3 PUSH2 0x7CC JUMP JUMPDEST SWAP3 PUSH16 0xFCBE86C7900A88AEDCFFC83B479AA3A4 SWAP1 DUP2 DUP2 MUL SWAP2 DUP2 DUP4 DIV EQ SWAP1 ISZERO OR ISZERO PUSH2 0x2D9 JUMPI PUSH1 0x80 SHR SWAP3 PUSH2 0x7C2 JUMP JUMPDEST SWAP3 PUSH16 0xFE5DEE046A99A2A811C461F1969C3053 SWAP1 DUP2 DUP2 MUL SWAP2 DUP2 DUP4 DIV EQ SWAP1 ISZERO OR ISZERO PUSH2 0x2D9 JUMPI PUSH1 0x80 SHR SWAP3 PUSH2 0x7B8 JUMP JUMPDEST SWAP3 PUSH16 0xFF2EA16466C96A3843EC78B326B52861 SWAP1 DUP2 DUP2 MUL SWAP2 DUP2 DUP4 DIV EQ SWAP1 ISZERO OR ISZERO PUSH2 0x2D9 JUMPI PUSH1 0x80 SHR SWAP3 PUSH2 0x7AF JUMP JUMPDEST SWAP3 PUSH16 0xFF973B41FA98C081472E6896DFB254C0 SWAP1 DUP2 DUP2 MUL SWAP2 DUP2 DUP4 DIV EQ SWAP1 ISZERO OR ISZERO PUSH2 0x2D9 JUMPI PUSH1 0x80 SHR SWAP3 PUSH2 0x7A6 JUMP JUMPDEST SWAP3 PUSH16 0xFFCB9843D60F6159C9DB58835C926644 SWAP1 DUP2 DUP2 MUL SWAP2 DUP2 DUP4 DIV EQ SWAP1 ISZERO OR ISZERO PUSH2 0x2D9 JUMPI PUSH1 0x80 SHR SWAP3 PUSH2 0x79D JUMP JUMPDEST SWAP3 PUSH16 0xFFE5CACA7E10E4E61C3624EAA0941CD0 SWAP1 DUP2 DUP2 MUL SWAP2 DUP2 DUP4 DIV EQ SWAP1 ISZERO OR ISZERO PUSH2 0x2D9 JUMPI PUSH1 0x80 SHR SWAP3 PUSH2 0x794 JUMP JUMPDEST SWAP3 PUSH16 0xFFF2E50F5F656932EF12357CF3C7FDCC SWAP1 DUP2 DUP2 MUL SWAP2 DUP2 DUP4 DIV EQ SWAP1 ISZERO OR ISZERO PUSH2 0x2D9 JUMPI PUSH1 0x80 SHR SWAP3 PUSH2 0x78B JUMP JUMPDEST SWAP3 PUSH16 0xFFF97272373D413259A46990580E213A SWAP1 DUP2 DUP2 MUL SWAP2 DUP2 DUP4 DIV EQ SWAP1 ISZERO OR ISZERO PUSH2 0x2D9 JUMPI PUSH1 0x80 SHR SWAP3 PUSH2 0x782 JUMP JUMPDEST PUSH17 0xFFFFFFFFFFFFFFFFFFFFFFFFFFFFFFFFFF PUSH17 0x100000000000000000000000000000000 PUSH2 0x777 JUMP JUMPDEST PUSH1 0x64 PUSH1 0x40 MLOAD PUSH32 0x8C379A000000000000000000000000000000000000000000000000000000000 DUP2 MSTORE PUSH1 0x20 PUSH1 0x4 DUP3 ADD MSTORE PUSH1 0x1 PUSH1 0x24 DUP3 ADD MSTORE PUSH32 0x5400000000000000000000000000000000000000000000000000000000000000 PUSH1 0x44 DUP3 ADD MSTORE REVERT JUMPDEST DUP2 PUSH2 0x740 JUMP JUMPDEST PUSH4 0x4E487B71 PUSH1 0xE0 SHL PUSH1 0x0 MSTORE PUSH1 0x32 PUSH1 0x4 MSTORE PUSH1 0x24 PUSH1 0x0 REVERT JUMPDEST RETURNDATASIZE SWAP2 POP DUP2 PUSH1 0x0 DUP3 RETURNDATACOPY PUSH2 0xCB6 DUP3 DUP3 PUSH2 0x11B4 JUMP JUMPDEST PUSH1 0x40 DUP2 DUP4 DUP2 ADD SUB SLT PUSH2 0x28B JUMPI DUP1 MLOAD SWAP2 PUSH8 0xFFFFFFFFFFFFFFFF DUP4 GT PUSH2 0x28B JUMPI DUP1 DUP3 ADD PUSH1 0x1F DUP5 DUP5 ADD ADD SLT ISZERO PUSH2 0x28B JUMPI DUP3 DUP3 ADD MLOAD SWAP3 PUSH2 0xCF1 DUP5 PUSH2 0x11D6 JUMP JUMPDEST SWAP4 PUSH2 0xCFF PUSH1 0x40 MLOAD SWAP6 DUP7 PUSH2 0x11B4 JUMP JUMPDEST DUP1 DUP6 MSTORE PUSH1 0x20 DUP6 ADD SWAP2 DUP4 DUP6 ADD PUSH1 0x20 DUP4 PUSH1 0x5 SHL DUP4 DUP9 ADD ADD ADD GT PUSH2 0x28B JUMPI SWAP2 PUSH1 0x20 DUP4 DUP7 ADD ADD SWAP3 JUMPDEST PUSH1 0x20 DUP4 PUSH1 0x5 SHL DUP3 DUP9 ADD ADD ADD DUP5 LT PUSH2 0xDB7 JUMPI POP POP POP POP PUSH1 0x20 DUP3 ADD MLOAD PUSH8 0xFFFFFFFFFFFFFFFF DUP2 GT PUSH2 0x28B JUMPI DUP3 ADD DUP2 DUP4 ADD PUSH1 0x1F DUP3 ADD SLT ISZERO PUSH2 0x28B JUMPI DUP1 MLOAD SWAP2 PUSH1 0x20 DUP1 PUSH2 0xD6A DUP6 PUSH2 0x11D6 JUMP JUMPDEST PUSH2 0xD77 PUSH1 0x40 MLOAD SWAP2 DUP3 PUSH2 0x11B4 JUMP JUMPDEST DUP6 DUP2 MSTORE ADD SWAP4 PUSH1 0x5 SHL DUP4 ADD ADD SWAP4 ADD DUP4 GT PUSH2 0x28B JUMPI PUSH1 0x20 ADD SWAP1 JUMPDEST DUP3 DUP3 LT PUSH2 0xD9F JUMPI POP POP POP DUP3 PUSH2 0x6A4 JUMP JUMPDEST PUSH1 0x20 DUP1 SWAP2 PUSH2 0xDAC DUP5 PUSH2 0x11EE JUMP JUMPDEST DUP2 MSTORE ADD SWAP2 ADD SWAP1 PUSH2 0xD8F JUMP JUMPDEST DUP4 MLOAD SWAP2 DUP3 PUSH1 0x6 SIGNEXTEND DUP4 SUB PUSH2 0x28B JUMPI PUSH1 0x20 DUP2 DUP2 SWAP5 DUP3 SWAP4 MSTORE ADD SWAP5 ADD SWAP4 SWAP2 POP PUSH2 0xD23 JUMP JUMPDEST DUP3 MLOAD PUSH4 0xFFFFFFFF AND DUP5 MSTORE DUP7 SWAP5 POP PUSH1 0x20 SWAP4 DUP5 ADD SWAP4 SWAP1 SWAP3 ADD SWAP2 PUSH1 0x1 ADD PUSH2 0x678 JUMP JUMPDEST CALLVALUE PUSH2 0x28B JUMPI PUSH1 0x0 CALLDATASIZE PUSH1 0x3 NOT ADD SLT PUSH2 0x28B JUMPI PUSH1 0x20 PUSH1 0x1 PUSH1 0x1 PUSH1 0xA0 SHL SUB PUSH1 0x3 SLOAD AND PUSH1 0x40 MLOAD SWAP1 DUP2 MSTORE RETURN JUMPDEST CALLVALUE PUSH2 0x28B JUMPI PUSH1 0x0 CALLDATASIZE PUSH1 0x3 NOT ADD SLT PUSH2 0x28B JUMPI PUSH1 0x20 PUSH1 0x1 PUSH1 0x1 PUSH1 0xA0 SHL SUB PUSH1 0x2 SLOAD AND PUSH1 0x40 MLOAD SWAP1 DUP2 MSTORE RETURN JUMPDEST PUSH1 0xA0 CALLDATASIZE PUSH1 0x3 NOT ADD SLT PUSH2 0x28B JUMPI PUSH2 0xE58 PUSH2 0x1150 JUMP JUMPDEST PUSH2 0xE60 PUSH2 0x1166 JUMP JUMPDEST SWAP1 PUSH1 0x84 CALLDATALOAD SWAP2 PUSH1 0x1 PUSH1 0x1 PUSH1 0xA0 SHL SUB SWAP3 DUP4 DUP2 AND DUP1 SWAP2 SUB PUSH2 0x28B JUMPI PUSH1 0x0 SWAP3 DUP5 PUSH2 0xF37 SWAP3 DUP2 PUSH1 0x40 MLOAD SWAP4 PUSH2 0xE8E DUP6 PUSH2 0x117C JUMP JUMPDEST AND DUP4 MSTORE PUSH1 0x20 SWAP7 DUP8 SWAP6 AND DUP6 DUP5 ADD MSTORE PUSH2 0x2710 PUSH1 0x40 DUP5 ADD MSTORE PUSH1 0x60 DUP4 ADD MSTORE PUSH1 0x44 CALLDATALOAD PUSH1 0x80 DUP4 ADD MSTORE PUSH1 0x64 CALLDATALOAD PUSH1 0xA0 DUP4 ADD MSTORE DUP5 PUSH1 0xC0 DUP4 ADD MSTORE PUSH1 0x4 SLOAD AND SWAP1 PUSH1 0x40 MLOAD SWAP5 DUP6 DUP1 SWAP5 DUP2 SWAP4 PUSH4 0x4E45AAF PUSH1 0xE0 SHL DUP4 MSTORE PUSH1 0x4 DUP4 ADD SWAP2 SWAP1 SWAP2 PUSH1 0xC0 PUSH1 0xE0 DUP3 ADD SWAP4 DUP2 PUSH1 0x1 PUSH1 0x1 PUSH1 0xA0 SHL SUB SWAP2 DUP3 DUP2 MLOAD AND DUP6 MSTORE DUP3 PUSH1 0x20 DUP3 ADD MLOAD AND PUSH1 0x20 DUP7 ADD MSTORE PUSH3 0xFFFFFF PUSH1 0x40 DUP3 ADD MLOAD AND PUSH1 0x40 DUP7 ADD MSTORE DUP3 PUSH1 0x60 DUP3 ADD MLOAD AND PUSH1 0x60 DUP7 ADD MSTORE PUSH1 0x80 DUP2 ADD MLOAD PUSH1 0x80 DUP7 ADD MSTORE PUSH1 0xA0 DUP2 ADD MLOAD PUSH1 0xA0 DUP7 ADD MSTORE ADD MLOAD AND SWAP2 ADD MSTORE JUMP JUMPDEST SUB SWAP3 GAS CALL SWAP1 DUP2 ISZERO PUSH2 0x297 JUMPI PUSH1 0x0 SWAP2 PUSH2 0xF7C JUMPI JUMPDEST POP PUSH32 0xDB04C7A6D4758FD55D738EBC67E7F3010AC922BE00771EF29521A4090D1EB13F DUP3 PUSH1 0x40 MLOAD DUP4 DUP2 MSTORE LOG1 PUSH1 0x40 MLOAD SWAP1 DUP2 MSTORE RETURN JUMPDEST SWAP1 POP DUP2 DUP2 DUP2 RETURNDATASIZE DUP4 GT PUSH2 0xFA2 JUMPI JUMPDEST PUSH2 0xF93 DUP2 DUP4 PUSH2 0x11B4 JUMP JUMPDEST DUP2 ADD SUB SLT PUSH2 0x28B JUMPI MLOAD DUP3 PUSH2 0xF4A JUMP JUMPDEST POP RETURNDATASIZE PUSH2 0xF89 JUMP JUMPDEST CALLVALUE PUSH2 0x28B JUMPI PUSH1 0x0 CALLDATASIZE PUSH1 0x3 NOT ADD SLT PUSH2 0x28B JUMPI PUSH1 0x20 PUSH1 0x1 PUSH1 0x1 PUSH1 0xA0 SHL SUB PUSH1 0xA SLOAD AND PUSH1 0x40 MLOAD SWAP1 DUP2 MSTORE RETURN JUMPDEST CALLVALUE PUSH2 0x28B JUMPI PUSH1 0x0 CALLDATASIZE PUSH1 0x3 NOT ADD SLT PUSH2 0x28B JUMPI PUSH1 0x20 PUSH1 0x1 PUSH1 0x1 PUSH1 0xA0 SHL SUB PUSH1 0xC SLOAD AND PUSH1 0x40 MLOAD SWAP1 DUP2 MSTORE RETURN JUMPDEST CALLVALUE PUSH2 0x28B JUMPI PUSH1 0x60 CALLDATASIZE PUSH1 0x3 NOT ADD SLT PUSH2 0x28B JUMPI PUSH2 0x1010 PUSH2 0x1150 JUMP JUMPDEST PUSH2 0x1018 PUSH2 0x1166 JUMP JUMPDEST PUSH1 0x44 CALLDATALOAD PUSH1 0x1 PUSH1 0x1 PUSH1 0xA0 SHL SUB SWAP3 DUP4 DUP3 AND DUP1 SWAP3 SUB PUSH2 0x28B JUMPI PUSH1 0x84 DUP5 SWAP2 PUSH1 0x0 PUSH1 0x20 SWAP5 DUP5 PUSH1 0x2 SLOAD AND SWAP1 DUP6 PUSH1 0x40 MLOAD SWAP9 DUP10 SWAP8 DUP9 SWAP7 PUSH32 0x13EAD56200000000000000000000000000000000000000000000000000000000 DUP9 MSTORE AND PUSH1 0x4 DUP8 ADD MSTORE AND PUSH1 0x24 DUP6 ADD MSTORE PUSH2 0x2710 PUSH1 0x44 DUP6 ADD MSTORE PUSH1 0x64 DUP5 ADD MSTORE GAS CALL SWAP1 DUP2 ISZERO PUSH2 0x297 JUMPI PUSH1 0x0 SWAP2 PUSH2 0x10A0 JUMPI JUMPDEST POP PUSH1 0x20 SWAP2 PUSH1 0x40 MLOAD SWAP2 AND DUP2 MSTORE RETURN JUMPDEST SWAP1 POP PUSH1 0x20 DUP2 RETURNDATASIZE PUSH1 0x20 GT PUSH2 0x10D6 JUMPI JUMPDEST DUP2 PUSH2 0x10BB PUSH1 0x20 SWAP4 DUP4 PUSH2 0x11B4 JUMP JUMPDEST DUP2 ADD SUB SLT PUSH2 0x28B JUMPI MLOAD SWAP1 DUP1 DUP3 AND DUP3 SUB PUSH2 0x28B JUMPI SWAP1 PUSH1 0x20 PUSH2 0x1093 JUMP JUMPDEST RETURNDATASIZE SWAP2 POP PUSH2 0x10AE JUMP JUMPDEST CALLVALUE PUSH2 0x28B JUMPI PUSH1 0x0 CALLDATASIZE PUSH1 0x3 NOT ADD SLT PUSH2 0x28B JUMPI PUSH1 0x20 PUSH1 0x1 PUSH1 0x1 PUSH1 0xA0 SHL SUB PUSH1 0x0 SLOAD AND PUSH1 0x40 MLOAD SWAP1 DUP2 MSTORE RETURN JUMPDEST CALLVALUE PUSH2 0x28B JUMPI PUSH1 0x0 CALLDATASIZE PUSH1 0x3 NOT ADD SLT PUSH2 0x28B JUMPI PUSH1 0x20 PUSH1 0x1 PUSH1 0x1 PUSH1 0xA0 SHL SUB PUSH1 0xB SLOAD AND PUSH1 0x40 MLOAD SWAP1 DUP2 MSTORE RETURN JUMPDEST CALLVALUE PUSH2 0x28B JUMPI PUSH1 0x0 CALLDATASIZE PUSH1 0x3 NOT ADD SLT PUSH2 0x28B JUMPI PUSH1 0x20 SWAP1 PUSH1 0x1 PUSH1 0x1 PUSH1 0xA0 SHL SUB PUSH1 0x1 SLOAD AND DUP2 MSTORE RETURN JUMPDEST PUSH1 0x4 CALLDATALOAD SWAP1 PUSH1 0x1 PUSH1 0x1 PUSH1 0xA0 SHL SUB DUP3 AND DUP3 SUB PUSH2 0x28B JUMPI JUMP JUMPDEST PUSH1 0x24 CALLDATALOAD SWAP1 PUSH1 0x1 PUSH1 0x1 PUSH1 0xA0 SHL SUB DUP3 AND DUP3 SUB PUSH2 0x28B JUMPI JUMP JUMPDEST PUSH1 0xE0 DUP2 ADD SWAP1 DUP2 LT PUSH8 0xFFFFFFFFFFFFFFFF DUP3 GT OR PUSH2 0x58F JUMPI PUSH1 0x40 MSTORE JUMP JUMPDEST PUSH1 0xA0 DUP2 ADD SWAP1 DUP2 LT PUSH8 0xFFFFFFFFFFFFFFFF DUP3 GT OR PUSH2 0x58F JUMPI PUSH1 0x40 MSTORE JUMP JUMPDEST SWAP1 PUSH1 0x1F DUP1 NOT SWAP2 ADD AND DUP2 ADD SWAP1 DUP2 LT PUSH8 0xFFFFFFFFFFFFFFFF DUP3 GT OR PUSH2 0x58F JUMPI PUSH1 0x40 MSTORE JUMP JUMPDEST PUSH8 0xFFFFFFFFFFFFFFFF DUP2 GT PUSH2 0x58F JUMPI PUSH1 0x5 SHL PUSH1 0x20 ADD SWAP1 JUMP JUMPDEST MLOAD SWAP1 PUSH1 0x1 PUSH1 0x1 PUSH1 0xA0 SHL SUB DUP3 AND DUP3 SUB PUSH2 0x28B JUMPI JUMP JUMPDEST DUP1 ISZERO PUSH2 0x1288 JUMPI DUP1 DUP1 PUSH1 0x1 EQ PUSH2 0x1281 JUMPI PUSH1 0x2 EQ PUSH2 0x127B JUMPI PUSH1 0x1 SWAP1 DUP2 PUSH2 0x133 DUP3 LT AND DUP3 PUSH1 0xB DUP4 LT AND OR PUSH2 0x1273 JUMPI SWAP1 PUSH1 0x2 DUP2 JUMPDEST DUP1 DUP3 GT PUSH2 0x124A JUMPI POP POP DUP2 PUSH1 0x0 NOT DIV DUP2 GT PUSH2 0x2D9 JUMPI MUL SWAP1 JUMP JUMPDEST SWAP1 SWAP3 DUP1 PUSH1 0x0 NOT DIV DUP2 GT PUSH2 0x2D9 JUMPI DUP2 DUP5 AND PUSH2 0x126A JUMPI JUMPDEST DUP1 MUL SWAP3 DUP2 SHR SWAP1 PUSH2 0x1232 JUMP JUMPDEST DUP1 SWAP3 MUL SWAP2 PUSH2 0x125F JUMP JUMPDEST PUSH1 0x2 SWAP2 POP EXP SWAP1 JUMP JUMPDEST POP PUSH1 0x4 SWAP1 JUMP JUMPDEST POP POP PUSH1 0x1 SWAP1 JUMP JUMPDEST POP PUSH1 0x0 SWAP1 JUMP JUMPDEST SWAP2 SWAP1 DUP3 PUSH1 0x40 SWAP2 SUB SLT PUSH2 0x28B JUMPI PUSH1 0x20 DUP3 MLOAD SWAP3 ADD MLOAD SWAP1 JUMP JUMPDEST PUSH1 0x80 SWAP1 PUSH1 0xA4 PUSH3 0xFFFFFF SWAP5 PUSH1 0x40 MLOAD SWAP1 PUSH2 0x12BB DUP3 PUSH2 0x1198 JUMP JUMPDEST PUSH1 0x1 PUSH1 0x1 PUSH1 0xA0 SHL SUB DUP1 SWAP5 AND DUP3 MSTORE DUP4 PUSH1 0x20 DUP4 ADD SWAP7 AND DUP7 MSTORE PUSH1 0x40 DUP3 ADD SWAP1 DUP2 MSTORE PUSH1 0x60 DUP3 ADD SWAP1 PUSH2 0x2710 DUP3 MSTORE DUP5 DUP7 DUP5 ADD PUSH1 0x0 SWAP10 DUP11 SWAP5 DUP6 DUP4 MSTORE DUP4 PUSH1 0x5 SLOAD AND SWAP5 DUP5 PUSH1 0x40 MLOAD SWAP13 DUP14 SWAP12 DUP13 SWAP11 PUSH32 0xC6A5026A00000000000000000000000000000000000000000000000000000000 DUP13 MSTORE MLOAD AND PUSH1 0x4 DUP12 ADD MSTORE MLOAD AND PUSH1 0x24 DUP10 ADD MSTORE MLOAD PUSH1 0x44 DUP9 ADD MSTORE MLOAD AND PUSH1 0x64 DUP7 ADD MSTORE MLOAD AND PUSH1 0x84 DUP5 ADD MSTORE GAS CALL SWAP2 DUP3 ISZERO PUSH2 0x13A9 JUMPI DUP1 SWAP3 PUSH2 0x1356 JUMPI POP POP SWAP1 JUMP JUMPDEST SWAP1 SWAP2 POP PUSH1 0x80 DUP3 RETURNDATASIZE PUSH1 0x80 GT PUSH2 0x13A1 JUMPI JUMPDEST DUP2 PUSH2 0x1372 PUSH1 0x80 SWAP4 DUP4 PUSH2 0x11B4 JUMP JUMPDEST DUP2 ADD SUB SLT PUSH2 0x139E JUMPI PUSH1 0x40 DUP3 MLOAD SWAP3 PUSH2 0x138B PUSH1 0x20 DUP3 ADD PUSH2 0x11EE JUMP JUMPDEST POP ADD MLOAD PUSH4 0xFFFFFFFF DUP2 AND SUB PUSH2 0x139E JUMPI POP SWAP1 JUMP JUMPDEST DUP1 REVERT JUMPDEST RETURNDATASIZE SWAP2 POP PUSH2 0x1365 JUMP JUMPDEST PUSH1 0x40 MLOAD SWAP1 RETURNDATASIZE SWAP1 DUP3 RETURNDATACOPY RETURNDATASIZE SWAP1 REVERT INVALID LOG2 PUSH5 0x6970667358 0x22 SLT KECCAK256 0xBB 0xDB PUSH30 0x28397FCCD6A3C5B20FE070B28DED3DAAC85CDF7D88EBDD7DBEEAE984E464 PUSH20 0x6F6C634300081800330000000000000000000000 "},"methodIdentifiers":{"createAndInitializePoolIfNecessary(address,address,uint160)":"51246d6e","deadAddress()":"27c8f835","executeSwap(address,address,uint256,uint256,address)":"73d84e42","factoryAddress()":"966dae0e","factoryHelper()":"fd53f53b","getEstimatedAmountOut(address,address,uint256)":"e6ce06e2","getTWAPPrice(address,uint32)":"8be32a41","locker()":"d7b96d4e","lockerAddress()":"3675f29b","nftAddress()":"5bf8633a","owner()":"8da5cb5b","positionManager()":"791b98bc","quoter()":"c6bbd5a7","removeLiquidity(uint256,uint128)":"911757ba","swapETHforTokens(uint256,address)":"fde16ed3","swapRouter()":"c31c9c07","teamWallet()":"59927044","uniswapFactory()":"8bdb2afa","weth()":"3fc8cef3"}}}}}