{"contracts/Swap.sol":{"Swap":{"abi":[{"inputs":[{"internalType":"address","name":"_positionManager","type":"address"},{"internalType":"address","name":"_weth","type":"address"},{"internalType":"address","name":"_uniswapFactory","type":"address"},{"internalType":"address","name":"_swapRouter","type":"address"},{"internalType":"address","name":"_quoterAddress","type":"address"}],"stateMutability":"nonpayable","type":"constructor"},{"inputs":[],"name":"activeTokenCount","outputs":[{"internalType":"uint256","name":"","type":"uint256"}],"stateMutability":"view","type":"function"},{"inputs":[],"name":"deadAddress","outputs":[{"internalType":"address","name":"","type":"address"}],"stateMutability":"view","type":"function"},{"inputs":[{"internalType":"uint256","name":"","type":"uint256"}],"name":"feeTiers","outputs":[{"internalType":"uint24","name":"","type":"uint24"}],"stateMutability":"view","type":"function"},{"inputs":[{"internalType":"address","name":"tokenIn","type":"address"},{"internalType":"address","name":"tokenOut","type":"address"},{"internalType":"uint256","name":"amountIn","type":"uint256"}],"name":"getEstimatedAmountOut","outputs":[{"internalType":"uint256","name":"amountOut","type":"uint256"}],"stateMutability":"nonpayable","type":"function"},{"inputs":[{"internalType":"address","name":"tokenIn","type":"address"},{"internalType":"address","name":"tokenOut","type":"address"}],"name":"getOptimalFee","outputs":[{"internalType":"uint24","name":"","type":"uint24"}],"stateMutability":"view","type":"function"},{"inputs":[],"name":"owner","outputs":[{"internalType":"address","name":"","type":"address"}],"stateMutability":"view","type":"function"},{"inputs":[],"name":"positionManager","outputs":[{"internalType":"contract INonfungiblePositionManager","name":"","type":"address"}],"stateMutability":"view","type":"function"},{"inputs":[],"name":"quoter","outputs":[{"internalType":"contract IQuoterV2","name":"","type":"address"}],"stateMutability":"view","type":"function"},{"inputs":[],"name":"swapRouter","outputs":[{"internalType":"contract ISwapRouter","name":"","type":"address"}],"stateMutability":"view","type":"function"},{"inputs":[{"internalType":"uint256","name":"amountIn","type":"uint256"},{"internalType":"address","name":"tokenAddress","type":"address"}],"name":"swapTokensForWETH","outputs":[{"internalType":"uint256","name":"","type":"uint256"}],"stateMutability":"nonpayable","type":"function"},{"inputs":[{"internalType":"uint256","name":"amountIn","type":"uint256"},{"internalType":"address","name":"tokenAddress","type":"address"}],"name":"swapWETHforTokens","outputs":[{"internalType":"uint256","name":"","type":"uint256"}],"stateMutability":"nonpayable","type":"function"},{"inputs":[],"name":"tokenCount","outputs":[{"internalType":"uint256","name":"","type":"uint256"}],"stateMutability":"view","type":"function"},{"inputs":[],"name":"totalFees","outputs":[{"internalType":"uint256","name":"","type":"uint256"}],"stateMutability":"view","type":"function"},{"inputs":[],"name":"uniswapFactory","outputs":[{"internalType":"contract IUniswapV3Factory","name":"","type":"address"}],"stateMutability":"view","type":"function"},{"inputs":[],"name":"weth","outputs":[{"internalType":"address","name":"","type":"address"}],"stateMutability":"view","type":"function"}],"evm":{"bytecode":{"linkReferences":{},"object":"608034610179576001600160401b03601f610b3538819003918201601f1916840191908383118584101761017e578160a092869260409586528339810103126101795761004b83610194565b9060209161005b60208601610194565b94610067838201610194565b92610080608061007960608501610194565b9301610194565b95600092838055600198846001558460025560018060a01b03199261dead8460045416176004558451906060820190828210908211176101655785526101f48152610bb86020820152612710818601529496875b600390818a1015610106578c918b9162ffffff61ffff8b5116928d8102901b92831b921b1916179701980197956100d4565b8b91508890600a5560018060a01b03948580948180941689600554161760055516876006541617600655168560075416176007551683600854161760085516816003541617600355339060095416176009555161098c90816101a98239f35b634e487b7160e01b87526041600452602487fd5b600080fd5b634e487b7160e01b600052604160045260246000fd5b51906001600160a01b03821682036101795756fe608060408181526004918236101561001657600080fd5b600090813560e01c90816313114a9d146104ab57508063230ed44a1461046a57806327c8f835146104445780633205fae01461040a5780633fc8cef3146103e2578063791b98bc146103ba5780638b68e0381461039b5780638bdb2afa146103735780638da5cb5b1461034b5780639f181b5e1461032e578063c31c9c0714610306578063c6bbd5a7146102de578063cd863ef514610207578063e6ce06e2146101d15763ffc5baf9146100c957600080fd5b346101ce57816003193601126101ce5782356100e3610511565b916001600160a01b03906100fc838360035416866106fb565b95605f870296808804605f14901517156101bb57906020849284600754169061014c8951958693849363095ea7b360e01b85528401602090939291936001600160a01b0360408201951681520152565b038184878a165af19081156101b0575091602096939161017c9593610183575b5060035416606433940492610831565b9051908152f35b6101a290883d8a116101a9575b61019a8183610527565b8101906106e3565b503861016c565b503d610190565b8651903d90823e3d90fd5b906011602492634e487b7160e01b835252fd5b80fd5b5090346102035760603660031901126102035760209061017c6101f26104f6565b6101fa610511565b604435916106fb565b5080fd5b50346101ce57816003193601126101ce578235610222610511565b916001600160a01b039061023b838584600354166106fb565b95605f870296808804605f14901517156101bb579060208461029493856003541690848760075416918b519788958694859363095ea7b360e01b85528401602090939291936001600160a01b0360408201951681520152565b03925af19081156101b0575091602096939161017c95936102c1575b506003541691606433940492610831565b6102d790883d8a116101a95761019a8183610527565b50386102b0565b5090346102035781600319360112610203576020906001600160a01b03600854169051908152f35b5090346102035781600319360112610203576020906001600160a01b03600754169051908152f35b509034610203578160031936011261020357602091549051908152f35b5090346102035781600319360112610203576020906001600160a01b03600954169051908152f35b5090346102035781600319360112610203576020906001600160a01b03600654169051908152f35b5090346102035781600319360112610203576020906001549051908152f35b5090346102035781600319360112610203576020906001600160a01b03600554169051908152f35b5090346102035781600319360112610203576020906001600160a01b03600354169051908152f35b50903461020357806003193601126102035760209062ffffff61043c61042e6104f6565b610436610511565b9061055f565b915191168152f35b50346101ce57806003193601126101ce57506001600160a01b0360209254169051908152f35b5091346104a75760203660031901126104a757359160038310156101ce575062ffffff6104986020936104c7565b90549060031b1c169051908152f35b8280fd5b9050346102035781600319360112610203576020906002548152f35b9060038210156104e0576003600a808404810193060290565b634e487b7160e01b600052603260045260246000fd5b600435906001600160a01b038216820361050c57565b600080fd5b602435906001600160a01b038216820361050c57565b90601f8019910116810190811067ffffffffffffffff82111761054957604052565b634e487b7160e01b600052604160045260246000fd5b6000906001600160a01b038060065416925b60038082101561065f57610584826104c7565b919062ffffff9283915490831b1c166040908151907f1698ee820000000000000000000000000000000000000000000000000000000082528688166004830152868a1660248301526044820152602080826064818c5afa928315610655575090869291600092610619575b505016610600575050600101610571565b94509450905061061091506104c7565b9054911b1c1690565b9080929350813d831161064e575b6106318183610527565b8101031261020357519085821682036101ce5750849038806105ef565b503d610627565b513d6000823e3d90fd5b60846040517f08c379a000000000000000000000000000000000000000000000000000000000815260206004820152603e60248201527f4e6f20706f6f6c20617661696c61626c6520666f722074686520746f6b656e2060448201527f70616972207769746820737065636966696564206665652074696572732e00006064820152fd5b9081602091031261050c5751801515810361050c5790565b9091610707838361055f565b90604090815160a0810181811067ffffffffffffffff8211176105495783526001600160a01b039586809616825285602083019116815283820192835285606083019562ffffff809116875260808401906000978896878452848060085416968a519d8e997fc6a5026a000000000000000000000000000000000000000000000000000000008b52511660048a0152511660248801525160448701525116606485015251166084830152815a9360a492608095f19384156108265782946107d0575b5050505090565b90919293506080813d60801161081e575b816107ee60809383610527565b810103126104a7578051936020820151908116036104a757015163ffffffff8116036101ce5750388080806107c9565b3d91506107e1565b5051903d90823e3d90fd5b909291926040519160e0830183811067ffffffffffffffff821117610549576040526001600160a01b0394858092168452816020850193168352604084019461271086528260608601981688526080850191825260a0850190815260c0850191836000998a98898652828060075416986040519c8d9b7f04e45aaf000000000000000000000000000000000000000000000000000000008d52511660048c0152511660248a01525162ffffff166044890152511660648701525160848601525160a4850152511660c4830152815a9360e492602095f191821561094a57809261091957505090565b9091506020823d602011610942575b8161093560209383610527565b810103126101ce57505190565b3d9150610928565b604051903d90823e3d90fdfea2646970667358221220fcc92f1da835eca04328ae36c8f71ac44c599fb92905226ae3b0677eeb2c21bc64736f6c63430008180033","opcodes":"PUSH1 0x80 CALLVALUE PUSH2 0x179 JUMPI PUSH1 0x1 PUSH1 0x1 PUSH1 0x40 SHL SUB PUSH1 0x1F PUSH2 0xB35 CODESIZE DUP2 SWAP1 SUB SWAP2 DUP3 ADD PUSH1 0x1F NOT AND DUP5 ADD SWAP2 SWAP1 DUP4 DUP4 GT DUP6 DUP5 LT OR PUSH2 0x17E JUMPI DUP2 PUSH1 0xA0 SWAP3 DUP7 SWAP3 PUSH1 0x40 SWAP6 DUP7 MSTORE DUP4 CODECOPY DUP2 ADD SUB SLT PUSH2 0x179 JUMPI PUSH2 0x4B DUP4 PUSH2 0x194 JUMP JUMPDEST SWAP1 PUSH1 0x20 SWAP2 PUSH2 0x5B PUSH1 0x20 DUP7 ADD PUSH2 0x194 JUMP JUMPDEST SWAP5 PUSH2 0x67 DUP4 DUP3 ADD PUSH2 0x194 JUMP JUMPDEST SWAP3 PUSH2 0x80 PUSH1 0x80 PUSH2 0x79 PUSH1 0x60 DUP6 ADD PUSH2 0x194 JUMP JUMPDEST SWAP4 ADD PUSH2 0x194 JUMP JUMPDEST SWAP6 PUSH1 0x0 SWAP3 DUP4 DUP1 SSTORE PUSH1 0x1 SWAP9 DUP5 PUSH1 0x1 SSTORE DUP5 PUSH1 0x2 SSTORE PUSH1 0x1 DUP1 PUSH1 0xA0 SHL SUB NOT SWAP3 PUSH2 0xDEAD DUP5 PUSH1 0x4 SLOAD AND OR PUSH1 0x4 SSTORE DUP5 MLOAD SWAP1 PUSH1 0x60 DUP3 ADD SWAP1 DUP3 DUP3 LT SWAP1 DUP3 GT OR PUSH2 0x165 JUMPI DUP6 MSTORE PUSH2 0x1F4 DUP2 MSTORE PUSH2 0xBB8 PUSH1 0x20 DUP3 ADD MSTORE PUSH2 0x2710 DUP2 DUP7 ADD MSTORE SWAP5 SWAP7 DUP8 JUMPDEST PUSH1 0x3 SWAP1 DUP2 DUP11 LT ISZERO PUSH2 0x106 JUMPI DUP13 SWAP2 DUP12 SWAP2 PUSH3 0xFFFFFF PUSH2 0xFFFF DUP12 MLOAD AND SWAP3 DUP14 DUP2 MUL SWAP1 SHL SWAP3 DUP4 SHL SWAP3 SHL NOT AND OR SWAP8 ADD SWAP9 ADD SWAP8 SWAP6 PUSH2 0xD4 JUMP JUMPDEST DUP12 SWAP2 POP DUP9 SWAP1 PUSH1 0xA SSTORE PUSH1 0x1 DUP1 PUSH1 0xA0 SHL SUB SWAP5 DUP6 DUP1 SWAP5 DUP2 DUP1 SWAP5 AND DUP10 PUSH1 0x5 SLOAD AND OR PUSH1 0x5 SSTORE AND DUP8 PUSH1 0x6 SLOAD AND OR PUSH1 0x6 SSTORE AND DUP6 PUSH1 0x7 SLOAD AND OR PUSH1 0x7 SSTORE AND DUP4 PUSH1 0x8 SLOAD AND OR PUSH1 0x8 SSTORE AND DUP2 PUSH1 0x3 SLOAD AND OR PUSH1 0x3 SSTORE CALLER SWAP1 PUSH1 0x9 SLOAD AND OR PUSH1 0x9 SSTORE MLOAD PUSH2 0x98C SWAP1 DUP2 PUSH2 0x1A9 DUP3 CODECOPY RETURN JUMPDEST PUSH4 0x4E487B71 PUSH1 0xE0 SHL DUP8 MSTORE PUSH1 0x41 PUSH1 0x4 MSTORE PUSH1 0x24 DUP8 REVERT JUMPDEST PUSH1 0x0 DUP1 REVERT JUMPDEST PUSH4 0x4E487B71 PUSH1 0xE0 SHL PUSH1 0x0 MSTORE PUSH1 0x41 PUSH1 0x4 MSTORE PUSH1 0x24 PUSH1 0x0 REVERT JUMPDEST MLOAD SWAP1 PUSH1 0x1 PUSH1 0x1 PUSH1 0xA0 SHL SUB DUP3 AND DUP3 SUB PUSH2 0x179 JUMPI JUMP INVALID PUSH1 0x80 PUSH1 0x40 DUP2 DUP2 MSTORE PUSH1 0x4 SWAP2 DUP3 CALLDATASIZE LT ISZERO PUSH2 0x16 JUMPI PUSH1 0x0 DUP1 REVERT JUMPDEST PUSH1 0x0 SWAP1 DUP2 CALLDATALOAD PUSH1 0xE0 SHR SWAP1 DUP2 PUSH4 0x13114A9D EQ PUSH2 0x4AB JUMPI POP DUP1 PUSH4 0x230ED44A EQ PUSH2 0x46A JUMPI DUP1 PUSH4 0x27C8F835 EQ PUSH2 0x444 JUMPI DUP1 PUSH4 0x3205FAE0 EQ PUSH2 0x40A JUMPI DUP1 PUSH4 0x3FC8CEF3 EQ PUSH2 0x3E2 JUMPI DUP1 PUSH4 0x791B98BC EQ PUSH2 0x3BA JUMPI DUP1 PUSH4 0x8B68E038 EQ PUSH2 0x39B JUMPI DUP1 PUSH4 0x8BDB2AFA EQ PUSH2 0x373 JUMPI DUP1 PUSH4 0x8DA5CB5B EQ PUSH2 0x34B JUMPI DUP1 PUSH4 0x9F181B5E EQ PUSH2 0x32E JUMPI DUP1 PUSH4 0xC31C9C07 EQ PUSH2 0x306 JUMPI DUP1 PUSH4 0xC6BBD5A7 EQ PUSH2 0x2DE JUMPI DUP1 PUSH4 0xCD863EF5 EQ PUSH2 0x207 JUMPI DUP1 PUSH4 0xE6CE06E2 EQ PUSH2 0x1D1 JUMPI PUSH4 0xFFC5BAF9 EQ PUSH2 0xC9 JUMPI PUSH1 0x0 DUP1 REVERT JUMPDEST CALLVALUE PUSH2 0x1CE JUMPI DUP2 PUSH1 0x3 NOT CALLDATASIZE ADD SLT PUSH2 0x1CE JUMPI DUP3 CALLDATALOAD PUSH2 0xE3 PUSH2 0x511 JUMP JUMPDEST SWAP2 PUSH1 0x1 PUSH1 0x1 PUSH1 0xA0 SHL SUB SWAP1 PUSH2 0xFC DUP4 DUP4 PUSH1 0x3 SLOAD AND DUP7 PUSH2 0x6FB JUMP JUMPDEST SWAP6 PUSH1 0x5F DUP8 MUL SWAP7 DUP1 DUP9 DIV PUSH1 0x5F EQ SWAP1 ISZERO OR ISZERO PUSH2 0x1BB JUMPI SWAP1 PUSH1 0x20 DUP5 SWAP3 DUP5 PUSH1 0x7 SLOAD AND SWAP1 PUSH2 0x14C DUP10 MLOAD SWAP6 DUP7 SWAP4 DUP5 SWAP4 PUSH4 0x95EA7B3 PUSH1 0xE0 SHL DUP6 MSTORE DUP5 ADD PUSH1 0x20 SWAP1 SWAP4 SWAP3 SWAP2 SWAP4 PUSH1 0x1 PUSH1 0x1 PUSH1 0xA0 SHL SUB PUSH1 0x40 DUP3 ADD SWAP6 AND DUP2 MSTORE ADD MSTORE JUMP JUMPDEST SUB DUP2 DUP5 DUP8 DUP11 AND GAS CALL SWAP1 DUP2 ISZERO PUSH2 0x1B0 JUMPI POP SWAP2 PUSH1 0x20 SWAP7 SWAP4 SWAP2 PUSH2 0x17C SWAP6 SWAP4 PUSH2 0x183 JUMPI JUMPDEST POP PUSH1 0x3 SLOAD AND PUSH1 0x64 CALLER SWAP5 DIV SWAP3 PUSH2 0x831 JUMP JUMPDEST SWAP1 MLOAD SWAP1 DUP2 MSTORE RETURN JUMPDEST PUSH2 0x1A2 SWAP1 DUP9 RETURNDATASIZE DUP11 GT PUSH2 0x1A9 JUMPI JUMPDEST PUSH2 0x19A DUP2 DUP4 PUSH2 0x527 JUMP JUMPDEST DUP2 ADD SWAP1 PUSH2 0x6E3 JUMP JUMPDEST POP CODESIZE PUSH2 0x16C JUMP JUMPDEST POP RETURNDATASIZE PUSH2 0x190 JUMP JUMPDEST DUP7 MLOAD SWAP1 RETURNDATASIZE SWAP1 DUP3 RETURNDATACOPY RETURNDATASIZE SWAP1 REVERT JUMPDEST SWAP1 PUSH1 0x11 PUSH1 0x24 SWAP3 PUSH4 0x4E487B71 PUSH1 0xE0 SHL DUP4 MSTORE MSTORE REVERT JUMPDEST DUP1 REVERT JUMPDEST POP SWAP1 CALLVALUE PUSH2 0x203 JUMPI PUSH1 0x60 CALLDATASIZE PUSH1 0x3 NOT ADD SLT PUSH2 0x203 JUMPI PUSH1 0x20 SWAP1 PUSH2 0x17C PUSH2 0x1F2 PUSH2 0x4F6 JUMP JUMPDEST PUSH2 0x1FA PUSH2 0x511 JUMP JUMPDEST PUSH1 0x44 CALLDATALOAD SWAP2 PUSH2 0x6FB JUMP JUMPDEST POP DUP1 REVERT JUMPDEST POP CALLVALUE PUSH2 0x1CE JUMPI DUP2 PUSH1 0x3 NOT CALLDATASIZE ADD SLT PUSH2 0x1CE JUMPI DUP3 CALLDATALOAD PUSH2 0x222 PUSH2 0x511 JUMP JUMPDEST SWAP2 PUSH1 0x1 PUSH1 0x1 PUSH1 0xA0 SHL SUB SWAP1 PUSH2 0x23B DUP4 DUP6 DUP5 PUSH1 0x3 SLOAD AND PUSH2 0x6FB JUMP JUMPDEST SWAP6 PUSH1 0x5F DUP8 MUL SWAP7 DUP1 DUP9 DIV PUSH1 0x5F EQ SWAP1 ISZERO OR ISZERO PUSH2 0x1BB JUMPI SWAP1 PUSH1 0x20 DUP5 PUSH2 0x294 SWAP4 DUP6 PUSH1 0x3 SLOAD AND SWAP1 DUP5 DUP8 PUSH1 0x7 SLOAD AND SWAP2 DUP12 MLOAD SWAP8 DUP9 SWAP6 DUP7 SWAP5 DUP6 SWAP4 PUSH4 0x95EA7B3 PUSH1 0xE0 SHL DUP6 MSTORE DUP5 ADD PUSH1 0x20 SWAP1 SWAP4 SWAP3 SWAP2 SWAP4 PUSH1 0x1 PUSH1 0x1 PUSH1 0xA0 SHL SUB PUSH1 0x40 DUP3 ADD SWAP6 AND DUP2 MSTORE ADD MSTORE JUMP JUMPDEST SUB SWAP3 GAS CALL SWAP1 DUP2 ISZERO PUSH2 0x1B0 JUMPI POP SWAP2 PUSH1 0x20 SWAP7 SWAP4 SWAP2 PUSH2 0x17C SWAP6 SWAP4 PUSH2 0x2C1 JUMPI JUMPDEST POP PUSH1 0x3 SLOAD AND SWAP2 PUSH1 0x64 CALLER SWAP5 DIV SWAP3 PUSH2 0x831 JUMP JUMPDEST PUSH2 0x2D7 SWAP1 DUP9 RETURNDATASIZE DUP11 GT PUSH2 0x1A9 JUMPI PUSH2 0x19A DUP2 DUP4 PUSH2 0x527 JUMP JUMPDEST POP CODESIZE PUSH2 0x2B0 JUMP JUMPDEST POP SWAP1 CALLVALUE PUSH2 0x203 JUMPI DUP2 PUSH1 0x3 NOT CALLDATASIZE ADD SLT PUSH2 0x203 JUMPI PUSH1 0x20 SWAP1 PUSH1 0x1 PUSH1 0x1 PUSH1 0xA0 SHL SUB PUSH1 0x8 SLOAD AND SWAP1 MLOAD SWAP1 DUP2 MSTORE RETURN JUMPDEST POP SWAP1 CALLVALUE PUSH2 0x203 JUMPI DUP2 PUSH1 0x3 NOT CALLDATASIZE ADD SLT PUSH2 0x203 JUMPI PUSH1 0x20 SWAP1 PUSH1 0x1 PUSH1 0x1 PUSH1 0xA0 SHL SUB PUSH1 0x7 SLOAD AND SWAP1 MLOAD SWAP1 DUP2 MSTORE RETURN JUMPDEST POP SWAP1 CALLVALUE PUSH2 0x203 JUMPI DUP2 PUSH1 0x3 NOT CALLDATASIZE ADD SLT PUSH2 0x203 JUMPI PUSH1 0x20 SWAP2 SLOAD SWAP1 MLOAD SWAP1 DUP2 MSTORE RETURN JUMPDEST POP SWAP1 CALLVALUE PUSH2 0x203 JUMPI DUP2 PUSH1 0x3 NOT CALLDATASIZE ADD SLT PUSH2 0x203 JUMPI PUSH1 0x20 SWAP1 PUSH1 0x1 PUSH1 0x1 PUSH1 0xA0 SHL SUB PUSH1 0x9 SLOAD AND SWAP1 MLOAD SWAP1 DUP2 MSTORE RETURN JUMPDEST POP SWAP1 CALLVALUE PUSH2 0x203 JUMPI DUP2 PUSH1 0x3 NOT CALLDATASIZE ADD SLT PUSH2 0x203 JUMPI PUSH1 0x20 SWAP1 PUSH1 0x1 PUSH1 0x1 PUSH1 0xA0 SHL SUB PUSH1 0x6 SLOAD AND SWAP1 MLOAD SWAP1 DUP2 MSTORE RETURN JUMPDEST POP SWAP1 CALLVALUE PUSH2 0x203 JUMPI DUP2 PUSH1 0x3 NOT CALLDATASIZE ADD SLT PUSH2 0x203 JUMPI PUSH1 0x20 SWAP1 PUSH1 0x1 SLOAD SWAP1 MLOAD SWAP1 DUP2 MSTORE RETURN JUMPDEST POP SWAP1 CALLVALUE PUSH2 0x203 JUMPI DUP2 PUSH1 0x3 NOT CALLDATASIZE ADD SLT PUSH2 0x203 JUMPI PUSH1 0x20 SWAP1 PUSH1 0x1 PUSH1 0x1 PUSH1 0xA0 SHL SUB PUSH1 0x5 SLOAD AND SWAP1 MLOAD SWAP1 DUP2 MSTORE RETURN JUMPDEST POP SWAP1 CALLVALUE PUSH2 0x203 JUMPI DUP2 PUSH1 0x3 NOT CALLDATASIZE ADD SLT PUSH2 0x203 JUMPI PUSH1 0x20 SWAP1 PUSH1 0x1 PUSH1 0x1 PUSH1 0xA0 SHL SUB PUSH1 0x3 SLOAD AND SWAP1 MLOAD SWAP1 DUP2 MSTORE RETURN JUMPDEST POP SWAP1 CALLVALUE PUSH2 0x203 JUMPI DUP1 PUSH1 0x3 NOT CALLDATASIZE ADD SLT PUSH2 0x203 JUMPI PUSH1 0x20 SWAP1 PUSH3 0xFFFFFF PUSH2 0x43C PUSH2 0x42E PUSH2 0x4F6 JUMP JUMPDEST PUSH2 0x436 PUSH2 0x511 JUMP JUMPDEST SWAP1 PUSH2 0x55F JUMP JUMPDEST SWAP2 MLOAD SWAP2 AND DUP2 MSTORE RETURN JUMPDEST POP CALLVALUE PUSH2 0x1CE JUMPI DUP1 PUSH1 0x3 NOT CALLDATASIZE ADD SLT PUSH2 0x1CE JUMPI POP PUSH1 0x1 PUSH1 0x1 PUSH1 0xA0 SHL SUB PUSH1 0x20 SWAP3 SLOAD AND SWAP1 MLOAD SWAP1 DUP2 MSTORE RETURN JUMPDEST POP SWAP2 CALLVALUE PUSH2 0x4A7 JUMPI PUSH1 0x20 CALLDATASIZE PUSH1 0x3 NOT ADD SLT PUSH2 0x4A7 JUMPI CALLDATALOAD SWAP2 PUSH1 0x3 DUP4 LT ISZERO PUSH2 0x1CE JUMPI POP PUSH3 0xFFFFFF PUSH2 0x498 PUSH1 0x20 SWAP4 PUSH2 0x4C7 JUMP JUMPDEST SWAP1 SLOAD SWAP1 PUSH1 0x3 SHL SHR AND SWAP1 MLOAD SWAP1 DUP2 MSTORE RETURN JUMPDEST DUP3 DUP1 REVERT JUMPDEST SWAP1 POP CALLVALUE PUSH2 0x203 JUMPI DUP2 PUSH1 0x3 NOT CALLDATASIZE ADD SLT PUSH2 0x203 JUMPI PUSH1 0x20 SWAP1 PUSH1 0x2 SLOAD DUP2 MSTORE RETURN JUMPDEST SWAP1 PUSH1 0x3 DUP3 LT ISZERO PUSH2 0x4E0 JUMPI PUSH1 0x3 PUSH1 0xA DUP1 DUP5 DIV DUP2 ADD SWAP4 MOD MUL SWAP1 JUMP JUMPDEST PUSH4 0x4E487B71 PUSH1 0xE0 SHL PUSH1 0x0 MSTORE PUSH1 0x32 PUSH1 0x4 MSTORE PUSH1 0x24 PUSH1 0x0 REVERT JUMPDEST PUSH1 0x4 CALLDATALOAD SWAP1 PUSH1 0x1 PUSH1 0x1 PUSH1 0xA0 SHL SUB DUP3 AND DUP3 SUB PUSH2 0x50C JUMPI JUMP JUMPDEST PUSH1 0x0 DUP1 REVERT JUMPDEST PUSH1 0x24 CALLDATALOAD SWAP1 PUSH1 0x1 PUSH1 0x1 PUSH1 0xA0 SHL SUB DUP3 AND DUP3 SUB PUSH2 0x50C JUMPI JUMP JUMPDEST SWAP1 PUSH1 0x1F DUP1 NOT SWAP2 ADD AND DUP2 ADD SWAP1 DUP2 LT PUSH8 0xFFFFFFFFFFFFFFFF DUP3 GT OR PUSH2 0x549 JUMPI PUSH1 0x40 MSTORE JUMP JUMPDEST PUSH4 0x4E487B71 PUSH1 0xE0 SHL PUSH1 0x0 MSTORE PUSH1 0x41 PUSH1 0x4 MSTORE PUSH1 0x24 PUSH1 0x0 REVERT JUMPDEST PUSH1 0x0 SWAP1 PUSH1 0x1 PUSH1 0x1 PUSH1 0xA0 SHL SUB DUP1 PUSH1 0x6 SLOAD AND SWAP3 JUMPDEST PUSH1 0x3 DUP1 DUP3 LT ISZERO PUSH2 0x65F JUMPI PUSH2 0x584 DUP3 PUSH2 0x4C7 JUMP JUMPDEST SWAP2 SWAP1 PUSH3 0xFFFFFF SWAP3 DUP4 SWAP2 SLOAD SWAP1 DUP4 SHL SHR AND PUSH1 0x40 SWAP1 DUP2 MLOAD SWAP1 PUSH32 0x1698EE8200000000000000000000000000000000000000000000000000000000 DUP3 MSTORE DUP7 DUP9 AND PUSH1 0x4 DUP4 ADD MSTORE DUP7 DUP11 AND PUSH1 0x24 DUP4 ADD MSTORE PUSH1 0x44 DUP3 ADD MSTORE PUSH1 0x20 DUP1 DUP3 PUSH1 0x64 DUP2 DUP13 GAS STATICCALL SWAP3 DUP4 ISZERO PUSH2 0x655 JUMPI POP SWAP1 DUP7 SWAP3 SWAP2 PUSH1 0x0 SWAP3 PUSH2 0x619 JUMPI JUMPDEST POP POP AND PUSH2 0x600 JUMPI POP POP PUSH1 0x1 ADD PUSH2 0x571 JUMP JUMPDEST SWAP5 POP SWAP5 POP SWAP1 POP PUSH2 0x610 SWAP2 POP PUSH2 0x4C7 JUMP JUMPDEST SWAP1 SLOAD SWAP2 SHL SHR AND SWAP1 JUMP JUMPDEST SWAP1 DUP1 SWAP3 SWAP4 POP DUP2 RETURNDATASIZE DUP4 GT PUSH2 0x64E JUMPI JUMPDEST PUSH2 0x631 DUP2 DUP4 PUSH2 0x527 JUMP JUMPDEST DUP2 ADD SUB SLT PUSH2 0x203 JUMPI MLOAD SWAP1 DUP6 DUP3 AND DUP3 SUB PUSH2 0x1CE JUMPI POP DUP5 SWAP1 CODESIZE DUP1 PUSH2 0x5EF JUMP JUMPDEST POP RETURNDATASIZE PUSH2 0x627 JUMP JUMPDEST MLOAD RETURNDATASIZE PUSH1 0x0 DUP3 RETURNDATACOPY RETURNDATASIZE SWAP1 REVERT JUMPDEST PUSH1 0x84 PUSH1 0x40 MLOAD PUSH32 0x8C379A000000000000000000000000000000000000000000000000000000000 DUP2 MSTORE PUSH1 0x20 PUSH1 0x4 DUP3 ADD MSTORE PUSH1 0x3E PUSH1 0x24 DUP3 ADD MSTORE PUSH32 0x4E6F20706F6F6C20617661696C61626C6520666F722074686520746F6B656E20 PUSH1 0x44 DUP3 ADD MSTORE PUSH32 0x70616972207769746820737065636966696564206665652074696572732E0000 PUSH1 0x64 DUP3 ADD MSTORE REVERT JUMPDEST SWAP1 DUP2 PUSH1 0x20 SWAP2 SUB SLT PUSH2 0x50C JUMPI MLOAD DUP1 ISZERO ISZERO DUP2 SUB PUSH2 0x50C JUMPI SWAP1 JUMP JUMPDEST SWAP1 SWAP2 PUSH2 0x707 DUP4 DUP4 PUSH2 0x55F JUMP JUMPDEST SWAP1 PUSH1 0x40 SWAP1 DUP2 MLOAD PUSH1 0xA0 DUP2 ADD DUP2 DUP2 LT PUSH8 0xFFFFFFFFFFFFFFFF DUP3 GT OR PUSH2 0x549 JUMPI DUP4 MSTORE PUSH1 0x1 PUSH1 0x1 PUSH1 0xA0 SHL SUB SWAP6 DUP7 DUP1 SWAP7 AND DUP3 MSTORE DUP6 PUSH1 0x20 DUP4 ADD SWAP2 AND DUP2 MSTORE DUP4 DUP3 ADD SWAP3 DUP4 MSTORE DUP6 PUSH1 0x60 DUP4 ADD SWAP6 PUSH3 0xFFFFFF DUP1 SWAP2 AND DUP8 MSTORE PUSH1 0x80 DUP5 ADD SWAP1 PUSH1 0x0 SWAP8 DUP9 SWAP7 DUP8 DUP5 MSTORE DUP5 DUP1 PUSH1 0x8 SLOAD AND SWAP7 DUP11 MLOAD SWAP14 DUP15 SWAP10 PUSH32 0xC6A5026A00000000000000000000000000000000000000000000000000000000 DUP12 MSTORE MLOAD AND PUSH1 0x4 DUP11 ADD MSTORE MLOAD AND PUSH1 0x24 DUP9 ADD MSTORE MLOAD PUSH1 0x44 DUP8 ADD MSTORE MLOAD AND PUSH1 0x64 DUP6 ADD MSTORE MLOAD AND PUSH1 0x84 DUP4 ADD MSTORE DUP2 GAS SWAP4 PUSH1 0xA4 SWAP3 PUSH1 0x80 SWAP6 CALL SWAP4 DUP5 ISZERO PUSH2 0x826 JUMPI DUP3 SWAP5 PUSH2 0x7D0 JUMPI JUMPDEST POP POP POP POP SWAP1 JUMP JUMPDEST SWAP1 SWAP2 SWAP3 SWAP4 POP PUSH1 0x80 DUP2 RETURNDATASIZE PUSH1 0x80 GT PUSH2 0x81E JUMPI JUMPDEST DUP2 PUSH2 0x7EE PUSH1 0x80 SWAP4 DUP4 PUSH2 0x527 JUMP JUMPDEST DUP2 ADD SUB SLT PUSH2 0x4A7 JUMPI DUP1 MLOAD SWAP4 PUSH1 0x20 DUP3 ADD MLOAD SWAP1 DUP2 AND SUB PUSH2 0x4A7 JUMPI ADD MLOAD PUSH4 0xFFFFFFFF DUP2 AND SUB PUSH2 0x1CE JUMPI POP CODESIZE DUP1 DUP1 DUP1 PUSH2 0x7C9 JUMP JUMPDEST RETURNDATASIZE SWAP2 POP PUSH2 0x7E1 JUMP JUMPDEST POP MLOAD SWAP1 RETURNDATASIZE SWAP1 DUP3 RETURNDATACOPY RETURNDATASIZE SWAP1 REVERT JUMPDEST SWAP1 SWAP3 SWAP2 SWAP3 PUSH1 0x40 MLOAD SWAP2 PUSH1 0xE0 DUP4 ADD DUP4 DUP2 LT PUSH8 0xFFFFFFFFFFFFFFFF DUP3 GT OR PUSH2 0x549 JUMPI PUSH1 0x40 MSTORE PUSH1 0x1 PUSH1 0x1 PUSH1 0xA0 SHL SUB SWAP5 DUP6 DUP1 SWAP3 AND DUP5 MSTORE DUP2 PUSH1 0x20 DUP6 ADD SWAP4 AND DUP4 MSTORE PUSH1 0x40 DUP5 ADD SWAP5 PUSH2 0x2710 DUP7 MSTORE DUP3 PUSH1 0x60 DUP7 ADD SWAP9 AND DUP9 MSTORE PUSH1 0x80 DUP6 ADD SWAP2 DUP3 MSTORE PUSH1 0xA0 DUP6 ADD SWAP1 DUP2 MSTORE PUSH1 0xC0 DUP6 ADD SWAP2 DUP4 PUSH1 0x0 SWAP10 DUP11 SWAP9 DUP10 DUP7 MSTORE DUP3 DUP1 PUSH1 0x7 SLOAD AND SWAP9 PUSH1 0x40 MLOAD SWAP13 DUP14 SWAP12 PUSH32 0x4E45AAF00000000000000000000000000000000000000000000000000000000 DUP14 MSTORE MLOAD AND PUSH1 0x4 DUP13 ADD MSTORE MLOAD AND PUSH1 0x24 DUP11 ADD MSTORE MLOAD PUSH3 0xFFFFFF AND PUSH1 0x44 DUP10 ADD MSTORE MLOAD AND PUSH1 0x64 DUP8 ADD MSTORE MLOAD PUSH1 0x84 DUP7 ADD MSTORE MLOAD PUSH1 0xA4 DUP6 ADD MSTORE MLOAD AND PUSH1 0xC4 DUP4 ADD MSTORE DUP2 GAS SWAP4 PUSH1 0xE4 SWAP3 PUSH1 0x20 SWAP6 CALL SWAP2 DUP3 ISZERO PUSH2 0x94A JUMPI DUP1 SWAP3 PUSH2 0x919 JUMPI POP POP SWAP1 JUMP JUMPDEST SWAP1 SWAP2 POP PUSH1 0x20 DUP3 RETURNDATASIZE PUSH1 0x20 GT PUSH2 0x942 JUMPI JUMPDEST DUP2 PUSH2 0x935 PUSH1 0x20 SWAP4 DUP4 PUSH2 0x527 JUMP JUMPDEST DUP2 ADD SUB SLT PUSH2 0x1CE JUMPI POP MLOAD SWAP1 JUMP JUMPDEST RETURNDATASIZE SWAP2 POP PUSH2 0x928 JUMP JUMPDEST PUSH1 0x40 MLOAD SWAP1 RETURNDATASIZE SWAP1 DUP3 RETURNDATACOPY RETURNDATASIZE SWAP1 REVERT INVALID LOG2 PUSH5 0x6970667358 0x22 SLT KECCAK256 0xFC 0xC9 0x2F SAR 0xA8 CALLDATALOAD 0xEC LOG0 NUMBER 0x28 0xAE CALLDATASIZE 0xC8 0xF7 BYTE 0xC4 0x4C MSIZE SWAP16 0xB9 0x29 SDIV 0x22 PUSH11 0xE3B0677EEB2C21BC64736F PUSH13 0x63430008180033000000000000 "},"methodIdentifiers":{"activeTokenCount()":"8b68e038","deadAddress()":"27c8f835","feeTiers(uint256)":"230ed44a","getEstimatedAmountOut(address,address,uint256)":"e6ce06e2","getOptimalFee(address,address)":"3205fae0","owner()":"8da5cb5b","positionManager()":"791b98bc","quoter()":"c6bbd5a7","swapRouter()":"c31c9c07","swapTokensForWETH(uint256,address)":"ffc5baf9","swapWETHforTokens(uint256,address)":"cd863ef5","tokenCount()":"9f181b5e","totalFees()":"13114a9d","uniswapFactory()":"8bdb2afa","weth()":"3fc8cef3"}}}}}