{"contracts/Staking.sol":{"SimpleStaking":{"abi":[{"inputs":[{"internalType":"address","name":"_weth","type":"address"},{"internalType":"address","name":"factory","type":"address"}],"stateMutability":"nonpayable","type":"constructor"},{"inputs":[],"name":"ReentrancyGuardReentrantCall","type":"error"},{"anonymous":false,"inputs":[{"indexed":false,"internalType":"uint256","name":"availableWETH","type":"uint256"}],"name":"DebugAvailableWETH","type":"event"},{"anonymous":false,"inputs":[{"indexed":false,"internalType":"address","name":"user","type":"address"},{"indexed":false,"internalType":"uint256","name":"amountToProcess","type":"uint256"}],"name":"DebugProcessAttempt","type":"event"},{"anonymous":false,"inputs":[{"indexed":false,"internalType":"address","name":"user","type":"address"},{"indexed":false,"internalType":"uint256","name":"amount","type":"uint256"}],"name":"FailedToProcessUnstake","type":"event"},{"anonymous":false,"inputs":[{"indexed":false,"internalType":"uint256","name":"amount","type":"uint256"},{"indexed":false,"internalType":"uint256","name":"timestamp","type":"uint256"}],"name":"FundsReceived","type":"event"},{"anonymous":false,"inputs":[{"indexed":false,"internalType":"uint256","name":"amount","type":"uint256"}],"name":"FundsRequested","type":"event"},{"anonymous":false,"inputs":[{"indexed":false,"internalType":"uint256","name":"amountNeeded","type":"uint256"}],"name":"NotifyFactoryForFunds","type":"event"},{"anonymous":false,"inputs":[{"indexed":false,"internalType":"address","name":"user","type":"address"},{"indexed":false,"internalType":"uint256","name":"requestedAmount","type":"uint256"},{"indexed":false,"internalType":"string","name":"error","type":"string"}],"name":"ProcessUnstakeError","type":"event"},{"anonymous":false,"inputs":[{"indexed":true,"internalType":"address","name":"user","type":"address"},{"indexed":false,"internalType":"uint256","name":"amount","type":"uint256"}],"name":"RewardClaimed","type":"event"},{"anonymous":false,"inputs":[{"indexed":false,"internalType":"uint256","name":"amount","type":"uint256"}],"name":"RewardsAdded","type":"event"},{"anonymous":false,"inputs":[{"indexed":true,"internalType":"address","name":"user","type":"address"},{"indexed":false,"internalType":"uint256","name":"amount","type":"uint256"}],"name":"Stake","type":"event"},{"anonymous":false,"inputs":[{"indexed":false,"internalType":"uint256","name":"newTotalRewards","type":"uint256"}],"name":"TotalRewardsUpdated","type":"event"},{"anonymous":false,"inputs":[{"indexed":true,"internalType":"address","name":"user","type":"address"},{"indexed":false,"internalType":"uint256","name":"amount","type":"uint256"}],"name":"Unstake","type":"event"},{"anonymous":false,"inputs":[{"indexed":true,"internalType":"address","name":"user","type":"address"},{"indexed":false,"internalType":"uint256","name":"amount","type":"uint256"},{"indexed":false,"internalType":"uint256","name":"pendingAmount","type":"uint256"}],"name":"UnstakeProcessed","type":"event"},{"anonymous":false,"inputs":[{"indexed":true,"internalType":"address","name":"user","type":"address"},{"indexed":false,"internalType":"uint256","name":"amount","type":"uint256"},{"indexed":false,"internalType":"uint256","name":"timestamp","type":"uint256"}],"name":"UnstakeQueued","type":"event"},{"anonymous":false,"inputs":[{"indexed":false,"internalType":"uint256","name":"index","type":"uint256"},{"indexed":false,"internalType":"address","name":"user","type":"address"},{"indexed":false,"internalType":"uint256","name":"amount","type":"uint256"},{"indexed":false,"internalType":"uint256","name":"pendingUnstakes","type":"uint256"}],"name":"UnstakeRequestDetails","type":"event"},{"anonymous":false,"inputs":[{"indexed":true,"internalType":"address","name":"user","type":"address"},{"indexed":false,"internalType":"uint256","name":"amount","type":"uint256"},{"indexed":false,"internalType":"uint256","name":"pendingAmount","type":"uint256"}],"name":"UnstakeRequested","type":"event"},{"anonymous":false,"inputs":[{"indexed":false,"internalType":"address","name":"user","type":"address"},{"indexed":false,"internalType":"uint256","name":"processedAmount","type":"uint256"},{"indexed":false,"internalType":"uint256","name":"remainingWETH","type":"uint256"}],"name":"WETHProcessed","type":"event"},{"stateMutability":"payable","type":"fallback"},{"inputs":[],"name":"MIN_UNSTAKE_AMOUNT","outputs":[{"internalType":"uint256","name":"","type":"uint256"}],"stateMutability":"view","type":"function"},{"inputs":[],"name":"REWARD_INTERVAL","outputs":[{"internalType":"uint256","name":"","type":"uint256"}],"stateMutability":"view","type":"function"},{"inputs":[],"name":"accRewardPerShare","outputs":[{"internalType":"uint256","name":"","type":"uint256"}],"stateMutability":"view","type":"function"},{"inputs":[],"name":"addRewards","outputs":[],"stateMutability":"payable","type":"function"},{"inputs":[],"name":"claimRewards","outputs":[],"stateMutability":"nonpayable","type":"function"},{"inputs":[],"name":"factoryAddress","outputs":[{"internalType":"address","name":"","type":"address"}],"stateMutability":"view","type":"function"},{"inputs":[{"internalType":"address","name":"staker","type":"address"}],"name":"getStake","outputs":[{"internalType":"uint256","name":"","type":"uint256"}],"stateMutability":"view","type":"function"},{"inputs":[],"name":"getTotalRewards","outputs":[{"internalType":"uint256","name":"","type":"uint256"}],"stateMutability":"view","type":"function"},{"inputs":[],"name":"getTotalStaked","outputs":[{"internalType":"uint256","name":"","type":"uint256"}],"stateMutability":"view","type":"function"},{"inputs":[],"name":"getTotalUnstakeQueueAmount","outputs":[{"internalType":"uint256","name":"totalAmount","type":"uint256"}],"stateMutability":"view","type":"function"},{"inputs":[],"name":"getUnstakeQueueLength","outputs":[{"internalType":"uint256","name":"","type":"uint256"}],"stateMutability":"view","type":"function"},{"inputs":[{"internalType":"uint256","name":"index","type":"uint256"}],"name":"getUnstakeRequest","outputs":[{"internalType":"address","name":"user","type":"address"},{"internalType":"uint256","name":"amount","type":"uint256"},{"internalType":"uint256","name":"timestamp","type":"uint256"}],"stateMutability":"view","type":"function"},{"inputs":[],"name":"handleReceivedWETH","outputs":[],"stateMutability":"nonpayable","type":"function"},{"inputs":[],"name":"lastRewardTime","outputs":[{"internalType":"uint256","name":"","type":"uint256"}],"stateMutability":"view","type":"function"},{"inputs":[{"internalType":"uint256","name":"amount","type":"uint256"}],"name":"notifyFundsReceived","outputs":[],"stateMutability":"nonpayable","type":"function"},{"inputs":[],"name":"owner","outputs":[{"internalType":"address","name":"","type":"address"}],"stateMutability":"view","type":"function"},{"inputs":[{"internalType":"address","name":"_user","type":"address"}],"name":"pendingReward","outputs":[{"internalType":"uint256","name":"","type":"uint256"}],"stateMutability":"view","type":"function"},{"inputs":[{"internalType":"address","name":"","type":"address"}],"name":"pendingUnstakes","outputs":[{"internalType":"uint256","name":"","type":"uint256"}],"stateMutability":"view","type":"function"},{"inputs":[{"internalType":"uint256","name":"amount","type":"uint256"}],"name":"requestUnstake","outputs":[],"stateMutability":"nonpayable","type":"function"},{"inputs":[{"internalType":"address","name":"","type":"address"}],"name":"rewardDebt","outputs":[{"internalType":"uint256","name":"","type":"uint256"}],"stateMutability":"view","type":"function"},{"inputs":[],"name":"rewardRate","outputs":[{"internalType":"uint256","name":"","type":"uint256"}],"stateMutability":"view","type":"function"},{"inputs":[{"internalType":"address","name":"_factoryAddress","type":"address"}],"name":"setFactoryAddress","outputs":[],"stateMutability":"nonpayable","type":"function"},{"inputs":[],"name":"stake","outputs":[],"stateMutability":"payable","type":"function"},{"inputs":[{"internalType":"address","name":"","type":"address"}],"name":"stakes","outputs":[{"internalType":"uint256","name":"","type":"uint256"}],"stateMutability":"view","type":"function"},{"inputs":[],"name":"totalFundsNeeded","outputs":[{"internalType":"uint256","name":"","type":"uint256"}],"stateMutability":"view","type":"function"},{"inputs":[],"name":"totalRewards","outputs":[{"internalType":"uint256","name":"","type":"uint256"}],"stateMutability":"view","type":"function"},{"inputs":[],"name":"totalStaked","outputs":[{"internalType":"uint256","name":"","type":"uint256"}],"stateMutability":"view","type":"function"},{"inputs":[{"internalType":"uint256","name":"","type":"uint256"}],"name":"unstakeQueue","outputs":[{"internalType":"address","name":"user","type":"address"},{"internalType":"uint256","name":"amount","type":"uint256"},{"internalType":"uint256","name":"timestamp","type":"uint256"}],"stateMutability":"view","type":"function"},{"inputs":[],"name":"weth","outputs":[{"internalType":"address","name":"","type":"address"}],"stateMutability":"view","type":"function"},{"stateMutability":"payable","type":"receive"}],"evm":{"bytecode":{"linkReferences":{},"object":"60803461009b57601f6119be38819003918201601f19168301916001600160401b038311848410176100a057808492604094855283398101031261009b57610052602061004b836100b6565b92016100b6565b90600160005560018060a01b0319913383600654161760065542600a5560018060a01b03809216836005541617600555169060045416176004556040516118f390816100cb8239f35b600080fd5b634e487b7160e01b600052604160045260246000fd5b51906001600160a01b038216820361009b5756fe608060408181526004918236101561001f575b505050361561001d57005b005b600090813560e01c9081630917e776146112b8575080630e15561a1461029457806314d6aed01461110e57806316934fc4146106255780632309572114610d28578063372500ab14610a975780633a4b66f1146106fc5780633bac9c99146106dd5780633fc8cef3146106b55780635873eb9b1461067c5780635dbdda691461065e5780637a766460146106255780637b0a47ee14610606578063817b1cd2146105e757806383c17c551461054e5780638da5cb5b146105265780639231cf7414610507578063939d6237146104e8578063966dae0e146104c25780639b5ceb3514610421578063afa58070146103f8578063b8e347df146103db578063bc6738cb146103b9578063c4ebe08814610391578063d6b6b23f14610354578063ddb59e13146102b3578063e627f2db14610294578063f3385ace146102715763f40f0f5203610012573461026e57602036600319011261026e578235906001600160a01b03821680920361026e57600954600a5480421180610263575b6101da575b6020856101d386828764e8d4a510006101c38985845260018952848420546113c1565b0492815260028652205490611371565b9051908152f35b6101e76101f09142611371565b600b54906113c1565b60085480821161025b575b5064e8d4a510009081810291818304149015171561024857602095509164e8d4a510006101c361023d87946102376101d39897600754906113a1565b90611394565b9350505091926101a0565b602483601188634e487b7160e01b835252fd5b9050386101fb565b50600754151561019b565b80fd5b509034610290578160031936011261029057602090600d549051908152f35b5080fd5b5090346102905781600319360112610290576020906008549051908152f35b5082903461026e57602036600319011261026e5750803590600c5482101561031157506102df906112d4565b508054600182015460029092015492516001600160a01b03909116815260208101919091526040810191909152606090f35b606490602084519162461bcd60e51b8352820152601360248201527f496e646578206f7574206f6620626f756e6473000000000000000000000000006044820152fd5b50913461038d57602036600319011261038d57356001600160a01b03811680910361038d57828291602094526003845220549051908152f35b8280fd5b503461026e578060031936011261026e576103aa6116f3565b6103b261140a565b6001815580f35b5090346102905781600319360112610290576020905166038d7ea4c680008152f35b5090346102905781600319360112610290576020906101d36113d4565b508234610290576020366003190112610290573590600c5482101561026e57506102df906112d4565b50913461038d57602036600319011261038d576001600160a01b03815416330361048057907f063d07ee72a7483b8e07ca09054bb686775c5c030f945dde3823a5257a0a93eb91815190358152426020820152a161047d61140a565b80f35b6020606492519162461bcd60e51b8352820152601760248201527f4f6e6c7920666163746f72792063616e206e6f746966790000000000000000006044820152fd5b503461026e578060031936011261026e57506001600160a01b0360209254169051908152f35b5090346102905781600319360112610290576020906009549051908152f35b509034610290578160031936011261029057602090600a549051908152f35b5090346102905781600319360112610290576020906001600160a01b03600654169051908152f35b5091903461038d57602036600319011261038d578135906001600160a01b038083168093036105e3576006541633036105a1575073ffffffffffffffffffffffffffffffffffffffff1982541617905580f35b5162461bcd60e51b8152602081840152601760248201527f43616c6c6572206973206e6f7420746865206f776e65720000000000000000006044820152606490fd5b8480fd5b5090346102905781600319360112610290576020906007549051908152f35b509034610290578160031936011261029057602090600b549051908152f35b50913461038d57602036600319011261038d57356001600160a01b03811680910361038d57828291602094526001845220549051908152f35b5090346102905781600319360112610290576020905162093a808152f35b50913461038d57602036600319011261038d57356001600160a01b03811680910361038d57828291602094526002845220549051908152f35b5090346102905781600319360112610290576020906001600160a01b03600554169051908152f35b509034610290578160031936011261029057602090600c549051908152f35b5091908260031936011261038d576107126116f3565b66038d7ea4c680003410610a5457610728611675565b6001600160a01b0391838360055416803b1561029057818391855192838092630d0e30db60e41b825234905af18015610a4a57610a36575b50506046340234810460461434151715610a235760649004926107838434611371565b50806005541681835416845180927fa9059cbb0000000000000000000000000000000000000000000000000000000082528189816107dd60209b8c978b8401602090939291936001600160a01b0360408201951681520152565b03925af1908115610a195786916109df575b501561099d57849033825260018552838220548061088a575b82867febedb8b3c678666e7f36970bc8f57abf6d8fa2e828c0da91ea5b75bf68ed101a8733845260018352808420610841348254611394565b905561084f34600754611394565b6007553384526001835264e8d4a5100061086f82862054600954906113c1565b04338552600284528185205551913483523392a26001815580f35b64e8d4a510006108a06108b292600954906113c1565b04338452600287528584205490611371565b9283159182156108c3575b50610808565b6005541690813b156109995784602485928389519586948593632e1a7d4d60e01b85528401525af1801561098f5790839161097b575b50839091610971575b8280929181923390f11561096757907febedb8b3c678666e7f36970bc8f57abf6d8fa2e828c0da91ea5b75bf68ed101a9181519081527f106f923f993c2149d49b4255ff723acafa1f2d94393f561d3eda32ae348f7241843392a290833880806108bd565b81513d85823e3d90fd5b6108fc9150610902565b61098490611325565b6102905781386108f9565b85513d85823e3d90fd5b8380fd5b5082606492519162461bcd60e51b8352820152601e60248201527f4661696c656420746f2073656e64205745544820746f20666163746f727900006044820152fd5b90508481813d8311610a12575b6109f6818361134f565b81010312610a0e57518015158103610a0e57386107ef565b8580fd5b503d6109ec565b84513d88823e3d90fd5b602485601184634e487b7160e01b835252fd5b610a3f90611325565b610999578338610760565b84513d84823e3d90fd5b906020606492519162461bcd60e51b8352820152601f60248201527f506c65617365207374616b65206174206c6561737420302e30303120455448006044820152fd5b5091903461038d578260031936011261038d57610ab26116f3565b610aba611675565b33835260209060018252808420548015610cc057610ae164e8d4a5100091600954906113c1565b049233855260028352610af78286205485611371565b938415610c7e57600854858110610c3c5785610b1291611371565b6008553386526002845282862055846001600160a01b0360055416803b15610290578180916024865180948193632e1a7d4d60e01b83528b898401525af18015610a4a57610c28575b5080808087335af13d15610c23573d67ffffffffffffffff8111610c1057835190610b8f601f8201601f191687018361134f565b815286853d92013e5b15610bcf5750907f106f923f993c2149d49b4255ff723acafa1f2d94393f561d3eda32ae348f724191519283523392a26001815580f35b82606492519162461bcd60e51b8352820152601260248201527f4661696c656420746f2073656e642045544800000000000000000000000000006044820152fd5b602487604185634e487b7160e01b835252fd5b610b98565b610c3190611325565b6105e3578438610b5b565b6064838686519162461bcd60e51b8352820152601a60248201527f4e6f7420656e6f756768207265776172647320696e20706f6f6c0000000000006044820152fd5b5082606492519162461bcd60e51b8352820152601360248201527f4e6f207265776172647320746f20636c61696d000000000000000000000000006044820152fd5b5060849350519162461bcd60e51b8352820152602560248201527f4e6f207374616b656420616d6f756e7420746f20636c61696d2072657761726460448201527f7320666f720000000000000000000000000000000000000000000000000000006064820152fd5b509034610290576020908160031936011261038d57833591610d486116f3565b66038d7ea4c6800083106110cc57610d5e611675565b3384526001815282828520541061108a576001600160a01b038060055416835183816024816370a0823160e01b95868252308d8301525afa90811561104f57879161105d575b50858110610dfc5750505082939450610dde7f57e41df54512c76148b5ba9b643d149752b0d35e493b969bd017d0a3fe5228cf933361172e565b33855260038152818520549082519485528401523392a26001815580f35b610e069086611371565b82885416803b156110595785517fbe5ef17600000000000000000000000000000000000000000000000000000000815230818b019081526020810193909352918891839182908490829060400103925af1801561104f5790879161103b575b50508282600554169160248651809481938252308c8301525afa908115610a19579085918791611005575b5010610ecb575082939450610ec67f57e41df54512c76148b5ba9b643d149752b0d35e493b969bd017d0a3fe5228cf933361172e565b610dde565b33855260038252828520610ee0858254611394565b90558251906060820182811067ffffffffffffffff821117610ff057845233825282820185815284830191428352600c5468010000000000000000811015610fdd57806001610f329201600c556112d4565b949094610fcb577f57e41df54512c76148b5ba9b643d149752b0d35e493b969bd017d0a3fe5228cf97989950906002939291511673ffffffffffffffffffffffffffffffffffffffff1985541617845551600184015551910155815184815242828201527ff24ceb8901eaecb633a833076ec1a09f317122e81bd3bc200d811e0c9bb08146833392a2610ec6610fc66113d4565b611830565b602489808c634e487b7160e01b825252fd5b60248960418c634e487b7160e01b835252fd5b604188634e487b7160e01b6000525260246000fd5b809250848092503d8311611034575b61101e818361134f565b8101031261102f5784905138610e90565b600080fd5b503d611014565b61104490611325565b610a0e578538610e65565b85513d89823e3d90fd5b8780fd5b90508381813d8311611083575b611074818361134f565b8101031261102f575138610da4565b503d61106a565b8490606492519162461bcd60e51b8352820152601b60248201527f496e73756666696369656e74207374616b65642062616c616e636500000000006044820152fd5b8490606492519162461bcd60e51b8352820152601660248201527f556e7374616b6520616d6f756e7420746f6f206c6f77000000000000000000006044820152fd5b50918260031936011261038d576001600160a01b038060065416331480156112af575b80156112a3575b1561126057341561121d57839061114d611675565b60055416803b1561029057835192838092630d0e30db60e41b825234905af18015611211576111db575b5060207ff8fad42e780bfa5459be3fe691e8ba1aec70342250112139c5771c3fd155f312916111cc62093a80806111b0600a5442611371565b0690806111bf34600854611394565b92836008550491046113c1565b600b5542600a5551348152a180f35b7ff8fad42e780bfa5459be3fe691e8ba1aec70342250112139c5771c3fd155f3129192611209602092611325565b929150611177565b505051903d90823e3d90fd5b506020606492519162461bcd60e51b8352820152601160248201527f4e6f207265776172647320746f206164640000000000000000000000000000006044820152fd5b506020606492519162461bcd60e51b8352820152601860248201527f43616c6c6572206973206e6f7420617574686f72697a656400000000000000006044820152fd5b50808254163314611138565b50303314611131565b9050346102905781600319360112610290576020906007548152f35b600c5481101561130f57600390600c600052027fdf6966c971051c3d54ec59162606531493a51404a002842f56009d7e5cf4a8c70190600090565b634e487b7160e01b600052603260045260246000fd5b67ffffffffffffffff811161133957604052565b634e487b7160e01b600052604160045260246000fd5b90601f8019910116810190811067ffffffffffffffff82111761133957604052565b9190820391821161137e57565b634e487b7160e01b600052601160045260246000fd5b9190820180921161137e57565b81156113ab570490565b634e487b7160e01b600052601260045260246000fd5b8181029291811591840414171561137e57565b600080600c545b8082106113e757505090565b9091611402600191826113f9866112d4565b50015490611394565b9201906113db565b6001600160a01b038060055416604051809381936370a0823160e01b83526004933085850152602095869160249889915afa9283156116695760009361163a575b507f264b03945932e4bc51e688f9f27dbb1f5faba7660d11abdbf7e7f41ed87928ba8584604051908152a160009283925b600c918254851080611631575b156115eb57611497856112d4565b50600180820180549193929091908184106115af576114c5939291886114be92541661172e565b5490611371565b9280546000199081810190811161159b576114df906112d4565b506114e9886112d4565b91909161158857808203611550575b50508154801561153c57019161150d836112d4565b919091611529578160006002928180955582015501555561147c565b8b60008b634e487b7160e01b8252526000fd5b8b60318b634e487b7160e01b600052526000fd5b8781541673ffffffffffffffffffffffffffffffffffffffff19835416178255848101548583015560028091015491015538806114f8565b8c60008c634e487b7160e01b8252526000fd5b8b60118b634e487b7160e01b600052526000fd5b508295506102379150916115c69394979892611371565b9460001981146115d757019261147c565b88601188634e487b7160e01b600052526000fd5b509650505050919050816115fd575050565b816116287fd5e85995d9bdcdafb72531ec59faef29167c16780583ca2068587fe896170c4793611830565b604051908152a1565b50801515611489565b9092508481813d8311611662575b611652818361134f565b8101031261102f5751913861144b565b503d611648565b6040513d6000823e3d90fd5b600a544211156116f15760075480156116ea576116976101e7600a5442611371565b6008548082116116e2575b64e8d4a510009283830293838504148315171561137e576116c96116d1916116d9956113a1565b600954611394565b600955611371565b60085542600a55565b9050806116a2565b5042600a55565b565b600260005414611704576002600055565b60046040517f3ee5aeb5000000000000000000000000000000000000000000000000000000008152fd5b90600554916000926001600160a01b0380911691823b156105e35784806040946024865180948193632e1a7d4d60e01b83528a60048401525af18015610a195761181d575b501692808385828215611814575b839283928392f115611809579160209183857f85082129d87b2fe11527cb1b3b7a520aeb5aa6913f88a3d8757fe40d1db02fdd9552600184528181206117c8848254611371565b90556117d683600754611371565b600755858152600184528164e8d4a510006117f782842054600954906113c1565b049187815260028652205551908152a2565b9051903d90823e3d90fd5b506108fc611781565b61182990959195611325565b9338611773565b7fac0a36a73050720c3fa0d6988cca2309ef4472b3b09fafa8e713f434ff33a05b6020604051838152a16001600160a01b036004541690813b1561102f576000916024839260405194859384927f8c3a65a200000000000000000000000000000000000000000000000000000000845260048401525af18015611669576118b45750565b6116f19061132556fea2646970667358221220cf9f411927824568d87a48a9292d42321dbe812fdaf141f72f0290d5e7e2651e64736f6c63430008180033","opcodes":"PUSH1 0x80 CALLVALUE PUSH2 0x9B JUMPI PUSH1 0x1F PUSH2 0x19BE CODESIZE DUP2 SWAP1 SUB SWAP2 DUP3 ADD PUSH1 0x1F NOT AND DUP4 ADD SWAP2 PUSH1 0x1 PUSH1 0x1 PUSH1 0x40 SHL SUB DUP4 GT DUP5 DUP5 LT OR PUSH2 0xA0 JUMPI DUP1 DUP5 SWAP3 PUSH1 0x40 SWAP5 DUP6 MSTORE DUP4 CODECOPY DUP2 ADD SUB SLT PUSH2 0x9B JUMPI PUSH2 0x52 PUSH1 0x20 PUSH2 0x4B DUP4 PUSH2 0xB6 JUMP JUMPDEST SWAP3 ADD PUSH2 0xB6 JUMP JUMPDEST SWAP1 PUSH1 0x1 PUSH1 0x0 SSTORE PUSH1 0x1 DUP1 PUSH1 0xA0 SHL SUB NOT SWAP2 CALLER DUP4 PUSH1 0x6 SLOAD AND OR PUSH1 0x6 SSTORE TIMESTAMP PUSH1 0xA SSTORE PUSH1 0x1 DUP1 PUSH1 0xA0 SHL SUB DUP1 SWAP3 AND DUP4 PUSH1 0x5 SLOAD AND OR PUSH1 0x5 SSTORE AND SWAP1 PUSH1 0x4 SLOAD AND OR PUSH1 0x4 SSTORE PUSH1 0x40 MLOAD PUSH2 0x18F3 SWAP1 DUP2 PUSH2 0xCB DUP3 CODECOPY RETURN JUMPDEST PUSH1 0x0 DUP1 REVERT JUMPDEST PUSH4 0x4E487B71 PUSH1 0xE0 SHL PUSH1 0x0 MSTORE PUSH1 0x41 PUSH1 0x4 MSTORE PUSH1 0x24 PUSH1 0x0 REVERT JUMPDEST MLOAD SWAP1 PUSH1 0x1 PUSH1 0x1 PUSH1 0xA0 SHL SUB DUP3 AND DUP3 SUB PUSH2 0x9B JUMPI JUMP INVALID PUSH1 0x80 PUSH1 0x40 DUP2 DUP2 MSTORE PUSH1 0x4 SWAP2 DUP3 CALLDATASIZE LT ISZERO PUSH2 0x1F JUMPI JUMPDEST POP POP POP CALLDATASIZE ISZERO PUSH2 0x1D JUMPI STOP JUMPDEST STOP JUMPDEST PUSH1 0x0 SWAP1 DUP2 CALLDATALOAD PUSH1 0xE0 SHR SWAP1 DUP2 PUSH4 0x917E776 EQ PUSH2 0x12B8 JUMPI POP DUP1 PUSH4 0xE15561A EQ PUSH2 0x294 JUMPI DUP1 PUSH4 0x14D6AED0 EQ PUSH2 0x110E JUMPI DUP1 PUSH4 0x16934FC4 EQ PUSH2 0x625 JUMPI DUP1 PUSH4 0x23095721 EQ PUSH2 0xD28 JUMPI DUP1 PUSH4 0x372500AB EQ PUSH2 0xA97 JUMPI DUP1 PUSH4 0x3A4B66F1 EQ PUSH2 0x6FC JUMPI DUP1 PUSH4 0x3BAC9C99 EQ PUSH2 0x6DD JUMPI DUP1 PUSH4 0x3FC8CEF3 EQ PUSH2 0x6B5 JUMPI DUP1 PUSH4 0x5873EB9B EQ PUSH2 0x67C JUMPI DUP1 PUSH4 0x5DBDDA69 EQ PUSH2 0x65E JUMPI DUP1 PUSH4 0x7A766460 EQ PUSH2 0x625 JUMPI DUP1 PUSH4 0x7B0A47EE EQ PUSH2 0x606 JUMPI DUP1 PUSH4 0x817B1CD2 EQ PUSH2 0x5E7 JUMPI DUP1 PUSH4 0x83C17C55 EQ PUSH2 0x54E JUMPI DUP1 PUSH4 0x8DA5CB5B EQ PUSH2 0x526 JUMPI DUP1 PUSH4 0x9231CF74 EQ PUSH2 0x507 JUMPI DUP1 PUSH4 0x939D6237 EQ PUSH2 0x4E8 JUMPI DUP1 PUSH4 0x966DAE0E EQ PUSH2 0x4C2 JUMPI DUP1 PUSH4 0x9B5CEB35 EQ PUSH2 0x421 JUMPI DUP1 PUSH4 0xAFA58070 EQ PUSH2 0x3F8 JUMPI DUP1 PUSH4 0xB8E347DF EQ PUSH2 0x3DB JUMPI DUP1 PUSH4 0xBC6738CB EQ PUSH2 0x3B9 JUMPI DUP1 PUSH4 0xC4EBE088 EQ PUSH2 0x391 JUMPI DUP1 PUSH4 0xD6B6B23F EQ PUSH2 0x354 JUMPI DUP1 PUSH4 0xDDB59E13 EQ PUSH2 0x2B3 JUMPI DUP1 PUSH4 0xE627F2DB EQ PUSH2 0x294 JUMPI DUP1 PUSH4 0xF3385ACE EQ PUSH2 0x271 JUMPI PUSH4 0xF40F0F52 SUB PUSH2 0x12 JUMPI CALLVALUE PUSH2 0x26E JUMPI PUSH1 0x20 CALLDATASIZE PUSH1 0x3 NOT ADD SLT PUSH2 0x26E JUMPI DUP3 CALLDATALOAD SWAP1 PUSH1 0x1 PUSH1 0x1 PUSH1 0xA0 SHL SUB DUP3 AND DUP1 SWAP3 SUB PUSH2 0x26E JUMPI PUSH1 0x9 SLOAD PUSH1 0xA SLOAD DUP1 TIMESTAMP GT DUP1 PUSH2 0x263 JUMPI JUMPDEST PUSH2 0x1DA JUMPI JUMPDEST PUSH1 0x20 DUP6 PUSH2 0x1D3 DUP7 DUP3 DUP8 PUSH5 0xE8D4A51000 PUSH2 0x1C3 DUP10 DUP6 DUP5 MSTORE PUSH1 0x1 DUP10 MSTORE DUP5 DUP5 KECCAK256 SLOAD PUSH2 0x13C1 JUMP JUMPDEST DIV SWAP3 DUP2 MSTORE PUSH1 0x2 DUP7 MSTORE KECCAK256 SLOAD SWAP1 PUSH2 0x1371 JUMP JUMPDEST SWAP1 MLOAD SWAP1 DUP2 MSTORE RETURN JUMPDEST PUSH2 0x1E7 PUSH2 0x1F0 SWAP2 TIMESTAMP PUSH2 0x1371 JUMP JUMPDEST PUSH1 0xB SLOAD SWAP1 PUSH2 0x13C1 JUMP JUMPDEST PUSH1 0x8 SLOAD DUP1 DUP3 GT PUSH2 0x25B JUMPI JUMPDEST POP PUSH5 0xE8D4A51000 SWAP1 DUP2 DUP2 MUL SWAP2 DUP2 DUP4 DIV EQ SWAP1 ISZERO OR ISZERO PUSH2 0x248 JUMPI PUSH1 0x20 SWAP6 POP SWAP2 PUSH5 0xE8D4A51000 PUSH2 0x1C3 PUSH2 0x23D DUP8 SWAP5 PUSH2 0x237 PUSH2 0x1D3 SWAP9 SWAP8 PUSH1 0x7 SLOAD SWAP1 PUSH2 0x13A1 JUMP JUMPDEST SWAP1 PUSH2 0x1394 JUMP JUMPDEST SWAP4 POP POP POP SWAP2 SWAP3 PUSH2 0x1A0 JUMP JUMPDEST PUSH1 0x24 DUP4 PUSH1 0x11 DUP9 PUSH4 0x4E487B71 PUSH1 0xE0 SHL DUP4 MSTORE MSTORE REVERT JUMPDEST SWAP1 POP CODESIZE PUSH2 0x1FB JUMP JUMPDEST POP PUSH1 0x7 SLOAD ISZERO ISZERO PUSH2 0x19B JUMP JUMPDEST DUP1 REVERT JUMPDEST POP SWAP1 CALLVALUE PUSH2 0x290 JUMPI DUP2 PUSH1 0x3 NOT CALLDATASIZE ADD SLT PUSH2 0x290 JUMPI PUSH1 0x20 SWAP1 PUSH1 0xD SLOAD SWAP1 MLOAD SWAP1 DUP2 MSTORE RETURN JUMPDEST POP DUP1 REVERT JUMPDEST POP SWAP1 CALLVALUE PUSH2 0x290 JUMPI DUP2 PUSH1 0x3 NOT CALLDATASIZE ADD SLT PUSH2 0x290 JUMPI PUSH1 0x20 SWAP1 PUSH1 0x8 SLOAD SWAP1 MLOAD SWAP1 DUP2 MSTORE RETURN JUMPDEST POP DUP3 SWAP1 CALLVALUE PUSH2 0x26E JUMPI PUSH1 0x20 CALLDATASIZE PUSH1 0x3 NOT ADD SLT PUSH2 0x26E JUMPI POP DUP1 CALLDATALOAD SWAP1 PUSH1 0xC SLOAD DUP3 LT ISZERO PUSH2 0x311 JUMPI POP PUSH2 0x2DF SWAP1 PUSH2 0x12D4 JUMP JUMPDEST POP DUP1 SLOAD PUSH1 0x1 DUP3 ADD SLOAD PUSH1 0x2 SWAP1 SWAP3 ADD SLOAD SWAP3 MLOAD PUSH1 0x1 PUSH1 0x1 PUSH1 0xA0 SHL SUB SWAP1 SWAP2 AND DUP2 MSTORE PUSH1 0x20 DUP2 ADD SWAP2 SWAP1 SWAP2 MSTORE PUSH1 0x40 DUP2 ADD SWAP2 SWAP1 SWAP2 MSTORE PUSH1 0x60 SWAP1 RETURN JUMPDEST PUSH1 0x64 SWAP1 PUSH1 0x20 DUP5 MLOAD SWAP2 PUSH3 0x461BCD PUSH1 0xE5 SHL DUP4 MSTORE DUP3 ADD MSTORE PUSH1 0x13 PUSH1 0x24 DUP3 ADD MSTORE PUSH32 0x496E646578206F7574206F6620626F756E647300000000000000000000000000 PUSH1 0x44 DUP3 ADD MSTORE REVERT JUMPDEST POP SWAP2 CALLVALUE PUSH2 0x38D JUMPI PUSH1 0x20 CALLDATASIZE PUSH1 0x3 NOT ADD SLT PUSH2 0x38D JUMPI CALLDATALOAD PUSH1 0x1 PUSH1 0x1 PUSH1 0xA0 SHL SUB DUP2 AND DUP1 SWAP2 SUB PUSH2 0x38D JUMPI DUP3 DUP3 SWAP2 PUSH1 0x20 SWAP5 MSTORE PUSH1 0x3 DUP5 MSTORE KECCAK256 SLOAD SWAP1 MLOAD SWAP1 DUP2 MSTORE RETURN JUMPDEST DUP3 DUP1 REVERT JUMPDEST POP CALLVALUE PUSH2 0x26E JUMPI DUP1 PUSH1 0x3 NOT CALLDATASIZE ADD SLT PUSH2 0x26E JUMPI PUSH2 0x3AA PUSH2 0x16F3 JUMP JUMPDEST PUSH2 0x3B2 PUSH2 0x140A JUMP JUMPDEST PUSH1 0x1 DUP2 SSTORE DUP1 RETURN JUMPDEST POP SWAP1 CALLVALUE PUSH2 0x290 JUMPI DUP2 PUSH1 0x3 NOT CALLDATASIZE ADD SLT PUSH2 0x290 JUMPI PUSH1 0x20 SWAP1 MLOAD PUSH7 0x38D7EA4C68000 DUP2 MSTORE RETURN JUMPDEST POP SWAP1 CALLVALUE PUSH2 0x290 JUMPI DUP2 PUSH1 0x3 NOT CALLDATASIZE ADD SLT PUSH2 0x290 JUMPI PUSH1 0x20 SWAP1 PUSH2 0x1D3 PUSH2 0x13D4 JUMP JUMPDEST POP DUP3 CALLVALUE PUSH2 0x290 JUMPI PUSH1 0x20 CALLDATASIZE PUSH1 0x3 NOT ADD SLT PUSH2 0x290 JUMPI CALLDATALOAD SWAP1 PUSH1 0xC SLOAD DUP3 LT ISZERO PUSH2 0x26E JUMPI POP PUSH2 0x2DF SWAP1 PUSH2 0x12D4 JUMP JUMPDEST POP SWAP2 CALLVALUE PUSH2 0x38D JUMPI PUSH1 0x20 CALLDATASIZE PUSH1 0x3 NOT ADD SLT PUSH2 0x38D JUMPI PUSH1 0x1 PUSH1 0x1 PUSH1 0xA0 SHL SUB DUP2 SLOAD AND CALLER SUB PUSH2 0x480 JUMPI SWAP1 PUSH32 0x63D07EE72A7483B8E07CA09054BB686775C5C030F945DDE3823A5257A0A93EB SWAP2 DUP2 MLOAD SWAP1 CALLDATALOAD DUP2 MSTORE TIMESTAMP PUSH1 0x20 DUP3 ADD MSTORE LOG1 PUSH2 0x47D PUSH2 0x140A JUMP JUMPDEST DUP1 RETURN JUMPDEST PUSH1 0x20 PUSH1 0x64 SWAP3 MLOAD SWAP2 PUSH3 0x461BCD PUSH1 0xE5 SHL DUP4 MSTORE DUP3 ADD MSTORE PUSH1 0x17 PUSH1 0x24 DUP3 ADD MSTORE PUSH32 0x4F6E6C7920666163746F72792063616E206E6F74696679000000000000000000 PUSH1 0x44 DUP3 ADD MSTORE REVERT JUMPDEST POP CALLVALUE PUSH2 0x26E JUMPI DUP1 PUSH1 0x3 NOT CALLDATASIZE ADD SLT PUSH2 0x26E JUMPI POP PUSH1 0x1 PUSH1 0x1 PUSH1 0xA0 SHL SUB PUSH1 0x20 SWAP3 SLOAD AND SWAP1 MLOAD SWAP1 DUP2 MSTORE RETURN JUMPDEST POP SWAP1 CALLVALUE PUSH2 0x290 JUMPI DUP2 PUSH1 0x3 NOT CALLDATASIZE ADD SLT PUSH2 0x290 JUMPI PUSH1 0x20 SWAP1 PUSH1 0x9 SLOAD SWAP1 MLOAD SWAP1 DUP2 MSTORE RETURN JUMPDEST POP SWAP1 CALLVALUE PUSH2 0x290 JUMPI DUP2 PUSH1 0x3 NOT CALLDATASIZE ADD SLT PUSH2 0x290 JUMPI PUSH1 0x20 SWAP1 PUSH1 0xA SLOAD SWAP1 MLOAD SWAP1 DUP2 MSTORE RETURN JUMPDEST POP SWAP1 CALLVALUE PUSH2 0x290 JUMPI DUP2 PUSH1 0x3 NOT CALLDATASIZE ADD SLT PUSH2 0x290 JUMPI PUSH1 0x20 SWAP1 PUSH1 0x1 PUSH1 0x1 PUSH1 0xA0 SHL SUB PUSH1 0x6 SLOAD AND SWAP1 MLOAD SWAP1 DUP2 MSTORE RETURN JUMPDEST POP SWAP2 SWAP1 CALLVALUE PUSH2 0x38D JUMPI PUSH1 0x20 CALLDATASIZE PUSH1 0x3 NOT ADD SLT PUSH2 0x38D JUMPI DUP2 CALLDATALOAD SWAP1 PUSH1 0x1 PUSH1 0x1 PUSH1 0xA0 SHL SUB DUP1 DUP4 AND DUP1 SWAP4 SUB PUSH2 0x5E3 JUMPI PUSH1 0x6 SLOAD AND CALLER SUB PUSH2 0x5A1 JUMPI POP PUSH20 0xFFFFFFFFFFFFFFFFFFFFFFFFFFFFFFFFFFFFFFFF NOT DUP3 SLOAD AND OR SWAP1 SSTORE DUP1 RETURN JUMPDEST MLOAD PUSH3 0x461BCD PUSH1 0xE5 SHL DUP2 MSTORE PUSH1 0x20 DUP2 DUP5 ADD MSTORE PUSH1 0x17 PUSH1 0x24 DUP3 ADD MSTORE PUSH32 0x43616C6C6572206973206E6F7420746865206F776E6572000000000000000000 PUSH1 0x44 DUP3 ADD MSTORE PUSH1 0x64 SWAP1 REVERT JUMPDEST DUP5 DUP1 REVERT JUMPDEST POP SWAP1 CALLVALUE PUSH2 0x290 JUMPI DUP2 PUSH1 0x3 NOT CALLDATASIZE ADD SLT PUSH2 0x290 JUMPI PUSH1 0x20 SWAP1 PUSH1 0x7 SLOAD SWAP1 MLOAD SWAP1 DUP2 MSTORE RETURN JUMPDEST POP SWAP1 CALLVALUE PUSH2 0x290 JUMPI DUP2 PUSH1 0x3 NOT CALLDATASIZE ADD SLT PUSH2 0x290 JUMPI PUSH1 0x20 SWAP1 PUSH1 0xB SLOAD SWAP1 MLOAD SWAP1 DUP2 MSTORE RETURN JUMPDEST POP SWAP2 CALLVALUE PUSH2 0x38D JUMPI PUSH1 0x20 CALLDATASIZE PUSH1 0x3 NOT ADD SLT PUSH2 0x38D JUMPI CALLDATALOAD PUSH1 0x1 PUSH1 0x1 PUSH1 0xA0 SHL SUB DUP2 AND DUP1 SWAP2 SUB PUSH2 0x38D JUMPI DUP3 DUP3 SWAP2 PUSH1 0x20 SWAP5 MSTORE PUSH1 0x1 DUP5 MSTORE KECCAK256 SLOAD SWAP1 MLOAD SWAP1 DUP2 MSTORE RETURN JUMPDEST POP SWAP1 CALLVALUE PUSH2 0x290 JUMPI DUP2 PUSH1 0x3 NOT CALLDATASIZE ADD SLT PUSH2 0x290 JUMPI PUSH1 0x20 SWAP1 MLOAD PUSH3 0x93A80 DUP2 MSTORE RETURN JUMPDEST POP SWAP2 CALLVALUE PUSH2 0x38D JUMPI PUSH1 0x20 CALLDATASIZE PUSH1 0x3 NOT ADD SLT PUSH2 0x38D JUMPI CALLDATALOAD PUSH1 0x1 PUSH1 0x1 PUSH1 0xA0 SHL SUB DUP2 AND DUP1 SWAP2 SUB PUSH2 0x38D JUMPI DUP3 DUP3 SWAP2 PUSH1 0x20 SWAP5 MSTORE PUSH1 0x2 DUP5 MSTORE KECCAK256 SLOAD SWAP1 MLOAD SWAP1 DUP2 MSTORE RETURN JUMPDEST POP SWAP1 CALLVALUE PUSH2 0x290 JUMPI DUP2 PUSH1 0x3 NOT CALLDATASIZE ADD SLT PUSH2 0x290 JUMPI PUSH1 0x20 SWAP1 PUSH1 0x1 PUSH1 0x1 PUSH1 0xA0 SHL SUB PUSH1 0x5 SLOAD AND SWAP1 MLOAD SWAP1 DUP2 MSTORE RETURN JUMPDEST POP SWAP1 CALLVALUE PUSH2 0x290 JUMPI DUP2 PUSH1 0x3 NOT CALLDATASIZE ADD SLT PUSH2 0x290 JUMPI PUSH1 0x20 SWAP1 PUSH1 0xC SLOAD SWAP1 MLOAD SWAP1 DUP2 MSTORE RETURN JUMPDEST POP SWAP2 SWAP1 DUP3 PUSH1 0x3 NOT CALLDATASIZE ADD SLT PUSH2 0x38D JUMPI PUSH2 0x712 PUSH2 0x16F3 JUMP JUMPDEST PUSH7 0x38D7EA4C68000 CALLVALUE LT PUSH2 0xA54 JUMPI PUSH2 0x728 PUSH2 0x1675 JUMP JUMPDEST PUSH1 0x1 PUSH1 0x1 PUSH1 0xA0 SHL SUB SWAP2 DUP4 DUP4 PUSH1 0x5 SLOAD AND DUP1 EXTCODESIZE ISZERO PUSH2 0x290 JUMPI DUP2 DUP4 SWAP2 DUP6 MLOAD SWAP3 DUP4 DUP1 SWAP3 PUSH4 0xD0E30DB PUSH1 0xE4 SHL DUP3 MSTORE CALLVALUE SWAP1 GAS CALL DUP1 ISZERO PUSH2 0xA4A JUMPI PUSH2 0xA36 JUMPI JUMPDEST POP POP PUSH1 0x46 CALLVALUE MUL CALLVALUE DUP2 DIV PUSH1 0x46 EQ CALLVALUE ISZERO OR ISZERO PUSH2 0xA23 JUMPI PUSH1 0x64 SWAP1 DIV SWAP3 PUSH2 0x783 DUP5 CALLVALUE PUSH2 0x1371 JUMP JUMPDEST POP DUP1 PUSH1 0x5 SLOAD AND DUP2 DUP4 SLOAD AND DUP5 MLOAD DUP1 SWAP3 PUSH32 0xA9059CBB00000000000000000000000000000000000000000000000000000000 DUP3 MSTORE DUP2 DUP10 DUP2 PUSH2 0x7DD PUSH1 0x20 SWAP12 DUP13 SWAP8 DUP12 DUP5 ADD PUSH1 0x20 SWAP1 SWAP4 SWAP3 SWAP2 SWAP4 PUSH1 0x1 PUSH1 0x1 PUSH1 0xA0 SHL SUB PUSH1 0x40 DUP3 ADD SWAP6 AND DUP2 MSTORE ADD MSTORE JUMP JUMPDEST SUB SWAP3 GAS CALL SWAP1 DUP2 ISZERO PUSH2 0xA19 JUMPI DUP7 SWAP2 PUSH2 0x9DF JUMPI JUMPDEST POP ISZERO PUSH2 0x99D JUMPI DUP5 SWAP1 CALLER DUP3 MSTORE PUSH1 0x1 DUP6 MSTORE DUP4 DUP3 KECCAK256 SLOAD DUP1 PUSH2 0x88A JUMPI JUMPDEST DUP3 DUP7 PUSH32 0xEBEDB8B3C678666E7F36970BC8F57ABF6D8FA2E828C0DA91EA5B75BF68ED101A DUP8 CALLER DUP5 MSTORE PUSH1 0x1 DUP4 MSTORE DUP1 DUP5 KECCAK256 PUSH2 0x841 CALLVALUE DUP3 SLOAD PUSH2 0x1394 JUMP JUMPDEST SWAP1 SSTORE PUSH2 0x84F CALLVALUE PUSH1 0x7 SLOAD PUSH2 0x1394 JUMP JUMPDEST PUSH1 0x7 SSTORE CALLER DUP5 MSTORE PUSH1 0x1 DUP4 MSTORE PUSH5 0xE8D4A51000 PUSH2 0x86F DUP3 DUP7 KECCAK256 SLOAD PUSH1 0x9 SLOAD SWAP1 PUSH2 0x13C1 JUMP JUMPDEST DIV CALLER DUP6 MSTORE PUSH1 0x2 DUP5 MSTORE DUP2 DUP6 KECCAK256 SSTORE MLOAD SWAP2 CALLVALUE DUP4 MSTORE CALLER SWAP3 LOG2 PUSH1 0x1 DUP2 SSTORE DUP1 RETURN JUMPDEST PUSH5 0xE8D4A51000 PUSH2 0x8A0 PUSH2 0x8B2 SWAP3 PUSH1 0x9 SLOAD SWAP1 PUSH2 0x13C1 JUMP JUMPDEST DIV CALLER DUP5 MSTORE PUSH1 0x2 DUP8 MSTORE DUP6 DUP5 KECCAK256 SLOAD SWAP1 PUSH2 0x1371 JUMP JUMPDEST SWAP3 DUP4 ISZERO SWAP2 DUP3 ISZERO PUSH2 0x8C3 JUMPI JUMPDEST POP PUSH2 0x808 JUMP JUMPDEST PUSH1 0x5 SLOAD AND SWAP1 DUP2 EXTCODESIZE ISZERO PUSH2 0x999 JUMPI DUP5 PUSH1 0x24 DUP6 SWAP3 DUP4 DUP10 MLOAD SWAP6 DUP7 SWAP5 DUP6 SWAP4 PUSH4 0x2E1A7D4D PUSH1 0xE0 SHL DUP6 MSTORE DUP5 ADD MSTORE GAS CALL DUP1 ISZERO PUSH2 0x98F JUMPI SWAP1 DUP4 SWAP2 PUSH2 0x97B JUMPI JUMPDEST POP DUP4 SWAP1 SWAP2 PUSH2 0x971 JUMPI JUMPDEST DUP3 DUP1 SWAP3 SWAP2 DUP2 SWAP3 CALLER SWAP1 CALL ISZERO PUSH2 0x967 JUMPI SWAP1 PUSH32 0xEBEDB8B3C678666E7F36970BC8F57ABF6D8FA2E828C0DA91EA5B75BF68ED101A SWAP2 DUP2 MLOAD SWAP1 DUP2 MSTORE PUSH32 0x106F923F993C2149D49B4255FF723ACAFA1F2D94393F561D3EDA32AE348F7241 DUP5 CALLER SWAP3 LOG2 SWAP1 DUP4 CODESIZE DUP1 DUP1 PUSH2 0x8BD JUMP JUMPDEST DUP2 MLOAD RETURNDATASIZE DUP6 DUP3 RETURNDATACOPY RETURNDATASIZE SWAP1 REVERT JUMPDEST PUSH2 0x8FC SWAP2 POP PUSH2 0x902 JUMP JUMPDEST PUSH2 0x984 SWAP1 PUSH2 0x1325 JUMP JUMPDEST PUSH2 0x290 JUMPI DUP2 CODESIZE PUSH2 0x8F9 JUMP JUMPDEST DUP6 MLOAD RETURNDATASIZE DUP6 DUP3 RETURNDATACOPY RETURNDATASIZE SWAP1 REVERT JUMPDEST DUP4 DUP1 REVERT JUMPDEST POP DUP3 PUSH1 0x64 SWAP3 MLOAD SWAP2 PUSH3 0x461BCD PUSH1 0xE5 SHL DUP4 MSTORE DUP3 ADD MSTORE PUSH1 0x1E PUSH1 0x24 DUP3 ADD MSTORE PUSH32 0x4661696C656420746F2073656E64205745544820746F20666163746F72790000 PUSH1 0x44 DUP3 ADD MSTORE REVERT JUMPDEST SWAP1 POP DUP5 DUP2 DUP2 RETURNDATASIZE DUP4 GT PUSH2 0xA12 JUMPI JUMPDEST PUSH2 0x9F6 DUP2 DUP4 PUSH2 0x134F JUMP JUMPDEST DUP2 ADD SUB SLT PUSH2 0xA0E JUMPI MLOAD DUP1 ISZERO ISZERO DUP2 SUB PUSH2 0xA0E JUMPI CODESIZE PUSH2 0x7EF JUMP JUMPDEST DUP6 DUP1 REVERT JUMPDEST POP RETURNDATASIZE PUSH2 0x9EC JUMP JUMPDEST DUP5 MLOAD RETURNDATASIZE DUP9 DUP3 RETURNDATACOPY RETURNDATASIZE SWAP1 REVERT JUMPDEST PUSH1 0x24 DUP6 PUSH1 0x11 DUP5 PUSH4 0x4E487B71 PUSH1 0xE0 SHL DUP4 MSTORE MSTORE REVERT JUMPDEST PUSH2 0xA3F SWAP1 PUSH2 0x1325 JUMP JUMPDEST PUSH2 0x999 JUMPI DUP4 CODESIZE PUSH2 0x760 JUMP JUMPDEST DUP5 MLOAD RETURNDATASIZE DUP5 DUP3 RETURNDATACOPY RETURNDATASIZE SWAP1 REVERT JUMPDEST SWAP1 PUSH1 0x20 PUSH1 0x64 SWAP3 MLOAD SWAP2 PUSH3 0x461BCD PUSH1 0xE5 SHL DUP4 MSTORE DUP3 ADD MSTORE PUSH1 0x1F PUSH1 0x24 DUP3 ADD MSTORE PUSH32 0x506C65617365207374616B65206174206C6561737420302E3030312045544800 PUSH1 0x44 DUP3 ADD MSTORE REVERT JUMPDEST POP SWAP2 SWAP1 CALLVALUE PUSH2 0x38D JUMPI DUP3 PUSH1 0x3 NOT CALLDATASIZE ADD SLT PUSH2 0x38D JUMPI PUSH2 0xAB2 PUSH2 0x16F3 JUMP JUMPDEST PUSH2 0xABA PUSH2 0x1675 JUMP JUMPDEST CALLER DUP4 MSTORE PUSH1 0x20 SWAP1 PUSH1 0x1 DUP3 MSTORE DUP1 DUP5 KECCAK256 SLOAD DUP1 ISZERO PUSH2 0xCC0 JUMPI PUSH2 0xAE1 PUSH5 0xE8D4A51000 SWAP2 PUSH1 0x9 SLOAD SWAP1 PUSH2 0x13C1 JUMP JUMPDEST DIV SWAP3 CALLER DUP6 MSTORE PUSH1 0x2 DUP4 MSTORE PUSH2 0xAF7 DUP3 DUP7 KECCAK256 SLOAD DUP6 PUSH2 0x1371 JUMP JUMPDEST SWAP4 DUP5 ISZERO PUSH2 0xC7E JUMPI PUSH1 0x8 SLOAD DUP6 DUP2 LT PUSH2 0xC3C JUMPI DUP6 PUSH2 0xB12 SWAP2 PUSH2 0x1371 JUMP JUMPDEST PUSH1 0x8 SSTORE CALLER DUP7 MSTORE PUSH1 0x2 DUP5 MSTORE DUP3 DUP7 KECCAK256 SSTORE DUP5 PUSH1 0x1 PUSH1 0x1 PUSH1 0xA0 SHL SUB PUSH1 0x5 SLOAD AND DUP1 EXTCODESIZE ISZERO PUSH2 0x290 JUMPI DUP2 DUP1 SWAP2 PUSH1 0x24 DUP7 MLOAD DUP1 SWAP5 DUP2 SWAP4 PUSH4 0x2E1A7D4D PUSH1 0xE0 SHL DUP4 MSTORE DUP12 DUP10 DUP5 ADD MSTORE GAS CALL DUP1 ISZERO PUSH2 0xA4A JUMPI PUSH2 0xC28 JUMPI JUMPDEST POP DUP1 DUP1 DUP1 DUP8 CALLER GAS CALL RETURNDATASIZE ISZERO PUSH2 0xC23 JUMPI RETURNDATASIZE PUSH8 0xFFFFFFFFFFFFFFFF DUP2 GT PUSH2 0xC10 JUMPI DUP4 MLOAD SWAP1 PUSH2 0xB8F PUSH1 0x1F DUP3 ADD PUSH1 0x1F NOT AND DUP8 ADD DUP4 PUSH2 0x134F JUMP JUMPDEST DUP2 MSTORE DUP7 DUP6 RETURNDATASIZE SWAP3 ADD RETURNDATACOPY JUMPDEST ISZERO PUSH2 0xBCF JUMPI POP SWAP1 PUSH32 0x106F923F993C2149D49B4255FF723ACAFA1F2D94393F561D3EDA32AE348F7241 SWAP2 MLOAD SWAP3 DUP4 MSTORE CALLER SWAP3 LOG2 PUSH1 0x1 DUP2 SSTORE DUP1 RETURN JUMPDEST DUP3 PUSH1 0x64 SWAP3 MLOAD SWAP2 PUSH3 0x461BCD PUSH1 0xE5 SHL DUP4 MSTORE DUP3 ADD MSTORE PUSH1 0x12 PUSH1 0x24 DUP3 ADD MSTORE PUSH32 0x4661696C656420746F2073656E64204554480000000000000000000000000000 PUSH1 0x44 DUP3 ADD MSTORE REVERT JUMPDEST PUSH1 0x24 DUP8 PUSH1 0x41 DUP6 PUSH4 0x4E487B71 PUSH1 0xE0 SHL DUP4 MSTORE MSTORE REVERT JUMPDEST PUSH2 0xB98 JUMP JUMPDEST PUSH2 0xC31 SWAP1 PUSH2 0x1325 JUMP JUMPDEST PUSH2 0x5E3 JUMPI DUP5 CODESIZE PUSH2 0xB5B JUMP JUMPDEST PUSH1 0x64 DUP4 DUP7 DUP7 MLOAD SWAP2 PUSH3 0x461BCD PUSH1 0xE5 SHL DUP4 MSTORE DUP3 ADD MSTORE PUSH1 0x1A PUSH1 0x24 DUP3 ADD MSTORE PUSH32 0x4E6F7420656E6F756768207265776172647320696E20706F6F6C000000000000 PUSH1 0x44 DUP3 ADD MSTORE REVERT JUMPDEST POP DUP3 PUSH1 0x64 SWAP3 MLOAD SWAP2 PUSH3 0x461BCD PUSH1 0xE5 SHL DUP4 MSTORE DUP3 ADD MSTORE PUSH1 0x13 PUSH1 0x24 DUP3 ADD MSTORE PUSH32 0x4E6F207265776172647320746F20636C61696D00000000000000000000000000 PUSH1 0x44 DUP3 ADD MSTORE REVERT JUMPDEST POP PUSH1 0x84 SWAP4 POP MLOAD SWAP2 PUSH3 0x461BCD PUSH1 0xE5 SHL DUP4 MSTORE DUP3 ADD MSTORE PUSH1 0x25 PUSH1 0x24 DUP3 ADD MSTORE PUSH32 0x4E6F207374616B656420616D6F756E7420746F20636C61696D20726577617264 PUSH1 0x44 DUP3 ADD MSTORE PUSH32 0x7320666F72000000000000000000000000000000000000000000000000000000 PUSH1 0x64 DUP3 ADD MSTORE REVERT JUMPDEST POP SWAP1 CALLVALUE PUSH2 0x290 JUMPI PUSH1 0x20 SWAP1 DUP2 PUSH1 0x3 NOT CALLDATASIZE ADD SLT PUSH2 0x38D JUMPI DUP4 CALLDATALOAD SWAP2 PUSH2 0xD48 PUSH2 0x16F3 JUMP JUMPDEST PUSH7 0x38D7EA4C68000 DUP4 LT PUSH2 0x10CC JUMPI PUSH2 0xD5E PUSH2 0x1675 JUMP JUMPDEST CALLER DUP5 MSTORE PUSH1 0x1 DUP2 MSTORE DUP3 DUP3 DUP6 KECCAK256 SLOAD LT PUSH2 0x108A JUMPI PUSH1 0x1 PUSH1 0x1 PUSH1 0xA0 SHL SUB DUP1 PUSH1 0x5 SLOAD AND DUP4 MLOAD DUP4 DUP2 PUSH1 0x24 DUP2 PUSH4 0x70A08231 PUSH1 0xE0 SHL SWAP6 DUP7 DUP3 MSTORE ADDRESS DUP14 DUP4 ADD MSTORE GAS STATICCALL SWAP1 DUP2 ISZERO PUSH2 0x104F JUMPI DUP8 SWAP2 PUSH2 0x105D JUMPI JUMPDEST POP DUP6 DUP2 LT PUSH2 0xDFC JUMPI POP POP POP DUP3 SWAP4 SWAP5 POP PUSH2 0xDDE PUSH32 0x57E41DF54512C76148B5BA9B643D149752B0D35E493B969BD017D0A3FE5228CF SWAP4 CALLER PUSH2 0x172E JUMP JUMPDEST CALLER DUP6 MSTORE PUSH1 0x3 DUP2 MSTORE DUP2 DUP6 KECCAK256 SLOAD SWAP1 DUP3 MLOAD SWAP5 DUP6 MSTORE DUP5 ADD MSTORE CALLER SWAP3 LOG2 PUSH1 0x1 DUP2 SSTORE DUP1 RETURN JUMPDEST PUSH2 0xE06 SWAP1 DUP7 PUSH2 0x1371 JUMP JUMPDEST DUP3 DUP9 SLOAD AND DUP1 EXTCODESIZE ISZERO PUSH2 0x1059 JUMPI DUP6 MLOAD PUSH32 0xBE5EF17600000000000000000000000000000000000000000000000000000000 DUP2 MSTORE ADDRESS DUP2 DUP12 ADD SWAP1 DUP2 MSTORE PUSH1 0x20 DUP2 ADD SWAP4 SWAP1 SWAP4 MSTORE SWAP2 DUP9 SWAP2 DUP4 SWAP2 DUP3 SWAP1 DUP5 SWAP1 DUP3 SWAP1 PUSH1 0x40 ADD SUB SWAP3 GAS CALL DUP1 ISZERO PUSH2 0x104F JUMPI SWAP1 DUP8 SWAP2 PUSH2 0x103B JUMPI JUMPDEST POP POP DUP3 DUP3 PUSH1 0x5 SLOAD AND SWAP2 PUSH1 0x24 DUP7 MLOAD DUP1 SWAP5 DUP2 SWAP4 DUP3 MSTORE ADDRESS DUP13 DUP4 ADD MSTORE GAS STATICCALL SWAP1 DUP2 ISZERO PUSH2 0xA19 JUMPI SWAP1 DUP6 SWAP2 DUP8 SWAP2 PUSH2 0x1005 JUMPI JUMPDEST POP LT PUSH2 0xECB JUMPI POP DUP3 SWAP4 SWAP5 POP PUSH2 0xEC6 PUSH32 0x57E41DF54512C76148B5BA9B643D149752B0D35E493B969BD017D0A3FE5228CF SWAP4 CALLER PUSH2 0x172E JUMP JUMPDEST PUSH2 0xDDE JUMP JUMPDEST CALLER DUP6 MSTORE PUSH1 0x3 DUP3 MSTORE DUP3 DUP6 KECCAK256 PUSH2 0xEE0 DUP6 DUP3 SLOAD PUSH2 0x1394 JUMP JUMPDEST SWAP1 SSTORE DUP3 MLOAD SWAP1 PUSH1 0x60 DUP3 ADD DUP3 DUP2 LT PUSH8 0xFFFFFFFFFFFFFFFF DUP3 GT OR PUSH2 0xFF0 JUMPI DUP5 MSTORE CALLER DUP3 MSTORE DUP3 DUP3 ADD DUP6 DUP2 MSTORE DUP5 DUP4 ADD SWAP2 TIMESTAMP DUP4 MSTORE PUSH1 0xC SLOAD PUSH9 0x10000000000000000 DUP2 LT ISZERO PUSH2 0xFDD JUMPI DUP1 PUSH1 0x1 PUSH2 0xF32 SWAP3 ADD PUSH1 0xC SSTORE PUSH2 0x12D4 JUMP JUMPDEST SWAP5 SWAP1 SWAP5 PUSH2 0xFCB JUMPI PUSH32 0x57E41DF54512C76148B5BA9B643D149752B0D35E493B969BD017D0A3FE5228CF SWAP8 SWAP9 SWAP10 POP SWAP1 PUSH1 0x2 SWAP4 SWAP3 SWAP2 MLOAD AND PUSH20 0xFFFFFFFFFFFFFFFFFFFFFFFFFFFFFFFFFFFFFFFF NOT DUP6 SLOAD AND OR DUP5 SSTORE MLOAD PUSH1 0x1 DUP5 ADD SSTORE MLOAD SWAP2 ADD SSTORE DUP2 MLOAD DUP5 DUP2 MSTORE TIMESTAMP DUP3 DUP3 ADD MSTORE PUSH32 0xF24CEB8901EAECB633A833076EC1A09F317122E81BD3BC200D811E0C9BB08146 DUP4 CALLER SWAP3 LOG2 PUSH2 0xEC6 PUSH2 0xFC6 PUSH2 0x13D4 JUMP JUMPDEST PUSH2 0x1830 JUMP JUMPDEST PUSH1 0x24 DUP10 DUP1 DUP13 PUSH4 0x4E487B71 PUSH1 0xE0 SHL DUP3 MSTORE MSTORE REVERT JUMPDEST PUSH1 0x24 DUP10 PUSH1 0x41 DUP13 PUSH4 0x4E487B71 PUSH1 0xE0 SHL DUP4 MSTORE MSTORE REVERT JUMPDEST PUSH1 0x41 DUP9 PUSH4 0x4E487B71 PUSH1 0xE0 SHL PUSH1 0x0 MSTORE MSTORE PUSH1 0x24 PUSH1 0x0 REVERT JUMPDEST DUP1 SWAP3 POP DUP5 DUP1 SWAP3 POP RETURNDATASIZE DUP4 GT PUSH2 0x1034 JUMPI JUMPDEST PUSH2 0x101E DUP2 DUP4 PUSH2 0x134F JUMP JUMPDEST DUP2 ADD SUB SLT PUSH2 0x102F JUMPI DUP5 SWAP1 MLOAD CODESIZE PUSH2 0xE90 JUMP JUMPDEST PUSH1 0x0 DUP1 REVERT JUMPDEST POP RETURNDATASIZE PUSH2 0x1014 JUMP JUMPDEST PUSH2 0x1044 SWAP1 PUSH2 0x1325 JUMP JUMPDEST PUSH2 0xA0E JUMPI DUP6 CODESIZE PUSH2 0xE65 JUMP JUMPDEST DUP6 MLOAD RETURNDATASIZE DUP10 DUP3 RETURNDATACOPY RETURNDATASIZE SWAP1 REVERT JUMPDEST DUP8 DUP1 REVERT JUMPDEST SWAP1 POP DUP4 DUP2 DUP2 RETURNDATASIZE DUP4 GT PUSH2 0x1083 JUMPI JUMPDEST PUSH2 0x1074 DUP2 DUP4 PUSH2 0x134F JUMP JUMPDEST DUP2 ADD SUB SLT PUSH2 0x102F JUMPI MLOAD CODESIZE PUSH2 0xDA4 JUMP JUMPDEST POP RETURNDATASIZE PUSH2 0x106A JUMP JUMPDEST DUP5 SWAP1 PUSH1 0x64 SWAP3 MLOAD SWAP2 PUSH3 0x461BCD PUSH1 0xE5 SHL DUP4 MSTORE DUP3 ADD MSTORE PUSH1 0x1B PUSH1 0x24 DUP3 ADD MSTORE PUSH32 0x496E73756666696369656E74207374616B65642062616C616E63650000000000 PUSH1 0x44 DUP3 ADD MSTORE REVERT JUMPDEST DUP5 SWAP1 PUSH1 0x64 SWAP3 MLOAD SWAP2 PUSH3 0x461BCD PUSH1 0xE5 SHL DUP4 MSTORE DUP3 ADD MSTORE PUSH1 0x16 PUSH1 0x24 DUP3 ADD MSTORE PUSH32 0x556E7374616B6520616D6F756E7420746F6F206C6F7700000000000000000000 PUSH1 0x44 DUP3 ADD MSTORE REVERT JUMPDEST POP SWAP2 DUP3 PUSH1 0x3 NOT CALLDATASIZE ADD SLT PUSH2 0x38D JUMPI PUSH1 0x1 PUSH1 0x1 PUSH1 0xA0 SHL SUB DUP1 PUSH1 0x6 SLOAD AND CALLER EQ DUP1 ISZERO PUSH2 0x12AF JUMPI JUMPDEST DUP1 ISZERO PUSH2 0x12A3 JUMPI JUMPDEST ISZERO PUSH2 0x1260 JUMPI CALLVALUE ISZERO PUSH2 0x121D JUMPI DUP4 SWAP1 PUSH2 0x114D PUSH2 0x1675 JUMP JUMPDEST PUSH1 0x5 SLOAD AND DUP1 EXTCODESIZE ISZERO PUSH2 0x290 JUMPI DUP4 MLOAD SWAP3 DUP4 DUP1 SWAP3 PUSH4 0xD0E30DB PUSH1 0xE4 SHL DUP3 MSTORE CALLVALUE SWAP1 GAS CALL DUP1 ISZERO PUSH2 0x1211 JUMPI PUSH2 0x11DB JUMPI JUMPDEST POP PUSH1 0x20 PUSH32 0xF8FAD42E780BFA5459BE3FE691E8BA1AEC70342250112139C5771C3FD155F312 SWAP2 PUSH2 0x11CC PUSH3 0x93A80 DUP1 PUSH2 0x11B0 PUSH1 0xA SLOAD TIMESTAMP PUSH2 0x1371 JUMP JUMPDEST MOD SWAP1 DUP1 PUSH2 0x11BF CALLVALUE PUSH1 0x8 SLOAD PUSH2 0x1394 JUMP JUMPDEST SWAP3 DUP4 PUSH1 0x8 SSTORE DIV SWAP2 DIV PUSH2 0x13C1 JUMP JUMPDEST PUSH1 0xB SSTORE TIMESTAMP PUSH1 0xA SSTORE MLOAD CALLVALUE DUP2 MSTORE LOG1 DUP1 RETURN JUMPDEST PUSH32 0xF8FAD42E780BFA5459BE3FE691E8BA1AEC70342250112139C5771C3FD155F312 SWAP2 SWAP3 PUSH2 0x1209 PUSH1 0x20 SWAP3 PUSH2 0x1325 JUMP JUMPDEST SWAP3 SWAP2 POP PUSH2 0x1177 JUMP JUMPDEST POP POP MLOAD SWAP1 RETURNDATASIZE SWAP1 DUP3 RETURNDATACOPY RETURNDATASIZE SWAP1 REVERT JUMPDEST POP PUSH1 0x20 PUSH1 0x64 SWAP3 MLOAD SWAP2 PUSH3 0x461BCD PUSH1 0xE5 SHL DUP4 MSTORE DUP3 ADD MSTORE PUSH1 0x11 PUSH1 0x24 DUP3 ADD MSTORE PUSH32 0x4E6F207265776172647320746F20616464000000000000000000000000000000 PUSH1 0x44 DUP3 ADD MSTORE REVERT JUMPDEST POP PUSH1 0x20 PUSH1 0x64 SWAP3 MLOAD SWAP2 PUSH3 0x461BCD PUSH1 0xE5 SHL DUP4 MSTORE DUP3 ADD MSTORE PUSH1 0x18 PUSH1 0x24 DUP3 ADD MSTORE PUSH32 0x43616C6C6572206973206E6F7420617574686F72697A65640000000000000000 PUSH1 0x44 DUP3 ADD MSTORE REVERT JUMPDEST POP DUP1 DUP3 SLOAD AND CALLER EQ PUSH2 0x1138 JUMP JUMPDEST POP ADDRESS CALLER EQ PUSH2 0x1131 JUMP JUMPDEST SWAP1 POP CALLVALUE PUSH2 0x290 JUMPI DUP2 PUSH1 0x3 NOT CALLDATASIZE ADD SLT PUSH2 0x290 JUMPI PUSH1 0x20 SWAP1 PUSH1 0x7 SLOAD DUP2 MSTORE RETURN JUMPDEST PUSH1 0xC SLOAD DUP2 LT ISZERO PUSH2 0x130F JUMPI PUSH1 0x3 SWAP1 PUSH1 0xC PUSH1 0x0 MSTORE MUL PUSH32 0xDF6966C971051C3D54EC59162606531493A51404A002842F56009D7E5CF4A8C7 ADD SWAP1 PUSH1 0x0 SWAP1 JUMP JUMPDEST PUSH4 0x4E487B71 PUSH1 0xE0 SHL PUSH1 0x0 MSTORE PUSH1 0x32 PUSH1 0x4 MSTORE PUSH1 0x24 PUSH1 0x0 REVERT JUMPDEST PUSH8 0xFFFFFFFFFFFFFFFF DUP2 GT PUSH2 0x1339 JUMPI PUSH1 0x40 MSTORE JUMP JUMPDEST PUSH4 0x4E487B71 PUSH1 0xE0 SHL PUSH1 0x0 MSTORE PUSH1 0x41 PUSH1 0x4 MSTORE PUSH1 0x24 PUSH1 0x0 REVERT JUMPDEST SWAP1 PUSH1 0x1F DUP1 NOT SWAP2 ADD AND DUP2 ADD SWAP1 DUP2 LT PUSH8 0xFFFFFFFFFFFFFFFF DUP3 GT OR PUSH2 0x1339 JUMPI PUSH1 0x40 MSTORE JUMP JUMPDEST SWAP2 SWAP1 DUP3 SUB SWAP2 DUP3 GT PUSH2 0x137E JUMPI JUMP JUMPDEST PUSH4 0x4E487B71 PUSH1 0xE0 SHL PUSH1 0x0 MSTORE PUSH1 0x11 PUSH1 0x4 MSTORE PUSH1 0x24 PUSH1 0x0 REVERT JUMPDEST SWAP2 SWAP1 DUP3 ADD DUP1 SWAP3 GT PUSH2 0x137E JUMPI JUMP JUMPDEST DUP2 ISZERO PUSH2 0x13AB JUMPI DIV SWAP1 JUMP JUMPDEST PUSH4 0x4E487B71 PUSH1 0xE0 SHL PUSH1 0x0 MSTORE PUSH1 0x12 PUSH1 0x4 MSTORE PUSH1 0x24 PUSH1 0x0 REVERT JUMPDEST DUP2 DUP2 MUL SWAP3 SWAP2 DUP2 ISZERO SWAP2 DUP5 DIV EQ OR ISZERO PUSH2 0x137E JUMPI JUMP JUMPDEST PUSH1 0x0 DUP1 PUSH1 0xC SLOAD JUMPDEST DUP1 DUP3 LT PUSH2 0x13E7 JUMPI POP POP SWAP1 JUMP JUMPDEST SWAP1 SWAP2 PUSH2 0x1402 PUSH1 0x1 SWAP2 DUP3 PUSH2 0x13F9 DUP7 PUSH2 0x12D4 JUMP JUMPDEST POP ADD SLOAD SWAP1 PUSH2 0x1394 JUMP JUMPDEST SWAP3 ADD SWAP1 PUSH2 0x13DB JUMP JUMPDEST PUSH1 0x1 PUSH1 0x1 PUSH1 0xA0 SHL SUB DUP1 PUSH1 0x5 SLOAD AND PUSH1 0x40 MLOAD DUP1 SWAP4 DUP2 SWAP4 PUSH4 0x70A08231 PUSH1 0xE0 SHL DUP4 MSTORE PUSH1 0x4 SWAP4 ADDRESS DUP6 DUP6 ADD MSTORE PUSH1 0x20 SWAP6 DUP7 SWAP2 PUSH1 0x24 SWAP9 DUP10 SWAP2 GAS STATICCALL SWAP3 DUP4 ISZERO PUSH2 0x1669 JUMPI PUSH1 0x0 SWAP4 PUSH2 0x163A JUMPI JUMPDEST POP PUSH32 0x264B03945932E4BC51E688F9F27DBB1F5FABA7660D11ABDBF7E7F41ED87928BA DUP6 DUP5 PUSH1 0x40 MLOAD SWAP1 DUP2 MSTORE LOG1 PUSH1 0x0 SWAP3 DUP4 SWAP3 JUMPDEST PUSH1 0xC SWAP2 DUP3 SLOAD DUP6 LT DUP1 PUSH2 0x1631 JUMPI JUMPDEST ISZERO PUSH2 0x15EB JUMPI PUSH2 0x1497 DUP6 PUSH2 0x12D4 JUMP JUMPDEST POP PUSH1 0x1 DUP1 DUP3 ADD DUP1 SLOAD SWAP2 SWAP4 SWAP3 SWAP1 SWAP2 SWAP1 DUP2 DUP5 LT PUSH2 0x15AF JUMPI PUSH2 0x14C5 SWAP4 SWAP3 SWAP2 DUP9 PUSH2 0x14BE SWAP3 SLOAD AND PUSH2 0x172E JUMP JUMPDEST SLOAD SWAP1 PUSH2 0x1371 JUMP JUMPDEST SWAP3 DUP1 SLOAD PUSH1 0x0 NOT SWAP1 DUP2 DUP2 ADD SWAP1 DUP2 GT PUSH2 0x159B JUMPI PUSH2 0x14DF SWAP1 PUSH2 0x12D4 JUMP JUMPDEST POP PUSH2 0x14E9 DUP9 PUSH2 0x12D4 JUMP JUMPDEST SWAP2 SWAP1 SWAP2 PUSH2 0x1588 JUMPI DUP1 DUP3 SUB PUSH2 0x1550 JUMPI JUMPDEST POP POP DUP2 SLOAD DUP1 ISZERO PUSH2 0x153C JUMPI ADD SWAP2 PUSH2 0x150D DUP4 PUSH2 0x12D4 JUMP JUMPDEST SWAP2 SWAP1 SWAP2 PUSH2 0x1529 JUMPI DUP2 PUSH1 0x0 PUSH1 0x2 SWAP3 DUP2 DUP1 SWAP6 SSTORE DUP3 ADD SSTORE ADD SSTORE SSTORE PUSH2 0x147C JUMP JUMPDEST DUP12 PUSH1 0x0 DUP12 PUSH4 0x4E487B71 PUSH1 0xE0 SHL DUP3 MSTORE MSTORE PUSH1 0x0 REVERT JUMPDEST DUP12 PUSH1 0x31 DUP12 PUSH4 0x4E487B71 PUSH1 0xE0 SHL PUSH1 0x0 MSTORE MSTORE PUSH1 0x0 REVERT JUMPDEST DUP8 DUP2 SLOAD AND PUSH20 0xFFFFFFFFFFFFFFFFFFFFFFFFFFFFFFFFFFFFFFFF NOT DUP4 SLOAD AND OR DUP3 SSTORE DUP5 DUP2 ADD SLOAD DUP6 DUP4 ADD SSTORE PUSH1 0x2 DUP1 SWAP2 ADD SLOAD SWAP2 ADD SSTORE CODESIZE DUP1 PUSH2 0x14F8 JUMP JUMPDEST DUP13 PUSH1 0x0 DUP13 PUSH4 0x4E487B71 PUSH1 0xE0 SHL DUP3 MSTORE MSTORE PUSH1 0x0 REVERT JUMPDEST DUP12 PUSH1 0x11 DUP12 PUSH4 0x4E487B71 PUSH1 0xE0 SHL PUSH1 0x0 MSTORE MSTORE PUSH1 0x0 REVERT JUMPDEST POP DUP3 SWAP6 POP PUSH2 0x237 SWAP2 POP SWAP2 PUSH2 0x15C6 SWAP4 SWAP5 SWAP8 SWAP9 SWAP3 PUSH2 0x1371 JUMP JUMPDEST SWAP5 PUSH1 0x0 NOT DUP2 EQ PUSH2 0x15D7 JUMPI ADD SWAP3 PUSH2 0x147C JUMP JUMPDEST DUP9 PUSH1 0x11 DUP9 PUSH4 0x4E487B71 PUSH1 0xE0 SHL PUSH1 0x0 MSTORE MSTORE PUSH1 0x0 REVERT JUMPDEST POP SWAP7 POP POP POP POP SWAP2 SWAP1 POP DUP2 PUSH2 0x15FD JUMPI POP POP JUMP JUMPDEST DUP2 PUSH2 0x1628 PUSH32 0xD5E85995D9BDCDAFB72531EC59FAEF29167C16780583CA2068587FE896170C47 SWAP4 PUSH2 0x1830 JUMP JUMPDEST PUSH1 0x40 MLOAD SWAP1 DUP2 MSTORE LOG1 JUMP JUMPDEST POP DUP1 ISZERO ISZERO PUSH2 0x1489 JUMP JUMPDEST SWAP1 SWAP3 POP DUP5 DUP2 DUP2 RETURNDATASIZE DUP4 GT PUSH2 0x1662 JUMPI JUMPDEST PUSH2 0x1652 DUP2 DUP4 PUSH2 0x134F JUMP JUMPDEST DUP2 ADD SUB SLT PUSH2 0x102F JUMPI MLOAD SWAP2 CODESIZE PUSH2 0x144B JUMP JUMPDEST POP RETURNDATASIZE PUSH2 0x1648 JUMP JUMPDEST PUSH1 0x40 MLOAD RETURNDATASIZE PUSH1 0x0 DUP3 RETURNDATACOPY RETURNDATASIZE SWAP1 REVERT JUMPDEST PUSH1 0xA SLOAD TIMESTAMP GT ISZERO PUSH2 0x16F1 JUMPI PUSH1 0x7 SLOAD DUP1 ISZERO PUSH2 0x16EA JUMPI PUSH2 0x1697 PUSH2 0x1E7 PUSH1 0xA SLOAD TIMESTAMP PUSH2 0x1371 JUMP JUMPDEST PUSH1 0x8 SLOAD DUP1 DUP3 GT PUSH2 0x16E2 JUMPI JUMPDEST PUSH5 0xE8D4A51000 SWAP3 DUP4 DUP4 MUL SWAP4 DUP4 DUP6 DIV EQ DUP4 ISZERO OR ISZERO PUSH2 0x137E JUMPI PUSH2 0x16C9 PUSH2 0x16D1 SWAP2 PUSH2 0x16D9 SWAP6 PUSH2 0x13A1 JUMP JUMPDEST PUSH1 0x9 SLOAD PUSH2 0x1394 JUMP JUMPDEST PUSH1 0x9 SSTORE PUSH2 0x1371 JUMP JUMPDEST PUSH1 0x8 SSTORE TIMESTAMP PUSH1 0xA SSTORE JUMP JUMPDEST SWAP1 POP DUP1 PUSH2 0x16A2 JUMP JUMPDEST POP TIMESTAMP PUSH1 0xA SSTORE JUMP JUMPDEST JUMP JUMPDEST PUSH1 0x2 PUSH1 0x0 SLOAD EQ PUSH2 0x1704 JUMPI PUSH1 0x2 PUSH1 0x0 SSTORE JUMP JUMPDEST PUSH1 0x4 PUSH1 0x40 MLOAD PUSH32 0x3EE5AEB500000000000000000000000000000000000000000000000000000000 DUP2 MSTORE REVERT JUMPDEST SWAP1 PUSH1 0x5 SLOAD SWAP2 PUSH1 0x0 SWAP3 PUSH1 0x1 PUSH1 0x1 PUSH1 0xA0 SHL SUB DUP1 SWAP2 AND SWAP2 DUP3 EXTCODESIZE ISZERO PUSH2 0x5E3 JUMPI DUP5 DUP1 PUSH1 0x40 SWAP5 PUSH1 0x24 DUP7 MLOAD DUP1 SWAP5 DUP2 SWAP4 PUSH4 0x2E1A7D4D PUSH1 0xE0 SHL DUP4 MSTORE DUP11 PUSH1 0x4 DUP5 ADD MSTORE GAS CALL DUP1 ISZERO PUSH2 0xA19 JUMPI PUSH2 0x181D JUMPI JUMPDEST POP AND SWAP3 DUP1 DUP4 DUP6 DUP3 DUP3 ISZERO PUSH2 0x1814 JUMPI JUMPDEST DUP4 SWAP3 DUP4 SWAP3 DUP4 SWAP3 CALL ISZERO PUSH2 0x1809 JUMPI SWAP2 PUSH1 0x20 SWAP2 DUP4 DUP6 PUSH32 0x85082129D87B2FE11527CB1B3B7A520AEB5AA6913F88A3D8757FE40D1DB02FDD SWAP6 MSTORE PUSH1 0x1 DUP5 MSTORE DUP2 DUP2 KECCAK256 PUSH2 0x17C8 DUP5 DUP3 SLOAD PUSH2 0x1371 JUMP JUMPDEST SWAP1 SSTORE PUSH2 0x17D6 DUP4 PUSH1 0x7 SLOAD PUSH2 0x1371 JUMP JUMPDEST PUSH1 0x7 SSTORE DUP6 DUP2 MSTORE PUSH1 0x1 DUP5 MSTORE DUP2 PUSH5 0xE8D4A51000 PUSH2 0x17F7 DUP3 DUP5 KECCAK256 SLOAD PUSH1 0x9 SLOAD SWAP1 PUSH2 0x13C1 JUMP JUMPDEST DIV SWAP2 DUP8 DUP2 MSTORE PUSH1 0x2 DUP7 MSTORE KECCAK256 SSTORE MLOAD SWAP1 DUP2 MSTORE LOG2 JUMP JUMPDEST SWAP1 MLOAD SWAP1 RETURNDATASIZE SWAP1 DUP3 RETURNDATACOPY RETURNDATASIZE SWAP1 REVERT JUMPDEST POP PUSH2 0x8FC PUSH2 0x1781 JUMP JUMPDEST PUSH2 0x1829 SWAP1 SWAP6 SWAP2 SWAP6 PUSH2 0x1325 JUMP JUMPDEST SWAP4 CODESIZE PUSH2 0x1773 JUMP JUMPDEST PUSH32 0xAC0A36A73050720C3FA0D6988CCA2309EF4472B3B09FAFA8E713F434FF33A05B PUSH1 0x20 PUSH1 0x40 MLOAD DUP4 DUP2 MSTORE LOG1 PUSH1 0x1 PUSH1 0x1 PUSH1 0xA0 SHL SUB PUSH1 0x4 SLOAD AND SWAP1 DUP2 EXTCODESIZE ISZERO PUSH2 0x102F JUMPI PUSH1 0x0 SWAP2 PUSH1 0x24 DUP4 SWAP3 PUSH1 0x40 MLOAD SWAP5 DUP6 SWAP4 DUP5 SWAP3 PUSH32 0x8C3A65A200000000000000000000000000000000000000000000000000000000 DUP5 MSTORE PUSH1 0x4 DUP5 ADD MSTORE GAS CALL DUP1 ISZERO PUSH2 0x1669 JUMPI PUSH2 0x18B4 JUMPI POP JUMP JUMPDEST PUSH2 0x16F1 SWAP1 PUSH2 0x1325 JUMP INVALID LOG2 PUSH5 0x6970667358 0x22 SLT KECCAK256 0xCF SWAP16 COINBASE NOT 0x27 DUP3 GASLIMIT PUSH9 0xD87A48A9292D42321D 0xBE DUP2 0x2F 0xDA CALL COINBASE 0xF7 0x2F MUL SWAP1 0xD5 0xE7 0xE2 PUSH6 0x1E64736F6C63 NUMBER STOP ADDMOD XOR STOP CALLER "},"methodIdentifiers":{"MIN_UNSTAKE_AMOUNT()":"bc6738cb","REWARD_INTERVAL()":"5dbdda69","accRewardPerShare()":"939d6237","addRewards()":"14d6aed0","claimRewards()":"372500ab","factoryAddress()":"966dae0e","getStake(address)":"7a766460","getTotalRewards()":"e627f2db","getTotalStaked()":"0917e776","getTotalUnstakeQueueAmount()":"b8e347df","getUnstakeQueueLength()":"3bac9c99","getUnstakeRequest(uint256)":"ddb59e13","handleReceivedWETH()":"c4ebe088","lastRewardTime()":"9231cf74","notifyFundsReceived(uint256)":"9b5ceb35","owner()":"8da5cb5b","pendingReward(address)":"f40f0f52","pendingUnstakes(address)":"d6b6b23f","requestUnstake(uint256)":"23095721","rewardDebt(address)":"5873eb9b","rewardRate()":"7b0a47ee","setFactoryAddress(address)":"83c17c55","stake()":"3a4b66f1","stakes(address)":"16934fc4","totalFundsNeeded()":"f3385ace","totalRewards()":"0e15561a","totalStaked()":"817b1cd2","unstakeQueue(uint256)":"afa58070","weth()":"3fc8cef3"}}}}}