{
  "_format": "hh-sol-artifact-1",
  "contractName": "LiquidityLocker",
  "sourceName": "contracts/Locker.sol",
  "abi": [
    {
      "inputs": [
        {
          "internalType": "address",
          "name": "_positionManager",
          "type": "address"
        }
      ],
      "stateMutability": "nonpayable",
      "type": "constructor"
    },
    {
      "anonymous": false,
      "inputs": [
        {
          "indexed": false,
          "internalType": "uint256",
          "name": "",
          "type": "uint256"
        },
        {
          "indexed": false,
          "internalType": "uint256",
          "name": "",
          "type": "uint256"
        },
        {
          "indexed": false,
          "internalType": "uint256",
          "name": "",
          "type": "uint256"
        }
      ],
      "name": "FeesCollected",
      "type": "event"
    },
    {
      "anonymous": false,
      "inputs": [
        {
          "indexed": true,
          "internalType": "uint256",
          "name": "lockId",
          "type": "uint256"
        },
        {
          "indexed": true,
          "internalType": "address",
          "name": "tokenAddress",
          "type": "address"
        },
        {
          "indexed": false,
          "internalType": "uint256",
          "name": "tokenId",
          "type": "uint256"
        },
        {
          "indexed": false,
          "internalType": "uint256",
          "name": "unlockTime",
          "type": "uint256"
        }
      ],
      "name": "LiquidityLocked",
      "type": "event"
    },
    {
      "anonymous": false,
      "inputs": [
        {
          "indexed": true,
          "internalType": "uint256",
          "name": "lockId",
          "type": "uint256"
        },
        {
          "indexed": true,
          "internalType": "address",
          "name": "tokenAddress",
          "type": "address"
        },
        {
          "indexed": false,
          "internalType": "uint256",
          "name": "tokenId",
          "type": "uint256"
        }
      ],
      "name": "LiquidityUnlocked",
      "type": "event"
    },
    {
      "inputs": [
        {
          "internalType": "address",
          "name": "factory",
          "type": "address"
        },
        {
          "internalType": "uint256",
          "name": "tokenId",
          "type": "uint256"
        }
      ],
      "name": "approveFactory",
      "outputs": [],
      "stateMutability": "nonpayable",
      "type": "function"
    },
    {
      "inputs": [
        {
          "internalType": "uint256",
          "name": "tokenId",
          "type": "uint256"
        },
        {
          "internalType": "address",
          "name": "factory",
          "type": "address"
        }
      ],
      "name": "collectFees",
      "outputs": [
        {
          "internalType": "uint256",
          "name": "amount0",
          "type": "uint256"
        },
        {
          "internalType": "uint256",
          "name": "amount1",
          "type": "uint256"
        }
      ],
      "stateMutability": "nonpayable",
      "type": "function"
    },
    {
      "inputs": [],
      "name": "factoryAddress",
      "outputs": [
        {
          "internalType": "address",
          "name": "",
          "type": "address"
        }
      ],
      "stateMutability": "view",
      "type": "function"
    },
    {
      "inputs": [
        {
          "internalType": "address",
          "name": "_nftAddress",
          "type": "address"
        },
        {
          "internalType": "uint256",
          "name": "_tokenId",
          "type": "uint256"
        },
        {
          "internalType": "uint256",
          "name": "_duration",
          "type": "uint256"
        },
        {
          "internalType": "address",
          "name": "factory",
          "type": "address"
        }
      ],
      "name": "lockLiquidity",
      "outputs": [
        {
          "internalType": "uint256",
          "name": "lockId",
          "type": "uint256"
        }
      ],
      "stateMutability": "nonpayable",
      "type": "function"
    },
    {
      "inputs": [
        {
          "internalType": "uint256",
          "name": "",
          "type": "uint256"
        }
      ],
      "name": "locks",
      "outputs": [
        {
          "internalType": "uint256",
          "name": "tokenId",
          "type": "uint256"
        },
        {
          "internalType": "bool",
          "name": "isLocked",
          "type": "bool"
        },
        {
          "internalType": "uint256",
          "name": "lockID",
          "type": "uint256"
        },
        {
          "internalType": "uint256",
          "name": "unlockTime",
          "type": "uint256"
        }
      ],
      "stateMutability": "view",
      "type": "function"
    },
    {
      "inputs": [],
      "name": "nextLockId",
      "outputs": [
        {
          "internalType": "uint256",
          "name": "",
          "type": "uint256"
        }
      ],
      "stateMutability": "view",
      "type": "function"
    },
    {
      "inputs": [
        {
          "internalType": "address",
          "name": "",
          "type": "address"
        },
        {
          "internalType": "address",
          "name": "",
          "type": "address"
        },
        {
          "internalType": "uint256",
          "name": "",
          "type": "uint256"
        },
        {
          "internalType": "bytes",
          "name": "",
          "type": "bytes"
        }
      ],
      "name": "onERC721Received",
      "outputs": [
        {
          "internalType": "bytes4",
          "name": "",
          "type": "bytes4"
        }
      ],
      "stateMutability": "nonpayable",
      "type": "function"
    },
    {
      "inputs": [],
      "name": "owner",
      "outputs": [
        {
          "internalType": "address",
          "name": "",
          "type": "address"
        }
      ],
      "stateMutability": "view",
      "type": "function"
    },
    {
      "inputs": [],
      "name": "positionManager",
      "outputs": [
        {
          "internalType": "contract INonfungiblePositionManager",
          "name": "",
          "type": "address"
        }
      ],
      "stateMutability": "view",
      "type": "function"
    },
    {
      "inputs": [
        {
          "internalType": "address",
          "name": "_factoryAddress",
          "type": "address"
        }
      ],
      "name": "setFactoryAddress",
      "outputs": [],
      "stateMutability": "nonpayable",
      "type": "function"
    },
    {
      "inputs": [
        {
          "internalType": "address",
          "name": "newOwner",
          "type": "address"
        }
      ],
      "name": "transferOwnership",
      "outputs": [],
      "stateMutability": "nonpayable",
      "type": "function"
    },
    {
      "inputs": [
        {
          "internalType": "uint256",
          "name": "_lockId",
          "type": "uint256"
        },
        {
          "internalType": "address",
          "name": "factory",
          "type": "address"
        }
      ],
      "name": "unlockLiquidity",
      "outputs": [],
      "stateMutability": "nonpayable",
      "type": "function"
    }
  ],
  "bytecode": "0x60803461008957601f610ad338819003918201601f19168301916001600160401b0383118484101761008e5780849260209460405283398101031261008957516001600160a01b0381169081900361008957600060025560018060a01b031933816000541617600055818160035416176003556004541617600455604051610a2e90816100a58239f35b600080fd5b634e487b7160e01b600052604160045260246000fdfe6080604081815260048036101561001557600080fd5b600092833560e01c908163150b7a02146108075750806351f3b4bd1461067e5780636518a0b31461065f578063791b98bc146106375780637f4d4fa81461045457806383c17c55146104015780638da5cb5b146103db578063966dae0e146103af57838163a1167b0d1461030557508063c62915c414610198578063f2fde38b146100fa5763f4dadc61146100a957600080fd5b346100f65760203660031901126100f65760809282913581526001602052209081549160ff6001820154169160036002830154920154928151948552151560208501528301526060820152f35b8280fd5b50346100f65760203660031901126100f6576101146108c9565b908354916001600160a01b039061012e82851633146109ad565b1692831561015557505073ffffffffffffffffffffffffffffffffffffffff191617815580f35b906020606492519162461bcd60e51b8352820152601160248201527f496e76616c6964206e6577206f776e65720000000000000000000000000000006044820152fd5b50346100f657816003193601126100f6578035906101b46108e4565b6001600160a01b039182865416331480156102f8575b6101d390610962565b8386526001602052848620600381015442106102b5578690549284835416803b156100f65787516323b872dd60e01b8152308582019081526001600160a01b03909316602084015260408301869052918391839182908490829060600103925af180156102ab5761028f575b509260209291857fdc06eb63ca5d784b588e010a2d11101d6c14f6112ccba7611aadbe0c680c3fb4955260018452876003888220828155826001820155826002820155015554169451908152a380f35b61029b9093929361092c565b6102a75790853861023f565b8580fd5b87513d84823e3d90fd5b606482602088519162461bcd60e51b8352820152601960248201527f4c6971756964697479206973207374696c6c206c6f636b6564000000000000006044820152fd5b50600554831633146101ca565b929050346103ab57806003193601126103ab576103206108c9565b6001600160a01b036103368186541633146109ad565b80845416803b156102a757859283604492865197889586947f095ea7b3000000000000000000000000000000000000000000000000000000008652169084015260243560248401525af19081156103a2575061038f5750f35b6103989061092c565b61039f5780f35b80fd5b513d84823e3d90fd5b5050fd5b5050346103d757816003193601126103d7576020906001600160a01b03600554169051908152f35b5080fd5b5050346103d757816003193601126103d7576001600160a01b0360209254169051908152f35b833461039f57602036600319011261039f5761041b6108c9565b6001600160a01b03906104328284541633146109ad565b1673ffffffffffffffffffffffffffffffffffffffff19600554161760055580f35b509190346103d75760803660031901126103d7576104706108c9565b602435606435916001600160a01b039081841684036102a757818654163314801561062a575b61049f90610962565b169182156105e757823b156105e35783516323b872dd60e01b81526001600160a01b0390911686820190815230602082015260408101839052859082908190606001038183875af180156105d9576105c6575b5060443542018042116105b3576002549460001986146105a0576020965085927f35caa98fef2de84d0d86a8fe9a3965c7604490475581199f5519e0581bac3c0a92869260018601600255600384519161054b836108fa565b8483528b830160018152868401908982528760608601938785528b81528f600190522094518555600185019051151560ff8019835416911617905551600284015551910155825191825288820152a351908152f35b80601188634e487b7160e01b6024945252fd5b602485601188634e487b7160e01b835252fd5b6105d29094919461092c565b92386104f2565b84513d87823e3d90fd5b8480fd5b606486602086519162461bcd60e51b8352820152601360248201527f496e76616c6964204e46542061646472657373000000000000000000000000006044820152fd5b5060055482163314610496565b5050346103d757816003193601126103d7576020906001600160a01b03600354169051908152f35b5050346103d757816003193601126103d7576020906002549051908152f35b508290346103d757826003193601126103d75780358361069c6108e4565b9260846001600160a01b0380875416331480156107fa575b6106bd90610962565b868451916106ca836108fa565b8683528060208401981688528583016fffffffffffffffffffffffffffffffff908181528160608601918183528460035416948a519c8d9a8b997ffc6f7865000000000000000000000000000000000000000000000000000000008b5251908a01525116602488015251166044860152511660648401525af19182156107f057838093610795575b505060607fa54e6c2fc0861aa9c991b26891d71059d517983b9e84b91020f42609c452eb9d9185519081528460208201528386820152a182519182526020820152f35b91925092508383813d83116107e9575b6107af8183610940565b8101031261039f57507fa54e6c2fc0861aa9c991b26891d71059d517983b9e84b91020f42609c452eb9d6060602084519401519291610752565b503d6107a5565b84513d85823e3d90fd5b50600554811633146106b4565b838584346103d75760803660031901126103d7576108236108c9565b5061082c6108e4565b5060643567ffffffffffffffff918282116108c557366023830112156108c557818101359283116108b2575061086c601f8301601f191660200186610940565b81855236602483830101116100f6579060209481602487940184830137010152517f150b7a02000000000000000000000000000000000000000000000000000000008152f35b836041602492634e487b7160e01b835252fd5b8380fd5b600435906001600160a01b03821682036108df57565b600080fd5b602435906001600160a01b03821682036108df57565b6080810190811067ffffffffffffffff82111761091657604052565b634e487b7160e01b600052604160045260246000fd5b67ffffffffffffffff811161091657604052565b90601f8019910116810190811067ffffffffffffffff82111761091657604052565b1561096957565b606460405162461bcd60e51b815260206004820152601860248201527f43616c6c6572206973206e6f7420617574686f72697a656400000000000000006044820152fd5b156109b457565b606460405162461bcd60e51b815260206004820152601760248201527f43616c6c6572206973206e6f7420746865206f776e65720000000000000000006044820152fdfea264697066735822122063da94d3ce9f8f649e86d00442df7ad9e53486b02a42603fc0b29a83d4b638a164736f6c63430008180033",
  "linkReferences": {},
  "deployedLinkReferences": {}
}